:100000000C946F150C9497150C9497150C949715E8
:100010000C9497150C9497150C9497150C949715B0
:100020000C9497150C9497150C9497150C949715A0
:100030000C9497150C9497150C9497150C94971590
:100040000C9497150C9497150C9497150C94971580
:100050000C9497150C9497150C9497150C941420E8
:100060000C9497150C9497150C9497150C94971560
:100070000C9497150C9497150C9497150C94971550
:100080000C9497150C9497150C9497150C94971540
:100090000C9497150C9497150C9497150C94971530
:1000A0000C9497150C9497150C949715FD331434F4
:1000B0005A345A343B34A53486340E18FEFEFCF90B
:1000C000F7FBF93143677FFFFFFFFFFFFFFFFFFFF4
:1000D000FFFFDFCE80303F7FFFFFFFFFFFFFFFBF4F
:1000E000BF97C7F3F8FC01010306080406CEBC98CD
:1000F00080000000000000000000000020317FCFE1
:10010000C08000000000000000404068380C070379
:100110002A183F9FDFC3B1F9F9F3C7F1FCFEFCF1E8
:10012000C7F3F9F9F3C7F7FBFBE78FBF0F67E68E5D
:100130003C3977FBF93143677FFFFFFFFEFFFFFF8D
:10014000FFFFFFFFFFFFFFFFFFFFFFFFFFFFFFFFBF
:10015000FFFFFFFFFFFFFFFEFFF773680C9FFFFF2E
:10016000DFCE80303F7FFFFFFFFFFFFFFFFFFFFF7E
:10017000FFFFFFFFFFFFFFFFFFFFFFFFFFFFFFFF8F
:10018000FFBFBF97CFEFE6E0F1BFBF97C7F3F8FC23
:10019000C060203C4E06060C380E0301030E380CDE
:1001A00006060C38080404187040F0981971C3C68C
:1001B000880406CEBC98800000000100000000000A
:1001C000000000000000000000000000000000002F
:1001D00000000000000100088C97F360000020314F
:1001E0007FCFC08000000000000000000000000081
:1001F00000000000000000000000000000000040BF
:1002000040683010191F0E404068380C070323184F
:100210003F9FDFC3B1F9F9F347717CFEFC7147736F
:1002200079F9F3C7F7FBFBE78FBF0F67E78F3F3F16
:100230007FFFFFFEFFF3F9F9F3F9FCFEFEFEFCFE83
:10024000FEFFFFFEFCF9FDFCFCF8C1D39F1F3EFF43
:10025000F773680C9FFFFFFFFFFFFFFFFFFFFFFF2C
:10026000FFFFFFFFFFFFFFFFFFBF7F7F3FBB93C588
:10027000FCBEBF97CFEFE6E0F1C060203C4E060623
:100280000CB88E8301038EB88C86060C38080404E3
:10029000187040F0981870C0C080000001000C0673
:1002A000060C06030101010301010000010306021F
:1002B0000303073E2C60E0C100088C97F360000048
:1002C000000000000000000000000000000000002E
:1002D0000000408080C0446C3A03414068301019EF
:1002E0001F0E1E18FFFFFFFFE77373E77399CCEC37
:1002F000CC19EDF4F6660CB9B33B3979F183A73F1D
:100300003F7FBFBF9FA7B09ECFE69C3F7F3F9F7FB1
:10031000FFFFFF7E3F8FEF67F0F87F77278BF8FCBA
:10032000FFFF3F7FFFFF7FFFFFFF3F7FFFFF7EFE5F
:10033000FEFF3F7FFFFF7EFEFEFF3F7FFFFF0000CF
:100340000000188C8C188C66331333E6120B099955
:10035000F3464CC4C6860E7C58C0C08040406058EE
:100360004F61301963C080C0608000000081C070A0
:1003700010980F078088D874070300E02040808021
:10038000008000E020408080018101E020408080EA
:10039000018101E0204080801810FFFFFFFF1FCF88
:1003A000EFDF8FF3F9FDF9E3FDFEFECCE1F7F7E7B0
:1003B000070FF7F7F3F4F6F3F9FCF3E7EFE7F3EFE2
:1003C000DFDFDFEFE7F1FDFCFEFF00000000E030C3
:1003D0001020700C0602061C020101331E080818CA
:1003E000F8F008080C0B090C06030C1810180C1078
:1003F00020202010180E02030100D5F08D14A1C892
:1004000081CFD9F1AF200004083E09093E3F2525E0
:100410001A1E2121123F21211E3F2525213F0505BE
:10042000011E21293A3F04043F213F2100102121D0
:100430001F3F040A313F2020203F02023F3F0204B9
:100440003F1E21211E3F0909061E21112E3F0909C9
:100450003622252519013F01011F20201F0F1020E2
:100460001F3F10103F3B04043B03043807312D238A
:1004700021102A2A3C3F2424181C22221418242448
:100480003F1C2A2A2C043E05014C52523E3F0404D4
:1004900038243D20004040443D3F081422213F20A5
:1004A000003E04043E3E04023C1C22221C7E22220A
:1004B0001C1C22227E3E040204242A2A12021F222D
:1004C000201E20201E0E10201E3E10103E36080852
:1004D000364E50503E322A26221E29251E223F200B
:1004E00000322929261221251A0C0A3F0817252532
:1004F000191E252518013905031A25251A0629294B
:100500001E002F0000002000000229050200040444
:1005100000008080C0C0C0FFFFFFFFFFFFFFFFFFA4
:10052000FFFFFFFFFFFFFFFFFFFFFFFFFFFFFFFFDB
:10053000FFFFFF80C1C3C3E3E3FFFFFFFFFFFFFF38
:10054000FFFFFFFF7FFFFFFFFFFFFFFFFFFFFFFF3B
:10055000FFFFFFFFFFC0E0E1E1E1E1FFFFFFFFFF81
:10056000FFFFFFFFFFFF3F7F7F7FFFFFFFFFFFFFDB
:10057000FFFFFFFFFFFFFF000000000000FFFFFF85
:10058000FFFFFFFFFFFFFFFF0000000000000F1F45
:100590003F7FFFFFFFFFFFFFFF11400080804040D3
:1005A00040BF8040DFDF10D7EAEA6D75FF00F6F745
:1005B0007B787B7A393D3D3E3E3E1E1F1F80414287
:1005C00042A222BEA2A2BE9E10D6D4D5E8EA7F8067
:1005D0003B3B3B383B393D3D3D3C3D3D3D3D3DC0DA
:1005E00020A1A1A121BFA1A1BCBE20AEA8AAA8AAFA
:1005F0003F405D5DBDBC3B3A3A7B7B78F7F7F7F750
:10060000F7000000000000FF0101FAF4FAF4F8F42A
:10061000E8F10000000000000F1020478F3F7FFF2F
:10062000FFFFFFFFFFFFFFFFFFFFFFFFFFFFC0C058
:10063000C0808000FFFFFFFFFFFFFFFFFFFFFFFF06
:10064000FFFFFFFFFFFFFFFFFFFFFFFFFFFFFFFFBA
:10065000E3E3C7C7C381FFFFFFFFFFFFFFFFFFFF0C
:10066000FFFFFFFFFFFF7FFFFFFFFFFFFFFFFFFF1A
:10067000FFFFE1E1E1E1E0C0FFFFFFFFFFFFFFFF60
:10068000FFFFFFFFFFFFFF7F3FFFFFFFFFFFFFFFBA
:10069000FFFFFFFF010100000000FFFFFFFFFFFF62
:1006A000FF7F3F1F070000000000001140756DEA4A
:1006B000EAD710DFDF4080BF4040408080001F1F2E
:1006C0001E3E3E3E3D3D397A7B787BF7F600FFEAE1
:1006D000E8D5D4D6109EBEA2A2BE22A24444428136
:1006E0003D3D3D3D3D3C3D3D3D393B383B3B3B8009
:1006F0007FAAA8AAA8AE20BEBCA1A1BF21A1A1A18A
:1007000020C0F7F7F7F7F7787B7B3A3A3B3C3D9D03
:100710009D403FF1E8F4F8F4FAF4FA0101FF010119
:1007200000000000FFFFFFFF7F3F8F472010070002
:1007300000000000009803E2020E021001BA0080DF
:100740000DFFFFFFFFFFFFFFFFFFFFFFFFFFFFFFAB
:10075000FFFFFFFFFFFFFFFFFFFFFFFFFFFFFFFFA9
:10076000FFFFFFFFFFFFFFFFFFFFFFFFFFFFFFFF99
:10077000FFFFFFFFFFFFFFFFFFFFFFFFFFFFFFFF89
:10078000FFFFFFFFFFFFFFFFFFFFFFFFFFFFFFFF79
:10079000FFFFFFFFFFFFFFFFFFFFFFFFFFFFFFFF69
:1007A000FFFFFFFFFFFFFFFFFFFFFFFFFFFFFFFF59
:1007B000FFFFFFFFFFFFFFFFFFFFFFFFFFFFFFFF49
:1007C000FF1F1F1F1F1F1F1F1F1F1F1F1F1F1F1F59
:1007D0001F1F1F1F1F1F1F1F1F1F1F1F1F1F1F1F29
:1007E0001F1F1F1F1F1F1F1F1F1F1F1F1F1F1F1F19
:1007F0001F1F1F1F1F1F1F1F1F1F1F1F1F1F1F1F09
:100800001F1F1F1F1F1F1F1F1F1F1F1F1F1F1F1FF8
:100810001F1F1F1F1F1F1F1F1F1F1F1F1F1F1F1FE8
:100820001F1F1F1F1F1F1F1F1F1F1F1F1F1F1F1FD8
:100830001F1F1F1F1F1F1F1F1F1F1F1F1F1F1F1FC8
:100840001F800DFEBEBEBEBEBEBEBABABA3A3ABA2E
:10085000BA9A8AAAA2B2B2BAB8B8BABABEBEBEBE74
:10086000BEBEBEBEBEBEBEBEBEBEBEBEBEBEBABAB0
:10087000BABA3A1A8AA2B0B8BABABEBEBEBEBEBE34
:10088000BEBEBEBEBEBEBEBEBEBEBEBEBEBEBEBE88
:10089000BEBABAB8A0021ABABABABABABEBEBEBE18
:1008A000BEBEBEBEBEBEBEBEBEBEBEBEBEBEBEBE68
:1008B000BABABABAB8B8B8B0A2820A1A3ABABABAC8
:1008C000BABABA1F1F0717131B191D1C1E1F1F1FA3
:1008D0001F1F1F1F1F1F1F1F1F1F1F1F1F1F1F1F28
:1008E0001F1F1F1F1F1F1F1F1F1F1F1F1F1F1F0730
:1008F000111C1E1F1F1F1F1F1F1F1F1F1F1F1F1F1A
:100900001F1F1F1F1F1F1F1F1F1F1F1F1F1F1F1FF7
:100910001F1F1F1F1F1F1C10030F1F1F1F1F1F1F25
:100920001F1F1F1F1F1F1F1F1F1F1F1F1F1F1F1FD7
:100930001F1F1F1F1F1F1F1F1F1F1F1E1810010318
:100940000F1F1FF8FFFFFEFCFCFCFC030303030367
:10095000030303080A2807092214240804010102DA
:100960000101010101F0F8FCFEFFFFFFFF0707FF97
:10097000FFFFFFFFFFFFFF00000103070707070757
:100980000700000A13F008F412B535E5050101FF70
:1009900000EF08288CEF00000001020505050501A5
:1009A0000000003C3E3F3F3F3E3C07063C023D010D
:1009B00005023C3C0205013D023C0000000080C0F5
:1009C000E0E0E0E0E0E0E0E0E0E0E0E0FCFEFFFFAF
:1009D000FFFEFCC080000000000000FEFFFFFFFFE4
:1009E000FFFFFFFFFFFFFFFFFFFFFFFFFFFFFFFF17
:1009F000FFFFFFFFFFFCF8000000FFFFFFFFFFFF0E
:100A0000FFFFFFFFFFFFFFFFFFFFFFFFFFFFFFFFF6
:100A1000FFFFFFFFFFFF00060F0F1F1F1F3F7F7F1E
:100A20007F7F3F1F1F1F1F1F1F1F1F3F7F7F7F7F56
:100A30003F1F1F1F0F071F1F000000008040A0A0C6
:100A4000A0A0A0A0A0A0A0A0A0A0BC828581BD82E3
:100A50003C4080000000000000FE01FC85FD01FF1D
:100A600003FDBDDDEDBD9D85FD03FF0305BDDDADD2
:100A70003C380304F8000000FF0082B24ABBBBBB55
:100A8000BA7AFACACE8686CECBFB7BBABABAB26A3B
:100A9000E2EA00FF0006090A16111623414C444100
:100AA00023161113131313111623414C444123161B
:100AB00011170807F8FCFEFFFFFFFFFFFFFFFFFF16
:100AC000FFFFFFFFFFFFFFFFFFFFFFFFFFFFFFFF36
:100AD000FFFFFFFFFFFFFFFFFFFFFFFFFFFFFFFF26
:100AE000FFFFFFFEFCF8FFFFFFFFFFFFFFFFFFFF21
:100AF000FFFFFFFFFFFFFFFFFFFFFFFFFFFFFFFF06
:100B0000FFFFFFFFFFFFFFFFFFFFFFFFFFFFFFFFF5
:100B1000FFFFFFFFFFFFFFFF070F1F3F3F3F3F3F6D
:100B20003F3F3F3F3F3F3F3F3F3F3F3F3F3F3F3FD5
:100B30003F3F3F3F3F3F3F3F3F3F3F3F3F3F3F3FC5
:100B40003F3F3F3F3F3F3F1F0F07321600F804F281
:100B50000A0A0A0A0A0A4ACACA4ACA8A0A4ACACAF5
:100B60000A0ACACA0ACACA0A8ACA4ACA8A0A4ACA25
:100B7000CA4ACA0A0A0A0A0A0A0AF204F80000FF64
:100B800000FF00000000000080FFFF880F0380FED0
:100B900027FFF8803FFF80FF3F0043C78EFC7800AF
:100BA00080FFFF84CE00000000000000FF00FF0077
:100BB0000007081314141414141414141414141423
:100BC00014141414141414141414141414141414E5
:100BD00014141414141414141414141414141308E2
:100BE0000700F8FCFEFFFFFFFFFFFFFFFFFFFFFF17
:100BF000FFFFFFFFFFFFFFFFFFFFFFFFFFFFFFFF05
:100C0000FFFFFFFFFFFFFFFFFFFFFFFFFFFFFFFFF4
:100C1000FFFFFFFFFFFFFFFFFFFFFFFFFFFFFFFEE5
:100C2000FCF8FFFFFFFFFFFFFFFFFFFFFFFFFFFFDE
:100C3000FFFFFFFFFFFFFFFFFFFFFFFFFFFFFFFFC4
:100C4000FFFFFFFFFFFFFFFFFFFFFFFFFFFFFFFFB4
:100C5000FFFFFFFFFFFFFFFFFFFFFFFFFFFFFFFFA4
:100C6000FFFF070F1F3F3F3F3F3F3F3F3F3F3F3F9C
:100C70003F3F3F3F3F3F3F3F3F3F3F3F3F3F3F3F84
:100C80003F3F3F3F3F3F3F3F3F3F3F3F3F3F3F3F74
:100C90003F3F3F3F3F3F3F3F3F3F3F3F3F3F3F1F84
:100CA0000F07401600F804F20A0A0ACA4ACACA0A1A
:100CB0000A4ACACA0A0A4ACACA0ACACA4A4ACACA94
:100CC0004ACA0A0A0A0A0ACA4ACA0A4ACACA0ACA44
:100CD0004A4ACACA4ACA0A4ACACA4ACA8A0A0A0A34
:100CE000F204F80000FF00FF00003FFF807CFD04DD
:100CF00080FE27FFF88080FF1F0EFFFF8080FFFF30
:100D000084CE000000003FFF80FF3F0003FFFC0790
:100D10000080FFFF84CE0080FFFF08FFF38000000B
:100D2000FF00FF0000070813141414141414141403
:100D30001414141414141414141414141414141473
:100D40001414141414141414141414141414141463
:100D50001414141414141414141414141414141453
:100D60001308070004087EFF817E82FEFF80C6A173
:100D70009FCE6689FF7638ACFFB06F89F9707EFF31
:100D8000857883F1FD83768D99761EBFA17E20073D
:100D90009D733A1DD9B273979C4DB9ED5A7139D7ED
:100DA00039272773CE713999DD3A32E59CEB5CCD5A
:100DB000050D0F929DAB64E72AD9B94A76AE929D94
:100DC000AB64E72A598CD145175D74D1450A4D07AC
:100DD0009DAB9DB2B1395749272B2EE76AD7916554
:100DE0002F5793652F57E3CAB9DA291B9B734EA778
:100DF00023536EBB565C6B25959B7ED9B94B4EE653
:100E00006476EB709476CEB9BC72DBB5E272AE76E6
:100E1000CAC6E65CED3A070D0FD5E594BC9C9297E7
:100E200053F2724A5E4EC9CB2979E5955452492551
:100E30009554524925955452492515192307524E68
:100E40002AA9A453B8954ED9D099554E9265959339
:100E5000540F08C1F7C1FFC1D5FFC1DFFFC1F5FBCA
:100E6000FFD1C0E0E0F0F0F0F0F8FCFEFF7F7FFE85
:100E7000FC600001010707070707070707040000D8
:100E80000000100BC0202010D0D050180402816147
:100E900041829C600001010701000000040003047E
:100EA00000000000F8FCFCFCFC78F8FCFCFCFCFCFE
:100EB000F8F8FCFCFCFCFCB8F8FCFCFCFCF8F8FCCA
:100EC000FCFCFCD8F8FCFEFFFFFFFFFFFFFEFCF878
:100ED00001030301000001030301010303010303F4
:100EE00003030301030303030100030303030100DE
:100EF0000103070F0F0F0F0F0F0703012C0CF8044E
:100F000004B48448F80404D41404C8F80404D49441
:100F100064B84884941424F84884941424D8F804B9
:100F20000201F14949F1010204F801020201000045
:100F30000102020101020201020202020201020296
:100F40000202010002020202010001020408090873
:100F500008090804020129100040A05000CF012117
:100F600001FFFF000000800000FFFFFF0000000005
:100F700000BFBF1F00004040E0F8FFFF00A854A8DA
:100F800050AA55AA5500FFFFFFFFFFFF00AA55AA70
:100F90005500FFFFFF00AA55AA00FFFFFF0054AA5B
:100FA00054A803FFFF00AA55AA55A050A04000CFA7
:100FB000012101FFFF00A050A04000FFFFFF00A0A3
:100FC00050A000BFBF1F40005040E0F8FFFF00A04E
:100FD00050A040AA55AA5500FFFFFFFFFFFF00AA3F
:100FE00055AA5500FFFFFF00AA55AA00FFFFFF000A
:100FF00055AA55A803FFFF00AA55AA558040A04056
:1010000000CF012101FFFF00A854A85000FFFFFFFF
:1010100000A854A800BFBF1F00004040E0F8FFFF39
:1010200000A854AA54AA55AA5500FFFFFFFFFFFFCE
:1010300000AA55AA5500FFFFFF00AA55AA00FFFF0E
:10104000FF0054AA54A803FFFF00AA55AA55F8FCB4
:10105000FEFFFFFFFFFFFFFFFFFFFFFFFFFFFFFFA1
:10106000FFFFFFFFFFFFFFFFFFFFFFFFFFFFFFFF90
:10107000FFFFFFFFFFFFFFFFFFFFFFFFFFFFFFFF80
:10108000FFFFFFFFFFFFFFFFFFFFFEFCF8FFFFFF7B
:10109000FFFFFFFFFFFFFFFFFFFFFFFFFFFFFFFF60
:1010A000FFFFFFFFFFFFFFFFFFFFFFFFFFFFFFFF50
:1010B000FFFFFFFFFFFFFFFFFFFFFFFFFFFFFFFF40
:1010C000FFFFFFFFFFFFFFFFFFFFFFFFFFFFFFFF30
:1010D000FFFFFFFFFFFFFFFFFFFFFFFFFFFFFFFF20
:1010E000FFFFFFFFFFFFFFFFFFFFFFFFFFFFFFFF10
:1010F000FFFFFFFFFFFFFFFFFFFFFFFFFFFFFFFF00
:10110000FFFFFFFFFFFFFFFFFFFFFFFFFFFFFFFFEF
:10111000FFFFFFFFFFFFFFFFFFFFFFFFFFFFFFFFDF
:10112000FFFFFFFFFFFFFFFFFFFFFFFFFFFFFFFFCF
:10113000FFFFFFFFFFFFFFFFFFFFFFFFFFFFFFFFBF
:10114000FFFFFFFFFFFFFFFFFFFFFFFFFFFFFFFFAF
:10115000FFFFFFFFFFFFFFFFFFFFFFFFFFFFFFFF9F
:10116000FFFFFFFFFFFFFFFFFFFFFFFFFFFFFFFF8F
:10117000FFFFFFFFFFFFFFFFFFFFFFFFFFFFFFFF7F
:10118000FFFFFFFFFFFFFFFFFFFFFFFFFFFFFFFF6F
:10119000FFFFFFFFFFFFFFFFFFFFFFFFFFFFFFFF5F
:1011A000FFFFFFFFFFFFFFFFFFFFFFFFFFFFFFFF4F
:1011B000FFFFFFFFFFFFFFFFFFFFFFFFFFFFFFFF3F
:1011C000FFFFFFFFFFFFFFFF000103070707070700
:1011D000070707070707070707070707070707079F
:1011E000070707070707070707070707070707078F
:1011F000070707070707070707070707070707077F
:10120000070707070301003F33F804FA0D05E5E57A
:101210002525252525252525252525E525252525BE
:1012200025252525E52525252525252525252525AE
:1012300065E5E5E5E525252525252525252525251E
:10124000E5E5E5050DFA04F8FF00FF0000FFFFFFEC
:10125000000000000000FF1F1C18F8FF0000000045
:101260000000FFFFFF0000000000FFFFFF00000084
:10127000000083FFFF000000000000FFFF3F38F880
:10128000FFFF0000FF00FFFF00FF0000FFFFFF0067
:101290000000000000FCF0F0F0FFFF000000000084
:1012A00000FFFFFF0000000000FBFBF10000040452
:1012B0000E3FFFFF000000000000FDFDE0E0FFFF2B
:1012C000FF0000FF00FFFF00FF0000FFFFCFC0C0D6
:1012D000C0C0C0404F7F7F7F7F4FC0C0C0404040F4
:1012E0004FFFCF4040C0C0C04F7F7FE040404040F4
:1012F00040FFCFC040404040C0CFCFC7C0F0FFFF4D
:101300000000FF00FFFF00FF0000FFFF9F2F374797
:101310000F9FFF0000007F7F0080C1FF03FC0000E3
:1013200001FFFF00C0030F3F0000FFFF000000FFB0
:10133000FF030000FFFEF89F2F37470F9FFFFF00BE
:1013400000FF00FFFF00FF80003F3F3F3F3E3E3F6A
:101350003F2F2020202F3F3F3F2F202D3D2D2020AD
:10136000202F202F3F3C3020203F2F2020202F3FB8
:101370003C30202F27333F3F3E3E3F3F3F3F0080E2
:10138000FF00FF000102050505050505050505052A
:1013900005050505050505050505050505050505FD
:1013A00005050505050505050505050505050505ED
:1013B00005050505050505050505050505050502E0
:1013C00001000102040810204080120113011401E1
:1013D0001501160217041807190B1A101B171C1EEB
:1013E0001D251E201F1B20162111220C2308240559
:1013F00025032602270129012A022B032C052D078C
:101400002E0A2F0D30113116321B33213425352190
:10141000361E371A381639123A0E3B0B3C093D0876
:101420003E073F07400741084209430B440E45125F
:101430004616471A481E49214A254B224C1F4D1C6F
:101440004E1A4F18511653155514571459145B144E
:101450005D155F166118621A631C641F652266259C
:10146000030407040316124A2B462B422B3F2A3C47
:10147000293A2739243820371B37163711370C38CB
:101480000839053A033C023E014100440047004A46
:10149000004C00120E372B3725371F3719371337FB
:1014A0000D380839053A033C013E01400042004432
:1014B00000460048004A004C00130F202B22252430
:1014C00020261B28162A112C0C2E08300532033535
:1014D0000238013B003E004100440047004A004CF6
:1014E00000181AFFFFFFFFFFFFFFFFFFFFFFFFFFD7
:1014F000FFFFFFFFFFFFFFFFFFFFFFDFDFDFDFDF9C
:101500005F5F5F5F1F1F1F1F5F5F5F5F5F5F5F5FEB
:101510005F5F5FF7F7F7F7F7F7F7F7F7F7F7F7F624
:10152000F4F0E1C307173777F7F7F7030303030373
:101530000303030303030303030303030302000082
:101540000103030000000000000000000000000094
:101550000000000000000000000000C0C0C0C0C0CB
:10156000404040400000000040404040404040407B
:10157000404040F7F7F7F7F7F7F7F7F7F7F7F7F621
:10158000F4F0E1C307173777F7F7F7030303030313
:101590000303030303030303030303030302000022
:1015A000010303F8FFFFFEFCFCFCFC030303030341
:1015B000030303080A28070922142408040101026E
:1015C00001010101010000000070F8FCFEFEFFFFB8
:1015D000FEFC6000000000000000000000000000B1
:1015E000000060FCFEFFFFFEFEFCF8700000000043
:1015F0000080800082C7E7FFFFFFFFFFFEFCFCFCCE
:101600003838383838383838B8B838FCFCFCFFFF80
:10161000FFFFFFFFC7870200000000070F1F1F0F1B
:1016200007010100040E1F3F3F1B010000000000E6
:10163000000003070F1F0F0701000000000F1F1F0E
:101640001F1E0C0000000000000070F8FCFEFEFFF2
:10165000FFFEFC6000000000000000000000000031
:1016600000000060FCFEFFFFFEFEFCF870000000C2
:10167000000000000002C7E7FFFFFFFFFFFEFCFCC9
:10168000FC38B8B838383838383838B8FCFCFCFF83
:10169000FFFFFFFFFFC78702808000000000000CF3
:1016A0001E1F1F1F0F0000000001070F1F0F070361
:1016B000000000000000011B3F3F1F0E040001015D
:1016C000070F1F1F0F07002B160000000070880473
:1016D00002160141229C6000000000000000000092
:1016E000000000000000609C224101160204887086
:1016F00000000000008080008245243E80808091B0
:10170000322444C42828282828282828A8A828C4FF
:10171000442493918080003E44850200000000072D
:101720000810110806010100040A1121241A010001
:10173000000000000000030408110806010000007A
:10174000000F101213120C0000000000000070883F
:101750000402160141229C6000000000000000000D
:1017600000000000000000609C2241011602048875
:1017700070000000000000000002C5243E008080D0
:1017800091B22444C428A8A828282828282828A8B2
:1017900044442493918080003E4485028080000070
:1017A0000000000C121312100F00000000010608C8
:1017B00011080403000000000000011A2421110A8E
:1017C0000400010106081110080700F8FCFCFCFCED
:1017D00078F8FCFCFCFCFCF8F8FCFCFCFCFCB8F821
:1017E000FCFCFCFCF8F8FCFCFCFCD8F8FCFEFFFF61
:1017F000FFFFFFFFFEFCF8010303010000010303EC
:1018000001010303010303030303010303030301B2
:10181000000303030301000103070F0F0F0F0F0F56
:101820000703012C0CF80404B48448F80404D4140D
:1018300004C8F80404D49464B84884941424F84880
:1018400084941424D8F8040201F14949F1010204F6
:10185000F80102020100000102020101020201027C
:10186000020202020102020202010002020202015D
:1018700000010204080908080908040201F8FCFE36
:10188000FFFFFFFFFFFFFFFFFFFFFFFFFFFFFFFF68
:10189000FFFFFFFFFFFFFFFFFFFFFFFFFFFFFFFF58
:1018A000FFFFFFFFFFFFFFFFFFFFFFFFFFFFFFFF48
:1018B000FFFFFFFFFFFFFFFFFFFFFFFFFFFFFFFF38
:1018C000FFFFFFFFFEFCF8FFFFFFFFFFFFFFFFFF33
:1018D000FFFFFFFFFFFFFFFFFFFFFFFFFFFFFFFF18
:1018E000FFFFFFFFFFFFFFFFFFFFFFFFFFFFFFFF08
:1018F000FFFFFFFFFFFFFFFFFFFFFFFFFFFFFFFFF8
:10190000FFFFFFFFFFFFFFFFFFFFFFFFFFFFFFFFE7
:10191000FFFFFFFFFFFFFFFFFFFFFFFFFFFFFFFFD7
:10192000FFFFFFFFFFFFFFFFFFFFFFFFFFFFFFFFC7
:10193000FFFFFFFFFFFFFFFFFFFFFFFFFFFFFFFFB7
:10194000FFFFFFFFFFFFFFFFFFFFFFFFFFFFFFFFA7
:10195000FFFFFFFFFFFFFFFFFFFFFFFFFFFFFFFF97
:10196000FFFFFFFFFFFFFFFFFFFFFFFFFFFFFFFF87
:10197000FFFFFFFFFFFFFFFFFFFFFFFFFFFFFFFF77
:10198000FFFFFFFFFFFFFFFFFFFFFFFFFFFFFFFF67
:10199000FFFFFFFFFFFFFFFFFFFFFFFFFFFFFFFF57
:1019A000FFFFFFFFFF0103070F0F0F0F0F0F0F0FB9
:1019B0000F0F0F0F0F0F0F0F0F0F0F0F0F0F0F0F37
:1019C0000F0F0F0F0F0F0F0F0F0F0F0F0F0F0F0F27
:1019D0000F0F0F0F0F0F0F0F0F0F0F0F0F0F0F0F17
:1019E0000F0F0F0F0F0F0F0F0F0F0F0F0703014AEE
:1019F00024F804FA0D050505050505050505050589
:101A00000505050505050505050505050505050586
:101A10000505050505050505050505050505050576
:101A20000505050505050505050505050505050566
:101A3000050505050505050DFA04F8FF00FF000082
:101A40000000000000000000000000000000000096
:101A50000000000000000000000000000000000086
:101A60000000000000000000000000000000000076
:101A70000000000000000000000000000000000066
:101A80000000FF00FFFF00FF00000000000000005A
:101A90000000000000000000000000000000000046
:101AA0000000000000000000000000000000000036
:101AB0000000000000000000000000000000000026
:101AC000000000000000000000000000FF00FFFF19
:101AD00000FF000000000000000000000000000007
:101AE00000000000000000000000000000000000F6
:101AF00000000000000000000000000000000000E6
:101B000000000000000000000000000000000000D5
:101B1000000000000000FF00FF0102050B0A0A0A96
:101B20000A0A0A0A0A0A0A0A0A0A0A0A0A0A0A0A15
:101B30000A0A0A0A0A0A0A0A0A0A0A0A0A0A0A0A05
:101B40000A0A0A0A0A0A0A0A0A0A0A0A0A0A0A0AF5
:101B50000A0A0A0A0A0A0A0A0A0A0A0A0A0A0A0BE4
:101B600005020102FFFFFFFEFEFFFFFFFFFFFFFF79
:101B7000FEFEFFC7EFFFEEFFFFFFFEFEFFFFFF02CF
:101B8000003CFEFFFFFFFFFEFEFFFF1FFEFCFEFF0F
:101B9000FFFEFEFFFFFFFFFFFFFEBEFFFFFFFFF7A1
:101BA000EF3EFEFFFFFFFF8E081F1F1F0F0F1F1FBF
:101BB0001F1F1F1F1F0F0F1F1F0F1F0F1F1F1F0F85
:101BC0000F1F1F1F08000E1F1F1F1F0F070F1F1FB4
:101BD0000F07070F1F1F0F0F1F1F1F0F0F1F1F1FA5
:101BE0001F1F1F1F1F1F0E1F1F1F1F0F07450D0247
:101BF000FD0101DEDE0101FDFD0101FD0602FDC565
:101C00002931AEFD0101DEDE0101FD02003CC20111
:101C10000D1971FE0201FD11FE0402FDFD0206FD1B
:101C20000101BDBD0142BEFD0101BD15E93EC2017C
:101C30000D19718E081710100F0F101017171010B4
:101C4000170C08171708100F1710100F0F10101788
:101C500008000E11131610080708101709070408CA
:101C60001717080C1710100F0F1010171710101758
:101C700017110E11131610080700FCFEFFFFFFFFDF
:101C8000FFFFFFFFFFFFFFFFFFFFFFFFFFFFFFFF64
:101C9000FFFFFFFFFFFFFFFFFFFFFFFFFFFEFC0057
:101CA000103F7FFFFFFFFFFFFFFFFFFFFFFFFFFF73
:101CB000FFFFFFFFFFFFFFFFFFFFFFFFFFFFFFFF34
:101CC000FFFFFFFF7F3F10271000FC020101010111
:101CD00001010101010101010101010101010101F4
:101CE0000101010101010101010101010102FC00E9
:101CF000102F50A0A0A0A0A0A0A0A0A0A0A0A0A035
:101D0000A0A0A0A0A0A0A0A0A0A0A0A0A0A0A0A0D3
:101D1000A0A0A0A0502F10FC02FDFEFEFEFEFEFEC5
:101D2000FEFEFEFEFEFEFEFEFEFEFEFEFEFEFEFED3
:101D3000FEFEFEFEFEFEFEFEFEFEFEFD02FC2F503F
:101D4000AF5F5F5F5F5F5F5F5F5F5F5F5F5F5F5F53
:101D50005F5F5F5F5F5F5F5F5F5F5F5F5F5F5F5F93
:101D60005F5FAF502F0000000000C0E0F0F0E0C067
:101D7000000000000000000000000103030100005B
:101D800000000000000080E0F0F8F8F8F0E0C0008B
:101D90000000000000010307070F0F070301000008
:101DA00000C0E0F8FCFEFEFFFFFFFFFEFEFCF8F0C7
:101DB00003070F1F1F3F7F7F7F7F3F1F0F03010020
:101DC00080D8FCFE7E3F1E0C9C3E7F3F9E0C03078E
:101DD0000F1F1F0F0E1E3F7F3F1E0D0301000C9EA5
:101DE000BF3F1E0400040E1F3F3F1E0C060F1F3F87
:101DF0001F0E0400081C3E7F3F1E0C0002070F064A
:101E00000000000000070F1F1E1C0E1E3E3C380085
:101E100000000010387C38100002070200000000AB
:101E20000000000002070E04081C3810000000002B
:101E3000000000002070200F0F0000000000C020F4
:101E4000D0D020C00000000000000000000001020F
:101E500002010000000000000000000000C020207F
:101E6000C0000000000000000000000000010100B0
:101E70000000000000000000806090E8E8C8D0206A
:101E8000C0000000000000010205050B0B05020167
:101E900000000000000000806010103020C0000032
:101EA0000000000000000102020404020100000022
:101EB00000C020D8E4DAFAFDFDFDF5FAFAF408F0E6
:101EC00003040B17172B5F5F5F5E2D130D020100DC
:101ED000C0201824040202020A040408F0000003CF
:101EE0000408081420202021120C02010000805850
:101EF00064DA5A2D120C942A5D2D920C03040B17F0
:101F000016090E122D5E2D120D020100008098247C
:101F100024120C00081422120C0000030408090605
:101F2000000C1221120C000100000C92AD251A04C5
:101F300000040A152D2D120C0609162E150A040090
:101F400008142A5D2D120C00000C121A0400000067
:101F5000040A12120C00000609110A04000000080D
:101F60001422120C00000205090600000000000601
:101F70000915120C0C122A243800000000102854F5
:101F80002810000002070F060000000000060F1FC7
:101F90001E0C0C1E3E3C380000000010387C38102F
:101FA00000020502000000000000000002070E040D
:101FB000081C381000000000000000002070200005
:101FC0000200000000000000000000020400000801
:101FD00010000000000000000000002000000000D1
:101FE00000000000000000000000FCFEFFFFFFFFFB
:101FF000FFFFFFFFFFFEFCF8E0C00080F8FCFEFFE3
:10200000FFFFFFFFFFFFFFFFFFFFFFFFFFFFFFFFE0
:10201000FFFFFFFFFFFFFFFF8007070F0F0F1F3FAF
:102020003F3F3F1F0F0F0F0F0F0F0F0F1F3F3F3F80
:102030003F1F0F0F0F07030080C0C0C0C0E0F0E0DB
:10204000E0C0C0C0C0C0C0C0C0C0C08000000000B0
:10205000000000000000F8FDFFFFFFFFFFFFFFFF93
:10206000FFFFFFFFFFFFFFFFFFFFFFFEFEFEFCF88D
:10207000F0E0800003070F0F1F3F3F3F3F1F0F0F90
:102080000F0F0F0F0F0F0F1F3F3F3F3F1F0F0F0788
:10209000031E180000000000000000000000000007
:1020A000FC022501FDFD1DED2D2D29A2C41820C027
:1020B00000807804D255B5D55555D5B575F5F5F0F0
:1020C000F7F0FF7FB8D75456D7B571F0807F8007FF
:1020D000040B080B1120262220110B0809090909FD
:1020E000080B1120262220110B080B04030080404E
:1020F00040404060502020404040404040404040F0
:10210000408000000000000000000000F8054224AC
:1021100092D05052D69006366666767676723082C7
:10212000C55252D2B428106080000304080B11205D
:10213000262220110B0A0A0A0A0A0A0A0B11202673
:102140002220110B0904033C7EFFFFFFFF7E3C00B1
:102150003C7EFFFF7E3C0000003CFFFF3C00000097
:102160003C7EFFFF7E3C0008083C42BDADA5BD4261
:102170003C003C42BDAD423C0000003CFFC33C0083
:1021800000003C42A5BD423C0010080303030303CA
:10219000030303030303030303030318BCFEFFFF4E
:1021A000FEFCFEFFFFFEBC1803070F1F1F0F070FEB
:1021B0001F1F0F07030D0D18A4422151EAF4E2413D
:1021C0008142A418030408101008050A111008041D
:1021D00003FFFFFFFEFCFCFCFCFFFFFFFEFCFCFC22
:1021E000FC030303030303030303030303030303C6
:1021F00003100A108E9284A8889088108E9284A86A
:102200008890880302020202020202030202020212
:10221000020202401CFFFFFFFFFFFFFFFFFFFFFF67
:10222000FFFFFFFFFFFFFFFFFFFFFF01FDFDFD01C0
:10223000979717979701FDFDFDEDC5EDFDFDFD019C
:10224000979717979701FDFDFD01FFFFFFFFFFFF28
:10225000FFFFFFFFFFFFFFFFFFFFFFFFFF07F30B86
:102260000B4BEB4B0B0BFB03FFFFFF00FFFFFF00D4
:10227000F77300F77300FFFFFFFFABFFFFFFFF00E7
:10228000F77300F77300FFFFFF00FFFFFFFFFFFF83
:10229000FFFFFFFFFFFFFFFFFFFFFFFF7FBCD9EA4C
:1022A00072BA5AAA52AA53A04FAF4FA0FFFFFF0025
:1022B000DECEC0DECE00FF0BFF02E202FF0BFF000E
:1022C000DECEC0DECE00FFFFFF00FFFFFFFFFFFFFF
:1022D000FFFFFFFFFF0F0F0F0F0F0F0F0F0F0F0F5E
:1022E0000F0F0F0F0F0F0F0F0F0F0F0F0F0F0F0FFE
:1022F0000F0F0F0F0F0F0F0F0F0F0F0F0F0F0F0FEE
:102300000F0F0F0F0F0F0F0F0F0F0F0F0F0F0F0FDD
:102310000F0F0F0F0F401CFFFFFFFFFFFFFFFFFF1F
:10232000E70BE515D55515D55515E50B67BFBFBFAF
:10233000BFBFBFBFBFA70BE515D55515D55515E5D3
:102340000B67BFBF93AD92A9B7BFBF7FFFFFFFFF72
:10235000FFFFFFFFFFFFFF9F2F57AB55AA54A94375
:102360009F00FF00D6D210D6D200FF0001FC02DA97
:102370004A02DA4A02FC01FC00D6D210D6D200FF93
:102380000001FC02DA4A02DA4A02FC01FCFFFFFF0C
:10239000FFFFFFFFFFFFFFFFFFFEFC01F60600054A
:1023A0000E00FF00FE060206FE00FF0000FF00FA1E
:1023B000FA02FAFA00FF00FF00FE060206FE00FF26
:1023C0000000FF00FAFA02FAFA00FF00FFFFFFFF29
:1023D000FFFFFFFFFFFFFF0F0F0F0F0F0F0F0F0F7D
:1023E0000F0F0F0F0F0F0F0F0F0F0F0F0F0F0F0FFD
:1023F0000F0F0F0F0F0F0F0F0F0F0F0F0F0F0F0FED
:102400000F0F0F0F0F0F0F0F0F0F0F0F0F0F0F0FDC
:102410000F0F0F0F0F0F0F80C0E0F0E0C4CEFFFFD3
:10242000FFFFCEC4E0F0E0C08003173F7FFFFFFF57
:10243000FFFFFFFFFFFFFF7F3F17030000000000CB
:102440000101000000000101000000000000000088
:1024500000C0E4CEFFFFFFFFCEE4C000000000009C
:1024600000001FBFFFFFFFFFFFFFFFFFBF1F0000B8
:102470000000000000000101000000000101000058
:1024800000000000000000C0E4CEFFFFFFFFCEE42C
:10249000C0000000000000000087DFFFFFFFFFFF1B
:1024A000FFDF8700000000000000000001010000C5
:1024B000000001010000000000000000000004CE48
:1024C000FFFFFFFFCE0400000000000000000080BE
:1024D000D8FDFFFFFFFFFDD88000000000000000D6
:1024E00000000101000000000101000000000012D6
:1024F000118040A01020C4CA35151535CAC420105B
:10250000A0408002152851C65865BA8181BA655825
:10251000C651281502000000000001010000000063
:102520000101000000000000000000C024CA3515B1
:102530001535CA24C0000000000000001FA0586527
:10254000BA8181BA6558A01F000000000000000099
:102550000101000000000101000000000000000077
:1025600000C024CA35151535CA24C000000000007B
:10257000000000875865BA8181BA6558870000005D
:102580000000000000000101000000000101000047
:10259000000000000000000004CA35151535CA040B
:1025A000000000000000000000805865BA8181BA78
:1025B00065588000000000000000000001010000DC
:1025C0000000010100000000003E7F3E7F3E7F7F53
:1025D0003E7F7E3E7F3F0E2E7F2E11073E413641CD
:1025E0003E41553E415E3E41350A2E512EC0E0E04F
:1025F000F0F0F0F0F8FCFEFF7F7FFEFC60000101D0
:1026000007070707070707070400000000100BC0B3
:10261000202010D0D050180402816141829C6000BB
:102620000101070100000004000304000000000E87
:102630000E0E1F1F1F1F1F1F0E0E0E001C1F1F1F21
:102640001F1F1F1F1F070000071F1F1F1F1F1F1F08
:102650001F1C000C050E0A0E1F151F1F151F0E0A4A
:102660000E000400000A00000A00000400001C170D
:102670001D1F171D1F171D0700000008020008027C
:10268000000802000000071D171F1D171F1D171C43
:1026900000000002080002080002080000C0E0E09C
:1026A000F0FCFEFFFFFFFEFFF6F8F0F0600031796E
:1026B000797D3F0F0F0F0F07070F1E0F060E1F1F0D
:1026C000FEF8F0FFFFFFFFFCF8F8F0E0000000105C
:1026D000397F7F2F3F7F7F3F0B0707020030F8BC19
:1026E000F8F0F0F8F8F8F8FEDFCFCFC68003070760
:1026F0000F377F3F7F7F7F3F1F07030301A0F0F06D
:10270000E8FEFFFFFEFAFFFFCE0400000003070F04
:102710000F1F7F7F7F7F070F3F7C7C38000030F8E2
:10272000FCFEFEFEFC7E3CF8F8F0C00000163F3FC9
:102730001F0F1F3F3F3F3F1F1F1F1F1F0E00C6EFF2
:10274000FEFFFFFEFCFCFEFEFCF870000000033FF5
:102750007F7F7F3F3C3D1F1F0F03010000387CFC43
:10276000FCFCFC7E7EFEFEFCF8FCFE7E34000001DC
:10277000070F0F1E3F1F3F3F3F1F0F06000040E0A7
:10278000F8FCFCDE9EFEFFFFFFFEE0000000070FEE
:102790001F3F3F1F1F3F7F7F3F7B310000100FC057
:1027A0002020107CC28109191A6936889090600037
:1027B00031494945320A0808080505091209060E7B
:1027C0001111E608300F31190B8CC80810E0000019
:1027D00000102946502E384346350B0405020030C0
:1027E000C8A4C85050080808A8A651494946800303
:1027F000040408364B2D4C4840211F04020201A05E
:102800005010E8D631610E3A0531CA0400000003C9
:1028100004080918684C4678060833444438000018
:1028200030C884020222B4523CC80830C0000016EE
:1028300029241E08102020232D16161711110E0012
:10284000C6291A0D09028C04C28204887000000097
:10285000033C424E5D33242512130E020100003862
:1028600044C47434B45A6282020408BC924A3400EC
:1028700000010608091E2516222020100906000066
:1028800040A038E4A45292665D39211EE0000000A9
:10289000070810202110182048582C4A3100000049
:1028A00000000070F8FCFEFEFFFFFEFC6000000070
:1028B00000000000000000000000000060FCFEFFBF
:1028C000FFFEFEFCF870000000000080800082C760
:1028D000E7FFFFFFFFFFFEFCFCFC383838383838D4
:1028E0003838B8B838FCFCFCFFFFFFFFFFFFC78794
:1028F0000200000000070F1F1F0F07010100040E58
:102900001F3F3F1B010000000000000003070F1FD6
:102910000F0701000000000F1F1F1F1E0C0000000A
:102920000000000070F8FCFEFEFFFFFEFC600000EF
:102930000000000000000000000000000060FCFE3D
:10294000FFFFFEFEFCF87000000000000000000227
:10295000C7E7FFFFFFFFFFFEFCFCFC38B8B83838C4
:102960003838383838B8FCFCFCFFFFFFFFFFFFC7E2
:102970008702808000000000000C1E1F1F1F0F0038
:1029800000000001070F1F0F0703000000000000F8
:10299000011B3F3F1F0E04000101070F1F1F0F0700
:1029A000002B160000000070880402160141229CD2
:1029B00060000000000000000000000000000000B7
:1029C000609C224101160204887000000000008013
:1029D00080008245243E80808091322444C428288F
:1029E000282828282828A8A828C44424939180802F
:1029F000003E44850200000000070810110806018F
:102A00000100040A1121241A010000000000000046
:102A100003040811080601000000000F1012131231
:102A20000C00000000000000708804021601412222
:102A30009C6000000000000000000000000000009A
:102A400000609C2241011602048870000000000012
:102A500000000002C5243E00808091B22444C428B6
:102A6000A8A828282828282828A844442493918006
:102A700080003E448502808000000000000C12139C
:102A800012100F00000000010608110804030000E6
:102A900000000000011A2421110A040001010608A7
:102AA000111008070018BCFEFFFFFEFCFEFFFFFE32
:102AB000BC1803070F1F1F0F070F1F1F0F07030D62
:102AC0000D18A4422151EAF4E2418142A418030402
:102AD00008101008050A1110080403003F311124E2
:102AE0001FBECFEFDAE0DEBFCDBF11E0A0E0B1E066
:102AF000EAE2FEE602C005900D92AA3AB107D9F7C4
:102B000026E0AAEAB1E001C01D92AE3DB207E1F7AE
:102B100015E1CFE6D5E104C02197FE010E94DB3527
:102B2000CE36D107C9F70E9436320C9413370C9475
:102B30000000FC01DB0113968C9113978530D1F4D2
:102B40008CE9878782E7808B1F968D919C915097A7
:102B5000C29653964D915C9154976AE0649F9001A0
:102B6000659F300D1124820F931F57969C938E936F
:102B7000569705C080E6878755968C91808B118A81
:102B8000138A148A128A0895089580E090E00895C7
:102B9000089508950895089508950895089508954D
:102BA0000895FC018AE191E091838083158214826B
:102BB0008EE091E09383828388E0838781E082873F
:102BC00017821086168281871486168608950895C6
:102BD000CF92EF920F931F93CF93DF93FC016A3054
:102BE00039F48581848396818185890F86834AC0E3
:102BF00084816E3719F48D5F848344C0262FEF01E2
:102C000066816F5F2A334CF42033C4F42D32C1F057
:102C10002E3281F0213249F515C02B352CF42134A8
:102C20005CF42F3341F121C09FE9920F9A31E8F40F
:102C3000275409C02FE307C0215405C02C5F03C0EF
:102C400021E401C02EE33F81062E000C770B082EF5
:102C5000000C990B313089F43AEFC32EE12C00E0DF
:102C600010E047E054E00E945E2088858B5F9C81E5
:102C7000890F8C8307C020E4E6CF47E054E00E9430
:102C8000CE21F3CF81E090E0DF91CF911F910F91A2
:102C9000EF90CF9008950C9476360C9476360C9481
:102CA00076360C9476360C9476360C9476360C94F4
:102CB00076360C9476368F929F92AF92BF92CF92D7
:102CC000EF92FF920F931F93CF93DF9300D000D02A
:102CD00000D0CDB7DEB7F62EFE01319626E0DF013B
:102CE0001D922A95E9F7DC011F962C911F975096AB
:102CF0009C910AE010E036E03E0F822FB8010E945E
:102D0000B3358193262F972F3E13F7CF4E01B6E0B0
:102D10008B0E911C9EE5A92EB12CF1100AC0F40176
:102D2000208144E65DE063E070E0C5010E94CE21B1
:102D30000EC08AEFC82EE12C00E010E0D4012C91E7
:102D400044E65DE063E070E0C5010E945E20B1E012
:102D50008B1A9108E5E0AE0EB11CFCE7AF16B1048A
:102D6000E1F626960FB6F894DEBF0FBECDBFDF9119
:102D7000CF911F910F91FF90EF90CF90BF90AF90A8
:102D80009F908F900895EF920F93CF93DF93EC0174
:102D9000FB01808D882361F0E12C00E022EE3BE016
:102DA00042EA5CE064E170E080E290E00E94EE21A3
:102DB0008E85882361F0E12C00E024EB3AE04AE4C0
:102DC0005BE064E170E087E290E00E94EE21DF9139
:102DD000CF910F91EF900895AF92BF92CF92DF9273
:102DE000EF920F931F93CF93DF935C01102FFB01A2
:102DF0008781908587709927892B39F481E0F501C7
:102E00009485911180E0F5018487C22F220FDD0B9C
:102E1000C42E440FDD08E12C00E02AEB39E046E344
:102E20005AE0BE01C6010E94EE21F501048523EAA5
:102E300039E04AEA59E0BE01C60142960E94EE21FD
:102E4000112361F0BE016B5F7F4F00E025E639E0A2
:102E500043E859E0C60104970E94EE21DF91CF912B
:102E60001F910F91EF90DF90CF90BF90AF9008959A
:102E7000EF920F93CF93DF93C0E0D0E0E12C00E01E
:102E800023E439E043E559E06BE370E0CE010E94B2
:102E9000EE212896C038D10589F7DF91CF910F91A7
:102EA000EF900895AF92BF92CF92DF92EF92FF9290
:102EB0000F931F93CF93DF93EC016B01F42E122F2E
:102EC000A12CB12CE12C00E023E439E043E559E0EA
:102ED0006CE170E0C5010E94EE2188E0A80EB11CF3
:102EE000E0E8AE16B10471F72FE337E041E458E0B3
:102EF00063E370E080E090E00E94EE21FF2021F18A
:102F0000AD85B0E0FD01EE0FFF1FEB5CF84F459182
:102F10005491FD01EC56FE4F608170E0A756BE4F04
:102F20008C91F601218D90E00E94DE21F6018781CF
:102F300090858F709927892B39F48D858F5F853027
:102F400010F48D8701C01D86E12C00E023E236E0FD
:102F50004BEA56E060E070E080E090E00E94EE21F5
:102F6000112351F021E135E049E955E060E070E0DE
:102F700080E790E00E94EE21DF91CF911F910F91A9
:102F8000FF90EF90DF90CF90BF90AF9008952F9279
:102F90003F924F925F926F927F928F929F92AF92E9
:102FA000BF92CF92DF92EF92FF920F931F93CF9336
:102FB000DF93CDB7DEB727970FB6F894DEBF0FBE0D
:102FC000CDBF9F838E835B01DB0119969C9019977F
:102FD0001A963C913B83DC011E968C911E978111C1
:102FE000DBC1FB018781908587709927892B69F464
:102FF00096968C9196978F5F843019F096968C9365
:1030000004C0AE81BF8196961C92F5018189833000
:1030100070F4AE81BF8193968D919C919497181610
:1030200019062CF4019794969C938E939397EE81B6
:10303000FF8187A1882311F0815087A3AE81BF81D2
:1030400098968C919897882319F0815098968C9334
:10305000AE81BF819396ED91FC919497CF0160E88A
:103060007CE00E94C73509964397B8F5D501539681
:103070002D913C9154978AE0829FA001839F500D2F
:10308000112480E991E0841B950BAE81BF819A9653
:103090009C938E93999765E0629FA001639F500D6A
:1030A000112428EC30E0241B350B9C963C932E9386
:1030B0009B97853B910530F084EB90E09A969C932A
:1030C0008E9399972536310540F084E690E0AE81E5
:1030D000BF819C969C938E939B97D50151968C9122
:1030E000AE81BF811F962D913C9150978330A9F4FA
:1030F0002938BFEF3B076CF0F5018781908565E0CB
:1031000070E00E94B335892B09F0C8C02250310904
:103110002CC081E0F501808FC1C037FF13C0D501FD
:1031200017968D919C91189765E070E00E94B335D9
:10313000892B09F0B3C02E5F3F4FEE81FF81308BAA
:103140002787ACC0EF2B09F078C1283C31050CF083
:1031500062C1F5018781908565E070E00E94B3351A
:10316000892B09F09BC02E5F3F4FAE81BF815096E7
:103170003C932E931F9792C095FC76C17501B4E0E5
:10318000EB0EF11CF5018781908563E070E00E94F1
:10319000B335029709F06DC197FC79C1AE81BF814B
:1031A00057968C915797882309F478C1F92DF071BF
:1031B0008F2E94FCA4C1EE81FF81C788F1E0CF1669
:1031C00009F4A5C1AE81BF8193968D919C9194978E
:1031D000D2962D018D3291400CF0CBC1EE81FF8152
:1031E00023A134A1838D2D3231400CF48FC3811182
:1031F0008DC3EE81FF81848D81111EC064ED70E06E
:1032000080E090E00E942B1FDC01CB0180589F4F93
:10321000AF4FBF4FEE81FF81918F808F63E070E0F1
:1032200080E090E00E942B1FAE81BF815A966C9384
:103230005A9781E05C968C93F5018781908563E0D5
:1032400070E00E94B335029709F0B1C27201DD242B
:10325000D3940615170509F000C387E0882E1201E4
:1032600060E070E0762ED20140E050E06101E3E0E2
:10327000CE1AD1087101F5E0EF1AF108741257C3A4
:103280004F5F5F4F179643305105C1F76F5F7F4F18
:10329000E7E02E0E311C6330710521F7D50117963A
:1032A0008C9180FD36C0EE81FF81858D8150803C00
:1032B00011F0858F04C0AE81BF815D961C92EE81B6
:1032C000FF81EE5BFF4F2081222359F0AE81BF8149
:1032D0005E968D919C915F9701975F969C938E93DC
:1032E0005E97AE81BF8193968D919C919497892B27
:1032F00081F421110EC081E080835D968C915D97F1
:10330000082E000C990B80549F4F5F969C938E93D0
:103310005E97F5018781908563E070E00E94B33588
:10332000029771F0AE81BF8190968C9190978150F9
:10333000803F19F090968C9303C0EE81FF8110A21C
:10334000D50117968D919C911897837099270397B3
:1033500061F0EE81FF8181A18250813E14F081A352
:1033600004C0AE81BF8191961C92F5018781908542
:1033700065E070E00E94B335039770F4AE81BF81C1
:1033800092968C9192978350813E1CF092968C93EA
:1033900003C0EE81FF8112A2D50117968D919C91F9
:1033A000189766E070E00E94B335892B29F0F5018B
:1033B000808D811116C01EC0EE81FF8173962E8113
:1033C0003F81295E3F4F8081882331F08F5F8630B7
:1033D00011F0808301C010823196E217F30799F74C
:1033E000E6CF3B803094932093FE09C387E0838F20
:1033F000148E05C3F501828580959185892382FF0E
:10340000FEC2AE81BF811E969C911E9781E08927E6
:103410001E968C93F4C2D50153968D919C9154972E
:10342000019654969C938E93539784E05B968C936D
:103430005B9785E05C968C9331CF0E811F81035D95
:103440001F4F6E807F80B2E46B0E711CEE81FF8196
:10345000F3968E819F81885B9F4FE817F90709F4E7
:103460008BCE10823796F9CF2115310509F0FEC0B9
:1034700085CE96FE91CEAE81BF811F96CD90DC9019
:103480005097B6E4CB16D1040CF4F7C085CEEE818C
:10349000FF818189883008F036C180CE97FC22C038
:1034A0005196DC905197DA941F964D915C9150970C
:1034B0002D2DB701CD010E94BE2E8F3F61F0EE8110
:1034C000FF81838981110EC081E0838BB501CF011B
:1034D0000E94012F07C0AE81BF815196DC925197A7
:1034E00057961C92EE81FF818189873009F42EC1A5
:1034F000843109F42BC1813209F058CE27C1AE8145
:10350000BF8151968C91813208F426C154CE81102E
:1035100023C0AE81BF815196DC905197D3941F9602
:103520004D915C9150972D2DB701CD010E94BE2E7B
:103530008F3F59F0EE81FF81848981110DC0C48ACB
:10354000B501CF010E94012F07C0AE81BF81519606
:10355000DC9251975796CC92EE81FF81818987301A
:1035600009F41DC1843109F41AC1813209F02ACE4F
:1035700016C17201680188248394C614D70409F423
:103580002DCED7018C9181116AC01701B3E02B1A9F
:1035900031089701225031093A8329832F5F3F4F29
:1035A0003D832C836CEA70E080E090E00E942B1F4A
:1035B000DC01CB0180589F4FAF4FBF4FF601918385
:1035C0008083833E9F4F14F4D7011C9263E070E028
:1035D00080E090E00E942B1FF101608362E070E0C8
:1035E00080E090E00E942B1FA981BA816C9362E079
:1035F00070E080E090E00E942B1FDC01CB0102967E
:10360000A11DB11DEC81FD818083D7018C92F10158
:103610003081D6014D915C91D201B80120E0661550
:103620007705D1F08C91882399F0CD010397FC01A7
:10363000808183130DC0FB0180819181841B950BD8
:1036400097FF03C0919581959109C3970CF4ADC084
:10365000695F7F4F1796E3CF213009F0A3CFF7E0E2
:10366000CF0ED11C27E0E20EF11C87CF215031098B
:10367000EE81FF81308B278781CDFFEFCF1ADF0AE4
:10368000AE81BF8151962C915197A601B701CD0112
:103690000E94BE2E882EBFEF8B1771F1EE81FF8145
:1036A0008689811106C081E0868BB501CF010E9419
:1036B000012FAE81BF811F962D913C915097215EC5
:1036C0003F4F882D90E0FD01B7E08B9EE00DF11D8E
:1036D000112436A725A7233E3F4F0CF412AA27E05A
:1036E000289FF001299FF00D11248E819F81E80F02
:1036F000F91F81E083AB50CDAE81BF815096DC9243
:10370000CE921F9749CDDD24DA94D80EEE81FF8149
:10371000478550892D2DB701CF010E94BE2E8F3FC6
:1037200081F0AE81BF8153968C915397811136CD34
:1037300081E053968C935397B501CD010E94012FE0
:103740002DCDEE81FF81D18A178A28CD84E0AE810C
:10375000BF8157968C932ACDDD24D394D80EEE8169
:10376000FF81478550892D2DB701CF010E94BE2EC4
:103770008F3F61F0EE81FF81848981111CCD81E052
:10378000848BB501CF010E94012F15CDAE81BF8181
:103790005196DC92519781E057968C930CCD84E042
:1037A000AE81BF8157968C930DCD2F5F51CFAE81E7
:1037B000BF815C968C915C97882309F447CD58961D
:1037C0008D919C915997019759969C938E935897F8
:1037D000089689F4EE81FF81148E6AE570E080E03E
:1037E00090E00E942B1FDC01CB010A96A11DB11DA8
:1037F000EE81FF81838FAE81BF8158966D917C9160
:1038000059975A968C915A971F964D915C91509763
:1038100051962C91FB0138964E175F070CF016CD90
:10382000415E5F4F641775070CF010CDBEE08B9FB3
:10383000C001112430E0B9016B5E7F4FAC014D5DDA
:103840005F4F641775070CF001CD215E3F4F4B961B
:10385000821793070CF0FACC5FC0F70180818823B0
:1038600009F44EC0D80116968C91811149C0F70118
:1038700033976081F80120813181AE81BF815196FB
:103880004C9151971F968D919C915097DC015E96BB
:10389000FC01B0962E173F070CF095C0F901329647
:1038A000AE17BF070CF08FC050E0BEE06B9FB001B9
:1038B0001124DB015B96FA017F96AE17BF070CF06F
:1038C00082C06B5D7F4F4B5E5F4F461757070CF012
:1038D0007AC04F96D8018D939C93833E9F4F14F4EA
:1038E000F7011082AE81BF8156968C915697811157
:1038F00007C05696DC925697B501CD010E94012F64
:10390000095F1F4FB7E0EB0EF11CA3CC8150AE81D5
:10391000BF815B968C9390CCF50187859089029648
:10392000908B8787AE81BF815C961C928FCCF10112
:103930008081882309F4A4CC8C91882309F4A0CC3D
:10394000F6012081CD010397FC018081281398CCDA
:10395000F701808191819D0125503109F901208174
:1039600031818C01021B130B17FF03C011950195C8
:1039700011090F3111050CF083CC281739078CF48D
:10398000215E3F4F869EF001879EF00D11248E81AF
:103990009F81E80FF91F36A725A7233E3F4F8CF0E4
:1039A0005ECC4F96849EF001859EF00D1124AE8171
:1039B000BF81EA0FFB1F96A785A7833E9F4F0CF0A0
:1039C0004ECC12AA4CCCF7013197608170E0F50122
:1039D000878190850E94B335882319F081E090E0BB
:1039E00002C082E090E0281B390BF801318320836C
:1039F000233E3F4F0CF084CFD7011C9281CF2796F6
:103A00000FB6F894DEBF0FBECDBFDF91CF911F91EF
:103A10000F91FF90EF90DF90CF90BF90AF909F906D
:103A20008F907F906F905F904F903F902F90089570
:103A3000CF92DF92EF92FF920F931F93CF93DF937A
:103A40006C017A018B01C0E0D0E0CE15DF0589F072
:103A5000D8016D918D01D601ED91FC910190F0811D
:103A6000E02DC6010995892B11F47E0102C0219633
:103A7000ECCFC701DF91CF911F910F91FF90EF9095
:103A8000DF90CF9008951F93CF93DF93DC0120E068
:103A900030E040E050E011E0C1E0D0E02617370709
:103AA00091F114968C911497811115C014961C9362
:103AB000149712968D919C911397ED91FC9111970B
:103AC000E80FF91FE4911596EC931597019613965C
:103AD0009C938E93129714969C91149715968C91A3
:103AE0001597892349F0FE01022E02C0EE0FFF1F39
:103AF0000A94E2F74E2B5F2B990F14969C93149720
:103B00002F5F3F4FCBCFCA01DF91CF911F91089517
:103B10002F923F924F925F926F927F928F929F92DD
:103B2000AF92BF92CF92DF92EF92FF920F931F93CB
:103B3000CF93DF93CDB7DEB72B970FB6F894DEBFE8
:103B40000FBECDBF4C016B015A8349831C821B827F
:103B50001D821E8268E070E0CE0101960E94431D26
:103B600001961C0168E070E0CE0101960E94431DA1
:103B70008C0161E070E0CE0101960E94431D482F48
:103B8000C401820D931D97FDD3C050E885169104A2
:103B90000CF0CEC098012F5F3F4FC601820F931FDC
:103BA00097FDC6C060E4C616D1040CF0C1C0860102
:103BB000D7FE04C0002711270C191D090770112713
:103BC0007601D7FE03C077E0E70EF11C63E0F594C1
:103BD000E7946A95E1F7D7FE09C081E0E81AF10899
:103BE00088E090E0BC01601B710B8B01690137FF1D
:103BF00003C077E0C70ED11C53E0D594C7945A9503
:103C0000E1F727703327232B19F08FEFC81AD80A52
:103C10004F8331E020E0A12CB12C612C712C88E085
:103C200090E0AC01401B510B598748876C147D0410
:103C30000CF07EC044244394512C61E070E0CE012E
:103C400001962A873B870E94431D2A853B85892B45
:103C500021F452E0450E511CF0CFB201CE01019685
:103C60000E94431DAC014F5F5F4FE0E0F0E02A850A
:103C70003B85E417F50708F052C06F816111232BD3
:103C8000330F09F04AC0B701660D771DCB010196CD
:103C9000099798F5C501880D991D8038910568F53B
:103CA0002B015694542C442457944794480C591C87
:103CB0004A0C5B1C6F3F8FEF7807B1F1D201AB521A
:103CC000BD4F822F002E01C0880F0A94EAF79C9105
:103CD000892B8C930115110581F06730710569F00E
:103CE000D201AB5ABC4F30E0088402C0359527950D
:103CF0000A94E2F78C91282B2C939FEFA91AB90A0A
:103D0000A214B30444F06FEF661A760A31E020E0A3
:103D1000A12CB12C02C031E020E03196AACF4F8116
:103D200051E045274F8382CF01151105C9F6E5CF34
:103D30002B960FB6F894DEBF0FBECDBFDF91CF91AB
:103D40001F910F91FF90EF90DF90CF90BF90AF90B9
:103D50009F908F907F906F905F904F903F902F90AB
:103D600008950895FB01148A138A128A118A108A11
:103D70001786118E108E0895FC01DB011A968C9126
:103D80001A97809519969C911997892351F08281F1
:103D9000882311F08CE782838281811102C081E047
:103DA00082838281882359F08F5F82838D3739F433
:103DB00082E05B968C935B975C961C9208950895C5
:103DC00008950E940E379091D5029EBD91E08130FA
:103DD00009F490E091959093D50221E030E09FEFB7
:103DE000F901EB52FD4F6081813039F018F08230DB
:103DF00039F011C02F5F3F4F0AC02F5F3F4F0AC0FD
:103E0000A9014F5F5F4F203831401CF49A01908325
:103E100002C09A0110820DB407FEFDCF6EBD2115C0
:103E200044E03407ECF20DB407FEFDCF08950F9384
:103E30001F93CF93DF938C01EB010E942035888381
:103E4000C80101960E9420358983CE01DF91CF9170
:103E50001F910F910895CF93DF9300D000D0CDB77D
:103E6000DEB7611571058105910579F09B01AC0103
:103E700069833A834B835C830E94123529813A819E
:103E80004B815C810E94363503C060E070E0CB015D
:103E90000F900F900F900F90DF91CF9108956115C3
:103EA000710579F0FB0101900020E9F73197AF012E
:103EB000461B570BDC01ED91FC910280F381E02D54
:103EC000099480E090E008952F923F924F925F9284
:103ED0006F927F928F929F92AF92BF92CF92DF921A
:103EE000EF92FF920F931F93CF93DF93CDB7DEB77F
:103EF000AC970FB6F894DEBF0FBECDBF7C016B014F
:103F0000042FCE01889699A788A715E44E0192E266
:103F1000890E911CEE27FF27E61BF70BFBA7EAA7EC
:103F2000F6E0F80DFCA7370122E0620E711C8AE072
:103F3000282E312C412C512C86E0F40111928A95C7
:103F4000E9F7C601D7FE02C08AA59BA5F4016AE085
:103F500070E00E94B3358193CB012CA52E13F7CFCF
:103F6000F701178316830087E8A5F9A52291F9A721
:103F7000E8A730E040E050E019A2CE0181965C0154
:103F8000CA01B901A20191010E946835605DF50185
:103F900062935F01211531054105510589F7BF0184
:103FA000C3010E944F1F1B5F133631F6AC960FB64C
:103FB000F894DEBF0FBECDBFDF91CF911F910F915F
:103FC000FF90EF90DF90CF90BF90AF909F908F9039
:103FD0007F906F905F904F903F902F9008953FB7E4
:103FE000F8948091D6069091D706A091D806B0910A
:103FF000D90626B5A89B05C02F3F19F00196A11D33
:10400000B11D3FBFBA2FA92F982F8827820F911D6E
:10401000A11DB11DBC01CD0142E0660F771F881FB5
:10402000991F4A95D1F708951F920F920FB60F92DC
:1040300011242F933F938F939F93AF93BF938091BE
:10404000D1029091D202A091D302B091D4023091CA
:10405000D50623E0230F2D3720F40196A11DB11DB5
:1040600005C026E8230F0296A11DB11D2093D50699
:104070008093D1029093D202A093D302B093D40242
:104080008091D6069091D706A091D806B091D90616
:104090000196A11DB11D8093D6069093D706A093DB
:1040A000D806B093D906BF91AF919F918F913F9160
:1040B0002F910F900FBE0F901F9018952F923F9247
:1040C0004F925F926F927F928F929F92AF92BF9228
:1040D000CF92DF92EF92FF920F931F93CF93DF93D4
:1040E00000D000D000D0CDB7DEB7CD82411551054C
:1040F00009F43BC1FA0134913196E4914E5F5F4F70
:10410000A32EB12C211102C0EE2061F18E2E8694D7
:1041100086948694912CA1E0B0E0FE2FF77011F404
:10412000A0E0B0E08A0E9B1EA89CD001A99CB00D17
:10413000B89CB00D1124FD81F33019F4AA0FBB1FF8
:104140000AC00115110539F0EA9E4001EB9E900C62
:104150001124080D191D2A9F70012B9FF00C1124AA
:104160004E0D5F1D2D812F3F39F40115110511F002
:1041700021E001C022E02D837C01EA0CFB1C1E140F
:104180001F040CF0F2C0803891050CF0EEC0DB018A
:10419000AE0FB11D1A161B060CF0E7C06034710596
:1041A0000CF0E3C04115510509F4DFC0F62FF7709C
:1041B0006F2EDB0177FD179623E0B595A7952A951D
:1041C000E1F7FA2F77FF04C0662011F0FFEFFA0F36
:1041D00097FF05C0AA27BB27A81BB90B02C0A0E008
:1041E000B0E020E8E216F10424F020E8722E781AFC
:1041F00001C0732E7A1A6F2F0F2E000C770BFF3F22
:104200001CF4C62EC09401C0C12C992493942E2F67
:10421000277009F4912CE695E695E6959E0E690DBA
:10422000711D693071051CF0E8E09E2E9F1ADC2C90
:10423000DF0E6D2D20E86203800D911D11248A0F81
:104240009B1F61E070E0062C02C0660F771F0A9486
:10425000E2F72D81233011F0E1E001C0E2E0A71880
:10426000B108EA9D802C1124EE2EF12CC39EA00DE6
:10427000B11D1124EA9E9001EB9E300DFA9E300D87
:1042800011245A01A20EB31E0115110509F0A8014F
:10429000D70111972A0F3B1F420F531FAFEFA69F65
:1042A0009001A79F300D1124290140945094F90DDD
:1042B000FE83282D30E0E79D200D311D1124EE8175
:1042C000DE1609F452C0DC01AB52BD4F4A01850134
:1042D000C12CC71409F441C0F8013490369EF00196
:1042E000379EF00D1124FA83E983E095F095FC8365
:1042F000EB83FD81F23019F45C824B8211C0ED81B9
:10430000EB3F19F41A8219820BC0F4013490369EE7
:10431000F001379EF00D1124E095F095FC83EB83BE
:10432000D7FC06C0FC91EB81EF23F981EF2BEC93D6
:10433000662061F0F6E0FD154CF0FD01E058FF4FFE
:1043400020803C8023203A80322830828E0C9F1CB3
:104350000E0D1F1DC3941196BCCFD394A20EB31E95
:10436000420F531F80589F4FAACF26960FB6F8943E
:10437000DEBF0FBECDBFDF91CF911F910F91FF9098
:10438000EF90DF90CF90BF90AF909F908F907F90F5
:104390006F905F904F903F902F900895CF92EF9243
:1043A0000F931F933BEFC32EE12C00E010E00E941F
:1043B0005E201F910F91EF90CF900895CF92EF92D2
:1043C0000F931F9332E0C32EE12C00E010E00E9417
:1043D0005E201F910F91EF90CF900895CF92EF92B2
:1043E0000F931F93F901202FCC24C3948F010E94B7
:1043F0005E201F910F91EF90CF900895CF92EF9292
:104400000F931F93CF93DF93EC018B0121E040E0EA
:104410000E945217B801CE010E943817E12C00E02B
:104420002EE430E147E052E161E070E081E290E0AB
:104430000E94EE218AEFC82E00E010E0288946E5B0
:104440005FE06DE070E08AE290E00E945E20898982
:10445000883C51F424EA3EE04CEF5EE064E370E017
:104460008BE290E00E94EE21E12C00E022E63EE0AB
:1044700042E85EE06EE070E080E090E00E94EE21B5
:104480008A89882349F020E041E55EE060E170E040
:1044900081E190E00E94DE2180E0DF91CF911F91C9
:1044A0000F91EF90CF900C94E31EF89487E78093E0
:1044B000000880930108A89588E18093600088E057
:1044C00080936000FFCFCF93DF93FC01EB019985D0
:1044D0008A858095892394FF08C09785903118F4C8
:1044E0009F5F978703C00E945522178683FF04C0F1
:1044F00093E09B8F95E09C8F82FF04C086E08B8FBA
:1045000085E08C8F8F8198856FE070E00E94B335D5
:10451000892B39F480898F5F833011F0808B01C043
:10452000108A8F81988560E570E00E94B335892BF1
:1045300021F4928981E08927828B8189883C10F45B
:104540008F5F818BDF91CF9108958F929F92AF9271
:10455000BF92CF92DF92EF92FF926C01E12CF12C8F
:104560000E94EF1F4B015C01C114D104E104F1046E
:10457000F1F00E94EF1FDC01CB0188199909AA090B
:10458000BB09883E9340A105B10570F321E0C21A32
:10459000D108E108F10888EE880E83E0981EA11C7E
:1045A000B11CC114D104E104F10419F7DDCFFF906F
:1045B000EF90DF90CF90BF90AF909F908F90089535
:1045C0008FB18095807F669B88601C9B8460089576
:1045D000E2ECF3E190E1969FD001A0781124A80FBE
:1045E0006770E60FF11D9491AB52BD4F442319F053
:1045F0008C91982B03C090958C9198239C9308954F
:104600000F931F93CF93DF93EC014CE35EE061E1E6
:1046100070E08FE290E00E94881D47E15EE06AE171
:1046200070E08BE290E00E94881D47E15EE06AE165
:1046300070E089E490E00E94881D8A81811111C098
:1046400047E15EE06AE170E08AE390E00E94881D45
:104650004EEC5DE06EE270E08AE190E00E94881D21
:1046600025C041EB5DE06AE170E08AE390E00E94E2
:10467000881D4EE85DE06EE270E08CE290E00E9402
:10468000881D8A816FE00E949935C82FC3700FE49E
:1046900010E0D0E0DC1751F041E061E370E0C801C8
:1046A0000E94E822DF5F0E5F1F4FF4CFE5EDF2E0DE
:1046B00081E0A0E0B8E000800EBC8111012C1197D0
:1046C000A0FDFDCF0192B9F70DB4DF91CF911F91FD
:1046D0000F910895CF93DF9300D0CDB7DEB71A8244
:1046E0001982BE016F5F7F4F90E00E94171F898182
:1046F0009A810F900F90DF91CF910895BF92CF9242
:10470000DF92EF92FF920F931F93CF93DF9300D02E
:1047100000D0CDB7DEB76C018E010F5F1F4FE62EC4
:10472000F12CE01AF10A83E0B82EB00EC701800F19
:10473000911F0E942035F80181938F01BE12F6CFA0
:104740001C8289819A81AB81BC81F601808391832F
:10475000A283B3830F900F900F900F90DF91CF91B2
:104760001F910F91FF90EF90DF90CF90BF90089531
:10477000EF92FF920F931F93CF93DF931F92CDB7CA
:10478000DEB77C01FC0100811181C80169830E94B0
:1047900020356981681719F0C8010E942835C701C2
:1047A0000F90DF91CF911F910F91FF90EF9008959F
:1047B000EF92FF920F931F93CF93DF9300D0CDB76B
:1047C000DEB78C017B01FB0160819A838983CE0176
:1047D00001960E94B823F70161810F5F1F4F1A8372
:1047E0000983CE0101960E94B823C7010F900F9054
:1047F000DF91CF911F910F91FF90EF900895CF938C
:10480000DF9300D0CDB7DEB79A838983CE010196BE
:104810000E94B8230F900F90DF91CF9108950F93CE
:104820001F93CF93DF9300D0CDB7DEB7082F85E677
:1048300090E00E942035182F86E690E00E942035F7
:10484000011105C0163419F4803509F459C066E425
:1048500085E690E00E94FF2360E586E690E00E94F6
:10486000FF2307E610E060E0C8010E94FF230F5F0E
:104870001F4F0A371105B9F761E487E690E00E94FF
:10488000FF2362E48BE690E00E94FF2363E48FE65F
:1048900090E00E94FF2361E488E690E00E94FF23FD
:1048A00062E48CE690E00E94FF2363E480E790E0FE
:1048B0000E94FF2361E489E690E00E94FF2362E406
:1048C0008DE690E00E94FF2363E481E790E00E9480
:1048D000FF231A821982BE016F5F7F4F83E790E04A
:1048E0000E94D823BE016F5F7F4F85E790E00E9452
:1048F000D823BE016F5F7F4F87E790E00E94D823E7
:104900000F900F90DF91CF911F910F910895CF934A
:10491000DF93DB0158961C92FC01ED59FF4F128288
:1049200015823C961082709722E12083DC011E964E
:104930001C92EC0165969E0126503109E217F3079F
:1049400031F01882DE0111971C922896F4CFDF9186
:10495000CF9108952F923F924F925F926F927F92E4
:104960008F929F92AF92BF92CF92DF92EF92FF927F
:104970000F931F93CF93DF9300D000D000D0CDB71B
:10498000DEB74C017C836B83DB011A96BC91B98343
:10499000FB017184DC011E968C91811128C3840176
:1049A000015A1F4FD801EC91DB0117968D919C9114
:1049B000189765E070E00E94B335892B39F0EB81E0
:1049C000FC818189833008F0BAC0C2C09401215FA4
:1049D0003F4F6401F5E1CF0ED11C740180E1E80E78
:1049E000F11CA4014F5E5F4FB4016C5E7F4F540118
:1049F00096E1A90EB11CEC5E2E2E312C6624639438
:104A0000D401AD59BF4FFAEF5F2E20173107B9F22D
:104A1000F6018081882309F482C0F90180818636FD
:104A200041F4EB81FC81878590890596908B87877F
:104A30002CC0FA014080885F90E08219930997FFAB
:104A400003C0919581959109FAE04F1631F0E0E2AB
:104A50004E1619F0F6E34F1205C00B97B4F4F501AA
:104A6000608213C0FBE04F1631F0E1E24E1619F000
:104A7000F7E34F1208C0F5014080411006C00B97C4
:104A80000CF015C302C0F5011082FB019081911159
:104A900005C0FA0180818F5F808304C044244A945A
:104AA000FA014082FA0180818B3411F4108235C002
:104AB000923031F178F4992399F0913071F5F90140
:104AC00080818F5F8083EBE24E2EF7014082F2E01F
:104AD0004F2E20C09D3308F59F5FFB0190831FC0C0
:104AE00090E0880F991FFC01E653FC4E4490F901B9
:104AF0004082FC01E553FC4E8491F70180830FC096
:104B0000F90180818F5F808382E3482EF701408224
:104B100093E0492EFB01408202C0F6011082285F1B
:104B20003F4FF8E0CF0ED11C88E0E80EF11C485F43
:104B30005F4F685F7F4F98E0A90EB11C66CFF4010C
:104B4000759681E09F01265031090217130769F419
:104B5000AB81BC8117968D919C9118976FE070E0A6
:104B60000E94B335892B81F016C09081992351F0B2
:104B7000DF0111979C91911105C011979C91992388
:104B800009F4E0C23896DECFF4017296CF010397A4
:104B90000817190739F4F401E159FF4F8081811199
:104BA00023C10CC08381882339F080818F5F8830D6
:104BB00011F0808301C010823896E8CF7401BBE603
:104BC000EB0EF11CF7018081918101978E3FFFEF81
:104BD0009F0718F4D7018D939C93F70120813181B1
:104BE0002115310509F000C1AB81BC811F964D91A3
:104BF0005C915097483EB3E05B0758F488EE93E031
:104C0000841B950B6AEF70E00E94B3356D5F7F4F98
:104C100002C063E070E0F40175965F014CE250E081
:104C2000A6E14A2E512CCF0106970817190781F1EA
:104C30008081882359F1CF010497DC018C91863162
:104C400009F4D2C08C3209F4CFC0C82ED12CCA01CD
:104C50008C199D0997FF03C0919581959109D20107
:104C6000AC19BD096D01B7FF03C0D194C194D1083F
:104C70000C2C000CDD08C616D7060CF4B5C0082EA7
:104C8000000C990B861797070CF4AEC03896CBCF63
:104C9000F501808181112DC0D90183E0AA0FBB1FCE
:104CA0008A95E1F7A80DB91D81E055968C9355972B
:104CB00051961C92519754961C92549753961C925D
:104CC0005397EAECF3E1E4911F96EC93EBECF3E1FC
:104CD000E491D901129693E0AA0FBB1F9A95E1F7D0
:104CE000A80DB91DEC93EB81FC818189833040F0E4
:104CF00076C02F5F3F4F38962A30310551F674C089
:104D0000AB81BC811F96ED91FC915097EC3DB5E0D5
:104D1000FB07C8F45F01B694A7948CED95E08A195F
:104D20009B09A5E0CA2ED12CB6010E94B3359B0188
:104D3000EE3EF24050F48EEE92E08A199B09B601E5
:104D40000E94B33504C026E930E06BE470E0C9018D
:104D5000A0E0B0E05B01C12CD12CA816B906CA06B0
:104D6000DB067CF4BC01CD016A197B098C099D0925
:104D70000E942B1FDC01CB018A0D9B1DAC1DBD1DAC
:104D800004C086E990E0A0E0B0E0F7019183808361
:104D9000AB81BC811F968D919C915097F401E25993
:104DA000FF4F7F018531910568F0899768F40E9473
:104DB000123522E030E040E050E00E943635F70145
:104DC000608312C0108210C00E94123523E030E0D0
:104DD00040E050E00E943635D7016C9305C08FEF5C
:104DE0009FEFF7019183808375FE0CC0D801119667
:104DF0008C911197811106C08C91833118F082E05B
:104E000013968C9376FE08C0F8018181811104C04D
:104E100080818C3308F49EC1AB81BC8117968C9144
:104E200080FD3DC0F8018381823019F08330E9F0C4
:104E300036C0D8018081E18191E09E0F11969C934C
:104E4000F0E0E05AFB4EE4918E1BF80180838281F2
:104E50008F5F8C3011F0828301C012829530F9F49B
:104E6000F801118284E083831AC0D8018081E18136
:104E700091E09E0F11969C931197F0E0E05AFB4E43
:104E8000E491E80FEC9312968C9112978F5F8C301F
:104E900019F012968C93E2CFF8011282DFCFAB812A
:104EA000BC8117968D919C91189766E070E00E94E6
:104EB000B335892B49F0EB81FC818189833008F47B
:104EC00096C0C401459688C0D401AD59BF4F129613
:104ED0008C911297882309F462C015968C911597CE
:104EE0008F5F15968C931597282F082E000C330B87
:104EF00087FD39C014968C91149790E028173907D4
:104F000094F513968C9113978130E9F078F0823004
:104F100051F5C9010196880F991FFC01EB59FB4E11
:104F2000E491EC93FC01EA59FB4E19C0C9010196CA
:104F3000880F991FFC01E754FB4EE491EC93FC01B0
:104F4000E654FB4E0CC0C9010196880F991FFC0165
:104F5000ED56FB4EE491EC93FC01EC56FB4EE491D4
:104F60001196EC93119714968C91149790E0281752
:104F7000390719F412961C921297821B930BF401B5
:104F8000E659FF4F089754F480818F5F8083883003
:104F900031F412961C92129715961C921082F4010D
:104FA0007596CF0106970817190709F484CF8081F9
:104FB000882351F0DF0112978C91882329F08F5FAD
:104FC0008C93863009F410823896EBCF0896FC015A
:104FD0003897208121110BC09C01265031090217FE
:104FE0001307A1F781E0AB81BC8158968C93AB810C
:104FF000BC811F962D913C91509756968D919C9116
:105000005797F401E159FF4F8217930710F481E09D
:1050100080838081882361F1F401E15AFF4FC4014C
:1050200045969C0126503109E217F30739F008969E
:10503000DC0118972C912223A1F31AC08081AB8147
:10504000BC8155968C93559753968D919C9154970E
:10505000019654969C938E93539751968C918330DE
:1050600008F072C083E0EB81FC81838F86E0848F3F
:10507000EB81FC81808D882349F08981809578229D
:1050800073FE6CC087E0838F148E68C0AB81BC81D7
:105090001A968C911A97809519969C91892382FF74
:1050A0005DC0F401968581E08927868757C0FB01A2
:1050B0006082EB81FC8191899F5F918BF9018081F6
:1050C0008C3358F5873288F0933008F0DECC139695
:1050D0006C92139712966C92129715965C92159794
:1050E000E92FF0E0EE56FB4E13C0823108F4CDCC30
:1050F000933008F0CACC13961C92139712966C92B8
:10510000129715965C921597E92FF0E0E854FB4E44
:10511000E4911496EC931497B8CC813808F0B5CC90
:10512000933008F0B2CCF2E01396FC9313971296EA
:105130006C92129715965C921597E92FF0E0EC5956
:10514000FB4EE6CF8C931ECD81E0AB81BC8158969F
:105150008C938ECF83E0F80183835ECE26960FB6C4
:10516000F894DEBF0FBECDBFDF91CF911F910F919D
:10517000FF90EF90DF90CF90BF90AF909F908F9077
:105180007F906F905F904F903F902F900895FC011B
:10519000DB011A964C911A97409519968C911997A4
:1051A000482317962D913C91189720FD66C01396C1
:1051B0009C9113978189953059F5823A38F48B3553
:1051C00078F48C3350F08C3488F554C08F3B08F45D
:1051D00045C08F3B09F448C04DC08785815042C00F
:1051E00081E0838B23703327232B09F043C0808910
:1051F000863128F4833138F48231E1F106C08B31F5
:1052000020F4825003C0815001C08350808B32C093
:105210008D3838F4843710F5853160F1893248F4DF
:1052200005C0843BE8F0843BF9F024C081E0838B27
:1052300021C081E0838B23703327232BD9F49289FB
:105240008089923020F0943020F48E5F03C08F5F0D
:1052500001C08D5F808B9F5F928B0CC0138A0AC048
:1052600087858F5F878706C05B969C935B975C966C
:105270001C925C9781898F5F818B43FF09C01396D5
:105280008C9113975B968C935B975C961C925C97C2
:1052900017968D919C9118976CE070E00E94B33541
:1052A000892B39F48089823121F0948981E0892722
:1052B000848B08954F925F926F927F928F929F920C
:1052C000AF92BF92CF92DF92EF92FF920F931F9314
:1052D000CF93DF93EC01FB01C780D08421E040E055
:1052E0000E945217E12C00E023E63BE14DEE5BE12A
:1052F00063E070E08FE190E00E94EE212DE738E15D
:105300004FEE59E160E170E08DE190E00E94EE2106
:1053100013E21F831E8385E188874E01F2E08F0E22
:10532000911CBE016D5E7F4FC4010E944F1F6DA195
:105330007EA145E1CE010E94641F1F831E838EE182
:105340008887BE01695E7F4FC4010E944F1F6FA115
:1053500078A54EE1CE010E94641F1F831E8387E261
:105360008887BE01655E7F4FC4010E944F1F69A5FB
:105370007AA547E2CE010E94641F0F850F3F09F412
:1053800065C0C60168E370E00E94B3354D9708F42C
:105390005DC0FE01E00FF11DE00FF11D478C50A034
:1053A00089E0089F800111243801E5E16E0E711C2F
:1053B000E888F6E0EF9E70011124670182E2C80ED2
:1053C000D11CE8E2EE0EF11C035E1F4FCE14DF0489
:1053D00001F1530177FE12C0A12CB12C0FC0A81609
:1053E000B9069CF4F0E8CF16D1042CF441E0B501E5
:1053F000C6010E94E8228FEFA81AB80AC80101343A
:1054000011056CF380E490E0EACFEFEFCE1ADE0AEC
:10541000DDCF19868F8599E0899F902D11249B5EA1
:105420002889822F880F820F880F8D5D8F838E834E
:105430009887EA81FB81D201A20FB11D0190F08112
:10544000E02D6C91C401099581E089878F858F3F9C
:1054500079F48A8981110CC0E12C00E02BEC37E152
:1054600043E258E164E370E08BE290E00E94EE21B9
:1054700080E0DF91CF911F910F91FF90EF90DF902F
:10548000CF90BF90AF909F908F907F906F905F90E4
:105490004F900C94E31ECF92DF92EF92FF921F93F6
:1054A000CF93DF93EC01FB01828511852F852F3F80
:1054B00009F48DC0878190856CE070E00E94B3355F
:1054C0006C01892B09F08DC017FF20C0FE01E20F8F
:1054D000F11DE20FF11D278D30A18889F901E80F38
:1054E000F11D80818F5F80838889F901E80FF11DAC
:1054F00080818B3514F081E480838889F901E80F7D
:10550000F11D8081803411F481E4808314FF21C077
:105510008F85FE01E80FF11DE80FF11D278D30A1E9
:105520008889F901E80FF11D808181508083888985
:10553000F901E80FF11D8081813414F48AE580833C
:105540008889F901E80FF11D80818E3311F48AE515
:10555000808315FF05C08889882311F08150888BCE
:1055600016FF05C08889823010F48F5F888B13FF87
:1055700038C08F85FE01E80FF11DE80FF11D078C83
:10558000F0A1E02D80818F3361F181818F3349F16A
:1055900082818F3331F17F01F70161917F018F8526
:1055A000960144E08402200D311D1124C90189595E
:1055B0009F4F0E94FF235FEFC51AD50A83E0C816EC
:1055C000D10451F78FEF8F8784E68A8B0AC08095CC
:1055D000812383FF06C08A89811103C082E0838F03
:1055E000148E898917FF4DC014FF4BC08F5F898BC4
:1055F000853108F454C08D3388F18D3309F04FC0E4
:10560000198A83E884BD8FEF87BD81EF8093800086
:105610001092880010928A0081E00E940F2467E6B1
:10562000CE0143960E947E236BE6CE0147960E94F0
:105630007E236FE6CE014B960E947E2383E70E9475
:105640006A239EA38DA385E70E946A2398A78FA350
:1056500087E70E946A239AA789A721C020E430E047
:10566000F901E81BF109CF01880F93E894BD9FEF82
:1056700097BD91EF909380001092880080938A00EC
:105680000EC0882361F083E884BD8FEF87BD81EF72
:10569000809380001092880010928A00198A8A896B
:1056A000882311F081508A8BDF91CF911F91FF9059
:1056B000EF90DF90CF9008952F923F924F925F929C
:1056C0006F927F928F929F92AF92BF92CF92DF9212
:1056D000EF92FF920F931F93CF93DF9300D000D0F0
:1056E000CDB7DEB78C015B01FC01108A118A84E61C
:1056F000828BFB01878590899C838B83312C832D42
:10570000880F8D580E946A232B813C812817390706
:105710004CF06BE6E62EF12C75E7C72ED12CE2E0BB
:105720002E2E2CC03394F3E03F12E9CF33243A9469
:1057300053C0C2010E942035682FC401840D951DFD
:105740000E94FF238FEF481A580A4614570489F71E
:105750001A821982BE016F5F7F4FC6010E94171F18
:10576000BE016F5F7F4FC60102960E94D8232A9424
:10577000E2E0CE1AD108F4E0EF1AF108321448F44E
:10578000370184E0680E711C270154E0852E912CAE
:10579000D0CFE32CF12C9701220F331F220F331FA0
:1057A0004901E7E68E0E911C6901FBE6CF0ED11C84
:1057B0006FE3C4010E94FF238FEF881A980A8C14AC
:1057C0009D04B1F7C701880F991FBE016D5F7F4F20
:1057D0008D589F4F0E94D823F801378683E884BDF7
:1057E0008FEF87BD81EF8093800010928800109228
:1057F0008A00F5011286118667E6C80143960E9469
:105800007E236BE6C80147960E947E236FE6C8019F
:105810004B960E947E2383E70E946A23F80196A399
:1058200085A385E70E946A23F80190A787A387E7ED
:105830000E946A23F80192A781A70F900F900F9002
:105840000F90DF91CF911F910F91FF90EF90DF901C
:10585000CF90BF90AF909F908F907F906F905F9010
:105860004F903F902F900895CF92DF92EF920F9339
:10587000CF93DF93EC016B0120E041E00E945217CF
:105880008889843658F40C89E02E25EC35E147EC04
:1058900056E16AE270E090E00E94EE21E12C00E027
:1058A00023EA35E143EB55E16CE170E088E690E0F6
:1058B0000E94EE21F601218D41EE54E166E270E096
:1058C00088E690E00E94DE21B601CE010E943817E2
:1058D0000B892FE14F85B601CE010E94EC16F6012F
:1058E000818DDF91CF910F91EF90DF90CF900C944D
:1058F000E31E2F923F924F925F926F927F928F9210
:105900009F92AF92BF92CF92DF92EF920F931F932D
:10591000CF93DF9300D000D0CDB7DEB79C838B83CD
:105920006B01812C912C8E5B9F4F5C01EB81FC8184
:10593000858D9401280F311D87FD3A95C901F60127
:10594000218DF501211121C02081222339F0EB8125
:10595000FC81268D378D8217930739F020E045E1D1
:1059600053E260E070E00E94DE21F501808188232F
:1059700061F120E043E152E260E070E0EB81FC8104
:10598000868D978D0E94DE2120C02081222339F050
:10599000EB81FC81268D378D8217930739F020E04B
:1059A00045E153E260E070E00E94CE21F501808184
:1059B000882359F020E043E152E260E070E0EB819F
:1059C000FC81868D978D0E94CE21F0E48F0E911C74
:1059D000811421E0920609F0A9CF812C912CEB8152
:1059E000FC8180A1E12C00E021ED31E241EF51E2A8
:1059F00064E170E0F401E80FF11D87FDFA95CF0135
:105A00000E94EE21F0E18F0E911C20EA8216910493
:105A100031F7F6011289EB81FC8197A029E73CE17F
:105A200047EC5CE160E070E089E590E00E94EE21E7
:105A3000992039F0812F65E00E949935082F10E0F8
:105A400016C061E0C6010E945B161CC020E8621609
:105A500071042CF441E0B401C3010E94E8223FEF3D
:105A6000831A930A8BE08816910481F71E5F101742
:105A700048F4612E712CFEE56F0E711C93E0892EA7
:105A8000912CE4CFEB81FC8180A5882331F06EE17D
:105A90000E949935182F117001C011E0F60181891B
:105AA000813021F088F0823091F028C0112361F01C
:105AB000E12C00E02BE931E245EB51E261E070E0DE
:105AC0008CE490E00E94EE21812C912C38C0E12CD6
:105AD00000E02BE931E245EB51E261E070E08CE45B
