:100000000C94CA0F0C94F20F0C94F20F0C94F20F94
:100010000C94F20F0C94F20F0C94F20F0C94F20F5C
:100020000C94F20F0C94F20F0C9492180C94041987
:100030000C94F20F0C94F20F0C94F20F0C94F20F3C
:100040000C94F20F0C94F20F0C94F20F0C94F20F2C
:100050000C94F20F0C94F20F0C94F20F0C94AD165A
:100060000C94F20F0C94F20F0C94F20F0C94F20F0C
:100070000C94F20F0C94F20F0C94F20F0C94F20FFC
:100080000C94F20F0C94F20F0C94F20F0C94F20FEC
:100090000C94F20F0C94F20F0C94F20F0C94F20FDC
:1000A0000C94F20F0C94F20F0C94F20F0C0500005C
:1000B000020800020800020800000C050000080207
:1000C00000080200080200000C05000400000A00FD
:1000D000000A0000040000071F1F1F1F1F1F1F1F13
:1000E0001C00001C1F1F1F1F1F1F1F1F0700001CBD
:1000F0001F1F1F1F1F1F1F1F0700100F0040A038CA
:10010000E4A45292665D39211EE000000007081049
:10011000202110182048582C4A310000100F384474
:10012000C47434B45A6282020408BC924A34000097
:10013000010608091E251622202010090600100FAE
:1001400000C6291A0D09028C04C2820488700000BE
:1001500000033C424E5D33242512130E02010000C1
:10016000100F0030C884020222B4523CC80830C0CC
:1001700000001629241E08102020232D1616171102
:10018000110E100FA05010E8D631610E3A0531CA99
:10019000040000000304080918684C467806083378
:1001A00044443800100F30C8A4C85050080808A8AC
:1001B000A6514949468003040408364B2D4C48405B
:1001C000211F04020201100F0E1111E608300F3139
:1001D000190B8CC80810E0000000102946502E387A
:1001E0004346350B04050200100FC02020107CC2CE
:1001F0008109191A69368890906000314949453261
:100200000A0808080505091209060040E0F8FCFC88
:10021000DE9EFEFFFFFFFEE0000000070F1F3F3FD6
:100220001F1F3F7F7F3F7B310000387CFCFCFCFCC4
:100230007E7EFEFEFCF8FCFE7E34000001070F0F00
:100240001E3F1F3F3F3F1F0F060000C6EFFEFFFF90
:10025000FEFCFCFEFEFCF870000000033F7F7F7F89
:100260003F3C3D1F1F0F030100000030F8FCFEFE65
:10027000FEFC7E3CF8F8F0C00000163F3F1F0F1F49
:100280003F3F3F3F1F1F1F1F1F0EA0F0F0E8FEFF64
:10029000FFFEFAFFFFCE0400000003070F0F1F7FD1
:1002A0007F7F7F070F3F7C7C380030F8BCF8F0F090
:1002B000F8F8F8F8FEDFCFCFC6800307070F377FC7
:1002C0003F7F7F7F3F1F07030301100F0E1F1FFE9D
:1002D000F8F0FFFFFFFFFCF8F8F0E0000000103935
:1002E0007F7F2F3F7F7F3F0B07070200C0E0E0F0DA
:1002F000FCFEFFFFFFFEFFF6F8F0F06000317979B9
:100300007D3F0F0F0F0F07070F1E0F0628160070F7
:100310008814021619613A84600000000000000091
:10032000000000000000000000807804020A22158E
:1003300062B24C000000000082453E008080113215
:100340002444C438A8A8282828282828283844C4A1
:1003500004040303000000392740601010E00C1271
:100360001312100F00000101020204090804030027
:100370000000000000001B242022130D01010101D8
:100380000101020202010070F8FCFEFEFFFFFEE424
:1003900060000000000000000000000000000000FD
:1003A0000080F8FCFEFEFEFFFEFE4C000000000098
:1003B00082C7FFFFFFFFFFFEFCFCFC38B8B83838EF
:1003C0003838383838387CFC9CDCDFFFFFFFFFFF13
:1003D000E7C0E0F0F0E00C1E1F1F1F0F000001013E
:1003E0000303070F0F0703000000000000001B3F7E
:1003F0003F3F1F0D010101010101030303013F33D1
:10040000F804FA0D05E5E5252525252525252525CD
:100410002525E52525252525252525E5252525250C
:100420002525252525252565E5E5E5E5252525253C
:1004300025252525252525E5E5E5050DFA04F8FF03
:1004400000FF0000FFFFFF000000000000FF1F1C76
:1004500018F8FF008040800000FFFFFF0080408010
:1004600000FFFFFF000000000083FFFF008040A0AE
:100470004000FFFF3F38F8FFFF0000FF00FFFF00D4
:10048000FF0000FFFFFF00A854AA5400FCF0F2F0A8
:10049000FFFF00AA55AA5500FFFFFF00AA55AA00BA
:1004A000FBFBF10040A4448E3FFFFF00AA55AA5574
:1004B00000FDFDE0E0FFFFFF0000FF00FFFF00FF89
:1004C0000000FFFFCFC0CAC5CAC5404F7F7F7F7FF6
:1004D0004FC0CAC54A45404FFFCF404AC5CAC04F6A
:1004E0007F7FE0454A454A40FFCFC04A454A45C064
:1004F000CFCFC7C0F0FFFF0000FF00FFFF00FF00ED
:1005000000FFFF9F2F37470F9FFF0000007F7F00F6
:1005100080C1FF03FC000001FFFF00C0030F3F008C
:1005200000FFFF000000FFFF030000FFFEF89F2F09
:1005300037470F9FFFFF0000FF00FFFF00FF800015
:100540003F3F3F3F3E3E3F3F2F2020202F3F3F3F3A
:100550002F202D3D2D2020202F202F3F3C302020EC
:100560003F2F2020202F3F3C30202F27333F3F3E7E
:100570003E3F3F3F3F0080FF00FF000102050505B1
:10058000050505050505050505050505050505051B
:10059000050505050505050505050505050505050B
:1005A00005050505050505050505050505050505FB
:1005B0000505050505050201003F33F804FA0D05A0
:1005C000E5E52525252525252525252525E525259B
:1005D000252525252525E52525252525252525250B
:1005E000252565E5E5E5E52525252525252525257B
:1005F0002525E5E5E5050DFA04F8FF00FF0000FFFD
:10060000FFFF000000000000FF1F1C18F8FF0000A3
:1006100000000000FFFFFF0000000000FFFFFF00E0
:100620000000000083FFFF000000000000FFFF3F0C
:1006300038F8FFFF0000FF00FFFF00FF0000FFFF92
:10064000FF00AA55AA5400FCF0F2F0FFFF00AA55E3
:10065000AA5400FFFFFF00AA55AA00FBFBF10450BB
:10066000A5548E3FFFFF00AA55AA5400FDFDE0E00F
:10067000FFFFFF0000FF00FFFF00FF0000FFFFCFB4
:10068000C0CAC5CAC5404F7F7F7F7F4FC0CAC54A19
:1006900045404FFFCF404AC5CAC04F7F7FE0454A23
:1006A000454A40FFCFC04A454A45C0CFCFC7C0F0FA
:1006B000FFFF0000FF00FFFF00FF0000FFFF9F2F74
:1006C00037470F9FFF0000007F7F0080C1FF03FCC2
:1006D000000001FFFF00C0030F3F0000FFFF00000C
:1006E00000FFFF030000FFFEF89F2F37470F9FFF1B
:1006F000FF0000FF00FFFF00FF80003F3F3F3F3E45
:100700003E3F3F2F2020202F3F3F3F2F202D3D2DCC
:100710002020202F202F3F3C3020203F2F20202042
:100720002F3F3C30202F27333F3F3E3E3F3F3F3F50
:100730000080FF00FF000102050505050505050510
:100740000505050505050505050505050505050559
:100750000505050505050505050505050505050549
:100760000505050505050505050505050505050539
:10077000050201003F33F804FA0D05E5E5252525BE
:100780002525252525252525E52525252525252559
:1007900025E5252525252525252525252565E5E589
:1007A000E5E52525252525252525252525E5E5E539
:1007B000050DFA04F8FF00FF0000FFFFFF00000036
:1007C000000000FF1F1C18F8FF000000000000FFE1
:1007D000FFFF0000000000FFFFFF0000000000839B
:1007E000FFFF008040800000FFFF3F38F8FFFF0060
:1007F00000FF00FFFF00FF0000FFFFFF00A054AA62
:100800005500FCF0F2F0FFFF00A050A85000FFFFE1
:10081000FF00A050A000FBFBF10040A4448E3FFF6E
:10082000FF00AA55AA5500FDFDE0E0FFFFFF000014
:10083000FF00FFFF00FF0000FFFFCFC0CAC5CAC511
:10084000404F7F7F7F7F4FC0CAC54A45404FFFCF93
:10085000404AC5CAC04F7F7FE0454A454A40FFCF66
:10086000C04A454A45C0CFCFC7C0F0FFFF0000FFD8
:1008700000FFFF00FF0000FFFF9F2F37470F9FFF84
:100880000000007F7F0080C1FF03FC000001FFFF2C
:1008900000C0030F3F0000FFFF000000FFFF030048
:1008A00000FFFEF89F2F37470F9FFFFF0000FF005C
:1008B000FFFF00FF80003F3F3F3F3E3E3F3F2F2076
:1008C00020202F3F3F3F2F202D3D2D2020202F2067
:1008D0002F3F3C3020203F2F2020202F3F3C302036
:1008E0002F27333F3F3E3E3F3F3F3F0080FF00FF0B
:1008F00000010205050505050505050505050505B4
:100900000505050505050505050505050505050597
:100910000505050505050505050505050505050587
:100920000505050505050505050505050201000385
:10093000081F051F1F151B1F11111F110E1F151159
:100940001F05011F111D1F041F001F0010101F1F76
:10095000041B1F10101F061F1F011F1F111F1F0543
:10096000071F311F1F051B17151D011F011F101F1A
:100970000F100F1F0C1F1B041B071C071915130C4E
:10098000121E1F120C1E12120C121F0C1A14041F1E
:10099000052E2A1E1F021C001D00201D001F041A08
:1009A000011F001E041E1E021E1E121E3E120C0CF3
:1009B000123E1E020614120A020F121E101E0E1004
:1009C0000E1E081E1A041A2E281E1A12161F111F98
:1009D000121F101D151711151F07041F17151D1FB6
:1009E000151D01011F1F151F17151F0017000010EF
:1009F00000040404040E040229060A000004083E50
:100A000009093E3F25251A1E2121123F21211E3FA3
:100A10002525213F0505011E21293A3F04043F21D8
:100A20003F21001021211F3F040A313F2020203F99
:100A300002023F3F02043F1E21211E3F0909061EFC
:100A400021112E3F09093622252519013F01011FD9
:100A500020201F0F10201F3F10103F3B04043B03BA
:100A6000043807312D2321102A2A3C3F2424181C46
:100A70002222141824243F1C2A2A2C043E05014C4F
:100A800052523E3F040438243D20004040443D3F44
:100A9000081422213F20003E04043E3E04023C1C78
:100AA00022221C7E22221C1C22227E3E04020424BE
:100AB0002A2A12021F22201E20201E0E10201E3E57
:100AC00010103E360808364E50503E322A26221E5E
:100AD00029251E223F2000322929261221251A0C01
:100AE0000A3F08172525191E252518013905031A5F
:100AF00025251A0629291E002F00000020000002CB
:100B00002905020004040000C0C0C0C0C0C08000AD
:100B100000FFFFFFFFFFFFFFFF00FFFFFFFFFFFFE3
:100B2000FFFF000707070707070100091F000080F4
:100B30008080808000000000FF00FE02F409F200C7
:100B400000FF0AFB8AAACA7B00000302020203001C
:100B5000000B0400010200000000000201000B0471
:100B600008080000000300000008080000000080E2
:100B7000C0E0E0E0E0E0E0E0E0E0E0E0E0FCFEFF3C
:100B8000FFFFFEFCC080000000000000FEFFFFFF32
:100B9000FFFFFFFFFFFFFFFFFFFFFFFFFFFFFFFF65
:100BA000FFFFFFFFFFFFFCF8000000FFFFFFFFFF5C
:100BB000FFFFFFFFFFFFFFFFFFFFFFFFFFFFFFFF45
:100BC000FFFFFFFFFFFFFF00060F0F1F1F1F3F7FED
:100BD0007F7F7F3F1F1F1F1F1F1F1F1F3F7F7F7FA5
:100BE0007F3F1F1F1F0F071F1F000000008040A036
:100BF000A0A0A0A0A0A0A0A0A0A0A0BC828581BD14
:100C0000823C4080000000000000FE01FC85FD01E8
:100C1000FF03FDBDDDEDBD9D85FD03FF0305BDDDCE
:100C2000AD3C380304F8000000FF0082B24ABBBBB1
:100C3000BBBA7AFACACE8686CECBFB7BBABABAB238
:100C40006AE2EA00FF0006090A16111623414C4425
:100C50004123161113131313111623414C4441233E
:100C60001611170807FFFFFFFFFFFFFFFFFFFFFF42
:100C7000C0C0C0808000FFFFFFFFFFFFFFFFFFFF3E
:100C8000FFFFFFFFFFFFFFFFFFFFFFFFFFFFFFFF74
:100C9000FFFFE3E3C7C7C381FFFFFFFFFFFFFFFFC6
:100CA000FFFFFFFFFFFFFFFF7FFFFFFFFFFFFFFFD4
:100CB000FFFFFFFFE1E1E1E1E0C0FFFFFFFFFFFF1A
:100CC000FFFFFFFFFFFFFFFFFF7F3FFFFFFFFFFF74
:100CD000FFFFFFFFFFFF010100000000FFFFFFFF1C
:100CE000FFFFFF7F3F1F070000000000001140755D
:100CF0006DEAEAD710DFDF4080BF404040808000CF
:100D00001F1F1E3E3E3E3D3D397A7B787BF7F60045
:100D1000FFEAE8D5D4D6109EBEA2A2BE22A24444C9
:100D200042813D3D3D3D3D3C3D3D3D393B383B3BBA
:100D30003B807FAAA8AAA8AE20BEBCA1A1BF21A1CA
:100D4000A1A120C0F7F7F7F7F7787B7B3A3A3B3C55
:100D50003D9D9D403FF1E8F4F8F4FAF4FA0101FFFB
:100D6000010100000000FFFFFFFF7F3F8F472010C1
:100D700007000000000000800DFFFFFFFFFFFFFFE6
:100D8000FFFFFFFFFFFFFFFFFFFFFFFFFFFFFFFF73
:100D9000FFFFFFFFFFFFFFFFFFFFFFFFFFFFFFFF63
:100DA000FFFFFFFFFFFFFFFFFFFFFFFFFFFFFFFF53
:100DB000FFFFFFFFFFFFFFFFFFFFFFFFFFFFFFFF43
:100DC000FFFFFFFFFFFFFFFFFFFFFFFFFFFFFFFF33
:100DD000FFFFFFFFFFFFFFFFFFFFFFFFFFFFFFFF23
:100DE000FFFFFFFFFFFFFFFFFFFFFFFFFFFFFFFF13
:100DF000FFFFFFFFFFFFFFFFFF1F1F1F1F1F1F1F23
:100E00001F1F1F1F1F1F1F1F1F1F1F1F1F1F1F1FF2
:100E10001F1F1F1F1F1F1F1F1F1F1F1F1F1F1F1FE2
:100E20001F1F1F1F1F1F1F1F1F1F1F1F1F1F1F1FD2
:100E30001F1F1F1F1F1F1F1F1F1F1F1F1F1F1F1FC2
:100E40001F1F1F1F1F1F1F1F1F1F1F1F1F1F1F1FB2
:100E50001F1F1F1F1F1F1F1F1F1F1F1F1F1F1F1FA2
:100E60001F1F1F1F1F1F1F1F1F1F1F1F1F1F1F1F92
:100E70001F1F1F1F1F1F1F1F1F800DFEBEBEBEBED8
:100E8000BEBEBABABA3A3ABABA9A8AAAA2B2B2BA42
:100E9000B8B8BABABEBEBEBEBEBEBEBEBEBEBEBE86
:100EA000BEBEBEBEBEBEBABABABA3A1A8AA2B0B8FE
:100EB000BABABEBEBEBEBEBEBEBEBEBEBEBEBEBE5A
:100EC000BEBEBEBEBEBEBEBEBEBABAB8A0021ABAD2
:100ED000BABABABABEBEBEBEBEBEBEBEBEBEBEBE42
:100EE000BEBEBEBEBEBEBEBEBABABABAB8B8B8B052
:100EF000A2820A1A3ABABABABABABA1F1F071713A5
:100F00001B191D1C1E1F1F1F1F1F1F1F1F1F1F1F01
:100F10001F1F1F1F1F1F1F1F1F1F1F1F1F1F1F1FE1
:100F20001F1F1F1F1F1F1F07111C1E1F1F1F1F1FFB
:100F30001F1F1F1F1F1F1F1F1F1F1F1F1F1F1F1FC1
:100F40001F1F1F1F1F1F1F1F1F1F1F1F1F1F1C10C3
:100F5000030F1F1F1F1F1F1F1F1F1F1F1F1F1F1FCD
:100F60001F1F1F1F1F1F1F1F1F1F1F1F1F1F1F1F91
:100F70001F1F1F1E181001030F1F1FF8FFFFFEFC8D
:100F8000FCFCFCF8FFFFFEFCFCFCFCF8FFFFFEFC99
:100F9000FCFCFCF8FFFFFEFCFCFCFCF8FFFFFEFC89
:100FA000FCFCFCF8FFFFFEFCFCFCFCF8FFFFFEFC79
:100FB000FCFCFCF8FFFFFEFCFCFCFCF8FFFFFEFC69
:100FC000FCFCFCF8FFFFFEFCFCFCFCF8FFFFFEFC59
:100FD000FCFCFCF8FFFFFEFCFCFCFCF8FFFFFEFC49
:100FE000FCFCFCF8FFFFFEFCFCFCFCF8FFFFFEFC39
:100FF000FCFCFCF8FFFFFEFCFCFCFC03030303030A
:1010000003030303030303030303030303030303B0
:1010100003030303030303030303030303030303A0
:101020000303030303030303030303030303030390
:101030000303030303030303030303030303030380
:101040000303030303030303030303030303030370
:101050000303030303030303030303030303030360
:101060000303030303030303030303030303030350
:101070000303030303030303030303800A2807098D
:101080002214240804280709221424080428070924
:101090002214240804280709221424080428070914
:1010A0002214240804280709221424080428070904
:1010B00022142408042807092214240804280709F4
:1010C00022142408042807092214240804280709E4
:1010D00022142408042807092214240804280709D4
:1010E00022142408042807092214240804280709C4
:1010F00022142408042807092214240804010102E8
:1011000001010101010101020101010101010102CD
:1011100001010101010101020101010101010102BD
:1011200001010101010101020101010101010102AD
:10113000010101010101010201010101010101029D
:10114000010101010101010201010101010101028D
:10115000010101010101010201010101010101027D
:10116000010101010101010201010101010101026D
:10117000010101010101010201010101010101025D
:101180000203030302020101C800BA00AC00EE0032
:10119000E200D600E801C601A401820160013E011F
:1011A0001C01FA00EC02CA02AA028A026A024A027E
:1011B0002A020A020C0386030000000080C0E0E05F
:1011C000E0E0E0E0E0E0E0E0E0E0FCFEFFFFFFFE6A
:1011D000FCC080000000000000FEFFFFFFFFFFFFDB
:1011E000FFFFFFFFFFFFFFFFFFFFFFFFFFFFFFFF0F
:1011F000FFFFFFFCF8000000FFFFFFFFFFFFFFFF06
:10120000FFFFFFFFFFFFFFFFFFFFFFFFFFFFFFFFEE
:10121000FFFFFFFF00060F0F1F1F1F3F7F7F7F7F16
:101220003F1F1F1F1F1F1F1F1F3F7F7F7F7F3F1FEE
:101230001F1F0F071F1F000000008040A0A0A0A0DC
:10124000A0A0A0A0A0A0A0A0BC828581BD823C409F
:1012500080000000000000FE01FC85FD01FF03FD91
:10126000BDDDEDBD9D85FD03FF0305BDDDAD3C3856
:101270000304F8000000FF0082B24ABBBBBBBA7A8D
:10128000FACACE8686CECBFB7BBABABAB26AE2EA9B
:1012900000FF0006090A16111623414C444123168B
:1012A0001113131313111623414C44412316111724
:1012B000080704087EFF817E82FEFF80C6A19FCEC4
:1012C0006689FF7638ACFFB06F89F9707EFF85784C
:1012D00083F1FD83768D99761EBFA17E18BCFEFF3B
:1012E000FFFEFCFEFFFFFEBC1803070F1F1F0F07CA
:1012F0000F1F1F0F07030D0D18A4422151EAF4E23E
:10130000418142A418030408101008050A111008AE
:10131000040300FCFEFFFFFFFFFFFFFFFFFFFFFFD7
:10132000FFFFFFFFFFFFFFFFFFFFFFFFFFFFFFFFCD
:10133000FFFFFFFFFFFFFFFFFFFFFFFFFFFFFEFCC1
:1013400000103F7FFFFFFFFFFFFFFFFFFFFFFFFFDB
:10135000FFFFFFFFFFFFFFFFFFFFFFFFFFFFFFFF9D
:10136000FFFFFFFFFFFFFFFFFFFFFFFFFF7F3F10BC
:101370002F1000FC02010101010101010101010125
:10138000010101010101010101010101010101014D
:10139000010101010101010101010101010102FC41
:1013A00000102F50A0A0A0A0A0A0A0A0A0A0A0A02E
:1013B000A0A0A0A0A0A0A0A0A0A0A0A0A0A0A0A02D
:1013C000A0A0A0A0A0A0A0A0A0A0A0A0A0502F106E
:1013D000FFFFFFFFFFFFFFFFFFFFFFC0C0C08080D8
:1013E00000FFFFFFFFFFFFFFFFFFFFFFFFFFFFFF0C
:1013F000FFFFFFFFFFFFFFFFFFFFFFFFFFE3E3C76D
:10140000C7C381FFFFFFFFFFFFFFFFFFFFFFFFFFDE
:10141000FFFFFF7FFFFFFFFFFFFFFFFFFFFFFFE17A
:10142000E1E1E1E0C0FFFFFFFFFFFFFFFFFFFFFF84
:10143000FFFFFFFF7F3FFFFFFFFFFFFFFFFFFFFFFC
:10144000FF010100000000FFFFFFFFFFFFFF7F3FE4
:101450001F070000000000001140756DEAEAD71078
:10146000DFDF4080BF4040408080001F1F1E3E3EA7
:101470003E3D3D397A7B787BF7F600FFEAE8D5D42C
:10148000D6109EBEA2A2BE22A2444442813D3D3D52
:101490003D3D3C3D3D3D393B383B3B3B807FAAA831
:1014A000AAA8AE20BEBCA1A1BF21A1A1A120C0F7C6
:1014B000F7F7F7F7787B7B3A3A3B3C3D9D9D403F01
:1014C000F1E8F4F8F4FAF4FA0101FF010100000078
:1014D00000FFFFFFFF7F3F8F472010070000000045
:1014E0000000800DFFFFFFFFFFFFFFFFFFFFFFFF7B
:1014F000FFFFFFFFFFFFFFFFFFFFFFFFFFFFFFFFFC
:10150000FFFFFFFFFFFFFFFFFFFFFFFFFFFFFFFFEB
:10151000FFFFFFFFFFFFFFFFFFFFFFFFFFFFFFFFDB
:10152000FFFFFFFFFFFFFFFFFFFFFFFFFFFFFFFFCB
:10153000FFFFFFFFFFFFFFFFFFFFFFFFFFFFFFFFBB
:10154000FFFFFFFFFFFFFFFFFFFFFFFFFFFFFFFFAB
:10155000FFFFFFFFFFFFFFFFFFFFFFFFFFFFFFFF9B
:10156000FFFFFFFF1F1F1F1F1F1F1F1F1F1F1F1F0B
:101570001F1F1F1F1F1F1F1F1F1F1F1F1F1F1F1F7B
:101580001F1F1F1F1F1F1F1F1F1F1F1F1F1F1F1F6B
:101590001F1F1F1F1F1F1F1F1F1F1F1F1F1F1F1F5B
:1015A0001F1F1F1F1F1F1F1F1F1F1F1F1F1F1F1F4B
:1015B0001F1F1F1F1F1F1F1F1F1F1F1F1F1F1F1F3B
:1015C0001F1F1F1F1F1F1F1F1F1F1F1F1F1F1F1F2B
:1015D0001F1F1F1F1F1F1F1F1F1F1F1F1F1F1F1F1B
:1015E0001F1F1F1F800DFEBEBEBEBEBEBEBABABA52
:1015F0003A3ABABA9A8AAAA2B2B2BAB8B8BABABED3
:10160000BEBEBEBEBEBEBEBEBEBEBEBEBEBEBEBEFA
:10161000BEBABABABA3A1A8AA2B0B8BABABEBEBE8E
:10162000BEBEBEBEBEBEBEBEBEBEBEBEBEBEBEBEDA
:10163000BEBEBEBEBABAB8A0021ABABABABABABE6A
:10164000BEBEBEBEBEBEBEBEBEBEBEBEBEBEBEBEBA
:10165000BEBEBEBABABABAB8B8B8B0A2820A1A3A0E
:10166000BABABABABABA1F1F0717131B191D1C1E24
:101670001F1F1F1F1F1F1F1F1F1F1F1F1F1F1F1F7A
:101680001F1F1F1F1F1F1F1F1F1F1F1F1F1F1F1F6A
:101690001F1F07111C1E1F1F1F1F1F1F1F1F1F1F84
:1016A0001F1F1F1F1F1F1F1F1F1F1F1F1F1F1F1F4A
:1016B0001F1F1F1F1F1F1F1F1F1C10030F1F1F1F78
:1016C0001F1F1F1F1F1F1F1F1F1F1F1F1F1F1F1F2A
:1016D0001F1F1F1F1F1F1F1F1F1F1F1F1F1F1E1822
:1016E0001001030F1F1FF8FFFFFEFCFCFCFCF8FFBE
:1016F000FFFEFCFCFCFCF8FFFFFEFCFCFCFCF8FF22
:10170000FFFEFCFCFCFCF8FFFFFEFCFCFCFCF8FF11
:10171000FFFEFCFCFCFCF8FFFFFEFCFCFCFCF8FF01
:10172000FFFEFCFCFCFCF8FFFFFEFCFCFCFCF8FFF1
:10173000FFFEFCFCFCFCF8FFFFFEFCFCFCFCF8FFE1
:10174000FFFEFCFCFCFCF8FFFFFEFCFCFCFCF8FFD1
:10175000FFFEFCFCFCFCF8FFFFFEFCFCFCFCF8FFC1
:10176000FFFEFCFCFCFC030303030303030303036E
:101770000303030303030303030303030303030339
:101780000303030303030303030303030303030329
:101790000303030303030303030303030303030319
:1017A0000303030303030303030303030303030309
:1017B00003030303030303030303030303030303F9
:1017C00003030303030303030303030303030303E9
:1017D00003030303030303030303030303030303D9
:1017E000030303030303800A2807092214240804BF
:1017F00028070922142408042807092214240804AD
:10180000280709221424080428070922142408049C
:10181000280709221424080428070922142408048C
:10182000280709221424080428070922142408047C
:10183000280709221424080428070922142408046C
:10184000280709221424080428070922142408045C
:10185000280709221424080428070922142408044C
:1018600028070922142408040101020101010101D1
:101870000101020101010101010102010101010156
:101880000101020101010101010102010101010146
:101890000101020101010101010102010101010136
:1018A0000101020101010101010102010101010126
:1018B0000101020101010101010102010101010116
:1018C0000101020101010101010102010101010106
:1018D00001010201010101010101020101010101F6
:1018E000010102010101010120079D733A1DD9B2D6
:1018F00073979C4DB9ED5A7139D739272773CE713B
:101900003999DD3A32E59CEB5CCD050D0F929DAB2C
:1019100064E72AD9B94A76AE929DAB64E72A598C1E
:10192000D145175D74D1450A4D079DAB9DB2B139C4
:101930005749272B2EE76AD791652F5793652F5765
:10194000E3CAB9DA291B9B734EA723536EBB565CBF
:101950006B25959B7ED9B94B4EE66476EB709476F9
:10196000CEB9BC72DBB5E272AE76CAC6E65CED3AC1
:10197000070D0FD5E594BC9C929753F2724A5E4EC8
:10198000C9CB2979E5955452492595545249259555
:101990005452492515192307524E2AA9A453B89524
:1019A0004ED9D099554E92659593540F08C1F7C101
:1019B000FFC1D5FFC1DFFFC1F5FBFFD1F8FCFCFC87
:1019C000FC78F8FCFCFCFCFCF8F8FCFCFCFCFCB82B
:1019D000F8FCFCFCFCF8F8FCFCFCFCD8F8FCFEFF76
:1019E000FFFFFFFFFFFEFCF80103030100000103FE
:1019F00003010103030103030303030103030303BF
:101A000001000303030301000103070F0F0F0F0F72
:101A10000F0703012C0CF80404B48448F80404D420
:101A20001404C8F80404D49464B84884941424F8C2
:101A30004884941424D8F8040201F14949F10102C0
:101A400004F8010202010000010202010102020188
:101A5000020202020201020202020100020202026A
:101A600001000102040809080809080402017407BA
:101A7000B905FE038040756DEAEAD710DFDF4080CC
:101A8000BF7F7F7FFFFFFFFFFFFFFFFFFFFFFFFF26
:101A9000FFFFFFFFFFFFFFFF0FF71B0B0B0B0B0BF6
:101AA0000B0B0B0B0B0B0B0B0B0B0B0B0B0B0B0B86
:101AB0000B0B0B0B0B0B0B0B0B0B0B0B0B0B0B0B76
:101AC0000B0B0B0B0B0B0B0B0B0B0B0B0B0B0B0B66
:101AD0000B0B1BF70FFFFFFFFFFFFFFFFFFFFFFFDA
:101AE000FFFFFFFFFFFF1FDFDFDF0FEFEF08A8EFB4
:101AF000E804757575751F1F1E3E3E3E3D3D39FA63
:101B00007B787BF7F600FFFFFFFFFFFFFFFFFFFF84
:101B1000FFFFFFFFFFFFFFFF00FF000000000000CE
:101B200000000000000000000000000000000000B5
:101B300000000000000000000000000000000000A5
:101B40000000000000000000000000000000000095
:101B5000000000FF00FFFFFFFFFFFFFFFFFFFFFF91
:101B6000FFFFFFFFFFFFC0BDBDBDBCBEBE3E3E1EB2
:101B70001E1F9F1F9F1FFAC8CDC476341606010092
:101B8000E038B060677EFFFFFFFFFFFFFFFFFFFF52
:101B9000FFFFFFFFFFFFFFFF00FF0000000000004E
:101BA0000000000000000000000000000000000035
:101BB0000000000000000000000000000000000025
:101BC0000000000000000000000000000000000015
:101BD000000000FF00FFFFFFFFFFFFFFFFFFFFFF11
:101BE000FFFFFFFFFFFFFFFFFFFFFFFFFF8081FE03
:101BF00040405E5356573D3D3D3D3C3C3C3C3D38AE
:101C00003A393B3B3B80FF7F9F3F7F7FBF7FFF7F1A
:101C10009F3F7F7FBF7FFFFF00FF000000000000AD
:101C200000000000000000000000000000000000B4
:101C300000000000000000000000000000000000A4
:101C40000000000000000000000000000000000094
:101C5000000000FF00FFFF7F9F3F7F7FBF7FFF7F70
:101C60009F3F7F7FBFFF01DDDDDDC0DEDEC0D2DE56
:101C7000C0D1DFDFDFDFAAA8AAA8AE20BEBCA1A129
:101C8000BF32B1B2B030D2D0E0D2D1D2D0D0D2D0E7
:101C9000E0D2D1D2D0D0D2FF00FF0000000000007F
:101CA0000000000000000000000000000000000034
:101CB0000000000000000000000000000000000024
:101CC0000000000000000000000000000000000014
:101CD000000000FF00FFD2D0E0D2D1D2D0D0D2D0CD
:101CE000E0D2D1D2D0D3D4D5E5D5D5D5FD0101E907
:101CF0000101E9316971F7F7F7F7F7787B7B3A3A39
:101D00003B3C3D9D9DC0FFFFFFFFFFFFFFFFFFFF2F
:101D1000FFFFFFFFFFFFFFFF00FF000000000000CC
:101D200000000000000000000000000000000000B3
:101D300000000000000000000000000000000000A3
:101D40000000000000000000000000000000000093
:101D5000000000FF00FFFFFFFFFFFFFFFFFFFFFF8F
:101D6000FFFFFFFFFFFF077777770777770494F789
:101D7000F404F5F5F5F5F1E8F4F8F4FAF4FA0101F4
:101D8000FFD7D7D7D75757179797D7C7C7D7D7F7FB
:101D9000F7F7F7F7F7F7F7F7F6F5FBFAFAFAFAFAC3
:101DA000FADADADADADADA5A1A8ACADADAFAFAFAB3
:101DB000FAFAFAFAFAFAFAFAFAFAFAFAFAFAFAFA83
:101DC000FAFAFAFADADACA0A1ADADADADADADAFA73
:101DD000FAFAFBF5F6F7F7F7F7F7F7F7F7F7F7F78C
:101DE000F7F7F7D7D7DFD0D7D7EFAF2FEF0F1E9E7C
:101DF0001E9E1E3E3E3EFFFFFFFF7F3F8FC7E0F06F
:101E0000FDFBFDFDFCFCFDFDFDFDFDFDFDFDFDFD06
:101E1000FDFDFDFDFDFDFDFDFDFDFDFDFDFDFDFDF2
:101E2000FDFD3D8DE5F1F8FCFDFDFDFDFDFDFDFD3C
:101E3000FDFDFDFDFDFDFDFDFDFDFDFDFDFDFDFDD2
:101E4000FDFDFDFDFDFDFDFDF8E0851D7DFDFDFDBC
:101E5000FDFDFDFDFDFDFDFDFDFDFDFDFDFDFDFDB2
:101E6000FDFDFDFDFDFDE5E5C5C5C5858780000ED1
:101E70000D0E0D1E1D1AD5F08D14A1C881CFD9F1FC
:101E8000AF2000080B00020202010009040000015B
:101E900002020000052400100105240101010424B0
:101EA000020605240600010705810310004009040D
:101EB0000100020A000000070502024000000705B9
:101EC00083024000000403090412010002EF020132
:101ED00040412336800001010203014172647569AB
:101EE0006E6F204C4C430041726475696E6F204CDC
:101EF000656F6E6172646F001201130014001501AA
:101F0000160217041807190B1A101B171C1E1D2583
:101F10001E201F1B20162111220C23082405250337
:101F200026022701280129012A012B022C032D0555
:101F30002E082F0C30113116321B33213425352158
:101F4000361E371A381639123A0E3B0B3C093D083B
:101F50003E073F07400741084209430B440E451224
:101F60004616471A481E49214A254B224C1F4D1C34
:101F70004E1A4F18511653155514571459145B1413
:101F80005D155F166118621A631C641F6522662561
:101F90003E22AE1F11241FBECFEFDAE0DEBFCDBF61
:101FA00011E0A0E0B1E0E4EEFAE402C005900D9289
:101FB000A03BB107D9F726E0A0EBB1E001C01D922C
:101FC000AC39B207E1F71FE0C9ECDFE004C02197AC
:101FD000FE010E943924C83CD107C9F70E94B21FF4
:101FE0000C9465250C9400002F923F924F925F92C3
:101FF0006F927F928F929F92AF92BF92CF92DF9219
:10200000EF92FF920F931F93CF93DF9300D000D0F6
:1020100000D0CDB7DEB7CD82FC01E00FF11D1E165A
:102020001F060CF0F5C0803891050CF0F1C0DB0103
:10203000AE0DB11D1A161B060CF0EAC06034710516
:102040000CF0E6C04115510509F4E2C0A62FA770B7
:102050007A2EDB0177FD179613E0B595A7951A95B3
:10206000E1F7FA2E77FF05C0772019F0FF24FA94E4
:10207000FA0E97FF05C0AA27BB27A81BB90B02C001
:10208000A0E0B0E0E038F10524F060E8962E981A60
:1020900001C0902E9A1A6F2D0F2C000C770BEFEFCA
:1020A000FE161CF4E62FE09501C0E0E011E0FE2DE5
:1020B000F77009F410E0E694E694E694E10E6E0DF4
:1020C000711D693071051CF068E0E62EEF188E2E48
:1020D0008F0C682D70E86703800D911D11248A0F05
:1020E0009B1F61E070E0072C02C0660F771F0A9407
:1020F000E2F7FD81F33019F0BB24B39402C0F2E0A3
:10210000BF2EA02EA918AB9CA02C1124CB2CD12C17
:102110000E9FA00DB11D1124AC9DF001AD9DF00DE1
:10212000BC9DF00D11248A010E0F1F1F21153105D2
:1021300009F0A901960121503109E20FF31F4E0F5A
:102140005F1FEFEFE69F9001E79F300D11242901FB
:10215000409450948D539E4FEF0CEE822A2D30E028
:10216000B99C200D311D1124AE818A1609F450C08E
:10217000DC015A017801612C961409F441C0F70181
:102180003490369EF001379EF00D1124FC83EB83D2
:10219000E095F095FA83E983FD81F23019F45A82D3
:1021A000498211C0ED81EB3F19F41C821B820BC0E8
:1021B000F5013490369EF001379EF00D1124E09524
:1021C000F095FA83E98387FC06C0F981EC91EF234F
:1021D000FB81EF2BEC93772061F0F6E0F8154CF0E3
:1021E000FD01E058FF4F20803A8032202C803228B9
:1021F0003082AC0CBD1CEC0CFD1C63941196BCCF62
:102200008394020F131F420F531F80589F4FACCF70
:1022100026960FB6F894DEBF0FBECDBFDF91CF91EB
:102220001F910F91FF90EF90DF90CF90BF90AF90F4
:102230009F908F907F906F905F904F903F902F90E6
:1022400008950895CF93DF93FC01EB01988589856C
:102250008095892394FF14C09689903118F49F5F6C
:10226000968B0FC0F89487E780930008809301084D
:10227000A89588E18093600088E080936000FFCF9C
:10228000168A83FF02C082E08B8B8E819F816FE074
:1022900070E00E942524892B39F487898F5F833071
:1022A00011F0878B01C0178A8E819F8160E570E0F5
:1022B0000E942524892B21F4918D81E08927818F2B
:1022C000808D883C10F48F5F808FDF91CF910895CF
:1022D0000895FC01DB0119968C9119978095189649
:1022E0009C911897892399F08281882311F08CE7BB
:1022F0008283928191110EC081E0828380E4809379
:10230000900081E49FE090939900809398009281DF
:102310009923B1F09F5F9283953059F09D3761F01A
:10232000923071F480E596E4909399008093980040
:10233000089510929000089581E053968C9308952B
:102340000895CF92DF92EF92FF920F931F93CF9356
:10235000DF93EC019B01FB0110858681978165E08D
:1023600070E00E942524892B59F0F901868197811C
:102370006FE070E00E942524892B09F478C082C0A8
:102380004FADDE01BE01645C7F4FF2E3FF2E02E041
:10239000E02E4C5E50E001E017968C911797882351
:1023A00009F45FC013968C911397863649F4F901AE
:1023B000C684D784FFEFCF1ADF0AF901D786C68615
:1023C00014969C911497953261F4885F90E0841B79
:1023D000950B97FF03C09195819591098B3008F07B
:1023E000A8C015968C9115978F5F8C3421F01596A7
:1023F0008C93159703C015961C92159718968C917F
:1024000018978130E9F038F08D3340F58F5F1896DA
:102410008C93189726C015968C91159790E0880F8D
:10242000991FFC01E850F14EE4911396EC93139739
:10243000FC01E750F14EE4911496EC93149711C00F
:1024400013968C9113978F5F13968C931397149612
:10245000FC9214971896EC92189703C017961C924A
:10246000179716966A177B0709F096CF7ECFFE0165
:10247000AE01445C5F4F8781811107C03696E41737
:10248000F507C9F715FF12C008C086818F5F883035
:1024900011F08683F3CF1682F1CFFE01FF96818182
:1024A000811104C08FAD833108F0128216FF09C07C
:1024B000FE01FF968181811104C08FAD8C3308F439
:1024C0003CC0F901868180FD3BC0DE01DF9612969B
:1024D0008C911297882319F08130C9F031C08FADEB
:1024E0001196EC91119791E09E0F11969C93119784
:1024F000F0E0E358FE4EE4918E1B8FAF9B3001F568
:1025000011961C92119782E012968C9319C09FAD80
:102510001196EC91119781E08E0F11968C93119783
:10252000F0E0E358FE4EE491E90FEFAF8B3041F459
:10253000E7CF18960C93189754CF81E08283C1CFD0
:10254000DF91CF911F910F91FF90EF90DF90CF908F
:102550000895DC0181E017968C93179715961C92CD
:102560001597E8EFFEE1E4911396EC931397E9EFEA
:10257000FEE1E4911496EC930895FC01DB011996B9
:102580009C911997909518968C9118979823169668
:102590002D913C91179720FD2BC084818D3860F4DC
:1025A0008B35E8F48C3388F48281815082831696CF
:1025B0002D913C91179709C08F3BB0F08F3BA9F448
:1025C00083E053968C93539710C027703327232BA7
:1025D00061F481E02581211180E0858306C082E0DD
:1025E000858381E0838301C0138284818F5F84832C
:1025F00093FF03C083E053968C930895FC011482EB
:102600000895CF92EF920F931F93CF93DF93FC0126
:102610006A3039F48581848396818185890F868328
:102620009DC0A4816E3719F4AE5FA48397C0962F26
:10263000EF0166816F5F9A3380F4903310F59B321F
:1026400019F118F4913221F156C09D3209F459C0A4
:102650009E3209F050C01FE31CC09B3548F49134F2
:1026600070F49A3399F09F3309F045C012E411C019
:102670008FE9890F8A3108F03EC019EB03C01FEBC8
:1026800001C014E0190F05C011E403C013E401C038
:102690001EE38F81062E000C770B0A2E000CBB0B5D
:1026A0008130A1F5EFE2F9E00491E0E3F9E0E49094
:1026B000112349F121E030E08E2D877011F420E0E4
:1026C00030E08E2D869586958695280F311D029FC8
:1026D000F001039FF00D11249F011203A001139F2D
:1026E000500D11244F5C564F9AEFC92E20E030E078
:1026F000CD010E94F40F88858D5F9C81890F8C83AA
:102700002DC010E4C6CF41E359E0EECFEFE2F9E08F
:102710000491E0E3F9E0E4901123D9F021E030E006
:102720008E2D877011F420E030E08E2D86958695F1
:102730008695280F311D029FF001039FF00D112493
:102740009F011203A001139F500D11244F5C564F9F
:1027500002C041E359E08BEFC82EC8CF81E090E082
:10276000DF91CF911F910F91EF90CF900895089531
:1027700080E090E008950895EF920F931F933AEF51
:10278000E32E00E010E00E94021C1F910F91EF90D9
:102790000895EF920F931F93CF93DF93FC016A305C
:1027A00039F48581848396818185890F868349C028
:1027B00084816E3719F48D5F848343C0262FEF0127
:1027C00066816F5F2A3348F42033C0F42D32C1F0A4
:1027D0002E3281F0213221F515C02B3528F4213419
:1027E00058F42F3319F11CC09FE9920F9A31C0F4AD
:1027F000275409C02FE307C0215405C02C5F03C034
:1028000021E401C02EE33F81062E000C770B082E39
:10281000000C990B313061F44DEF59E00E94BC136C
:1028200088858C5F9C81890F8C830BC020E4EBCF63
:102830003BEFE32E00E010E04DEF59E00E94021C58
:10284000EFCF81E090E0DF91CF911F910F91EF905A
:102850000895CF92EF920F931F93CF93DF93EC01E4
:10286000E4E7FAE10491E5E7FAE1E49092E0C92EA9
:1028700020E030E046E75AE160E070E080E090E080
:102880000E94F40FEF89F0E0EE0FFF1FE259F54EC2
:102890004591549120E061E070E081E290E00E9477
:1028A000BC13888D883C51F42CEB39E144E15AE1AA
:1028B00064E370E08BE290E00E94251E898D8823FE
:1028C00069F082E0E82E00E010E020E04BEA59E1F8
:1028D00060E170E082E190E00E94021CDF91CF9104
:1028E0001F910F91EF90CF900895CF93DF93EC015C
:1028F0002BE73FE04BE750E16CE170E080E090E0D7
:102900000E94251E27E73DE049E75EE063E370E0B3
:1029100080E090E00E94251E25E63CE04DEE5CE064
:1029200060E070E080E090E00E94251E8A812BE646
:102930003BE047EE5BE06FE170E090E00E94251E17
:102940002BE73FE04BE750E16BE370E080E090E085
:102950000E94251E8D81882341F0813081F48A8177
:1029600090E020E041E55BE005C08A8190E020E056
:102970004EE55BE06CE170E040960E94BC138B81F9
:10298000882369F08A8190E027E03BE04BE25BE03E
:102990006EE170E00897DF91CF910C94251EDF91D6
:1029A000CF910895CF93DF93EC0146E959E161E1BE
:1029B00070E08FE290E00E94321E41E759E16AE147
:1029C00070E08BE290E00E94321E41E759E16AE13B
:1029D00070E089E490E00E94321E8A81811112C069
:1029E00041E759E16AE170E08AE390E00E94321E1B
:1029F00048E259E16EE270E08AE190E0DF91CF9128
:102A00000C94321E4BE059E16AE170E08AE390E0F9
:102A10000E94321E48EE58E16EE270E08CE290E0D7
:102A20000E94321E8A816FE00E941924837020E088
:102A300060E1E1E3F0E08217B9F0922F990F915B2A
:102A4000AF0131E041FD34E040FD330F42FD3295EE
:102A5000487F649FD0011124A90FAD53BE4F9C91B4
:102A6000392B3C932F5FE7CFDF91CF910895BF9231
:102A7000CF92DF92EF92FF920F931F93CF93DF934A
:102A8000CDB7DEB7A7970FB6F894DEBF0FBECDBFA8
:102A90007C018B0126EE36E146EE57E16CE170E0F9
:102AA00080E090E00E94251E22EE34E144EE55E1E4
:102AB00063E370E080E090E00E94251E20ED33E1AA
:102AC00048E554E160E070E080E090E00E94251E5F
:102AD00022E133E140E753E160E070E081E590E01E
:102AE0000E94251ED80150968D919C915197892B5B
:102AF00051F02CED32E146EF52E162E070E086E504
:102B000090E00E94251EF80180899189029750F07B
:102B10002CED32E146EF52E162E070E083E690E0B6
:102B20000E94251EFE01B29686E0DF011D928A9565
:102B3000E9F7D8011E968C911E971F969C919E01D5
:102B4000285D3F4F0AE010E0B8010E9425248193E0
:102B5000CB01E217F307C1F76E01B9E2CB0ED11C2E
:102B60000EE510E0F60122916F0142EB52E163E0C5
:102B700070E0C8010E94BC130B5F1F4F0C3711059A
:102B800089F728EB31E144E352E16FE170E080E640
:102B900090E00E94251EE6EBF1E125913491E4EBF3
:102BA000F1E145915491D701DF968C916AE270E092
:102BB00090E00E94251E26EE36E146EE57E16BE3DB
:102BC00070E080E090E00E94251E87016701BCE371
:102BD000CB0ED11C63E0B62EF8018781882309F45F
:102BE00043C08085811102C0E68101C0E4E0F0E0CD
:102BF000EE0FFF1FEC55FE4E25913491811104C05C
:102C0000D8011696EC9101C0E4E0F0E0EE0FFF1F52
:102C1000EC56FE4E45915491F801648170E0838139
:102C200090E00E94251ED80118968C918823E1F02F
:102C3000869586956B2D0E941924892F90E0880F28
:102C4000991FFC01E257FE4E25913491FC01E85793
:102C5000FE4E45915491F801648170E06550710910
:102C6000838190E00E94251E0A5F1F4FC016D10687
:102C700009F0B2CFD701DF962C9130E040E050E070
:102C800019A28E010F5D1F4F8AE0C82ED12CE12CB6
:102C9000F12CCA01B901A70196010E94E823605DE9
:102CA000F80162938F01211531054105510589F71E
:102CB000309761F001900020E9F73197AF01401B98
:102CC000510BB80183EC95E00E947C1B42E050E080
:102CD0006DEA71E083EC95E00E947C1BA7960FB62D
:102CE000F894DEBF0FBECDBFDF91CF911F910F9142
:102CF000FF90EF90DF90CF90BF9008950C94D72471
:102D00000C94D7240C94D7240C94D7240C94D72457
:102D10003FB7F8948091B1019091B201A091B301B5
:102D2000B091B40126B5A89B05C02F3F19F00196BC
:102D3000A11DB11D3FBFBA2FA92F982F8827820F41
:102D4000911DA11DB11DBC01CD0142E0660F771F91
:102D5000881F991F4A95D1F708951F920F920FB6B9
:102D60000F9211242F933F938F939F93AF93BF9311
:102D70008091B7019091B801A091B901B091BA01C9
:102D80003091B00123E0230F2D3720F40196A11DCF
:102D9000B11D05C026E8230F0296A11DB11D209389
:102DA000B0018093B7019093B801A093B901B0939B
:102DB000BA018091B1019091B201A091B301B0919B
:102DC000B4010196A11DB11D8093B1019093B20190
:102DD000A093B301B093B401BF91AF919F918F9134
:102DE0003F912F910F900FBE0F901F901895BC012F
:102DF00080E090E00C94421B8FB18095807F669BB1
:102E000088601C9B846008951F93CF93DF93DC013F
:102E100020E030E040E050E011E0C1E0D0E02617D3
:102E2000370791F114968C911497811115C014965F
:102E30001C93149712968D919C911397ED91FC9190
:102E40001197E80FF91FE4911596EC9315970196E9
:102E500013969C938E93129714969C9114971596A3
:102E60008C911597892349F0FE01022E02C0EE0FC6
:102E7000FF1F0A94E2F74E2B5F2B990F14969C9339
:102E800014972F5F3F4FCBCFCA01DF91CF911F9196
:102E90000895089508950895089508950C94D724E9
:102EA00008950E9460254091BD015091BE0120917E
:102EB000BB013091BC0142175307B4F49091E80074
:102EC0009570E1F39091E80092FD19C08093F100B4
:102ED0008091BD019091BE0101968F739927892B36
:102EE00019F48EEF8093E8008091BD019091BE01AE
:102EF00001969093BE018093BD0181E0089580E02A
:102F00000895DF92EF92FF920F931F93CF93DF9379
:102F1000D82E8A017B01E40EF51EEB01CE15DF05EC
:102F200071F0D7FE03C0FE01849101C088810E9428
:102F3000531721968111F2CF8FEF9FEF01C0C80187
:102F4000DF91CF911F910F91FF90EF90DF90089547
:102F5000615030F02091F100FC0120830196F8CF00
:102F6000289884E68093C1010895CF92DF92EF9272
:102F7000FF920F931F93CF93DF936C017A018B0124
:102F8000C0E0D0E0CE15DF0581F0D8016D918D0154
:102F9000D601ED91FC910190F081E02DC6010995DB
:102FA000892B11F02196EECF7E01C701DF91CF91E1
:102FB0001F910F91FF90EF90DF90CF900895CF93E6
:102FC000DF931F92CDB7DEB76983DC01ED91FC91F1
:102FD0000280F381E02D41E050E0BE016F5F7F4F42
:102FE00009950F90DF91CF91089583E08093E900D8
:102FF0008091F200882319F08AE38093E800089515
:10300000FC018485958597FD0BC09FB7F89482E0FD
:103010008093E9008091F2009FBF90E001960895AF
:103020009FB7F89482E08093E9008091F2009FBFFF
:1030300090E008950F931F93CF93DF931F92CDB726
:10304000DEB782E0898342E450E063E87EE180E815
:103050000E9481170E949A1FDC0112960D911C910B
:1030600013970115110589F0D801ED91FC910280AB
:10307000F381E02DBE016F5F7F4FC801099597FD79
:1030800004C0F80100851185ECCF89810F90DF9194
:10309000CF911F910F9108950E94891F90E008958C
:1030A0000F931F93CF93DF931F92CDB7DEB78C01A1
:1030B000FC018485958597FF0EC0CE0101960E9484
:1030C0005B1F019719F4898190E002C08FEF9FEF99
:1030D000F80195878487F801848595850F90DF91A5
:1030E000CF911F910F910895CF93DF931F92CDB78A
:1030F000DEB7FC018485958597FD05C02FEF3FEF76
:10310000358724870BC0CE0101960E945B1F019773
:1031100019F4898190E002C08FEF9FEF0F90DF914B
:10312000CF9108951F920F920FB60F9211248F9393
:103130009F938091E1009091E100937F9093E10053
:1031400083FF0FC01092E90091E09093EB00109282
:10315000EC0092E39093ED001092C20198E09093FE
:10316000F00082FF20C093E09093E9009091F2007C
:10317000992319F09AE39093E8009091C001992364
:1031800039F09091C00191509093C001992389F139
:103190009091C101992339F09091C1019150909380
:1031A000C101992341F184FF10C08091E2008E7E1D
:1031B00081608093E2008091E1008F7E8093E10046
:1031C0008091B5018E7E806111C080FF16C0809114
:1031D000E2008E7E80618093E2008091E1008E7E2D
:1031E0008093E1008091B5018E7E81608093B5016E
:1031F00004C05D9ACDCF289AD6CF9F918F910F9022
:103200000FBE0F901F9018951F920F920FB60F923E
:103210001124CF92DF92EF92FF920F931F932F937F
:103220003F934F935F936F937F938F939F93AF934E
:10323000BF93EF93FF93CF93DF93CDB7DEB76C9738
:10324000DEBFCDBF1092E9008091E80083FFFBC193
:1032500068E0CE0145960E94A81782EF8093E800AF
:103260008D8987FF05C09091E80090FFFCCF03C0D7
:103270009EEF9093E800982F907609F0C6C09E8943
:103280004F89588D2F89F88C91110CC0803829F402
:103290008091B6018093F10002C01092F10010926B
:1032A000F10045C1913051F4811141C141305105C6
:1032B00009F03DC18091B6018D7F0BC0933061F460
:1032C000811135C14130510509F031C18091B601FC
:1032D00082608093B6012BC1953049F48091E8005B
:1032E00080FFFCCF822F80688093E30020C196305E
:1032F00009F05EC00B8D1C8D22E01092E900109247
:10330000BE011092BD01F21232C01092BC011092A7
:10331000BB010E941A1899E0BE016F5F7F4FDB016D
:10332000E92F1D92EA95E9F79983FA8291E09E834D
:1033300090EA98879AEF99872091BD013091BE015C
:10334000275F3F4F3C832B838D831092E9001092BF
:10335000BE011092BD011093BC010093BB0149E076
:1033600050E080E00E9481170E941A18E0C010937C
:10337000BC010093BB010E949A1FDC0112960D91C3
:103380001C9113970115110509F4BBC0D801ED91EB
:10339000FC910480F581E02DBE016B5E7F4FC8017A
:1033A0000995009709F0C7C0F80100851185EACF9B
:1033B000973009F445C1983021F481E08093F10001
:1033C000B6C0993009F0B3C0837009F039C1E7E1A4
:1033D000F1E081E031E096E32081211109C08EE720
:1033E0008093EA001092EA008F898093C2019FC007
:1033F0008093E9003093EB0021912093EC009093AF
:10340000ED008F5F873041F7EACF8B8D9C8D109256
:10341000E9001092BE011092BD019093BC0180930F
:10342000BB01898D811153C08E899D89913A49F4E0
:10343000813209F005C147E050E064E071E080E0CE
:10344000BBC0913209F0FCC0833269F48F89988D3A
:10345000A0E0B0E08093000190930101A0930201ED
:10346000B093030164C0803269F48091E80082FF68
:10347000FCCF67E084E091E00E94A8178BEF809377
:10348000E80055C0823209F052C08F8980930B0149
:10349000EEEFFFE7859194918B3F9C4D19F0E0E0B2
:1034A000F8E002C0EEEFFAE080910401909105018E
:1034B000A0910601B0910701803B9440A105B105A0
:1034C00009F09EC080910B0180FF79C099C00E94D5
:1034D0009A1FFC01028113810115110509F4B0C086
:1034E000D801ED91FC910190F081E02DBE016B5E61
:1034F0007F4FC801099581111AC0F8010085118517
:10350000EBCFF1E0FF1609F44EC0F3E0FF1298C0D4
:103510008F89882309F44AC0823089F440E860E149
:1035200087EE9EE10E940922882309F489C08EEF6C
:103530008093E80088C018161906CCF381C081304A
:1035400029F440E86BE08BED9EE1ECCF833009F08D
:1035500077C00E949A1FDC011296ED90FC901397A1
:103560008E010F5F1F4F6801E114F10479F0D7015C
:10357000ED91FC910680F781E02DB801C701099516
:10358000080F111DF701E084F184EECFD8011C92E1
:10359000F60101900020E9F73197BF016C197D0910
:1035A00040E0C601BFCF69EC7EE102C065EC7EE180
:1035B000FB01449150E080E80E948117B8CFEE3FB4
:1035C0002AE0F20751F0808191818737A7E79A07B7
:1035D00021F09093FF0A8093FE0A87E797E7918393
:1035E0008083809160008093BF019BE088E10FB6EB
:1035F000F894A895809360000FBE9093600097CFD9
:10360000808191818737974709F091CFA895809164
:1036100060008861809360008091BF0180936000AA
:10362000EE3FBAE0FB0739F08091FE0A9091FF0A65
:10363000918380837CCF1092FF0A1092FE0A77CF8D
:1036400081E28093EB006C960FB6F894DEBF0FBE5C
:10365000CDBFDF91CF91FF91EF91BF91AF919F913E
:103660008F917F916F915F914F913F912F911F911A
:103670000F91FF90EF90DF90CF900F900FBE0F90C3
:103680001F9018958F929F92AF92BF92CF92DF9228
:10369000EF92FF926B017C010E9488164B015C0146
:1036A000C114D104E104F104F1F00E948816DC0198
:1036B000CB0188199909AA09BB09883E9340A10545
:1036C000B10570F321E0C21AD108E108F10888EED3
:1036D000880E83E0981EA11CB11CC114D104E10422
:1036E000F10419F7DDCFFF90EF90DF90CF90BF90FE
:1036F000AF909F908F9008958F929F92AF92BF92BC
:10370000CF92DF92EF92FF920F931F93CF93DF93AD
:103710006C017B018A0180910B01882309F45CC054
:103720008091C201882309F457C08091B50180FFC0
:1037300005C08091E00082608093E000E801B12C38
:103740008AEFA82E93E0892E2AE3922E209711F477
:10375000BB20D9F10E94891F81110AC0AA94AA2016
:10376000D9F161E070E080E090E00E94421BEECF72
:10377000282F30E0C217D3070CF48C2F9FB7F89492
:103780008092E9002091E80025FF1DC0282F30E03D
:10379000C21BD30BF701815020F041914093F100FF
:1037A000FACFE20EF31EBB2019F09092E8000AC097
:1037B0008091E80085FD07C09092E800BB24B39497
:1037C000209709F0B12C9FBFC1CF5D9884E680930C
:1037D000C0011016110644F081E090E0F6019383D9
:1037E000828380E090E001C0C801DF91CF911F91FA
:1037F0000F91FF90EF90DF90CF90BF90AF909F9090
:103800008F9008954F925F926F927F928F929F92C6
:10381000AF92BF92CF92DF92EF92FF920F931F93DE
:10382000CF93DF9300D000D0CDB7DEB7DC01CB0162
:103830005A0148017E2D4115510509F4F1C1FA01E3
:10384000649131965491F2E0AF0EB11CC62ED12C8A
:103850002223F9F0E1E0F0E0352F377011F4E0E0D9
:10386000F0E0352F369536953695E30FF11DEC9D3A
:103870008001ED9D100DFC9D100D1124733011F48D
:10388000000F111F209FF001219FF00D1124AE0E9B
:10389000BF1E7F3F31F48114910411F071E001C02B
:1038A00072E0FD01EC0DFD1D1E161F060CF0B8C1E7
:1038B000A038B1050CF0B4C19C01250F311D1216C2
:1038C00013060CF0ADC1803491050CF0A9C1A11410
:1038D000B10409F4A5C1382F37708C0197FF02C0DD
:1038E000095F1F4F23E0159507952A95E1F7202FD3
:1038F00097FF04C0332311F02FEF200FB7FF05C04F
:10390000002711270A1B1B0B02C000E010E0E03863
:10391000F1051CF090E89A1B01C0962F901BE22E37
:10392000022E000CFF082F3F1CF47E2C709401C067
:10393000712CF1E0852F877009F4F0E056955695CB
:103940005695F50FEF0EF11C49E0E416F10414F062
:10395000F8E0F21BF719270D50E82503A00DB11D63
:103960001124A00FB11F679D000D111D1124A50189
:10397000400F511FAA24A394B12C032E02C0AA0CFD
:10398000BB1C0A94E2F7733009F402C1C0F4713031
:1039900009F4B6C0723009F043C18FEF8A9D8001EF
:1039A0008B9D100D1124009510951C830B839C801A
:1039B000BD016D537E4F2B018F2E820E2AC07A3FA0
:1039C000D9F17B3F09F02CC1BD016D537E4F4B01F6
:1039D000FF2EF20E83C084918A9D70018B9DF00CA6
:1039E0001124FA82E98227FD05C0DB018C91802336
:1039F000E82AEC92311113C031966F5F7F4F8E2F02
:103A0000841B891740F32F5F4C0D5D1DB0E84B0EF2
:103A1000511C281509F404C1B201FA01F0CF273076
:103A20005CF77B01B0E8EB0EF11CD7018C9189218A
:103A30007A8087298C93E0CFBD016D537E4F4B0177
:103A4000FF2EF20E2F1509F4EBC0B401FA018E2FF0
:103A5000841B8917F0F484918A9D80018B9D100D41
:103A600011241A83098327FD04C0DB018C91082BE4
:103A70000C93332351F0273044F48B0100581F4F2F
:103A8000D801EC908A818E298C9331966F5F7F4F9D
:103A9000DECF2F5F4C0D5D1DB0E88B0E911CD2CF99
:103AA00084918A9DB0018B9D700D11247A83698366
:103AB00027FD05C06095D8018C9168236C93311166
:103AC00013C031960F5F1F4F8E2F841B891740F351
:103AD0002F5F4C0D5D1DB0E88B0E911C2F1509F466
:103AE0009FC08401FA01F0CF27305CF7B80160581D
:103AF0007F4F8A818095DB01EC908E218C93E1CF02
:103B0000080D191DAD53BE4F7F2E720E271509F4F7
:103B100087C0BD01E12CF12CE91690F5F801EE0DFE
:103B2000FF1DE491EA9D4001EB9D900C11248094CF
:103B300090949C828B82FA01EE0DFF1DE491EA9D28
:103B40002001EB9D500C11245A82498227FD05C0AB
:103B5000FB018081882248284082332359F0273096
:103B60004CF4FB01E058FF4F90808C8189219A80B2
:103B700089298083FFEFEF1AFF0A6F5F7F4FCCCF59
:103B80002F5F4C0D5D1D0C0D1D1DA058BF4FBECFEE
:103B9000E92EF12C2801440E551EAD53BE4F60E8AE
:103BA00070E04B018E189F08CE18DF08CC0CDD1C8E
:103BB000792E022F1E2D2F2FF201A401B601632EA4
:103BC000CF93DF93ED01EF96EF9622968590C59007
:103BD000662059F08A9C4001CA9C600107302CF491
:103BE000E880D094ED20E928E99200233AF0EC90A7
:103BF000C094EC20E828ED920C94FF1D11961A95C4
:103C000029F72A9551F0172D03951124E60FF11D80
:103C1000A40FB11DC40FD11DD9CFDF91CF911124B5
:103C20000F900F900F900F90DF91CF911F910F91F8
:103C3000FF90EF90DF90CF90BF90AF909F908F90CC
:103C40007F906F905F904F900895EF920F931F9326
:103C5000EE24E394890120E00E94021C1F910F9141
:103C6000EF9008952F923F924F925F926F927F92C2
:103C70008F929F92AF92BF92CF92DF92EF92FF927C
:103C80000F931F93CF93DF93CDB7DEB72B970FB66C
:103C9000F894DEBF0FBECDBF5C017B015A83498320
:103CA0001C821B821D821E8268E070E0CE0101969C
:103CB0000E94041701969987888768E070E0CE011A
:103CC00001960E9404178C0161E070E0CE0101961C
:103CD0000E940417288539852A0D3B1D37FDD2C067
:103CE00020E8A216B1040CF0CDC098012F5F3F4F21
:103CF000A9014E0D5F1D57FDC5C060E4E616F10435
:103D00000CF0C0C08701F7FE04C0002711270E1970
:103D10001F0907701127A701F7FE02C0495F5F4F17
:103D20001A0153E0359427945A95E1F7F7FE09C03C
:103D300071E0271A310848E050E0BA01601B710BAE
:103D40008B01390137FF03C077E0670E711C43E038
:103D5000759467944A95E1F727703327232B19F060
:103D60009FEF691A790A8F8344244394512CE12CE4
:103D7000F12CC12CD12C88E090E09C01201B310B50
:103D80003B872A87C614D7040CF07CC08824839410
:103D9000912C61E070E0CE0101960E940417892BFE
:103DA00021F432E0830E911CF4CFB401CE010196D0
:103DB0000E940417DC01119640E050E06F814A1721
:103DC0005B0708F057C061115428440C09F04FC03C
:103DD00091012C0D3D1DC90101960997A0F5C50162
:103DE0008E0D9F1D8038910570F5B9017695762F5F
:103DF0006627779567956A0D7B1D6E0D7F1D2F3F9A
:103E00008FEF3807D9F1FB01ED53FE4F852D002EC2
:103E100001C0880F0A94EAF79081892B80830115ED
:103E2000110589F02730310571F0FB01ED5BFD4F85
:103E3000852D90E00A8402C0959587950A94E2F753
:103E40005080852980839FEFE91AF90A28853985F2
:103E5000E216F3064CF03FEFC31AD30A442443940E
:103E6000512CE12CF12C03C044244394512C4F5F7E
:103E70005F4FA4CF71E067276F8384CF01151105D1
:103E8000A1F6E1CF2B960FB6F894DEBF0FBECDBFE3
:103E9000DF91CF911F910F91FF90EF90DF90CF9026
:103EA000BF90AF909F908F907F906F905F904F905A
:103EB0003F902F9008952091C201211103C08FEFF0
:103EC0009FEF08955FB7F89422E02093E9002091D6
:103ED000F20030E01216130614F421E030E0422F15
:103EE000FC0184E6415038F028988093C1019091FC
:103EF000F1009193F7CF2115310521F08091F20067
:103F0000882319F05FBFC90108958BE68093E8000C
:103F1000F9CF2FB7F89483E08093E9009091E800FF
:103F2000892F807295FF04C09091F20080E4891B74
:103F30002FBF08958091900681110DC082E080937B
:103F40008C0684E080938D0610928F0610928E0668
:103F500081E0809390068CE896E0089583E196E0F6
:103F60000C944D17789484B5826084BD84B58160CB
:103F700084BD85B5826085BD85B5816085BD809134
:103F80006E00816080936E001092810080918100AC
:103F900082608093810080918100816080938100A4
:103FA0008091800081608093800080919100826088
:103FB0008093910080919100816080939100809125
:103FC00090008160809390008091C1008460809314
:103FD000C1008091C10082608093C1008091C100C6
:103FE00081608093C1008091C30081608093C30091
:103FF0008091C00082608093C0008091C200816087
:104000008093C20080917A00846080937A008091CE
:104010007A00826080937A0080917A008160809338
:104020007A0080917A00806880937A001092C201B1
:104030001092B6011092B5018091D70081608093F3
:10404000D70080EA8093D80089B5806189BD89B5A1
:10405000826089BD09B400FEFDCF61E070E080E0C0
:1040600090E00E94421B8091D8008F7C80618093F9
:10407000D8008091E000807F8093E0008091E10093
:104080008E7E8093E1008DE08093E200559A209A25
:1040900081EC80937C0085B1806F85B984B1877E87
:1040A00084B984B1876E84B95E9A5F988AB1806D55
:1040B0008AB9769A6E9881B3806F81BB899880B3F4
:1040C0008D7080BB80E58CBD81E08DBD85E090E08A
:1040D0000E94F7165F9A85E090E00E94F7165E98BE
:1040E0005C98E6E7FEE184918EBD00000DB407FE0A
:1040F000FDCF31968EE1E338F807A9F75C9A81E8A5
:1041000080936400809165008160809365000E94C7
:10411000FC1687FF24C05C9885EA8EBD00000DB4B4
:1041200007FEFDCF5C9A2E982F982D988091640001
:1041300080628093640081E083BF889513BEFCCFCA
:104140002D980E94FC168478843871F00E94FC1629
:104150008471843129F188EC90E00E94F7160E9466
:10416000FC1682FDEDCF38C02D9A88EC90E00E94BD
:10417000F7162F9882E090E00E94A0238F3F29F04D
:104180006FEF82E090E00E94A82384EF91E00E940C
:10419000F7162F9A0E94FC1684788438D9F3D6CF6C
:1041A0002D9A88EC90E00E94F7162E9882E090E01D
:1041B0000E94A023882329F060E082E090E00E9422
:1041C000A82384EF91E00E94F7162E9A0E94FC1615
:1041D00084718431D9F3BFCF2D9A82E090E00E94A0
:1041E000A023882319F03E9A3F9A02C03E983F9838
:1041F000809164008E7F8093640080917A00806457
:1042000080937A0080917A0086FDFCCF009178003F
:10421000109179000E94881620E030E09801112763
:104220000027600F711F821F931F2091640021607F
:1042300020936400611571058105910511F00E94BC
:1042400097238DE080931D0683E884BD8FEF87BDA3
:1042500081EF809380001092880010928A00109263
:1042600026068824839403EC11E0D0E088EFE82E42
:104270008EE1F82E99EFC92E9EE1D92E20E0A22ED4
:1042800020E0B22E992493948FB7F8944091B7010F
:104290005091B8016091B9017091BA018FBF8091BE
:1042A0001E06942F981B892FC0911F06CC2329F03E
:1042B0009093200610921F06A5C090911D068917A5
:1042C00040F48F5F891708F09DC083BE889513BEA8
:1042D00099C090921F0640931E06809119069091F6
:1042E0001A06019690931A068093190680911B0670
:1042F00080931C060E94FC1680931B068C2FF801ED
:1043000081118FEF00248193819381938193039492
:10431000D1F7809126068130E1F030F0823009F447
:104320004EC0833059F161C080912506882321F069
:10433000109215061092250663E176E081E496E07E
:104340000E94691163E176E081E496E00E94D21454
:104350004CC090912506913021F0809315068093F2
:10436000250663E176E087E296E00E94221163E190
:1043700076E087E296E00E94291437C090912506E6
:10438000933081F0809315069092510610924F065B
:10439000F701949190934D06F601949190934E06F7
:1043A0008093250663E176E08AE496E00E94A111FD
:1043B00063E176E08AE496E00E94371516C090919A
:1043C0002506923031F080931506109248068093AE
:1043D000250663E176E084E496E00E94BD1263E185
:1043E00076E084E496E00E947514F80180E098E09D
:1043F00000800EBCD111012C019780FDFDCF0192F0
:10440000B9F70DB4A114B10409F43ECF0E94000025
:104410003BCFDF92EF92FF920F931F93CF93DF93E7
:10442000D82EF92EE42E062F10E0C8010196880F31
:104430000E94531783E00E945317CD2DDF2D0C0FE0
:104440001D1FC017D10789F0E7FE03C0FE0184914C
:1044500001C088810E945317F82E80E00E945317F4
:104460008F2121968111EDCF01C081E0DF91CF91A5
:104470001F910F91FF90EF90DF9008951092C60565
:104480001092C50588EE93E0A0E0B0E08093C705E8
:104490009093C805A093C905B093CA0581E291E045
:1044A0009093C4058093C3058FEF9FEF9093D00541
:1044B0008093CF0510921B0610921C0680E180931A
:1044C0001D0610921A061092190610921F068BE70D
:1044D00091E0909317068093160610922206109290
:1044E000210682E090E0909324068093230689EAD7
:1044F00091E0909314068093130610922C0610926C
:104500002B068FE591E090932A068093290698E088
:104510009093320681E08093310610922E0610921D
:104520002F0610922D0680933006109236061092B8
:10453000350623E531E0309334062093330690931B
:104540003C0680933B061092380610923906109272
:10455000370680933A068BE691E090932806809385
:10456000270610923D0610923E0610923F061092CA
:10457000400689E891E090934206809341061092AC
:10458000430683E491E090934506809344068CE9CA
:1045900080934606109247061092480610924906EC
:1045A00083E391E090934B0680934A0610924C0669
:1045B000A3E1B6E08FE496E068EF7EE149EF5EE1CB
:1045C000DE961C92DE97DC961C92DC97DF961C929E
:1045D000DF97FB012491DA962C93DA97FA01249164
:1045E000DB962C93DB9716968A179B0749F782E098
:1045F00080938B0682E18093890608958F929F9223
:10460000AF92BF92CF92DF92EF92FF92CF93DF9360
:10461000EC01688179818A819B8161157105810531
:10462000910521F464E279ED8BE597E02DE133EF1C
:1046300041E050E00E94B62349015A019B01AC01C0
:10464000A7EAB1E40E94D5236B017C01ACEEB4EF84
:10465000A50194010E94E323DC01CB018C0D9D1D7B
:10466000AE1DBF1DB7FF03C00197A109B0488883E5
:104670009983AA83BB83BC01CD019F77DF91CF9142
:10468000FF90EF90DF90CF90BF90AF909F908F9072
:1046900008958F929F92AF92BF92CF92DF92EF9246
:1046A000FF9260910C0170910D0180910E0190912B
:1046B0000F01611571058105910521F464E279ED21
:1046C0008BE597E02DE133EF41E050E00E94B62307
:1046D00049015A019B01AC01A7EAB1E40E94D5232C
:1046E0006B017C01ACEEB4EFA50194010E94E323C1
:1046F000DC01CB018C0D9D1DAE1DBF1DB7FF03C09E
:104700000197A109B04880930C0190930D01A093EB
:104710000E01B0930F01BC01CD019F77FF90EF9088
:10472000DF90CF90BF90AF909F908F90089560934F
:104730000C0170930D0180930E0190930F01089569
:10474000F999FECF92BD81BDF89A992780B5089559
:10475000262FF999FECF1FBA92BD81BD20BD0FB69D
:10476000F894FA9AF99A0FBE01960895052E97FBD0
:104770001EF400940E94CD2357FD07D00E94E82329
:1047800007FC03D04EF40C94CD2350954095309502
:1047900021953F4F4F4F5F4F0895909580957095AD
:1047A00061957F4F8F4F9F4F08950E940A24A59FC8
:1047B000900DB49F900DA49F800D911D112408951C
:1047C000B7FF0C94D5230E94D523821B930B089529
:1047D000A1E21A2EAA1BBB1BFD010DC0AA1FBB1F05
:1047E000EE1FFF1FA217B307E407F50720F0A21B77
:1047F000B30BE40BF50B661F771F881F991F1A94E4
:1048000069F760957095809590959B01AC01BD010D
:10481000CF010895A29FB001B39FC001A39F700D67
:10482000811D1124911DB29F700D811D1124911DB8
:104830000895991B79E004C0991F961708F0961BFC
:10484000881F7A95C9F780950895AA1BBB1B51E173
:1048500007C0AA1FBB1FA617B70710F0A61BB70BF0
:10486000881F991F5A95A9F780959095BC01CD0195
:104870000895EE0FFF1F0590F491E02D09940F931A
:104880001F93CF93DF938230910510F482E090E084
:10489000E0919A06F0919B0620E030E0A0E0B0E0C5
:1048A000309719F1408151810281138148175907CE
:1048B000C8F08417950769F4109731F012960C939D
:1048C000129713961C9327C000939A0610939B0689
:1048D00022C02115310519F04217530718F49A0127
:1048E000BD01EF01DF01F801DBCF21153105F9F042
:1048F000281B390B2430310580F48A819B81611596
:10490000710521F0FB019383828304C090939B0681
:1049100080939A06FE01329644C0FE01E20FF31F17
:104920008193919322503109398328833AC0209191
:10493000980630919906232B41F420911201309171
:10494000130130939906209398062091100130911D
:1049500011012115310541F42DB73EB740911401E5
:1049600050911501241B350BE0919806F0919906A2
:10497000E217F307A0F42E1B3F0B2817390778F036
:10498000AC014E5F5F4F2417350748F04E0F5F1F95
:1049900050939906409398068193919302C0E0E06A
:1049A000F0E0CF01DF91CF911F910F910895CF9348
:1049B000DF93009709F481C0FC01329713821282C1
:1049C000A0919A06B0919B06109781F420813181C5
:1049D000820F931F20919806309199062817390766
:1049E00051F5F0939906E093980667C0ED0120E039
:1049F00030E0CE17DF0740F44A815B819E0141150C
:104A00005105F1F0EA01F5CFD383C2834081518192
:104A1000840F951FC817D90759F488819981840F8D
:104A2000951F0296918380838A819B8193838283E1
:104A30002115310529F4F0939B06E0939A063DC0B9
:104A4000E901FB83EA8349915991C40FD51FEC1703
:104A5000FD0761F480819181840F951F0296E90121
:104A600099838883828193819B838A83E0E0F0E04D
:104A700012968D919C911397009719F0FD01DC011E
:104A8000F7CF8D919C9111979D012E5F3F4F820F23
:104A9000931F20919806309199062817390769F4D9
:104AA000309729F410929B0610929A0602C0138246
:104AB0001282B0939906A0939806DF91CF91089542
:104AC00081E090E0F8940C9465251FE0C9ECDFE0EC
:104AD00004C0FE010E9439242196CA3CD107C9F7BF
:044AE000F894FFCF78
:104AE400FFFFFFFF00E100000000000001000000E4
:104AF40000009C06800000C18081000000000000CE
:104B040000DF177C1B4C18F5170018741850180098
:104B140000000049178016A912BB13A11137150014
:104B24000000004A178216FE12BB13BD1275140052
:104B3400000000C913B517B813B713000000000133
:104B440013B517B813B713000000004C177E16688E
:104B540011BB1322112914000000002111000000D0
:104B64000050178616000000004B1784166811BB0E
:104B7400136911D2140000000000000000BB13BB35
:104B84001351175117000000004D174E170D0A005E
:00000001FF
