:100000000C9420170C9448170C9448170C9448171C
:100010000C9448170C9448170C9448170C944817E4
:100020000C9448170C9448170C9448170C944817D4
:100030000C9448170C9448170C9448170C944817C4
:100040000C9448170C9448170C9448170C944817B4
:100050000C9448170C9448170C9448170C941E2ABB
:100060000C9448170C9448170C9448170C94481794
:100070000C9448170C9448170C9448170C94481784
:100080000C94D41A0C9448170C9448170C944817E5
:100090000C9448170C9448170C9448170C94481764
:1000A0000C9448170C9448170C9448178B31A231C4
:1000B000E031E031C1312B320C32D5F08D14A1C8C2
:1000C00081CFD9F1AF2000181AFFFFFFFFFFFFFF1C
:1000D000FFFFFFFFFFFFFFFFFFFFFFFFFFFFFFFF30
:1000E000FFDFDFDFDFDF5F5F5F5F1F1F1F1F5F5F00
:1000F0005F5F5F5F5F5F5F5F5FF7F7F7F7F7F7F7E8
:10010000F7F7F7F7F7F6F4F0E1C307173777F7F7E4
:10011000F7030303030303030303030303030303BB
:1001200003030302000001030300000000000000BD
:1001300000000000000000000000000000000000BF
:1001400000C0C0C0C0C0404040400000000040406F
:10015000404040404040404040F7F7F7F7F7F7F79E
:10016000F7F7F7F7F7F6F4F0E1C307173777F7F784
:10017000F70303030303030303030303030303035B
:10018000030303020000010303F8FFFFFEFCFCFC75
:10019000FC0303030303030303080A2807092214CB
:1001A00024080401010201010101010000000070A6
:1001B000F8FCFEFEFFFFFEFC6000000000000000F7
:1001C000000000000000000060FCFEFFFFFEFEFCDF
:1001D000F870000000000080800082C7E7FFFFFF8A
:1001E000FFFFFEFCFCFC3838383838383838B8B8EF
:1001F00038FCFCFCFFFFFFFFFFFFC7870200000089
:1002000000070F1F1F0F07010100040E1F3F3F1BB8
:10021000010000000000000003070F1F0F0701008E
:100220000000000F1F1F1F1E0C0000000000000038
:1002300070F8FCFEFEFFFFFEFC6000000000000006
:1002400000000000000000000060FCFEFFFFFEFE5A
:10025000FCF870000000000000000002C7E7FFFF8C
:10026000FFFFFFFEFCFCFC38B8B8383838383838A7
:1002700038B8FCFCFCFFFFFFFFFFFFC78702808050
:1002800000000000000C1E1F1F1F0F0000000001D7
:10029000070F1F0F0703000000000000011B3F3F76
:1002A0001F0E04000101070F1F1F0F07002B160070
:1002B00000000070880402160141229C60000000CA
:1002C000000000000000000000000000609C2241CF
:1002D0000116020488700000000000808000824542
:1002E000243E80808091322444C42828282828284D
:1002F0002828A8A828C4442493918080003E4485DF
:100300000200000000070810110806010100040A9D
:100310001121241A0100000000000000030408114C
:10032000080601000000000F101213120C0000005C
:100330000000000070880402160141229C60000049
:1003400000000000000000000000000000609C228F
:100350004101160204887000000000000000000245
:10036000C5243E00808091B22444C428A8A828282F
:100370002828282828A844442493918080003E44BB
:100380008502808000000000000C121312100F0084
:10039000000000010608110804030000000000002E
:1003A000011A2421110A040001010608111008078E
:1003B00000DC003200B80132007003320000801E01
:1003C000002300410014006E000F0055002D0000B6
:1003D000801219131514121510160F171018121970
:1003E000141A171B1B1C20120F130B1407150416CD
:1003F0000317041807190B1A171B1B1C20120113D3
:100400000114011501160217041807190B1A101B05
:10041000171C1E2C0CFD0505B585CDFD0504D41556
:1004200005CFFF0707D79767FF4F87971727FF4F1E
:1004300087971727DFFF070301F14949F1010305FA
:10044000FD010A020503070306020B030602070269
:1004500006020A020502060206010B020602060354
:1004600004010A040809080809080C020504080226
:100470002905023E09093E3F25251A1E2121123F6A
:1004800021211E3F2525213F0505011E21293A3F37
:1004900004043F213F21001021211F3F040A313F66
:1004A0002020203F02023F3F02043F1E21211E3F29
:1004B0000909061E21112E3F090936222525190199
:1004C0003F01011F20201F0F10201F3F10103F3B36
:1004D00004043B03043807312D23211E29251E2245
:1004E0003F2000322929261221251A0C0A3F08171D
:1004F0002525191E252518013905031A25251A0653
:1005000029291EF8FCFEFFFFFFFFFFFFFFFFFFFF93
:10051000FFFFFFFFFFFFFFFFFFFFFFFFFFFFFFFFEB
:10052000FFFFFFFFFFFFFFFFFFFFFFFFFFFFFFFFDB
:10053000FFFFFFFFFFFFFFFFFFFFFFFFFFFFFFFFCB
:10054000FFFFFFFFFFFFFFFFFFFFFEFCF8FFFFFFC6
:10055000FFFFFFFFFFFFFFFFFFFFFFFFFFFFFFFFAB
:10056000FFFFFFFFFFFFFFFFFFFFFFFFFFFFFFFF9B
:10057000FFFFFFFFFFFFFFFFFFFFFFFFFFFFFFFF8B
:10058000FFFFFFFFFFFFFFFFFFFFFFFFFFFFFFFF7B
:10059000FFFFFFFFFFFFFFFFFFFFFFFFFFFFFFFF6B
:1005A000FFFFFFFFFFFFFFFFFFFFFFFFFFFFFFFF5B
:1005B000FFFFFFFFFFFFFFFFFFFFFFFFFFFFFFFF4B
:1005C000FFFFFFFFFFFFFFFFFFFFFFFFFFFFFFFF3B
:1005D000FFFFFFFFFFFFFFFFFFFFFFFFFFFFFFFF2B
:1005E000FFFFFFFFFFFFFFFFFFFFFFFFFFFFFFFF1B
:1005F000FFFFFFFFFFFFFFFFFFFFFFFFFFFFFFFF0B
:10060000FFFFFFFFFFFFFFFFFFFFFFFFFFFFFFFFFA
:10061000FFFFFFFFFFFFFFFFFFFFFFFFFFFFFFFFEA
:10062000FFFFFFFFFFFFFFFFFFFFFF0103070F0FAC
:100630000F0F0F0F0F0F0F0F0F0F0F0F0F0F0F0FCA
:100640000F0F0F0F0F0F0F0F0F0F0F0F0F0F0F0FBA
:100650000F0F0F0F0F0F0F0F0F0F0F0F0F0F0F0FAA
:100660000F0F0F0F0F0F0F0F0F0F0F0F0F0F0F0F9A
:100670000F0F0703014A24F804FA0D0505050505C7
:10068000050505050505050505050505050505051A
:10069000050505050505050505050505050505050A
:1006A00005050505050505050505050505050505FA
:1006B000050505050505050505050505050DFA04EE
:1006C000F8FF00FF00000000000000000000000034
:1006D000000000000000000000000000000000001A
:1006E000000000000000000000000000000000000A
:1006F00000000000000000000000000000000000FA
:100700000000000000000000FF00FFFF00FF0000ED
:1007100000000000000000000000000000000000D9
:1007200000000000000000000000000000000000C9
:1007300000000000000000000000000000000000B9
:1007400000000000000000000000000000000000A9
:100750000000FF00FFFF00FF00000000000000009D
:100760000000000000000000000000000000000089
:100770000000000000000000000000000000000079
:100780000000000000000000000000000000000069
:10079000000000000000000000000000FF00FF015A
:1007A00002050B0A0A0A0A0A0A0A0A0A0A0A0A0AB5
:1007B0000A0A0A0A0A0A0A0A0A0A0A0A0A0A0A0A99
:1007C0000A0A0A0A0A0A0A0A0A0A0A0A0A0A0A0A89
:1007D0000A0A0A0A0A0A0A0A0A0A0A0A0A0A0A0A79
:1007E0000A0A0A0A0A0B05020102FFFFFFFEFEFFCA
:1007F000FFFFFFFFFFFFFEFEFFC7EFFFEEFFFFFF64
:10080000FEFEFFFFFF02003CFEFFFFFFFFFEFEFFBC
:10081000FF1FFEFCFEFFFFFEFEFFFFFFFFFFFFFED0
:10082000BEFFFFFFFFF7EF3EFEFFFFFFFF8E081F3B
:100830001F1F0F0F1F1F1F1F1F1F1F0F0F1F1F0F18
:100840001F0F1F1F1F0F0F1F1F1F08000E1F1F1F2F
:100850001F0F070F1F1F0F07070F1F1F0F0F1F1F50
:100860001F0F0F1F1F1F1F1F1F1F1F1F0E1F1F1FC9
:100870001F0F07450D02FD0101DEDE0101FDFD0137
:1008800001FD0602FDC52931AEFD0101DEDE0101DB
:10089000FD02003CC2010D1971FE0201FD11FE04B2
:1008A00002FDFD0206FD0101BDBD0142BEFD0101CB
:1008B000BD15E93EC2010D19718E081710100F0FFA
:1008C000101017171010170C08171708100F171013
:1008D000100F0F10101708000E111316100807083C
:1008E0001017090704081717080C1710100F0F101E
:1008F00010171710101717110E1113161008071DD7
:10090000251E201F1B20162111220C23082405253B
:10091000032602270129012A022B032C052D072E6D
:100920000A2F0D30113116321B3321342535213673
:100930001E371A381639123A0E3B0B3C093D083E59
:10094000073F07400741084209430B440E45124642
:1009500016471A481E49214A254B224C1F4D1C4E52
:100960001A4F18511653155514571459145B145D2A
:10097000155F166118621A631C641F6522662503E1
:100980000407040316124A2B462B422B3F2A3C290C
:100990003A2739243820371B37163711370C3808D7
:1009A00039053A033C023E014100440047004A0039
:1009B0004C00120E372B3725371F37193713370DD9
:1009C000380839053A033C013E014000420044002A
:1009D000460048004A004C00130F202B22252420FB
:1009E000261B28162A112C0C2E083005320335023E
:1009F00038013B003E004100440047004A004C00E3
:100A00009402320000806C02320000804402320006
:100A1000008094023200B8013200B400320000803D
:100A2000DC003200B801320070033200008000FCAC
:100A3000FEFFFFFFFFFFFFFFFFFFFFFFFFFFFFFFC7
:100A4000FFFFFFFFFFFFFFFFFFFFFFFFFFFFFFFFB6
:100A5000FFFFFEFC00103F7FFFFFFFFFFFFFFFFFD8
:100A6000FFFFFFFFFFFFFFFFFFFFFFFFFFFFFFFF96
:100A7000FFFFFFFFFFFFFFFFFF7F3F10271000FC7E
:100A80000201010101010101010101010101010155
:100A90000101010101010101010101010101010146
:100AA000010102FC00102F50A0A0A0A0A0A0A0A0B7
:100AB000A0A0A0A0A0A0A0A0A0A0A0A0A0A0A0A036
:100AC000A0A0A0A0A0A0A0A0A0502F1000000000F7
:100AD00000C0E0F0F0E0C0000000000000000000F6
:100AE0000001030301000000000000000080E0F0AE
:100AF000F8F8F8F0E0C0000000000000010307076C
:100B00000F0F070301000000C0E0F8FCFEFEFFFF2E
:100B1000FFFFFEFEFCF8F003070F1F1F3F7F7F7FE4
:100B20007F3F1F0F03010080D8FCFE7E3F1E0C9C00
:100B30003E7F3F9E0C03070F1F1F0F0E1E3F7F3F80
:100B40001E0D0301000C9EBF3F1E0400040E1F3F3C
:100B50003F1E0C060F1F3F1F0E0400081C3E7F3F68
:100B60001E0C0002070F060000000000070F1F1EEA
:100B70001C0E1E3E3C380000000010387C3810006F
:100B8000020702000000000000000002070E040837
:100B90001C381000000000000000002070200F0F23
:100BA0000000000000C020D0D020C00000000000E5
:100BB000000000000001020201000000000000002F
:100BC00000000000C02020C0000000000000000065
:100BD0000000000001010000000000000000008093
:100BE0006090E8E8C8D020C00000000000000102CA
:100BF00005050B0B050201000000000000008060ED
:100C000010103020C00000000000000000010202AF
:100C10000404020100000000C020D8E4DAFAFDFD5F
:100C2000FDF5FAFAF408F003040B17172B5F5F5F6A
:100C30005E2D130D020100C0201824040202020AD6
:100C4000040408F0000003040808142020202112E6
:100C50000C02010000805864DA5A2D120C942A5DAF
:100C60002D920C03040B1716090E122D5E2D120D7A
:100C70000201000080982424120C00081422120C97
:100C800000000304080906000C1221120C000100E8
:100C9000000C92AD251A0400040A152D2D120C0625
:100CA00009162E150A040008142A5D2D120C0000E6
:100CB0000C121A04000000040A12120C00000609AB
:100CC000110A04000000081422120C000002050999
:100CD000060000000000060915120C0C122A243828
:100CE000000000001028542810000002070F060022
:100CF00000000000060F1F1E0C0C1E3E3C380000BA
:100D0000000010387C3810000205020000000000CE
:100D100000000002070E04081C381000000000004C
:100D20000000002070200002000000000000000011
:100D30000000020400000810000000000000000095
:100D40000000200000000000000000000000000083
:100D500000FCFEFFFFFFFFFFFFFFFFFFFEFCF8E0D0
:100D6000C00080F8FCFEFFFFFFFFFFFFFFFFFFFF5B
:100D7000FFFFFFFFFFFFFFFFFFFFFFFFFFFFFF8002
:100D800007070F0F0F1F3F3F3F3F1F0F0F0F0F0FA3
:100D90000F0F0F1F3F3F3F3F1F0F0F0F0703008035
:100DA000C0C0C0C0E0F0E0E0C0C0C0C0C0C0C0C0B3
:100DB000C0C08000000000000000000000F8FDFF3F
:100DC000FFFFFFFFFFFFFFFFFFFFFFFFFFFFFFFF33
:100DD000FFFFFEFEFEFCF8F0E0800003070F0F1F90
:100DE0003F3F3F3F1F0F0F0F0F0F0F0F0F0F1F3F03
:100DF0003F3F3F1F0F0F07031E18000000000000B9
:100E000000000000000000FC022501FDFD1DED2D8D
:100E10002D29A2C41820C000807804D255B5D5551C
:100E200055D5B575F5F5F0F7F0FF7FB8D75456D71F
:100E3000B571F0807F8007040B080B11202622205B
:100E4000110B0809090909080B1120262220110B92
:100E5000080B040300804040404060502020404088
:100E60004040404040404040800000000000000002
:100E7000000000F805422492D05052D69006366603
:100E800066767676723082C55252D2B4281060806F
:100E9000000304080B1120262220110B0A0A0A0A5B
:100EA0000A0A0A0B1120262220110B0904033C7E9A
:100EB000FFFFFFFF7E3C003C7EFFFF7E3C0000000A
:100EC0003CFFFF3C0000003C7EFFFF7E3C0008082A
:100ED0003C42BDADA5BD423C003C42BDAD423C00E4
:100EE00000003CFFC33C0000003C42A5BD423C006A
:100EF00010080303030303030303030303030303B0
:100F00000303FFFFFFFEFCFCFCFCFFFFFFFEFCFCFD
:100F1000FCFC0303030303030303030303030303AF
:100F20000303100A108E9284A8889088108E9284F1
:100F3000A88890880302020202020202030202024F
:100F40000202020200000000000000000000000099
:100F500000000000000000000000FEFEFEFEFEF8A3
:100F6000F8F8F8F8FEFEFEFEFEFEFEFEFEFEFEF8BF
:100F7000F8F8F8F8FEFEFEFEFE000000000000009B
:100F8000000000000000000000000000F8FCFCFC75
:100F9000FCFCFCFCFCFCFC000000FFFFFFFFFFFF73
:100FA000FFFFFFFFFFFFFFFFFFFFFFFFFFFFFFFF51
:100FB000FFFFFFFFFFFFFFFFFF000000000000003A
:100FC000000000000000000000000080C3E7F7FF01
:100FD000FFFFFFFFFFFFFFF0F0F0FFFFFFFFFFFF4E
:100FE000FFFFFFFFFFFFFFFFFFFFFFFFFFFFFFFF11
:100FF000FFFFFFFFFFFFFFFFFF00000000000000FA
:1010000000000000000000000000000000000000E0
:1010100000000000000000000000000000000000D0
:1010200000000000000000000000000000000000C0
:1010300000000000000000000000000000000000B0
:1010400000000000401C0000000000000000000044
:1010500000000000000000000000000000FCFCFC9C
:1010600000909010909000FCFCFCECC4ECFCFCFCAC
:1010700000909010909000FCFCFC0000000000002C
:10108000000000000000000000000000000000F070
:10109000080848E8480808F80000000000FFFFFFC3
:1010A00000F77300F77300FFFFFFFFABFFFFFFFFC9
:1010B00000F77300F77300FFFFFF0000000000005F
:1010C000000000000000000000000000000080C1DF
:1010D000E272BA5AAA52AA53A040A040A0FFFFFF52
:1010E00000DECEC0DECE00FF0BFF02E202FF0BFFF0
:1010F00000DECEC0DECE00FFFFFF000000000000DB
:1011000000000000000000000000000000000000DF
:1011100000000000000000000000000000000000CF
:1011200000000000000000000000000000000000BF
:1011300000000000000000000000000000000000AF
:101140000000000000000000000000000000001887
:10115000FCFEFEFEFEFEFEFEFEFEFC98C0C0C0C011
:10116000C0C0C0C0D8FCFEFEFEFEFEFEFEFEFEFCC1
:1011700098C0C0ECFEFFDEC8C0C0800000000000C8
:1011800000000000000060F0F8FCFEFFFFFEFCE045
:10119000FFFFFFFFFFFFFFFFFFFFFFFFFFFFFFFF5F
:1011A000FFFFFFFFFFFFFFFFFFFFFFFFFFFFFFFF4F
:1011B000FFFFFFFFFFFFFFFFFFFFFF030000000037
:1011C00000000000000000000103FFFFFFFFFFFF21
:1011D000FFFFFFFFFFFFFFFFFFFFFFFFFFFFFFFF1F
:1011E000FFFFFFFFFFFFFFFFFFFFFFFFFFFFFFFF0F
:1011F000FFFFFFFFFFFFFFFFFFFFFF0000000000FA
:1012000000000000000000000000000000000000DE
:1012100000000000000000000000000000000000CE
:1012200000000000000000000000000000000000BE
:1012300000000000000000000000000000000000AE
:10124000000000000000401C000000000000000042
:10125000000008E414D45414D45414E4080080802A
:101260008080808080808008E414D45414D4541486
:10127000E40800808080AC928880808000000000BC
:101280000000000000000000002050A854AA54A84C
:10129000408000FF00D6D210D6D200FF0001FC0231
:1012A000DA4A02DA4A02FC01FC00D6D210D6D20099
:1012B000FF0001FC02DA4A02DA4A02FC01000000E7
:1012C00000000000000000000000000001F6060021
:1012D000050E00FF00FE060206FE00FF0000FF00F4
:1012E000FAFA02FAFA00FF00FF00FE060206FE000C
:1012F000FF0000FF00FAFA02FAFA00FF0000000007
:1013000000000000000000000000000000000000DD
:1013100000000000000000000000000000000000CD
:1013200000000000000000000000000000000000BD
:1013300000000000000000000000000000000000AD
:10134000000000000000000021080F0F0808000640
:10135000090B06000E03030E000F090F06000F0F06
:10136000000F02030F000E0F090D000E10BEBDBED0
:10137000BDBEBDBEBDBEBDBEBDBE000004000400FE
:101380000400040004000400004E080F0D070200D2
:101390000F050F0A000F0D0900020B0D00020B0DC7
:1013A00000000000000F0D0702000F0F0808000EDC
:1013B00003030E00030E0E0300000006090B0600D7
:1013C0000F02030F00000000010F0F010E03030EB8
:1013D000000F0D0702000F0D090E10A7C7A7C7A722
:1013E000C7A7C7A7C7A7C7A7000707070707070714
:1013F0000707070707070024080E1F1F1F0E00001E
:101400000000000000000000001F0E0400000000AB
:101410000000000000040E1F00040E1F0093023C99
:101420000100005300DC033C010000530027053C91
:101430000100005300DC039E000000290027059EE8
:10144000000000290093023C0100005300DC0390DF
:101450000127053C010000E30193023C0100005319
:1014600000DC033C010000530027053C0100005351
:1014700000DC039E000000290027059E00000029D3
:101480000093023C0100005300DC03900127053C5F
:10149000010000E3012A023C01000053003F033C2D
:1014A000010000530055043C01000053003F039E1F
:1014B000000000290055049E00000029002A023C7B
:1014C00001000053003F03900155043C010000E37C
:1014D000012A023C01000053003F033C010000537D
:1014E0000055043C01000053003F039E000000290A
:1014F0000055049E00000029002A023C0100005310
:10150000003F03900155043C010000E30100008806
:10151000130180FCFEFFFFFFFFFFFFFFFFFFFFFF48
:10152000FFFFFFFFFFFFFFFFFFFFFFFFFFFFFFFFCB
:10153000FFFFFFFFFFFFFFFFFEFC01030707070799
:10154000070707070707070707070707070707072B
:10155000070707070707070707070F1F3F070703C7
:1015600001271000FCFE867E86FE0EB60EFE06EEFD
:1015700006FE06D6EEFE06FE06B64EFE06FE8E768B
:10158000AEFE6E56B6FE46FEFC00000103030303EA
:10159000030303030303030303030303030303031B
:1015A00003030303030303030303070F03030301FD
:1015B00000FCFEFFFFFFFFFFFFFFFFFFFFFFFFFF3E
:1015C000FFFFFFFFFFFFFFFFFFFFFFFFFFFFFFFF2B
:1015D000FEFC010307073F1F0F0707070707070761
:1015E000070707070707070707070707070707078B
:1015F000070301211000FCFE06D6F6FE06FE067E5D
:101600007EFE06EE06FE8E768EFEF606F6FE06568A
:1016100076FE46FEFC0000010303030F07030303ED
:10162000030303030303030303030303030303038A
:1016300003030303030100FCFEFFFFFFFFFFFFFFA7
:10164000FFFFFFFFFFFFFFFFFFFFFEFC0103070798
:101650003F1F0F07070707070707070707070703C6
:1016600001FCFEFFFFFFFFFFFFFFFFFFFFFFFFFF8C
:10167000FFFFFFFFFEFC0103070707070707070738
:10168000070707070F1F3F07070301151000FCFEA0
:1016900006DE06FE0656FE067EFE06D6EEFE46FE7A
:1016A000FC0000010303030F070303030303030309
:1016B0000303030303010000FCFE06DE06FE0656DC
:1016C000FE067EFE06D6EEFE46FEFC00000103038B
:1016D00003030303030303030303070F03030301CC
:1016E0000060FCFE7F7FFFFEFCF8F0F0F0F0E0E031
:1016F000C0000000000407070707070707070101EC
:1017000000100B609C8241618102041850D0D010FF
:101710002020C000000000040300040000000107B6
:10172000010100C0E0E0F0F0F0F0F8FCFEFF7F7F88
:10173000FEFC600001010707070707070707040011
:10174000000000100BC0202010D0D05018040281DF
:101750006141829C60000101070100000004000358
:1017600004000000002C0CFD0505B585CDFD050429
:10177000D41505CFFF0707D79767FF4F8797172720
:10178000FF4F87971727DFFF070301F14949F10151
:101790000305FD010A020503070306020B03060207
:1017A000070206020A020502060206010B020602F1
:1017B000060304010A040809080809080C020504C4
:1017C00010A854A850AA55AA55A050A040AA55AA9E
:1017D00055A854AA54AA55AA550410004040E054F4
:1017E000AA54A8005040E055AA55A8004040E05433
:1017F000AA54A80310000000AA55AAA050A0AA55F8
:10180000AAA854A8AA55AA041000008000AA55AAA4
:1018100055A050A040AA55AA55A854A850AA55AA08
:101820005504100040A050AA55AA55A050A040AAA7
:1018300055AA558040A040AA55AA55F8FCFEFFFFC6
:10184000FFFFFFFFFFFFFFFFFFFFFFFFFFFFFFFFA8
:10185000FFFFFFFFFFFFFFFFFFFFFFFFFFFFFFFF98
:10186000FFFFFFFFFFFFFFFFFFFFFFFFFFFFFFFF88
:10187000FFFFFFFFFFFFFFFEFCF8FFFFFFFFFFFF83
:10188000FFFFFFFFFFFFFFFFFFFFFFFFFFFFFFFF68
:10189000FFFFFFFFFFFFFFFFFFFFFFFFFFFFFFFF58
:1018A000FFFFFFFFFFFFFFFFFFFFFFFFFFFFFFFF48
:1018B000FFFFFFFFFFFFFFFFFFFFFFFFFFFFFFFF38
:1018C000FFFFFFFFFFFFFFFFFFFFFFFFFFFFFFFF28
:1018D000FFFFFFFFFFFFFFFFFFFFFFFFFFFFFFFF18
:1018E000FFFFFFFFFFFFFFFFFFFFFFFFFFFFFFFF08
:1018F000FFFFFFFFFFFFFFFFFFFFFFFFFFFFFFFFF8
:10190000FFFFFFFFFFFFFFFFFFFFFFFFFFFFFFFFE7
:10191000FFFFFFFFFFFFFFFFFFFFFFFFFFFFFFFFD7
:10192000FFFFFFFFFFFFFFFFFFFFFFFFFFFFFFFFC7
:10193000FFFFFFFFFFFFFFFFFFFFFFFFFFFFFFFFB7
:10194000FFFFFFFFFFFFFFFFFFFFFFFFFFFFFFFFA7
:10195000FFFFFFFFFFFFFFFFFFFFFFFFFFFFFFFF97
:10196000FFFFFFFFFFFFFFFFFFFFFFFFFFFFFFFF87
:10197000FFFFFFFFFFFFFFFFFFFFFFFFFFFFFFFF77
:10198000FFFFFFFFFFFFFFFFFFFFFFFFFFFFFFFF67
:10199000FFFFFFFFFFFFFFFFFFFFFFFFFFFFFFFF57
:1019A000FFFFFFFFFFFFFFFFFFFFFFFFFFFFFFFF47
:1019B000FFFFFFFFFF0001030707070707070707F0
:1019C00007070707070707070707070707070707A7
:1019D0000707070707070707070707070707070797
:1019E0000707070707070707070707070707070787
:1019F000070301003F33F804FA0D05E5E525252529
:101A00002525252525252525E525252525252525C6
:101A100025E5252525252525252525252565E5E5F6
:101A2000E5E52525252525252525252525E5E5E5A6
:101A3000050DFA04F8FF00FF0000FFFFFF000000A3
:101A4000000000FF1F1C18F8FF000000000000FF4E
:101A5000FFFF0000000000FFFFFF00000000008308
:101A6000FFFF000000000000FFFF3F38F8FFFF000D
:101A700000FF00FFFF00FF0000FFFFFF000000006D
:101A80000000FCF0F0F0FFFF000000000000FFFF8E
:101A9000FF0000000000FBFBF1000004040E3FFF0C
:101AA000FF000000000000FDFDE0E0FFFFFF000080
:101AB000FF00FFFF00FF0000FFFFCFC0C0C0C0C09D
:101AC000404F7F7F7F7F4FC0C0C04040404FFFCF1F
:101AD0004040C0C0C04F7F7FE04040404040FFCF0B
:101AE000C040404040C0CFCFC7C0F0FFFF0000FF64
:101AF00000FFFF00FF0000FFFF9F2F37470F9FFFF2
:101B00000000007F7F0080C1FF03FC000001FFFF99
:101B100000C0030F3F0000FFFF000000FFFF0300B5
:101B200000FFFEF89F2F37470F9FFFFF0000FF00C9
:101B3000FFFF00FF80003F3F3F3F3E3E3F3F2F20E3
:101B400020202F3F3F3F2F202D3D2D2020202F20D4
:101B50002F3F3C3020203F2F2020202F3F3C3020A3
:101B60002F27333F3F3E3E3F3F3F3F0080FF00FF78
:101B70000001020505050505050505050505050521
:101B80000505050505050505050505050505050505
:101B900005050505050505050505050505050505F5
:101BA0000505050505050505050505050201000EE8
:101BB00018FEFEFCF9F7FBF93143677FFFFFFFFFDB
:101BC000FFFFFFFFFFFFFFDFCE80303F7FFFFFFF04
:101BD000FFFFFFFFBFBF97C7F3F8FC010103060833
:101BE0000406CEBC98800000000000000000000049
:101BF0000020317FCFC08000000000000000404086
:101C000068380C07032A183F9FDFC3B1F9F9F3C7FF
:101C1000F1FCFEFCF1C7F3F9F9F3C7F7FBFBE78F23
:101C2000BF0F67E68E3C3977FBF93143677FFFFFD3
:101C3000FFFEFFFFFFFFFFFFFFFFFFFFFFFFFFFFB5
:101C4000FFFFFFFFFFFFFFFFFFFFFFFFFEFFF77339
:101C5000680C9FFFFFDFCE80303F7FFFFFFFFFFF5D
:101C6000FFFFFFFFFFFFFFFFFFFFFFFFFFFFFFFF84
:101C7000FFFFFFFFFFFFBFBF97CFEFE6E0F1BFBF62
:101C800097C7F3F8FCC060203C4E06060C380E03E4
:101C900001030E380C06060C38080404187040F0D6
:101CA000981971C3C6880406CEBC98800000000154
:101CB0000000000000000000000000000000000024
:101CC000000000000000000000000100088C97F3F5
:101CD00060000020317FCFC08000000000000000C5
:101CE00000000000000000000000000000000000F4
:101CF000000000004040683010191F0E4040683856
:101D00000C070323183F9FDFC3B1F9F9F347717C38
:101D1000FEFC71477379F9F3C7F7FBFBE78FBF0F41
:101D200067E78F3F3F7FFFFFFEFFF3F9F9F3F9FC11
:101D3000FEFEFEFCFEFEFFFFFEFCF9FDFCFCF8C112
:101D4000D39F1F3EFFF773680C9FFFFFFFFFFFFF4E
:101D5000FFFFFFFFFFFFFFFFFFFFFFFFFFFFBF7F53
:101D60007F3FBB93C5FCBEBF97CFEFE6E0F1C060FD
:101D7000203C4E06060CB88E8301038EB88C860676
:101D80000C38080404187040F0981870C0C0800027
:101D90000001000C06060C0603010101030101000D
:101DA00000010306020303073E2C60E0C100088C1B
:101DB00097F3600000000000000000000000000039
:101DC00000000000000000408080C0446C3A0341E5
:101DD00040683010191F0E1E18FFFFFFFFE77373D6
:101DE000E77399CCECCC19EDF4F6660CB9B33B393A
:101DF00079F183A73F3F7FBFBF9FA7B09ECFE69CEF
:101E00003F7F3F9F7FFFFFFF7E3F8FEF67F0F87FB1
:101E100077278BF8FCFFFF3F7FFFFF7FFFFFFF3F30
:101E20007FFFFF7EFEFEFF3F7FFFFF7EFEFEFF3F48
:101E30007FFFFF00000000188C8C188C6633133372
:101E4000E6120B0999F3464CC4C6860E7C58C0C0F6
:101E500080404060584F61301963C080C06080008E
:101E6000000081C07010980F078088D874070300A5
:101E7000E020408080008000E020408080018101DF
:101E8000E020408080018101E0204080801810FF28
:101E9000FFFFFF1FCFEFDF8FF3F9FDF9E3FDFEFE3C
:101EA000CCE1F7F7E7070FF7F7F3F4F6F3F9FCF3F4
:101EB000E7EFE7F3EFDFDFDFEFE7F1FDFCFEFF0029
:101EC000000000E0301020700C0602061C02010128
:101ED000331E080818F8F008080C0B090C06030C50
:101EE0001810180C1020202010180E0203010000FA
:101EF0008080C0C0C0FFFFFFFFFFFFFFFFFFFFFFAD
:101F0000FFFFFFFFFFFFFFFFFFFFFFFFFFFFFFFFE1
:101F1000FF80C1C3C3E3E3FFFFFFFFFFFFFFFFFF3E
:101F2000FFFF7FFFFFFFFFFFFFFFFFFFFFFFFFFF41
:101F3000FFFFFFC0E0E1E1E1E1FFFFFFFFFFFFFF87
:101F4000FFFFFFFF3F7F7F7FFFFFFFFFFFFFFFFFE1
:101F5000FFFFFFFFFF000000000000FFFFFFFFFF8B
:101F6000FFFFFFFFFFFF0000000000000F1F3F7F8B
:101F7000FFFFFFFFFFFFFF1140008080404040BF98
:101F80008040DFDF10D7EAEA6D75FF00F6F77B7857
:101F90007B7A393D3D3E3E3E1E1F1F80414242A29C
:101FA00022BEA2A2BE9E10D6D4D5E8EA7F803B3BDB
:101FB0003B383B393D3D3D3C3D3D3D3D3DC020A195
:101FC000A1A121BFA1A1BCBE20AEA8AAA8AA3F4042
:101FD0005D5DBDBC3B3A3A7B7B78F7F7F7F7F700DE
:101FE0000000000000FF0101FAF4FAF4F8F4E8F14F
:101FF0000000000000000F1020478F3F7FFFFFFF11
:10200000FFFFFFFFFFFFFFFFFFFFFFFFC0C0C0801C
:102010008000FFFFFFFFFFFFFFFFFFFFFFFFFFFF4E
:10202000FFFFFFFFFFFFFFFFFFFFFFFFFFFFE3E3F8
:10203000C7C7C381FFFFFFFFFFFFFFFFFFFFFFFFDA
:10204000FFFFFFFF7FFFFFFFFFFFFFFFFFFFFFFF20
:10205000E1E1E1E1E0C0FFFFFFFFFFFFFFFFFFFF66
:10206000FFFFFFFFFF7F3FFFFFFFFFFFFFFFFFFFC0
:10207000FFFF010100000000FFFFFFFFFFFFFF7FE8
:102080003F1F070000000000001140756DEAEAD70D
:1020900010DFDF4080BF4040408080001F1F1E3E99
:1020A0003E3E3D3D397A7B787BF7F600FFEAE8D586
:1020B000D4D6109EBEA2A2BE22A2444442813D3D7F
:1020C0003D3D3D3C3D3D3D393B383B3B3B807FAA60
:1020D000A8AAA8AE20BEBCA1A1BF21A1A1A120C0D9
:1020E000F7F7F7F7F7787B7B3A3A3B3C3D9D9D400D
:1020F0003FF1E8F4F8F4FAF4FA0101FF01010000FD
:102100000000FFFFFFFF7F3F8F4720100700000008
:10211000000000800DFFFFFFFFFFFFFFFFFFFFFF3D
:10212000FFFFFFFFFFFFFFFFFFFFFFFFFFFFFFFFBF
:10213000FFFFFFFFFFFFFFFFFFFFFFFFFFFFFFFFAF
:10214000FFFFFFFFFFFFFFFFFFFFFFFFFFFFFFFF9F
:10215000FFFFFFFFFFFFFFFFFFFFFFFFFFFFFFFF8F
:10216000FFFFFFFFFFFFFFFFFFFFFFFFFFFFFFFF7F
:10217000FFFFFFFFFFFFFFFFFFFFFFFFFFFFFFFF6F
:10218000FFFFFFFFFFFFFFFFFFFFFFFFFFFFFFFF5F
:10219000FFFFFFFFFF1F1F1F1F1F1F1F1F1F1F1FEF
:1021A0001F1F1F1F1F1F1F1F1F1F1F1F1F1F1F1F3F
:1021B0001F1F1F1F1F1F1F1F1F1F1F1F1F1F1F1F2F
:1021C0001F1F1F1F1F1F1F1F1F1F1F1F1F1F1F1F1F
:1021D0001F1F1F1F1F1F1F1F1F1F1F1F1F1F1F1F0F
:1021E0001F1F1F1F1F1F1F1F1F1F1F1F1F1F1F1FFF
:1021F0001F1F1F1F1F1F1F1F1F1F1F1F1F1F1F1FEF
:102200001F1F1F1F1F1F1F1F1F1F1F1F1F1F1F1FDE
:102210001F1F1F1F1F800DFEBEBEBEBEBEBEBABAB0
:10222000BA3A3ABABA9A8AAAA2B2B2BAB8B8BABA9A
:10223000BEBEBEBEBEBEBEBEBEBEBEBEBEBEBEBEBE
:10224000BEBEBABABABA3A1A8AA2B0B8BABABEBE52
:10225000BEBEBEBEBEBEBEBEBEBEBEBEBEBEBEBE9E
:10226000BEBEBEBEBEBABAB8A0021ABABABABABA2E
:10227000BEBEBEBEBEBEBEBEBEBEBEBEBEBEBEBE7E
:10228000BEBEBEBEBABABABAB8B8B8B0A2820A1A4E
:102290003ABABABABABABA1F1F0717131B191D1CCC
:1022A0001E1F1F1F1F1F1F1F1F1F1F1F1F1F1F1F3F
:1022B0001F1F1F1F1F1F1F1F1F1F1F1F1F1F1F1F2E
:1022C0001F1F1F07111C1E1F1F1F1F1F1F1F1F1F48
:1022D0001F1F1F1F1F1F1F1F1F1F1F1F1F1F1F1F0E
:1022E0001F1F1F1F1F1F1F1F1F1F1C10030F1F1F3C
:1022F0001F1F1F1F1F1F1F1F1F1F1F1F1F1F1F1FEE
:102300001F1F1F1F1F1F1F1F1F1F1F1F1F1F1F1EDE
:10231000181001030F1F1FF8FFFFFEFCFCFCFC035D
:1023200003030303030303080A28070922142408EC
:102330000401010201010101018D1ED71D031D05CC
:102340001CAF1B94023200B8013200B4003200000E
:102350008004087EFF817E82FEFF80C6A19FCE663C
:1023600089FF7638ACFFB06F89F9707EFF8578837E
:10237000F1FD83768D99761EBFA17E18BCFEFFFF0E
:10238000FEFCFEFFFFFEBC1803070F1F1F0F070F09
:102390001F1F0F07030D0D18A4422151EAF4E2415B
:1023A0008142A418030408101008050A111008043B
:1023B00003F0F8FCFEFFFFFFFF0707FFFFFFFFFF33
:1023C000FFFFFF0000010307070707070700000AD8
:1023D00013F008F412B535E5050101FF00EF0828F8
:1023E0008CEF000000010205050505010000003C1E
:1023F0003E3F3F3F3E3C07063C023D0105023C3C60
:102400000205013D023C0000000080C0E0E0E0E089
:10241000E0E0E0E0E0E0E0E0FCFEFFFFFFFEFCC00B
:1024200080000000000000FEFFFFFFFFFFFFFFFF36
:10243000FFFFFFFFFFFFFFFFFFFFFFFFFFFFFFFFAC
:10244000FFFCF8000000FFFFFFFFFFFFFFFFFFFFA3
:10245000FFFFFFFFFFFFFFFFFFFFFFFFFFFFFFFF8C
:10246000FFFF00060F0F1F1F1F3F7F7F7F7F3F1F54
:102470001F1F1F1F1F1F1F3F7F7F7F7F3F1F1F1FAC
:102480000F071F1F000000008040A0A0A0A0A0A078
:10249000A0A0A0A0A0A0BC828581BD823C408000FD
:1024A0000000000000FE01FC85FD01FF03FDBDDD15
:1024B000EDBD9D85FD03FF0305BDDDAD3C38030487
:1024C000F8000000FF0082B24ABBBBBBBA7AFACA6E
:1024D000CE8686CECBFB7BBABABAB26AE2EA00FFFE
:1024E0000006090A16111623414C44412316111304
:1024F000131313111623414C4441231611170807D7
:10250000F8FCFEFFFFFFFFFFFFFFFFFFFFFFFFFFE6
:10251000FFFFFFFFFFFFFFFFFFFFFFFFFFFFFFFFCB
:10252000FFFFFFFFFFFFFFFFFFFFFFFFFFFFFFFEBC
:10253000FCF8FFFFFFFFFFFFFFFFFFFFFFFFFFFFB5
:10254000FFFFFFFFFFFFFFFFFFFFFFFFFFFFFFFF9B
:10255000FFFFFFFFFFFFFFFFFFFFFFFFFFFFFFFF8B
:10256000FFFFFFFF070F1F3F3F3F3F3F3F3F3F3F03
:102570003F3F3F3F3F3F3F3F3F3F3F3F3F3F3F3F6B
:102580003F3F3F3F3F3F3F3F3F3F3F3F3F3F3F3F5B
:102590003F3F3F1F0F07321600F804F20A0A0A0AEB
:1025A0000A0A4ACACA4ACA8A0A4ACACA0A0ACACA0B
:1025B0000ACACA0A8ACA4ACA8A0A4ACACA4ACA0A7B
:1025C0000A0A0A0A0A0AF204F80000FF00FF0000E3
:1025D0000000000080FFFF880F0380FE27FFF880C7
:1025E0003FFF80FF3F0043C78EFC780080FFFF84E1
:1025F000CE00000000000000FF00FF0000070813ED
:10260000141414141414141414141414141414148A
:10261000141414141414141414141414141414147A
:102620001414141414141414141413080700F8FCCC
:10263000FEFFFFFFFFFFFFFFFFFFFFFFFFFFFFFFAB
:10264000FFFFFFFFFFFFFFFFFFFFFFFFFFFFFFFF9A
:10265000FFFFFFFFFFFFFFFFFFFFFFFFFFFFFFFF8A
:10266000FFFFFFFFFFFFFFFFFFFFFFFEFCF8FFFF85
:10267000FFFFFFFFFFFFFFFFFFFFFFFFFFFFFFFF6A
:10268000FFFFFFFFFFFFFFFFFFFFFFFFFFFFFFFF5A
:10269000FFFFFFFFFFFFFFFFFFFFFFFFFFFFFFFF4A
:1026A000FFFFFFFFFFFFFFFFFFFFFFFFFFFF070F22
:1026B0001F3F3F3F3F3F3F3F3F3F3F3F3F3F3F3F4A
:1026C0003F3F3F3F3F3F3F3F3F3F3F3F3F3F3F3F1A
:1026D0003F3F3F3F3F3F3F3F3F3F3F3F3F3F3F3F0A
:1026E0003F3F3F3F3F3F3F3F3F3F3F1F0F074016AA
:1026F00000F804F20A0A0ACA4ACACA0A0A4ACACA34
:102700000A0A4ACACA0ACACA4A4ACACA4ACA0A0AE9
:102710000A0A0ACA4ACA0A4ACACA0ACA4A4ACACAD9
:102720004ACA0A4ACACA4ACA8A0A0A0AF204F80003
:1027300000FF00FF00003FFF807CFD0480FE27FFBC
:10274000F88080FF1F0EFFFF8080FFFF84CE000017
:1027500000003FFF80FF3F0003FFFC070080FFFFFA
:1027600084CE0080FFFF08FFF3800000FF00FF0021
:102770000007081314141414141414141414141447
:102780001414141414141414141414141414141409
:1027900014141414141414141414141414141414F9
:1027A0001414141414141414141414141308070017
:1027B00080C0E0F0E0C4CEFFFFFFFFCEC4E0F0E059
:1027C000C08003173F7FFFFFFFFFFFFFFFFFFFFFFB
:1027D0007F3F17030000000000010100000000011E
:1027E00001000000000000000000C0E4CEFFFFFF79
:1027F000FFCEE4C0000000000000001FBFFFFFFF8D
:10280000FFFFFFFFFFBF1F000000000000000001EE
:1028100001000000000101000000000000000000B5
:10282000C0E4CEFFFFFFFFCEE4C0000000000000C8
:10283000000087DFFFFFFFFFFFFFDF8700000000D2
:102840000000000000010100000000010100000084
:102850000000000000000004CEFFFFFFFFCE0400D8
:10286000000000000000000080D8FDFFFFFFFFFD1A
:10287000D8800000000000000000000101000000FE
:10288000000101000000000012118040A01020C4CF
:10289000CA35151535CAC42010A04080021528512C
:1028A000C65865BA8181BA6558C65128150200001C
:1028B0000000000101000000000101000000000014
:1028C00000000000C024CA35151535CA24C0000018
:1028D00000000000001FA05865BA8181BA6558A0A9
:1028E0001F000000000000000001010000000001C6
:1028F00001000000000000000000C024CA351515CA
:1029000035CA24C00000000000000000875865BAE6
:102910008181BA65588700000000000000000001B6
:1029200001000000000101000000000000000000A4
:102930000004CA35151535CA040000000000000067
:102940000000805865BA8181BA6558800000000097
:102950000000000000010100000000010100000073
:1029600000003E7F3E7F3E7F7F3E7F7E3E7F3F0E6C
:102970002E7F2E11073E4136413E41553E415E3E7F
:1029800041350A2E512EC0E0E0F0F0F0F0F8FCFEE8
:10299000FF7F7FFEFC6000010107070707070707AD
:1029A000070400000000100BC0202010D0D05018E9
:1029B0000402816141829C60000101070100000066
:1029C00004000304000000000E0E0E1F1F1F1F1F37
:1029D0001F0E0E0E001C1F1F1F1F1F1F1F1F070093
:1029E00000071F1F1F1F1F1F1F1F1C000C050E0AA3
:1029F0000E1F151F1F151F0E0A0E000400000A00EF
:102A0000000A00000400001C171D1F171D1F171DC2
:102A1000070000000802000802000802000000078A
:102A20001D171F1D171F1D171C00000002080002A4
:102A3000080002080000C0E0E0F0FCFEFFFFFFFE1F
:102A4000FFF6F8F0F060003179797D3F0F0F0F0F3E
:102A500007070F1E0F060E1F1FFEF8F0FFFFFFFFF8
:102A6000FCF8F8F0E000000010397F7F2F3F7F7FF7
:102A70003F0B0707020030F8BCF8F0F0F8F8F8F860
:102A8000FEDFCFCFC6800307070F377F3F7F7F7FF3
:102A90003F1F07030301A0F0F0E8FEFFFFFEFAFF6F
:102AA000FFCE0400000003070F0F1F7F7F7F7F070B
:102AB0000F3F7C7C38000030F8FCFEFEFEFC7E3CC4
:102AC000F8F8F0C00000163F3F1F0F1F3F3F3F3F89
:102AD0001F1F1F1F1F0E00C6EFFEFFFFFEFCFCFEA8
:102AE000FEFCF870000000033F7F7F7F3F3C3D1FEE
:102AF0001F0F03010000387CFCFCFCFC7E7EFEFE08
:102B0000FCF8FCFE7E34000001070F0F1E3F1F3F44
:102B10003F3F1F0F06000040E0F8FCFCDE9EFEFF7A
:102B2000FFFFFEE0000000070F1F3F3F1F1F3F7F1A
:102B30007F3F7B310000100FC02020107CC2810934
:102B4000191A6936889090600031494945320A085F
:102B500008080505091209060E1111E608300F31A3
:102B6000190B8CC80810E0000000102946502E38C0
:102B70004346350B0405020030C8A4C8505008086D
:102B800008A8A6514949468003040408364B2D4C39
:102B90004840211F04020201A05010E8D631610E06
:102BA0003A0531CA040000000304080918684C46BD
:102BB00078060833444438000030C884020222B446
:102BC000523CC80830C000001629241E08102020DE
:102BD000232D16161711110E00C6291A0D09028C85
:102BE00004C282048870000000033C424E5D33241E
:102BF0002512130E020100003844C47434B45A6222
:102C000082020408BC924A340000010608091E250D
:102C100016222020100906000040A038E4A4529299
:102C2000665D39211EE00000000708102021101801
:102C30002048582C4A3100000000000070F8FCFECB
:102C4000FEFFFFFEFC60000000000000000000002E
:102C5000000000000060FCFEFFFFFEFEFCF87000BC
:102C60000000000080800082C7E7FFFFFFFFFFFE3B
:102C7000FCFCFC3838383838383838B8B838FCFC00
:102C8000FCFFFFFFFFFFFFC7870200000000070FE8
:102C90001F1F0F07010100040E1F3F3F1B01000013
:102CA000000000000003070F1F0F070100000000D5
:102CB0000F1F1F1F1E0C0000000000000070F8FC1A
:102CC000FEFEFFFFFEFC60000000000000000000B0
:102CD00000000000000060FCFEFFFFFEFEFCF8703C
:102CE000000000000000000002C7E7FFFFFFFFFF39
:102CF000FEFCFCFC38B8B838383838383838B8FCFE
:102D0000FCFCFFFFFFFFFFFFC78702808000000081
:102D100000000C1E1F1F1F0F0000000001070F1FE7
:102D20000F0703000000000000011B3F3F1F0E04BF
:102D3000000101070F1F1F0F07002B1600000000E6
:102D400070880402160141229C600000000000000F
:102D5000000000000000000000609C2241011602FB
:102D600004887000000000008080008245243E80BE
:102D7000808091322444C42828282828282828A87C
:102D8000A828C4442493918080003E44850200001A
:102D90000000070810110806010100040A1121248F
:102DA0001A010000000000000003040811080601D9
:102DB000000000000F101213120C000000000000B1
:102DC0000070880402160141229C6000000000008F
:102DD00000000000000000000000609C224101167D
:102DE00002048870000000000000000002C5243EBC
:102DF00000808091B22444C428A8A8282828282824
:102E00002828A844442493918080003E4485028071
:102E10008000000000000C121312100F00000000D0
:102E200001060811080403000000000000011A2434
:102E300021110A0400010106081110080700092FDA
:102E400011241FBECFEFDAE0DEBFCDBF11E0A0E05E
:102E5000B1E0E6EEF7E602C005900D92AA37B107A1
:102E6000D9F726E0AAE7B1E001C01D92A936B20762
:102E7000E1F717E1C0E2D7E104C02197FE010E940B
:102E8000DF33CF31D107C9F70E94C12F0C94F13342
:102E90000C940000FC01DB0111969C911197953078
:102EA000C9F48CE9858382E7868353964D915C91C2
:102EB0005497949F9001959F300D11241E968D91EB
:102EC0009C911F978D96820F931F57969C938E937C
:102ED000569705C080E6858355968C918683178228
:102EE00012861386108680E28187089580915602AB
:102EF000E0915402F0915502882349F0CF010296E7
:102F00009093550280935402859194910895CF0136
:102F10000296909355028093540280819181089586
:102F20000895FF920F931F93CF93DF93EC018B01D2
:102F3000FB01F084F0948781F822858180FD7EC0BA
:102F40008F816AE00E949D33982F4985817090FDA2
:102F50008EC060E00E94B828F80161818F816530E1
:102F6000A9F5823A38F48B3588F48C3358F08C34D8
:102F7000E0F561C08F3B30F18F3B09F05CC040E071
:102F800065E056C08D8181508D8355C081E08A8770
:102F9000F8018581968183709927892B09F04BC0B0
:102FA0008E81863130F4833140F4823109F443C09C
:102FB00006C08B3120F4825003C0815001C0835081
:102FC0008E8339C089858150898729C08D3838F42E
:102FD000843728F5853178F1893250F406C0843B76
:102FE00000F1843B41F540E023C081E08A8723C0A3
:102FF00081E08A87F8018581968183709927892BE2
:10300000D1F42885822F90E00196959587959E8131
:10301000890F8E83253078F42F5F28870CC01A869D
:103020000AC08D818F5F8D8389858150898703C018
:10303000C8010E943E298F818F5F8F83F3FE06C0F7
:1030400040E0F8016181C8010E943E29F8018581B4
:1030500096816CE070E00E94B733892B59F48E8121
:10306000823141F09B8581E089278B8703C0842FC3
:1030700040E06FCFDF91CF911F910F91FF900895A6
:10308000CF92DF92EF92FF921F93CF93DF93EC01E9
:10309000FB0117812D812F3F09F482C08581968124
:1030A0006CE070E00E94B7336C01892B09F085C099
:1030B00017FF20C0CE0136E0239F800D911D112403
:1030C0000B962E81FC01E20FF11D20812F5F2083E2
:1030D0002E81FC01E20FF11D20812B3514F021E43B
:1030E00020832E81FC01E20FF11D8081803411F4D8
:1030F00081E4808314FF17C08D81FE0146E0849F28
:10310000E00DF11D11243B968E81DF01A80FB11D4A
:103110008C9181508C938E81E80FF11D80818134D8
:1031200014F48AE5808315FF05C08E81882311F091
:1031300081508E8316FF05C08E81823010F48F5F20
:103140008E8313FF3AC08D81FE0156E0859FE00D0E
:10315000F11D11243B9680818F3379F181818F336A
:1031600061F182818F3349F17F01F70161917F0124
:103170008D81960146E0849F200D311D1124C901E7
:1031800083589F4F0E941A335FEFC51AD50A83E018
:10319000C816D10451F78FEF8D8384E688870DC060
:1031A0009085909591239C7041F08885811105C090
:1031B00040E062E0CF010E943E2910769F811036E8
:1031C00009F59F5F9F83953128F19D3378F09D33FA
:1031D00009F51F8240E060E080E00E94B8280E946C
:1031E000C428CE0109960E94DE2914C020E430E0F4
:1031F000F901E91BF109CF0140E060E0880F0E946E
:10320000B82808C0992331F040E060E080E00E94D7
:10321000B8281F828885882311F081508887DF9124
:10322000CF911F91FF90EF90DF90CF9008956F9214
:103230007F928F929F92AF92BF92CF92DF92EF9246
:10324000FF920F931F93CF93DF9300D000D000D055
:10325000CDB7DEB77C015B01DC0116961C92169798
:1032600017961C92179784E618968C93FB01C684D8
:10327000D784C114D10409F455C08BE790E00E94B3
:103280000433C816D906A0F481E890E00E94043304
:10329000C816D90690F487E890E00E940433C81657
:1032A000D90608F43FC087E8682E712C12E026C0CA
:1032B00010E03BE7632E712C04C011E021E8622E80
:1032C000712C97E8892E912C02E00150F6E00F9FB7
:1032D000B001112465587F4F46E050E0CE010196C1
:1032E0000E94EC3246E050E0B401CE0101960E940B
:1032F0000A3386E0881A9108101738F3FE013196D8
:1033000086E0DF011D928A95E9F79FE39B839C830A
:103310009D83DA82C98246E050E0B301CF010E946A
:103320000A3301C01FEFF7011583D50118961C92CF
:10333000189717961C92C70109960E94DE292696B7
:103340000FB6F894DEBF0FBECDBFDF91CF911F91B6
:103350000F91FF90EF90DF90CF90BF90AF909F9034
:103360008F907F906F900895EF920F93CF93DF939C
:10337000C0E0D0E0E12C00E027E133E247E253E295
:103380006BE370E0CE010E943E2C2896C038D10538
:1033900089F7DF91CF910F91EF900895AF92BF928F
:1033A000CF92DF92EF920F93CF93DF93EC016B01FB
:1033B0005B0182E0A80EB11C20E041E0CE010E943A
:1033C000FF2C8E81843658F40B85E02E2BEA31E0F9
:1033D0004DEA52E06AE270E090E00E943E2CE12C5F
:1033E00000E029E831E049E951E06CE170E088E66D
:1033F00090E00E943E2CF601218D47EC50E066E201
:1034000070E088E690E00E942E2CCE010E94B41954
:103410000A852FE14D81B601CE010E94772CF6017D
:10342000618DC501DF91CF910F91EF90DF90CF902B
:10343000BF90AF900C940F29E1E7F0E080818D7F81
:1034400080831092910046984798109253020895F5
:10345000CF92DF92EF92FF920F931F93CF93DF9360
:103460000E947617811520E8920751F4DF91CF91E1
:103470001F910F91FF90EF90DF90CF900C941C1A4A
:1034800021E020935302813020E8920751F480918B
:1034900051029091520290935502809354020E94DF
:1034A000761797FD05C020915002222309F440C0F1
:1034B00020914F0221113CC021E020935702EC01E2
:1034C000DF77209769F481E08093580246983FE9BE
:1034D000C32E3FE0D32EE12CF12CCAEFD0E014C074
:1034E0008E0120E030E060E472E48FE090E0A9011A
:1034F00098010E943A3369017A0181E0C81AD10823
:10350000E108F10810925802E0915D02F0915E022C
:103510000995811103C081E0809358028091570280
:10352000882309F43FC08091580281113BC003C039
:1035300010925702C4CF469935C0479A0E94761719
:10354000009771F09C01DE010E948E33DC01CB01FB
:1035500029E0B595A795979587952A95D1F703C04A
:103560008FEF9FEFDC01109290002AE020939100F2
:10357000D0929900C09298008093590290935A0279
:10358000A0935B02B0935C02809171008260809393
:103590007100DF91CF911F910F91FF90EF90DF901D
:1035A000CF9008954798CACF1F920F920FB60F92EF
:1035B00011242F933F934F935F936F937F938F9338
:1035C0009F93AF93BF93EF93FF9380915902909194
:1035D0005A02A0915B02B0915C02892B8A2B8B2B43
:1035E00081F18091580281110BC098B180E4892744
:1035F00088B980915702882319F088B1805888B91A
:103600008091590290915A02A0915B02B0915C02A4
:10361000181619061A061B06B4F4809159029091E7
:103620005A02A0915B02B0915C020197A109B10915
:103630008093590290935A02A0935B02B0935C026C
:1036400002C00E94281AFF91EF91BF91AF919F9104
:103650008F917F916F915F914F913F912F910F903B
:103660000FBE0F901F9018959C01E1E7F0E090814C
:103670009D7F908381E08093560230935502209382
:10368000540230935202209351020C94281A4F9204
:103690005F926F927F929F92AF92BF92CF92DF9292
:1036A000EF92FF920F931F93CF93DF93EC018B0167
:1036B000DB011796DC908F8D882341F081508F8F2E
:1036C000811104C040E060E00E94B8288C81811123
:1036D000F2C0F8018581968187709927892B39F48A
:1036E0008C8D8F5F843011F08C8F01C01C8ED801BF
:1036F00050968C91833040F4898D9A8D1816190656
:103700001CF401979A8F898F8D8D882311F0815039
:103710008D8F8E8D882311F081508E8FE98DFA8DDB
:10372000CF0160E87CE00E94CB330996439758F5BF
:10373000D80153968D919C9154972AE0289FA0011F
:10374000299F500D112420E931E0241B350B39A3AA
:1037500028A365E0689FA001699F500D112488ECA3
:1037600090E0841B950B9BA38AA3253B310520F099
:1037700024EB30E039A328A38536910520F084E6B8
:1037800090E09BA38AA3D80150968C912D813E8115
:103790008330A8F02938BFEF3B0764F0F80185813A
:1037A000968165E070E00E94B733892B79F522504D
:1037B000310912C081E0D80158968C9327C037FF99
:1037C0000EC0F8018581968165E070E00E94B733F4
:1037D000892BE1F42E5F3F4F3E832D8317C0EF2BE3
:1037E00009F095C0283C310534F4D80115968D9127
:1037F0009C911697E9CFF801838994890196948B5F
:10380000838B45E064E0C8010E943E29F801858170
:1038100080FD1FC08B898150803C11F08B8B01C0D3
:103820001B8A29AD222329F08C899D8901979D8BC4
:103830008C8B898D9A8D892B61F421110AC081E0CE
:1038400089AF8B89082E000C990B80549F4F9D8B5C
:103850008C8BD80115968D919C91169763E070E042
:103860000E94B733823039F08E898150803F11F049
:103870008E8B01C01E8AF8018581968183709927FD
:10388000833039F08F898250813E14F08F8B01C0D4
:103890001F8AD80115968D919C91169765E070E06E
:1038A0000E94B733833038F4888D8350813E14F002
:1038B000888F01C0188EF8018581968166E070E0DE
:1038C0000E94B733892B99F0B801CE01DF91CF91D7
:1038D0001F910F91FF90EF90DF90CF90BF90AF902E
:1038E0009F907F906F905F904F900C945329FE01B2
:1038F0009E012C5F3F4F81858F5F863011F081875D
:1039000001C0118631962E173F07A9F7DDCF7E0142
:10391000F4E2EF0EF11C5E0149E3A40EB11CF701C5
:10392000EA15FB0519F016823796FACFD5FE04C0CA
:103930002115310509F03EC1D80115968D919C9154
:10394000169763E070E00E94B7338230D1F1D6FE63
:1039500038C06D817E81663471059CF56F5F7F4F45
:103960004F81CE010E94A829C82E8FEFC81609F4F6
:1039700026C18C8581110AC081E08C87B801CE01F7
:103980000E946D298FEB93E00E94341B8D819E81F4
:103990004F962C2D30E0FE01B7E0CB9EE00DF11DDF
:1039A000112495A384A3833E9F4F0CF411A687E0B6
:1039B000829FF001839FF00D1124EC0FFD1F81E029
:1039C00082A7D7FE19C04F814830B0F041506D81B9
:1039D0007E81CE010E94A8298F3F09F4F6C0898517
:1039E00081110AC081E08987B801CE010E946D294A
:1039F0008FEB93E00E94341B8D85811120C0D7FC92
:103A00001BC04F8141506D817E81CE010E94A8294B
:103A10008F3F71F0898581110FC081E08987B801DE
:103A2000CE010E946D298FEB93E00E94341B04C0ED
:103A30008F8181508F831D86CE010E949D298D2DFF
:103A40008071C82ED4FE19C04F814132B0F44F5F4F
:103A50006D817E81CE010E94A8298F3F09F4BAC0F2
:103A60008A8581110AC081E08A87B801CE010E944F
:103A70006D298FEB93E00E94341BDD8491E0D91215
:103A80001FC0C1101AC04F814F5F6D817E81CE0172
:103A90000E94A8298F3F69F08A8581110EC0DA86BD
:103AA000B801CE010E946D298FEB93E00E94341B78
:103AB00004C08F818F5F8F83DD86CE010E949D2998
:103AC000898D9A8D8D3291400CF46AC0670192E025
:103AD000492E512C612C712C99249394AC14BD0463
:103AE00009F45EC0F6018581882379F1F7E0CF0EF5
:103AF000D11CF4CF0E94953223E030E040E050E04A
:103B00000E943A33F60162830E949532A30192012A
:103B10000E943A33D60113966C930E949532A3010A
:103B200092010E943A33DC01CB010296A11DB11D26
:103B3000F60184839582328140815181F70120E032
:103B4000EA15FB05D1F4213089F20E9495322CEA66
:103B500030E040E050E00E943A33DC01CB01805875
:103B60009F4FAF4FBF4FF60191838083833E9F4F9E
:103B70000CF6D60115961C92BDCF8581882371F075
:103B8000828138130BC080819181841B950B97FF34
:103B900003C0919581959109C39714F13796D0CFC1
:103BA000298D3A8D89892D3231400CF40AC1882340
:103BB000C9F007C1215031093E832D83BDCE8D81CF
:103BC0009E8101969E838D83FCCE8F8181508F8351
:103BD0001D8612CF8F818F5F8F8381E08D874DCFC0
:103BE0002F5FDCCF8A8981111BC00E94953224EDA2
:103BF00030E040E050E00E943A33DC01CB018058D5
:103C00009F4FAF4FBF4F9F878E870E94953223E013
:103C100030E040E050E00E943A33688B81E08A8BCC
:103C2000D80115968D919C91169763E070E00E94E3
:103C3000B7338230F1F18A898823D9F18E859F8547
:103C400001979F878E87089679F41A8A0E94953289
:103C50002AE530E040E050E00E943A33DC01CB013D
:103C60000A96A11DB11D898B2E853F858D819E8170
:103C7000A901485F5F4F84179507DCF44F9628171A
:103C80003907BCF42889EEE02E9F900111248F8122
:103C900090E0BC016B5E7F4FA9014D5D5F4F6417E3
:103CA00075073CF4255E3F4F4F96281739070CF4F3
:103CB0008BC0DD24D394AE14BF0409F44FC0D701E8
:103CC00015968C911597882309F444C016968C910B
:103CD000811140C0F7016281208131814F818D8146
:103CE0009E81FC01B0962E173F070CF084C0D901CD
:103CF0001296FC017E96EA17FB070CF07CC050E0A0
:103D0000BEE06B9FB0011124DB015B96FA017F9648
:103D1000AE17BF070CF06FC04B5E5F4F6B5D7F4F00
:103D2000461757070CF067C04F96F70191838083C1
:103D3000833E9F4F1CF4D70115961C928C858111F0
:103D400009C0DC86B801CE010E946D298FEB93E09B
:103D50000E94341BB7E0EB0EF11CADCF87E0F82ECC
:103D6000FE0140E050E0E42EDE0160E070E0E61687
:103D700009F181A58823F1F099968C919997882370
:103D8000C9F096969C91969786A1981313C0A4A00B
:103D9000B5A094962D913C9195976501C21AD30ACE
:103DA000D7FE03C0D194C194D1088FE1C816D104C5
:103DB0000CF43FC06F5F7F4F179663307105B9F603
:103DC0005BC08150898B2CCF40E060E280E00E9494
:103DD000B8288AE08F8FD8011E968D919C911F97ED
:103DE00002961F969C938E931E971A8A81EB93E0FE
:103DF0000E94341B5ECFF701648170E0D8011596F4
:103E00008D919C9116970E94B733882319F081E019
:103E100090E002C082E090E0281B390BF70131836B
:103E20002083233E3F4F0CF095CFD70115961C926F
:103E300091CF2A153B057CF4215E3F4FF49EF001A3
:103E4000F59EF00D1124EC0FFD1F35A324A3233E96
:103E50003F4F84F085CFC5014F96F69EF001F79E47
:103E6000F00D1124EC0FFD1F95A384A3833E9F4FFB
:103E70000CF076CF11A674CF4F5F5F4F379643306B
:103E8000510509F070CFC2CCFC01DB0158961C92A1
:103E900013AA14AA88EC90E096AB85AB17AA10AED3
:103EA00011AE17A612AA12AE82E181A71482DF0119
:103EB0001596B996AE17BF0741F017961C92179743
:103EC00016961C9216971996F5CF8BEF94E2909365
:103ED0005E0280935D0208952F923F924F925F920F
:103EE0006F927F928F929F92AF92BF92CF92DF920A
:103EF000EF92FF920F931F93CF93DF9300D01F9207
:103F0000CDB7DEB79B838A838B01DB011796BC910B
:103F1000B983FC0181AD882341F0815081AF8111CB
:103F200004C040E060E00E94B828AA81BB811496DA
:103F30008C91149781112AC37D01B9E2EB0EF11C1B
:103F4000F8018581968165E070E00E94B733892B86
:103F500009F0D7C0AA81BB8199968C9199976D0180
:103F6000B5E0CB0ED11C53E0452E6BE2362E72E04D
:103F7000672E22242A948C5E882E912CAA24A39446
:103F8000EAE05E2EFAEF7F2ECE14DF0409F4B9C00A
:103F9000F6018781882309F4B0C080818636B9F4A0
:103FA000D8011E968D919C911F9705961F969C9304
:103FB0008E931E9740E060E280E00E94B82880E285
:103FC0009AE00E94341BEA81FB8151AE26C0238116
:103FD000885F90E08819990997FF03C091958195B2
:103FE00091092A3021F0203211F0263329F48B3048
:103FF000A0F4F601A08611C02B3021F0213211F07F
:10400000273349F4D60118969C91911114C38B3033
:1040100008F023C310C3F6011086D60116968C91C2
:104020001697811107C013969C9113979F5F139663
:104030009C9302C0F6012382D60113962C9113970C
:104040002B3431F413961C92139717961C9255C07B
:10405000823009F445C060F4882391F0813009F082
:104060004AC0F60180818F5F80833182668245C0BD
:104070008D3308F040C08F5FD60116968C933DC0FB
:10408000822F90E02B30D8F4D6011296EC91129743
:10409000F0E0EE0FFF1FEE5AFE4F20813181880FB6
:1040A000991FF901E80FF91F45915491F6014083DA
:1040B000FC013196E20FF31F859194910EC0880F99
:1040C000991F8751974FFC0125913491F601208368
:1040D000FC01319685919491D60111968C930DC077
:1040E000D6018C918F5F8C93E2E31196EC9311973C
:1040F00016964C9202C0F6011782F9E0CF0ED11C41
:1041000043CFD80150968C91833098F0EA81FB819F
:10411000359681E0EE15FF0561F09781992339F01E
:104120009681911104C09581992309F4EDC23996C5
:10413000F1CFF801858196816FE070E00E94B7337E
:10414000892B91F4EA81FB813596EE16FF0661F02A
:104150008781882339F084818F5F883011F08483D0
:1041600001C014823996F1CFAA81BB81DA968C9175
:10417000DA978111FEC0D5968D919C91D6970197C3
:104180008E3FBFEF9B0720F4EA81FB8196AB85ABA6
:10419000AA81BB81D596ED91FC91D697309709F015
:1041A000E8C0D8011E962D913C911F97283EB3E0A0
:1041B0003B0758F488EE93E0821B930B6AEF70E0A4
:1041C0000E94B7336D5F7F4F02C063E070E0AA8149
:1041D000BB8115964CE250E086E1C82ED12CEA1640
:1041E000FB0669F4AA81BB811C968C911C978823DD
:1041F000B1F131961996E430F105B1F7BAC01796CE
:104200008C911797882349F113962C911397263197
:1042100009F4AFC02C3209F4ACC030E0CA01821BF3
:10422000930B97FF03C09195819591095601A21AAE
:10423000B30A9501B7FE03C0319521953109022ECD
:10424000000C330B261737070CF493C0082E000C14
:10425000990B861797070CF48CC01996C0CFAA81CA
:10426000BB81D8968C9199E09E9FD0019F9FB00D05
:104270001124AA80BB80AA0DBB1D91E01C969C93C3
:104280001C9718961C9218971B961C921B971A96AF
:104290001C921A9717968C931797E82FF0E0EE0F61
:1042A000FF1FEE5AFE4F80819181FC0125913491D0
:1042B00015962C931597FC0131968591949116963D
:1042C0008C93D80150968C91833008F049C2D80164
:1042D0001E96CD90DC901F97BCEDCB16B5E0DB06AB
:1042E00008F014C2F601F695E7958CED95E08E1B6B
:1042F0009F0B25E030E0B9010E94B7332B018EEE11
:10430000C81682E0D80608F004C28EEE92E08E1B3A
:104310009F0BB9010E94B733612C712C4B01A12C6A
:10432000B12C84149504A604B7040CF0F9C1481804
:1043300059086A087B0809F4EFC10E949532A3016D
:1043400092010E943A33DC01CB01880D991DAA1D10
:10435000BB1DEA81FB8196AB85ABD8011E968D9182
:104360009C911F978531910508F0DFC1EA81FB819F
:1043700010AEA980A5FE0FC0AA81BB819A968C9130
:104380009A97811108C099968C919997833118F06A
:1043900082E09C968C93A980A6FE0CC0AA81BB816A
:1043A0009A968C919A97811105C099968C918C332D
:1043B00008F4E4C1F801858180FD42C0AA81BB8177
:1043C0009C968C919C979A96EC918230A1F08330C8
:1043D00019F5AA81BB8199968C91999791E09E0FCE
:1043E0009A969C939A97F0E0E158F64FE491E80F83
:1043F0009996EC9311C0AA81BB8199968C9199975B
:1044000091E09E0F9A969C939A97F0E0E158F64FB0
:10441000E4918E1B99968C93EA81FB8183A58F5F33
:104420008C3011F083A704C0AA81BB819B961C929B
:10443000EA81FB8182A5853019F412A684E084A765
:10444000D80115968D919C91169766E070E00E94B8
:10445000B733892B09F088C0EA81FB8187A58823BF
:1044600009F46FC082A98F5F82AB282F082E000C41
:10447000330B41A987FD42C0842F90E028173907EC
:104480000CF03CC080A9813031F1A0F0823009F0FD
:1044900035C0C9010196880F991FFC01EC57F64FF2
:1044A000E491AA81BB819D96EC939D97FC01EB570B
:1044B000F64F21C0C9010196880F991FFC01E852EF
:1044C000F64FE491AA81BB819D96EC939D97FC01E8
:1044D000E752F64F10C0C9010196880F991FFC01E1
:1044E000EE54F64FE491AA81BB819D96EC939D9783
:1044F000FC01ED54F64FE4919E96EC9350E02417A6
:10450000350719F4EA81FB8117A6421B530B48308B
:104510005105A4F4AA81BB81D4968C91D4978F5F66
:10452000D4968C93D497883061F49F961C929F9771
:10453000D2961C92D297D4961C9203C0EA81FB813A
:1045400014AAEA81FB813596EE16FF0669F0878191
:10455000882341F08581882329F08F5F8583863009
:1045600009F417823996F0CFD80150968C91833098
:1045700068F08A819B810596E816F90609F403C163
:104580000996FC01329720812223B1F3F801268598
:104590003785868997898217930728F481E0AA8155
:1045A000BB81DA968C93EA81FB8182AD882349F145
:1045B000CF010596AF01475D5F4F4817590739F0A6
:1045C0000996FC01329720812223B9F31AC0EA81AF
:1045D000FB8181A5D80155968C93559753968D9163
:1045E0009C915497019654969C938E935397509612
:1045F0008C91833008F0BDC046E063E0C8010E94A2
:104600003E29B8018A819B810F900F900F90DF9116
:10461000CF911F910F91FF90EF90DF90CF90BF90BF
:10462000AF909F908F907F906F905F904F903F9052
:104630002F900C945329213259F486E09AE005C05A
:104640002B3009F0EACC8CE09AE00E94341BE5CCD8
:104650002733B1F780E09AE0F8CFF601A682D801BF
:1046600050968C9150978F5F50968C9340E060E00D
:1046700080E20E94B82882E19AE00E94341BEA811D
:10468000FB8151AED8015096EC91E33008F0C5CCD7
:10469000D6018C918C33A0F4873220F5823108F456
:1046A000BCCCAA81BB81D0961C92D0979F96AC922D
:1046B0009F97D2967C92D297F0E0E952F64F20C0B5
:1046C000813808F0AACCAA81BB81D0966C92D09791
:1046D0009F96AC929F97D2967C92D297F0E0ED573E
:1046E000F64F0EC0AA81BB81D096AC92D0979F9610
:1046F000AC929F97D2967C92D297F0E0EF54F64F0F
:10470000E491D196EC9389CC858311CDE6E94E2EC8
:10471000512C6BE470E000CE60E070E0CB0113CE72
:1047200086E990E0A0E0B0E014CE899768F40E949A
:10473000953222E030E040E050E00E943A33AA8116
:10474000BB81D8966C9315CE0E94953223E030E061
:1047500040E050E00E943A33EA81FB8160AF09CE2D
:104760008FEF9FEFAA81BB81D6969C938E93D597AE
:1047700000CE81E0D80158968C9343CF83E0EA8144
:10478000FB8184A717CE81E0D80158968C93FECE8A
:104790002F923F924F925F926F927F928F929F9251
:1047A000AF92BF92CF92DF92EF92FF920F931F933F
:1047B000CF93DF93CDB7DEB728970FB6F894DEBF5F
:1047C0000FBECDBF5C012B0122E0420E511CFB014C
:1047D0006580768021E040E00E94FF2CE12C00E023
:1047E00029EE37E043E758E063E070E08EE190E0C7
:1047F0000E943E2C23E035E045E756E060E170E0A2
:104800008CE190E00E943E2C750106E110E04E0123
:10481000F7E08F0E911C9E012F5F3F4F1901C701DA
:104820000B9698878F8354E2C52ED12CEF81F885A3
:104830002191F887EF832F3311F0205401C020E03D
:104840004DE654E0B801C6010E942E2CF6E0CF0ED2
:10485000D11C26E3C216D10449F798868F8241E421
:10486000C42ED12CF10126E011922A95E9F7F70127
:1048700081859285F1016AE070E00E94B7338193EF
:10488000CB018E169F06B9F7EF81F8852291F88744
:10489000EF83255E4DE654E0B801C6010E942E2C40
:1048A000F5E0CF0ED11C2FE5C216D104D9F6075F73
:1048B0001F4F36E0E30EF11C0133110509F0AFCFB5
:1048C000F50105810F3F09F467C0C30168E370E09B
:1048D0000E94B7338D3108F45FC0C501F6E00F9F29
:1048E000800D911D11249C01255F3F4F190139E076
:1048F000039F80011124480185E1880E911CF50178
:104900006680F6E06F9E30011124630123E2C20E3F
:10491000D11C39E2630E711C035E1F4F6C147D04C1
:10492000D1F0740197FE02C0E12CF12CC8010134D2
:10493000110514F080E490E0E816F90644F4B7019C
:10494000C6010E9425298FEFE81AF80AEFCF9FEFE2
:10495000C91AD90AE3CFF5018681F101E80FF11DEB
:1049600020812F3311F0205401C020E0F501658132
:10497000F9E06F9FB00111246A5E7F4F36E0839F9C
:10498000C00111243BEFC32EE12C00E010E04DE606
:1049900054E084960E94682AC5010E94B419F5016A
:1049A00085818F3F61F48085811109C020E043E15A
:1049B00054E064E370E08BE290E00E942E2C60E013
:1049C000C20128960FB6F894DEBF0FBECDBFDF91AF
:1049D000CF911F910F91FF90EF90DF90CF90BF90FC
:1049E000AF909F908F907F906F905F904F903F908F
:1049F0002F900C940F2980915F02089508950895D7
:104A0000AF92BF92CF92DF92EF920F93CF936C0150
:104A10005B0182E0A80EB11C21E040E0C6010E94CB
:104A2000FF2CC6010E94B419E12C00E02BE338E111
:104A300044EF59E161E070E081E290E00E943E2C99
:104A4000F601268141E258E16DE070E08AE290E0F3
:104A50000E94D92BF601268147E058E16DE070E015
:104A600086E390E00E94D92BF601268143EF57E1BF
:104A70006DE070E08FE390E00E94D92BF601268173
:104A800049ED57E16DE070E087E490E00E94D92B9A
:104A9000F60126814FEB57E16DE070E08FE490E086
:104AA0000E94D92BF6018781883C49F420E045E635
:104AB00057E164E370E08BE290E00E942E2CF60157
:104AC000C085C695C695C130B9F068F0C230E9F02E
:104AD000C33051F5E12C00E021EE36E141E057E131
:104AE0006FE170E01DC0E12C00E023E237E143E418
:104AF00057E16EE070E011C0E12C00E021EE36E1FC
:104B000041E057E16EE070E00BC0E12C00E023E2F1
:104B100037E143E457E16FE170E080E090E002C0EC
:104B200080E790E00E943E2CF6018285882399F16F
:104B3000C130C9F078F0C23011F1C33061F5E12C19
:104B400000E023E135E141E655E160E170E087E412
:104B500090E01FC0E12C00E027E336E14BE856E18E
:104B600063E070E014C0EE24E39401E027E336E153
:104B70004BE856E163E070E08BE590E00AC0E12C81
:104B800000E021EB35E143EF55E160E170E082E1C7
:104B900090E00E943E2C60E0C501CF910F91EF9014
:104BA000DF90CF90BF90AF900C940F29FC01DB01F8
:104BB00018968C911897809517969C911797892332
:104BC00051F08281882311F08CE7828392819111C8
:104BD00005C081E082839281992349F09F5F92838F
:104BE0009D3729F440E062E0CD010C943E29089500
:104BF000FF920F931F93CF93DF93EC018B01FB0187
:104C00008781F084F094F82284FF08C08D81803180
:104C100018F48F5F8D8303C00E94672D1D82F3FE01
:104C200005C045E063E0C8010E943E29F2FE05C0D0
:104C300040E067E0C8010E943E29F8018581968125
:104C40006FE070E00E94B733892B39F48E818F5F5B
:104C5000833011F08E8301C01E82F8018581968118
:104C600060E570E00E94B7339C019F81232B59F4CB
:104C70009C3448F02A8581E082278A8788858F5F67
:104C8000803131F41886983C28F49F5F9F8302C0DE
:104C90008887F9CFDF91CF911F910F91FF900895F1
:104CA000FB01DC0118961C9218971A961C92148A24
:104CB000138A128A118A108A17861686118E108E10
:104CC0008BEF94E290935E0280935D028DE194E11C
:104CD0000C94341B0F931F93CF93DF93EC0120E0D0
:104CE00047EF53E161E170E08FE290E00E942E2CEB
:104CF00020E049ED53E16AE170E08BE290E00E9430
:104D00002E2C20E049ED53E16AE170E089E490E067
:104D10000E942E2C8A8120E0811112C049ED53E1BE
:104D20006AE170E08AE390E00E942E2C20E049E8DE
:104D300053E16EE270E08AE190E00E942E2C24C0E4
:104D40004BE653E16AE170E08AE390E00E942E2C8A
:104D500020E048E453E16EE270E08CE290E00E94D3
:104D60002E2C8A816FE00E949D33082F0370CFE4C0
:104D7000D0E010E0101741F061E370E0CE010E9436
:104D800025291F5F2296F6CFDF91CF911F910F91BA
:104D90000C94FF282F923F924F925F926F927F92D6
:104DA0008F929F92AF92BF92CF92DF92EF92FF923B
:104DB0000F931F93CF93DF93CDB7DEB72B970FB62B
:104DC000F894DEBF0FBECDBF6C015B013B0122E05A
:104DD000620E711C812C912CF60183899401280F9D
:104DE000311D87FD3A95C90121AD222329F024897F
:104DF00035898217930751F0E12C00E026E431E178
:104E000046E452E160E070E00E943E2CF60181AD84
:104E1000882361F0E12C00E024E43FE044E450E129
:104E200060E070E0848995890E943E2CF0E48F0E4A
:104E3000911C811421E0920679F6812C912CF601C7
:104E40008689E12C00E022E03FE042E25FE064E19D
:104E500070E0F401E80FF11D87FDFA95CF010E9483
:104E60003E2CF0E18F0E911C20EA8216910439F756
:104E7000F50181889288F601158D2EE23AE04CE723
:104E80005AE060E070E089E590E00E943E2C11114C
:104E900004C0C5010E94E92B1DC0C40165E070E09B
:104EA0000E94CB334B01512CE52CF12CE814F90472
:104EB0008CF4FEE5EF0EF11C03E010E0B801C70131
:104EC0000E9425290F5F1F4F0B301105B9F753942E
:104ED0005394EACFF601868D882331F06EE10E946B
:104EE0009D33682F617001C061E0C5010E94C32C31
:104EF00000E010E0F601878920E040EF5EE068E224
:104F000070E0F801E80FF11D87FDFA95CF010E94CE
:104F10002E2CF601808D20E040EF5EE065E370E02E
:104F2000F801E80FF11D87FDFA95CF010E942E2CA4
:104F3000005E1F4F003A1105E9F680E1482E512C22
:104F400010E09601275C3F4F3B872A871E013AE01D
:104F5000230E311CF6018289882321F08089811774
:104F600009F49FC04601F4E28F0E911C2A853B850F
:104F70008216930661F0F4018581882321F08281F5
:104F8000181709F4A5C0F7E08F0E911CEFCFF601BA
:104F900067816F3030F06C3110F481E003C082E043
:104FA00001C080E0181350C0F601E184EE2089F0C2
:104FB000EA940E2D000F062E000C770B8581815090
:104FC0002CEC3AE04EE95BE0082E000C990B0E94B5
:104FD0003E2C00E0F60127814581B501C6010E9403
:104FE000772C89E0E8E5F1E0DE01119601900D9261
:104FF0008A95E1F79E012F5F3F4F4901F4018081BF
:10500000F601E80FF11DE184EE20C1F0EA940E2DC7
:10501000000FF4016281F6018781680F062E000CF3
:10502000770B9581F4018181890F2CEC3AE04EE9F0
:105030005BE0082E000C990B0E943E2CF3E08F0ED3
:10504000911C28143904D1F61F5F2DE0420E511C2B
:10505000133009F07FCFB501C6010E944E2CF50137
:10506000818D882311F061E001C062E0C3012B96BD
:105070000FB6F894DEBF0FBECDBFDF91CF911F9169
:105080000F91FF90EF90DF90CF90BF90AF909F90E7
:105090008F907F906F905F904F903F902F900C94E7
:1050A0000F29F601048DC2010E9661E070E0112314
:1050B00011F060E070E0680F791FE02E2EEA3EE00C
:1050C0004EEC5EE0F601868597850E943E2C4ACF25
:1050D000F4010381E02E24E43DE048EF5DE0B201FD
:1050E000808191810E943E2C4ECF8F929F92AF92F1
:1050F000BF92CF92DF92EF92FF926C01E12CF12CE4
:105100000E94F9294B015C01C114D104E104F104AE
:10511000F1F00E94F929DC01CB0188199909AA094B
:10512000BB09883E9340A105B10570F321E0C21A86
:10513000D108E108F10888EE880E83E0981EA11CD2
:10514000B11CC114D104E104F10419F7DDCFFF90C3
:10515000EF90DF90CF90BF90AF909F908F90089589
:105160008FB18095807F669B88601C9B84600895CA
:1051700093E894BD609567BD91EF90938000409354
:10518000880080938A000895EF92FF921F93CF9337
:10519000DF9300D000D000D0CDB7DEB766E489E75A
:1051A00090E00E941A3360E58AE790E00E941A338B
:1051B0008BE7E82EF12C11E41A8219821B831C83E1
:1051C0001D831E8246E050E0B701CE0101960E9489
:1051D0000A331F5F86E0E80EF11C8DE8E816F10443
:1051E00059F726960FB6F894DEBF0FBECDBFDF91FC
:1051F000CF911F91FF90EF9008950E94E533E4E670
:10520000F2E081E0A0E0B8E000800EBC8111012C4A
:105210001197A0FDFDCF0192B9F70DB40895CF937A
:10522000C62F0E94FF28CC2329F0C23061F440E849
:1052300051E002C040E054E06FEF70E084E692E09D
:10524000CF910C94EA33CF91089580389105A8F45A
:105250006034710590F420E191E061FD94E060FD1F
:10526000990F62FD9295687F269FD0011124A80FA7
:10527000AC59BD4F8C91982B9C9308950F931F931D
:10528000CF93DF93EC01062F142F40E060E080E025
:105290000E94B8280E941C1A0B8F1C8FDF91CF919F
:1052A0001F910F910895DC01FB0190859095278156
:1052B0009223808D882339F093FF0EC040E067E091
:1052C000CF010C943E2992FF07C014968C9114973D
:1052D00091E0982714969C9308950F931F93CF9372
:1052E000DF938C01EB0140E060E080E20E94B8288F
:1052F0008AE0F801878F89899A8906979A8B898B2A
:1053000084E6858F89899A89181619068CF0888910
:105310008F5F888B83E493E20E94341B88898330FB
:1053200038F481E990E09A8B898B88ECF801868FBC
:10533000DF91CF911F910F910895FC0197819730D4
:1053400021F0943111F0913211F484E085870895B1
:105350000F931F93CF93DF9350E0DA015596FC0132
:1053600090E0EB016F96415E5F4F81A58823D1F0FD
:1053700024A135A12C173D07ACF4225E3F4F6217E4
:10538000730784F426A18EE0289F900111248901DF
:10539000055E1F4F041715072CF42B5D3F4FA21716
:1053A000B30734F09F5F37969330F9F68FEF01C063
:1053B000892FDF91CF911F910F910895CF93DF93A4
:1053C000EC0146E050E06BE770E00E94EC3246E012
:1053D00050E061E870E0CE0106960E94EC3246E0B3
:1053E00050E067E870E0CE010C96DF91CF910C940D
:1053F000EC323FB7F8948091650690916606A091D3
:105400006706B091680626B5A89B05C02F3F19F026
:105410000196A11DB11D3FBFBA2FA92F982F882734
:10542000820F911DA11DB11DBC01CD0142E0660F8F
:10543000771F881F991F4A95D1F708951F920F92E1
:105440000FB60F9211242F933F938F939F93AF9397
:10545000BF938091600290916102A0916202B0912D
:1054600063023091640623E0230F2D3720F4019668
:10547000A11DB11D05C026E8230F0296A11DB11D77
:10548000209364068093600290936102A09362026D
:10549000B09363028091650690916606A0916706BD
:1054A000B09168060196A11DB11D80936506909389
:1054B0006606A0936706B0936806BF91AF919F916F
:1054C0008F913F912F910F900FBE0F901F901895C5
:1054D0002F923F924F925F926F927F928F929F9204
:1054E000AF92BF92CF92DF92EF92FF920F931F93F2
:1054F000CF93DF9300D000D000D0CDB7DEB74115F9
:10550000510509F43DC1FA01B4903196E4914E5F22
:105510005F4F6B2C712C211102C0EE2061F1A1E0D4
:10552000B0E03E2F377011F4A0E0B0E03E2F36958A
:10553000369536954D01830E911C869CD001879C33
:10554000B00D969CB00D1124F3E0CF1203C0AA0F4A
:10555000BB1F0AC00115110539F0EA9E4001EB9E00
:10556000900C1124080D191D2A9F70012B9FF00C1F
:1055700011244E0D5F1D2FEFC21208C00115110539
:1055800019F0CC24C39402C032E0C32E7301E80E9C
:10559000F91E1E141F040CF0F3C0803891050CF0A6
:1055A000EFC09B012E0F311D121613060CF0E8C040
:1055B000603471050CF0E4C04115510509F4E0C0F8
:1055C000362F37703D83DB0177FD179623E0B595C5
:1055D000A7952A95E1F73A2F77FF05C06D816623DD
:1055E00011F03FEF3A0F97FF05C0AA27BB27A81B72
:1055F000B90B02C0A0E0B0E0F0E8EF16F10424F02F
:1056000020E8D22ED81A01C0DB2CDA1A632F032E21
:10561000000C770B3F3F1CF4A62EA09401C0A12CD8
:10562000F1E02E2F277009F4F0E0E695E695E69577
:10563000FE0F6F0F711D6930710514F0F8E0F31B58
:105640007A2C730E272D60E82603800D911D1124FE
:105650004C018A0E9B1E61E070E00D8002C0660F57
:10566000771F0A94E2F783E0C81611F0E1E001C069
:10567000E2E02B2D2D192E9F202D1124EE2EF12C42
:10568000BA9CA00DB11D1124AE9DC001AF9D900D1F
:10569000BE9D900D11245A01A80EB91E01151105C9
:1056A00009F0A801D70111978A0F9B1F480F591FB6
:1056B000AFEFA69FC001A79F900D11242C0140942D
:1056C0005094C4018C599D4FF30FFE8330E0ED9D43
:1056D000200D311D1124EE817E1609F451C0DC012C
:1056E0004A018501612CD61409F442C0F8013490B6
:1056F000369EF001379EF00D1124FA83E983E09580
:10570000F095FC83EB83F2E0CF1203C05C824B8206
:1057100011C0EBEFCE1203C01A8219820BC0F40144
:105720003490369EF001379EF00D1124E095F095EF
:10573000FC83EB8377FC06C0FB81EC91EF23F981BE
:10574000EF2BEC93FD81FF2361F0E6E0E7154CF0D1
:10575000FD01E058FF4F20803C8032202A80322813
:1057600030828E0C9F1C0E0D1F1D63941196BBCFB3
:105770007394A20EB31E420F531F80589F4FABCF9E
:1057800026960FB6F894DEBF0FBECDBFDF91CF9146
:105790001F910F91FF90EF90DF90CF90BF90AF904F
:1057A0009F908F907F906F905F904F903F902F9041
:1057B0000895CF92EF920F931F933AEFC32EE12CEF
:1057C00000E010E00E94682A1F910F91EF90CF90A7
:1057D0000895EF92FF920F931F93CF93DF9300D022
:1057E00000D000D0CDB7DEB7FE01319626E0DF0154
:1057F0001D922A95E9F7DC011E966C911E971F9663
:105800009C917E01B7E0EB0EF11C2AE030E0862F80
:10581000B9010E94B7338193972FEE15FF05B9F7B1
:105820000EE510E0F70122917F0141E553E263E0CC
:1058300070E0C8010E94D92B0B5F1F4F0C37110578
:1058400089F726960FB6F894DEBF0FBECDBFDF9165
:10585000CF911F910F91FF90EF900895CF92EF920B
:105860000F931F9332E0C32EE12C00E010E00E9462
:10587000682A1F910F91EF90CF900895CF92EF92E9
:105880000F931F93F901202FCC24C3948F010E9402
:10589000682A1F910F91EF90CF900895EF920F9388
:1058A000CF93DF93EC01FB01808D882361F0E12C25
:1058B00000E02EE236E24EEE56E264E170E080E275
:1058C00090E00E943E2C8C81882361F0E12C00E066
:1058D00020E035E246E955E264E170E087E290E0DD
:1058E0000E943E2CDF91CF910F91EF900895AF92DF
:1058F000BF92CF92DF92EF920F931F93CF93DF93DC
:105900005C01102FFB018581968187709927892B77
:1059100039F481E0F5019281911180E0F5018283F3
:10592000C22F220FDD0BC42E440FDD08E12C00E056
:1059300026E034E242E854E2BE01C6010E943E2C59
:10594000F50102812FEE33E246EF53E2BE01C601BC
:1059500042960E943E2C112361F0BE016B5F7F4F87
:1059600000E021EB33E24FEC53E2C60104970E94C2
:105970003E2CDF91CF911F910F91EF90DF90CF9050
:10598000BF90AF900895AF92BF92CF92DF92EF9207
:105990000F931F93CF93DF936C0181E06827D601AB
:1059A00050961C91161B8BE6A82E81E0B82EC0E005
:1059B000D0E0C117D0F4FE01D5018D915D0190E0DA
:1059C000D60159962C91211102C0E0E0F0E0E12CC3
:1059D00000E02BE733E245E953E261E070E08E1B23
:1059E0009F0B0E943E2C2196E4CFDF91CF911F9117
:1059F0000F91EF90DF90CF90BF90AF900895EF920E
:105A0000FF920F931F93CF93DF93EC018B01F22E44
:105A1000442329F18B8190E0FC01EE0FFF1FE75C2E
:105A2000FC4D45915491FC01EF59FE4F608170E0AF
:105A3000FC01EA59FE4F8081F801218D90E00E941F
:105A40002E2CF801858196818F709927892B39F446
:105A50008B818F5F853010F48B8301C01B82C0E087
:105A6000D0E0E12C00E027E133E247E253E26CE1D1
:105A700070E0CE010E943E2C2896C038D10589F7EF
:105A800023E131E245E152E263E370E080E090E03F
:105A90000E943E2C21E030E249E850E260E070E0F4
:105AA00080E090E00E943E2CFF2051F02FEE3EE17E
:105AB00047E75FE160E070E080E790E00E943E2C05
:105AC000DF91CF911F910F91FF90EF900895F8947F
:105AD00087E78093000880930108A89588E1809368
