:100000000C945D150C9485150C9485150C94851530
:100010000C9485150C9485150C9485150C948515F8
:100020000C9485150C9485150C9485150C948515E8
:100030000C9485150C9485150C9485150C948515D8
:100040000C9485150C9485150C9485150C948515C8
:100050000C9485150C9485150C9485150C94B72279
:100060000C9485150C9485150C9485150C948515A8
:100070000C9485150C9485150C9485150C94851598
:100080000C9485150C9485150C9485150C94851588
:100090000C9485150C9485150C9485150C94851578
:1000A0000C9485150C9485150C9485158A32A13213
:1000B000E732E732C832323313330E18FEFEFCF952
:1000C000F7FBF93143677FFFFFFFFFFFFFFFFFFFF4
:1000D000FFFFDFCE80303F7FFFFFFFFFFFFFFFBF4F
:1000E000BF97C7F3F8FC01010306080406CEBC98CD
:1000F00080000000000000000000000020317FCFE1
:10010000C08000000000000000404068380C070379
:100110002A183F9FDFC3B1F9F9F3C7F1FCFEFCF1E8
:10012000C7F3F9F9F3C7F7FBFBE78FBF0F67E68E5D
:100130003C3977FBF93143677FFFFFFFFEFFFFFF8D
:10014000FFFFFFFFFFFFFFFFFFFFFFFFFFFFFFFFBF
:10015000FFFFFFFFFFFFFFFEFFF773680C9FFFFF2E
:10016000DFCE80303F7FFFFFFFFFFFFFFFFFFFFF7E
:10017000FFFFFFFFFFFFFFFFFFFFFFFFFFFFFFFF8F
:10018000FFBFBF97CFEFE6E0F1BFBF97C7F3F8FC23
:10019000C060203C4E06060C380E0301030E380CDE
:1001A00006060C38080404187040F0981971C3C68C
:1001B000880406CEBC98800000000100000000000A
:1001C000000000000000000000000000000000002F
:1001D00000000000000100088C97F360000020314F
:1001E0007FCFC08000000000000000000000000081
:1001F00000000000000000000000000000000040BF
:1002000040683010191F0E404068380C070323184F
:100210003F9FDFC3B1F9F9F347717CFEFC7147736F
:1002200079F9F3C7F7FBFBE78FBF0F67E78F3F3F16
:100230007FFFFFFEFFF3F9F9F3F9FCFEFEFEFCFE83
:10024000FEFFFFFEFCF9FDFCFCF8C1D39F1F3EFF43
:10025000F773680C9FFFFFFFFFFFFFFFFFFFFFFF2C
:10026000FFFFFFFFFFFFFFFFFFBF7F7F3FBB93C588
:10027000FCBEBF97CFEFE6E0F1C060203C4E060623
:100280000CB88E8301038EB88C86060C38080404E3
:10029000187040F0981870C0C080000001000C0673
:1002A000060C06030101010301010000010306021F
:1002B0000303073E2C60E0C100088C97F360000048
:1002C000000000000000000000000000000000002E
:1002D0000000408080C0446C3A03414068301019EF
:1002E0001F0E1E18FFFFFFFFE77373E77399CCEC37
:1002F000CC19EDF4F6660CB9B33B3979F183A73F1D
:100300003F7FBFBF9FA7B09ECFE69C3F7F3F9F7FB1
:10031000FFFFFF7E3F8FEF67F0F87F77278BF8FCBA
:10032000FFFF3F7FFFFF7FFFFFFF3F7FFFFF7EFE5F
:10033000FEFF3F7FFFFF7EFEFEFF3F7FFFFF0000CF
:100340000000188C8C188C66331333E6120B099955
:10035000F3464CC4C6860E7C58C0C08040406058EE
:100360004F61301963C080C0608000000081C070A0
:1003700010980F078088D874070300E02040808021
:10038000008000E020408080018101E020408080EA
:10039000018101E0204080801810FFFFFFFF1FCF88
:1003A000EFDF8FF3F9FDF9E3FDFEFECCE1F7F7E7B0
:1003B000070FF7F7F3F4F6F3F9FCF3E7EFE7F3EFE2
:1003C000DFDFDFEFE7F1FDFCFEFF00000000E030C3
:1003D0001020700C0602061C020101331E080818CA
:1003E000F8F008080C0B090C06030C1810180C1078
:1003F00020202010180E02030100D5F08D14A1C892
:1004000081CFD9F1AF200004083E09093E3F2525E0
:100410001A1E2121123F21211E3F2525213F0505BE
:10042000011E21293A3F04043F213F2100102121D0
:100430001F3F040A313F2020203F02023F3F0204B9
:100440003F1E21211E3F0909061E21112E3F0909C9
:100450003622252519013F01011F20201F0F1020E2
:100460001F3F10103F3B04043B03043807312D238A
:1004700021102A2A3C3F2424181C22221418242448
:100480003F1C2A2A2C043E05014C52523E3F0404D4
:1004900038243D20004040443D3F081422213F20A5
:1004A000003E04043E3E04023C1C22221C7E22220A
:1004B0001C1C22227E3E040204242A2A12021F222D
:1004C000201E20201E0E10201E3E10103E36080852
:1004D000364E50503E322A26221E29251E223F200B
:1004E00000322929261221251A0C0A3F0817252532
:1004F000191E252518013905031A25251A0629294B
:100500001E002F0000002000000229050200040444
:100510000018BCFEFFFFFEFCFEFFFFFEBC18030739
:100520000F1F1F0F070F1F1F0F07030D0D18A442EA
:100530002151EAF4E2418142A41803040810100892
:10054000050A1110080403008080C0C0C0FFFFFF2F
:10055000FFFFFFFFFFFFFFFFFFFFFFFFFFFFFFFFAB
:10056000FFFFFFFFFFFFFFFFFF80C1C3C3E3E3FF08
:10057000FFFFFFFFFFFFFFFFFFFF7FFFFFFFFFFF0B
:10058000FFFFFFFFFFFFFFFFFFFFFFC0E0E1E1E133
:10059000E1FFFFFFFFFFFFFFFFFFFFFF3F7F7F7FC9
:1005A000FFFFFFFFFFFFFFFFFFFFFFFFFF00000058
:1005B000000000FFFFFFFFFFFFFFFFFFFFFF000046
:1005C000000000000F1F3F7FFFFFFFFFFFFFFF1135
:1005D00040008080404040BF8040DFDF10D7EAEA23
:1005E0006D75FF00F6F77B787B7A393D3D3E3E3EE8
:1005F0001E1F1F80414242A222BEA2A2BE9E10D652
:10060000D4D5E8EA7F803B3B3B383B393D3D3D3C20
:100610003D3D3D3D3DC020A1A1A121BFA1A1BCBE4A
:1006200020AEA8AAA8AA3F405D5DBDBC3B3A3A7B7C
:100630007B78F7F7F7F7F7000000000000FF0101F3
:10064000FAF4FAF4F8F4E8F10000000000000F10EA
:1006500020478F3F7FFFFFFFFFFFFFFFFFFFFFFFF1
:10066000FFFFFFFFC0C0C0808000FFFFFFFFFFFF54
:10067000FFFFFFFFFFFFFFFFFFFFFFFFFFFFFFFF8A
:10068000FFFFFFFFFFFFE3E3C7C7C381FFFFFFFFDC
:10069000FFFFFFFFFFFFFFFFFFFFFFFF7FFFFFFFEA
:1006A000FFFFFFFFFFFFFFFFE1E1E1E1E0C0FFFF30
:1006B000FFFFFFFFFFFFFFFFFFFFFFFFFF7F3FFF8A
:1006C000FFFFFFFFFFFFFFFFFFFF01010000000032
:1006D000FFFFFFFFFFFFFF7F3F1F0700000000003D
:1006E000001140756DEAEAD710DFDF4080BF40405F
:1006F000408080001F1F1E3E3E3E3D3D397A7B7884
:100700007BF7F600FFEAE8D5D4D6109EBEA2A2BEC3
:1007100022A2444442813D3D3D3D3D3C3D3D3D396D
:100720003B383B3B3B807FAAA8AAA8AE20BEBCA119
:10073000A1BF21A1A1A120C0F7F7F7F7F7787B7B34
:100740003A3A3B3C3D9D9D403FF1E8F4F8F4FAF421
:10075000FA0101FF010100000000FFFFFFFF7F3FE2
:100760008F472010070000000000009803E2020EEF
:10077000021001BA00800DFFFFFFFFFFFFFFFFFF28
:10078000FFFFFFFFFFFFFFFFFFFFFFFFFFFFFFFF79
:10079000FFFFFFFFFFFFFFFFFFFFFFFFFFFFFFFF69
:1007A000FFFFFFFFFFFFFFFFFFFFFFFFFFFFFFFF59
:1007B000FFFFFFFFFFFFFFFFFFFFFFFFFFFFFFFF49
:1007C000FFFFFFFFFFFFFFFFFFFFFFFFFFFFFFFF39
:1007D000FFFFFFFFFFFFFFFFFFFFFFFFFFFFFFFF29
:1007E000FFFFFFFFFFFFFFFFFFFFFFFFFFFFFFFF19
:1007F000FFFFFFFFFFFFFF1F1F1F1F1F1F1F1F1FE9
:100800001F1F1F1F1F1F1F1F1F1F1F1F1F1F1F1FF8
:100810001F1F1F1F1F1F1F1F1F1F1F1F1F1F1F1FE8
:100820001F1F1F1F1F1F1F1F1F1F1F1F1F1F1F1FD8
:100830001F1F1F1F1F1F1F1F1F1F1F1F1F1F1F1FC8
:100840001F1F1F1F1F1F1F1F1F1F1F1F1F1F1F1FB8
:100850001F1F1F1F1F1F1F1F1F1F1F1F1F1F1F1FA8
:100860001F1F1F1F1F1F1F1F1F1F1F1F1F1F1F1F98
:100870001F1F1F1F1F1F1F800DFEBEBEBEBEBEBEA0
:10088000BABABA3A3ABABA9A8AAAA2B2B2BAB8B854
:10089000BABABEBEBEBEBEBEBEBEBEBEBEBEBEBE80
:1008A000BEBEBEBEBABABABA3A1A8AA2B0B8BABA0C
:1008B000BEBEBEBEBEBEBEBEBEBEBEBEBEBEBEBE58
:1008C000BEBEBEBEBEBEBEBABAB8A0021ABABABAE0
:1008D000BABABEBEBEBEBEBEBEBEBEBEBEBEBEBE40
:1008E000BEBEBEBEBEBEBABABABAB8B8B8B0A282B0
:1008F0000A1A3ABABABABABABA1F1F0717131B199B
:100900001D1C1E1F1F1F1F1F1F1F1F1F1F1F1F1FFD
:100910001F1F1F1F1F1F1F1F1F1F1F1F1F1F1F1FE7
:100920001F1F1F1F1F07111C1E1F1F1F1F1F1F1F01
:100930001F1F1F1F1F1F1F1F1F1F1F1F1F1F1F1FC7
:100940001F1F1F1F1F1F1F1F1F1F1F1F1C10030FF5
:100950001F1F1F1F1F1F1F1F1F1F1F1F1F1F1F1FA7
:100960001F1F1F1F1F1F1F1F1F1F1F1F1F1F1F1F97
:100970001F1E181001030F1F1FF8FFFFFEFCFCFCD9
:10098000FC0303030303030303080A2807092214D3
:100990002408040101020101010101F0F8FCFEFF3D
:1009A000FFFFFF0707FFFFFFFFFFFFFFFF00000143
:1009B0000307070707070700000A13F008F412B53A
:1009C00035E5050101FF00EF08288CEF000000016C
:1009D0000205050505010000003C3E3F3F3F3E3C4F
:1009E00007063C023D0105023C3C0205013D023C7C
:1009F0000000000080C0E0E0E0E0E0E0E0E0E0E0F7
:100A0000E0E0FCFEFFFFFFFEFCC0800000000000F5
:100A100000FEFFFFFFFFFFFFFFFFFFFFFFFFFFFFE6
:100A2000FFFFFFFFFFFFFFFFFFFFFFFCF8000000DD
:100A3000FFFFFFFFFFFFFFFFFFFFFFFFFFFFFFFFC6
:100A4000FFFFFFFFFFFFFFFFFFFFFFFF00060F0F8E
:100A50001F1F1F3F7F7F7F7F3F1F1F1F1F1F1F1FE6
:100A60001F3F7F7F7F7F3F1F1F1F0F071F1F00003C
:100A700000008040A0A0A0A0A0A0A0A0A0A0A0A036
:100A8000BC828581BD823C4080000000000000FEE9
:100A900001FC85FD01FF03FDBDDDEDBD9D85FD0371
:100AA000FF0305BDDDAD3C380304F8000000FF0086
:100AB00082B24ABBBBBBBA7AFACACE8686CECBFB21
:100AC0007BBABABAB26AE2EA00FF0006090A161156
:100AD0001623414C444123161113131313111623EB
:100AE000414C4441231611170807F8FCFEFFFFFF95
:100AF000FFFFFFFFFFFFFFFFFFFFFFFFFFFFFFFF06
:100B0000FFFFFFFFFFFFFFFFFFFFFFFFFFFFFFFFF5
:100B1000FFFFFFFFFFFFFFFFFFFEFCF8FFFFFFFFF0
:100B2000FFFFFFFFFFFFFFFFFFFFFFFFFFFFFFFFD5
:100B3000FFFFFFFFFFFFFFFFFFFFFFFFFFFFFFFFC5
:100B4000FFFFFFFFFFFFFFFFFFFFFFFFFFFF070F9D
:100B50001F3F3F3F3F3F3F3F3F3F3F3F3F3F3F3FC5
:100B60003F3F3F3F3F3F3F3F3F3F3F3F3F3F3F3F95
:100B70003F3F3F3F3F3F3F3F3F3F3F3F3F1F0F070D
:100B8000321600F804F20A0A0A0A0A0A4ACACA4ACB
:100B9000CA8A0A4ACACA0A0ACACA0ACACA0A8ACA75
:100BA0004ACA8A0A4ACACA4ACA0A0A0A0A0A0A0A65
:100BB000F204F80000FF00FF00000000000080FFCA
:100BC000FF880F0380FE27FFF8803FFF80FF3F0074
:100BD00043C78EFC780080FFFF84CE000000000039
:100BE0000000FF00FF00000708131414141414146D
:100BF00014141414141414141414141414141414B5
:100C000014141414141414141414141414141414A4
:100C10001414141413080700F8FCFEFFFFFFFFFF75
:100C2000FFFFFFFFFFFFFFFFFFFFFFFFFFFFFFFFD4
:100C3000FFFFFFFFFFFFFFFFFFFFFFFFFFFFFFFFC4
:100C4000FFFFFFFFFFFFFFFFFFFFFFFFFFFFFFFFB4
:100C5000FFFFFFFFFFFEFCF8FFFFFFFFFFFFFFFFAF
:100C6000FFFFFFFFFFFFFFFFFFFFFFFFFFFFFFFF94
:100C7000FFFFFFFFFFFFFFFFFFFFFFFFFFFFFFFF84
:100C8000FFFFFFFFFFFFFFFFFFFFFFFFFFFFFFFF74
:100C9000FFFFFFFFFFFFFFFF070F1F3F3F3F3F3FEC
:100CA0003F3F3F3F3F3F3F3F3F3F3F3F3F3F3F3F54
:100CB0003F3F3F3F3F3F3F3F3F3F3F3F3F3F3F3F44
:100CC0003F3F3F3F3F3F3F3F3F3F3F3F3F3F3F3F34
:100CD0003F3F3F3F3F1F0F07401600F804F20A0A4C
:100CE0000ACA4ACACA0A0A4ACACA0A0A4ACACA0A64
:100CF000CACA4A4ACACA4ACA0A0A0A0A0ACA4ACA14
:100D00000A4ACACA0ACA4A4ACACA4ACA0A4ACACA03
:100D10004ACA8A0A0A0AF204F80000FF00FF00002B
:100D20003FFF807CFD0480FE27FFF88080FF1F0EC0
:100D3000FFFF8080FFFF84CE000000003FFF80FFA8
:100D40003F0003FFFC070080FFFF84CE0080FFFF11
:100D500008FFF3800000FF00FF00000708131414D1
:100D60001414141414141414141414141414141443
:100D70001414141414141414141414141414141433
:100D80001414141414141414141414141414141423
:100D90001414141414141308070004087EFF817E31
:100DA00082FEFF80C6A19FCE6689FF7638ACFFB079
:100DB0006F89F9707EFF857883F1FD83768D997652
:100DC0001EBFA17E181AFFFFFFFFFFFFFFFFFFFFFF
:100DD000FFFFFFFFFFFFFFFFFFFFFFFFFFFFDFDF63
:100DE000DFDFDF5F5F5F5F1F1F1F1F5F5F5F5F5F93
:100DF0005F5F5F5F5F5FF7F7F7F7F7F7F7F7F7F713
:100E0000F7F7F6F4F0E1C307173777F7F7F70303BF
:100E100003030303030303030303030303030303A2
:100E200002000001030300000000000000000000B9
:100E30000000000000000000000000000000C0C032
:100E4000C0C0C04040404000000000404040404022
:100E5000404040404040F7F7F7F7F7F7F7F7F7F76C
:100E6000F7F7F6F4F0E1C307173777F7F7F703035F
:100E70000303030303030303030303030303030342
:100E8000020000010303F8FFFFFEFCFCFCFC03036F
:100E9000030303030303080A280709221424080490
:100EA00001010201010101010000000070F8FCFED7
:100EB000FEFFFFFEFC6000000000000000000000DC
:100EC000000000000060FCFEFFFFFEFEFCF870006A
:100ED0000000000080800082C7E7FFFFFFFFFFFEE9
:100EE000FCFCFC3838383838383838B8B838FCFCAE
:100EF000FCFFFFFFFFFFFFC7870200000000070F96
:100F00001F1F0F07010100040E1F3F3F1B010000C0
:100F1000000000000003070F1F0F07010000000082
:100F20000F1F1F1F1E0C0000000000000070F8FCC7
:100F3000FEFEFFFFFEFC600000000000000000005D
:100F400000000000000060FCFEFFFFFEFEFCF870E9
:100F5000000000000000000002C7E7FFFFFFFFFFE6
:100F6000FEFCFCFC38B8B838383838383838B8FCAB
:100F7000FCFCFFFFFFFFFFFFC7870280800000002F
:100F800000000C1E1F1F1F0F0000000001070F1F95
:100F90000F0703000000000000011B3F3F1F0E046D
:100FA000000101070F1F1F0F07002B160000000094
:100FB00070880402160141229C60000000000000BD
:100FC000000000000000000000609C2241011602A9
:100FD00004887000000000008080008245243E806C
:100FE000808091322444C42828282828282828A82A
:100FF000A828C4442493918080003E4485020000C8
:101000000000070810110806010100040A1121243C
:101010001A01000000000000000304081108060186
:10102000000000000F101213120C0000000000005E
:101030000070880402160141229C6000000000003C
:1010400000000000000000000000609C224101162A
:1010500002048870000000000000000002C5243E69
:1010600000808091B22444C428A8A82828282828D1
:101070002828A844442493918080003E448502801F
:101080008000000000000C121312100F000000007E
:1010900001060811080403000000000000011A24E2
:1010A00021110A0400010106081110080700F8FCCC
:1010B000FCFCFC78F8FCFCFCFCFCF8F8FCFCFCFC00
:1010C000FCB8F8FCFCFCFCF8F8FCFCFCFCD8F8FCD8
:1010D000FEFFFFFFFFFFFFFEFCF80103030100001E
:1010E00001030301010303010303030303010303DA
:1010F000030301000303030301000103070F0F0FA4
:101100000F0F0F0703012C0CF80404B48448F804F3
:1011100004D41404C8F80404D49464B8488494141F
:1011200024F84884941424D8F8040201F14949F1C0
:10113000010204F8010202010000010202010102A1
:101140000201020202020201020202020100020284
:10115000020201000102040809080809080402014A
:10116000F8FCFEFFFFFFFFFFFFFFFFFFFFFFFFFF9A
:10117000FFFFFFFFFFFFFFFFFFFFFFFFFFFFFFFF7F
:10118000FFFFFFFFFFFFFFFFFFFFFFFFFFFFFFFF6F
:10119000FFFFFFFFFFFFFFFFFFFFFFFFFFFFFFFF5F
:1011A000FFFFFFFFFFFFFFFEFCF8FFFFFFFFFFFF5A
:1011B000FFFFFFFFFFFFFFFFFFFFFFFFFFFFFFFF3F
:1011C000FFFFFFFFFFFFFFFFFFFFFFFFFFFFFFFF2F
:1011D000FFFFFFFFFFFFFFFFFFFFFFFFFFFFFFFF1F
:1011E000FFFFFFFFFFFFFFFFFFFFFFFFFFFFFFFF0F
:1011F000FFFFFFFFFFFFFFFFFFFFFFFFFFFFFFFFFF
:10120000FFFFFFFFFFFFFFFFFFFFFFFFFFFFFFFFEE
:10121000FFFFFFFFFFFFFFFFFFFFFFFFFFFFFFFFDE
:10122000FFFFFFFFFFFFFFFFFFFFFFFFFFFFFFFFCE
:10123000FFFFFFFFFFFFFFFFFFFFFFFFFFFFFFFFBE
:10124000FFFFFFFFFFFFFFFFFFFFFFFFFFFFFFFFAE
:10125000FFFFFFFFFFFFFFFFFFFFFFFFFFFFFFFF9E
:10126000FFFFFFFFFFFFFFFFFFFFFFFFFFFFFFFF8E
:10127000FFFFFFFFFFFFFFFFFFFFFFFFFFFFFFFF7E
:10128000FFFFFFFFFFFFFFFF0103070F0F0F0F0F10
:101290000F0F0F0F0F0F0F0F0F0F0F0F0F0F0F0F5E
:1012A0000F0F0F0F0F0F0F0F0F0F0F0F0F0F0F0F4E
:1012B0000F0F0F0F0F0F0F0F0F0F0F0F0F0F0F0F3E
:1012C0000F0F0F0F0F0F0F0F0F0F0F0F0F0F0F0736
:1012D00003014A24F804FA0D050505050505050571
:1012E00005050505050505050505050505050505AE
:1012F000050505050505050505050505050505059E
:10130000050505050505050505050505050505058D
:10131000050505050505050505050DFA04F8FF0099
:10132000FF000000000000000000000000000000BE
:1013300000000000000000000000000000000000AD
:10134000000000000000000000000000000000009D
:10135000000000000000000000000000000000008D
:101360000000000000FF00FFFF00FF000000000081
:10137000000000000000000000000000000000006D
:10138000000000000000000000000000000000005D
:10139000000000000000000000000000000000004D
:1013A000000000000000000000000000000000FF3E
:1013B00000FFFF00FF000000000000000000000030
:1013C000000000000000000000000000000000001D
:1013D000000000000000000000000000000000000D
:1013E00000000000000000000000000000000000FD
:1013F000000000000000000000FF00FF0102050BDC
:101400000A0A0A0A0A0A0A0A0A0A0A0A0A0A0A0A3C
:101410000A0A0A0A0A0A0A0A0A0A0A0A0A0A0A0A2C
:101420000A0A0A0A0A0A0A0A0A0A0A0A0A0A0A0A1C
:101430000A0A0A0A0A0A0A0A0A0A0A0A0A0A0A0A0C
:101440000A0A0B05020102FFFFFFFEFEFFFFFFFF7E
:10145000FFFFFFFEFEFFC7EFFFEEFFFFFFFEFEFFF9
:10146000FFFF02003CFEFFFFFFFFFEFEFFFF1FFE2F
:10147000FCFEFFFFFEFEFFFFFFFFFFFFFEBEFFFFC4
:10148000FFFFF7EF3EFEFFFFFFFF8E081F1F1F0F3E
:101490000F1F1F1F1F1F1F1F0F0F1F1F0F1F0F1FAC
:1014A0001F1F0F0F1F1F1F08000E1F1F1F1F0F07DB
:1014B0000F1F1F0F07070F1F1F0F0F1F1F1F0F0FDC
:1014C0001F1F1F1F1F1F1F1F1F0E1F1F1F1F0F0765
:1014D000450D02FD0101DEDE0101FDFD0101FD06FC
:1014E00002FDC52931AEFD0101DEDE0101FD020074
:1014F0003CC2010D1971FE0201FD11FE0402FDFD49
:101500000206FD0101BDBD0142BEFD0101BD15E99F
:101510003EC2010D19718E081710100F0F10101711
:10152000171010170C08171708100F1710100F0FAF
:1015300010101708000E11131610080708101709CD
:101540000704081717080C1710100F0F10101717A3
:1015500010101717110E11131610080721080F0F7E
:1015600008080006090B06000E03030E000F090F02
:1015700006000F0F000F02030F000E0F090D000EE3
:1015800010BEBDBEBDBEBDBEBDBEBDBEBDBE0000AB
:10159000040004000400040004000400004E080FCE
:1015A0000D0702000F050F0A000F0D0900020B0DB9
:1015B00000020B0D00000000000F0D0702000F0FCE
:1015C0000808000E03030E00030E0E0300000006C1
:1015D000090B06000F02030F00000000010F0F01AE
:1015E0000E03030E000F0D0702000F0D090E10A7CA
:1015F000C7A7C7A7C7A7C7A7C7A7C7A70007070742
:10160000070707070707070707070024080E1F1F1C
:101610001F0E00000000000000000000001F0E046C
:10162000000000000000000000040E1F00040E1F58
:10163000000F08C1F7C1FFC1D5FFC1DFFFC1F5FB36
:10164000FFD1C0E0E0F0F0F0F0F8FCFEFF7F7FFE9D
:10165000FC600001010707070707070707040000F0
:101660000000100BC0202010D0D05018040281615F
:1016700041829C6000010107010000000400030496
:1016800000000000F8FCFCFCFC78F8FCFCFCFCFC16
:10169000F8F8FCFCFCFCFCB8F8FCFCFCFCF8F8FCE2
:1016A000FCFCFCD8F8FCFEFFFFFFFFFFFFFEFCF890
:1016B000010303010000010303010103030103030C
:1016C00003030301030303030100030303030100F6
:1016D0000103070F0F0F0F0F0F0703012C0CF80466
:1016E00004B48448F80404D41404C8F80404D4945A
:1016F00064B84884941424F84884941424D8F804D2
:101700000201F14949F1010204F80102020100005D
:1017100001020201010202010202020202010202AE
:10172000020201000202020201000102040809088B
:1017300008090804020129100040A05000CF01212F
:1017400001FFFF000000800000FFFFFF000000001D
:1017500000BFBF1F00004040E0F8FFFF00A854A8F2
:1017600050AA55AA5500FFFFFFFFFFFF00AA55AA88
:101770005500FFFFFF00AA55AA00FFFFFF0054AA73
:1017800054A803FFFF00AA55AA55A050A04000CFBF
:10179000012101FFFF00A050A04000FFFFFF00A0BB
:1017A00050A000BFBF1F40005040E0F8FFFF00A066
:1017B00050A040AA55AA5500FFFFFFFFFFFF00AA57
:1017C00055AA5500FFFFFF00AA55AA00FFFFFF0022
:1017D00055AA55A803FFFF00AA55AA558040A0406E
:1017E00000CF012101FFFF00A854A85000FFFFFF18
:1017F00000A854A800BFBF1F00004040E0F8FFFF52
:1018000000A854AA54AA55AA5500FFFFFFFFFFFFE6
:1018100000AA55AA5500FFFFFF00AA55AA00FFFF26
:10182000FF0054AA54A803FFFF00AA55AA55F8FCCC
:10183000FEFFFFFFFFFFFFFFFFFFFFFFFFFFFFFFB9
:10184000FFFFFFFFFFFFFFFFFFFFFFFFFFFFFFFFA8
:10185000FFFFFFFFFFFFFFFFFFFFFFFFFFFFFFFF98
:10186000FFFFFFFFFFFFFFFFFFFFFEFCF8FFFFFF93
:10187000FFFFFFFFFFFFFFFFFFFFFFFFFFFFFFFF78
:10188000FFFFFFFFFFFFFFFFFFFFFFFFFFFFFFFF68
:10189000FFFFFFFFFFFFFFFFFFFFFFFFFFFFFFFF58
:1018A000FFFFFFFFFFFFFFFFFFFFFFFFFFFFFFFF48
:1018B000FFFFFFFFFFFFFFFFFFFFFFFFFFFFFFFF38
:1018C000FFFFFFFFFFFFFFFFFFFFFFFFFFFFFFFF28
:1018D000FFFFFFFFFFFFFFFFFFFFFFFFFFFFFFFF18
:1018E000FFFFFFFFFFFFFFFFFFFFFFFFFFFFFFFF08
:1018F000FFFFFFFFFFFFFFFFFFFFFFFFFFFFFFFFF8
:10190000FFFFFFFFFFFFFFFFFFFFFFFFFFFFFFFFE7
:10191000FFFFFFFFFFFFFFFFFFFFFFFFFFFFFFFFD7
:10192000FFFFFFFFFFFFFFFFFFFFFFFFFFFFFFFFC7
:10193000FFFFFFFFFFFFFFFFFFFFFFFFFFFFFFFFB7
:10194000FFFFFFFFFFFFFFFFFFFFFFFFFFFFFFFFA7
:10195000FFFFFFFFFFFFFFFFFFFFFFFFFFFFFFFF97
:10196000FFFFFFFFFFFFFFFFFFFFFFFFFFFFFFFF87
:10197000FFFFFFFFFFFFFFFFFFFFFFFFFFFFFFFF77
:10198000FFFFFFFFFFFFFFFFFFFFFFFFFFFFFFFF67
:10199000FFFFFFFFFFFFFFFFFFFFFFFFFFFFFFFF57
:1019A000FFFFFFFFFFFFFFFF000103070707070718
:1019B00007070707070707070707070707070707B7
:1019C00007070707070707070707070707070707A7
:1019D0000707070707070707070707070707070797
:1019E000070707070301003F33F804FA0D05E5E593
:1019F0002525252525252525252525E525252525D7
:101A000025252525E52525252525252525252525C6
:101A100065E5E5E5E5252525252525252525252536
:101A2000E5E5E5050DFA04F8FF00FF0000FFFFFF04
:101A3000000000000000FF1F1C18F8FF000000005D
:101A40000000FFFFFF0000000000FFFFFF0000009C
:101A5000000083FFFF000000000000FFFF3F38F898
:101A6000FFFF0000FF00FFFF00FF0000FFFFFF007F
:101A70000000000000FCF0F0F0FFFF00000000009C
:101A800000FFFFFF0000000000FBFBF1000004046A
:101A90000E3FFFFF000000000000FDFDE0E0FFFF43
:101AA000FF0000FF00FFFF00FF0000FFFFCFC0C0EE
:101AB000C0C0C0404F7F7F7F7F4FC0C0C04040400C
:101AC0004FFFCF4040C0C0C04F7F7FE0404040400C
:101AD00040FFCFC040404040C0CFCFC7C0F0FFFF65
:101AE0000000FF00FFFF00FF0000FFFF9F2F3747B0
:101AF0000F9FFF0000007F7F0080C1FF03FC0000FC
:101B000001FFFF00C0030F3F0000FFFF000000FFC8
:101B1000FF030000FFFEF89F2F37470F9FFFFF00D6
:101B200000FF00FFFF00FF80003F3F3F3F3E3E3F82
:101B30003F2F2020202F3F3F3F2F202D3D2D2020C5
:101B4000202F202F3F3C3020203F2F2020202F3FD0
:101B50003C30202F27333F3F3E3E3F3F3F3F0080FA
:101B6000FF00FF0001020505050505050505050542
:101B70000505050505050505050505050505050515
:101B80000505050505050505050505050505050505
:101B900005050505050505050505050505050502F8
:101BA00001000102040810204080120113011401F9
:101BB0001501160217041807190B1A101B171C1E03
:101BC0001D251E201F1B20162111220C2308240571
:101BD00025032602270129012A022B032C052D07A4
:101BE0002E0A2F0D30113116321B332134253521A9
:101BF000361E371A381639123A0E3B0B3C093D088F
:101C00003E073F07400741084209430B440E451277
:101C10004616471A481E49214A254B224C1F4D1C87
:101C20004E1A4F18511653155514571459145B1466
:101C30005D155F166118621A631C641F65226625B4
:101C4000030407040316124A2B462B422B3F2A3C5F
:101C5000293A2739243820371B37163711370C38E3
:101C60000839053A033C023E014100440047004A5E
:101C7000004C00120E372B3725371F371937133713
:101C80000D380839053A033C013E0140004200444A
:101C900000460048004A004C00130F202B22252448
:101CA00020261B28162A112C0C2E0830053203354D
:101CB0000238013B003E004100440047004A004C0E
:101CC0000000FCFEFFFFFFFFFFFFFFFFFFFFFFFF26
:101CD000FFFFFFFFFFFFFFFFFFFFFFFFFFFFFFFF14
:101CE000FFFFFFFFFFFEFC00103F7FFFFFFFFFFF36
:101CF000FFFFFFFFFFFFFFFFFFFFFFFFFFFFFFFFF4
:101D0000FFFFFFFFFFFFFFFFFFFFFFFF7F3F1027EA
:101D10001000FC02010101010101010101010101A9
:101D200001010101010101010101010101010101A3
:101D3000010101010102FC00102F50A0A0A0A0A0F1
:101D4000A0A0A0A0A0A0A0A0A0A0A0A0A0A0A0A093
:101D5000A0A0A0A0A0A0A0A0A0A0A0A0502F10FC78
:101D600002FDFEFEFEFEFEFEFEFEFEFEFEFEFEFE90
:101D7000FEFEFEFEFEFEFEFEFEFEFEFEFEFEFEFE83
:101D8000FEFEFEFD02FC2F50AF5F5F5F5F5F5F5F97
:101D90005F5F5F5F5F5F5F5F5F5F5F5F5F5F5F5F53
:101DA0005F5F5F5F5F5F5F5F5F5FAF502F0000004F
:101DB0000000C0E0F0F0E0C0000000000000000003
:101DC000000001030301000000000000000080E0AB
:101DD000F0F8F8F8F0E0C000000000000001030790
:101DE000070F0F070301000000C0E0F8FCFEFEFF34
:101DF000FFFFFFFEFEFCF8F003070F1F1F3F7F7F72
:101E00007F7F3F1F0F03010080D8FCFE7E3F1E0C2A
:101E10009C3E7F3F9E0C03070F1F1F0F0E1E3F7F30
:101E20003F1E0D0301000C9EBF3F1E0400040E1F49
:101E30003F3F1E0C060F1F3F1F0E0400081C3E7F75
:101E40003F1E0C0002070F060000000000070F1FD6
:101E50001E1C0E1E3E3C380000000010387C38105E
:101E600000020702000000000000000002070E044C
:101E7000081C381000000000000000002070200F37
:101E80000F0000000000C020D0D020C000000000E3
:101E9000000000000000010202010000000000003C
:101EA0000000000000C02020C00000000000000072
:101EB0000000000000010100000000000000000020
:101EC000806090E8E8C8D020C00000000000000159
:101ED0000205050B0B050201000000000000008058
:101EE0006010103020C0000000000000000001025F
:101EF000020404020100000000C020D8E4DAFAFD68
:101F0000FDFDF5FAFAF408F003040B17172B5F5FD9
:101F10005F5E2D130D020100C0201824040202028E
:101F20000A040408F00000030408081420202021FB
:101F3000120C02010000805864DA5A2D120C942A07
:101F40005D2D920C03040B1716090E122D5E2D1237
:101F50000D0201000080982424120C0008142212A3
:101F60000C00000304080906000C1221120C0001E9
:101F700000000C92AD251A0400040A152D2D120C38
:101F80000609162E150A040008142A5D2D120C00ED
:101F9000000C121A04000000040A12120C000006C1
:101FA00009110A04000000081422120C00000205A6
:101FB00009060000000000060915120C0C122A2464
:101FC00038000000001028542810000002070F06F7
:101FD0000000000000060F1F1E0C0C1E3E3C3800C7
:101FE00000000010387C38100002050200000000DC
:101FF0000000000002070E04081C3810000000005A
:10200000000000002070200002000000000000001E
:1020100000000002040000081000000000000000A2
:102020000000002000000000000000000000000090
:102030000000FCFEFFFFFFFFFFFFFFFFFFFEFCF8BD
:10204000E0C00080F8FCFEFFFFFFFFFFFFFFFFFF87
:10205000FFFFFFFFFFFFFFFFFFFFFFFFFFFFFFFF90
:102060008007070F0F0F1F3F3F3F3F1F0F0F0F0F3F
:102070000F0F0F0F1F3F3F3F3F1F0F0F0F070300B3
:1020800080C0C0C0C0E0F0E0E0C0C0C0C0C0C0C000
:10209000C0C0C08000000000000000000000F8FD8B
:1020A000FFFFFFFFFFFFFFFFFFFFFFFFFFFFFFFF40
:1020B000FFFFFFFEFEFEFCF8F0E0800003070F0FBD
:1020C0001F3F3F3F3F1F0F0F0F0F0F0F0F0F0F1F30
:1020D0003F3F3F3F1F0F0F07031E18000000000087
:1020E0000000000000000000FC022501FDFD1DEDC8
:1020F0002D2D29A2C41820C000807804D255B5D552
:102100005555D5B575F5F5F0F7F0FF7FB8D75456AE
:10211000D7B571F0807F8007040B080B11202622B1
:1021200020110B0809090909080B1120262220118A
:102130000B080B04030080404040406050202040CA
:1021400040404040404040404080000000000000CF
:1021500000000000F805422492D05052D690063676
:102160006666767676723082C55252D2B428106096
:1021700080000304080B1120262220110B0A0A0AF2
:102180000A0A0A0A0B1120262220110B0904033C1B
:102190007EFFFFFFFF7E3C003C7EFFFF7E3C000099
:1021A000003CFFFF3C0000003C7EFFFF7E3C00083F
:1021B000083C42BDADA5BD423C003C42BDAD423CE9
:1021C0000000003CFFC33C0000003C42A5BD423C77
:1021D00000100803030303030303030303030303C0
:1021E000030303FFFFFFFEFCFCFCFCFFFFFFFEFC04
:1021F000FCFCFC03030303030303030303030303C4
:10220000030303100A108E9284A8889088108E927F
:1022100084A88890880302020202020202030202DA
:102220000202020202401CFFFFFFFFFFFFFFFFFF51
:10223000FFFFFFFFFFFFFFFFFFFFFFFFFF01FDFDB0
:10224000FD01979717979701FDFDFDEDC5EDFDFD8C
:10225000FD01979717979701FDFDFD01FFFFFFFF18
:10226000FFFFFFFFFFFFFFFFFFFFFFFFFFFFFF0776
:10227000F30B0B4BEB4B0B0BFB03FFFFFF00FFFFC5
:10228000FF00F77300F77300FFFFFFFFABFFFFFFD7
:10229000FF00F77300F77300FFFFFF00FFFFFFFF72
:1022A000FFFFFFFFFFFFFFFFFFFFFFFFFFFF7FBC01
:1022B000D9EA72BA5AAA52AA53A04FAF4FA0FFFF51
:1022C000FF00DECEC0DECE00FF0BFF02E202FF0BFE
:1022D000FF00DECEC0DECE00FFFFFF00FFFFFFFFEE
:1022E000FFFFFFFFFFFFFF0F0F0F0F0F0F0F0F0F6E
:1022F0000F0F0F0F0F0F0F0F0F0F0F0F0F0F0F0FEE
:102300000F0F0F0F0F0F0F0F0F0F0F0F0F0F0F0FDD
:102310000F0F0F0F0F0F0F0F0F0F0F0F0F0F0F0FCD
:102320000F0F0F0F0F0F0F401CFFFFFFFFFFFFFFEF
:10233000FFFFE70BE515D55515D55515E50B67BF1F
:10234000BFBFBFBFBFBFBFA70BE515D55515D5553F
:1023500015E50B67BFBF93AD92A9B7BFBF7FFFFF66
:10236000FFFFFFFFFFFFFFFFFF9F2F57AB55AA5453
:10237000A9439F00FF00D6D210D6D200FF0001FC77
:1023800002DA4A02DA4A02FC01FC00D6D210D6D2A6
:1023900000FF0001FC02DA4A02DA4A02FC01FCFFFB
:1023A000FFFFFFFFFFFFFFFFFFFFFFFEFC01F60641
:1023B00000050E00FF00FE060206FE00FF0000FF03
:1023C00000FAFA02FAFA00FF00FF00FE060206FE1B
:1023D00000FF0000FF00FAFA02FAFA00FF00FFFF18
:1023E000FFFFFFFFFFFFFFFFFF0F0F0F0F0F0F0F8D
:1023F0000F0F0F0F0F0F0F0F0F0F0F0F0F0F0F0FED
:102400000F0F0F0F0F0F0F0F0F0F0F0F0F0F0F0FDC
:102410000F0F0F0F0F0F0F0F0F0F0F0F0F0F0F0FCC
:102420000F0F0F0F0F0F0F0F0F80C0E0F0E0C4CEA3
:10243000FFFFFFFFCEC4E0F0E0C08003173F7FFF47
:10244000FFFFFFFFFFFFFFFFFF7F3F1703000000BD
:102450000000010100000000010100000000000078
:10246000000000C0E4CEFFFFFFFFCEE4C00000008C
:10247000000000001FBFFFFFFFFFFFFFFFFFBF1FA8
:102480000000000000000000010100000000010148
:10249000000000000000000000C0E4CEFFFFFFFFCE
:1024A000CEE4C0000000000000000087DFFFFFFF57
:1024B000FFFFFFDF870000000000000000000101B7
:1024C000000000000101000000000000000000000A
:1024D00004CEFFFFFFFFCE0400000000000000005C
:1024E0000080D8FDFFFFFFFFFDD880000000000046
:1024F00000000000010100000000010100000000D8
:102500000012118040A01020C4CA35151535CAC468
:102510002010A0408002152851C65865BA8181BAA2
:102520006558C65128150200000000000101000096
:1025300000000101000000000000000000C024CAEB
:1025400035151535CA24C0000000000000001FA08A
:102550005865BA8181BA6558A01F000000000000CC
:102560000000010100000000010100000000000067
:10257000000000C024CA35151535CA24C00000006B
:102580000000000000875865BA8181BA655887004D
:102590000000000000000000010100000000010137
:1025A0000000000000000000000004CA35151535C9
:1025B000CA04000000000000000000805865BA81D5
:1025C00081BA655880000000000000000000010191
:1025D00000000000010100000000003E7F3E7F3E41
:1025E0007F7F3E7F7E3E7F3F0E2E7F2E11073E4136
:1025F00036413E41553E415E3E41350A2E512EC088
:10260000E0E0F0F0F0F0F8FCFEFF7F7FFEFC600001
:10261000010107070707070707070400000000106C
:102620000BC0202010D0D050180402816141829C40
:102630006000010107010000000400030400000025
:10264000000E0E0E1F1F1F1F1F1F0E0E0E001C1F41
:102650001F1F1F1F1F1F1F070000071F1F1F1F1FF8
:102660001F1F1F1C000C050E0A0E1F151F1F151F14
:102670000E0A0E000400000A00000A000004000018
:102680001C171D1F171D1F171D0700000008020043
:102690000802000802000000071D171F1D171F1D5C
:1026A000171C00000002080002080002080000C019
:1026B000E0E0F0FCFEFFFFFFFEFFF6F8F0F0600048
:1026C0003179797D3F0F0F0F0F07070F1E0F060E91
:1026D0001F1FFEF8F0FFFFFFFFFCF8F8F0E000001E
:1026E0000010397F7F2F3F7F7F3F0B0707020030AD
:1026F000F8BCF8F0F0F8F8F8F8FEDFCFCFC68003AA
:1027000007070F377F3F7F7F7F3F1F07030301A02E
:10271000F0F0E8FEFFFFFEFAFFFFCE04000000032A
:10272000070F0F1F7F7F7F7F070F3F7C7C380000E4
:1027300030F8FCFEFEFEFC7E3CF8F8F0C00000160F
:102740003F3F1F0F1F3F3F3F3F1F1F1F1F1F0E0019
:10275000C6EFFEFFFFFEFCFCFEFEFCF87000000072
:10276000033F7F7F7F3F3C3D1F1F0F030100003869
:102770007CFCFCFCFC7E7EFEFEFCF8FCFE7E340055
:102780000001070F0F1E3F1F3F3F3F1F0F060000B6
:1027900040E0F8FCFCDE9EFEFFFFFFFEE0000000D4
:1027A000070F1F3F3F1F1F3F7F7F3F7B3100001000
:1027B0000FC02020107CC28109191A6936889090B8
:1027C000600031494945320A08080805050912091F
:1027D000060E1111E608300F31190B8CC80810E0F5
:1027E000000000102946502E384346350B040502E0
:1027F0000030C8A4C85050080808A8A65149494646
:102800008003040408364B2D4C4840211F0402026B
:1028100001A05010E8D631610E3A0531CA0400001B
:10282000000304080918684C467806083344443805
:10283000000030C884020222B4523CC80830C000F4
:10284000001629241E08102020232D1616171111FA
:102850000E00C6291A0D09028C04C2820488700079
:102860000000033C424E5D33242512130E0201008A
:10287000003844C47434B45A6282020408BC924AD8
:10288000340000010608091E251622202010090622
:10289000000040A038E4A45292665D39211EE00099
:1028A0000000070810202110182048582C4A310039
:1028B000000000000070F8FCFEFEFFFFFEFC600060
:1028C000000000000000000000000000000060FCAC
:1028D000FEFFFFFEFEFCF87000000000008080009C
:1028E00082C7E7FFFFFFFFFFFEFCFCFC38383838EB
:1028F00038383838B8B838FCFCFCFFFFFFFFFFFF62
:10290000C7870200000000070F1F1F0F070101000B
:10291000040E1F3F3F1B01000000000000000307E2
:102920000F1F0F0701000000000F1F1F1F1E0C00CC
:1029300000000000000070F8FCFEFEFFFFFEFC60DF
:102940000000000000000000000000000000006027
:10295000FCFEFFFFFEFEFCF870000000000000001F
:102960000002C7E7FFFFFFFFFFFEFCFCFC38B8B822
:1029700038383838383838B8FCFCFCFFFFFFFFFF28
:10298000FFC78702808000000000000C1E1F1F1F71
:102990000F0000000001070F1F0F070300000000D9
:1029A0000000011B3F3F1F0E04000101070F1F1F06
:1029B0000F07002B1600000000708804021601416A
:1029C000229C6000000000000000000000000000E9
:1029D0000000609C22410116020488700000000083
:1029E000008080008245243E80808091322444C44F
:1029F0002828282828282828A8A828C444249391CF
:102A00008080003E44850200000000070810110885
:102A100006010100040A1121241A0100000000002F
:102A2000000003040811080601000000000F101246
:102A300013120C0000000000000070880402160150
:102A400041229C6000000000000000000000000027
:102A5000000000609C224101160204887000000002
:102A6000000000000002C5243E00808091B2244492
:102A7000C428A8A828282828282828A8444424931B
:102A8000918080003E448502808000000000000CA0
:102A9000121312100F0000000001060811080403B1
:102AA000000000000000011A2421110A04000101A5
:102AB0000608111008070000D32F11241FBECFEF06
:102AC000DAE0DEBFCDBF11E0A0E0B1E0E4E4FBE678
:102AD00002C005900D92AA3AB107D9F726E0AAEAFA
:102AE000B1E001C01D92A13EB207E1F715E1CDE5CD
:102AF000D5E104C02197FE010E946834CC35D1078E
:102B0000C9F70E94CE300C94A0350C9400000895B3
:102B100080E090E008950895089508950895089537
:102B20000895089508950895FC018AE191E0918344
:102B30008083158214828EE091E09383828388E003
:102B4000838781E0828717821086168281871486A8
:102B5000168608950895CF92EF920F931F93CF9307
:102B6000DF93FC016A3039F4858184839681818505
:102B7000890F86834AC084816E3719F48D5F848300
:102B800044C0262FEF0166816F5F2A334CF4203357
:102B9000C4F42D32C1F02E3281F0213249F515C036
:102BA0002B352CF421345CF42F3341F121C09FE903
:102BB000920F9A31E8F4275409C02FE307C021543B
:102BC00005C02C5F03C021E401C02EE33F81062E27
:102BD000000C770B082E000C990B313089F43AEF7A
:102BE000C32EE12C00E010E047E054E00E940123F6
:102BF00088858B5F9C81890F8C8307C020E4E6CF9A
:102C000047E054E00E947124F3CF81E090E0DF912F
:102C1000CF911F910F91EF90CF9008950C940335B1
:102C20000C9403350C9403350C9403350C94033544
:102C30000C9403350C9403350C940335AF92BF927A
:102C4000CF92DF92EF920F931F93CF93DF935C01AC
:102C5000102FFB018781908587709927892B39F484
:102C600081E0F5019485911180E0F5018487C22F00
:102C7000220FDD0BC42E440FDD08E12C00E020EF15
:102C800039E04CE65AE0BE01C6010E949124F501EC
:102C9000048529ED39E040EE59E0BE01C6014296B7
:102CA0000E949124112361F0BE016B5F7F4F00E011
:102CB0002BE939E049EB59E0C60104970E949124C1
:102CC000DF91CF911F910F91EF90DF90CF90BF9048
:102CD000AF900895EF920F93CF93DF93C0E0D0E0D1
:102CE000E12C00E029E739E049E859E06BE370E0C6
:102CF000CE010E9491242896C038D10589F7DF9132
:102D0000CF910F91EF900895AF92BF92CF92DF9243
:102D1000EF92FF920F931F93CF93DF93EC016B0120
:102D2000F42E122FA12CB12CE12C00E029E739E080
:102D300049E859E06CE170E0C5010E94912488E007
:102D4000A80EB11CE0E8AE16B10471F725E737E034
:102D500047E758E063E370E080E090E00E94912450
:102D6000FF2021F1AD85B0E0FD01EE0FFF1FE55919
:102D7000F84F45915491FD01EC56FE4F608170E093
:102D8000A756BE4F8C91F601218D90E00E948124C0
:102D9000F601878190858F709927892B39F48D856D
:102DA0008F5F853010F48D8701C01D86E12C00E017
:102DB00029E536E041EE56E060E070E080E090E02A
:102DC0000E949124112351F027E435E04FEC55E0A7
:102DD00060E070E080E790E00E949124DF91CF9165
:102DE0001F910F91FF90EF90DF90CF90BF90AF9029
:102DF0000895EF920F93CF93C42FFB018189813007
:102E000029F008F448C0823079F025C0442309F441
:102E100042C0E12C00E021E135E04BE255E061E009
:102E200070E08CE490E035C0E12C00E021E135E079
:102E30004BE255E061E070E08CE490E00E94912468
:102E4000CC2349F121E135E04BE255E061E070E04F
:102E50008FE390E01EC0E12C00E021E135E04BE281
:102E600055E061E070E08CE490E00E94912421E163
:102E700035E04BE255E061E070E08FE390E00E94C6
:102E8000912421E135E04BE255E061E070E082E31E
:102E900090E00E949124CF910F91EF9008952F928E
:102EA0003F924F925F926F927F928F929F92AF92DA
:102EB000BF92CF92DF92EF92FF920F931F93CF9327
:102EC000DF9300D000D0CDB7DEB79C838B835B014E
:102ED000DB011996FC90FC0181A5882341F081500B
:102EE00081A7811104C040E060E00E949625AB817B
:102EF000BC811E968C911E978111DCC1F5018781E2
:102F0000908587709927892B69F496968C9196976E
:102F10008F5F843019F096968C9304C0AB81BC818E
:102F200096961C92F5018189833070F4AB81BC8147
:102F300093968D919C919497181619062CF40197ED
:102F400094969C938E939397EB81FC8187A1882321
:102F500011F0815087A3AB81BC8198968C91989792
:102F6000882319F0815098968C93AB81BC819396FD
:102F7000ED91FC919497CF0160E87CE00E9454347D
:102F800009964397B8F5D50153968D919C91549726
:102F90004AE0489F9001499F300D112440E951E0DB
:102FA000421B530BAB81BC819B965C934E939A97CB
:102FB00025E0289FB001299F700D112428EC30E0F6
:102FC000261B370B9D963C932E939C97453B5105B2
:102FD00030F084EB90E09B969C938E939A972536E5
:102FE000310540F084E690E0AB81BC819D969C93D6
:102FF0008E939C97D50151968C91AB81BC811F9685
:103000002D913C9150978330A9F42938BFEF3B07AD
:103010006CF0F5018781908565E070E00E94403496
:10302000892B09F0C9C0225031092CC081E0F5017B
:10303000808FC2C037FF13C0D50117968D919C9128
:10304000189765E070E00E944034892B09F0B4C005
:103050002E5F3F4FEB81FC81308B2787ADC0EF2B7C
:1030600009F073C1283C31050CF05FC1F50187817F
:10307000908565E070E00E944034892B09F09CC087
:103080002E5F3F4FAB81BC8150963C932E931F9790
:1030900093C0F5FC71C16501B4E0CB0ED11CF50104
:1030A0008781908563E070E00E944034029709F0C8
:1030B00068C1F7FC74C1AB81BC8157968C9157975E
:1030C000882309F473C1BF2DB0719B2EF4FC97C106
:1030D000AB81BC815796EC90B1E0EB1609F496C138
:1030E000AB81BC8193968D919C919497D3964D0121
:1030F0008D3291400CF0B1C1EB81FC8123A134A150
:10310000838D2D3231400CF464C3811162C3EB8195
:10311000FC81848D81111EC064ED70E080E090E040
:103120000E94CE21DC01CB0180589F4FAF4FBF4F93
:10313000EB81FC81918F808F63E070E080E090E014
:103140000E94CE21AB81BC815A966C935A9781E044
:103150005C968C93F5018781908563E070E00E9416
:103160004034029709F08CC27401DD24D394061513
:10317000170509F0DBC287E0782E140160E070E0EB
:10318000662ED40140E050E06101E3E0CE1AD108A0
:103190007101F5E0EF1AF108641253C34F5F5F4FFE
:1031A000179643305105C1F76F5F7F4FE7E02E0E52
:1031B000311C6330710521F7D50117968C9180FD84
:1031C00036C0EB81FC81858D8150803C11F0858F6C
:1031D00004C0AB81BC815D961C92EB81FC81ED5BF0
:1031E000FF4F2081222359F0AB81BC815E968D91E7
:1031F0009C915F9701975F969C938E935E97AB81AE
:10320000BC8193968D919C919497892B81F4211187
:103210000EC081E080835D968C915D97082E000C36
:10322000990B80549F4F5F969C938E935E97F50108
:103230008781908563E070E00E944034029771F0CE
:10324000AB81BC8190968C9190978150803F19F012
:1032500090968C9303C0EB81FC8110A2D501179648
:103260008D919C91189783709927039761F0EB815A
:10327000FC8181A18250813E14F081A304C0AB8106
:10328000BC8191961C92F5018781908565E070E084
:103290000E944034039770F4AB81BC8192968C916C
:1032A00092978350813E1CF092968C9303C0EB81E1
:1032B000FC8112A2D50117968D919C91189766E01A
:1032C00070E00E944034892BD9F0B5018B819C813C
:1032D0000F900F900F900F90DF91CF911F910F9152
:1032E000FF90EF90DF90CF90BF90AF909F908F9026
:1032F0007F906F905F904F903F902F900C94112192
:10330000EB81FC8173962B813C81295E3F4F80814C
:10331000882331F08F5F863011F0808301C01082E6
:103320003196E217F30799F7D0CFD50153968D91D7
:103330009C915497019654969C938E93539745E095
:1033400064E0C5010E94281F37CF0B811C81025DFC
:103350001F4F6B807C80B3E46B0E711CEB81FC8192
:10336000F4968B819C81875B9F4FE817F90709F4DE
:1033700090CE10823796F9CF2115310509F0E8C0BB
:103380008ACEF6FE96CEAB81BC811F968D909C9026
:103390005097B6E48B1691040CF4E1C08ACEEB8111
:1033A000FC818189883008F020C185CEF7FC22C0DD
:1033B0005196EC905197EA941F964D915C915097DD
:1033C0002E2DB601CD010E94762D8F3F61F0EB814D
:1033D000FC81838981110EC081E0838BB501CF010F
:1033E0000E94B92D07C0AB81BC815196EC925197D8
:1033F00057961C928B819C810E94DD2D64CEEB81BF
:10340000FC818189813208F413C162CE911020C001
:10341000EB81FC81F188F394478550892F2DB6010B
:10342000CF010E94762D8F3F79F0AB81BC815496FD
:103430008C91549781110CC05496EC925497B5011D
:10344000CD010E94B92D04C0EB81FC81F18AE78A8D
:103450008B819C810E94DD2D43CE74016801C614CE
:10346000D70409F449CED7018C9181116AC01701A4
:10347000B3E02B1A31082701E2E04E1A51089701F8
:10348000215031093A8329836CEA70E080E090E0B2
:103490000E94CE21DC01CB0180589F4FAF4FBF4F20
:1034A000F60191838083833E9F4F14F4D7011C92D1
:1034B00063E070E080E090E00E94CE21F101608343
:1034C00062E070E080E090E00E94CE21D2016C9337
:1034D00062E070E080E090E00E94CE21DC01CB0150
:1034E0000296A11DB11DE981FA818083E1E0D70137
:1034F000EC93D1013C91F60140815181D401B80196
:1035000020E066157705D1F08C91882399F0CD01E4
:103510000397FC01808183130DC0FB0180819181A1
:10352000841B950B97FF03C0919581959109C397D3
:103530000CF4A4C0695F7F4F1796E3CF213009F0E8
:10354000A3CFF7E0CF0ED11C27E0E20EF11C87CF0E
:1035500021503109EB81FC81308B27879CCDFFEF17
:103560008F1A9F0AAB81BC8151962C915197A4016F
:10357000B601CD010E94762DE82EBFEF8B1771F1B9
:10358000EB81FC818689811106C081E0868BB501C3
:10359000CF010E94B92DAB81BC811F962D913C912A
:1035A0005097215E3F4F8E2D90E0FD01B7E0EB9EDE
:1035B000E00DF11D112437A726A7233E3F4F0CF441
:1035C00013AA27E0289FF001299FF00D11248B8179
:1035D0009C81E80FF91F81E084AB6BCDAB81BC818E
:1035E00050969C928E921F9764CDEE24EA94E80E3A
:1035F000EB81FC81478550892E2DB601CF010E94B9
:10360000762D8F3F81F0AB81BC8153968C9153977F
:10361000811151CD81E053968C935397B501CD0123
:103620000E94B92D48CDEB81FC81E18A178A43CDF8
:10363000FF24F394F80EAB81BC811F964D915C91F1
:1036400050972F2DB601CD010E94762D8F3F81F02E
:10365000AB81BC8154968C915497811139CD81E016
:1036600054968C935497B501CD010E94B92D30CD5D
:10367000EB81FC81F18A81E0878B2ACD2F5F5ACFC5
:10368000AB81BC815C968C915C97882309F46CCDEE
:1036900058968D919C915997019759969C938E932A
:1036A0005897089689F4EB81FC81148E6AE570E0E6
:1036B00080E090E00E94CE21DC01CB010A96A11DA2
:1036C000B11DEB81FC81838FAB81BC8158966D91DC
:1036D0007C9159975A968C915A971F964D915C916F
:1036E000509751962C91FB0138964E175F070CF0BE
:1036F0003BCD415E5F4F641775070CF035CDBEE0E2
:103700008B9FC001112430E0B9016B5E7F4FAC018B
:103710004D5D5F4F641775070CF026CD215E3F4F5E
:103720004B96821793070CF01FCD59C0F70180818B
:10373000882309F448C0D80116968C91811143C0A2
:10374000F70133976081F80120813181AB81BC8121
:1037500051964C9151971F968D919C915097DC01F9
:103760005E96FC01B0962E173F070CF04DC0F90194
:103770003296AE17BF070CF047C050E0BEE06B9F1B
:10378000B0011124DB015B96FA017F96AE17BF07EB
:10379000DCF56B5D7F4F4B5E5F4F46175707A4F517
:1037A0004F96F80191838083833E9F4F14F4D70195
:1037B0001C92EB81FC818689811105C0D68AB501F6
:1037C000CF010E94B92D095F1F4FB7E0EB0EF11C2E
:1037D000CECC8150AB81BC815B968C93BBCC40E05E
:1037E00060E280E00E9496258AE0EB81FC8181A75F
:1037F000D5011F968D919C915097029650969C935F
:103800008E931F97148EB0CCF7013197608170E0D2
:10381000D50117968D919C9118970E94403488236A
:1038200019F081E090E002C082E090E0281B390BA3
:10383000F80131832083233E3F4F2CF6D7011C92A1
:10384000C2CFF1018081882309F4A8CC8C91882310
:1038500009F4A4CCF6012081CD010397FC018081FD
:1038600028139CCCF701808191819D01255031095D
:10387000F901208131818C01021B130B17FF03C05A
:103880001195019511090F3111050CF087CC2817FE
:1038900039078CF4215E3F4F769EF001779EF00D44
:1038A00011248B819C81E80FF91F37A726A7233E9F
:1038B0003F4F8CF062CC4F96749EF001759EF00DD8
:1038C0001124AB81BC81EA0FFB1F97A786A7833E1B
:1038D0009F4F0CF052CC13AA50CCCF93DF93DB0157
:1038E00058961C92FC01ED59FF4F128215823D96AD
:1038F0001082719722E12083DC011E961C92EC015C
:1039000065969E0126503109E217F30731F01882BF
:10391000DE0111971C922896F4CFDF91CF91089584
:10392000FC01DB0113968C9113978530D1F48CE95F
:10393000878782E7808B1F968D919C915097C296C6
:1039400053964D915C9154976AE0649F9001659FF6
:10395000300D1124820F931F57969C938E93569788
:1039600005C080E6878755968C91808B118A148AD2
:10397000158A128A80E2838B08954F925F926F922C
:103980007F928F929F92AF92BF92CF92DF92EF92EF
:10399000FF920F931F93CF93DF93EC01FB01C7803E
:1039A000D08421E040E00E948416E12C00E026E46F
:1039B00034E140ED54E163E070E08FE190E00E947B
:1039C000912420E631E142ED52E160E170E08DE1C9
:1039D00090E00E94912413E21F831E8385E1888773
:1039E0004E01F2E08F0E911CBE016D5E7F4FC4014F
:1039F0000E94F2216DA17EA145E1CE010E94072225
:103A00001F831E838EE18887BE01695E7F4FC401DC
:103A10000E94F2216FA178A54EE1CE010E940722FB
:103A20001F831E8387E28887BE01655E7F4FC401C6
:103A30000E94F22169A57AA547E2CE010E940722E1
:103A40000F850F3F09F465C0C60168E370E00E946E
:103A500040344D9708F45DC0FE01E00FF11DE00F0A
:103A6000F11D478C50A089E0089F80011124380186
:103A7000E5E16E0E711CE888F6E0EF9E70011124FE
:103A8000670182E2C80ED11CE8E2EE0EF11C035E73
:103A90001F4FCE14DF0401F1530177FE12C0A12C99
:103AA000B12C0FC0A816B9069CF4F0E8CF16D104CB
:103AB0002CF441E0B501C6010E94A2258FEFA81A9F
:103AC000B80AC801013411056CF380E490E0EACF34
:103AD000EFEFCE1ADE0ADDCF19868F8599E0899F38
:103AE000902D11249B5E2889822F880F820F880FCA
:103AF0008D5D8F838E839887EA81FB81D201A20F2F
:103B0000B11D0190F081E02D6C91C401099581E017
:103B100089878F858F3F79F48A8981110CC0E12CC8
:103B200000E02EEA30E146E051E164E370E08BE230
:103B300090E00E94912480E0DF91CF911F910F913E
:103B4000FF90EF90DF90CF90BF90AF909F908F90BD
:103B50007F906F905F904F900C9486212F923F92B0
:103B60004F925F926F927F928F929F92AF92BF928D
:103B7000CF92DF92EF92FF920F931F93CF93DF9339
:103B800000D000D0CDB7DEB78C015B01FC01108AFC
:103B9000118A84E6828BFB01878590899C838B83C5
:103BA000312C832D880F8D580E942A262B813C8131
:103BB000281739074CF06BE6E62EF12C75E7C72E77
:103BC000D12CE2E02E2E2CC03394F3E03F12E9CF4B
:103BD00033243A9453C0C2010E94AD33682FC4010C
:103BE000840D951D0E94BF268FEF481A580A46146F
:103BF000570489F71A821982BE016F5F7F4FC60191
:103C00000E94BA21BE016F5F7F4FC60102960E94DB
:103C100098262A94E2E0CE1AD108F4E0EF1AF108CF
:103C2000321448F4370184E0680E711C270154E017
:103C3000852E912CD0CFE32CF12C9701220F331F2E
:103C4000220F331F4901E7E68E0E911C6901FBE646
:103C5000CF0ED11C6FE3C4010E94BF268FEF881ADC
:103C6000980A8C149D04B1F7C701880F991FBE01F3
:103C70006D5F7F4F8D589F4F0E949826F8013786C1
:103C8000F5011286118667E6C80143960E943E261A
:103C90006BE6C80147960E943E266FE6C8014B9628
:103CA0000E943E2683E70E942A26F80196A385A358
:103CB00085E70E942A26F80190A787A387E70E943C
:103CC0002A26F80192A781A70F900F900F900F90CE
:103CD000DF91CF911F910F91FF90EF90DF90CF90E8
:103CE000BF90AF909F908F907F906F905F904F901C
:103CF0003F902F900895CF92DF92EF920F93CF9342
:103D0000DF93EC016B0120E041E00E94841688897A
:103D1000843658F40D89E02E28EA3EE04AEA5FE056
:103D20006AE270E090E00E949124E12C00E026E835
:103D30003EE046E95EE06CE170E088E690E00E94DB
:103D40009124F601218D44EC5DE066E270E088E6A6
:103D500090E00E948124B601CE010E946A160C896F
:103D60002FE14F85B601CE010E941E16F601818D0E
:103D7000DF91CF910F91EF90DF90CF900C9486213F
:103D80008F929F92AF92BF92CF92EF92FF920F933A
:103D90001F93CF93DF9300D000D000D0CDB7DEB714
:103DA000F62EFE01319626E0DF011D922A95E9F7F5
:103DB000DC011F962C911F9750969C910AE010E011
:103DC00036E03E0F822FB8010E9440348193262FA7
:103DD000972F3E13F7CF4E01B6E08B0E911C9EE558
:103DE000A92EB12CF1100AC0F40120814AE95DE04E
:103DF00063E070E0C5010E9471240EC08AEFC82EF6
:103E0000E12C00E010E0D4012C914AE95DE063E090
:103E100070E0C5010E940123B1E08B1A9108E5E032
:103E2000AE0EB11CFCE7AF16B104E1F626960FB654
:103E3000F894DEBF0FBECDBFDF91CF911F910F91E0
:103E4000FF90EF90CF90BF90AF909F908F9008958C
:103E50000F931F93CF93DF93EC01062F142F40E0B5
:103E600060E080E00E9496250B8F1C8FDF91CF9140
:103E70001F910F910895CF92DF92EF92FF921F93BF
:103E8000CF93DF93EC01FB01928511852F852F3FA6
:103E900009F48DC0878190856CE070E00E94403409
:103EA0006C01892B09F08FC017FF20C0FE01E20FC3
:103EB000F11DE20FF11D278D30A18889F901E80F6E
:103EC000F11D80818F5F80838889F901E80FF11DE2
:103ED00080818B3514F081E480838889F901E80FB3
:103EE000F11D8081803411F481E4808314FF21C0AE
:103EF0008F85FE01E80FF11DE80FF11D278D30A120
:103F00008889F901E80FF11D8081815080838889BB
:103F1000F901E80FF11D8081813414F48AE5808372
:103F20008889F901E80FF11D80818E3311F48AE54B
:103F3000808315FF05C08889882311F08150888B04
:103F400016FF05C08889823010F48F5F888B13FFBD
:103F50003AC08F85FE01E80FF11DE80FF11D078CB7
:103F6000F0A1E02D80818F3371F181818F3359F180
:103F700082818F3341F17F01F70161917F018F854C
:103F8000960144E08402200D311D1124C901895994
:103F90009F4F0E94BF265FEFC51AD50A83E0C8165F
:103FA000D10451F78FEF8F8784E68A8B0CC09095F0
:103FB000912393FF08C08A89811105C040E062E027
:103FC000CF010E94281F107699891036E9F59F5F6E
:103FD000998B953108F440C09D3350F19D33E1F544
:103FE000198A40E060E080E00E94962581E00E940E
:103FF000CF2667E6CE0143960E943E266BE6CE01B1
:1040000047960E943E266FE6CE014B960E943E26C2
:1040100083E70E942A269EA38DA385E70E942A2675
:1040200098A78FA387E70E942A269AA789A714C07A
:1040300020E430E0F901E91BF109CF0140E060E044
:10404000880F0E94962508C0992331F040E060E077
:1040500080E00E949625198A8A89882311F0815070
:104060008A8BDF91CF911F91FF90EF90DF90CF90DF
:104070000895FF920F931F93CF93DF93EC018B0171
:10408000FB01F284F0948185F822878180FD7EC057
:1040900089896AE00E9426344B8980FD90C080E0C7
:1040A00060E00E949625F801638199896530A9F541
:1040B000923A38F49B3588F49C3358F09C34E0F500
:1040C00062C09F3B30F19F3B09F05DC040E065E07E
:1040D00057C08F8581508F8756C081E08C8BF80147
:1040E0008781908583709927892B09F04CC0988926
:1040F000963130F4933140F4923109F444C006C053
:104100009B3120F4925003C0915001C09350988B82
:104110003AC08B8981508B8B2AC09D3838F49437F4
:1041200030F5953180F1993250F406C0943B08F196
:10413000943B49F540E024C081E08C8B24C081E0B1
:104140008C8BF8018781908583709927892BD9F40E
:104150009A898889923020F0943020F48E5F03C0D1
:104160008F5F01C08D5F888B9F5F9A8B0CC01C8A0C
:104170000AC08F858F5F8F878B8981508B8B03C09F
:10418000C8010E94281F89898F5F898BF3FE06C0B2
:1041900040E0F8016381C8010E94281FF80187816F
:1041A00090856CE070E00E944034892B59F4888936
:1041B000823141F09D8981E089278D8B03C0842F56
:1041C00040E06ECFDF91CF911F910F91FF90089546
:1041D000EF920F93CF93DF93EC01FB01808D882347
:1041E00061F0E12C00E028E13CE048ED5CE064E1B6
:1041F00070E080E290E00E9491248E85882361F037
:10420000E12C00E02AEE3AE040E85BE064E170E097
:1042100087E290E00E949124DF91CF910F91EF907F
:104220000895DC01FB019285909521859223808D74
:10423000882339F093FF0EC040E067E0CF010C9473
:10424000281F92FF07C01E968C911E9791E0982719
:104250001E969C930895CF92DF92EF92FF920F9358
:104260001F93CF93DF936C017A018B01C0E0D0E004
:10427000CE15DF0589F0D8016D918D01D601ED9144
:10428000FC910190F081E02DC6010995892B11F474
:104290007E0102C02196ECCFC701DF91CF911F9123
:1042A0000F91FF90EF90DF90CF9008950895FB015C
:1042B000148A138A128A118A108A1786118E108E18
:1042C000089508950E949B35FC01DB011A968C919C
:1042D0001A97809519969C911997892351F082819C
:1042E000882311F08CE782838281811102C081E0F2
:1042F00082839281992349F09F5F92839D3729F4AD
:1043000040E062E0CD010C94281F08959091D802FE
:104310009EBD91E0813009F490E091959093D80290
:1043200021E030E09FEFF901E852FD4F60818130DC
:1043300039F018F0823039F011C02F5F3F4F0AC0BA
:104340002F5F3F4F0AC0A9014F5F5F4F20383140B8
:104350001CF49A01908302C09A0110820DB407FEEA
:10436000FDCF6EBD211544E03407ECF20DB407FE1D
:10437000FDCF08950F931F93CF93DF938C01EB0133
:104380000E94AD338883C80101960E94AD338983B2
:10439000CE01DF91CF911F910F910895CF93DF93BD
:1043A00000D000D0CDB7DEB761157105810591054C
:1043B00079F09B01AC0169833A834B835C830E9453
:1043C0009F3329813A814B815C810E94C33303C0B2
:1043D00060E070E0CB010F900F900F900F90DF9195
:1043E000CF9108956115710579F0FB0101900020CE
:1043F000E9F73197AF01461B570BDC01ED91FC91BA
:104400000280F381E02D099480E090E008952F92DE
:104410003F924F925F926F927F928F929F92AF9254
:10442000BF92CF92DF92EF92FF920F931F93CF93A1
:10443000DF93CDB7DEB7AC970FB6F894DEBF0FBEF3
:10444000CDBF7C016B01042FCE01889699A788A768
:1044500015E44E0192E2890E911CEE27FF27E61B20
:10446000F70BFBA7EAA7F6E0F80DFCA7370122E05F
:10447000620E711C8AE0282E312C412C512C86E0D2
:10448000F40111928A95E9F7C601D7FE02C08AA508
:104490009BA5F4016AE070E00E9440348193CB0157
:1044A0002CA52E13F7CFF701178316830087E8A5F5
:1044B000F9A52291F9A7E8A730E040E050E019A261
:1044C000CE0181965C01CA01B901A20191010E944D
:1044D000F533605DF50162935F01211531054105FA
:1044E000510589F7BF01C3010E94F2211B5F1336FA
:1044F00031F6AC960FB6F894DEBF0FBECDBFDF919C
:10450000CF911F910F91FF90EF90DF90CF90BF90D0
:10451000AF909F908F907F906F905F904F903F9063
:104520002F9008953FB7F8948091D9069091DA06BC
:10453000A091DB06B091DC0626B5A89B05C02F3FF5
:1045400019F00196A11DB11D3FBFBA2FA92F982FB9
:104550008827820F911DA11DB11DBC01CD0142E034
:10456000660F771F881F991F4A95D1F708951F92EC
:104570000F920FB60F9211242F933F938F939F9317
:10458000AF93BF938091D4029091D502A091D602AF
:10459000B091D7023091D80623E0230F2D3720F4B5
:1045A0000196A11DB11D05C026E8230F0296A11D8D
:1045B000B11D2093D8068093D4029093D502A09386
:1045C000D602B093D7028091D9069091DA06A091D5
:1045D000DB06B091DC060196A11DB11D8093D906C2
:1045E0009093DA06A093DB06B093DC06BF91AF91FF
:1045F0009F918F913F912F910F900FBE0F901F9021
:1046000018952F923F924F925F926F927F928F9266
:104610009F92AF92BF92CF92DF92EF92FF920F9351
:104620001F93CF93DF9300D000D000D0CDB7DEB77B
:10463000CD824115510509F43BC1FA0134913196FF
:10464000E4914E5F5F4FA32EB12C211102C0EE20EA
:1046500061F18E2E869486948694912CA1E0B0E030
:10466000FE2FF77011F4A0E0B0E08A0E9B1EA89C0C
:10467000D001A99CB00DB89CB00D1124FD81F33080
:1046800019F4AA0FBB1F0AC00115110539F0EA9EE3
:104690004001EB9E900C1124080D191D2A9F7001FA
:1046A0002B9FF00C11244E0D5F1D2D812F3F39F4EF
:1046B0000115110511F021E001C022E02D837C01DC
:1046C000EA0CFB1C1E141F040CF0F2C0803891058C
:1046D0000CF0EEC0DB01AE0FB11D1A161B060CF07C
:1046E000E7C0603471050CF0E3C04115510509F4D1
:1046F000DFC0F62FF7706F2EDB0177FD179623E0F2
:10470000B595A7952A95E1F7FA2F77FF04C06620A3
:1047100011F0FFEFFA0F97FF05C0AA27BB27A81BD0
:10472000B90B02C0A0E0B0E020E8E216F10424F0EA
:1047300020E8722E781A01C0732E7A1A6F2F0F2E6E
:10474000000C770BFF3F1CF4C62EC09401C0C12C97
:10475000992493942E2F277009F4912CE695E695D1
:10476000E6959E0E690D711D693071051CF0E8E03B
:104770009E2E9F1ADC2CDF0E6D2D20E86203800D2B
:10478000911D11248A0F9B1F61E070E0062C02C06E
:10479000660F771F0A94E2F72D81233011F0E1E0D4
:1047A00001C0E2E0A718B108EA9D802C1124EE2E8A
:1047B000F12CC39EA00DB11D1124EA9E9001EB9E29
:1047C000300DFA9E300D11245A01A20EB31E0115B0
:1047D000110509F0A801D70111972A0F3B1F420FBD
:1047E000531FAFEFA69F9001A79F300D1124290101
:1047F00040945094F90DFE83282D30E0E79D200D64
:10480000311D1124EE81DE1609F452C0DC01A852DC
:10481000BD4F4A018501C12CC71409F441C0F801FC
:104820003490369EF001379EF00D1124FA83E9830F
:10483000E095F095FC83EB83FD81F23019F45C8206
:104840004B8211C0ED81EB3F19F41A8219820BC023
:10485000F4013490369EF001379EF00D1124E0955E
:10486000F095FC83EB83D7FC06C0FC91EB81EF2332
:10487000F981EF2BEC93662061F0F6E0FD154CF02A
:10488000FD01E058FF4F20803C8023203A803228F1
:1048900030828E0C9F1C0E0D1F1DC3941196BCCF31
:1048A000D394A20EB31E420F531F80589F4FAACF1E
:1048B00026960FB6F894DEBF0FBECDBFDF91CF9125
:1048C0001F910F91FF90EF90DF90CF90BF90AF902E
:1048D0009F908F907F906F905F904F903F902F9020
:1048E0000895CF92EF920F931F933BEFC32EE12CCD
:1048F00000E010E00E9401231F910F91EF90CF90F4
:104900000895CF92EF920F931F9332E0C32EE12CC4
:1049100000E010E00E9401231F910F91EF90CF90D3
:104920000895CF92EF920F931F93F901202FCC247B
:10493000C3948F010E9401231F910F91EF90CF909C
:104940000895CF92EF920F931F93CF93DF93EC01D3
:104950008B0121E040E00E948416B801CE010E9444
:104960006A16E12C00E02EE238E147EE59E161E001
:1049700070E081E290E00E9491248AEFC82E00E06E
:1049800010E0288946E357E16DE070E08AE290E0AC
:104990000E9401238989883C51F424E836E14CEDDA
:1049A00056E164E370E08BE290E00E949124E12CF8
:1049B00000E022E436E142E656E16EE070E080E09D
:1049C00090E00E9491248A89882349F020E041E305
:1049D00056E160E170E081E190E00E94812480E096
:1049E000DF91CF911F910F91EF90CF900C94862182
:1049F000F89487E78093000880930108A89588E1E0
:104A00008093600088E080936000FFCFFF920F9357
:104A10001F93CF93DF93EC018B01FB018185F2841F
:104A2000F094F82284FF08C08F85803118F48F5FDE
:104A30008F8703C00E94F8241F86F3FE05C045E05F
:104A400063E0C8010E94281FF2FE05C045E066E051
:104A5000C8010E94281FF801878190856FE070E0EF
:104A60000E944034892B39F488898F5F833011F09C
:104A7000888B01C0188AF8018781908560E570E015
:104A80000E944034892B21F49A8981E089278A8BFE
:104A90008989883C10F48F5F898BDF91CF911F91BA
:104AA0000F91FF9008958F929F92AF92BF92CF92F5
:104AB000DF92EF92FF926C01E12CF12C0E94922286
:104AC0004B015C01C114D104E104F104F1F00E9436
:104AD0009222DC01CB0188199909AA09BB09883EF9
:104AE0009340A105B10570F321E0C21AD108E10895
:104AF000F10888EE880E83E0981EA11CB11CC11439
:104B0000D104E104F10419F7DDCFFF90EF90DF90BD
:104B1000CF90BF90AF909F908F9008958FB1809568
:104B2000807F669B88601C9B8460089593E894BD99
:104B3000609567BD91EF90938000409388008093CB
:104B40008A000895E2EAFBE190E1969FD001A07807
:104B50001124A80F6770E60FF11D9491A852BD4F64
:104B6000442319F08C91982B03C090958C91982335
:104B70009C9308950F931F93CF93DF93EC0120E054
:104B80004BE056E161E170E08FE290E00E94812409
:104B900020E04DEE55E16AE170E08BE290E00E948A
:104BA000812420E04DEE55E16AE170E089E490E077
:104BB0000E9481248A8120E0811112C04DEE55E1CE
:104BC0006AE170E08AE390E00E94812420E04DE9F0
:104BD00055E16EE270E08AE190E00E94812426C0F7
:104BE0004FE755E16AE170E08AE390E00E9481249A
:104BF00020E04CE555E16EE270E08CE290E00E942E
:104C000081248A816FE00E942634C82FC3700FE48C
:104C100010E0D0E0DC1751F041E061E370E0C80142
:104C20000E94A225DF5F0E5F1F4FF4CFE8EDF2E098
:104C300081E0A0E0B8E000800EBC8111012C11974A
:104C4000A0FDFDCF0192B9F70DB4DF91CF911F9177
:104C50000F910895CF93DF9300D0CDB7DEB71A82BE
:104C60001982BE016F5F7F4F90E00E94BA21898157
:104C70009A810F900F90DF91CF910895BF92CF92BC
:104C8000DF92EF92FF920F931F93CF93DF9300D0A9
:104C900000D0CDB7DEB76C018E010F5F1F4FE62E3F
:104CA000F12CE01AF10A83E0B82EB00EC701800F94
:104CB000911F0E94AD33F80181938F01BE12F6CF90
:104CC0001C8289819A81AB81BC81F60180839183AA
:104CD000A283B3830F900F900F900F90DF91CF912D
:104CE0001F910F91FF90EF90DF90CF90BF900895AC
:104CF000EF92FF920F931F93CF93DF931F92CDB745
:104D0000DEB77C01FC0100811181C80169830E942A
:104D1000AD336981681719F0C8010E94B533C70126
:104D20000F90DF91CF911F910F91FF90EF90089519
:104D3000EF92FF920F931F93CF93DF9300D0CDB7E5
:104D4000DEB78C017B01FB0160819A838983CE01F0
:104D500001960E947826F70161810F5F1F4F1A8329
:104D60000983CE0101960E947826C7010F900F900B
:104D7000DF91CF911F910F91FF90EF900895CF9306
:104D8000DF9300D0CDB7DEB79A838983CE01019639
:104D90000E9478260F900F90DF91CF9108950F9386
:104DA0001F93CF93DF9300D0CDB7DEB7082F85E6F2
:104DB00090E00E94AD33182F86E690E00E94AD335C
:104DC000011105C0163419F4803509F459C066E4A0
:104DD00085E690E00E94BF2660E586E690E00E94AE
:104DE000BF2607E610E060E0C8010E94BF260F5F03
:104DF0001F4F0A371105B9F761E487E690E00E947A
:104E0000BF2662E48BE690E00E94BF2663E48FE653
:104E100090E00E94BF2661E488E690E00E94BF26F1
:104E200062E48CE690E00E94BF2663E480E790E0B5
:104E30000E94BF2661E489E690E00E94BF2662E4FA
:104E40008DE690E00E94BF2663E481E790E00E9437
:104E5000BF261A821982BE016F5F7F4F83E790E001
:104E60000E949826BE016F5F7F4F85E790E00E9409
:104E70009826BE016F5F7F4F87E790E00E949826DB
:104E80000F900F90DF91CF911F910F9108952F9266
:104E90003F924F925F926F927F928F929F92AF92CA
:104EA000BF92CF92DF92EF92FF920F931F93CF9317
:104EB000DF93CDB7DEB72B970FB6F894DEBF0FBEEA
:104EC000CDBF4C018B01DB011996BC91BD839C01C8
:104ED00021593F4F3C832B83D9018C91882341F08A
:104EE00081508C93811104C040E060E00E949625BF
:104EF000F401868581113CC39401215A3F4F3B87C1
:104F00002A87D9012C91F8018781908565E070E0AE
:104F10000E944034892B39F0D80151968C9183300E
:104F200008F0CEC0D8C02401BFE04B0E511CF401E4
:104F30007596FA83E9831401F0E12F0E311C6401A8
:104F400031E1C30ED11C540144E1A40EB11C340163
:104F500056E1650E711C2C5E622F70E07F836E83BC
:104F600021E0740173E6E70EF11C3AEFAA85BB85D8
:104F70004A165B0689F2A981BA818C91882309F4CB
:104F800089C0F20180818636C1F4D8011F968D91C7
:104F90009C915097059650969C938E931F9740E056
:104FA00060E280E0288739870E9496254AE0EB81FD
:104FB000FC8140832885398528C0D6014C91885FC3
:104FC00090E0EE81FF818E1B9F0B97FF03C09195B0
:104FD000819591094A3021F0403211F0463329F48D
:104FE0000B979CF4D3012C9310C04B3021F041322D
:104FF00011F0473341F4F3014081411106C00B9792
:105000000CF009C302C0F3011082D5019C919111EB
:1050100005C0F60180818F5F808303C0EFEFD6016A
:10502000EC93D6018C918B3411F41C9230C09230E9
:1050300019F168F4992389F0913049F5F2018081E2
:105040008F5F8083EBE2D101EC93E2E01DC09D33E2
:10505000F0F49F5FD5019C931DC090E0880F991FCD
:10506000FC01E655F44EE491D201EC93FC01E555C8
:10507000F44EE491D10109C0D2018C918F5F8C93E1
:1050800042E3F1014083E3E0D501EC9303C0E98101
:10509000FA811082F8E04F0E511C49815A81485F15
:1050A0005F4F5A83498358E0250E311C68E0C60ED5
:1050B000D11C78E0A70EB11C88E0680E711C56CF99
:1050C000F401759681E09F01265031094A855B8580
:1050D0004217530751F4F801878190856FE070E023
:1050E0000E944034892B81F018C09081992351F09F
:1050F000DF0111979C91911105C011979C91992303
:1051000009F4E8C23896DFCFF4017296CF01039715
:105110006A857B856817790739F4F401E059FF4FF8
:10512000808181111BC10CC08381882339F080816B
:105130008F5F883011F0808301C010823896E6CFEF
:1051400074017BE6E70EF11CD7018D919C910197CC
:105150008E3FBFEF9B0718F4F70191838083D7013F
:105160002D913C912115310509F0F8C0F8014785D2
:105170005089483EF3E05F0758F488EE93E0841BC3
:10518000950B6AEF70E00E9440346D5F7F4F02C064
:1051900063E070E0F40175965F014CE250E0A6E137
:1051A0006A2E712CCF010697AA85BB85A817B9076F
:1051B00081F18081882359F1CF010497DC018C9122
:1051C000863109F4CBC08C3209F4C8C0C82ED12C6A
:1051D000CA018C199D0997FF03C09195819591098A
:1051E000D301AC19BD096D01B7FF03C0D194C194BF
:1051F000D1080C2C000CDD08C616D7060CF4AEC086
:10520000082E000C990B861797070CF4A7C0389648
:10521000C9CFF501808181112CC0D90183E0AA0F8B
:10522000BB1F8A95E1F7A80DB91D81E055968C93B7
:10523000559751961C92519754961C925497539699
:105240001C925397EAEAFBE1E4911F96EC93EBEA98
:10525000FBE1E491D901129693E0AA0FBB1F9A9546
:10526000E1F7A80DB91DEC93F8018189833040F076
:1052700070C02F5F3F4F38962A30310559F66EC007
:105280000784F089E02DEC3DB5E0FB07C8F45F0131
:10529000B694A7948CED95E08A199B09B5E0CB2EC6
:1052A000D12CB6010E9440349B01EE3EF24050F4F6
:1052B0008EEE92E08A199B09B6010E94403404C028
:1052C00026E930E06BE470E0C901A0E0B0E02B011A
:1052D000612C712C481659066A067B066CF4BC01D9
:1052E000CD0164197509860997090E94CE21460EE1
:1052F000571E681E791E05C076E9472E512C612C79
:10530000712CD7014D925C92F801878590899401A8
:1053100022593F4F79018531910568F0899770F4E2
:105320000E949F3322E030E040E050E00E94C3330F
:10533000F701608313C0D9011C9210C00E949F33F3
:1053400023E030E040E050E00E94C333D7016C938B
:1053500005C08FEF9FEFF70191838083FD81F5FFFB
:105360000BC0AA85BB8511968C911197811104C041
:105370008C91833108F0B4C1BD81B6FF09C0EA85C4
:10538000FB858181811104C080818C3308F4AEC11A
:10539000D80117968C9180FD42C0EA85FB858381F8
:1053A0008230A9F0833009F03AC0EA85FB8580811C
:1053B000E18191E09E0FAA85BB8511969C93119780
:1053C000F0E0E05CF34EE491E80FEC9311C0AA85A5
:1053D000BB858C911196EC91119791E09E0F1196DF
:1053E0009C931197F0E0E05CF34EE4918E1B8C935C
:1053F00012968C9112978F5F8C3071F4EA85FB8541
:105400001282953061F4AA85BB8511961C92119782
:1054100084E013968C9303C012968C93F2CFD8013C
:1054200017968D919C91189766E070E00E94403429
:10543000892B41F0F8018189833008F499C0C401B7
:1054400045968AC0D401AD59BF4F12968C911297E0
:10545000882309F462C015968C9115978F5F159675
:105460008C931597282F082E000C330B87FD39C01D
:1054700014968C91149790E02817390794F5139699
:105480008C9113978130E9F078F0823051F5C901A1
:105490000196880F991FFC01EB5BF34EE491EC93AE
:1054A000FC01EA5BF34E19C0C9010196880F991FF0
:1054B000FC01E756F34EE491EC93FC01E656F34E03
:1054C0000CC0C9010196880F991FFC01ED58F34EDD
:1054D000E491EC93FC01EC58F34EE4911196EC93BB
:1054E000119714968C91149790E02817390719F4A6
:1054F00012961C921297821B930BF401E659FF4FF0
:10550000089754F480818F5F8083883031F412963D
:105510001C92129715961C921082F4017596CF0179
:1055200006972A853B852817390709F483CF8081A0
:10553000882351F0DF0112978C91882329F08F5F27
:105540008C93863009F410823896E9CF0896FC01D6
:105550003897208121110CC09C01265031094A85C1
:105560005B854217530791F781E0D80158968C93D9
:10557000D8011F962D913C91509756968D919C91F4
:105580005797F401E059FF4F8217930710F481E019
:1055900080838081882319F1F401E15AFF4FC4010F
:1055A00045969C0126503109E217F30739F0089619
:1055B000DC0118972C912223A1F311C08081F801FE
:1055C000858B838994890196948B838B8189833021
:1055D00008F082C046E063E0C8010E94281FB801BD
:1055E000C4012B960FB6F894DEBF0FBECDBFDF917E
:1055F000CF911F910F91FF90EF90DF90CF90BF90D0
:10560000AF909F908F907F906F905F904F903F9062
:105610002F900C941121D5012C93F80181898F5F73
:10562000818B40E060E080E2288739870E949625E0
:10563000EAE0AB81BC81EC93D2018C91288539855D
:105640008C3380F58732A0F0D8015196EC91E3308D
:1056500008F0DBCCD70113962C93139712962C935A
:10566000129715963C931597F0E0EE58F34E16C03E
:10567000823108F4CACCD8015196EC91E33008F09D
:10568000C4CCD70113961C92139712962C931297A1
:1056900015963C931597F0E0E856F34EE491149676
:1056A000EC93B3CC813808F0B0CCD8015196EC9192
:1056B000E33008F0AACCF2E0D7011396FC931397DD
:1056C00012962C93129715963C931597F0E0EC5B8D
:1056D000F34EE4CF8C9316CD81E0F801808F7FCF1D
:1056E00082E0AA85BB8513968C9346CE83E0EA853B
:1056F000FB8583834DCE2F923F924F925F926F92A4
:105700007F928F929F92AF92BF92CF92DF92EF9251
:105710000F931F93CF93DF9300D000D0CDB7DEB7A8
:105720009C838B836B01812C912C8D5B9F4F5C0143
:10573000EB81FC81858D9401280F311D87FD3A9501
:10574000C901F601218DF501211121C020812223FB
:1057500039F0EB81FC81268D378D8217930739F064
:1057600020E047E253E260E070E00E948124F5010E
:105770008081882361F120E045E252E260E070E040
:10578000EB81FC81868D978D0E94812420C0208131
:10579000222339F0EB81FC81268D378D8217930708
:1057A00039F020E047E253E260E070E00E947124AB
:1057B000F5018081882359F020E045E252E260E063
:1057C00070E0EB81FC81868D978D0E947124F0E45E
:1057D0008F0E911C811421E0920609F0A9CF812C33
:1057E000912CEB81FC8180A1E12C00E023EE31E2E1
:1057F00043E052E264E170E0F401E80FF11D87FD3F
:10580000FA95CF010E949124F0E18F0E911C20EABD
:105810008216910431F7F6011289EB81FC8197A081
:1058200021EC3CE14FE05DE160E070E089E590E073
:105830000E949124992039F0812F65E00E9426343E
:10584000082F10E016C061E0C6010E94C01E1CC0F7
:1058500020E8621671042CF441E0B401C3010E94F7
:10586000A2253FEF831A930A8BE08816910481F7F3
:105870001E5F101748F4612E712CFEE56F0E711C2F
:1058800093E0892E912CE4CFEB81FC8180A58823C5
:1058900031F06EE10E942634482F417001C041E092
:1058A000B6018B819C810E94F916812C912CEB8191
:1058B000FC8181A120E041ED51E268E270E0F40159
:1058C000E80FF11D87FDFA95CF010E948124EB813D
:1058D000FC8182A120E041ED51E265E370E0F4013A
:1058E000E80FF11D87FDFA95CF010E948124F0E2B7
:1058F0008F0E911C20EA82169104C9F680E1482E91
:10590000512C10E08B819C818E969A8389832B8009
:105910003C8093E3290E311CEB81FC81848D88232C
:1059200021F0828D181709F4B0C069807A80410196
:105930006A147B0481F0F4018081882329F0339775
:105940008081811709F4BAC0F7E06F0E711C27E05F
:10595000820E911CEDCFEB81FC8161896F3030F0BC
:105960006C3110F481E003C082E001C080E01813C4
:1059700068C0EB81FC81E388EE2089F0EA940E2D6B
:10598000000F062E000C770B878581502DEA3DE134
:105990004FE75EE1082E000C990B0E949124EB81E9
:1059A000FC8147855089CA014E968E39910508F4CD
:1059B00094C0EB81FC81E688EE2099F0EA940E2DEC
:1059C000000F6189605F062E000C770B8785895E6A
:1059D0002DEA3DE14FE75EE1082E000C990B0E9495
:1059E0009124EB81FC81E588EE2099F0EA940E2D5C
:1059F000000F6189605F062E000C770B8785885049
:105A00002DEA3DE14FE75EE1082E000C990B0E9464
:105A10009124EB81FC81E488EE2099F0EA940E2D2C
:105A2000000F6189645F062E000C770B8785895F04
:105A30002DEA3DE14FE75EE1082E000C990B0E9434
:105A400091241F5FFDE04F0E511C133009F064CF0D
:105A5000B6018B819C810E94E82082E00F900F901C
:105A60000F900F90DF91CF911F910F91EF90DF90EA
:105A7000CF90BF90AF909F908F907F906F905F90EE
:105A80004F903F902F900C948621EB81FC8106A1D2
:105A9000C2010E9661E070E0112311F060E070E049
:105AA000680F791FE02E2FE831E24FEA51E2EB81D7
:105AB000FC81808D918D0E94912437CFF401329723
:105AC0000081E02E25E230E249ED50E2B201F3011F
:105AD000808191810E94912437CF00E0EB81FC818D
