:100000000C9420140C9448140C9448140C94481428
:100010000C9448140C9448140C9448140C944814F0
:100020000C9448140C9448140C94171E0C94891EBC
:100030000C9448140C9448140C9448140C944814D0
:100040000C9448140C9448140C9448140C944814C0
:100050000C9448140C9448140C9448140C9480216B
:100060000C9448140C9448140C9448140C944814A0
:100070000C9448140C9448140C9448140C94481490
:100080000C9448140C9448140C9448140C94481480
:100090000C9448140C9448140C9448140C94481470
:1000A0000C9448140C9448140C9448142B1600001B
:1000B000000070880402160141229C6000000000CC
:1000C0000000000000000000000000609C224101D0
:1000D0001602048870000000000000000002C52421
:1000E0003E00808091B22444C428A8A8282828284B
:1000F000282828A844442493918080003E44850207
:10010000808000000000000C121312100F0000008D
:100110000001060811080403000000000000011A95
:100120002421110A04000101060811100807002B00
:10013000160000000070880402160141229C600035
:100140000000000000000000000000000000609CB3
:100150002241011602048870000000000080800027
:100160008245243E80808091322444C42828282857
:1001700028282828A8A828C4442493918080003ED9
:100180004485020000000007081011080601010064
:10019000040A1121241A01000000000000000304D9
:1001A0000811080601000000000F101213120C00C5
:1001B00000000000000070F8FCFEFEFFFFFEFC6087
:1001C00000000000000000000000000000000060CF
:1001D000FCFEFFFFFEFEFCF87000000000000000C7
:1001E0000002C7E7FFFFFFFFFFFEFCFCFC38B8B8CA
:1001F00038383838383838B8FCFCFCFFFFFFFFFFD0
:10020000FFC78702808000000000000C1E1F1F1F18
:100210000F0000000001070F1F0F07030000000080
:100220000000011B3F3F1F0E04000101070F1F1FAD
:100230000F07000000000070F8FCFEFEFFFFFEFC50
:10024000600000000000000000000000000000004E
:1002500060FCFEFFFFFEFEFCF87000000000008066
:10026000800082C7E7FFFFFFFFFFFEFCFCFC383881
:10027000383838383838B8B838FCFCFCFFFFFFFF96
:10028000FFFFC7870200000000070F1F1F0F0701B5
:100290000100040E1F3F3F1B010000000000000092
:1002A00003070F1F0F0701000000000F1F1F1F1E75
:1002B0000C00000003081F051F1F151B1F11111F35
:1002C000110E1F15111F05011F111D1F041F001FF7
:1002D0000010101F1F041B1F10101F061F1F011FDF
:1002E0001F111F1F05071F311F1F051B17151D019C
:1002F0001F011F101F0F100F1F0C1F1B041B071CBB
:10030000071915130C121E1F120C1E12120C121FAD
:100310000C1A14041F052E2A1E1F021C001D00208B
:100320001D001F041A011F001E041E1E021E1E12A5
:100330001E3E120C0C123E1E020614120A020F126E
:100340001E101E0E100E1E081E1A041A2E281E1A2B
:1003500012161F111F121F101D151711151F07044C
:100360001F17151D1F151D01011F1F151F17151F15
:10037000001700001000040404040E040229060AF9
:10038000000004083E09093E3F25251A1E212112BE
:100390003F21211E3F2525213F0505011E21293A28
:1003A0003F04043F213F21001021211F3F040A3157
:1003B0003F2020203F02023F3F02043F1E21211E1A
:1003C0003F0909061E21112E3F090936222525194C
:1003D000013F01011F20201F0F10201F3F10103F61
:1003E0003B04043B03043807312D2321102A2A3C07
:1003F0003F2424181C2222141824243F1C2A2A2CAF
:10040000043E05014C52523E3F040438243D200076
:100410004040443D3F081422213F20003E04043E5A
:100420003E04023C1C22221C7E22221C1C22227E14
:100430003E040204242A2A12021F22201E20201E0B
:100440000E10201E3E10103E360808364E50503E0C
:10045000322A26221E29251E223F20003229292643
:100460001221251A0C0A3F08172525191E252518C3
:10047000013905031A25251A0629291E002F000017
:10048000002000000229050200040400F0F8FCFE30
:10049000FFFFFFFF0707FFFFFFFFFFFFFFFF00005A
:1004A000010307070707070700000A13F008F41203
:1004B000B535E5050101FF00EF08288CEF000000CD
:1004C0000102050505050100000007063C020501C3
:1004D0003D023C07063C3E3F3F3F3E3C07063C0298
:1004E0003D0105023C0000000080C0E0E0E0E0E0EB
:1004F000E0E0E0E0E0E0E0FCFEFFFFFFFEFCC080AB
:10050000000000000000FEFFFFFFFFFFFFFFFFFFF6
:10051000FFFFFFFFFFFFFFFFFFFFFFFFFFFFFFFFEB
:10052000FCF8000000FFFFFFFFFFFFFFFFFFFFFFE2
:10053000FFFFFFFFFFFFFFFFFFFFFFFFFFFFFFFFCB
:10054000FF00060F0F1F1F1F3F7F7F7F7F3F1F1F73
:100550001F1F1F1F1F1F3F7F7F7F7F3F1F1F1F0FFB
:10056000071F1F000000008040A0A0A0A0A0A0A026
:10057000A0A0A0A0A0BC828581BD823C40800000DC
:1005800000000000FE01FC85FD01FF03FDBDDDED67
:10059000BD9D85FD03FF0305BDDDAD3C380304F8BB
:1005A000000000FF0082B24ABBBBBBBA7AFACACED7
:1005B0008686CECBFB7BBABABAB26AE2EA00FF000B
:1005C00006090A16111623414C4441231611131330
:1005D0001313111623414C44412316111708072CFD
:1005E00018FFFFFFFFFFFFFFFFFFFFFFFFFFFFFF02
:1005F000FFFFFFFFFFFFFFFFFFFFFFFFFFFFFFFF0B
:10060000FFFFFFFFFFFFFFFFFFFFFFFFFFFFFFFFFA
:10061000FF7F3FBF7F3FCFE7F7E78FF7FBFB3387D6
:10062000DFDF9F1F3FFFFFFFFFFFFFFFFFFFFFFF1A
:10063000FFFFFFFFFFFFFFFFFFDFDFCFD3D8CFE7D5
:10064000F3CE9FBF9FCFBF7F7F7FBF9FC7F7F3F8DA
:10065000FCFFFFFFFFFFFFFFFFFFFFFFFFFFFFFFAD
:10066000FFFFFFFFFFFFFFFFFFFFFFFFFFFFFF7F1A
:100670007F7FFFFF7F7F7F7FFFFFFFFFFFFFFFFF8A
:10068000FFFFFFFFFFFFFFFFFFFFFFFFFFFFFFFF7A
:10069000FFFFFFFFFF7339B97339CCE6F6E68CF63E
:1006A000FAFB3386DCD99D1C3CF8C1D39F1F3FFF6A
:1006B000FFFFFFFFFFFFFFFFFFFFFFFFFFDFDFCFBA
:1006C000D3D8CFE7F3CE9FBF9FCFBF7F7F7FBF9FA2
:1006D000C7F7B3787C3FBB93C5FCFEFFFFFFFFFF6E
:1006E000FFFFFFFFFFFFFFFFFFFFFF3F9FDFC3B1E4
:1006F000F9F9F347717CFEFC71477379F9F3C7F799
:10070000FBFBE78FBF0F67E78F3F3F7FFFFFFFFFD9
:10071000FFFFFFFFFFFFFFFEFFF3F9F9F3F9FCFE18
:10072000FEFEFCFEFEFFFFFEFCF9FDFCFCF8C1D363
:100730009F1F3EFFF773680C9FFFFFFFFFFFFFFF48
:10074000FFFFFFFFFFFFFFFFFFFFFFFFFFFFFFFFB9
:10075000FFFFFFFFFFFFBF7F7F3FBB93C5FCBEBF17
:1007600097CFEFE6E0F1FFFFFFFFFFFFFFFFFF3F47
:100770009FDFC3B1F9F9F3C7F1FCFEFCF1C7F3F950
:10078000F9F3C7F7FBFBE78FBF0F67E68E3C3977BE
:10079000FBF93143677FFFFFFFFFFFFEFFFFFFFF16
:1007A000FFFFFFFFFFFFFFFFFFFFFFFFFFFFFFFF59
:1007B000FFFFFFFFFFFFFEFFF773680C9FFFFFDFE8
:1007C000CE80303F7FFFFFFFFFFFFFFFFFFFFFFFF8
:1007D000FFFFFFFFFFFFFFFFFFFFFFFFFFFFFFFF29
:1007E000FFFFBFBF97CFEFE6E0F1BFBF97C7F3F8BA
:1007F000FCFFFFFFFFFFFFFFFFFFFFFFFFFFFFFF0C
:10080000FFFFFFFFFFFFFFFFFFFFFFFFFFFFFFFEF9
:10081000FEFCF9F7FBF93143677FFFFFFFFFFFFFA6
:10082000FFFFFFFFFFFFFFFFFFFFFFFFFFFFFFFFD8
:10083000FFFFFFFFFFFFFFFFFFFFFFFFFFFFFFFFC8
:10084000FFFFFFDFCE80303F7FFFFFFFFFFFFFFF97
:10085000FFFFFFFFFFFFFFFFFFFFFFFFFFFFFFFFA8
:10086000FFFFFFFFFFFFFFFFFFFFFFFFFFFFBFBF18
:1008700097C7F3F8FCFFFFFFFFFFFFFFFFFFFFFF3E
:10088000C0C0C0808000FFFFFFFFFFFFFFFFFFFF32
:10089000FFFFFFFFFFFFFFFFFFFFFFFFFFFFFFFF68
:1008A000FFFFE3E3C7C7C381FFFFFFFFFFFFFFFFBA
:1008B000FFFFFFFFFFFFFFFF7FFFFFFFFFFFFFFFC8
:1008C000FFFFFFFFE1E1E1E1E0C0FFFFFFFFFFFF0E
:1008D000FFFFFFFFFFFFFFFFFF7F3FFFFFFFFFFF68
:1008E000FFFFFFFFFFFF010100000000FFFFFFFF10
:1008F000FFFFFF7F3F1F0700000000000011407551
:100900006DEAEAD710DFDF4080BF404040808000C2
:100910001F1F1E3E3E3E3D3D397A7B787BF7F60039
:10092000FFEAE8D5D4D6109EBEA2A2BE22A24444BD
:1009300042813D3D3D3D3D3C3D3D3D393B383B3BAE
:100940003B807FAAA8AAA8AE20BEBCA1A1BF21A1BE
:10095000A1A120C0F7F7F7F7F7787B7B3A3A3B3C49
:100960003D9D9D403FF1E8F4F8F4FAF4FA0101FFEF
:10097000010100000000FFFFFFFF7F3F8F472010B5
:1009800007000000000000800DFFFFFFFFFFFFFFDA
:10099000FFFFFFFFFFFFFFFFFFFFFFFFFFFFFFFF67
:1009A000FFFFFFFFFFFFFFFFFFFFFFFFFFFFFFFF57
:1009B000FFFFFFFFFFFFFFFFFFFFFFFFFFFFFFFF47
:1009C000FFFFFFFFFFFFFFFFFFFFFFFFFFFFFFFF37
:1009D000FFFFFFFFFFFFFFFFFFFFFFFFFFFFFFFF27
:1009E000FFFFFFFFFFFFFFFFFFFFFFFFFFFFFFFF17
:1009F000FFFFFFFFFFFFFFFFFFFFFFFFFFFFFFFF07
:100A0000FFFFFFFFFFFFFFFFFF1F1F1F1F1F1F1F16
:100A10001F1F1F1F1F1F1F1F1F1F1F1F1F1F1F1FE6
:100A20001F1F1F1F1F1F1F1F1F1F1F1F1F1F1F1FD6
:100A30001F1F1F1F1F1F1F1F1F1F1F1F1F1F1F1FC6
:100A40001F1F1F1F1F1F1F1F1F1F1F1F1F1F1F1FB6
:100A50001F1F1F1F1F1F1F1F1F1F1F1F1F1F1F1FA6
:100A60001F1F1F1F1F1F1F1F1F1F1F1F1F1F1F1F96
:100A70001F1F1F1F1F1F1F1F1F1F1F1F1F1F1F1F86
:100A80001F1F1F1F1F1F1F1F1F800DFEBEBEBEBECC
:100A9000BEBEBABABA3A3ABABA9A8AAAA2B2B2BA36
:100AA000B8B8BABABEBEBEBEBEBEBEBEBEBEBEBE7A
:100AB000BEBEBEBEBEBEBABABABA3A1A8AA2B0B8F2
:100AC000BABABEBEBEBEBEBEBEBEBEBEBEBEBEBE4E
:100AD000BEBEBEBEBEBEBEBEBEBABAB8A0021ABAC6
:100AE000BABABABABEBEBEBEBEBEBEBEBEBEBEBE36
:100AF000BEBEBEBEBEBEBEBEBABABABAB8B8B8B046
:100B0000A2820A1A3ABABABABABABA1F1F07171398
:100B10001B191D1C1E1F1F1F1F1F1F1F1F1F1F1FF5
:100B20001F1F1F1F1F1F1F1F1F1F1F1F1F1F1F1FD5
:100B30001F1F1F1F1F1F1F07111C1E1F1F1F1F1FEF
:100B40001F1F1F1F1F1F1F1F1F1F1F1F1F1F1F1FB5
:100B50001F1F1F1F1F1F1F1F1F1F1F1F1F1F1C10B7
:100B6000030F1F1F1F1F1F1F1F1F1F1F1F1F1F1FC1
:100B70001F1F1F1F1F1F1F1F1F1F1F1F1F1F1F1F85
:100B80001F1F1F1E181001030F1F1FF8FFFFFEFC81
:100B9000FCFCFCF8FFFFFEFCFCFCFCF8FFFFFEFC8D
:100BA000FCFCFCF8FFFFFEFCFCFCFCF8FFFFFEFC7D
:100BB000FCFCFCF8FFFFFEFCFCFCFCF8FFFFFEFC6D
:100BC000FCFCFCF8FFFFFEFCFCFCFCF8FFFFFEFC5D
:100BD000FCFCFCF8FFFFFEFCFCFCFCF8FFFFFEFC4D
:100BE000FCFCFCF8FFFFFEFCFCFCFCF8FFFFFEFC3D
:100BF000FCFCFCF8FFFFFEFCFCFCFCF8FFFFFEFC2D
:100C0000FCFCFCF8FFFFFEFCFCFCFC0303030303FD
:100C100003030303030303030303030303030303A4
:100C20000303030303030303030303030303030394
:100C30000303030303030303030303030303030384
:100C40000303030303030303030303030303030374
:100C50000303030303030303030303030303030364
:100C60000303030303030303030303030303030354
:100C70000303030303030303030303030303030344
:100C80000303030303030303030303800A28070981
:100C90002214240804280709221424080428070918
:100CA0002214240804280709221424080428070908
:100CB00022142408042807092214240804280709F8
:100CC00022142408042807092214240804280709E8
:100CD00022142408042807092214240804280709D8
:100CE00022142408042807092214240804280709C8
:100CF00022142408042807092214240804280709B8
:100D000022142408042807092214240804010102DB
:100D100001010101010101020101010101010102C1
:100D200001010101010101020101010101010102B1
:100D300001010101010101020101010101010102A1
:100D40000101010101010102010101010101010291
:100D50000101010101010102010101010101010281
:100D60000101010101010102010101010101010271
:100D70000101010101010102010101010101010261
:100D80000101010101010102010101010101010251
:100D90000203030302020101174A2B462B422B3F99
:100DA0002A3C293A2739243820371B371637113780
:100DB0000C380839053A033C023E01410044004723
:100DC000004A004D00500012372B3725371F3719C6
:100DD0003713370D380839053A033C013E0140000E
:100DE00042004400460048004A004C0013202B22D9
:100DF000252420261B28162A112C0C2E08300532FB
:100E000003350238013B003E004100440047004AE0
:100E1000004D0007063C0205013D023C07063C3E32
:100E20003F3F3F3E3C07063C023D0105023C0000BF
:100E3000000080C0E0E0E0E0E0E0E0E0E0E0E0E0F2
:100E4000FCFEFFFFFFFEFCC080000000000000FE73
:100E5000FFFFFFFFFFFFFFFFFFFFFFFFFFFFFFFFA2
:100E6000FFFFFFFFFFFFFFFFFFFCF8000000FFFF99
:100E7000FFFFFFFFFFFFFFFFFFFFFFFFFFFFFFFF82
:100E8000FFFFFFFFFFFFFFFFFFFF00060F0F1F1F0A
:100E90001F3F7F7F7F7F3F1F1F1F1F1F1F1F1F3F82
:100EA0007F7F7F7F3F1F1F1F0F071F1F0000000056
:100EB0008040A0A0A0A0A0A0A0A0A0A0A0A0BC82B4
:100EC0008581BD823C4080000000000000FE01FCE6
:100ED00085FD01FF03FDBDDDEDBD9D85FD03FF0328
:100EE00005BDDDAD3C380304F8000000FF0082B210
:100EF0004ABBBBBBBA7AFACACE8686CECBFB7BBADC
:100F0000BABAB26AE2EA00FF0006090A161116230D
:100F1000414C444123161113131313111623414C52
:100F2000444123161117080780C0E0F0E0C4CEFF4B
:100F3000FFFFFFCEC4E0F0E0C08003173F7FFFFF5C
:100F4000FFFFFFFFFFFFFFFF7F3F170300000000D1
:100F5000000101000000000101000000000000008D
:100F60000000C0E4CEFFFFFFFFCEE4C000000000A1
:100F70000000001FBFFFFFFFFFFFFFFFFFBF1F00BD
:100F8000000000000000000101000000000101005D
:100F90000000000000000000C0E4CEFFFFFFFFCE15
:100FA000E4C0000000000000000087DFFFFFFFFF3B
:100FB000FFFFDF87000000000000000000010100CB
:100FC000000000010100000000000000000000041B
:100FD000CEFFFFFFFFCE0400000000000000000075
:100FE00080D8FDFFFFFFFFFDD8800000000000005B
:100FF00000000001010000000001010000000000ED
:1010000012118040A01020C4CA35151535CAC4205D
:1010100010A0408002152851C65865BA8181BA6572
:1010200058C6512815020000000000010100000010
:10103000000101000000000000000000C024CA35CB
:10104000151535CA24C0000000000000001FA0587C
:1010500065BA8181BA6558A01F0000000000000039
:10106000000101000000000101000000000000007C
:101070000000C024CA35151535CA24C00000000080
:1010800000000000875865BA8181BA655887000062
:10109000000000000000000101000000000101004C
:1010A00000000000000000000004CA35151535CA14
:1010B00004000000000000000000805865BA818133
:1010C000BA65588000000000000000000001010027
:1010D000000000010100000000003E7F3E7F3E7FD7
:1010E0007F3E7F7E3E7F3F0E2E7F2E11073E413694
:1010F000413E41553E415E3E41350A2E512EC0E0F3
:10110000E0F0F0F0F0F8FCFEFF7F7FFEFC600001F5
:101110000107070707070707070400000000100B77
:10112000C0202010D0D050180402816141829C6000
:10113000000101070100000004000304000000009A
:101140000E0E0E1F1F1F1F1F1F0E0E0E001C1F1F37
:101150001F1F1F1F1F1F070000071F1F1F1F1F1F0D
:101160001F1F1C000C050E0A0E1F151F1F151F0E3A
:101170000A0E000400000A00000A00000400001C1F
:10118000171D1F171D1F171D07000000080200086C
:1011900002000802000000071D171F1D171F1D1762
:1011A0001C00000002080002080002080000C0E065
:1011B000E0F0FCFEFFFFFFFEFFF6F8F0F06000310C
:1011C00079797D3F0F0F0F0F07070F1E0F060E1FB8
:1011D0001FFEF8F0FFFFFFFFFCF8F8F0E000000052
:1011E00010397F7F2F3F7F7F3F0B0707020030F8CA
:1011F000BCF8F0F0F8F8F8F8FEDFCFCFC6800307B0
:10120000070F377F3F7F7F7F3F1F07030301A0F05A
:10121000F0E8FEFFFFFEFAFFFFCE04000000030728
:101220000F0F1F7F7F7F7F070F3F7C7C38000030D0
:10123000F8FCFEFEFEFC7E3CF8F8F0C00000163F15
:101240003F1F0F1F3F3F3F3F1F1F1F1F1F0E00C6A7
:10125000EFFEFFFFFEFCFCFEFEFCF870000000034A
:101260003F7F7F7F3F3C3D1F1F0F03010000387C05
:10127000FCFCFCFC7E7EFEFEFCF8FCFE7E340000E6
:1012800001070F0F1E3F1F3F3F3F1F0F060000408B
:10129000E0F8FCFCDE9EFEFFFFFFFEE00000000722
:1012A0000F1F3F3F1F1F3F7F7F3F7B310000100F0D
:1012B000C02020107CC28109191A6936889090607C
:1012C0000031494945320A0808080505091209068E
:1012D0000E1111E608300F31190B8CC80810E00010
:1012E0000000102946502E384346350B04050200F5
:1012F00030C8A4C85050080808A8A65149494680DB
:1013000003040408364B2D4C4840211F04020201FF
:10131000A05010E8D631610E3A0531CA0400000031
:101320000304080918684C4678060833444438001A
:101330000030C884020222B4523CC80830C0000009
:101340001629241E08102020232D16161711110E01
:1013500000C6291A0D09028C04C28204887000009C
:1013600000033C424E5D33242512130E020100009F
:101370003844C47434B45A6282020408BC924A34B9
:101380000000010608091E2516222020100906006B
:101390000040A038E4A45292665D39211EE00000AE
:1013A00000070810202110182048582C4A3100004E
:1013B0002F01AC003302B20104087EFF817E82FE61
:1013C000FF80C6A19FCE6689FF7638ACFFB06F89DB
:1013D000F9707EFF857883F1FD83768D99761EBF47
:1013E000A17E18BCFEFFFFFEFCFEFFFFFEBC180343
:1013F000070F1F1F0F070F1F1F0F07030D0D18A447
:10140000422151EAF4E2418142A418030408101079
:1014100008050A11100804032C18FFFFFFFFFFFF47
:10142000FFFFFFFFFFFFFFFFFFFFFFFFFFFFFFFFCC
:10143000FFFFFFFFFFFFFFFFFFFFFFFFFFFFFFFFBC
:10144000FFFFFFFFFFFFFFFFFFFF7F3FBF7F3FCF9C
:10145000E7F7E78FF7FBFB3387DFDF9F1F3FFFFFD8
:10146000FFFFFFFFFFFFFFFFFFFFFFFFFFFFFFFF8C
:10147000FFFFDFDFCFD3D8CFE7F3CE9FBF9FCFBF34
:101480007F7F7FBF9FC7F7F3F8FCFFFFFFFFFFFFE2
:10149000FFFFFFFFFFFFFFFFFFFFFFFFFFFFFFFF5C
:1014A000FFFFFFFFFFFFFFFF7F7F7FFFFF7F7F7F4C
:1014B0007FFFFFFFFFFFFFFFFFFFFFFFFFFFFFFFBC
:1014C000FFFFFFFFFFFFFFFFFFFFFFFFFFFF73397E
:1014D000B97339CCE6F6E68CF6FAFB3386DCD99D97
:1014E0001C3CF8C1D39F1F3FFFFFFFFFFFFFFFFF23
:1014F000FFFFFFFFFFFFDFDFCFD3D8CFE7F3CE9FA4
:10150000BF9FCFBF7F7F7FBF9FC7F7B3787C3FBBB5
:1015100093C5FCFEFFFFFFFFFFFFFFFFFFFFFFFF85
:10152000FFFFFFFF3F9FDFC3B1F9F9F347717CFE77
:10153000FC71477379F9F3C7F7FBFBE78FBF0F67C0
:10154000E78F3F3F7FFFFFFFFFFFFFFFFFFFFFFF33
:10155000FEFFF3F9F9F3F9FCFEFEFEFCFEFEFFFFD1
:10156000FEFCF9FDFCFCF8C1D39F1F3EFFF773683A
:101570000C9FFFFFFFFFFFFFFFFFFFFFFFFFFFFFCE
:10158000FFFFFFFFFFFFFFFFFFFFFFFFFFFFFFBFAB
:101590007F7F3FBB93C5FCBEBF97CFEFE6E0F1FF77
:1015A000FFFFFFFFFFFFFFFF3F9FDFC3B1F9F9F32D
:1015B000C7F1FCFEFCF1C7F3F9F9F3C7F7FBFBE752
:1015C0008FBF0F67E68E3C3977FBF93143677FFFAA
:1015D000FFFFFFFFFEFFFFFFFFFFFFFFFFFFFFFF1C
:1015E000FFFFFFFFFFFFFFFFFFFFFFFFFFFFFFFE0C
:1015F000FFF773680C9FFFFFDFCE80303F7FFFFF58
:10160000FFFFFFFFFFFFFFFFFFFFFFFFFFFFFFFFEA
:10161000FFFFFFFFFFFFFFFFFFFFFFBFBF97CFEF02
:10162000E6E0F1BFBF97C7F3F8FCFFFFFFFFFFFF46
:10163000FFFFFFFFFFFFFFFFFFFFFFFFFFFFFFFFBA
:10164000FFFFFFFFFFFFFFFFFEFEFCF9F7FBF93195
:1016500043677FFFFFFFFFFFFFFFFFFFFFFFFFFF6E
:10166000FFFFFFFFFFFFFFFFFFFFFFFFFFFFFFFF8A
:10167000FFFFFFFFFFFFFFFFFFFFFFFFDFCE803019
:101680003F7FFFFFFFFFFFFFFFFFFFFFFFFFFFFFAA
:10169000FFFFFFFFFFFFFFFFFFFFFFFFFFFFFFFF5A
:1016A000FFFFFFFFFFFFFFBFBF97C7F3F8FC00FC82
:1016B0000201010101010101010101010101010119
:1016C000010101010101010101010101010101010A
:1016D000010102FC00102F50A0A0A0A0A0A0A0A07B
:1016E000A0A0A0A0A0A0A0A0A0A0A0A0A0A0A0A0FA
:1016F000A0A0A0A0A0A0A0A0A0502F10271000FC88
:1017000002010101010101010101010101010101C8
:1017100001010101010101010101010101010101B9
:10172000010102FC00102F50A0A0A0A0A0A0A0A02A
:10173000A0A0A0A0A0A0A0A0A0A0A0A0A0A0A0A0A9
:10174000A0A0A0A0A0A0A0A0A0502F10FFFFFFFF6E
:10175000FFFFFFFFFFFFFFC0C0C0808000FFFFFF53
:10176000FFFFFFFFFFFFFFFFFFFFFFFFFFFFFFFF89
:10177000FFFFFFFFFFFFFFFFFFE3E3C7C7C381FFDB
:10178000FFFFFFFFFFFFFFFFFFFFFFFFFFFFFF7FE9
:10179000FFFFFFFFFFFFFFFFFFFFFFE1E1E1E1E0F0
:1017A000C0FFFFFFFFFFFFFFFFFFFFFFFFFFFFFF88
:1017B0007F3FFFFFFFFFFFFFFFFFFFFFFF01010074
:1017C000000000FFFFFFFFFFFFFF7F3F1F0700003C
:1017D000000000001140756DEAEAD710DFDF40809D
:1017E000BF4040408080001F1F1E3E3E3E3D3D39B1
:1017F0007A7B787BF7F600FFEAE8D5D4D6109EBE58
:10180000A2A2BE22A2444442813D3D3D3D3D3C3D1D
:101810003D3D393B383B3B3B807FAAA8AAA8AE2080
:10182000BEBCA1A1BF21A1A1A120C0F7F7F7F7F786
:10183000787B7B3A3A3B3C3D9D9D403FF1E8F4F894
:10184000F4FAF4FA0101FF010100000000FFFFFFBC
:10185000FF7F3F8F47201007000000000000800D31
:10186000FFFFFFFFFFFFFFFFFFFFFFFFFFFFFFFF88
:10187000FFFFFFFFFFFFFFFFFFFFFFFFFFFFFFFF78
:10188000FFFFFFFFFFFFFFFFFFFFFFFFFFFFFFFF68
:10189000FFFFFFFFFFFFFFFFFFFFFFFFFFFFFFFF58
:1018A000FFFFFFFFFFFFFFFFFFFFFFFFFFFFFFFF48
:1018B000FFFFFFFFFFFFFFFFFFFFFFFFFFFFFFFF38
:1018C000FFFFFFFFFFFFFFFFFFFFFFFFFFFFFFFF28
:1018D000FFFFFFFFFFFFFFFFFFFFFFFFFFFFFFFF18
:1018E0001F1F1F1F1F1F1F1F1F1F1F1F1F1F1F1F08
:1018F0001F1F1F1F1F1F1F1F1F1F1F1F1F1F1F1FF8
:101900001F1F1F1F1F1F1F1F1F1F1F1F1F1F1F1FE7
:101910001F1F1F1F1F1F1F1F1F1F1F1F1F1F1F1FD7
:101920001F1F1F1F1F1F1F1F1F1F1F1F1F1F1F1FC7
:101930001F1F1F1F1F1F1F1F1F1F1F1F1F1F1F1FB7
:101940001F1F1F1F1F1F1F1F1F1F1F1F1F1F1F1FA7
:101950001F1F1F1F1F1F1F1F1F1F1F1F1F1F1F1F97
:10196000800DFEBEBEBEBEBEBEBABABA3A3ABABA62
:101970009A8AAAA2B2B2BAB8B8BABABEBEBEBEBE3F
:10198000BEBEBEBEBEBEBEBEBEBEBEBEBEBABABA83
:10199000BA3A1A8AA2B0B8BABABEBEBEBEBEBEBEFF
:1019A000BEBEBEBEBEBEBEBEBEBEBEBEBEBEBEBE57
:1019B000BABAB8A0021ABABABABABABEBEBEBEBEE7
:1019C000BEBEBEBEBEBEBEBEBEBEBEBEBEBEBEBA3B
:1019D000BABABAB8B8B8B0A2820A1A3ABABABABA97
:1019E000BABA1F1F0717131B191D1C1E1F1F1F1F0D
:1019F0001F1F1F1F1F1F1F1F1F1F1F1F1F1F1F1FF7
:101A00001F1F1F1F1F1F1F1F1F1F1F1F1F1F07110C
:101A10001C1E1F1F1F1F1F1F1F1F1F1F1F1F1F1FDA
:101A20001F1F1F1F1F1F1F1F1F1F1F1F1F1F1F1FC6
:101A30001F1F1F1F1F1C10030F1F1F1F1F1F1F1FF4
:101A40001F1F1F1F1F1F1F1F1F1F1F1F1F1F1F1FA6
:101A50001F1F1F1F1F1F1F1F1F1F1E181001030FF7
:101A60001F1FF8FFFFFEFCFCFCFCF8FFFFFEFCFC68
:101A7000FCFCF8FFFFFEFCFCFCFCF8FFFFFEFCFC9E
:101A8000FCFCF8FFFFFEFCFCFCFCF8FFFFFEFCFC8E
:101A9000FCFCF8FFFFFEFCFCFCFCF8FFFFFEFCFC7E
:101AA000FCFCF8FFFFFEFCFCFCFCF8FFFFFEFCFC6E
:101AB000FCFCF8FFFFFEFCFCFCFCF8FFFFFEFCFC5E
:101AC000FCFCF8FFFFFEFCFCFCFCF8FFFFFEFCFC4E
:101AD000FCFCF8FFFFFEFCFCFCFCF8FFFFFEFCFC3E
:101AE000FCFC0303030303030303030303030303D4
:101AF00003030303030303030303030303030303B6
:101B000003030303030303030303030303030303A5
:101B10000303030303030303030303030303030395
:101B20000303030303030303030303030303030385
:101B30000303030303030303030303030303030375
:101B40000303030303030303030303030303030365
:101B50000303030303030303030303030303030355
:101B60000303800A280709221424080428070922ED
:101B70001424080428070922142408042807092229
:101B80001424080428070922142408042807092219
:101B90001424080428070922142408042807092209
:101BA00014240804280709221424080428070922F9
:101BB00014240804280709221424080428070922E9
:101BC00014240804280709221424080428070922D9
:101BD00014240804280709221424080428070922C9
:101BE00014240804010102010101010101010201A3
:101BF00001010101010102010101010101010201D3
:101C000001010101010102010101010101010201C2
:101C100001010101010102010101010101010201B2
:101C200001010101010102010101010101010201A2
:101C30000101010101010201010101010101020192
:101C40000101010101010201010101010101020182
:101C50000101010101010201010101010101020172
:101C600001010101080B0002020201000904000049
:101C700001020200000524001001052401010104F5
:101C8000240206052406000107058103100040090F
:101C9000040100020A0000000705020240000007DC
:101CA0000583024000000403090412010002EF0250
:101CB0000140412336800001010203014172647535
:101CC000696E6F204C4C430041726475696E6F20E1
:101CD0004C656F6E6172646F001201130014001581
:101CE00001160217041807190B1A101B171C1E1DCA
:101CF000251E201F1B20162111220C230824052538
:101D00000326022701280129012A012B022C032D79
:101D1000052E082F0C30113116321B332134253596
:101D200021361E371A381639123A0E3B0B3C093D44
:101D3000083E073F07400741084209430B440E4550
:101D4000124616471A481E49214A254B224C1F4D60
:101D50001C4E1A4F18511653155514571459145B2D
:101D6000145D155F166118621A631C641F65226694
:101D700025D5F08D14A1C881CFD9F1AF2000010283
:101D800004081020408020079D733A1DD9B2739734
:101D90009C4DB9ED5A7139D739272773CE713999CE
:101DA000DD3A32E59CEB5CCD050D0F929DAB64E70F
:101DB0002AD9B94A76AE929DAB64E72A598CD145AF
:101DC000175D74D1450A4D079DAB9DB2B139574996
:101DD000272B2EE76AD791652F5793652F57E3CAB4
:101DE000B9DA291B9B734EA723536EBB565C6B2538
:101DF000959B7ED9B94B4EE66476EB709476CEB95E
:101E0000BC72DBB5E272AE76CAC6E65CED3A070D8F
:101E10000FD5E594BC9C929753F2724A5E4EC9CBA3
:101E20002979E5955452492595545249259554529E
:101E3000492515192307524E2AA9A453B8954ED9FE
:101E4000D099554E92659593540F08C1F7C1FFC1C3
:101E5000D5FFC1DFFFC1F5FBFFD1F8FCFCFCFC782E
:101E6000F8FCFCFCFCFCF8F8FCFCFCFCFCB8F8FC06
:101E7000FCFCFCF8F8FCFCFCFCD8F8FCFEFFFFFFC7
:101E8000FFFFFFFEFCF80103030100000103030153
:101E9000010303010303030303010303030301001D
:101EA0000303030301000103070F0F0F0F0F0F07B9
:101EB00003012C0CF80404B48448F80404D414047A
:101EC000C8F80404D49464B84884941424F848846A
:101ED000941424D8F8040201F14949F1010204F8EC
:101EE00001020201000001020201010202010202DC
:101EF00002020201020202020100020202020100C9
:101F00000102040809080809080402013F33F80423
:101F1000FA0D05E5E5252525252525252525252554
:101F2000E52525252525252525E5252525252525E1
:101F3000252525252565E5E5E5E525252525252511
:101F40002525252525E5E5E5050DFA04F8FF00FF23
:101F50000000FFFFFF000000000000FF1F1C18F83A
:101F6000FF000000000000FFFFFF0000000000FF76
:101F7000FFFF000000000083FFFF008040800000A2
:101F8000FFFF3F38F8FFFF0000FF00FFFF00FF00EA
:101F900000FFFFFF00A054AA5500FCF0F2F0FFFF85
:101FA00000A050A85000FFFFFF00A050A000FBFBC6
:101FB000F10040A4448E3FFFFF00AA55AA5500FD42
:101FC000FDE0E0FFFFFF0000FF00FFFF00FF00005B
:101FD000FFFFCFC0CAC5CAC5404F7F7F7F7F4FC0BC
:101FE000CAC54A45404FFFCF404AC5CAC04F7F7F50
:101FF000E0454A454A40FFCFC04A454A45C0CFCF99
:10200000C7C0F0FFFF0000FF00FFFF00FF0000FF60
:10201000FF9F2F37470F9FFF0000007F7F0080C189
:10202000FF03FC000001FFFF00C0030F3F0000FFA3
:10203000FF000000FFFF030000FFFEF89F2F37475F
:102040000F9FFFFF0000FF00FFFF00FF80003F3FEA
:102050003F3F3E3E3F3F2F2020202F3F3F3F2F203E
:102060002D3D2D2020202F202F3F3C3020203F2FA2
:102070002020202F3F3C30202F27333F3F3E3E3F44
:102080003F3F3F0080FF00FF0001020505050505F9
:1020900005050505050505050505050505050505F0
:1020A00005050505050505050505050505050505E0
:1020B00005050505050505050505050505050505D0
:1020C00005050505020100F804FA0D05E5E52525DD
:1020D000252525252525252525E5252525252525F0
:1020E0002525E5252525252525252525252565E5E0
:1020F000E5E5E52525252525252525252525E5E5D0
:10210000E5050DFA04F8FF00FF0000FFFFFF0000E7
:1021100000000000FF1F1C18F8FF00000000000076
:10212000FFFFFF0000000000FFFFFF0000000000B5
:1021300083FFFF000000000000FFFF3F38F8FFFFB3
:102140000000FF00FFFF00FF0000FFFFFF00AA5597
:10215000AA5400FCF0F2F0FFFF00AA55AA5400FFB9
:10216000FFFF00AA55AA00FBFBF10450A5548E3FC7
:10217000FFFF00AA55AA5400FDFDE0E0FFFFFF00AD
:1021800000FF00FFFF00FF0000FFFFCFC0CAC5CA6D
:10219000C5404F7F7F7F7F4FC0CAC54A45404FFF34
:1021A000CF404AC5CAC04F7F7FE0454A454A40FFFD
:1021B000CFC04A454A45C0CFCFC7C0F0FFFF00009F
:1021C000FF00FFFF00FF0000FFFF9F2F37470F9F1B
:1021D000FF0000007F7F0080C1FF03FC000001FFC3
:1021E000FF00C0030F3F0000FFFF000000FFFF03E0
:1021F0000000FFFEF89F2F37470F9FFFFF0000FFF3
:1022000000FFFF00FF80003F3F3F3F3E3E3F3F2F2C
:102210002020202F3F3F3F2F202D3D2D2020202FFD
:10222000202F3F3C3020203F2F2020202F3F3C30CC
:10223000202F27333F3F3E3E3F3F3F3F0080FF0080
:10224000FF00010205050505050505050505050550
:10225000050505050505050505050505050505052E
:10226000050505050505050505050505050505051E
:10227000050505050505050505050505050201001A
:10228000F804FA0D05E5E52525252525252525252F
:102290002525E52525252525252525E5252525256E
:1022A0002525252525252565E5E5E5E5252525259E
:1022B00025252525252525E5E5E5050DFA04F8FF65
:1022C00000FF0000FFFFFF000000000000FF1F1CD8
:1022D00018F8FF008040800000FFFFFF0080408072
:1022E00000FFFFFF000000000083FFFF008040A010
:1022F0004000FFFF3F38F8FFFF0000FF00FFFF0036
:10230000FF0000FFFFFF00A854AA5400FCF0F2F009
:10231000FFFF00AA55AA5500FFFFFF00AA55AA001B
:10232000FBFBF10040A4448E3FFFFF00AA55AA55D5
:1023300000FDFDE0E0FFFFFF0000FF00FFFF00FFEA
:102340000000FFFFCFC0CAC5CAC5404F7F7F7F7F57
:102350004FC0CAC54A45404FFFCF404AC5CAC04FCB
:102360007F7FE0454A454A40FFCFC04A454A45C0C5
:10237000CFCFC7C0F0FFFF0000FF00FFFF00FF004E
:1023800000FFFF9F2F37470F9FFF0000007F7F0058
:1023900080C1FF03FC000001FFFF00C0030F3F00EE
:1023A00000FFFF000000FFFF030000FFFEF89F2F6B
:1023B00037470F9FFFFF0000FF00FFFF00FF800077
:1023C0003F3F3F3F3E3E3F3F2F2020202F3F3F3F9C
:1023D0002F202D3D2D2020202F202F3F3C3020204E
:1023E0003F2F2020202F3F3C30202F27333F3F3EE0
:1023F0003E3F3F3F3F0080FF00FF00010205050513
:10240000050505050505050505050505050505057C
:10241000050505050505050505050505050505056C
:10242000050505050505050505050505050505055C
:102430000505050505050201008040756DEAEAD72E
:1024400010DFDF4080BF7F7F7FFFFFFFFFFFFFFFC9
:10245000FFFFFFFFFFFFFFFFFFFFFFFFFF0FF71B68
:102460000B0B0B0B0B0B0B0B0B0B0B0B0B0B0B0BBC
:102470000B0B0B0B0B0B0B0B0B0B0B0B0B0B0B0BAC
:102480000B0B0B0B0B0B0B0B0B0B0B0B0B0B0B0B9C
:102490000B0B0B0B0B0B0B1BF70FFFFFFFFFFFFFD4
:1024A000FFFFFFFFFFFFFFFFFFFFFF1FDFDFDF0F6C
:1024B000EFEF08A8EFE804757575751F1F1E3E3E07
:1024C0003E3D3D39FA7B787BF7F600FFFFFFFFFFCB
:1024D000FFFFFFFFFFFFFFFFFFFFFFFFFF00FF000A
:1024E00000000000000000000000000000000000EC
:1024F00000000000000000000000000000000000DC
:1025000000000000000000000000000000000000CB
:102510000000000000000000FF00FFFFFFFFFFFFC2
:10252000FFFFFFFFFFFFFFFFFFFFFFC0BDBDBDBC03
:10253000BEBE3E3E1E1E1F9F1F9F1FFAC8CDC47603
:102540003416060100E038B060677EFFFFFFFFFF32
:10255000FFFFFFFFFFFFFFFFFFFFFFFFFF00FF0089
:10256000000000000000000000000000000000006B
:10257000000000000000000000000000000000005B
:10258000000000000000000000000000000000004B
:102590000000000000000000FF00FFFFFFFFFFFF42
:1025A000FFFFFFFFFFFFFFFFFFFFFFFFFFFFFFFF3B
:1025B000FFFF8081FE40405E5356573D3D3D3D3C10
:1025C0003C3C3C3D383A393B3B3B80FF7F9F3F7F63
:1025D0007FBF7FFF7F9F3F7F7FBF7FFFFF00FF00A9
:1025E00000000000000000000000000000000000EB
:1025F00000000000000000000000000000000000DB
:1026000000000000000000000000000000000000CA
:102610000000000000000000FF00FFFF7F9F3F7FE1
:102620007FBF7FFF7F9F3F7F7FBFFF01DDDDDDC07D
:10263000DEDEC0D2DEC0D1DFDFDFDFAAA8AAA8AE0F
:1026400020BEBCA1A1BF32B1B2B030D2D0E0D2D155
:10265000D2D0D0D2D0E0D2D1D2D0D0D2FF00FF00A1
:10266000000000000000000000000000000000006A
:10267000000000000000000000000000000000005A
:10268000000000000000000000000000000000004A
:102690000000000000000000FF00FFD2D0E0D2D117
:1026A000D2D0D0D2D0E0D2D1D2D0D3D4D5E5D5D5E6
:1026B000D5FD0101E90101E9316971F7F7F7F7F794
:1026C000787B7B3A3A3B3C3D9D9DC0FFFFFFFFFF7F
:1026D000FFFFFFFFFFFFFFFFFFFFFFFFFF00FF0008
:1026E00000000000000000000000000000000000EA
:1026F00000000000000000000000000000000000DA
:1027000000000000000000000000000000000000C9
:102710000000000000000000FF00FFFFFFFFFFFFC0
:10272000FFFFFFFFFFFFFFFFFFFFFF077777770741
:1027300077770494F7F404F5F5F5F5F1E8F4F8F497
:10274000FAF4FA0101FFD7D7D7D75757179797D77A
:10275000C7C7D7D7F7F7F7F7F7F7F7F7F7F6F5FBA8
:10276000FAFAFAFAFAFADADADADADADA5A1A8ACAA9
:10277000DADAFAFAFAFAFAFAFAFAFAFAFAFAFAFAF9
:10278000FAFAFAFAFAFAFAFAFADADACA0A1ADADA29
:10279000DADADADAFAFAFAFBF5F6F7F7F7F7F7F733
:1027A000F7F7F7F7F7F7F7F7D7D7DFD0D7D7EFAFC8
:1027B0002FEF0F1E9E1E9E1E3E3E3EFFFFFFFF7F21
:1027C0003F8FC7E0F0FDFBFDFDFCFCFDFDFDFDFDC9
:1027D000FDFDFDFDFDFDFDFDFDFDFDFDFDFDFDFD29
:1027E000FDFDFDFDFDFDFD3D8DE5F1F8FCFDFDFD73
:1027F000FDFDFDFDFDFDFDFDFDFDFDFDFDFDFDFD09
:10280000FDFDFDFDFDFDFDFDFDFDFDFDFDF8E08592
:102810001D7DFDFDFDFDFDFDFDFDFDFDFDFDFDFD48
:10282000FDFDFDFDFDFDFDFDFDFDFDE5E5C5C5C5B0
:10283000858780000E0D0E0D1E1D1A001027CF2655
:1028400011241FBECFEFDAE0DEBFCDBF11E0A0E064
:10285000B1E0E6EBF8E502C005900D92AA3CB107A5
:10286000D9F726E0AAECB1E001C01D92A43CB20762
:10287000E1F714E1CFE1D4E104C02197FE010E9409
:10288000162BCE31D107C9F70E94DE270C944E2CAF
:102890000C940000FC01EE5BFF4F12820895FC01D6
:1028A000DB0119962C911997209518968C91189701
:1028B000282316968D919C91179780FD24C08770D0
:1028C0009927892B29F481E09681911180E08683F4
:1028D00083818D3840F48B3578F48C3388F4828191
:1028E000815082830DC08F3B50F08F3B49F483E0D1
:1028F00054968C93549704C081E0858301C015825F
:1029000083818F5F838323FF04C083E054968C937D
:10291000549716968D919C9117978F709927892BB4
:1029200039F484818F5F853010F484830895148294
:102930000895FC0113820895089580E090E00895C1
:10294000089508952F923F924F925F926F927F92D7
:102950008F929F92AF92BF92CF92DF92EF920F939E
:102960001F93CF93DF93CDB7DEB762970FB6F8947E
:10297000DEBF0FBECDBF5C014B01E12C00E022E6C3
:102980003AE142E65BE16CE170E080E090E00E94B9
:1029900012262EE538E140E659E163E370E080E07D
:1029A00090E00E9412262CE437E144ED57E160E00C
:1029B00070E080E090E00E941226D40152968C9143
:1029C00081110EC04BEFC42E00E010E020E04CEF70
:1029D00056E160E070E089E590E00E94E7230CC0DA
:1029E000E12C00E02EEA36E14CEF56E160E070E0C9
:1029F00089E590E00E94122632E0C32EE12C00E02F
:102A000010E0F501E75BFF4F208148E154E160E011
:102A100070E080E190E00E94E723F40180899189D1
:102A20008130910521F0E8F1029791F024C0F50181
:102A3000EE5BFF4F8281811134C0E12C00E022EE79
:102A400033E14CEF53E162E070E08CE490E027C0AA
:102A5000E12C00E022EE33E14CEF53E162E070E064
:102A60008CE490E00E941226F501EE5BFF4F82811C
:102A7000811117C00CC0E12C00E022EE33E14CEFD5
:102A800053E162E070E08CE490E00E94122622EEB6
:102A900033E14CEF53E162E070E08FE390E00E949D
:102AA0001226FE013D9686E0DF011D928A95E9F728
:102AB000D4011E968C911E971F969C910AE010E0FF
:102AC00026E02E0FB8010E94022B8193CB012E131A
:102AD000F9CF2E01B2E14B0E511C2EE5622E712C66
:102AE000F4018289811108C09BEFC92EE12C00E01E
:102AF00010E0D2012C9107C08AEFC82EE12C00E033
:102B000010E0F201208148EB53E163E070E0C30183
:102B10000E94E723F1E04F1A510825E0620E711C74
:102B20008CE768167104E1F6E4EBF3E1259134914A
:102B3000E0EBF3E1459154912501AFE34A0E511CBE
:102B4000F2018081E12C00E06AE270E090E00E94F6
:102B5000122622E63AE142E65BE16BE370E080E0B8
:102B600090E00E9412263501F3E06F0E711C6501A2
:102B700028E0C20ED11C13E06414750409F445C0AA
:102B8000F601319780818823C9F1D6018C9181119A
:102B900003C03197008101C004E01601B4E02B1A94
:102BA0003108F101608170E0D3018C91E02E2EEAB2
:102BB00031E14EEA52E190E00E941226F601808156
:102BC0008230E0F086958695612F0E94E82A092FD1
:102BD000000FD40152968C91813009F40F5FF101FE
:102BE000608170E065507109D3018C91E92E20E479
:102BF00031E144E651E190E00E941226B6E06B0E0E
:102C0000711CE6E0CE0ED11CB7CF8CE0E6E1F1E01E
:102C1000DE01119601900D928A95E1F73501FAE4F3
:102C20006F0E711CD3018C91882309F441C065019A
:102C3000BCE4CB0ED11CF6018081F4E08F9FC00173
:102C40001124FE01E80FF91F6281062E000C770B9C
:102C5000E1E0F0E0EC0FFD1FE80FF91F8081E12CAF
:102C600000E02EEF30E14EE151E1082E000C990B0F
:102C70000E941226D3018C9180FD1AC0F60180813A
:102C8000F4E08F9FC0011124FE01E80FF91F648159
:102C9000062E000C770BFE01E80FF91F83812AED49
:102CA00030E14BEE50E1082E000C990B0E941226E9
:102CB000F501EE5BFF4F82818823B9F0858187FDA6
:102CC00014C0859566E00E94F42A943009F050C043
:102CD00092E0618170E08081E92E092F28E23FE0D7
:102CE00040E050E190E00E941226E12C00E02EE24C
:102CF0003EE04AEA5EE06FE170E080E690E00E942C
:102D00001226F501E85BFF4F8081882349F081306E
:102D100099F4E12C00E02CE13EE043E15EE006C0E6
:102D2000E12C00E02CE13EE045E25EE06FE170E086
:102D300082E790E00E941226D40152968C9162960E
:102D40000FB6F894DEBF0FBECDBFDF91CF911F91BC
:102D50000F91EF90DF90CF90BF90AF909F908F90AA
:102D60007F906F905F904F903F902F900C94D31C6A
:102D7000953009F0AECF91E0ACCFAF92BF92CF9239
:102D8000EF920F931F93CF93DF93EC015B01E12C44
:102D900000E02BE83BE04BE85CE06CE170E080E0B9
:102DA00090E00E94122627E839E049E85AE063E300
:102DB00070E080E090E00E94122625E738E04DEFB9
:102DC00058E060E070E080E090E00E9412262BE87E
:102DD0003BE04BE85CE06BE370E080E090E00E9459
:102DE000122682E0C82E00E010E02C814FED55E065
:102DF00060E070E080E190E00E94E7238A8125EEA8
:102E000034E041E655E06FE170E090E00E94122668
:102E10008E81882359F08130B1F48A8190E0E12CD1
:102E200000E023ED34E04AEC54E008C08A8190E0F1
:102E3000E12C00E023ED34E04CED54E06FE170E074
:102E400042960E9412268D81882369F08A8190E043
:102E5000E12C00E02CE834E04AEA54E064E270E05F
:102E600004970E941226F5018289DF91CF911F916C
:102E70000F91EF90CF90BF90AF900C94D31CCF9256
:102E8000EF920F931F93CF93DF93FC016A3039F4D5
:102E90008581848396818185890F868348C084815A
:102EA0006E3719F48D5F848342C0262FEF0166814F
:102EB0006F5F2A334CF42033C4F42D32C1F02E322C
:102EC00081F0213249F515C02B352CF421345CF406
:102ED0002F3341F121C09FE9920F9A31E8F4275432
:102EE00009C02FE307C0215405C02C5F03C021E4B3
:102EF00001C02EE33F81062E000C770B082E000C3C
:102F0000990B313089F44AEFC42EE12C00E010E037
:102F100042E853E00E94E72388858C5F9C81890FFB
:102F20008C8305C020E4E6CF3BEFC32EEECF81E0DB
:102F300090E0DF91CF911F910F91EF90CF90089586
:102F40002F923F924F925F926F927F928F929F92B9
:102F5000AF92BF92CF92DF92EF92FF920F931F93A7
:102F6000CF93DF9300D000D000D0CDB7DEB79E83E3
:102F70008D837B01DB0118967C908C01015C1F4FD7
:102F8000D801EC91DB0116968D919C91179765E025
:102F900070E00E94022B892B59F0F70186819781FE
:102FA0006FE070E00E94022B892B09F4A9C0B0C029
:102FB0002D813E812D5F3F4FAD80BE80F7E0AF0E8B
:102FC000B11C6D817E816C5F7F4FCD80DE8085E09E
:102FD000C80ED11C4D815E81485F5F4F93E0492E42
:102FE000FBE25F2EA2E06A2EEC5E2E2E312C99249D
:102FF0009394AD81BE81AE5BBF4F89EF882E2017C1
:10300000310759F2F5018081882309F46CC0F90178
:103010008081863639F4F7018685978501969787F2
:10302000868722C0FB0190819532F1F4885F90E0A1
:103030008219930997FF03C09195819591090B9788
:103040000CF0E9C111C0823178F013961C921397ED
:1030500012969C92129715968C921597ECEEFDE0C5
:10306000849114968C931497F60180818F5F8083EE
:103070008C3411F4108235C0FA019081923039F10C
:1030800068F4992389F0913061F5F90180818F5FAF
:103090008083FB015082FA01608225C09D3308F5D0
:1030A0009F5FFA0190831FC090E0FC01EE0FFF1FAD
:1030B000FC83EB83E752F34E9491F9019083EB810B
:1030C000FC81E652F34E8491FB0180830CC0F90130
:1030D00080818F5F808382E3FB018083FA014082DD
:1030E00002C0F50110822A5F3F4FF6E0AF0EB11C1F
:1030F0006A5F7F4F86E0C80ED11C4A5F5F4F7FCF6B
:10310000ED81FE813696CF0103970817190731F438
:10311000D70116968C9180FF0CC077C081818823DF
:1031200089F380818F5F883011F08083EBCF10822C
:10313000E9CFCD80DE80BBE4CB0ED11CF6018081CF
:1031400081508083811161C0D7011E968D919C9121
:103150001F97ED81FE81E65BFF4F4F012D813E8180
:10316000245B3F4F59018B309105E0F0459780F586
:103170000E94612A22E330E040E050E00E94852A6C
:10318000DC01CB0188589F4FAF4FBF4FF6018083C2
:1031900086E0D4018C930E94612A22E030E040E076
:1031A00050E02FC00E94612A22E330E040E050E06E
:1031B0000E94852ADC01CB018A569F4FAF4FBF4F3B
:1031C000F601808386E0D4018C93F50110821DC046
:1031D0000E94612A22E330E040E050E00E94852A0C
:1031E000DC01CB01805B9F4FAF4FBF4FF601808367
:1031F00086E0D4018C930E94612A23E030E040E015
:1032000050E00E94852AF5016083D70116968D91C2
:103210009C9117976EE170E00E94022B892BA9F513
:10322000ED81FE81E65BFF4F8081882371F1813063
:1032300051F51082ED81FE81379680E090819923CF
:1032400029F08F5F36968A30C9F78FEFAD81BE8146
:10325000E6E08E9FA00DB11D112481E017968C939E
:10326000179715961C92159718961C921897E9EDCA
:10327000FCE1E4911396EC931397EAEDFCE1E49101
:103280001496EC9302C08150808375FE0BC0D80168
:1032900011968C911197811105C08C91833110F09A
:1032A00012961C9276FE09C0F8018181811105C039
:1032B00080818C3310F481E08283D70116968C9143
:1032C00080FD2DC0F8018281882391F0813039F58D
:1032D000F8018081E18191E09E0FD80111969C93C5
:1032E0001197F0E0E357F24FE491E80FEC930EC032
:1032F000D8018081E18191E09E0F11969C93F0E0CE
:10330000E357F24FE4918E1BF80180839B3039F430
:10331000D80111961C92119782E012968C932D8100
:103320003E812E5B3F4FF9018281882309F450C012
:10333000D70116968D919C91179766E070E00E94D8
:10334000022B892B09F044C085818F5F8583482F2C
:10335000082E000C550B87FD34C0848190E048177F
:1033600059077CF583818130E9F078F0823049F5A6
:10337000CA01880F991FFC01E756F24FE491D90169
:10338000EC93FC01E656F24F19C0CA01880F991F51
:10339000FC01E351F24FE491D901EC93FC01E251BD
:1033A000F24F0CC0CA01880F991FFC01E853F24F7D
:1033B000E491D901EC93FC01E753F24FE4911196AB
:1033C000EC93F901848190E04817590709F41282BF
:1033D000D70116968D919C9117979C0127703327E2
:1033E000232B49F4ED81FE81E85BFF4F21E0308122
:1033F000311120E020838F709927892BB1F5ED8161
:10340000FE81E75BFF4F80818F5F853010F4808302
:103410002CC010822AC0FA019082F701808991891C
:103420000196918B808BF90180818C3378F48732FF
:1034300008F409CE13969C92139712969C921297B9
:1034400015968C921597E7ECFDE00ACE813808F0CE
:103450000BCE13966C92139712969C921297159618
:103460008C921597E8E9FDE0FBCD26960FB6F8940F
:10347000DEBF0FBECDBFDF91CF911F910F91FF90A7
:10348000EF90DF90CF90BF90AF909F908F907F9004
:103490006F905F904F903F902F900895CF92DF9262
:1034A000EF920F931F93CF93DF93FC016A3039F4AF
:1034B0008581848396818185890F8683AAC0A481B2
:1034C0006E3719F4AE5FA483A4C0962FEF01668116
:1034D0006F5F9A3384F4903314F59B3219F11CF426
:1034E000913221F15DC09D3209F460C09E3209F035
:1034F00057C01FE31CC09B354CF4913474F49A33CD
:1035000099F09F3309F04CC012E411C08FE9890F84
:103510008A3108F045C019EB03C01FEB01C014E06D
:10352000190F05C011E403C013E401C01EE38F812D
:10353000062E000C770B0A2E000CBB0B813009F015
:103540003AC0E4EBF2E00491E5EBF2E0E490112301
:1035500079F1E02FF0E02E2D269526952695422F25
:1035600050E021E030E08E2D877011F420E030E053
:10357000240F351FE29F6001E39FD00CF29FD00C17
:10358000112496011203A001139F500D11244A54D7
:103590005D4F9AEFC92E20E030E0CD010E94CA2194
:1035A00088858D5F9C81890F8C8333C010E4BFCFE9
:1035B00046EB52E0EECFE4EBF2E00491E5EBF2E013
:1035C000E490112309F1E02FF0E02E2D26952695A9
:1035D0002695422F50E021E030E08E2D877011F4C7
:1035E00020E030E0240F351FE29F6001E39FD00C04
:1035F000F29FD00C112496011203A001139F500DCD
:1036000011244A545D4F02C046EB52E08BEFC82EA6
:10361000C2CF81E090E0DF91CF911F910F91EF90A9
:10362000DF90CF9008950C94B12B0C94B12B0C9497
:10363000B12B0C94B12B0C94B12B089508950895DF
:10364000089508950C94B12B0895FC018091D20146
:10365000811103C08FEF9FEF08959FB7F89482E028
:103660008093E9002091F20030E01216130614F462
:1036700021E030E02115310559F0289884E6809347
:10368000D1018091F10080838091F200882319F0AC
:103690009FBFC90108958BE68093E800F9CF2FB74B
:1036A000F89483E08093E9009091E800892F80727C
:1036B00095FF04C09091F20080E4891B2FBF08950C
:1036C00080915E0681110DC082E080935A0684E0ED
:1036D00080935B0610925D0610925C0681E08093F9
:1036E0005E068AE596E00895CF93DF931F92CDB7EB
:1036F000DEB76983DC01ED91FC910280F381E02D5E
:1037000041E050E0BE016F5F7F4F09950F90DF9160
:10371000CF91089583E08093E9008091F20088239F
:1037200019F08AE38093E80008950E944F1B90E00F
:103730000895CF93DF931F92CDB7DEB7FC01848548
:10374000958597FD05C02FEF3FEF358724870BC088
:10375000CE0101960E94251B019719F4898190E002
:1037600002C08FEF9FEF0F90DF91CF9108950F93DD
:103770001F93CF93DF931F92CDB7DEB78C01FC016F
:103780008485958597FF0EC0CE0101960E94251B6A
:10379000019719F4298130E002C02FEF3FEFF801C3
:1037A00035872487F801848595850F90DF91CF9127
:1037B0001F910F910895FC018485958597FD0BC09D
:1037C0009FB7F89482E08093E9008091F2009FBF58
:1037D00090E0019608959FB7F89482E08093E90005
:1037E0008091F2009FBF90E008958F929F92AF92D8
:1037F000BF92CF92DF92EF92FF920F931F93CF93DE
:10380000DF935C016B017A0180910B01882309F43D
:103810005BC08091D201882309F456C08091D00109
:1038200080FF05C08091E00082608093E000E701A6
:1038300010E00AEF83E0882E9AE3992E2097D9F1C1
:103840000E944F1B81110AC0015009F43DC061E084
:1038500070E080E090E00E944621F0CF282F30E019
:10386000C217D3070CF48C2F4FB7F8948092E9005D
:103870009091E80095FF1DC0282F30E0C21BD30BAC
:10388000F601982F915020F081918093F100FACFAA
:10389000C20ED31E112319F09092E80009C0809146
:1038A000E80085FD06C09092E80011E0209709F03D
:1038B00010E04FBFC3CF1111C3CF5D9884E6809352
:1038C00059061E141F0444F081E090E0F501938333
:1038D000828380E090E001C0C701DF91CF911F910A
:1038E0000F91FF90EF90DF90CF90BF90AF909F909F
:1038F0008F900895DF92EF92FF920F931F93CF93D3
:10390000DF93D82E8A017B01E40EF51EEB01CE1564
:10391000DF0571F0D7FE03C0FE01849101C08881EC
:103920000E940B2121968111F2CF8FEF9FEF01C0F2
:10393000C801DF91CF911F910F91FF90EF90DF9021
:1039400008950F931F93CF93DF931F92CDB7DEB7E8
:1039500082E0898342E450E064E67CE180E80E94F2
:103960007A1C0E94601BDC0112960D911C9113972A
:103970000115110569F0D801ED91FC910280F381E8
:10398000E02DBE016F5F7F4FC801099597FF07C00B
:1039900089810F90DF91CF911F910F910895F801C8
:1039A00000851185E5CF9091D3019EBD91E08111F5
:1039B00090E091959093D301E4EDF1E080819193B3
:1039C0000DB407FEFDCF8EBD85E0E33DF807B1F7EE
:1039D0000DB407FEFDCF08952F923F924F925F9254
:1039E0006F927F928F929F92AF92BF92CF92DF920F
:1039F000EF92FF920F931F93CF93DF93CDB7DEB774
:103A00002B970FB6F894DEBF0FBECDBF4C016B01F4
:103A10005A8349831C821B821D821E8268E070E0EB
:103A2000CE0101960E948A2601961C0168E070E092
:103A3000CE0101960E948A268C0161E070E0CE01E1
:103A400001960E948A26482FC401820D931D97FD7E
:103A5000D5C050E8851691040CF0D0C098012F5FB6
:103A60003F4FC601820F931F97FDC8C060E4C61682
:103A7000D1040CF0C3C08601D7FE04C00027112773
:103A80000C191D09077011277601D7FE03C077E0D6
:103A9000E70EF11C63E0F594E7946A95E1F7D7FE31
:103AA00009C081E0E81AF10888E090E0BC01601BE1
:103AB000710B8B01690137FF03C077E0C70ED11C82
:103AC00053E0D594C7945A95E1F727703327232BF9
:103AD00019F08FEFC81AD80A4F8331E020E0A12CEB
:103AE000B12C612C712C88E090E0AC01401B510B93
:103AF000598748876C147D040CF080C0442443949B
:103B0000512C61E070E0CE0101962A873B870E942C
:103B10008A262A853B85892B21F452E0450E511CCB
:103B2000F0CFB201CE0101960E948A26AC014F5F10
:103B30005F4FE0E0F0E02A853B85E417F50708F0E9
:103B400054C06F816111232B330F09F04CC0B701B2
:103B5000660D771DCB0101960997A8F5C501880D63
:103B6000991D8038910578F52B015694542C4424E6
:103B700057944794480C591C4A0C5B1C6F3F8FEFBD
:103B80007807C1F1D201AD52BE4F822F002E01C085
:103B9000880F0A94EAF780959C9189238C930115EC
:103BA000110589F06730710571F0D201AD5ABD4F32
:103BB00030E0088402C0359527950A94E2F72095F5
:103BC0008C9128232C939FEFA91AB90AA214B3044D
:103BD00044F06FEF661A760A31E020E0A12CB12C98
:103BE00002C031E020E03196A8CF4F8151E0452757
:103BF0004F8380CF01151105C1F6E5CF2B960FB687
:103C0000F894DEBF0FBECDBFDF91CF911F910F9112
:103C1000FF90EF90DF90CF90BF90AF909F908F90EC
:103C20007F906F905F904F903F902F9008951F92DC
:103C30000F920FB60F9211248F939F938091E10002
:103C40009091E100937F9093E10083FF0FC0109269
:103C5000E90091E09093EB001092EC0092E39093D6
:103C6000ED001092D20198E09093F00082FF20C006
:103C700093E09093E9009091F200992319F09AE370
:103C80009093E80090915906992339F09091590644
:103C9000915090935906992389F19091D1019923DC
:103CA00039F09091D10191509093D101992341F134
:103CB00084FF10C08091E2008E7E81608093E200DC
:103CC0008091E1008F7E8093E1008091D0018E7E13
:103CD000806111C080FF16C08091E2008E7E8061FD
:103CE0008093E2008091E1008E7E8093E1008091DC
:103CF000D0018E7E81608093D00104C05D9ACDCFCB
:103D0000289AD6CF9F918F910F900FBE0F901F9042
:103D100018951F920F920FB60F921124CF92DF9237
:103D2000EF92FF920F931F932F933F934F935F93C5
:103D30006F937F938F939F93AF93BF93EF93FF9373
:103D4000CF93DF93CDB7DEB76C97DEBFCDBF1092B8
:103D5000E9008091E80083FFEDC168E0CE0145965F
:103D60000E94392182EF8093E8008D8987FF05C08A
:103D70009091E80090FFFCCF03C09EEF9093E80085
:103D8000982F907609F0C6C09E892F89188D9111C1
:103D90000CC0803829F48091CF018093F10002C0DB
:103DA0001092F1001092F10048C1422F50E0512BC7
:103DB000913051F4811141C14130510509F03DC1AB
:103DC0008091CF018D7F0BC0933061F4811135C19B
:103DD0004130510509F031C18091CF01826080935B
:103DE000CF012BC1953041F48091E80080FFFCCFDA
:103DF00020682093E30021C1963009F05FC0EB8C6E
:103E0000FC8C1092E9001092CD011092CC0112307E
:103E100091F51092CB011092CA010E94A11C99E069
:103E2000BE016F5F7F4FDB01E92F1D92EA95E9F735
:103E300099831A8391E09E8390EA98879AEF9987F5
:103E40002091CC013091CD01275F3F4F3C832B83E4
:103E50008D831092E9001092CD011092CC01F09266
:103E6000CB01E092CA0149E050E080E00E947A1C58
:103E70000E94A11CE2C0F092CB01E092CA010E9414
:103E8000601BDC011296ED90FC901397E114F10495
:103E900009F4C0C0D701ED91FC910480F581E02DBB
:103EA000BE016B5E7F4FC7010995009719F00CF0BA
:103EB000C4C0C7C0F701E084F184E8CF973009F4AB
:103EC000C0C0983021F481E08093F100B6C09930F1
:103ED00009F0B3C0837009F0B4C0E3E2F1E081E01F
:103EE00021E036E39081992361F08093E9002093EB
:103EF000EB0091919093EC003093ED008F5F873051
:103F000089F78EE78093EA001092EA008F89809308
:103F1000D20193C08B8D9C8D1092E9001092CD013F
:103F20001092CC019093CB018093CA01898D8111AD
:103F300056C08E899D89913A59F4813209F081C029
:103F400047E050E064E071E080E00E947A1C75C0B8
:103F5000913209F076C0833289F4888D90E0982FF1
:103F600088272F89822BA0E0B0E0809300019093F6
:103F70000101A0930201B09303015FC0803269F494
:103F80008091E80082FFFCCF67E084E091E00E942E
:103F900039218BEF8093E80006C0823209F04DC0D2
:103FA0008F8980930B018091CE01882319F0EEEF69
:103FB000FAE002C0E0E0F8E0809104019091050190
:103FC000A0910601B0910701803B9440A105B10585
:103FD00009F07BC080910B0180FF93C076C00E94E6
:103FE000601BDC0112960D911C91139701151105B0
:103FF00041F1D801ED91FC910190F081E02DBE01DD
:104000006B5E7F4FC8010995811117C0F8010085CB
:104010001185ECCF113009F44EC0133091F48F8923
:10402000882309F445C0823081F440E860E188ECDF
:104030009CE10E94D326882321F08EEF8093E80034
:1040400079C081E28093EB0075C0813029F440E8AB
:104050006BE08CEB9CE1EDCF833099F70E94601B05
:10406000DC011296ED90FC9013978E010F5F1F4FAD
:104070006801E114F10479F0D701ED91FC9106801B
:10408000F781E02DB801C7010995080F111DF7014F
:10409000E084F184EECFD8011C92F601019000205B
:1040A000E9F73197BF016C197D0940E0C601C1CF26
:1040B00066EA7CE102C06AEA7CE16115710509F2F9
:1040C000FB01449150E080E840CF0FB6F894A895EA
:1040D00080916000886180936000109260000FBE44
:1040E000A895EE3F2AE0F20739F08091FE0A909100
:1040F000FF0A91838083A1CF1092FF0A1092FE0ADB
:104100009CCFEE3F8AE0F80731F080819181909357
:10411000FF0A8093FE0A87E797E7918380839BE0FD
:1041200088E10FB6F894A895809360000FBE909335
:10413000600083CF6C960FB6F894DEBF0FBECDBF84
:10414000DF91CF91FF91EF91BF91AF919F918F91AF
:104150007F916F915F914F913F912F911F910F919F
:10416000FF90EF90DF90CF900F900FBE0F901F90B9
:104170001895CF92DF92EF92FF920F931F93CF93F8
:10418000DF936C017A018B01C0E0D0E0CE15DF0532
:1041900089F0D8016D918D01D601ED91FC910190CE
:1041A000F081E02DC6010995892B11F47E0102C032
:1041B0002196ECCFC701DF91CF911F910F91FF9016
:1041C000EF90DF90CF9008953FB7F8948091B706B5
:1041D0009091B806A091B906B091BA0626B5A89BF1
:1041E00005C02F3F19F00196A11DB11D3FBFBA2F89
:1041F000A92F982F8827820F911DA11DB11DBC01E9
:10420000CD0142E0660F771F881F991F4A95D1F7AD
:1042100008950E94492C4091CC015091CD012091EC
:10422000CA013091CB0142175307B4F49091E800D2
:104230009570E1F39091E80092FD19C08093F10030
:104240008091CC019091CD0101968F739927892B94
:1042500019F48EEF8093E8008091CC019091CD010C
:1042600001969093CD018093CC0181E0089580E088
:104270000895615030F02091F100FC0120830196F7
:10428000F8CF289884E68093D10108958F929F9269
:10429000AF92BF92CF92DF92EF92FF926B017C01BF
:1042A0000E94E4204B015C01C114D104E104F1043B
:1042B000F1F00E94E420DC01CB0188199909AA09D8
:1042C000BB09883E9340A105B10570F321E0C21AF5
:1042D000D108E108F10888EE880E83E0981EA11C41
:1042E000B11CC114D104E104F10419F7DDCFFF9032
:1042F000EF90DF90CF90BF90AF909F908F900895F8
:104300001F920F920FB60F9211242F933F938F930A
:104310009F93AF93BF938091BC069091BD06A091EF
:10432000BE06B091BF063091B60623E0230F2D37AD
:1043300020F40196A11DB11D05C026E8230F0296A9
:10434000A11DB11D2093B6068093BC069093BD06B7
:10435000A093BE06B093BF068091B7069091B806B1
:10436000A091B906B091BA060196A11DB11D809326
:10437000B7069093B806A093B906B093BA06BF915A
:10438000AF919F918F913F912F910F900FBE0F9002
:104390001F9018952F923F924F925F926F927F924B
:1043A0008F929F92AF92BF92CF92DF92EF92FF9245
:1043B0000F931F93CF93DF9300D000D000D0CDB7E1
:1043C000DEB7F02ECD82A02FB0E06C01CA0EDB1E4E
:1043D0001C141D040CF0F3C0803891050CF0EFC0E4
:1043E000FB01EE0DF11D1E161F060CF0E8C0603437
:1043F00071050CF0E4C04115510509F4E0C0062F29
:104400000770602EFB0177FD379613E0F595E79571
:104410001A95E1F71E2F77FF04C0662011F01FEFF9
:104420001E0F97FF05C0EE27FF27E81BF90B02C000
:10443000E0E0F0E060E8C616D10424F060E8962ED3
:10444000981A01C09F2C9E1A612F012E000C770B29
:104450001F3F1CF4B62EB09401C0B12CDD24D394C0
:104460000E2D077009F4D12CE694E694E694ED0C39
:104470006E0D711D693071051CF068E0E62EE11AC1
:104480008B2C810E782D00E87003800D911D112476
:104490008E0F9F1F61E070E0062C02C0660F771F31
:1044A0000A94E2F70D81033011F001E001C002E04F
:1044B000A919B1090A9F302C1124C02ED12CBF9C00
:1044C000E00DF11D1124CE9ED001CF9EB00DDE9ED9
:1044D000B00D11245A01AA0EBB1E2115310509F099
:1044E000A901960121503109A20FB31F4A0F5B1F8A
:1044F000EFEFE69F9001E79F300D112429014094D2
:1045000050941E0D1E83232D30E0099D200D311D7A
:1045100011240E81801609F452C0DC01AD52BE4F49
:104520007A018501712C791409F441C0F8013490A5
:10453000369EF001379EF00D1124FA83E983E09551
:10454000F095FC83EB83FD81F23019F45C824B82A1
:1045500011C0ED81EB3F19F41A8219820BC0F701EB
:104560003490369EF001379EF00D1124E095F095C1
:10457000FC83EB8387FC06C0FC91EB81EF23F98180
:10458000EF2BEC93662061F0F6E0F8154CF0FD019E
:10459000E058FF4F20803C8023203A803228308230
:1045A000EC0CFD1C0C0D1D1D73941196BCCF839457
:1045B000A20EB31E420F531F80589F4FAACF2696BC
:1045C0000FB6F894DEBF0FBECDBFDF91CF911F9124
:1045D0000F91FF90EF90DF90CF90BF90AF909F90A2
:1045E0008F907F906F905F904F903F902F900895A5
:1045F0000895CF93DF93FC01EB0198858985809521
:10460000892394FF14C09689903118F49F5F968B8C
:104610000FC0F89487E78093000880930108A8955D
:1046200088E18093600088E080936000FFCF168A65
:1046300083FF02C082E08C8B8E819F816FE070E0EF
:104640000E94022B892B39F487898F5F833011F008
:10465000878B01C0178A8E819F8160E570E00E9480
:10466000022B892B21F4918D81E08927818F808D08
:10467000883C10F48F5F808FDF91CF91089508956B
:10468000FC01DB0119968C911997809518969C91E5
:104690001897892399F08281882311F08CE782830F
:1046A000828181110BC081E0828380E4809390003D
:1046B00081E49FE0909399008093980092819923E0
:1046C000B1F09F5F9283953059F09D3761F0923041
:1046D00071F480E596E49093990080939800089592
:1046E00010929000089581E054968C930895089557
:1046F00008950F931F93CF93DF938C01EB0144E355
:104700005EE161E170E08FE290E00E94EC1C4FE01E
:104710005EE16AE170E08BE290E00E94EC1C4FE009
:104720005EE16AE170E089E490E00E94EC1CF8012F
:104730008281811111C04FE05EE16AE170E08AE39D
:1047400090E00E94EC1C46EC5DE16EE270E08AE1D4
:1047500090E00E94EC1C34C049EA5DE16AE170E03F
:104760008AE390E00E94EC1C46E85DE16EE270E0B6
:104770008CE290E00E94EC1CF80182816FE00E94C4
:10478000E82A837040E050E161E370E00EE71DE14C
:104790004817B1F0942F990F915B9B01F801529F3C
:1047A000D001A0781124A90F2770E20FF11D949178
:1047B000AD52BE4F90952C9192239C934F5FE8CFC2
:1047C0008A89DF91CF911F910F910C94D31C6F9226
:1047D0007F928F929F92AF92BF92CF92DF92EF9291
:1047E000FF920F931F93CF93DF9300D000D0CDB7EC
:1047F000DEB73A014115510509F401C2FA01F490FE
:1048000031965491F2E06F0E711CAF2CB12C211136
:1048100002C0EE2069F1A52FA695A695A695B0E059
:10482000E1E0F0E0352F377011F4E0E0F0E0AE0F9A
:10483000BF1FAA9EF001AB9EF00DBA9EF00D112491
:10484000A3E08A2EC81003C0EE0FFF1F0AC0011597
:10485000110539F0EE9ED001EF9EB00D11240A0F24
:104860001B1F2E9FD0012F9FB00D11246A0E7B1E9F
:104870002FEFC21208C00115110519F0CC24C39402
:1048800002C032E0C32EDC01AA0DBB1D1A161B06A6
:104890000CF0B5C1803891050CF0B1C19B01250F1A
:1048A000311D121613060CF0AAC1603471050CF00C
:1048B000A6C16114710409F4A2C1362F3770932E7A
:1048C000FB0177FD379623E0F595E7952A95E1F70B
:1048D0002E2F77FF04C0992011F02FEF2E0F97FF96
:1048E00005C0EE27FF27E81BF90B02C0E0E0F0E06F
:1048F000A038B1051CF030E8381B01C03F2D3E1B2D
:10490000622F022E000C770B2F3F1CF4462F409590
:1049100001C040E0B1E0A52FA77009F4B0E05695C2
:1049200056955695DB2ED50E6D0D711D69307105AE
:104930001CF058E0D52ED21AD41A240FDC0150E80E
:104940002503A00DB11D1124AE0FBF1F4F9DE00D1B
:10495000F11D1124A3014E0F5F1F81E090E07C0147
:10496000092C02C0EE0CFF1C0A94E2F783E0C81683
:1049700009F404C18C15A8F091E0C91609F4B5C07A
:10498000E2E0CE123CC18FEF8E9DB0018F9D700D85
:104990001124609570957C836B837C806D2C620EF6
:1049A0002BC0FAEFCF1631F09BEF892EC81027C12C
:1049B000D20E87C0D20E51C0FA01E00FF11FE49170
:1049C000EE9D6001EF9DD00C1124DA82C98227FD93
:1049D00007C0FC01D080ED2DE623CE2AFC01C08269
:1049E000911013C00F5F1F4F0196031728F32F5F1D
:1049F0004A0D5B1DA058BF4F261509F400C1CD011B
:104A00008D529E4F00E010E0F0CF27305CF7FC01A4
:104A1000E058FF4FC080C7208A80C828C082E2CFFC
:104A2000FA01E60FF71FE491EE9D8001EF9D100D56
:104A300011241A83098327FD04C0FC011081012B76
:104A40000083911013C06F5F7F4F0196631740F38F
:104A50002F5F4A0D5B1DA058BF4F2D1509F4CFC025
:104A6000CD018D529E4F60E070E0F0CF27305CF7B3
:104A70008C0100581F4FF801C080FA81CF2AF8013D
:104A8000C082E1CFFA01E00FF11FE491EE9DC00179
:104A9000EF9D900D11249A83898327FD05C0809591
:104AA000FB01908189238083911014C00F5F1F4FF9
:104AB0006F5F7F4F031730F32F5F4A0D5B1DA058C8
:104AC000BF4F2D1509F49BC0BD016D527E4F00E014
:104AD00010E0F0CF273054F7FB01E058FF4F8A81F8
:104AE0008095908189238083E1CF0E0F1F1F8D2C2D
:104AF000820E281509F483C0CD018D529E4F6C01A2
:104B000060E070E0631790F5F801E60FF71FE4919D
:104B1000EE9DC001EF9D900D1124809590959C8392
:104B20008B83FA01E60FF71FE491EE9D3001EF9DB4
:104B3000700C11247A82698227FD05C0F6019081EC
:104B40008923682A6082992059F027304CF4F601B5
:104B5000E058FF4F90818C8189239A81892B808333
:104B60006F5F7F4FFFEFCF1ADF0ACCCF2F5F4A0D69
:104B70005B1D0A0D1B1DA058BF4FBBCF832F90E0BC
:104B8000E40FF51FAD52BE4F60E870E0681B790B73
:104B9000A81AB90A8501000F111F5D2D832ECF932E
:104BA000DF93ED01EF96EF962296A590C5909920A0
:104BB00059F0AE9C5001CE9C600127302CF4F88057
:104BC000D094FD20FB28F99222233AF0FC90C09467
:104BD000FC20FA28FD920C94EE2511963A9529F7BF
:104BE0005A9551F0382D23951124E00FF11DA60F91
:104BF000B11DC60FD11DD9CFDF91CF9111240F90D8
:104C00000F900F900F90DF91CF911F910F91FF9018
:104C1000EF90DF90CF90BF90AF909F908F907F905C
:104C20006F900895CF92EF920F931F93F901202F69
:104C3000CC24C3948F010E94E7231F910F91EF9022
:104C4000CF900895CF92EF920F931F93CF93DF935E
:104C5000EC01E9E3F4E20491EAE3F4E2E49092E0A7
:104C6000C92E20E030E04BE354E260E070E080E0E9
:104C700090E00E94CA212AEFC22EE12C00E010E051
:104C80002F894CE05FE161E070E081E290E00E94FA
:104C9000E723888D883C51F42AE53EE142EB5EE152
:104CA00064E370E08BE290E00E941226898D8823F5
:104CB00071F082E0C82EE12C00E010E020E049E431
:104CC0005EE160E170E082E190E00E94E723E3EDC5
:104CD000F1E081E0A0E0B8E000800EBC8111012C81
:104CE0001197A0FDFDCF0192B9F70DB4DF91CF91DF
:104CF0001F910F91EF90CF900895BC0180E090E05C
:104D00000C9446218FB18095807F669B88601C9BA8
:104D1000846008951F93CF93DF93DC0120E030E09F
:104D200040E050E011E0C1E0D0E02617370791F1F4
:104D300014968C911497811115C014961C93149796
:104D400012968D919C911397ED91FC911197E80F1C
:104D5000F91FE4911596EC931597019613969C9381
:104D60008E93129714969C91149715968C91159783
:104D7000892349F0FE01022E02C0EE0FFF1F0A94A4
:104D8000E2F74E2B5F2B990F14969C9314972F5F8D
:104D90003F4FCBCFCA01DF91CF911F91089583ED93
:104DA00095E00C94211BCF92DF92EF92FF920F932C
:104DB0001F93CF93DF931F92CDB7DEB7182F062F27
:104DC000E42E862F880F8E5F99830E940B2183E04B
:104DD0000E940B21F12EC12E9981D92E8C2D8F1975
:104DE000801798F4F601E7FE02C0849101C080812B
:104DF0000E940B21182F80E00E940B218123FFEFDE
:104E0000CF1ADF0A8111EACF01C081E00F90DF9154
:104E1000CF911F910F91FF90EF90DF90CF90089569
:104E2000109269061092680688EE93E0A0E0B0E068
:104E300080936A0690936B06A0936C06B0936D0600
:104E40008DE291E090936706809366068FEF9FEF67
:104E500090937306809372061092DB051092DC0526
:104E600080E18093DD051092DA051092D905109249
:104E7000DF058FE391E09093D7058093D6051092DC
:104E8000E2051092E1051092E4051092E3051092FC
:104E9000E50585EC91E09093D4058093D3051092BD
:104EA000ED051092EC058DE491E09093EB05809375
:104EB000EA0598E09093F30581E08093F205109263
:104EC000EF051092F0051092EE058093F105109217
:104ED000F7051092F60529E531E03093F5052093AA
:104EE000F4059093FD058093FC051092F90510924E
:104EF000FA051092F8058093FB0585E791E0909301
:104F0000E9058093E8051092FE051092FF051092C6
:104F100000061092010685EA91E0909303068093C3
:104F200002061092040685E891E0909306068093AD
:104F300005068CE980930706109208061092090670
:104F400010920A0610920B0685E991E090930D06E7
:104F500080930C0610920E0680E090E069ED7CE1F3
:104F60004AED5CE1DC01AD52BA4FFD01E05CFF4F60
:104F70001082DE961C92DE9731961082FB012491FE
:104F8000DC962C93DC97FA012491DD962C930696FF
:104F90008C33910539F782E080934D0682E180934E
:104FA0004B06109254061092550686E080935606E2
:104FB00081E080935706109258060895789484B53E
:104FC000826084BD84B5816084BD85B5826085BD05
:104FD00085B5816085BD80916E00816080936E0093
:104FE0001092810080918100826080938100809185
:104FF0008100816080938100809180008160809336
:105000008000809191008260809391008091910056
:1050100081608093910080919000816080939000E6
:105020008091C10084608093C1008091C100826042
:105030008093C1008091C10081608093C100809104
:10504000C30081608093C3008091C0008260809320
:10505000C0008091C20081608093C20080917A007C
:10506000846080937A0080917A00826080937A00D5
:1050700080917A00816080937A0080917A008068C4
:1050800080937A001092D2011092CF011092D00139
:105090008091D70081608093D70080EA8093D80008
:1050A00089B5806189BD89B5826089BD09B400FE7A
:1050B000FDCF61E070E080E090E00E9446218091A9
:1050C000D8008F7C80618093D8008091E000807F41
:1050D0008093E0008091E1008E7E8093E1008DE07E
:1050E0008093E200559A209AEEEFFFE78591949124
:1050F0008B3F9C4D19F481E08093CE0181EC80932D
:105100007C0085B1806F85B984B1877E84B984B114
:10511000876E84B95E9A5F988AB1806D8AB9769AF3
:105120006E9881B3806F81BB899880B38D7080BB8E
:1051300080E58CBD81E08DBD85E090E00E947D26FC
:105140005F9A85E090E00E947D265E985C98E1E79A
:10515000FDE18DE08E0F94919EBD00000DB407FE21
:10516000FDCF31968E13F7CF5C9A81E8809364006F
:10517000809165008160809365000E94822687FF90
:1051800024C05C9885EA8EBD00000DB407FEFDCFFB
:105190005C9A2E982F982D9880916400806280935D
:1051A000640081E083BF889513BEFCCF2D980E94D8
:1051B00082268478843871F00E948226847184313A
:1051C00029F188EC90E00E947D260E94822682FDD3
:1051D000EDCF38C02D9A88EC90E00E947D262F9864
:1051E00082E090E00E946F2A8F3F29F06FEF82E00B
:1051F00090E00E94772A84EF91E00E947D262F9A0A
:105200000E94822684788438D9F3D6CF2D9A88ECF0
:1052100090E00E947D262E9882E090E00E946F2A06
:10522000882329F060E082E090E00E94772A84EFF2
:1052300091E00E947D262E9A0E94822684718431FC
:10524000D9F3BFCF2D9A82E090E00E946F2A882385
:1052500031F03E9A3F9A81E08093BB0604C01092E1
:10526000BB063E983F98809164008E7F80936400D7
:1052700080917A00806480937A0080917A0086FD24
:10528000FCCFC0917800D09179000E94E4208E017B
:1052900020E030E0980111270027600F711F821F66
:1052A000931F611571058105910511F00E94662A11
:1052B000809164008160809364008DE08093DD05BF
:1052C00083E884BD8FEF87BD81EF809380001092CB
:1052D000880010928A001092E70511E0C0E0D0E04B
:1052E00001E08FB7F8944091BC065091BD066091E3
:1052F000BE067091BF068FBF8091DE05942F981B6C
:10530000892F9091DF05992329F08093E005109271
:10531000DF0583C09091DD05891740F48F5F891701
:1053200008F07BC013BF889513BE77C00093DF05DC
:105330004093DE058091D9059091DA05019690930E
:10534000DA058093D9058091DB058093DC050E9406
:1053500082268093DB058091E7058130E1F030F013
:10536000823009F444C0833059F157C08091E6057A
:10537000882321F01092D5051092E60563ED75E0C3
:1053800082E096E00E94402363ED75E082E096E0C3
:105390000E94792342C09091E605913021F08093DC
:1053A000D5058093E60563ED75E088EE95E00E94F3
:1053B000F92263ED75E088EE95E00E9422262DC06B
:1053C0009091E605933031F08093D5051092500608
:1053D0008093E60563ED75E08CE096E00E94A017EF
:1053E00063ED75E08CE096E00E94A21416C09091E7
:1053F000E605923031F08093D5051092080680932F
:10540000E60563ED75E085E096E00E944F1463EDDC
:1054100075E085E096E00E94BD16209709F461CF03
:105420000E9400005ECF8F929F92AF92BF92CF9268
:10543000DF92EF92FF92CF93DF93EC016881798145
:105440008A819B81611571058105910521F464E2D2
:1054500079ED8BE597E02DE133EF41E050E00E94DC
:10546000852A49015A019B01AC01A7EAB1E40E94D7
:10547000A42A6B017C01ACEEB4EFA50194010E945B
:10548000B22ADC01CB018C0D9D1DAE1DBF1DB7FFE7
:1054900003C00197A109B04888839983AA83BB837D
:1054A000BC01CD019F77DF91CF91FF90EF90DF900E
:1054B000CF90BF90AF909F908F9008950E94132A35
:1054C00008958CE091E00E94132A089560930C01E6
:1054D00070930D0180930E0190930F010895F99937
:1054E000FECF92BD81BDF89A992780B50895262FE9
:1054F000F999FECF1FBA92BD81BD20BD0FB6F894B9
:10550000FA9AF99A0FBE01960895052E97FB1EF49C
:1055100000940E949C2A57FD07D00E94B72A07FCDE
:1055200003D04EF40C949C2A5095409530952195CB
:105530003F4F4F4F5F4F08959095809570956195BF
:105540007F4F8F4F9F4F08950E94D92AA59F900D9E
:10555000B49F900DA49F800D911D11240895B7FF55
:105560000C94A42A0E94A42A821B930B0895A1E202
:105570001A2EAA1BBB1BFD010DC0AA1FBB1FEE1FCD
:10558000FF1FA217B307E407F50720F0A21BB30B18
:10559000E40BF50B661F771F881F991F1A9469F794
:1055A00060957095809590959B01AC01BD01CF01F0
:1055B0000895A29FB001B39FC001A39F700D811DEC
:1055C0001124911DB29F700D811D1124911D08950C
:1055D000991B79E004C0991F961708F0961B881F45
:1055E0007A95C9F78095089587FB082E062687FDD2
:1055F000819567FD61950E94E82A0EF4919507FC5C
:1056000081950895AA1BBB1B51E107C0AA1FBB1FB0
:10561000A617B70710F0A61BB70B881F991F5A953E
:10562000A9F780959095BC01CD010895EE0FFF1F5D
:105630000590F491E02D0994CF93DF93823091058A
:1056400010F482E090E0E091C206F091C30620E001
:1056500030E0C0E0D0E0309711F14081518148172F
:105660005907C0F04817590761F482819381209748
:1056700019F09B838A832BC09093C3068093C20644
:1056800026C02115310519F04217530718F49A0165
:10569000BE01DF01EF010280F381E02DDCCF211597
:1056A000310509F1281B390B2430310590F412968D
:1056B0008D919C9113976115710521F0FB019383E6
:1056C000828304C09093C3068093C206FD01329684
:1056D00044C0FD01E20FF31F8193919322503109E1
:1056E0002D933C933AC02091C0063091C106232BE4
:1056F00041F420911201309113013093C10620939F
:10570000C00620911001309111012115310541F49D
:105710002DB73EB74091140150911501241B350B54
:10572000E091C006F091C106E217F307A0F42E1B2A
:105730003F0B2817390778F0AC014E5F5F4F2417F5
:10574000350748F04E0F5F1F5093C1064093C006C7
:105750008193919302C0E0E0F0E0CF01DF91CF911F
:1057600008950F931F93CF93DF93009709F48CC094
:10577000FC013297138212820091C2061091C30677
:105780000115110581F420813181820F931F209131
:10579000C0063091C1062817390779F5F093C10684
:1057A000E093C00671C0D80140E050E0AE17BF07DB
:1057B00050F412962D913C911397AD0121153105AE
:1057C00009F1D901F3CF9D01DA013383228360818E
:1057D0007181860F971F8217930769F4EC01288166
:1057E0003981260F371F2E5F3F4F318320838A81F7
:1057F0009B8193838283452B29F4F093C306E09326
:10580000C20642C01396FC93EE931297ED014991A4
:1058100059919E01240F351FE217F30771F480811F
:105820009181840F951F029611969C938E9382818D
:10583000938113969C938E931297E0E0F0E0D80149
:1058400012968D919C911397009719F0F8018C0195
:10585000F6CF8D919C9198012E5F3F4F820F931F41
:105860002091C0063091C1062817390769F4309796
:1058700029F41092C3061092C20602C0138212824B
:105880001093C1060093C006DF91CF911F910F9135
:10589000089581E090E0F8940C944E2C14E1CFE14F
:1058A000D4E104C0FE010E94162B2196C032D1071C
:0658B000C9F7F894FFCFD8
:1058B600FFFFFFFF00E10000000000000100000004
:1058C6000000C406800000FB11FF000C110D001C37
:1058D600111D00C1808100000000000000741BF54E
:1058E6001B951B8A1BDB1B991BB71B00000000F8CE
:1058F6002200000000241B1B1B000000004E1AB9EA
:10590600209D149C14000000003F17B9209D149C94
:10591600140000000000000000A114A014092109D1
:105926002100000000201B131B3F23A014F9222294
:1059360026000000001E1B171B9914A0144F14BD4F
:1059460016000000001D1B151B4A14A014A017A268
:1059560014000000001F1B191B7823A01440237994
:10596600230000000000000000A114A01409210972
:0A5976002100000000211B221B008D
:00000001FF
