:100000000C9439170C9461170C9461170C946117B8
:100010000C9461170C9461170C9461170C94611780
:100020000C9461170C9461170C9461170C94611770
:100030000C9461170C9461170C9461170C94611760
:100040000C9461170C9461170C9461170C94611750
:100050000C9461170C9461170C9461170C9482290D
:100060000C9461170C9461170C9461170C94611730
:100070000C9461170C9461170C9461170C94611720
:100080000C9428280C9461170C9461170C94611738
:100090000C9461170C9461170C9461170C94611700
:1000A0000C9461170C9461170C9461179234A93465
:1000B000E734E734C83432351335D5F08D14A1C890
:1000C00081CFD9F1AF2000DC003200B801320070DE
:1000D00003320000801E002300410014006E000F58
:1000E0000055002D0000801219131514121510165A
:1000F0000F1710181219141A171B1B1C201D251E70
:10010000201F1B20162111220C230824052503265D
:1001100002270129012A022B032C052D072E0A2F65
:100120000D30113116321B332134253521361E375F
:100130001A381639123A0E3B0B3C093D083E073F70
:1001400007400741084209430B440E451246164733
:100150001A481E49214A254B224C1F4D1C4E1A4F4E
:1001600018511653155514571459145B145D155F27
:10017000166118621A631C641F65226625120F132C
:100180000B14071504160317041807190B1A171B6D
:100190001B1C201D251E201F1B20162111220C2395
:1001A00008240525032602270129012A022B032CF6
:1001B000052D072E0A2F0D30113116321B33213435
:1001C000253521361E371A381639123A0E3B0B3CAC
:1001D000093D083E073F07400741084209430B44D9
:1001E0000E45124616471A481E49214A254B224CF5
:1001F0001F4D1C4E1A4F18511653155514571459AC
:10020000145B145D155F166118621A631C641F6528
:100210002266251201130114011501160217041894
:1002200007190B1A101B171C1E1D251E201F1B2033
:10023000162111220C230824052503260227012953
:10024000012A022B032C052D072E0A2F0D30113108
:1002500016321B332134253521361E371A3816390C
:10026000123A0E3B0B3C093D083E073F0740074151
:10027000084209430B440E45124616471A481E49C8
:10028000214A254B224C1F4D1C4E1A4F1851165314
:10029000155514571459145B145D155F16611862D7
:1002A0001A631C641F65226625F8FCFCFCFC78F8C8
:1002B000FCFCFCFCFCF8F8FCFCFCFCFCB8F8FCFCCE
:1002C000FCFCF8F8FCFCFCFCD8F8FCFEFFFFFFFF90
:1002D000FFFFFEFCF801030301000001030301011D
:1002E00003030103030303030103030303010003E7
:1002F00003030301000103070F0F0F0F0F0F070385
:10030000012C0CF80404B48448F80404D41404C880
:10031000F80404D49464B84884941424F848849469
:100320001424D8F8040201F14949F1010204F8014A
:1003300002020100000102020101020201020202A6
:100340000202010202020201000202020201000195
:100350000204080908080908040201040802290522
:10036000023E09093E3F25251A1E2121123F212167
:100370001E3F2525213F0505011E21293A3F040482
:100380003F213F21001021211F3F040A313F20203F
:10039000203F02023F3F02043F1E21211E3F090968
:1003A000061E21112E3F09093622252519013F017C
:1003B000011F20201F0F10201F3F10103F3B04047F
:1003C0003B03043807312D23211E29251E223F20FF
:1003D00000322929261221251A0C0A3F0817252543
:1003E000191E252518013905031A25251A0629295C
:1003F0001EF8FCFEFFFFFFFFFFFFFFFFFFFFFFFFF9
:10040000FFFFFFFFFFFFFFFFFFFFFFFFFFFFFFFFFC
:10041000FFFFFFFFFFFFFFFFFFFFFFFFFFFFFFFFEC
:10042000FFFFFFFFFFFFFFFFFFFFFFFFFFFFFFFFDC
:10043000FFFFFFFFFFFFFFFFFEFCF8FFFFFFFFFFD7
:10044000FFFFFFFFFFFFFFFFFFFFFFFFFFFFFFFFBC
:10045000FFFFFFFFFFFFFFFFFFFFFFFFFFFFFFFFAC
:10046000FFFFFFFFFFFFFFFFFFFFFFFFFFFFFFFF9C
:10047000FFFFFFFFFFFFFFFFFFFFFFFFFFFFFFFF8C
:10048000FFFFFFFFFFFFFFFFFFFFFFFFFFFFFFFF7C
:10049000FFFFFFFFFFFFFFFFFFFFFFFFFFFFFFFF6C
:1004A000FFFFFFFFFFFFFFFFFFFFFFFFFFFFFFFF5C
:1004B000FFFFFFFFFFFFFFFFFFFFFFFFFFFFFFFF4C
:1004C000FFFFFFFFFFFFFFFFFFFFFFFFFFFFFFFF3C
:1004D000FFFFFFFFFFFFFFFFFFFFFFFFFFFFFFFF2C
:1004E000FFFFFFFFFFFFFFFFFFFFFFFFFFFFFFFF1C
:1004F000FFFFFFFFFFFFFFFFFFFFFFFFFFFFFFFF0C
:10050000FFFFFFFFFFFFFFFFFFFFFFFFFFFFFFFFFB
:10051000FFFFFFFFFFFFFFFFFF0103070F0F0F0F9D
:100520000F0F0F0F0F0F0F0F0F0F0F0F0F0F0F0FDB
:100530000F0F0F0F0F0F0F0F0F0F0F0F0F0F0F0FCB
:100540000F0F0F0F0F0F0F0F0F0F0F0F0F0F0F0FBB
:100550000F0F0F0F0F0F0F0F0F0F0F0F0F0F0F0FAB
:100560000703014A24F804FA0D05050505050505EC
:10057000050505050505050505050505050505052B
:10058000050505050505050505050505050505051B
:10059000050505050505050505050505050505050B
:1005A00005050505050505050505050DFA04F8FF12
:1005B00000FF00000000000000000000000000003C
:1005C000000000000000000000000000000000002B
:1005D000000000000000000000000000000000001B
:1005E000000000000000000000000000000000000B
:1005F000000000000000FF00FFFF00FF00000000FF
:1006000000000000000000000000000000000000EA
:1006100000000000000000000000000000000000DA
:1006200000000000000000000000000000000000CA
:1006300000000000000000000000000000000000BA
:10064000FF00FFFF00FF00000000000000000000AE
:10065000000000000000000000000000000000009A
:10066000000000000000000000000000000000008A
:10067000000000000000000000000000000000007A
:1006800000000000000000000000FF00FF01020564
:100690000B0A0A0A0A0A0A0A0A0A0A0A0A0A0A0AB9
:1006A0000A0A0A0A0A0A0A0A0A0A0A0A0A0A0A0AAA
:1006B0000A0A0A0A0A0A0A0A0A0A0A0A0A0A0A0A9A
:1006C0000A0A0A0A0A0A0A0A0A0A0A0A0A0A0A0A8A
:1006D0000A0A0A0B05020102FFFFFFFEFEFFFFFFF1
:1006E000FFFFFFFFFEFEFFC7EFFFEEFFFFFFFEFE77
:1006F000FFFFFF02003CFEFFFFFFFFFEFEFFFF1FAC
:10070000FEFCFEFFFFFEFEFFFFFFFFFFFFFEBEFF42
:10071000FFFFFFF7EF3EFEFFFFFFFF8E081F1F1FCB
:100720000F0F1F1F1F1F1F1F1F0F0F1F1F0F1F0F39
:100730001F1F1F0F0F1F1F1F08000E1F1F1F1F0F40
:10074000070F1F1F0F07070F1F1F0F0F1F1F1F0F61
:100750000F1F1F1F1F1F1F1F1F1F0E1F1F1F1F0FDA
:1007600007450D02FD0101DEDE0101FDFD0101FD78
:100770000602FDC52931AEFD0101DEDE0101FD02EB
:10078000003CC2010D1971FE0201FD11FE0402FDC3
:10079000FD0206FD0101BDBD0142BEFD0101BD1509
:1007A000E93EC2010D19718E081710100F0F1010BD
:1007B00017171010170C08171708100F1710100F25
:1007C0000F10101708000E11131610080708101745
:1007D000090704081717080C1710100F0F1010172F
:1007E0001710101717110E1113161008070304071E
:1007F000040316124A2B462B422B3F2A3C293A2748
:1008000039243820371B37163711370C380839058B
:100810003A033C023E014100440047004A004C00BC
:10082000120E372B3725371F37193713370D380876
:1008300039053A033C013E014000420044004600B5
:1008400048004A004C00130F202B22252420261B91
:1008500028162A112C0C2E083005320335023801D7
:100860003B003E004100440047004A004C00940217
:10087000320000806C0232000080440232000080AE
:1008800094023200B8013200B40032000080DC0073
:100890003200B80132007003320000800E18FEFEF4
:1008A000FCF9F7FBF93143677FFFFFFFFFFFFFFF15
:1008B000FFFFFFFFDFCE80303F7FFFFFFFFFFFFF27
:1008C000FFBFBF97C7F3F8FC01010306080406CE7B
:1008D000BC988000000000000000000000002031F3
:1008E0007FCFC08000000000000000404068380C4E
:1008F00007032A183F9FDFC3B1F9F9F3C7F1FCFEE4
:10090000FCF1C7F3F9F9F3C7F7FBFBE78FBF0F67FC
:10091000E68E3C3977FBF93143677FFFFFFFFEFF2F
:10092000FFFFFFFFFFFFFFFFFFFFFFFFFFFFFFFFD7
:10093000FFFFFFFFFFFFFFFFFFFEFFF773680C9F46
:10094000FFFFDFCE80303F7FFFFFFFFFFFFFFFFF96
:10095000FFFFFFFFFFFFFFFFFFFFFFFFFFFFFFFFA7
:10096000FFFFFFBFBF97CFEFE6E0F1BFBF97C7F331
:10097000F8FCC060203C4E06060C380E0301030E46
:10098000380C06060C38080404187040F0981971E9
:10099000C3C6880406CEBC98800000000100000099
:1009A0000000000000000000000000000000000047
:1009B000000000000000000100088C97F3600000B8
:1009C00020317FCFC0800000000000000000000048
:1009D0000000000000000000000000000000000017
:1009E000004040683010191F0E404068380C070363
:1009F00023183F9FDFC3B1F9F9F347717CFEFC7107
:100A0000477379F9F3C7F7FBFBE78FBF0F67E78FF2
:100A10003F3F7FFFFFFEFFF3F9F9F3F9FCFEFEFE17
:100A2000FCFEFEFFFFFEFCF9FDFCFCF8C1D39F1F9E
:100A30003EFFF773680C9FFFFFFFFFFFFFFFFFFF05
:100A4000FFFFFFFFFFFFFFFFFFFFFFBF7F7F3FBBFA
:100A500093C5FCBEBF97CFEFE6E0F1C060203C4EEF
:100A600006060CB88E8301038EB88C86060C3808F7
:100A70000404187040F0981870C0C0800000010095
:100A80000C06060C0603010101030101000001032D
:100A900006020303073E2C60E0C100088C97F36058
:100AA0000000000000000000000000000000000046
:100AB00000000000408080C0446C3A034140683030
:100AC00010191F0E1E18FFFFFFFFE77373E77399DE
:100AD000CCECCC19EDF4F6660CB9B33B3979F18363
:100AE000A73F3F7FBFBF9FA7B09ECFE69C3F7F3F02
:100AF0009F7FFFFFFF7E3F8FEF67F0F87F77278BA9
:100B0000F8FCFFFF3F7FFFFF7FFFFFFF3F7FFFFFFF
:100B10007EFEFEFF3F7FFFFF7EFEFEFF3F7FFFFF6B
:100B200000000000188C8C188C66331333E6120B0F
:100B30000999F3464CC4C6860E7C58C0C08040401C
:100B400060584F61301963C080C060800000008130
:100B5000C07010980F078088D874070300E0204009
:100B60008080008000E020408080018101E0204002
:100B70008080018101E0204080801810FFFFFFFF8E
:100B80001FCFEFDF8FF3F9FDF9E3FDFEFECCE1F7B8
:100B9000F7E7070FF7F7F3F4F6F3F9FCF3E7EFE7FE
:100BA000F3EFDFDFDFEFE7F1FDFCFEFF0000000009
:100BB000E0301020700C0602061C020101331E08F2
:100BC0000818F8F008080C0B090C06030C1810188C
:100BD0000C1020202010180E0203010018BCFEFF8C
:100BE000FFFEFCFEFFFFFEBC1803070F1F1F0F07D1
:100BF0000F1F1F0F07030D0D18A4422151EAF4E245
:100C0000418142A418030408101008050A111008B5
:100C10000403008080C0C0C0FFFFFFFFFFFFFFFF95
:100C2000FFFFFFFFFFFFFFFFFFFFFFFFFFFFFFFFD4
:100C3000FFFFFFFF80C1C3C3E3E3FFFFFFFFFFFF31
:100C4000FFFFFFFFFF7FFFFFFFFFFFFFFFFFFFFF34
:100C5000FFFFFFFFFFFFC0E0E1E1E1E1FFFFFFFF7A
:100C6000FFFFFFFFFFFFFF3F7F7F7FFFFFFFFFFFD4
:100C7000FFFFFFFFFFFFFFFF000000000000FFFF7E
:100C8000FFFFFFFFFFFFFFFFFF0000000000000F5E
:100C90001F3F7FFFFFFFFFFFFFFF114000808040ED
:100CA0004040BF8040DFDF10D7EAEA6D75FF00F6F5
:100CB000F77B787B7A393D3D3E3E3E1E1F1F8041CB
:100CC0004242A222BEA2A2BE9E10D6D4D5E8EA7F9E
:100CD000803B3B3B383B393D3D3D3C3D3D3D3D3D13
:100CE000C020A1A1A121BFA1A1BCBE20AEA8AAA8DD
:100CF000AA3F405D5DBDBC3B3A3A7B7B78F7F7F796
:100D0000F7F7000000000000FF0101FAF4FAF4F820
:100D1000F4E8F10000000000000F1020478F3F7F33
:100D2000FFFFFFFFFFFFFFFFFFFFFFFFFFFFFFC012
:100D3000C0C0808000FFFFFFFFFFFFFFFFFFFFFF3E
:100D4000FFFFFFFFFFFFFFFFFFFFFFFFFFFFFFFFB3
:100D5000FFE3E3C7C7C381FFFFFFFFFFFFFFFFFF05
:100D6000FFFFFFFFFFFFFF7FFFFFFFFFFFFFFFFF13
:100D7000FFFFFFE1E1E1E1E0C0FFFFFFFFFFFFFF59
:100D8000FFFFFFFFFFFFFFFF7F3FFFFFFFFFFFFFB3
:100D9000FFFFFFFFFF010100000000FFFFFFFFFF5B
:100DA000FFFF7F3F1F070000000000001140756D2E
:100DB000EAEAD710DFDF4080BF4040408080001F5C
:100DC0001F1E3E3E3E3D3D397A7B787BF7F600FFA5
:100DD000EAE8D5D4D6109EBEA2A2BE22A2444442C6
:100DE000813D3D3D3D3D3C3D3D3D393B383B3B3B01
:100DF000807FAAA8AAA8AE20BEBCA1A1BF21A1A1A4
:100E0000A120C0F7F7F7F7F7787B7B3A3A3B3C3DF8
:100E10009D9D403FF1E8F4F8F4FAF4FA0101FF0176
:100E20000100000000FFFFFFFF7F3F8F47201007FA
:100E3000000000000000800DFFFFFFFFFFFFFFFF2D
:100E4000FFFFFFFFFFFFFFFFFFFFFFFFFFFFFFFFB2
:100E5000FFFFFFFFFFFFFFFFFFFFFFFFFFFFFFFFA2
:100E6000FFFFFFFFFFFFFFFFFFFFFFFFFFFFFFFF92
:100E7000FFFFFFFFFFFFFFFFFFFFFFFFFFFFFFFF82
:100E8000FFFFFFFFFFFFFFFFFFFFFFFFFFFFFFFF72
:100E9000FFFFFFFFFFFFFFFFFFFFFFFFFFFFFFFF62
:100EA000FFFFFFFFFFFFFFFFFFFFFFFFFFFFFFFF52
:100EB000FFFFFFFFFFFFFFFF1F1F1F1F1F1F1F1F42
:100EC0001F1F1F1F1F1F1F1F1F1F1F1F1F1F1F1F32
:100ED0001F1F1F1F1F1F1F1F1F1F1F1F1F1F1F1F22
:100EE0001F1F1F1F1F1F1F1F1F1F1F1F1F1F1F1F12
:100EF0001F1F1F1F1F1F1F1F1F1F1F1F1F1F1F1F02
:100F00001F1F1F1F1F1F1F1F1F1F1F1F1F1F1F1FF1
:100F10001F1F1F1F1F1F1F1F1F1F1F1F1F1F1F1FE1
:100F20001F1F1F1F1F1F1F1F1F1F1F1F1F1F1F1FD1
:100F30001F1F1F1F1F1F1F1F800DFEBEBEBEBEBE78
:100F4000BEBABABA3A3ABABA9A8AAAA2B2B2BAB887
:100F5000B8BABABEBEBEBEBEBEBEBEBEBEBEBEBEBF
:100F6000BEBEBEBEBEBABABABA3A1A8AA2B0B8BA41
:100F7000BABEBEBEBEBEBEBEBEBEBEBEBEBEBEBE95
:100F8000BEBEBEBEBEBEBEBEBABAB8A0021ABABA15
:100F9000BABABABEBEBEBEBEBEBEBEBEBEBEBEBE7D
:100FA000BEBEBEBEBEBEBEBABABABAB8B8B8B0A2AD
:100FB000820A1A3ABABABABABABA1F1F0717131B6B
:100FC000191D1C1E1F1F1F1F1F1F1F1F1F1F1F1F3D
:100FD0001F1F1F1F1F1F1F1F1F1F1F1F1F1F1F1F21
:100FE0001F1F1F1F1F1F07111C1E1F1F1F1F1F1F3B
:100FF0001F1F1F1F1F1F1F1F1F1F1F1F1F1F1F1F01
:101000001F1F1F1F1F1F1F1F1F1F1F1F1F1C10031E
:101010000F1F1F1F1F1F1F1F1F1F1F1F1F1F1F1FF0
:101020001F1F1F1F1F1F1F1F1F1F1F1F1F1F1F1FD0
:101030001F1F1E181001030F1F1F7A0BC40AF0098F
:10104000F2089C08F8FFFFFEFCFCFCFC0303030312
:1010500003030303080A28070922142408040101D2
:10106000020101010101F0F8FCFEFFFFFFFF07078D
:10107000FFFFFFFFFFFFFFFF000001030707070758
:10108000070700000A13F008F412B535E505010161
:10109000FF00EF08288CEF000000010205050505A0
:1010A000010000003C3E3F3F3F3E3C07063C023D06
:1010B0000105023C3C0205013D023C0000000080AD
:1010C000C0E0E0E0E0E0E0E0E0E0E0E0E0FCFEFFE7
:1010D000FFFFFEFCC080000000000000FEFFFFFFDD
:1010E000FFFFFFFFFFFFFFFFFFFFFFFFFFFFFFFF10
:1010F000FFFFFFFFFFFFFCF8000000FFFFFFFFFF07
:10110000FFFFFFFFFFFFFFFFFFFFFFFFFFFFFFFFEF
:10111000FFFFFFFFFFFFFF00060F0F1F1F1F3F7F97
:101120007F7F7F3F1F1F1F1F1F1F1F1F3F7F7F7F4F
:101130007F3F1F1F1F0F071F1F000000008040A0E0
:10114000A0A0A0A0A0A0A0A0A0A0A0BC828581BDBE
:10115000823C4080000000000000FE01FC85FD0193
:10116000FF03FDBDDDEDBD9D85FD03FF0305BDDD79
:10117000AD3C380304F8000000FF0082B24ABBBB5C
:10118000BBBA7AFACACE8686CECBFB7BBABABAB2E3
:101190006AE2EA00FF0006090A16111623414C44D0
:1011A0004123161113131313111623414C444123E9
:1011B0001611170807F8FCFEFFFFFFFFFFFFFFFFF8
:1011C000FFFFFFFFFFFFFFFFFFFFFFFFFFFFFFFF2F
:1011D000FFFFFFFFFFFFFFFFFFFFFFFFFFFFFFFF1F
:1011E000FFFFFFFFFEFCF8FFFFFFFFFFFFFFFFFF1A
:1011F000FFFFFFFFFFFFFFFFFFFFFFFFFFFFFFFFFF
:10120000FFFFFFFFFFFFFFFFFFFFFFFFFFFFFFFFEE
:10121000FFFFFFFFFFFFFFFFFF070F1F3F3F3F3FA6
:101220003F3F3F3F3F3F3F3F3F3F3F3F3F3F3F3FCE
:101230003F3F3F3F3F3F3F3F3F3F3F3F3F3F3F3FBE
:101240003F3F3F3F3F3F3F3F1F0F07321600F8042D
:10125000F20A0A0A0A0A0A4ACACA4ACA8A0A4ACAC6
:10126000CA0A0ACACA0ACACA0A8ACA4ACA8A0A4A1E
:10127000CACA4ACA0A0A0A0A0A0A0AF204F8000092
:10128000FF00FF00000000000080FFFF880F0380C8
:10129000FE27FFF8803FFF80FF3F0043C78EFC78AA
:1012A0000080FFFF84CE00000000000000FF00FF70
:1012B0000000070813141414141414141414141430
:1012C00014141414141414141414141414141414DE
:1012D00014141414141414141414141414141413CF
:1012E000080700F8FCFEFFFFFFFFFFFFFFFFFFFF07
:1012F000FFFFFFFFFFFFFFFFFFFFFFFFFFFFFFFFFE
:10130000FFFFFFFFFFFFFFFFFFFFFFFFFFFFFFFFED
:10131000FFFFFFFFFFFFFFFFFFFFFFFFFFFFFFFFDD
:10132000FEFCF8FFFFFFFFFFFFFFFFFFFFFFFFFFD8
:10133000FFFFFFFFFFFFFFFFFFFFFFFFFFFFFFFFBD
:10134000FFFFFFFFFFFFFFFFFFFFFFFFFFFFFFFFAD
:10135000FFFFFFFFFFFFFFFFFFFFFFFFFFFFFFFF9D
:10136000FFFFFF070F1F3F3F3F3F3F3F3F3F3F3FD5
:101370003F3F3F3F3F3F3F3F3F3F3F3F3F3F3F3F7D
:101380003F3F3F3F3F3F3F3F3F3F3F3F3F3F3F3F6D
:101390003F3F3F3F3F3F3F3F3F3F3F3F3F3F3F3F5D
:1013A0001F0F07401600F804F20A0A0ACA4ACACAFE
:1013B0000A0A4ACACA0A0A4ACACA0ACACA4A4ACA4D
:1013C000CA4ACA0A0A0A0A0ACA4ACA0A4ACACA0A3D
:1013D000CA4A4ACACA4ACA0A4ACACA4ACA8A0A0A6D
:1013E0000AF204F80000FF00FF00003FFF807CFDD0
:1013F0000480FE27FFF88080FF1F0EFFFF8080FF24
:10140000FF84CE000000003FFF80FF3F0003FFFC91
:10141000070080FFFF84CE0080FFFF08FFF38000FD
:1014200000FF00FF00000708131414141414141410
:10143000141414141414141414141414141414146C
:10144000141414141414141414141414141414145C
:10145000141414141414141414141414141414144C
:10146000141308070004087EFF817E82FEFF80C6F9
:10147000A19FCE6689FF7638ACFFB06F89F9707E88
:10148000FF857883F1FD83768D99761EBFA17E1846
:101490001AFFFFFFFFFFFFFFFFFFFFFFFFFFFFFF41
:1014A000FFFFFFFFFFFFFFFFFFDFDFDFDFDF5F5F2C
:1014B0005F5F1F1F1F1F5F5F5F5F5F5F5F5F5F5F3C
:1014C0005FF7F7F7F7F7F7F7F7F7F7F7F7F6F4F04F
:1014D000E1C307173777F7F7F703030303030303A2
:1014E00003030303030303030303030200000103D5
:1014F00003000000000000000000000000000000E9
:10150000000000000000000000C0C0C0C0C040409B
:1015100040400000000040404040404040404040CB
:1015200040F7F7F7F7F7F7F7F7F7F7F7F7F6F4F00D
:10153000E1C307173777F7F7F70303030303030341
:101540000303030303030303030303020000010374
:1015500003F8FFFFFEFCFCFCFC030303030303038F
:1015600003080A28070922142408040101020101C2
:101570000101010000000070F8FCFEFEFFFFFEFC10
:1015800060000000000000000000000000000000FB
:1015900060FCFEFFFFFEFEFCF87000000000008013
:1015A000800082C7E7FFFFFFFFFFFEFCFCFC38382E
:1015B000383838383838B8B838FCFCFCFFFFFFFF43
:1015C000FFFFC7870200000000070F1F1F0F070162
:1015D0000100040E1F3F3F1B01000000000000003F
:1015E00003070F1F0F0701000000000F1F1F1F1E22
:1015F0000C0000000000000070F8FCFEFEFFFFFE83
:10160000FC6000000000000000000000000000007E
:101610000060FCFEFFFFFEFEFCF870000000000012
:1016200000000002C7E7FFFFFFFFFFFEFCFCFC38E5
:10163000B8B838383838383838B8FCFCFCFFFFFF09
:10164000FFFFFFC78702808000000000000C1E1F04
:101650001F1F0F0000000001070F1F0F07030000EE
:1016600000000000011B3F3F1F0E04000101070F97
:101670001F1F0F07002B16000000007088040216C1
:101680000141229C600000000000000000000000FA
:1016900000000000609C22410116020488700000D6
:1016A0000000008080008245243E808080913224AA
:1016B00044C42828282828282828A8A828C444243E
:1016C00093918080003E44850200000000070810CE
:1016D000110806010100040A1121241A010000006A
:1016E0000000000003040811080601000000000FBC
:1016F000101213120C000000000000007088040299
:10170000160141229C600000000000000000000063
:101710000000000000609C22410116020488700055
:101720000000000000000002C5243E00808091B24D
:101730002444C428A8A828282828282828A84444BD
:101740002493918080003E44850280800000000048
:10175000000C121312100F000000000106081108FF
:101760000403000000000000011A2421110A0400F3
:1017700001010608111008070021080F0F080800D2
:1017800006090B06000E03030E000F090F06000FDB
:101790000F000F02030F000E0F090D000E10BEBD4B
:1017A000BEBDBEBDBEBDBEBDBEBDBE00000400040C
:1017B000000400040004000400004E080F0D07029E
:1017C000000F050F0A000F0D0900020B0D00020BA0
:1017D0000D00000000000F0D0702000F0F080800A9
:1017E0000E03030E00030E0E0300000006090B0695
:1017F000000F02030F00000000010F0F010E030392
:101800000E000F0D0702000F0D090E10A7C7A7C786
:10181000A7C7A7C7A7C7A7C7A7000707070707073F
:10182000070707070707070024080E1F1F1F0E00E2
:10183000000000000000000000001F0E0400000077
:10184000000000000000040E1F00040E1F009302A1
:101850003C0100005300DC033C010000530027055D
:101860003C0100005300DC039E0000002900270516
:101870009E000000290093023C0100005300DC039D
:10188000900127053C010000E30193023C010000A8
:101890005300DC033C010000530027053C0100001D
:1018A0005300DC039E000000290027059E00000075
:1018B000290093023C0100005300DC03900127053E
:1018C0003C010000E3012A023C01000053003F03F9
:1018D0003C010000530055043C01000053003F034D
:1018E0009E000000290055049E00000029002A02E5
:1018F0003C01000053003F03900155043C010000EF
:10190000E3012A023C01000053003F033C010000B8
:10191000530055043C01000053003F039E000000AB
:10192000290055049E00000029002A023C01000005
:1019300053003F03900155043C010000E301008087
:101940000F08C1F7C1FFC1D5FFC1DFFFC1F5FBFF24
:10195000D1C0E0E0F0F0F0F0F8FCFEFF7F7FFEFC8D
:1019600060000101070707070707070704000000D9
:1019700000100BC0202010D0D0501804028161410B
:10198000829C6000010107010000000400030400C4
:10199000000000F8FCFCFCFC78F8FCFCFCFCFCF80B
:1019A000F8FCFCFCFCFCB8F8FCFCFCFCF8F8FCFCCB
:1019B000FCFCD8F8FCFEFFFFFFFFFFFFFEFCF80178
:1019C00003030100000103030101030301030303F7
:1019D00003030103030303010003030303010001E5
:1019E00003070F0F0F0F0F0F0703012C0CF8040450
:1019F000B48448F80404D41404C8F80404D49464E7
:101A0000B84884941424F84884941424D8F8040220
:101A100001F14949F1010204F8010202010000014B
:101A2000020201010202010202020202010202029A
:101A30000201000202020201000102040809080872
:101A4000090804020129100040A05000CF01210123
:101A5000FFFF000000800000FFFFFF00000000000B
:101A6000BFBF1F00004040E0F8FFFF00A854A8508F
:101A7000AA55AA5500FFFFFFFFFFFF00AA55AA5570
:101A800000FFFFFF00AA55AA00FFFFFF0054AA5461
:101A9000A803FFFF00AA55AA55A050A04000CF01FF
:101AA0002101FFFF00A050A04000FFFFFF00A05059
:101AB000A000BFBF1F40005040E0F8FFFF00A05053
:101AC000A040AA55AA5500FFFFFFFFFFFF00AA553F
:101AD000AA5500FFFFFF00AA55AA00FFFFFF00550F
:101AE000AA55A803FFFF00AA55AA558040A04000B0
:101AF000CF012101FFFF00A854A85000FFFFFF0005
:101B0000A854A800BFBF1F00004040E0F8FFFF003E
:101B1000A854AA54AA55AA5500FFFFFFFFFFFF00D3
:101B2000AA55AA5500FFFFFF00AA55AA00FFFFFF14
:101B30000054AA54A803FFFF00AA55AA55F8FCFEBA
:101B4000FFFFFFFFFFFFFFFFFFFFFFFFFFFFFFFFA5
:101B5000FFFFFFFFFFFFFFFFFFFFFFFFFFFFFFFF95
:101B6000FFFFFFFFFFFFFFFFFFFFFFFFFFFFFFFF85
:101B7000FFFFFFFFFFFFFFFFFFFEFCF8FFFFFFFF80
:101B8000FFFFFFFFFFFFFFFFFFFFFFFFFFFFFFFF65
:101B9000FFFFFFFFFFFFFFFFFFFFFFFFFFFFFFFF55
:101BA000FFFFFFFFFFFFFFFFFFFFFFFFFFFFFFFF45
:101BB000FFFFFFFFFFFFFFFFFFFFFFFFFFFFFFFF35
:101BC000FFFFFFFFFFFFFFFFFFFFFFFFFFFFFFFF25
:101BD000FFFFFFFFFFFFFFFFFFFFFFFFFFFFFFFF15
:101BE000FFFFFFFFFFFFFFFFFFFFFFFFFFFFFFFF05
:101BF000FFFFFFFFFFFFFFFFFFFFFFFFFFFFFFFFF5
:101C0000FFFFFFFFFFFFFFFFFFFFFFFFFFFFFFFFE4
:101C1000FFFFFFFFFFFFFFFFFFFFFFFFFFFFFFFFD4
:101C2000FFFFFFFFFFFFFFFFFFFFFFFFFFFFFFFFC4
:101C3000FFFFFFFFFFFFFFFFFFFFFFFFFFFFFFFFB4
:101C4000FFFFFFFFFFFFFFFFFFFFFFFFFFFFFFFFA4
:101C5000FFFFFFFFFFFFFFFFFFFFFFFFFFFFFFFF94
:101C6000FFFFFFFFFFFFFFFFFFFFFFFFFFFFFFFF84
:101C7000FFFFFFFFFFFFFFFFFFFFFFFFFFFFFFFF74
:101C8000FFFFFFFFFFFFFFFFFFFFFFFFFFFFFFFF64
:101C9000FFFFFFFFFFFFFFFFFFFFFFFFFFFFFFFF54
:101CA000FFFFFFFFFFFFFFFFFFFFFFFFFFFFFFFF44
:101CB000FFFFFFFFFFFFFF000103070707070707FD
:101CC00007070707070707070707070707070707A4
:101CD0000707070707070707070707070707070794
:101CE0000707070707070707070707070707070784
:101CF0000707070301003F33F804FA0D05E5E52562
:101D000025252525252525252525E52525252525C3
:101D1000252525E525252525252525252525256573
:101D2000E5E5E5E52525252525252525252525E5A3
:101D3000E5E5050DFA04F8FF00FF0000FFFFFF00D6
:101D40000000000000FF1F1C18F8FF00000000004A
:101D500000FFFFFF0000000000FFFFFF0000000089
:101D60000083FFFF000000000000FFFF3F38F8FF86
:101D7000FF0000FF00FFFF00FF0000FFFFFF00006B
:101D800000000000FCF0F0F0FFFF00000000000089
:101D9000FFFFFF0000000000FBFBF1000004040E49
:101DA0003FFFFF000000000000FDFDE0E0FFFFFF3F
:101DB0000000FF00FFFF00FF0000FFFFCFC0C0C01A
:101DC000C0C0404F7F7F7F7F4FC0C0C04040404F6A
:101DD000FFCF4040C0C0C04F7F7FE0404040404008
:101DE000FFCFC040404040C0CFCFC7C0F0FFFF0092
:101DF00000FF00FFFF00FF0000FFFF9F2F37470F8E
:101E00009FFF0000007F7F0080C1FF03FC000001F6
:101E1000FFFF00C0030F3F0000FFFF000000FFFFB7
:101E2000030000FFFEF89F2F37470F9FFFFF0000C2
:101E3000FF00FFFF00FF80003F3F3F3F3E3E3F3F30
:101E40002F2020202F3F3F3F2F202D3D2D202020D1
:101E50002F202F3F3C3020203F2F2020202F3F3CA1
:101E600030202F27333F3F3E3E3F3F3F3F0080FF24
:101E700000FF000102050505050505050505050529
:101E80000505050505050505050505050505050502
:101E900005050505050505050505050505050505F2
:101EA00005050505050505050505050505050201E9
:101EB00000010204081020408094023200B8013270
:101EC00000B4003200008000FCFEFFFFFFFFFFFFB8
:101ED000FFFFFFFFFFFFFFFFFFFFFFFFFFFFFFFF12
:101EE000FFFFFFFFFFFFFFFFFFFFFFFEFC00103FB4
:101EF0007FFFFFFFFFFFFFFFFFFFFFFFFFFFFFFF72
:101F0000FFFFFFFFFFFFFFFFFFFFFFFFFFFFFFFFE1
:101F1000FFFF7F3F10271000FC02010101010101BA
:101F200001010101010101010101010101010101A1
:101F3000010101010101010101010102FC00102F59
:101F400050A0A0A0A0A0A0A0A0A0A0A0A0A0A0A0E1
:101F5000A0A0A0A0A0A0A0A0A0A0A0A0A0A0A0A081
:101F6000A0A0502F100000000000C0E0F0F0E0C082
:101F70000000000000000000000001030301000059
:101F800000000000000080E0F0F8F8F8F0E0C00089
:101F90000000000000010307070F0F070301000006
:101FA00000C0E0F8FCFEFEFFFFFFFFFEFEFCF8F0C5
:101FB00003070F1F1F3F7F7F7F7F3F1F0F0301001E
:101FC00080D8FCFE7E3F1E0C9C3E7F3F9E0C03078C
:101FD0000F1F1F0F0E1E3F7F3F1E0D0301000C9EA3
:101FE000BF3F1E0400040E1F3F3F1E0C060F1F3F85
:101FF0001F0E0400081C3E7F3F1E0C0002070F0648
:102000000000000000070F1F1E1C0E1E3E3C380083
:1020100000000010387C38100002070200000000A9
:102020000000000002070E04081C38100000000029
:10203000000000002070200F0F0000000000C020F2
:10204000D0D020C00000000000000000000001020D
:1020500002010000000000000000000000C020207D
:10206000C0000000000000000000000000010100AE
:102070000000000000000000806090E8E8C8D02068
:10208000C0000000000000010205050B0B05020165
:1020900000000000000000806010103020C0000030
:1020A0000000000000000102020404020100000020
:1020B00000C020D8E4DAFAFDFDFDF5FAFAF408F0E4
:1020C00003040B17172B5F5F5F5E2D130D020100DA
:1020D000C0201824040202020A040408F0000003CD
:1020E0000408081420202021120C0201000080584E
:1020F00064DA5A2D120C942A5D2D920C03040B17EE
:1021000016090E122D5E2D120D020100008098247A
:1021100024120C00081422120C0000030408090603
:10212000000C1221120C000100000C92AD251A04C3
:1021300000040A152D2D120C0609162E150A04008E
:1021400008142A5D2D120C00000C121A0400000065
:10215000040A12120C00000609110A04000000080B
:102160001422120C000002050906000000000006FF
:102170000915120C0C122A243800000000102854F3
:102180002810000002070F060000000000060F1FC5
:102190001E0C0C1E3E3C380000000010387C38102D
:1021A00000020502000000000000000002070E040B
:1021B000081C381000000000000000002070200003
:1021C00002000000000000000000000204000008FF
:1021D00010000000000000000000002000000000CF
:1021E00000000000000000000000FCFEFFFFFFFFF9
:1021F000FFFFFFFFFFFEFCF8E0C00080F8FCFEFFE1
:10220000FFFFFFFFFFFFFFFFFFFFFFFFFFFFFFFFDE
:10221000FFFFFFFFFFFFFFFF8007070F0F0F1F3FAD
:102220003F3F3F1F0F0F0F0F0F0F0F0F1F3F3F3F7E
:102230003F1F0F0F0F07030080C0C0C0C0E0F0E0D9
:10224000E0C0C0C0C0C0C0C0C0C0C08000000000AE
:10225000000000000000F8FDFFFFFFFFFFFFFFFF91
:10226000FFFFFFFFFFFFFFFFFFFFFFFEFEFEFCF88B
:10227000F0E0800003070F0F1F3F3F3F3F1F0F0F8E
:102280000F0F0F0F0F0F0F1F3F3F3F3F1F0F0F0786
:10229000031E180000000000000000000000000005
:1022A000FC022501FDFD1DED2D2D29A2C41820C025
:1022B00000807804D255B5D55555D5B575F5F5F0EE
:1022C000F7F0FF7FB8D75456D7B571F0807F8007FD
:1022D000040B080B1120262220110B0809090909FB
:1022E000080B1120262220110B080B04030080404C
:1022F00040404060502020404040404040404040EE
:10230000408000000000000000000000F8054224AA
:1023100092D05052D69006366666767676723082C5
:10232000C55252D2B428106080000304080B11205B
:10233000262220110B0A0A0A0A0A0A0A0B11202671
:102340002220110B0904033C7EFFFFFFFF7E3C00AF
:102350003C7EFFFF7E3C0000003CFFFF3C00000095
:102360003C7EFFFF7E3C0008083C42BDADA5BD425F
:102370003C003C42BDAD423C0000003CFFC33C0081
:1023800000003C42A5BD423C0010080303030303C8
:102390000303030303030303030303FFFFFFFEFC25
:1023A000FCFCFCFFFFFFFEFCFCFCFC03030303033F
:1023B0000303030303030303030303100A108E92B2
:1023C00084A8889088108E9284A88890880302023E
:1023D00002020202020302020202020202000000E2
:1023E00000000000000000000000000000000000ED
:1023F000000000FEFEFEFEFEF8F8F8F8F8FEFEFE15
:10240000FEFEFEFEFEFEFEFEF8F8F8F8F8FEFEFE0A
:10241000FEFE0000000000000000000000000000C0
:102420000000000000F8FCFCFCFCFCFCFCFCFCFCDC
:10243000000000FFFFFFFFFFFFFFFFFFFFFFFFFFA9
:10244000FFFFFFFFFFFFFFFFFFFFFFFFFFFFFFFF9C
:10245000FFFF00000000000000000000000000007E
:102460000000000080C3E7F7FFFFFFFFFFFFFFFF53
:10247000F0F0F0FFFFFFFFFFFFFFFFFFFFFFFFFF99
:10248000FFFFFFFFFFFFFFFFFFFFFFFFFFFFFFFF5C
:10249000FFFF00000000000000000000000000003E
:1024A000000000000000000000000000000000002C
:1024B000000000000000000000000000000000001C
:1024C000000000000000000000000000000000000C
:1024D00000000000000000000000000000401C00A0
:1024E00000000000000000000000000000000000EC
:1024F000000000000000FCFCFC0090901090900098
:10250000FCFCFCECC4ECFCFCFC00909010909000F7
:10251000FCFCFC00000000000000000000000000C7
:102520000000000000000000F0080848E848080823
:10253000F80000000000FFFFFF00F77300F77300D2
:10254000FFFFFFFFABFFFFFFFF00F77300F7730014
:10255000FFFFFF000000000000000000000000007E
:102560000000000000000080C1E272BA5AAA52AA1C
:1025700053A040A040A0FFFFFF00DECEC0DECE0093
:10258000FF0BFF02E202FF0BFF00DECEC0DECE003B
:10259000FFFFFF000000000000000000000000003E
:1025A000000000000000000000000000000000002B
:1025B000000000000000000000000000000000001B
:1025C000000000000000000000000000000000000B
:1025D00000000000000000000000000000000000FB
:1025E000000000000000000018FCFEFEFEFEFEFEE3
:1025F000FEFEFEFC98C0C0C0C0C0C0C0C0D8FCFE7B
:10260000FEFEFEFEFEFEFEFEFC98C0C0ECFEFFDEFF
:10261000C8C0C08000000000000000000000006092
:10262000F0F8FCFEFFFFFEFCE0FFFFFFFFFFFFFFF7
:10263000FFFFFFFFFFFFFFFFFFFFFFFFFFFFFFFFAA
:10264000FFFFFFFFFFFFFFFFFFFFFFFFFFFFFFFF9A
:10265000FFFFFFFF0300000000000000000000007B
:10266000000103FFFFFFFFFFFFFFFFFFFFFFFFFF73
:10267000FFFFFFFFFFFFFFFFFFFFFFFFFFFFFFFF6A
:10268000FFFFFFFFFFFFFFFFFFFFFFFFFFFFFFFF5A
:10269000FFFFFFFF0000000000000000000000003E
:1026A000000000000000000000000000000000002A
:1026B000000000000000000000000000000000001A
:1026C000000000000000000000000000000000000A
:1026D00000000000000000000000000000000040BA
:1026E0001C0000000000000000000008E414D454A6
:1026F00014D45414E408008080808080808080801E
:1027000008E414D45414D45414E40800808080AC39
:10271000928880808000000000000000000000001F
:1027200000002050A854AA54A8408000FF00D6D230
:1027300010D6D200FF0001FC02DA4A02DA4A02FC9B
:1027400001FC00D6D210D6D200FF0001FC02DA4A0A
:1027500002DA4A02FC010000000000000000000054
:10276000000000000001F60600050E00FF00FE0656
:102770000206FE00FF0000FF00FAFA02FAFA00FF6C
:1027800000FF00FE060206FE00FF0000FF00FAFA4E
:1027900002FAFA00FF000000000000000000000044
:1027A0000000000000000000000000000000000029
:1027B0000000000000000000000000000000000019
:1027C0000000000000000000000000000000000009
:1027D00000000000000000000000000000000000F9
:1027E0000080C0E0F0E0C4CEFFFFFFFFCEC4E0F009
:1027F000E0C08003173F7FFFFFFFFFFFFFFFFFFFEA
:10280000FF7F3F17030000000000010100000000EF
:102810000101000000000000000000C0E4CEFFFF46
:10282000FFFFCEE4C0000000000000001FBFFFFF5C
:10283000FFFFFFFFFFFFBF1F0000000000000000C0
:102840000101000000000101000000000000000084
:1028500000C0E4CEFFFFFFFFCEE4C0000000000098
:1028600000000087DFFFFFFFFFFFFFDF87000000A2
:102870000000000000000101000000000101000054
:10288000000000000000000004CEFFFFFFFFCE04A8
:1028900000000000000000000080D8FDFFFFFFFFE7
:1028A000FDD88000000000000000000001010000D1
:1028B00000000101000000000012118040A0102063
:1028C000C4CA35151535CAC42010A0408002152889
:1028D00051C65865BA8181BA6558C651281502009B
:1028E00000000000010100000000010100000000E4
:1028F0000000000000C024CA35151535CA24C000E8
:102900000000000000001FA05865BA8181BA655818
:10291000A01F0000000000000000010100000000F6
:102920000101000000000000000000C024CA3515AD
:102930001535CA24C000000000000000008758655B
:10294000BA8181BA655887000000000000000000CD
:102950000101000000000101000000000000000073
:10296000000004CA35151535CA0400000000000037
:10297000000000805865BA8181BA65588000000067
:102980000000000000000101000000000101000043
:102990000000003E7F3E7F3E7F7F3E7F7E3E7F3F4A
:1029A0000E2E7F2E11073E4136413E41553E415E7F
:1029B0003E41350A2E512EC0E0E0F0F0F0F0F8FC78
:1029C000FEFF7F7FFEFC6000010107070707070786
:1029D00007070400000000100BC0202010D0D050CA
:1029E000180402816141829C60000101070100001E
:1029F0000004000304000000000E0E0E1F1F1F1F26
:102A00001F1F0E0E0E001C1F1F1F1F1F1F1F1F0743
:102A10000000071F1F1F1F1F1F1F1F1C000C050E7C
:102A20000A0E1F151F1F151F0E0A0E000400000AB4
:102A300000000A00000400001C171D1F171D1F17AF
:102A40001D07000000080200080200080200000044
:102A5000071D171F1D171F1D171C0000000208006F
:102A600002080002080000C0E0E0F0FCFEFFFFFFEB
:102A7000FEFFF6F8F0F060003179797D3F0F0F0F1F
:102A80000F07070F1E0F060E1F1FFEF8F0FFFFFFB8
:102A9000FFFCF8F8F0E000000010397F7F2F3F7F47
:102AA0007F3F0B0707020030F8BCF8F0F0F8F8F8A9
:102AB000F8FEDFCFCFC6800307070F377F3F7F7F4A
:102AC0007F3F1F07030301A0F0F0E8FEFFFFFEFABF
:102AD000FFFFCE0400000003070F0F1F7F7F7F7FE3
:102AE000070F3F7C7C38000030F8FCFEFEFEFC7EC9
:102AF0003CF8F8F0C00000163F3F1F0F1F3F3F3F5C
:102B00003F1F1F1F1F1F0E00C6EFFEFFFFFEFCFC36
:102B1000FEFEFCF870000000033F7F7F7F3F3C3DDE
:102B20001F1F0F03010000387CFCFCFCFC7E7EFEB6
:102B3000FEFCF8FCFE7E34000001070F0F1E3F1F55
:102B40003F3F3F1F0F06000040E0F8FCFCDE9EFE0A
:102B5000FFFFFFFEE0000000070F1F3F3F1F1F3F6A
:102B60007F7F3F7B310000100FC02020107CC2818E
:102B700009191A6936889090600031494945320A2E
:102B80000808080505091209060E1111E608300F9C
:102B900031190B8CC80810E0000000102946502E97
:102BA000384346350B0405020030C8A4C85050080D
:102BB0000808A8A6514949468003040408364B2D4D
:102BC0004C4840211F04020201A05010E8D6316198
:102BD0000E3A0531CA040000000304080918684CC5
:102BE0004678060833444438000030C88402022284
:102BF000B4523CC80830C000001629241E0810201A
:102C000020232D16161711110E00C6291A0D0902C0
:102C10008C04C282048870000000033C424E5D3385
:102C2000242512130E020100003844C47434B45A2F
:102C30006282020408BC924A340000010608091EA0
:102C40002516222020100906000040A038E4A452D6
:102C500092665D39211EE000000007081020211057
:102C6000182048582C4A3100000000000070F8FC81
:102C7000FEFEFFFFFEFC6000000000000000000000
:102C800000000000000060FCFEFFFFFEFEFCF8708C
:102C9000000000000080800082C7E7FFFFFFFFFF09
:102CA000FEFCFCFC3838383838383838B8B838FCCE
:102CB000FCFCFFFFFFFFFFFFC787020000000007CB
:102CC0000F1F1F0F07010100040E1F3F3F1B0100D4
:102CD00000000000000003070F1F0F0701000000A5
:102CE000000F1F1F1F1E0C0000000000000070F8E6
:102CF000FCFEFEFFFFFEFC60000000000000000084
:102D00000000000000000060FCFEFFFFFEFEFCF87B
:102D100070000000000000000002C7E7FFFFFFFF97
:102D2000FFFEFCFCFC38B8B838383838383838B8CA
:102D3000FCFCFCFFFFFFFFFFFFC787028080000055
:102D40000000000C1E1F1F1F0F0000000001070FD6
:102D50001F0F0703000000000000011B3F3F1F0E74
:102D600004000101070F1F1F0F07002B16000000B2
:102D70000070880402160141229C600000000000DF
:102D800000000000000000000000609C22410116CD
:102D90000204887000000000008080008245243E0C
:102DA00080808091322444C4282828282828282874
:102DB000A8A828C4442493918080003E4485020042
:102DC000000000070810110806010100040A112183
:102DD000241A010000000000000003040811080686
:102DE00001000000000F101213120C000000000080
:102DF000000070880402160141229C60000000005F
:102E00000000000000000000000000609C22410162
:102E10001602048870000000000000000002C524B3
:102E20003E00808091B22444C428A8A828282828DD
:102E3000282828A844442493918080003E44850299
:102E4000808000000000000C121312100F00000020
:102E50000001060811080403000000000000011A28
:102E60002421110A040001010608111008070000BE
:102E7000CA3111241FBECFEFDAE0DEBFCDBF11E0B3
:102E8000A0E0B1E0E4E4FFE602C005900D92A83AAC
:102E9000B107D9F726E0A8EAB1E001C01D92A13A36
:102EA000B207E1F717E1C9E3D7E104C02197FE01BA
:102EB0000E946836C833D107C9F70E94D6320C94F5
:102EC000A0370C940000089508950895089508957A
:102ED000089508950895089508950C9403370C9467
:102EE00003370C9403370C9403370C9403370C947A
:102EF00003370C9403370C940337E1E7F0E080814B
:102F00008D7F808310929100469847981092870297
:102F10000895CF92DF92EF92FF920F931F93CF937A
:102F2000DF930E948828811520E8920751F4DF91F1
:102F3000CF911F910F91FF90EF90DF90CF900C9465
:102F40007D1721E020938702813020E8920751F419
:102F500080918502909186029093890280938802E5
:102F60000E94882897FD05C020918402222309F43D
:102F700040C02091830221113CC021E020938B02AC
:102F8000EC01DF77209769F481E080938C0246980A
:102F90003FE9C32E3FE0D32EE12CF12CCAEFD0E065
:102FA00014C08E0120E030E060E472E48FE090E035
:102FB000A90198010E94C33569017A0181E0C81A0C
:102FC000D108E108F10810928C02E0919102F09191
:102FD00092020995811103C081E080938C02809157
:102FE0008B02882309F43FC080918C0281113BC081
:102FF00003C010928B02C4CF469935C0479A0E94F5
:103000008828009771F09C01DE010E941736DC01D0
:10301000CB0129E0B595A795979587952A95D1F786
:1030200003C08FEF9FEFDC01109290002AE0209305
:103030009100D0929900C092980080938D02909355
:103040008E02A0938F02B0939002809171008260F3
:1030500080937100DF91CF911F910F91FF90EF90BE
:10306000DF90CF9008954798CACF9C01E1E7F0E048
:1030700090819D7F908381E080938A0230938902C2
:103080002093880230938602209385020C9489173E
:103090002F923F924F925F926F927F928F929F9268
:1030A000AF92BF92CF92DF92EF92FF920F931F9356
:1030B000CF93DF9300D000D0CDB7DEB79C838B8356
:1030C0005B01DB011996FC90FC01878D882341F0A0
:1030D0008150878F811104C040E060E00E94B72CCE
:1030E000AB81BC8114968C9114978111D6C1F501E6
:1030F0008781908587709927892B69F45C968C91DC
:103100005C978F5F843019F05C968C9304C0AB8120
:10311000BC815C961C92F5018289833070F4AB818E
:10312000BC8159968D919C915A97181619062CF4CA
:1031300001975A969C938E935997EB81FC81858DCC
:10314000882311F08150858FAB81BC815E968C9174
:103150005E97882319F081505E968C93AB81BC8179
:103160005996ED91FC915A97CF0160E87CE00E945E
:10317000543609964397B8F5D50155968D919C9193
:1031800056974AE0489F9001499F300D112440E92D
:1031900051E0421B530BAB81BC8191965C934E93E3
:1031A000909725E0289FB001299F700D112428ECED
:1031B00030E0261B370B93963C932E939297453B1A
:1031C000510530F084EB90E091969C938E9390970C
:1031D0002536310540F084E690E0AB81BC819396C2
:1031E0009C938E939297D50152968C91AB81BC8122
:1031F00015962D913C9116978330A9F42938BFEF8D
:103200003B076CF0F5018781908565E070E00E94D6
:103210004036892B09F0C9C0225031092CC081E009
:10322000F501828FC2C037FF13C0D50117968D916B
:103230009C91189765E070E00E944036892B09F058
:10324000B4C02E5F3F4FEB81FC8136832583ADC038
:10325000EF2B09F06DC1283C31050CF059C1F50187
:103260008781908565E070E00E944036892B09F0E7
:103270009CC02E5F3F4FAB81BC8116963C932E9332
:10328000159793C0F5FC6AC16501B4E0CB0ED11C63
:10329000F5018781908563E070E00E9440360297D7
:1032A00009F061C1F7FC6DC1AB81BC811D968C91A9
:1032B0001D97882309F46CC1BF2DB0719B2EF4FCBF
:1032C00094C1AB81BC811D96EC90B1E0EB1609F482
:1032D00093C1AB81BC8159968D919C915A979996D7
:1032E0004D018D3291400CF0B2C1EB81FC81218DFA
:1032F000328D81892D3231400CF476C3811174C333
:10330000EB81FC81828981111EC064ED70E080E058
:1033100090E00E943929DC01CB0180589F4FAF4FCC
:10332000BF4FEB81FC819787868763E070E080E088
:1033300090E00E943929AB81BC8150966C935097E4
:1033400081E052968C93F5018781908563E070E06F
:103350000E944036029709F099C27401DD24D3948B
:103360000615170509F0E8C287E0782E140160E021
:1033700070E0662ED40140E050E06101E3E0CE1A37
:10338000D1087101F5E0EF1AF108641269C34F5FCB
:103390005F4F179643305105C1F76F5F7F4FE7E0EE
:1033A0002E0E311C6330710521F7D50117968C91D3
:1033B00080FD30C0EB81FC8183898150803C11F01D
:1033C000838B04C0AB81BC8153961C92EB81FC8142
:1033D00021AD222329F0848995890197958B848BCF
:1033E000AB81BC8159968D919C915A97892B91F410
:1033F000211110C081E0D9968C93D99753968C9166
:103400005397082E000C990B80549F4F55969C9310
:103410008E935497F5018781908563E070E00E9458
:103420004036029771F0AB81BC8156968C915697CD
:103430008150803F19F056968C9303C0EB81FC813C
:10344000168AD50117968D919C91189783709927AC
:10345000039761F0EB81FC8187898250813E14F0F3
:10346000878B04C0AB81BC8157961C92F501878184
:10347000908565E070E00E944036039770F4AB8160
:10348000BC8158968C9158978350813E1CF0589679
:103490008C9303C0EB81FC81108ED50117968D9122
:1034A0009C91189766E070E00E944036892BD9F015
:1034B000B5018B819C810F900F900F900F90DF9141
:1034C000CF911F910F91FF90EF90DF90CF90BF9021
:1034D000AF909F908F907F906F905F904F903F90B4
:1034E0002F900C94C026EB81FC8139962B813C8176
:1034F000235F3F4F8081882331F08F5F863011F04A
:10350000808301C010823196E217F30799F7D0CF7C
:10351000D50155968D919C915697019656969C9300
:103520008E93559745E064E0C5010E94D8243DCFB5
:103530000B811C810C5D1F4F6B807C80B9E36B0E8F
:10354000711CEB81FC81BA968B819C81CF96E81728
:10355000F90709F497CE10823796F9CF2115310576
:1035600009F0F0C091CEF6FE9DCEAB81BC811596E0
:103570008D909C901697B6E48B1691040CF4E9C0DC
:1035800091CEEB81FC818781883008F02CC18CCEF4
:10359000F7FC26C01796EC901797EA9415964D9174
:1035A0005C9116972E2DB601CD010E94A12F8F3F61
:1035B00081F0EB81FC818185811112C081E08187DE
:1035C000B501CF010E94E42F85ED90E00E943518EF
:1035D00007C0AB81BC811796EC9217971D961C9281
:1035E0008B819C810E94143067CEEB81FC818781A6
:1035F000813208F41FC165CE911024C0EB81FC819B
:10360000F780F394458156812F2DB601CF010E949A
:10361000A12F8F3F99F0AB81BC811A968C911A979C
:10362000811110C01A96EC921A97B501CD010E9433
:10363000E42F85ED90E00E94351804C0EB81FC81F9
:10364000F782E5868B819C810E94143042CE740102
:103650006801C614D70409F448CED7018C918111B2
:103660006AC01701B3E02B1A31082701E2E04E1AB5
:1036700051089701215031093A8329836CEA70E09F
:1036800080E090E00E943929DC01CB0180589F4FF7
:10369000AF4FBF4FF60191838083833E9F4F14F459
:1036A000D7011C9263E070E080E090E00E9439292D
:1036B000F101608362E070E080E090E00E943929CF
:1036C000D2016C9362E070E080E090E00E943929C2
:1036D000DC01CB010296A11DB11DE981FA81808335
:1036E000E1E0D701EC93D1013C91F6014081518199
:1036F000D401B80120E066157705D1F08C918823BC
:1037000099F0CD010397FC01808183130DC0FB016B
:1037100080819181841B950B97FF03C091958195C2
:103720009109C3970CF4B0C0695F7F4F1796E3CF40
:10373000213009F0A3CFF7E0CF0ED11C27E0E20E35
:10374000F11C87CF21503109EB81FC813683258321
:103750009BCDFFEF8F1A9F0AAB81BC8117962C91EE
:103760001797A401B601CD010E94A12FE82EBFEF4B
:103770008B1791F1EB81FC81848581110AC081E076
:103780008487B501CF010E94E42F85ED90E00E946F
:103790003518AB81BC8115962D913C911697215E11
:1037A0003F4F8E2D90E0FD01B7E0EB9EE00DF11D47
:1037B000112435A324A3233E3F4F0CF411A627E088
:1037C000289FF001299FF00D11248B819C81E80F27
:1037D000F91F81E082A766CDAB81BC8116969C92D1
:1037E0008E9215975FCDEE24EA94E80EEB81FC8172
:1037F000458156812E2DB601CF010E94A12F8F3F0A
:10380000A1F0AB81BC8119968C91199781114CCD97
:1038100081E019968C931997B501CD010E94E42F90
:1038200085ED90E00E9435183FCDEB81FC81E78269
:1038300015863ACDFF24F394F80EAB81BC81159622
:103840004D915C9116972F2DB601CD010E94A12FAD
:103850008F3FA1F0AB81BC811A968C911A97811190
:1038600030CD81E01A968C931A97B501CD010E9454
:10387000E42F85ED90E00E94351823CDEB81FC818B
:10388000F78281E085871DCD2F5F4ECFAB81BC8154
:1038900052968C915297882309F45FCD1E968D9194
:1038A0009C911F9701971F969C938E931E97089645
:1038B00089F4EB81FC81128A6AE570E080E090E097
:1038C0000E943929DC01CB010A96A11DB11DEB81B3
:1038D000FC81818BAB81BC811E966D917C911F9781
:1038E00050968C91509715964D915C91169717961E
:1038F0002C91FB0138964E175F070CF02ECD415EE0
:103900005F4F641775070CF028CDBEE08B9FC00198
:10391000112430E0B9016B5E7F4FAC014D5D5F4F0C
:10392000641775070CF019CD215E3F4F4B96821737
:1039300093070CF012CD5EC0F7018081882309F453
:103940004DC0D80116968C91811148C0F70133976C
:103950006081F80120813181AB81BC8117964C9147
:10396000179715968D919C911697DC015E96FC0138
:10397000B0962E173F070CF056C0F9013296AE17DD
:10398000BF070CF050C050E0BEE06B9FB0011124A7
:10399000DB015B96FA017F96AE17BF070CF043C0C0
:1039A0006B5D7F4F4B5E5F4F46175707E4F54F96B1
:1039B000F80191838083833E9F4F14F4D7011C92BA
:1039C000EB81FC818485811109C0D486B501CF01CA
:1039D0000E94E42F85ED90E00E943518095F1F4F8B
:1039E000B7E0EB0EF11CBCCC8150AB81BC81519691
:1039F0008C93A9CC40E060E280E00E94B72C8AE082
:103A0000EB81FC81878FD50150968D919C915197C8
:103A1000029651969C938E935097128A87EC90E071
:103A20000E9435189ACCF7013197608170E0D5017A
:103A300017968D919C9118970E944036882319F013
:103A400081E090E002C082E090E0281B390BF80191
:103A500031832083233E3F4F0CF6D7011C92BECF0B
:103A6000F1018081882309F492CC8C91882309F498
:103A70008ECCF6012081CD010397FC0180812813B3
:103A800086CCF701808191819D0125503109F90192
:103A9000208131818C01021B130B17FF03C011958C
:103AA000019511090F3111050CF071CC2817390758
:103AB0008CF4215E3F4F769EF001779EF00D11242D
:103AC0008B819C81E80FF91F35A324A3233E3F4F30
:103AD0008CF04CCC4F96749EF001759EF00D112425
:103AE000AB81BC81EA0FFB1F95A384A3833E9F4F4C
:103AF0000CF03CCC11A63ACCCF93DF93FC01DB0158
:103B00005A961C9213AA14AA88EC90E096AB85AB47
:103B100017AA10AE11AE17A612AA12AE82E181A7A3
:103B20001482DF011C96F096AE17BF0731F01C928D
:103B3000ED01219718821996F7CF82EA98E29093C7
:103B4000920280939102DF91CF9108952F923F923C
:103B50004F925F926F927F928F929F92AF92BF929D
:103B6000CF92DF92EF92FF920F931F93CF93DF9349
:103B7000CDB7DEB727970FB6F894DEBF0FBECDBF27
:103B80009F838E838B01DB011996BC91B983FC0165
:103B900081AD882341F0815081AF811104C040E0A4
:103BA00060E00E94B72CAE81BF8114968C9114976F
:103BB000811180C39996BB83AA83EE81FF8121A5E1
:103BC000D80117968D919C91189765E070E00E943E
:103BD0004036892B31F0F8018289833008F0DDC04E
:103BE000E7C0EE80FF80F5E0EF0EF11C2E803F80F5
:103BF0004CE0240E311C4E805F8056E0450E511C77
:103C0000CE80DF8088E0C80ED11CAE80BF809BE0F4
:103C1000A90EB11C6E807F80ADE06A0E711C2C5E17
:103C2000E22FF0E0FD83EC83992493945AEF852EE4
:103C3000AA81BB81EA16FB0671F2D1018C9188231F
:103C400009F498C0F70180818636C1F4D8015096F6
:103C50008D919C915197059651969C938E93509778
:103C600040E060E280E00E94B72C8EE898E00E947D
:103C700035182AE0EE81FF8121AF28C0D6012C91B2
:103C8000885F90E0EC81FD818E1B9F0B97FF03C046
:103C90009195819591092A3021F0203211F0263337
:103CA00029F40B979CF4D3019C9210C02B3021F087
:103CB000213211F0273341F4F3013081311157C320
:103CC0000B970CF066C353C3D3011C92F50190818E
:103CD000911105C0D6018C918F5F8C9303C02FEF9B
:103CE000F6012083D6018C918B3411F41C9240C0D4
:103CF000923099F170F4992399F0913009F038C01D
:103D0000D7018C918F5F8C932BE2F2012083E2E04C
:103D10002CC09D3368F581E0890FD5018C932AC0B2
:103D2000F3013697E081F0E0EE0FFF1FE058FE4F01
:103D30002081318190E0880F991FF901E80FF91F68
:103D400045915491D7014C93FC013196E20FF31F3A
:103D500045915491F20140830DC0D7018C918F5F42
:103D60008C9322E3F2012083E3E0D501EC9302C0BF
:103D7000F1011082F9E0EF0EF11C29E0220E311C56
:103D800049E0440E511C59E0C50ED11C89E0A80E33
:103D9000B11C99E0690E711C4BCFEE81FF813C96FE
:103DA0002E813F81205D3F4F81E0E217F30751F400
:103DB000F801878190856FE070E00E944036892B82
:103DC00081F019C09081992351F0DF0111979C91E6
:103DD000911105C011979C91992309F43DC339961F
:103DE000E4CFEE81FF8139962E813F81235D3F4FE5
:103DF000E217F30739F4AE81BF81DA968C91811115
:103E000031C10CC08381882339F080818F5F883075
:103E100011F0808301C010823996EACFEE81FF81D4
:103E200085A996A901978E3FFFEF9F0730F4AE81D9
:103E3000BF81D6969C938E93D597EE81FF8125A95D
:103E400036A92115310509F00DC1D80150964D91C3
:103E50005C915197483EB3E05B0758F488EE93E0DD
:103E6000841B950B6AEF70E00E9440366D5F7F4FB8
:103E700002C063E070E0EE81FF813C964E815F817D
:103E8000405D5F4F5F019CE2892E912CA6E1EA2EF6
:103E9000F12CE417F50781F18081882359F1CF01D6
:103EA0000497DC018C91863109F4DCC08C3209F472
:103EB000D9C0C82ED12CC4018C199D0997FF03C00D
:103EC000919581959109D701AC19BD096D01B7FF95
:103ED00003C0D194C194D1080C2C000CDD08C61687
:103EE000D7060CF4BFC0082E000C990B8617970755
:103EF0000CF4B8C03996CDCFF5018081811137C05F
:103F0000AE81BF81D896EC9189E0829FD001839FDA
:103F1000B00D11244E815F81A40FB51F81E01C9666
:103F20008C931C9718961C9218971B961C921B97A3
:103F30001A961C921A971796EC931797F0E0EE0FCB
:103F4000FF1FE058FE4F80819181FC012591349143
:103F500015962C931597FC013196859194911696A0
:103F60008C93D80152968C91833048F075C02F5FA6
:103F70003F4F39962430310509F0BFCF73C0F801A7
:103F8000208931892C3DF5E03F07C8F46901D694BA
:103F9000C7948CED95E08C199D09A5E0EA2EF12CD3
:103FA000B7010E944036FB012E3E324050F48EEEA7
:103FB00092E08C199D09B7010E94403604C0E6E9E1
:103FC000F0E06BE470E0CF01A0E0B0E06B01E12C29
:103FD000F12CC816D906EA06FB066CF4BC01CD012B
:103FE0006C197D098E099F090E943929C60ED71EBA
:103FF000E81EF91E05C0E6E9CE2ED12CE12CF12CED
:10400000AE81BF81D696DC92CE92D597F801808999
:1040100091898531910570F0899788F40E949F35C8
:1040200022E030E040E050E00E94C335EE81FF81A5
:1040300060AF18C0AE81BF81D8961C9213C00E9499
:104040009F3523E030E040E050E00E94C335AE8170
:10405000BF81D8966C9306C08FEF9FEFEE81FF81F2
:1040600096AB85ABF981F5FF0FC0AE81BF819A9603
:104070008C919A97811108C099968C919997833168
:1040800018F082E09C968C93B981B6FF09C0EE814E
:10409000FF8182A5811104C081A58C3308F4E2C19F
:1040A000D80117968C9180FD48C0EE81FF8184A5D0
:1040B0008230B9F0833009F040C0EE81FF8181A5E4
:1040C000E2A591E09E0FAE81BF819A969C939A974C
:1040D000F0E0E351F84FE491E80F9996EC9399974B
:1040E00015C0AE81BF8199968C9199979A96EC9163
:1040F0009A9791E09E0F9A969C939A97F0E0E351DD
:10410000F84FE4918E1B99968C9399979B968C917E
:104110009B978F5F8C3071F4EE81FF8113A69530F1
:1041200061F4AE81BF819A961C929A9784E09C9626
:104130008C9303C09B968C93F2CFD80117968D91E8
:104140009C91189766E070E00E944036892B69F0D8
:10415000F8018289833008F4ADC08E819F810C966E
:104160002E813F81205D3F4F9EC0AE81BF819F96D3
:104170008C919F97882309F476C0D2968C91D29720
:104180008F5FD2968C93D297282F082E000C330B7A
:10419000D1964C91D19787FD43C0842F90E028178A
:1041A00039070CF03DC0D0968C91813031F1A0F0F0
:1041B000823009F035C0C9010196880F991FFC01B2
:1041C000EE50F84FE491AE81BF819D96EC939D97A0
:1041D000FC01ED50F84F21C0C9010196880F991FCD
:1041E000FC01EA5BF74FE491AE81BF819D96EC93B1
:1041F0009D97FC01E95BF74F10C0C9010196880F3C
:10420000991FFC01E05EF74FE491AE81BF819D965E
:10421000EC939D97FC01EF5DF74FE4919E96EC9334
:10422000842F90E02817390719F4EE81FF8117A633
:10423000821B930B0897A4F4AE81BF81D4968C9116
:10424000D4978F5FD4968C93D497883061F49F96DF
:104250001C929F97D2961C92D297D4961C9203C020
:10426000EE81FF8114AAEE81FF813C962E813F8171
:10427000205D3F4FE217F30709F46ACF808188235E
:1042800051F0DF0112978C91882329F08F5F8C9376
:10429000863009F410823996EDCF0996FC013997E2
:1042A0004081411107C082179307B9F781E0D80117
:1042B0005A968C93D80150962D913C9151975896CF
:1042C0008D919C9159978217930720F481E0EE819C
:1042D000FF8182AFAE81BF81DA968C91DA97882315
:1042E00049F1CD010C969D01205D3F4F8217930748
:1042F00039F00996FC01399740814423B9F31AC07B
:10430000EE81FF8181A5D80157968C9357975596DA
:104310008D919C915697019656969C938E935597A6
:1043200052968C91833008F099C046E063E0C80152
:104330000E94D824B8018E819F8127960FB6F894E9
:10434000DEBF0FBECDBFDF91CF911F910F91FF90C8
:10435000EF90DF90CF90BF90AF909F908F907F9025
:104360006F905F904F903F902F900C94C026213219
:1043700059F484E798E005C02B3009F0A7CC8AE710
:1043800098E00E943518A2CC2733B1F78EE698E06A
:10439000F8CFD5019C92F80182898F5F828B40E033
:1043A00060E080E20E94B72C80E898E00E94351817
:1043B000EAE0AE81BF81D996EC93D7018C918C3322
:1043C00090F58732C0F0D8015296EC91E33008F0B6
:1043D0007DCCAE81BF81D0969C92D0979F969C92C7
:1043E0009F97D2968C92D297F0E0E15EF74FE491DE
:1043F000D196EC936BCC823108F468CCD8015296FC
:10440000EC91E33008F062CCAE81BF81D0961C9273
:10441000D0979F969C929F97D2968C92D297F0E0DD
:10442000EB5BF74FE4CF813808F050CCD8015296BF
:10443000EC91E33008F04ACCF2E0AE81BF81D09637
:10444000FC93D0979F969C929F97D2968C92D297EE
:10445000F0E0EF50F84FCBCF8C93C1CC81E0F80166
:10446000828F68CF83E0EE81FF8184A719CE6F929F
:104470007F928F929F92AF92BF92CF92DF92EF92F4
:10448000FF920F931F93CF93DF93EC01FB01C78043
:10449000D08421E040E00E944027E12C00E027ED9D
:1044A00036E041E657E063E070E08FE190E00E9483
:1044B000BB2B21EF33E043E655E060E170E08DE196
:1044C00090E00E94BB2B2B8D3C8DAE01475F5F4F70
:1044D00066E1CE010E9404242B8D3C8DAE01435F2A
:1044E0005F4F6FE1CE010E9404242F8D38A1AE01F1
:1044F0004F5E5F4F68E2CE010E9404240D810F3FA2
:1045000009F466C0C60168E370E00E9440364D972A
:1045100008F45EC0FE01E00FF11DE00FF11DA5885B
:10452000B688F9E00F9F80011124480135E1830E20
:10453000911CEE8086E0E89E70011124670194E2F0
:10454000C90ED11CEAE2EE0EF11C035E1F4FCE1421
:10455000DF04F9F0340197FE11C0612C712C0EC0FC
:104560006816790694F4F0E8CF16D10424F4B30168
:10457000C6010E9413293FEF631A730AC801013470
:10458000110574F380E490E0EBCF8FEFC81AD80ADE
:10459000DECF8E81F501E80FF11D20812F3311F060
:1045A000205401C020E06D8199E0699FB001112481
:1045B0006A5E7F4FE6E08E9FC00111243BEFC32E61
:1045C000E12C00E010E04BE553E085960E94CC29F9
:1045D0008D818F3F79F4888581110CC0E12C00E03A
:1045E00029EA32E041E053E064E370E08BE290E0DE
:1045F0000E94BB2B80E0DF91CF911F910F91FF9024
:10460000EF90DF90CF90BF90AF909F908F907F9072
:104610006F900C94DF28FC01DB0113964C911397EB
:104620004530C9F48CE9858382E7868350968D9165
:104630009C9151978D9655966D917C915697469F7A
:104640009001479F300D1124820F931F59969C9320
:104650008E93589705C080E6858357968C91868304
:10466000178212861386108680E2818708952F9222
:104670003F924F925F926F927F928F929F92AF92F2
:10468000BF92CF92DF92EF92FF920F931F93CF933F
:10469000DF9300D000D0CDB7DEB78C015B01FC0109
:1046A0001682178284E68087FB01808991899C832A
:1046B0008B83312C832D880F8D580E94C32C2B8126
:1046C0003C81281739074CF06BE6E62EF12C75E794
:1046D000C72ED12CE2E02E2E2CC03394F3E03F12F3
:1046E000E9CF33243A9453C0C2010E94AD35682FFC
:1046F000C401840D951D0E94582D8FEF481A580A49
:104700004614570489F71A821982BE016F5F7F4FE2
:10471000C6010E942529BE016F5F7F4FC601029628
:104720000E94312D2A94E2E0CE1AD108F4E0EF1A6B
:10473000F108321448F4370184E0680E711C270137
:1047400054E0852E912CD0CFE32CF12C9701220F31
:10475000331F220F331F4901E7E68E0E911C6901BA
:10476000FBE6CF0ED11C6FE3C4010E94582D8FEFE2
:10477000881A980A8C149D04B1F7C701880F991FF5
:10478000BE016D5F7F4F8D589F4F0E94312DF80104
:104790003582F5011286118667E6C80109960E94E6
:1047A000D72C6BE6C8010D960E94D72C6FE6C80186
:1047B00041960E94D72C83E70E94C32CF801948F66
:1047C000838F85E70E94C32CF801968F858F87E73A
:1047D0000E94C32CF80190A3878F0F900F900F9029
:1047E0000F90DF91CF911F910F91FF90EF90DF908D
:1047F000CF90BF90AF909F908F907F906F905F9081
:104800004F903F902F9008952F923F924F925F923A
:104810006F927F928F929F92AF92BF92CF92DF92D0
:10482000EF92FF920F931F93CF93DF9300D000D0AE
:1048300000D0CDB7DEB769015A0105E210E0E62EDF
:10484000F12CF50121915F012F3311F0205401C0AB
:1048500020E04BE553E0B701C8010E943C2B0A5F02
:104860001F4F0733110569F72E01F7E04F0E511C5A
:1048700002E410E086E0382ECE0101965C01882427
:1048800099248C189D089AE0692E712C26E0222E1E
:104890002A0CF501832D11928A95E9F7C601D7FC00
:1048A000C401F501B3010E9440368193CB012E1261
:1048B000F9CFF20122912F01255E4BE553E0B701BC
:1048C000C8010E943C2B0B5F1F4F0036110509F7F2
:1048D00026960FB6F894DEBF0FBECDBFDF91CF9105
:1048E0001F910F91FF90EF90DF90CF90BF90AF900E
:1048F0009F908F907F906F905F904F903F902F9000
:1049000008958F929F92AF92BF92CF92EF920F93A2
:104910001F93CF93DF9300D000D000D0CDB7DEB788
:10492000FE01319626E0DF011D922A95E9F7DC01B0
:1049300050962C91509751969C910AE010E036E0E9
:104940003E0F822FB8010E9440368193262F972F69
:104950003E13F7CF4E01B7E08B0E911C9EE5A92EBA
:10496000B12C8AEFC82EE12C00E010E0F401229176
:104970004F0145E654E163E070E0C5010E94CC2997
:10498000F5E0AF0EB11C8CE7A816B10451F72696DE
:104990000FB6F894DEBF0FBECDBFDF91CF911F9150
:1049A0000F91EF90CF90BF90AF909F908F90089510
:1049B0000F931F93CF93DF93EC01062F142F40E04A
:1049C00060E080E00E94B72C0E947D170D8F1E8F43
:1049D000DF91CF911F910F910895CF92DF92EF92C7
:1049E000FF921F93CF93DF93EC01FB01928511851A
:1049F0002D812F3F09F48DC0878190856CE070E098
:104A00000E9440366C01892B09F08FC017FF20C02F
:104A1000FE01E20FF11DE20FF11D258936898E811D
:104A2000F901E80FF11D80818F5F80838E81F9018C
:104A3000E80FF11D80818B3514F081E480838E8135
:104A4000F901E80FF11D8081803411F481E4808345
:104A500014FF21C08D81FE01E80FF11DE80FF11D4B
:104A6000258936898E81F901E80FF11D80818150F9
:104A700080838E81F901E80FF11D8081813414F467
:104A80008AE580838E81F901E80FF11D80818E33E4
:104A900011F48AE5808315FF05C08E81882311F00B
:104AA00081508E8316FF05C08E81823010F48F5F97
:104AB0008E8313FF3AC08D81FE01E80FF11DE80FD0
:104AC000F11D0588F689E02D80818F3371F1818198
:104AD0008F3359F182818F3341F17F01F701619169
:104AE0007F018D81960144E08402200D311D112447
:104AF000C90189599F4F0E94582D5FEFC51AD50AE9
:104B000083E0C816D10451F78FEF8D8384E6888740
:104B10000CC09095912393FF08C08885811105C032
:104B200040E062E0CF010E94D82410769F811036C9
:104B3000E9F59F5F9F83953108F440C09D3350F1A4
:104B40009D33E1F51F8240E060E080E00E94B72CD9
:104B500081E00E94682D67E6CE0109960E94D72C5D
:104B60006BE6CE010D960E94D72C6FE6CE014196E2
:104B70000E94D72C83E70E94C32C9C8F8B8F85E7E4
:104B80000E94C32C9E8F8D8F87E70E94C32C98A311
:104B90008F8F14C020E430E0F901E91BF109CF0147
:104BA00040E060E0880F0E94B72C08C0992331F0E4
:104BB00040E060E080E00E94B72C1F828885882357
:104BC00011F081508887DF91CF911F91FF90EF9076
:104BD000DF90CF900895FF920F931F93CF93DF93B1
:104BE000EC018B01FB01F284F0948185F82287812E
:104BF00080FD7BC08F816AE00E942636498580FD5A
:104C00008DC080E060E00E94B72CF80163819F8135
:104C10006530A9F5923A38F49B3588F49C3358F006
:104C20009C34E0F55FC09F3B30F19F3B09F05AC0D8
:104C300040E065E054C08D8181508D8353C081E098
:104C40008A87F8018781908583709927892B09F0DD
:104C500049C09E81963130F4933140F4923109F489
:104C600041C006C09B3120F4925003C0915001C056
:104C700093509E8337C089858150898727C09D388E
:104C800038F4943718F5953168F1993250F406C02C
:104C9000943BF0F0943B31F540E021C081E08A87FD
:104CA00021C081E08A87F8018781908583709927E8
:104CB000892BC1F48E8190E00196959587958E831E
:104CC0008885853078F48F5F88870CC01A860AC083
:104CD0008D818F5F8D8389858150898703C0C8014D
:104CE0000E94D8248F818F5F8F83F3FE06C040E03F
:104CF000F8016381C8010E94D824F801878190855A
:104D00006CE070E00E944036892B59F48E8182312C
:104D100041F09B8581E089278B8703C0842F40E089
:104D200071CFDF91CF911F910F91FF900895EF9276
:104D30000F93CF93DF93EC01FB01828D882361F009
:104D4000E12C00E023EE32E143EA53E164E170E05C
:104D500080E290E00E94BB2B8C81882361F0E12CE3
:104D600000E025EB31E14BE452E164E170E087E2E1
:104D700090E00E94BB2BDF91CF910F91EF900895AF
:104D8000DC01FB019285909521859223828D8823F9
:104D900039F093FF0EC040E067E0CF010C94D824B7
:104DA00092FF07C014968C91149791E0982714965F
:104DB0009C930895AF92BF92CF92DF92EF920F93A0
:104DC0001F93CF93DF935C01102FFB0187819085A8
:104DD00087709927892B39F481E0F501928191112F
:104DE00080E0F5018283C22F220FDD0BC42E440F19
:104DF000DD08E12C00E02BEB30E147E351E1BE019F
:104E0000C6010E94BB2BF501028124EA30E14BEA86
:104E100050E1BE01C60142960E94BB2B112361F0F6
:104E2000BE016B5F7F4F00E026E630E144E850E1D1
:104E3000C60104970E94BB2BDF91CF911F910F9168
:104E4000EF90DF90CF90BF90AF900895EF920F93C7
:104E5000CF93DF93C0E0D0E0E12C00E024E430E128
:104E600044E550E16BE370E0CE010E94BB2B289635
:104E7000C038D10589F7DF91CF910F91EF90089558
:104E8000EF92FF920F931F93CF93DF93EC018B016F
:104E9000F22E442321F1AB81B0E0FD01EE0FFF1FA4
:104EA000E65CFF4E45915491FD01E757FE4F60814E
:104EB00070E0A257BE4F8C91F801238D90E00E94C4
:104EC0003C2BF801878190858F709927892B39F4C5
:104ED0008B818F5F853010F48B8301C01B82C0E013
:104EE000D0E0E12C00E024E430E144E550E16CE165
:104EF00070E0CE010E94BB2B2896C038D10589F7FF
:104F000026E33EE048E35FE063E370E080E090E0AA
:104F10000E94BB2B24E23DE04CEA5DE060E070E0E3
:104F200080E090E00E94BB2BFF2051F022E13CE0AA
:104F30004AE95CE060E070E080E790E00E94BB2B13
:104F4000DF91CF911F910F91FF90EF900895CF9235
:104F5000DF92EF920F93CF93DF93EC016B0120E090
:104F600041E00E9440278E81843658F40B85E02E64
:104F700023E735E145E756E16AE270E090E00E9400
:104F8000BB2BE12C00E021E535E141E655E16CE188
:104F900070E088E690E00E94BB2BF601238D4FE87D
:104FA00054E166E270E088E690E00E943C2BB60196
:104FB000CE010E9426270A852FE14D81B601CE0140
:104FC0000E94DA26F601838DDF91CF910F91EF9049
:104FD000DF90CF900C94DF28AF92BF92CF92DF92F8
:104FE000EF920F931F93CF93DF936B0181E04827DC
:104FF000DB0152961C91141B86E8A82E81E0B82E86
:10500000C0E0D0E0C117D0F4FE01D5018D915D0163
:1050100090E0D6015B962C91211102C0E0E0F0E017
:10502000E12C00E02CED3BE046EF5BE061E070E05E
:105030008E1B9F0B0E94BB2B2196E4CFDF91CF915B
:105040001F910F91EF90DF90CF90BF90AF90089598
:105050001F920F920FB60F9211242F933F934F93ED
:105060005F936F937F938F939F93AF93BF93EF93D0
:10507000FF9380918D0290918E02A0918F02B0914A
:105080009002892B8A2B8B2B81F180918C028111CC
:105090000BC098B180E4892788B980918B0288235E
:1050A00019F088B1805888B980918D0290918E0254
:1050B000A0918F02B0919002181619061A061B06CD
:1050C000B4F480918D0290918E02A0918F02B091E4
:1050D00090020197A109B10980938D0290938E02ED
:1050E000A0938F02B093900202C00E948917FF9193
:1050F000EF91BF91AF919F918F917F916F915F9150
:105100004F913F912F910F900FBE0F901F901895C8
:1051100080918A02E0918802F0918902882349F007
:10512000CF01029690938902809388028591949191
:105130000895CF010296909389028093880280811E
:1051400091810895809193020895089508950E9491
:105150009B37FC01DB011A968C911A978095199662
:105160009C911997892351F08281882311F08CE753
:1051700082838281811102C081E08283928199239E
:1051800049F09F5F92839D3729F440E062E0CD01B2
:105190000C94D8240895FB01168A158A148A138A60
:1051A000128A118A108A138E128E82EA98E29093E4
:1051B0009202809391028EE498E10C9435189091BC
:1051C00098029EBD91E0813009F490E09195909312
:1051D000980221E030E09FEFF901E856FD4F608131
:1051E000813039F018F0823039F011C02F5F3F4F15
:1051F0000AC02F5F3F4F0AC0A9014F5F5F4F2038A1
:1052000031401CF49A01908302C09A0110820DB4BF
:1052100007FEFDCF6EBD211544E03407ECF20DB45E
:1052200007FEFDCF0895E1EBFEE190E1969FD001EE
:10523000A0781124A80F6770E60FF11D9491A8566D
:10524000BD4F8C91982B9C9308950F931F93CF93F0
:10525000DF938C01EB010E94AD358883C801019674
:105260000E94AD358983CE01DF91CF911F910F91BF
:105270000895CF93DF9300D000D0CDB7DEB761158E
:1052800071058105910579F09B01AC0169833A8331
:105290004B835C830E949F3529813A814B815C81DD
:1052A0000E94C33503C060E070E0CB010F900F9007
:1052B0000F900F90DF91CF9108953FB7F8948091B0
:1052C000990690919A06A0919B06B0919C0626B5EE
:1052D000A89B05C02F3F19F00196A11DB11D3FBF2E
:1052E000BA2FA92F982F8827820F911DA11DB11DBC
:1052F000BC01CD0142E0660F771F881F991F4A95B8
:10530000D1F708951F920F920FB60F9211242F9389
:105310003F938F939F93AF93BF938091940290910B
:105320009502A0919602B09197023091980623E0E1
:10533000230F2D3720F40196A11DB11D05C026E8CD
:10534000230F0296A11DB11D20939806809394020D
:1053500090939502A0939602B0939702809199063C
:1053600090919A06A0919B06B0919C060196A11D72
:10537000B11D8093990690939A06A0939B06B093D3
:105380009C06BF91AF919F918F913F912F910F906C
:105390000FBE0F901F9018952F923F924F925F92E1
:1053A0006F927F928F929F92AF92BF92CF92DF9235
:1053B000EF92FF920F931F93CF93DF9300D000D013
:1053C00000D0CDB7DEB7CD824115510509F43BC100
:1053D000FA0134913196E4914E5F5F4FA32EB12CC8
:1053E000211102C0EE2061F18E2E8694869486945F
:1053F000912CA1E0B0E0FE2FF77011F4A0E0B0E036
:105400008A0E9B1EA89CD001A99CB00DB89CB00D23
:105410001124FD81F33019F4AA0FBB1F0AC0011536
:10542000110539F0EA9E4001EB9E900C1124080D05
:10543000191D2A9F70012B9FF00C11244E0D5F1D2A
:105440002D812F3F39F40115110511F021E001C024
:1054500022E02D837C01EA0CFB1C1E141F040CF0BF
:10546000F2C0803891050CF0EEC0DB01AE0FB11D2B
:105470001A161B060CF0E7C0603471050CF0E3C08F
:105480004115510509F4DFC0F62FF7706F2EDB01CF
:1054900077FD179623E0B595A7952A95E1F7FA2FA2
:1054A00077FF04C0662011F0FFEFFA0F97FF05C0E9
:1054B000AA27BB27A81BB90B02C0A0E0B0E020E8D8
:1054C000E216F10424F020E8722E781A01C0732E3F
:1054D0007A1A6F2F0F2E000C770BFF3F1CF4C62E8D
:1054E000C09401C0C12C992493942E2F277009F4E5
:1054F000912CE695E695E6959E0E690D711D693035
:1055000071051CF0E8E09E2E9F1ADC2CDF0E6D2D3D
:1055100020E86203800D911D11248A0F9B1F61E01A
:1055200070E0062C02C0660F771F0A94E2F72D8107
:10553000233011F0E1E001C0E2E0A718B108EA9DD4
:10554000802C1124EE2EF12CC39EA00DB11D112430
:10555000EA9E9001EB9E300DFA9E300D11245A0107
:10556000A20EB31E0115110509F0A801D70111976C
:105570002A0F3B1F420F531FAFEFA69F9001A79F1B
:10558000300D1124290140945094F90DFE83282DEB
:1055900030E0E79D200D311D1124EE81DE1609F467
:1055A00052C0DC01A856BD4F4A018501C12CC71469
:1055B00009F441C0F8013490369EF001379EF00D99
:1055C0001124FA83E983E095F095FC83EB83FD8158
:1055D000F23019F45C824B8211C0ED81EB3F19F47B
:1055E0001A8219820BC0F4013490369EF001379E66
:1055F000F00D1124E095F095FC83EB83D7FC06C0F9
:10560000FC91EB81EF23F981EF2BEC93662061F0A5
:10561000F6E0FD154CF0FD01E058FF4F20803C8086
:1056200023203A80322830828E0C9F1C0E0D1F1DC5
:10563000C3941196BCCFD394A20EB31E420F531F36
:1056400080589F4FAACF26960FB6F894DEBF0FBEA4
:10565000CDBFDF91CF911F910F91FF90EF90DF9021
:10566000CF90BF90AF909F908F907F906F905F9002
:105670004F903F902F900895CF92EF920F931F93EA
:1056800032E0C32EE12C00E010E00E94CC291F91F3
:105690000F91EF90CF9008950F931F93CF93DF93C7
:1056A000EC0120E048E258E161E170E08FE290E037
:1056B0000E943C2B20E04AE058E16AE170E08BE276
:1056C00090E00E943C2B20E04AE058E16AE170E063
:1056D00089E490E00E943C2B8A8120E0811112C075
:1056E0004AE058E16AE170E08AE390E00E943C2BD6
:1056F00020E04AEB57E16EE270E08AE190E00E9420
:105700003C2B25C04CE957E16AE170E08AE390E068
:105710000E943C2B20E049E757E16EE270E08CE20A
:1057200090E00E943C2B8A816FE00E942636C82FB1
:10573000C3700FE410E0D0E0DC1749F061E370E0E3
:10574000C8010E941329DF5F0E5F1F4FF5CFE8E904
:10575000F2E081E0A0E0B8E000800EBC8111012CF5
:105760001197A0FDFDCF0192B9F70DB4DF91CF9154
:105770001F910F910895CF92EF920F931F93F9010C
:10578000202FCC24C3948F010E94CC291F910F910C
:10579000EF90CF900895CF92EF920F931F93CF93F6
:1057A000DF93EC018B0121E040E00E944027B8012B
:1057B000CE010E942627E12C00E02DE33BE146EFDD
:1057C0005CE161E070E081E290E00E94BB2B8AEF37
:1057D000C82E00E010E02E8145E45AE16DE070E053
:1057E0008AE290E00E94CC298F81883C51F423E921
:1057F00039E14BEE59E164E370E08BE290E00E9406
:10580000BB2BE12C00E021E539E141E759E16EE0F5
:1058100070E080E090E00E94BB2B8885882349F0EF
:1058200020E040E459E160E170E081E190E00E9415
:105830003C2B80E0DF91CF911F910F91EF90CF90A3
:105840000C94DF28F89487E7809300088093010880
:10585000A89588E18093600088E080936000FFCF86
:105860000F931F93CF93DF93EC018B01FB01918585
:1058700082858095892394FF08C09D81903118F41A
:105880009F5F9D8303C00E94222C1D8283FF05C061
:1058900045E065E0C8010E94D824F8018781908521
:1058A0006FE070E00E944036892B39F48E818F5F63
:1058B000833011F08E8301C01E82F80187819085AC
:1058C00060E570E00E944036892B21F4988581E0E4
:1058D000892788878F81883C10F48F5F8F83DF91C1
:1058E000CF911F910F9108958F929F92AF92BF9287
:1058F000CF92DF92EF92FF926C01E12CF12C0E948B
:105900005D294B015C01C114D104E104F104F1F003
:105910000E945D29DC01CB0188199909AA09BB09FC
:10592000883E9340A105B10570F321E0C21AD10869
:10593000E108F10888EE880E83E0981EA11CB11CD6
:10594000C114D104E104F10419F7DDCFFF90EF9009
:10595000DF90CF90BF90AF909F908F9008958FB1C0
:105960008095807F669B88601C9B8460089593E887
:1059700094BD609567BD91EF90938000409388003F
:1059800080938A000895CF93DF9300D0CDB7DEB720
:105990001A821982BE016F5F7F4F90E00E94252915
:1059A00089819A810F900F90DF91CF910895BF92D6
:1059B000CF92DF92EF92FF920F931F93CF93DF93DB
:1059C00000D000D0CDB7DEB76C018E010F5F1F4F46
:1059D000E62EF12CE01AF10A83E0B82EB00EC701D2
:1059E000800F911F0E94AD35F80181938F01BE1287
:1059F000F6CF1C8289819A81AB81BC81F6018083BC
:105A00009183A283B3830F900F900F900F90DF913B
:105A1000CF911F910F91FF90EF90DF90CF90BF90AB
:105A20000895EF92FF920F931F93CF93DF931F92EE
:105A3000CDB7DEB77C01FC0100811181C80169830B
:105A40000E94AD356981681719F0C8010E94B5350B
:105A5000C7010F90DF91CF911F910F91FF90EF90B1
:105A60000895EF92FF920F931F93CF93DF9300D08F
:105A7000CDB7DEB78C017B01FB0160819A838983FE
:105A8000CE0101960E94112DF70161810F5F1F4F1A
:105A90001A830983CE0101960E94112DC7010F9030
:105AA0000F90DF91CF911F910F91FF90EF9008958C
:105AB000CF93DF9300D0CDB7DEB79A838983CE0131
:105AC00001960E94112D0F900F90DF91CF910895B4
:105AD0000F931F93CF93DF9300D0CDB7DEB7082F7E
