:100000000C9437170C945F170C945F170C945F17C0
:100010000C945F170C945F170C945F170C945F1788
:100020000C945F170C945F170C945F170C945F1778
:100030000C945F170C945F170C945F170C945F1768
:100040000C945F170C945F170C945F170C945F1758
:100050000C945F170C945F170C945F170C94A82EE8
:100060000C945F170C945F170C945F170C945F1738
:100070000C945F170C945F170C945F170C945F1728
:100080000C94F22E0C945F170C945F170C945F176E
:100090000C945F170C945F170C945F170C945F1708
:1000A0000C945F170C945F170C945F170E18FEFEEC
:1000B000FCF9F7FBF93143677FFFFFFFFFFFFFFF0D
:1000C000FFFFFFFFDFCE80303F7FFFFFFFFFFFFF1F
:1000D000FFBFBF97C7F3F8FC01010306080406CE73
:1000E000BC988000000000000000000000002031EB
:1000F0007FCFC08000000000000000404068380C46
:1001000007032A183F9FDFC3B1F9F9F3C7F1FCFEDB
:10011000FCF1C7F3F9F9F3C7F7FBFBE78FBF0F67F4
:10012000E68E3C3977FBF93143677FFFFFFFFEFF27
:10013000FFFFFFFFFFFFFFFFFFFFFFFFFFFFFFFFCF
:10014000FFFFFFFFFFFFFFFFFFFEFFF773680C9F3E
:10015000FFFFDFCE80303F7FFFFFFFFFFFFFFFFF8E
:10016000FFFFFFFFFFFFFFFFFFFFFFFFFFFFFFFF9F
:10017000FFFFFFBFBF97CFEFE6E0F1BFBF97C7F329
:10018000F8FCC060203C4E06060C380E0301030E3E
:10019000380C06060C38080404187040F0981971E1
:1001A000C3C6880406CEBC98800000000100000091
:1001B000000000000000000000000000000000003F
:1001C000000000000000000100088C97F3600000B0
:1001D00020317FCFC0800000000000000000000040
:1001E000000000000000000000000000000000000F
:1001F000004040683010191F0E404068380C07035B
:1002000023183F9FDFC3B1F9F9F347717CFEFC71FE
:10021000477379F9F3C7F7FBFBE78FBF0F67E78FEA
:100220003F3F7FFFFFFEFFF3F9F9F3F9FCFEFEFE0F
:10023000FCFEFEFFFFFEFCF9FDFCFCF8C1D39F1F96
:100240003EFFF773680C9FFFFFFFFFFFFFFFFFFFFD
:10025000FFFFFFFFFFFFFFFFFFFFFFBF7F7F3FBBF2
:1002600093C5FCBEBF97CFEFE6E0F1C060203C4EE7
:1002700006060CB88E8301038EB88C86060C3808EF
:100280000404187040F0981870C0C080000001008D
:100290000C06060C06030101010301010000010325
:1002A00006020303073E2C60E0C100088C97F36050
:1002B000000000000000000000000000000000003E
:1002C00000000000408080C0446C3A034140683028
:1002D00010191F0E1E18FFFFFFFFE77373E77399D6
:1002E000CCECCC19EDF4F6660CB9B33B3979F1835B
:1002F000A73F3F7FBFBF9FA7B09ECFE69C3F7F3FFA
:100300009F7FFFFFFF7E3F8FEF67F0F87F77278BA0
:10031000F8FCFFFF3F7FFFFF7FFFFFFF3F7FFFFFF7
:100320007EFEFEFF3F7FFFFF7EFEFEFF3F7FFFFF63
:1003300000000000188C8C188C66331333E6120B07
:100340000999F3464CC4C6860E7C58C0C080404014
:1003500060584F61301963C080C060800000008128
:10036000C07010980F078088D874070300E0204001
:100370008080008000E020408080018101E02040FA
:100380008080018101E0204080801810FFFFFFFF86
:100390001FCFEFDF8FF3F9FDF9E3FDFEFECCE1F7B0
:1003A000F7E7070FF7F7F3F4F6F3F9FCF3E7EFE7F6
:1003B000F3EFDFDFDFEFE7F1FDFCFEFF0000000001
:1003C000E0301020700C0602061C020101331E08EA
:1003D0000818F8F008080C0B090C06030C18101884
:1003E0000C1020202010180E020301001219131502
:1003F00014121510160F1710181219141A171B1BA8
:100400001C20120F130B14071504160317041807EA
:10041000190B1A171B1B1C201201130114011501C3
:10042000160217041807190B1A101B171C1ED5F0FB
:100430008D14A1C881CFD9F1AF2000008080C0C049
:10044000C0FFFFFFFFFFFFFFFFFFFFFFFFFFFFFFFB
:10045000FFFFFFFFFFFFFFFFFFFFFFFFFF80C1C3A5
:10046000C3E3E3FFFFFFFFFFFFFFFFFFFFFF7FFF90
:10047000FFFFFFFFFFFFFFFFFFFFFFFFFFFFFFC0CB
:10048000E0E1E1E1E1FFFFFFFFFFFFFFFFFFFFFF13
:100490003F7F7F7FFFFFFFFFFFFFFFFFFFFFFFFFAC
:1004A000FF000000000000FFFFFFFFFFFFFFFFFF56
:1004B000FFFF0000000000000F1F3F7FFFFFFFFF56
:1004C000FFFFFF1140008080404040BF8040DFDFE1
:1004D00010D7EAEA6D75FF00F6F77B787B7A393D35
:1004E0003D3E3E3E1E1F1F80414242A222BEA2A2AE
:1004F000BE9E10D6D4D5E8EA7F803B3B3B383B39E3
:100500003D3D3D3C3D3D3D3D3DC020A1A1A121BF24
:10051000A1A1BCBE20AEA8AAA8AA3F405D5DBDBCFB
:100520003B3A3A7B7B78F7F7F7F7F70000000000DB
:1005300000FF0101FAF4FAF4F8F4E8F10000000019
:1005400000000F1020478F3F7FFFFFFFFFFFFFFFDF
:10055000FFFFFFFFFFFFFFFFC0C0C0808000FFFF65
:10056000FFFFFFFFFFFFFFFFFFFFFFFFFFFFFFFF9B
:10057000FFFFFFFFFFFFFFFFFFFFE3E3C7C7C381ED
:10058000FFFFFFFFFFFFFFFFFFFFFFFFFFFFFFFF7B
:100590007FFFFFFFFFFFFFFFFFFFFFFFE1E1E1E163
:1005A000E0C0FFFFFFFFFFFFFFFFFFFFFFFFFFFFB9
:1005B000FF7F3FFFFFFFFFFFFFFFFFFFFFFF010187
:1005C00000000000FFFFFFFFFFFFFF7F3F1F07004E
:1005D00000000000001140756DEAEAD710DFDF402F
:1005E00080BF4040408080001F1F1E3E3E3E3D3D7C
:1005F000397A7B787BF7F600FFEAE8D5D4D6109EEF
:10060000BEA2A2BE22A2444442813D3D3D3D3D3CAE
:100610003D3D3D393B383B3B3B807FAAA8AAA8AE75
:1006200020BEBCA1A1BF21A1A1A120C0F7F7F7F76F
:10063000F7787B7B3A3A3B3C3D9D9D403FF1E8F4A7
:10064000F8F4FAF4FA0101FF010100000000FFFFD5
:10065000FFFF7F3F8F472010070000000000008051
:100660000DFFFFFFFFFFFFFFFFFFFFFFFFFFFFFF8C
:10067000FFFFFFFFFFFFFFFFFFFFFFFFFFFFFFFF8A
:10068000FFFFFFFFFFFFFFFFFFFFFFFFFFFFFFFF7A
:10069000FFFFFFFFFFFFFFFFFFFFFFFFFFFFFFFF6A
:1006A000FFFFFFFFFFFFFFFFFFFFFFFFFFFFFFFF5A
:1006B000FFFFFFFFFFFFFFFFFFFFFFFFFFFFFFFF4A
:1006C000FFFFFFFFFFFFFFFFFFFFFFFFFFFFFFFF3A
:1006D000FFFFFFFFFFFFFFFFFFFFFFFFFFFFFFFF2A
:1006E000FF1F1F1F1F1F1F1F1F1F1F1F1F1F1F1F3A
:1006F0001F1F1F1F1F1F1F1F1F1F1F1F1F1F1F1F0A
:100700001F1F1F1F1F1F1F1F1F1F1F1F1F1F1F1FF9
:100710001F1F1F1F1F1F1F1F1F1F1F1F1F1F1F1FE9
:100720001F1F1F1F1F1F1F1F1F1F1F1F1F1F1F1FD9
:100730001F1F1F1F1F1F1F1F1F1F1F1F1F1F1F1FC9
:100740001F1F1F1F1F1F1F1F1F1F1F1F1F1F1F1FB9
:100750001F1F1F1F1F1F1F1F1F1F1F1F1F1F1F1FA9
:100760001F800DFEBEBEBEBEBEBEBABABA3A3ABA0F
:10077000BA9A8AAAA2B2B2BAB8B8BABABEBEBEBE55
:10078000BEBEBEBEBEBEBEBEBEBEBEBEBEBEBABA91
:10079000BABA3A1A8AA2B0B8BABABEBEBEBEBEBE15
:1007A000BEBEBEBEBEBEBEBEBEBEBEBEBEBEBEBE69
:1007B000BEBABAB8A0021ABABABABABABEBEBEBEF9
:1007C000BEBEBEBEBEBEBEBEBEBEBEBEBEBEBEBE49
:1007D000BABABABAB8B8B8B0A2820A1A3ABABABAA9
:1007E000BABABA1F1F0717131B191D1C1E1F1F1F84
:1007F0001F1F1F1F1F1F1F1F1F1F1F1F1F1F1F1F09
:100800001F1F1F1F1F1F1F1F1F1F1F1F1F1F1F0710
:10081000111C1E1F1F1F1F1F1F1F1F1F1F1F1F1FFA
:100820001F1F1F1F1F1F1F1F1F1F1F1F1F1F1F1FD8
:100830001F1F1F1F1F1F1C10030F1F1F1F1F1F1F06
:100840001F1F1F1F1F1F1F1F1F1F1F1F1F1F1F1FB8
:100850001F1F1F1F1F1F1F1F1F1F1F1E18100103F9
:100860000F1F1F8A03D40200020201AC00F0F8FC43
:10087000FEFFFFFFFF0707FFFFFFFFFFFFFFFF0078
:1008800000010307070707070700000A13F008F431
:1008900012B535E5050101FF00EF08288CEF0000D7
:1008A00000010205050505010000003C3E3F3F3FF9
:1008B0003E3C07063C023D0105023C3C0205013D71
:1008C000023C0000000080C0E0E0E0E0E0E0E0E0AA
:1008D000E0E0E0E0FCFEFFFFFFFEFCC08000000067
:1008E000000000FEFFFFFFFFFFFFFFFFFFFFFFFF16
:1008F000FFFFFFFFFFFFFFFFFFFFFFFFFFFCF80011
:100900000000FFFFFFFFFFFFFFFFFFFFFFFFFFFFF5
:10091000FFFFFFFFFFFFFFFFFFFFFFFFFFFF0006DF
:100920000F0F1F1F1F3F7F7F7F7F3F1F1F1F1F1F37
:100930001F1F1F3F7F7F7F7F3F1F1F1F0F071F1F2F
:10094000000000008040A0A0A0A0A0A0A0A0A0A0A7
:10095000A0A0BC828581BD823C40800000000000D8
:1009600000FE01FC85FD01FF03FDBDDDEDBD9D85A4
:10097000FD03FF0305BDDDAD3C380304F8000000B6
:10098000FF0082B24ABBBBBBBA7AFACACE8686CE19
:10099000CBFB7BBABABAB26AE2EA00FF0006090AE8
:1009A00016111623414C444123161113131313112E
:1009B0001623414C4441231611170807F8FCFEFF8B
:1009C000FFFFFFFFFFFFFFFFFFFFFFFFFFFFFFFF37
:1009D000FFFFFFFFFFFFFFFFFFFFFFFFFFFFFFFF27
:1009E000FFFFFFFFFFFFFFFFFFFFFFFEFCF8FFFF22
:1009F000FFFFFFFFFFFFFFFFFFFFFFFFFFFFFFFF07
:100A0000FFFFFFFFFFFFFFFFFFFFFFFFFFFFFFFFF6
:100A1000FFFFFFFFFFFFFFFFFFFFFFFFFFFFFFFFE6
:100A2000070F1F3F3F3F3F3F3F3F3F3F3F3F3F3F5E
:100A30003F3F3F3F3F3F3F3F3F3F3F3F3F3F3F3FC6
:100A40003F3F3F3F3F3F3F3F3F3F3F3F3F3F3F1FD6
:100A50000F07321600F804F20A0A0A0A0A0A4ACAFA
:100A6000CA4ACA8A0A4ACACA0A0ACACA0ACACA0AE6
:100A70008ACA4ACA8A0A4ACACA4ACA0A0A0A0A0A56
:100A80000A0AF204F80000FF00FF00000000000066
:100A900080FFFF880F0380FE27FFF8803FFF80FF65
:100AA0003F0043C78EFC780080FFFF84CE0000002B
:100AB00000000000FF00FF000007081314141414C6
:100AC00014141414141414141414141414141414E6
:100AD00014141414141414141414141414141414D6
:100AE00014141414141413080700F8FCFEFFFFFF7D
:100AF000FFFFFFFFFFFFFFFFFFFFFFFFFFFFFFFF06
:100B0000FFFFFFFFFFFFFFFFFFFFFFFFFFFFFFFFF5
:100B1000FFFFFFFFFFFFFFFFFFFFFFFFFFFFFFFFE5
:100B2000FFFFFFFFFFFFFFFEFCF8FFFFFFFFFFFFE0
:100B3000FFFFFFFFFFFFFFFFFFFFFFFFFFFFFFFFC5
:100B4000FFFFFFFFFFFFFFFFFFFFFFFFFFFFFFFFB5
:100B5000FFFFFFFFFFFFFFFFFFFFFFFFFFFFFFFFA5
:100B6000FFFFFFFFFFFFFFFFFFFF070F1F3F3F3F9D
:100B70003F3F3F3F3F3F3F3F3F3F3F3F3F3F3F3F85
:100B80003F3F3F3F3F3F3F3F3F3F3F3F3F3F3F3F75
:100B90003F3F3F3F3F3F3F3F3F3F3F3F3F3F3F3F65
:100BA0003F3F3F3F3F3F3F1F0F07401600F804F213
:100BB0000A0A0ACA4ACACA0A0A4ACACA0A0A4ACA55
:100BC000CA0ACACA4A4ACACA4ACA0A0A0A0A0ACA85
:100BD0004ACA0A4ACACA0ACA4A4ACACA4ACA0A4AB5
:100BE000CACA4ACA8A0A0A0AF204F80000FF00FFC9
:100BF00000003FFF807CFD0480FE27FFF88080FF1F
:100C00001F0EFFFF8080FFFF84CE000000003FFF2B
:100C100080FF3F0003FFFC070080FFFF84CE0080C1
:100C2000FFFF08FFF3800000FF00FF00000708132C
:100C30001414141414141414141414141414141474
:100C40001414141414141414141414141414141464
:100C50001414141414141414141414141414141454
:100C600014141414141414141308070004087EFF39
:100C7000817E82FEFF80C6A19FCE6689FF7638AC5A
:100C8000FFB06F89F9707EFF857883F1FD83768DE3
:100C900099761EBFA17E181AFFFFFFFFFFFFFFFF1F
:100CA000FFFFFFFFFFFFFFFFFFFFFFFFFFFFFFFF54
:100CB000DFDFDFDFDF5F5F5F5F1F1F1F1F5F5F5FC4
:100CC0005F5F5F5F5F5F5F5FF7F7F7F7F7F7F7F774
:100CD000F7F7F7F7F6F4F0E1C307173777F7F7F709
:100CE00003030303030303030303030303030303D4
:100CF00003030200000103030000000000000000E5
:100D000000000000000000000000000000000000E3
:100D1000C0C0C0C0C0404040400000000040404053
:100D20004040404040404040F7F7F7F7F7F7F7F70B
:100D3000F7F7F7F7F6F4F0E1C307173777F7F7F7A8
:100D40000303030303030303030303030303030373
:100D50000303020000010303F8FFFFFEFCFCFCFCA0
:100D60000303030303030303080A280709221424C7
:100D7000080401010201010101010000000070F8F6
:100D8000FCFEFEFFFFFEFC60000000000000000013
:100D90000000000000000060FCFEFFFFFEFEFCF80B
:100DA00070000000000080800082C7E7FFFFFFFFA7
:100DB000FFFEFCFCFC3838383838383838B8B838DA
:100DC000FCFCFCFFFFFFFFFFFFC7870200000000E5
:100DD000070F1F1F0F07010100040E1F3F3F1B01DC
:100DE0000000000000000003070F1F0F07010000B4
:100DF00000000F1F1F1F1E0C0000000000000070ED
:100E0000F8FCFEFEFFFFFEFC60000000000000009A
:100E1000000000000000000060FCFEFFFFFEFEFC82
:100E2000F870000000000000000002C7E7FFFFFFAD
:100E3000FFFFFEFCFCFC38B8B83838383838383892
:100E4000B8FCFCFCFFFFFFFFFFFFC78702808000AC
:100E5000000000000C1E1F1F1F0F000000000107F4
:100E60000F1F0F0703000000000000011B3F3F1F82
:100E70000E04000101070F1F1F0F07002B160000B3
:100E8000000070880402160141229C6000000000EE
:100E90000000000000000000000000609C224101F2
:100EA0001602048870000000000080800082452443
:100EB0003E80808091322444C4282828282828286D
:100EC00028A8A828C4442493918080003E44850229
:100ED00000000000070810110806010100040A11B3
:100EE00021241A010000000000000003040811087A
:100EF0000601000000000F101213120C0000000089
:100F000000000070880402160141229C600000006D
:100F1000000000000000000000000000609C224172
:100F2000011602048870000000000000000002C5E5
:100F3000243E00808091B22444C428A8A8282828F0
:100F400028282828A844442493918080003E448582
:100F500002808000000000000C121312100F00002D
:100F60000000010608110804030000000000000151
:100F70001A2421110A0400010106081110080700B3
:100F80002C0CFD0505B585CDFD0504D41505CFFF59
:100F90000707D79767FF4F87971727FF4F87971741
:100FA00027DFFF070301F14949F1010305FD010AAC
:100FB000020503070306020B030602070206020AE4
:100FC000020502060206010B020602060304010ADC
:100FD000040809080809080C02050408022905028A
:100FE0003E09093E3F25251A1E2121123F21211EBF
:100FF0003F2525213F0505011E21293A3F04043FD5
:10100000213F21001021211F3F040A313F202020D1
:101010003F02023F3F02043F1E21211E3F090906F5
:101020001E21112E3F09093622252519013F0101F4
:101030001F20201F0F10201F3F10103F3B04043BB8
:1010400003043807312D23211E29251E223F2000AD
:10105000322929261221251A0C0A3F08172525199D
:101060001E252518013905031A25251A0629291ECA
:10107000F8FCFEFFFFFFFFFFFFFFFFFFFFFFFFFF8B
:10108000FFFFFFFFFFFFFFFFFFFFFFFFFFFFFFFF70
:10109000FFFFFFFFFFFFFFFFFFFFFFFFFFFFFFFF60
:1010A000FFFFFFFFFFFFFFFFFFFFFFFFFFFFFFFF50
:1010B000FFFFFFFFFFFFFFFEFCF8FFFFFFFFFFFF4B
:1010C000FFFFFFFFFFFFFFFFFFFFFFFFFFFFFFFF30
:1010D000FFFFFFFFFFFFFFFFFFFFFFFFFFFFFFFF20
:1010E000FFFFFFFFFFFFFFFFFFFFFFFFFFFFFFFF10
:1010F000FFFFFFFFFFFFFFFFFFFFFFFFFFFFFFFF00
:10110000FFFFFFFFFFFFFFFFFFFFFFFFFFFFFFFFEF
:10111000FFFFFFFFFFFFFFFFFFFFFFFFFFFFFFFFDF
:10112000FFFFFFFFFFFFFFFFFFFFFFFFFFFFFFFFCF
:10113000FFFFFFFFFFFFFFFFFFFFFFFFFFFFFFFFBF
:10114000FFFFFFFFFFFFFFFFFFFFFFFFFFFFFFFFAF
:10115000FFFFFFFFFFFFFFFFFFFFFFFFFFFFFFFF9F
:10116000FFFFFFFFFFFFFFFFFFFFFFFFFFFFFFFF8F
:10117000FFFFFFFFFFFFFFFFFFFFFFFFFFFFFFFF7F
:10118000FFFFFFFFFFFFFFFFFFFFFFFFFFFFFFFF6F
:10119000FFFFFFFFFFFFFFFF0103070F0F0F0F0F01
:1011A0000F0F0F0F0F0F0F0F0F0F0F0F0F0F0F0F4F
:1011B0000F0F0F0F0F0F0F0F0F0F0F0F0F0F0F0F3F
:1011C0000F0F0F0F0F0F0F0F0F0F0F0F0F0F0F0F2F
:1011D0000F0F0F0F0F0F0F0F0F0F0F0F0F0F0F0727
:1011E00003014A24F804FA0D050505050505050562
:1011F000050505050505050505050505050505059F
:10120000050505050505050505050505050505058E
:10121000050505050505050505050505050505057E
:10122000050505050505050505050DFA04F8FF008A
:10123000FF000000000000000000000000000000AF
:10124000000000000000000000000000000000009E
:10125000000000000000000000000000000000008E
:10126000000000000000000000000000000000007E
:101270000000000000FF00FFFF00FF000000000072
:10128000000000000000000000000000000000005E
:10129000000000000000000000000000000000004E
:1012A000000000000000000000000000000000003E
:1012B000000000000000000000000000000000FF2F
:1012C00000FFFF00FF000000000000000000000021
:1012D000000000000000000000000000000000000E
:1012E00000000000000000000000000000000000FE
:1012F00000000000000000000000000000000000EE
:10130000000000000000000000FF00FF0102050BCC
:101310000A0A0A0A0A0A0A0A0A0A0A0A0A0A0A0A2D
:101320000A0A0A0A0A0A0A0A0A0A0A0A0A0A0A0A1D
:101330000A0A0A0A0A0A0A0A0A0A0A0A0A0A0A0A0D
:101340000A0A0A0A0A0A0A0A0A0A0A0A0A0A0A0AFD
:101350000A0A0B05020102FFFFFFFEFEFFFFFFFF6F
:10136000FFFFFFFEFEFFC7EFFFEEFFFFFFFEFEFFEA
:10137000FFFF02003CFEFFFFFFFFFEFEFFFF1FFE20
:10138000FCFEFFFFFEFEFFFFFFFFFFFFFEBEFFFFB5
:10139000FFFFF7EF3EFEFFFFFFFF8E081F1F1F0F2F
:1013A0000F1F1F1F1F1F1F1F0F0F1F1F0F1F0F1F9D
:1013B0001F1F0F0F1F1F1F08000E1F1F1F1F0F07CC
:1013C0000F1F1F0F07070F1F1F0F0F1F1F1F0F0FCD
:1013D0001F1F1F1F1F1F1F1F1F0E1F1F1F1F0F0756
:1013E000450D02FD0101DEDE0101FDFD0101FD06ED
:1013F00002FDC52931AEFD0101DEDE0101FD020065
:101400003CC2010D1971FE0201FD11FE0402FDFD39
:101410000206FD0101BDBD0142BEFD0101BD15E990
:101420003EC2010D19718E081710100F0F10101702
:10143000171010170C08171708100F1710100F0FA0
:1014400010101708000E11131610080708101709BE
:101450000704081717080C1710100F0F1010171794
:1014600010101717110E1113161008071D251E2036
:101470001F1B20162111220C2308240525032602F8
:10148000270129012A022B032C052D072E0A2F0DD7
:1014900030113116321B332134253521361E371ACF
:1014A000381639123A0E3B0B3C093D083E073F0700
:1014B000400741084209430B440E45124616471A9D
:1014C000481E49214A254B224C1F4D1C4E1A4F18CD
:1014D000511653155514571459145B145D155F16A6
:1014E0006118621A631C641F6522662503040704E1
:1014F0000316124A2B462B422B3F2A3C293A273906
:10150000243820371B37163711370C380839053A7D
:10151000033C023E014100440047004A004C0012D7
:101520000E372B3725371F37193713370D38083942
:10153000053A033C013E0140004200440046004899
:10154000004A004C00130F202B22252420261B28A4
:10155000162A112C0C2E0830053203350238013BB7
:10156000003E004100440047004A004C0094023213
:101570000000806C0232000080440232000080943F
:10158000023200B8013200B40032000080DC0032C8
:1015900000B801320070033200008080C0E0F0E04B
:1015A000C4CEFFFFFFFFCEC4E0F0E0C08003173FD2
:1015B0007FFFFFFFFFFFFFFFFFFFFF7F3F170300DE
:1015C0000000000001010000000001010000000017
:1015D0000000000000C0E4CEFFFFFFFFCEE4C0002B
:1015E0000000000000001FBFFFFFFFFFFFFFFFFF25
:1015F000BF1F00000000000000000101000000000B
:101600000101000000000000000000C0E4CEFFFF68
:10161000FFFFCEE4C0000000000000000087DFFFF5
:10162000FFFFFFFFFFDF8700000000000000000059
:1016300001010000000001010000000000000000A6
:10164000000004CEFFFFFFFFCE04000000000000FA
:1016500000000080D8FDFFFFFFFFFDD880000000E4
:101660000000000000000101000000000101000076
:1016700000000012118040A01020C4CA3515153595
:10168000CAC42010A0408002152851C65865BA81EE
:1016900081BA6558C65128150200000000000101FA
:1016A000000000000101000000000000000000C078
:1016B00024CA35151535CA24C000000000000000FA
:1016C0001FA05865BA8181BA6558A01F00000000AC
:1016D0000000000001010000000001010000000006
:1016E0000000000000C024CA35151535CA24C0000A
:1016F00000000000000000875865BA8181BA655873
:101700008700000000000000000001010000000050
:1017100001010000000000000000000004CA3515AF
:101720001535CA0400000000000000000080586564
:10173000BA8181BA655880000000000000000000F6
:10174000010100000000010100000000003E7F3E9A
:101750007F3E7F7F3E7F7E3E7F3F0E2E7F2E110796
:101760003E4136413E41553E415E3E41350A2E5195
:101770002EC0E0E0F0F0F0F0F8FCFEFF7F7FFEFC12
:1017800060000101070707070707070704000000BB
:1017900000100BC0202010D0D050180402816141ED
:1017A000829C6000010107010000000400030400A6
:1017B0000000000E0E0E1F1F1F1F1F1F0E0E0E001B
:1017C0001C1F1F1F1F1F1F1F1F070000071F1F1F9A
:1017D0001F1F1F1F1F1C000C050E0A0E1F151F1FA9
:1017E000151F0E0A0E000400000A00000A00000483
:1017F00000001C171D1F171D1F171D0700000008E4
:1018000002000802000802000000071D171F1D1734
:101810001F1D171C0000000208000208000208003B
:1018200000C0E0E0F0FCFEFFFFFFFEFFF6F8F0F086
:1018300060003179797D3F0F0F0F0F07070F1E0FE3
:10184000060E1F1FFEF8F0FFFFFFFFFCF8F8F0E0A8
:1018500000000010397F7F2F3F7F7F3F0B0707027B
:101860000030F8BCF8F0F0F8F8F8F8FEDFCFCFC69B
:10187000800307070F377F3F7F7F7F3F1F070303EB
:1018800001A0F0F0E8FEFFFFFEFAFFFFCE0400002B
:101890000003070F0F1F7F7F7F7F070F3F7C7C3880
:1018A000000030F8FCFEFEFEFC7E3CF8F8F0C000C4
:1018B00000163F3F1F0F1F3F3F3F3F1F1F1F1F1FB0
:1018C0000E00C6EFFEFFFFFEFCFCFEFEFCF8700003
:1018D0000000033F7F7F7F3F3C3D1F1F0F03010040
:1018E00000387CFCFCFCFC7E7EFEFEFCF8FCFE7EF0
:1018F00034000001070F0F1E3F1F3F3F3F1F0F0621
:10190000000040E0F8FCFCDE9EFEFFFFFFFEE00072
:101910000000070F1F3F3F1F1F3F7F7F3F7B3100AE
:1019200000100FC02020107CC28109191A69368866
:101930009090600031494945320A080808050509B8
:101940001209060E1111E608300F31190B8CC80868
:1019500010E0000000102946502E384346350B0495
:1019600005020030C8A4C85050080808A8A651496C
:1019700049468003040408364B2D4C4840211F047F
:10198000020201A05010E8D631610E3A0531CA04B6
:101990000000000304080918684C46780608334420
:1019A0004438000030C884020222B4523CC80830D7
:1019B000C000001629241E08102020232D161617FB
:1019C00011110E00C6291A0D09028C04C282048866
:1019D00070000000033C424E5D33242512130E02BA
:1019E0000100003844C47434B45A6282020408BC52
:1019F000924A340000010608091E251622202010F4
:101A00000906000040A038E4A45292665D39211E08
:101A1000E0000000070810202110182048582C4A28
:101A20003100000000000070F8FCFEFEFFFFFEFC2D
:101A30006000000000000000000000000000000046
:101A400060FCFEFFFFFEFEFCF8700000000000805E
:101A5000800082C7E7FFFFFFFFFFFEFCFCFC383879
:101A6000383838383838B8B838FCFCFCFFFFFFFF8E
:101A7000FFFFC7870200000000070F1F1F0F0701AD
:101A80000100040E1F3F3F1B01000000000000008A
:101A900003070F1F0F0701000000000F1F1F1F1E6D
:101AA0000C0000000000000070F8FCFEFEFFFFFECE
:101AB000FC600000000000000000000000000000CA
:101AC0000060FCFEFFFFFEFEFCF87000000000005E
:101AD00000000002C7E7FFFFFFFFFFFEFCFCFC3831
:101AE000B8B838383838383838B8FCFCFCFFFFFF55
:101AF000FFFFFFC78702808000000000000C1E1F50
:101B00001F1F0F0000000001070F1F0F0703000039
:101B100000000000011B3F3F1F0E04000101070FE2
:101B20001F1F0F07002B160000000070880402160C
:101B30000141229C60000000000000000000000045
:101B400000000000609C2241011602048870000021
:101B50000000008080008245243E808080913224F5
:101B600044C42828282828282828A8A828C4442489
:101B700093918080003E4485020000000007081019
:101B8000110806010100040A1121241A01000000B5
:101B90000000000003040811080601000000000F07
:101BA000101213120C0000000000000070880402E4
:101BB000160141229C6000000000000000000000AF
:101BC0000000000000609C224101160204887000A1
:101BD0000000000000000002C5243E00808091B299
:101BE0002444C428A8A828282828282828A8444409
:101BF0002493918080003E44850280800000000094
:101C0000000C121312100F0000000001060811084A
:101C10000403000000000000011A2421110A04003E
:101C2000010106081110080700DC003200B801327B
:101C3000007003320000801E002300410014006E7B
:101C4000000F0055002D00008094023200B80132D0
:101C500000B4003200008000FCFEFFFFFFFFFFFF2A
:101C6000FFFFFFFFFFFFFFFFFFFFFFFFFFFFFFFF84
:101C7000FFFFFFFFFFFFFFFFFFFFFFFEFC00103F26
:101C80007FFFFFFFFFFFFFFFFFFFFFFFFFFFFFFFE4
:101C9000FFFFFFFFFFFFFFFFFFFFFFFFFFFFFFFF54
:101CA000FFFF7F3F10271000FC020101010101012D
:101CB0000101010101010101010101010101010114
:101CC000010101010101010101010102FC00102FCC
:101CD00050A0A0A0A0A0A0A0A0A0A0A0A0A0A0A054
:101CE000A0A0A0A0A0A0A0A0A0A0A0A0A0A0A0A0F4
:101CF000A0A0502F100000000000C0E0F0F0E0C0F5
:101D000000000000000000000000010303010000CB
:101D100000000000000080E0F0F8F8F8F0E0C000FB
:101D20000000000000010307070F0F070301000078
:101D300000C0E0F8FCFEFEFFFFFFFFFEFEFCF8F037
:101D400003070F1F1F3F7F7F7F7F3F1F0F03010090
:101D500080D8FCFE7E3F1E0C9C3E7F3F9E0C0307FE
:101D60000F1F1F0F0E1E3F7F3F1E0D0301000C9E15
:101D7000BF3F1E0400040E1F3F3F1E0C060F1F3FF7
:101D80001F0E0400081C3E7F3F1E0C0002070F06BA
:101D90000000000000070F1F1E1C0E1E3E3C3800F6
:101DA00000000010387C381000020702000000001C
:101DB0000000000002070E04081C3810000000009C
:101DC000000000002070200F0F0000000000C02065
:101DD000D0D020C000000000000000000000010280
:101DE00002010000000000000000000000C02020F0
:101DF000C000000000000000000000000001010021
:101E00000000000000000000806090E8E8C8D020DA
:101E1000C0000000000000010205050B0B050201D7
:101E200000000000000000806010103020C00000A2
:101E30000000000000000102020404020100000092
:101E400000C020D8E4DAFAFDFDFDF5FAFAF408F056
:101E500003040B17172B5F5F5F5E2D130D0201004C
:101E6000C0201824040202020A040408F00000033F
:101E70000408081420202021120C020100008058C0
:101E800064DA5A2D120C942A5D2D920C03040B1760
:101E900016090E122D5E2D120D02010000809824ED
:101EA00024120C00081422120C0000030408090676
:101EB000000C1221120C000100000C92AD251A0436
:101EC00000040A152D2D120C0609162E150A040001
:101ED00008142A5D2D120C00000C121A04000000D8
:101EE000040A12120C00000609110A04000000087E
:101EF0001422120C00000205090600000000000672
:101F00000915120C0C122A24380000000010285465
:101F10002810000002070F060000000000060F1F37
:101F20001E0C0C1E3E3C380000000010387C38109F
:101F300000020502000000000000000002070E047D
:101F4000081C381000000000000000002070200075
:101F50000200000000000000000000020400000871
:101F60001000000000000000000000200000000041
:101F700000000000000000000000FCFEFFFFFFFF6B
:101F8000FFFFFFFFFFFEFCF8E0C00080F8FCFEFF53
:101F9000FFFFFFFFFFFFFFFFFFFFFFFFFFFFFFFF51
:101FA000FFFFFFFFFFFFFFFF8007070F0F0F1F3F20
:101FB0003F3F3F1F0F0F0F0F0F0F0F0F1F3F3F3FF1
:101FC0003F1F0F0F0F07030080C0C0C0C0E0F0E04C
:101FD000E0C0C0C0C0C0C0C0C0C0C0800000000021
:101FE000000000000000F8FDFFFFFFFFFFFFFFFF04
:101FF000FFFFFFFFFFFFFFFFFFFFFFFEFEFEFCF8FE
:10200000F0E0800003070F0F1F3F3F3F3F1F0F0F00
:102010000F0F0F0F0F0F0F1F3F3F3F3F1F0F0F07F8
:10202000031E180000000000000000000000000077
:10203000FC022501FDFD1DED2D2D29A2C41820C097
:1020400000807804D255B5D55555D5B575F5F5F060
:10205000F7F0FF7FB8D75456D7B571F0807F80076F
:10206000040B080B1120262220110B08090909096D
:10207000080B1120262220110B080B0403008040BE
:102080004040406050202040404040404040404060
:10209000408000000000000000000000F80542241D
:1020A00092D05052D6900636666676767672308238
:1020B000C55252D2B428106080000304080B1120CE
:1020C000262220110B0A0A0A0A0A0A0A0B112026E4
:1020D0002220110B0904033C7EFFFFFFFF7E3C0022
:1020E0003C7EFFFF7E3C0000003CFFFF3C00000008
:1020F0003C7EFFFF7E3C0008083C42BDADA5BD42D2
:102100003C003C42BDAD423C0000003CFFC33C00F3
:1021100000003C42A5BD423C00100803030303033A
:102120000303030303030303030303FFFFFFFEFC97
:10213000FCFCFCFFFFFFFEFCFCFCFC0303030303B1
:102140000303030303030303030303100A108E9224
:1021500084A8889088108E9284A8889088030202B0
:102160000202020202030202020202020200000054
:10217000000000000000000000000000000000005F
:10218000000000FEFEFEFEFEF8F8F8F8F8FEFEFE87
:10219000FEFEFEFEFEFEFEFEF8F8F8F8F8FEFEFE7D
:1021A000FEFE000000000000000000000000000033
:1021B0000000000000F8FCFCFCFCFCFCFCFCFCFC4F
:1021C000000000FFFFFFFFFFFFFFFFFFFFFFFFFF1C
:1021D000FFFFFFFFFFFFFFFFFFFFFFFFFFFFFFFF0F
:1021E000FFFF0000000000000000000000000000F1
:1021F0000000000080C3E7F7FFFFFFFFFFFFFFFFC6
:10220000F0F0F0FFFFFFFFFFFFFFFFFFFFFFFFFF0B
:10221000FFFFFFFFFFFFFFFFFFFFFFFFFFFFFFFFCE
:10222000FFFF0000000000000000000000000000B0
:10223000000000000000000000000000000000009E
:10224000000000000000000000000000000000008E
:10225000000000000000000000000000000000007E
:1022600000000000000000000000000000401C0012
:10227000000000000000000000000000000000005E
:10228000000000000000FCFCFC009090109090000A
:10229000FCFCFCECC4ECFCFCFC009090109090006A
:1022A000FCFCFC000000000000000000000000003A
:1022B0000000000000000000F0080848E848080896
:1022C000F80000000000FFFFFF00F77300F7730045
:1022D000FFFFFFFFABFFFFFFFF00F77300F7730087
:1022E000FFFFFF00000000000000000000000000F1
:1022F0000000000000000080C1E272BA5AAA52AA8F
:1023000053A040A040A0FFFFFF00DECEC0DECE0005
:10231000FF0BFF02E202FF0BFF00DECEC0DECE00AD
:10232000FFFFFF00000000000000000000000000B0
:10233000000000000000000000000000000000009D
:10234000000000000000000000000000000000008D
:10235000000000000000000000000000000000007D
:10236000000000000000000000000000000000006D
:10237000000000000000000018FCFEFEFEFEFEFE55
:10238000FEFEFEFC98C0C0C0C0C0C0C0C0D8FCFEED
:10239000FEFEFEFEFEFEFEFEFC98C0C0ECFEFFDE72
:1023A000C8C0C08000000000000000000000006005
:1023B000F0F8FCFEFFFFFEFCE0FFFFFFFFFFFFFF6A
:1023C000FFFFFFFFFFFFFFFFFFFFFFFFFFFFFFFF1D
:1023D000FFFFFFFFFFFFFFFFFFFFFFFFFFFFFFFF0D
:1023E000FFFFFFFF030000000000000000000000EE
:1023F000000103FFFFFFFFFFFFFFFFFFFFFFFFFFE6
:10240000FFFFFFFFFFFFFFFFFFFFFFFFFFFFFFFFDC
:10241000FFFFFFFFFFFFFFFFFFFFFFFFFFFFFFFFCC
:10242000FFFFFFFF000000000000000000000000B0
:10243000000000000000000000000000000000009C
:10244000000000000000000000000000000000008C
:10245000000000000000000000000000000000007C
:10246000000000000000000000000000000000402C
:102470001C0000000000000000000008E414D45418
:1024800014D45414E4080080808080808080808090
:1024900008E414D45414D45414E40800808080ACAC
:1024A0009288808080000000000000000000000092
:1024B00000002050A854AA54A8408000FF00D6D2A3
:1024C00010D6D200FF0001FC02DA4A02DA4A02FC0E
:1024D00001FC00D6D210D6D200FF0001FC02DA4A7D
:1024E00002DA4A02FC0100000000000000000000C7
:1024F000000000000001F60600050E00FF00FE06C9
:102500000206FE00FF0000FF00FAFA02FAFA00FFDE
:1025100000FF00FE060206FE00FF0000FF00FAFAC0
:1025200002FAFA00FF0000000000000000000000B6
:10253000000000000000000000000000000000009B
:10254000000000000000000000000000000000008B
:10255000000000000000000000000000000000007B
:10256000000000000000000000000000000000006B
:10257000000208D4D205087F7F3E1C084120FE01DE
:1025800005F1F1F111D1B1D111F151515151515127
:1025900051515151515151510000FF00007F7F09AD
:1025A000090F06007F7F19396F46007F7F49494137
:1025B0004100266F49497B3200266F49497B32FF33
:1025C0000000FFFFFFFEFFFEFF0279CD95A5CD794C
:1025D0000111111101F9F901010000FF00007F7FD5
:1025E00009090F06007F7F40404040007C7E0B0BB6
:1025F0007E7C00070F78780F0700000000000000C5
:10260000FF00001F3F3F33333333333E36363E3611
:102610003E363E36363E36363E360000FF00003E41
:102620007F41417F3E007F7F0E1C7F7F00000000C6
:10263000000000000000000000000000000000009A
:10264000003F405040404078464141595941414146
:10265000415959414141414141414100007F000000
:1026600001017F7F0101007C7E0B0B7E7C007F7F60
:1026700009090F06007F7F49494141000000000021
:10268000000093023C0100005300DC033C01000009
:10269000530027053C0100005300DC039E000000AE
:1026A000290027059E000000290093023C0100003C
:1026B0005300DC03900127053C010000E301930275
:1026C0003C0100005300DC033C01000053002705DF
:1026D0003C0100005300DC039E0000002900270598
:1026E0009E000000290093023C0100005300DC031F
:1026F000900127053C010000E3012A023C01000093
:1027000053003F033C010000530055043C0100000E
:1027100053003F039E000000290055049E00000066
:1027200029002A023C01000053003F039001550498
:102730003C010000E3012A023C01000053003F037A
:102740003C010000530055043C01000053003F03CE
:102750009E000000290055049E00000029002A0266
:102760003C01000053003F03900155043C01000070
:10277000E301000088130180FCFEFFFFFFFFFFFF65
:10278000FFFFFFFFFFFFFFFFFFFFFFFFFFFFFFFF59
:10279000FFFFFFFFFFFFFFFFFFFFFFFFFFFEFC014B
:1027A00003070707070707070707070707070707BD
:1027B0000707070707070707070707070707070FA1
:1027C0001F3F07070301271000FCFE867E86FE0ED2
:1027D000B60EFE06EE06FE06D6EEFE06FE06B64E69
:1027E000FE06FE8E76AEFE6E56B6FE46FEFC00007F
:1027F00001030303030303030303030303030303AB
:102800000303030303030303030303030303030794
:102810000F0303030100FCFEFFFFFFFFFFFFFFFFAD
:10282000FFFFFFFFFFFFFFFFFFFFFFFFFFFFFFFFB8
:10283000FFFFFFFFFFFEFC010307073F1F0F070716
:102840000707070707070707070707070707070718
:102850000707070707070301211000FCFE06D6F64D
:10286000FE06FE067E7EFE06EE06FE8E768EFEF6E8
:1028700006F6FE065676FE46FEFC00000103030344
:102880000F07030303030303030303030303030308
:10289000030303030303030303030100FCFEFFFF21
:1028A000FFFFFFFFFFFFFFFFFFFFFFFFFFFFFFFE39
:1028B000FC010307073F1F0F070707070707070765
:1028C000070707070301FCFEFFFFFFFFFFFFFFFFF6
:1028D000FFFFFFFFFFFFFFFFFFFEFC0103070707EE
:1028E0000707070707070707070F1F3F070703012A
:1028F000151000FCFE06DE06FE0656FE067EFE06EF
:10290000D6EEFE46FEFC0000010303030F0703039F
:1029100003030303030303030303010000FCFE0698
:10292000DE06FE0656FE067EFE06D6EEFE46FEFCE1
:10293000000001030303030303030303030303076B
:102940000F030303010060FCFE7F7FFFFEFCF8F035
:10295000F0F0F0E0E0C00000000004070707070700
:10296000070707010100100B609C8241618102048E
:102970001850D0D0102020C0000000000403000434
:102980000000000107010100C0E0E0F0F0F0F0F805
:10299000FCFEFF7F7FFEFC600001010707070707C1
:1029A0000707070400000000100BC0202010D0D043
:1029B00050180402816141829C60000101070100FE
:1029C000000004000304000000002C0CFD0505B508
:1029D00085CDFD0504D41505CFFF0707D79767FF01
:1029E0004F87971727FF4F87971727DFFF070301A9
:1029F000F14949F1010305FD010A02050307030638
:102A0000020B030602070206020A0205020602067C
:102A1000010B020602060304010A0408090808095A
:102A2000080C02050410A854A850AA55AA55A05095
:102A3000A040AA55AA55A854AA54AA55AA550410AC
:102A4000004040E054AA54A8005040E055AA55A8C0
:102A5000004040E054AA54A80310000000AA55AA60
:102A6000A050A0AA55AAA854A8AA55AA04100000CC
:102A70008000AA55AA55A050A040AA55AA55A8540E
:102A8000A850AA55AA5504100040A050AA55AA550E
:102A9000A050A040AA55AA558040A040AA55AA55CA
:102AA000F8FCFEFFFFFFFFFFFFFFFFFFFFFFFFFF41
:102AB000FFFFFFFFFFFFFFFFFFFFFFFFFFFFFFFF26
:102AC000FFFFFFFFFFFFFFFFFFFFFFFFFFFFFFFF16
:102AD000FFFFFFFFFFFFFFFFFFFFFFFFFEFCF8FF11
:102AE000FFFFFFFFFFFFFFFFFFFFFFFFFFFFFFFFF6
:102AF000FFFFFFFFFFFFFFFFFFFFFFFFFFFFFFFFE6
:102B0000FFFFFFFFFFFFFFFFFFFFFFFFFFFFFFFFD5
:102B1000FFFFFFFFFFFFFFFFFFFFFFFFFFFFFFFFC5
:102B2000FFFFFFFFFFFFFFFFFFFFFFFFFFFFFFFFB5
:102B3000FFFFFFFFFFFFFFFFFFFFFFFFFFFFFFFFA5
:102B4000FFFFFFFFFFFFFFFFFFFFFFFFFFFFFFFF95
:102B5000FFFFFFFFFFFFFFFFFFFFFFFFFFFFFFFF85
:102B6000FFFFFFFFFFFFFFFFFFFFFFFFFFFFFFFF75
:102B7000FFFFFFFFFFFFFFFFFFFFFFFFFFFFFFFF65
:102B8000FFFFFFFFFFFFFFFFFFFFFFFFFFFFFFFF55
:102B9000FFFFFFFFFFFFFFFFFFFFFFFFFFFFFFFF45
:102BA000FFFFFFFFFFFFFFFFFFFFFFFFFFFFFFFF35
:102BB000FFFFFFFFFFFFFFFFFFFFFFFFFFFFFFFF25
:102BC000FFFFFFFFFFFFFFFFFFFFFFFFFFFFFFFF15
:102BD000FFFFFFFFFFFFFFFFFFFFFFFFFFFFFFFF05
:102BE000FFFFFFFFFFFFFFFFFFFFFFFFFFFFFFFFF5
:102BF000FFFFFFFFFFFFFFFFFFFFFFFFFFFFFFFFE5
:102C0000FFFFFFFFFFFFFFFFFFFFFFFFFFFFFFFFD4
:102C1000FFFFFFFFFFFFFFFFFFFF000103070707A5
:102C20000707070707070707070707070707070734
:102C30000707070707070707070707070707070724
:102C40000707070707070707070707070707070714
:102C50000707070707070301003F33F804FA0D05CC
:102C6000E5E52525252525252525252525E52525D4
:102C7000252525252525E525252525252525252544
:102C8000252565E5E5E5E5252525252525252525B4
:102C90002525E5E5E5050DFA04F8FF00FF0000FF36
:102CA000FFFF000000000000FF1F1C18F8FF0000DD
:102CB00000000000FFFFFF0000000000FFFFFF001A
:102CC0000000000083FFFF000000000000FFFF3F46
:102CD00038F8FFFF0000FF00FFFF00FF0000FFFFCC
:102CE000FF000000000000FCF0F0F0FFFF0000001B
:102CF000000000FFFFFF0000000000FBFBF10000F0
:102D000004040E3FFFFF000000000000FDFDE0E0B6
:102D1000FFFFFF0000FF00FFFF00FF0000FFFFCFED
:102D2000C0C0C0C0C0404F7F7F7F7F4FC0C0C04089
:102D300040404FFFCF4040C0C0C04F7F7FE0404089
:102D4000404040FFCFC040404040C0CFCFC7C0F060
:102D5000FFFF0000FF00FFFF00FF0000FFFF9F2FAD
:102D600037470F9FFF0000007F7F0080C1FF03FCFB
:102D7000000001FFFF00C0030F3F0000FFFF000045
:102D800000FFFF030000FFFEF89F2F37470F9FFF54
:102D9000FF0000FF00FFFF00FF80003F3F3F3F3E7E
:102DA0003E3F3F2F2020202F3F3F3F2F202D3D2D06
:102DB0002020202F202F3F3C3020203F2F2020207C
:102DC0002F3F3C30202F27333F3F3E3E3F3F3F3F8A
:102DD0000080FF00FF00010205050505050505054A
:102DE0000505050505050505050505050505050593
:102DF0000505050505050505050505050505050583
:102E00000505050505050505050505050505050572
:102E100005020100F8FFFFFEFCFCFCFC03030303BA
:102E200003030303080A28070922142408040101E4
:102E300002010101010118BCFEFFFFFEFCFEFFFFC5
:102E4000FEBC1803070F1F1F0F070F1F1F0F0703DD
:102E50000D0D18A4422151EAF4E2418142A4180365
:102E60000408101008050A1110080403532F112438
:102E70001FBECFEFDAE0DEBFCDBF11E0A0E0B1E0D2
:102E8000E0E0F8E602C005900D92AA37B107D9F745
:102E900026E0AAE7B1E001C01D92A138B207E1F730
:102EA00017E1C7E3D7E104C02197FE010E94F13387
:102EB000C633D107C9F70E940B300C94FE330C9433
:102EC0000000E1E8F2E081E0A0E0B8E000800EBCA4
:102ED0008111012C1197A0FDFDCF0192B9F70DB41E
:102EE000089580389105A8F46034710590F490E15C
:102EF00021E061FD24E060FD220F62FD2295687FE4
:102F0000969FD0011124A80FAF57BD4F8C91822BF3
:102F10008C9308950F931F93CF93DF9350E0EA01B2
:102F20006596DC0180E08B01015E1F4F9EE0415EF3
:102F30005F4F99962C9199972223D9F09496ED9111
:102F4000FC91959796962C919697E017F1078CF443
:102F50007E966E177F076CF4299F90011124F9016A
:102F60007B96E417F5072CF42B5D3F4FC217D30770
:102F70002CF08F5F17968330E1F68FEFDF91CF91C2
:102F80001F910F9108956F927F928F929F92AF92AF
:102F9000BF92CF92DF92EF92FF920F931F93CF9346
:102FA000DF939C01FA0194903196E491C92CD12CC5
:102FB000C601820F931F803891051CF080E8982E7F
:102FC000921AEB0183E0D595C7958A95E1F78C2F8E
:102FD00091E0FE2FF77009F490E0E695E695E6950E
:102FE0009E0FFE01E90FF11D399714F098E09C1B2C
:102FF0004E5F5F4FE62FE7708E2E8E011695102FD5
:10300000002717950795020F131FAE2E0E2E000CEA
:10301000BB08AFEFB0E002C0AA0FBB1FEA95E2F712
:10302000A095B0957B2E282F2C1B291798F5B80159
:103030006F577D4FF12CE12CE91430F5FA01EE0DBC
:10304000FF1D249130E00A2C02C0220F331F0A9486
:10305000E2F787FD08C0FB016080E62DEA236E2EB3
:10306000622AFB016082882049F087303CF4FB0132
:10307000E058FF4F20812721232B2083FFEFEF1AF9
:10308000FF0A6F5F7F4FD8CF4C0D5D1D00581F4F5B
:103090008F5FC9CFDF91CF911F910F91FF90EF907C
:1030A000DF90CF90BF90AF909F908F907F906F9068
:1030B0000895ADE7B2E02FB7F8947D918D919C9182
:1030C00066B52FBFA89B05C06F3F18F47F5F8F4F79
:1030D0009F4F22E0660F771F881F991F2A95D1F70F
:1030E00008952F923F924F925F926F927F928F92AC
:1030F0009F92AF92BF92CF92DF92EF92FF920F9387
:103100001F93CF93DF9300D000D000D0CDB7DEB7B0
:10311000DB014115510509F448C1FA01949031963B
:1031200074914E5F5F4F692C712C7A8269822111F4
:1031300002C0EE2021F1E1E0F0E0372F377011F40A
:10314000F0E0E0E0A72EA694A694A694AE0EBF2EC3
:10315000B11C69807A80A69CF001A79CF00DB69CFA
:10316000F00D112463E0762EC710F4C0EE0FFF1FA0
:103170002E9F70012F9FF00C11244E0D5F1D298191
:103180003A81280F391F3A832983121613060CF04F
:103190000CC1803891050CF008C19D01270F311D2D
:1031A000121613060CF001C1A034B1050CF0FDC0DD
:1031B0004115510509F4F9C03A2F3770632E9D016E
:1031C000B7FF02C0295F3F4FE3E035952795EA95A9
:1031D000E1F7F22FB7FF04C0662011F0FFEFF20F06
:1031E00022273327281B390B97FD02C030E020E04F
:1031F000A981BA8160E8D62ED81AA038B1050CF49E
:10320000D92CD21AAF2F0F2E000CBB0BFF3F0CF0A6
:10321000ADC0EA2FE095E983E1E0672F677009F41C
:10322000E0E0769576957695E70FAE0FB11D19978C
:1032300014F0E8E0EF1B79807F0E772D60E87603CD
:10324000D00111248A0F9B1F820F931F262C062C5E
:10325000000C330873E0A2E0C712A1E0B92DBD193C
:10326000BA9FB02D1124AA2EB12C6981969E200DF3
:10327000311D11242A9DB0012B9D700D3A9D700DBA
:1032800011247A01E60EF71E0115110509F48A01D1
:10329000950121503109620F731F060F171F6FEF41
:1032A00070E0062C02C0660F771F0A94E2F79B01BC
:1032B000209530953A8329834E2E4F0E4B2F50E0A8
:1032C000AD9D400D511D1124741409F46EC0DC0134
:1032D000AF57BD4F1E821D82512CD51409F45DC01D
:1032E000ED81FE81EE0DFF1D249130E0022C02C025
:1032F000220F331F0A94E2F762E0C61609F44AC0AF
:103300007BEFC71235C0F901E095F095FC83EB83A4
:1033100030E020E077FC05C09C907B819722922AC8
:103320009C92662071F0E6E0E7155CF04D01F0E854
:103330008F0E911CF4012081FC812F23232BF4019B
:10334000208353942D813E812A0D3B1D3E832D8386
:103350001196C3CF0115110509F40ACFEE9E500155
:10336000EF9EB00C11240A0D1B1D02CF198254CF01
:10337000ED81FE81E00FF11FE491F0E0022C02C02C
:10338000EE0FFF1F0A94E2F7BF01609570957C83F2
:103390006B83C0CF69817A81FACF7394E40EF51EF6
:1033A000040F151F80589F4F8FCF26960FB6F894A5
:1033B000DEBF0FBECDBFDF91CF911F910F91FF9068
:1033C000EF90DF90CF90BF90AF909F908F907F90C5
:1033D0006F905F904F903F902F900895CF92EF9213
:1033E0000F931F933AEFC32EE12C10E000E00E94F0
:1033F00071181F910F91EF90CF900895CF92EF9297
:103400000F931F9332E0C32EE12C10E000E00E94E6
:1034100071181F910F91EF90CF900895CF92EF9276
:103420000F931F93F901202FCC24C3948F010E9486
:1034300071181F910F91EF90CF900895AF92BF92A6
:10344000CF92DF92EF920F931F93CF93DF936C0194
:1034500081E06827D60150961C91161B87E7A82E9D
:1034600081E0B82ED0E0C0E0C117D0F4FE01D50154
:103470008D915D0190E0D60159962C91211102C0E9
:10348000F0E0E0E0E12C00E026E33EE240E55EE231
:1034900061E070E08E1B9F0B0E940E1A2196E4CF14
:1034A000DF91CF911F910F91EF90DF90CF90BF9060
:1034B000AF900895EF920F93CF93DF93D0E0C0E0E9
:1034C000E12C00E024E13EE244E25EE26BE370E0E6
:1034D000CE010E940E1A2896C038D10589F7DF91D7
:1034E000CF910F91EF900895F89487E780930008AB
:1034F00080930108A89588E18093600088E080931C
:103500006000FFCFBC0190E080E0AB01FC010E94B5
:10351000591841505109E109F10928F068517C4FCF
:103520008F4F9F4FF6CFAB01FC010E9459186417D3
:1035300075078E079F07C8F308958FB18095807F28
:10354000669B88601C9B8460089593E894BD609599
:1035500067BD91EF909380004093880080938A002C
:1035600008958091760208950895CF93DF93EB013B
:103570004CE755E261E170E080E290E00E94C31701
:103580008D819E8160E370E00E94C933883168F4C8
:10359000C1E18C3008F0CEE145E755E269E170E029
:1035A0008BE590E00E94C31704C0CFE1843208F09D
:1035B000C0E26C2F70E084E390E00E947117C0FDC0
:1035C00008C041E755E26CE170E08DE290E00E94B6
:1035D000C317DF91CF910C9461170895FC01978177
:1035E000973021F0943111F0913211F484E0858705
:1035F0000895FC01DB0181EB9AE1909375028093C1
:10360000740288ED9FEF968385838FE1878380E83E
:103610009CE0928F818F83E0838F11AE81E990E0EF
:1036200052969C938E93519753962D913C9154971B
:103630004EE1429FC001439F900D112420E931E0EB
:10364000281B390B31A320A353968D919C916FE0D9
:10365000689FA001699F500D112488EC90E0841BA5
:10366000950B93A382A3253B310520F024EB30E09A
:1036700031A320A38536910520F084E690E093A342
:1036800082A3DF019496CF01C996A817B90729F044
:1036900015961C9215971796F8CF14820895FC0181
:1036A000DB0158961C9213AA14AA88EC90E096AB02
:1036B00085AB17AA10AE11AE17A612AA12AE82E100
:1036C00081A71482DF011596B996AE17BF0741F0A6
:1036D00017961C92179716961C9216971996F5CF67
:1036E00081EB9AE190937502809374020895FC0136
:1036F000DB0111962C911197253001F58CE985831A
:1037000082E7868353964D915C915497249FC00124
:10371000259F900D11241E962D913C911F97235D9E
:103720003F4F820F931F57969C938E935697178205
:1037300012861386108680E28187089580E685834D
:1037400055968C918683F3CFEF92FF920F931F9340
:10375000CF93DF9300D000D000D0CDB7DEB7FE010D
:10376000319626E0DF011D922A95E9F7DC011E96CD
:103770006C911E971F969C919E01295F3F4F0AE016
:1037800010E0862FB8010E94C9338193972FE2176A
:10379000F307B9F78F018EE5E82EF12CF80122919D
:1037A0008F014CE65CE063E070E0C7010E94EE1917
:1037B000F5E0EF0EF11C8CE7E816F10479F7269698
:1037C0000FB6F894DEBF0FBECDBFDF91CF911F9132
:1037D0000F91FF90EF900895EF920F93CF93DF93A7
:1037E000EC01FB01808D882361F0E12C00E02AEEE2
:1037F0003AE04AEA5BE064E170E080E290E00E9437
:103800000E1A8C81882361F0E12C00E02CEB39E06A
:1038100042E55AE064E170E087E290E00E940E1A0F
:10382000DF91CF910F91EF900895AF92BF92CF9219
:10383000DF92EF920F931F93CF93DF935C01102FD2
:10384000FB018581968187709927892B39F481E066
:10385000F5019281911180E0F5018283C22F220F40
:10386000DD0BC42E440FDD08E12C00E022EC38E033
:103870004EE359E0BE01C6010E940E1AF501028115
:103880002BEA38E042EB58E0BE01C60142960E94A6
:103890000E1A112361F0BE016B5F7F4F00E02DE631
:1038A00038E04BE858E0C60104970E940E1ADF91F9
:1038B000CF911F910F91EF90DF90CF90BF90AF907D
:1038C0000895EF92FF920F931F93CF93DF93EC0134
:1038D0008B01F22E442319F18B8190E0FC01EE0F55
:1038E000FF1FED59F74F45915491FC01E55AFE4FEA
:1038F000608170E0805A9E4FFC018081F801218D2B
:1039000090E00E94FE19F801858196818F709927B9
:10391000892B29F48B818F5F8530C8F58B83D0E0AC
:10392000C0E0E12C00E024E13EE244E25EE26CE132
:1039300070E0CE010E940E1A2896C038D10589F792
:103940002FE536E041E657E063E370E090E080E089
:103950000E940E1A2DE435E045ED55E070E060E080
:1039600090E080E00E940E1AFF2051F02BE334E03B
:1039700043EC54E070E060E080E790E00E940E1AB3
:10398000DF91CF911F910F91FF90EF9008951B82CF
:10399000C6CF20916D02E0916B02F0916C02CF01D5
:1039A000029690936C0280936B02222319F085910A
:1039B00094910895808191810895E1E7F0E08081FC
:1039C0008D7F8083109291004698479810926A02EA
:1039D00008950F931F93CF93DF93EC01062F142FBD
:1039E00040E060E080E00E94A51A0E94DD1C0B8F81
:1039F0001C8FDF91CF911F910F910895EF92FF924D
:103A00001F93CF93DF93EC017B01DB0117968C9121
:103A1000179718961C911095182384FF42C08D812A
:103A20008031E8F58F5F8D8313FF05C045E063E0CB
:103A3000C7010E94E91C12FF05C040E067E0C70112
:103A40000E94E91CD7011596ED91FC91CF016FE022
:103A500070E00E94C933892B29F48E818F5F8330F7
:103A600011F18E832F81CF0160E570E00E94C93390
:103A7000892B59F42C3448F08A8591E089278A876C
:103A800088858F5F803189F08887283C10F42F5F0C
:103A90002F83DF91CF911F91FF90EF9008950E94A7
:103AA000741A1D82C1CF1E82DDCF1886EECFFC01B5
:103AB000DB0118969C911897909517968C91179703
:103AC000982351F08281882311F084E182839281CE
:103AD000911105C081E082839281992349F09F5F13
:103AE0009283953129F440E062E0CD010C94E91C09
:103AF0000895FF920F931F93CF93DF93EC018B01F7
:103B0000FB01F084F0948781F822858180FD1EC03E
:103B100049858F816AE00E94AF3380FF35C0842FD2
:103B200040E060E00E94A51AF80161818F81653054
:103B300009F058C0823A50F58B35B0F58C3380F1DE
:103B40008C3408F058C08F818F5F8F83F3FE06C0DE
:103B500040E0F8016181C8010E94E91CF8018581FB
:103B600096816CE070E00E94C933892B39F48E8114
:103B7000823121F08B8591E089278B87DF91CF916E
:103B80001F910F91FF90089580E0CBCF8F3B28F1DC
:103B900040E065E08F3BB9F6C8010E94E91CD3CF35
:103BA0008D8181508D83CFCF81E08A8785819681F9
:103BB00083709927892B39F68E81863138F48331C9
:103BC00048F4823109F4BFCF835005C08B31E0F750
:103BD000825001C081508E83B6CF898581508987FC
:103BE0001A86B1CF8D3850F48437D0F7853108F478
:103BF000AACF893248F481E08A87A5CF843BE8F0D8
:103C000040E0843B49F29FCF81E08A87858196819D
:103C100083709927892B09F096CF8885282F30E06B
:103C20002F5F3F4F359527959E81290F2E83853035
:103C300008F089CF8F5F888786CF8D818F5F8D83D6
:103C40008985815089877FCFDC01FB019085909524
:103C500087819823808D882339F093FF0EC040E040
:103C600067E0CF010C94E91C92FF07C014969C9169
:103C7000149781E0982714969C930895CF92DF9231
:103C8000EF92FF92CF93DF930E94C91C811520E829
:103C9000920741F4DF91CF91FF90EF90DF90CF90AA
:103CA0000C94DD1C21E020936A02813020E8920709
:103CB00051F4809168029091690290936C02809314
:103CC0006B020E94C91C97FD05C020916702222348
:103CD00009F45BC020916602211157C021E02093B6
:103CE0006E02EC01DF77209709F052C081E08093EB
:103CF0006F0246983FE9C32E3FE0D32EE12CF12C12
:103D0000CAEFD0E0E0917402F0917502099581113B
:103D100003C081E080936F0280916E02882329F0B6
:103D200080916F02882309F446C047980E94C91CFD
:103D3000009709F444C09C01DE010E94A033DC011D
:103D4000CB0129E0B595A795979587952A95D1F749
:103D5000109290002AE020939100D0929900C09296
:103D600098008093700290937102A0937202B093B6
:103D7000730280917100826080937100DF91CF9116
:103D8000FF90EF90DF90CF90089510926E02A9CF30
:103D90009E0150E040E060E472E48FE090E00E9419
:103DA0004C3369017A0181E0C81AD108E108F108B1
:103DB00010926F02A7CF4699B8CF479AB7CF8FEF2F
:103DC0009FEFDC01C5CF9C01E1E7F0E090819D7F92
:103DD000908381E080936D0230936C0220936B029C
:103DE00030936902209368020C943E1EFB01DC01B3
:103DF00018961C9218971A961C92148A138A128A83
:103E0000118A108A17861686118E108E81EB9AE120
:103E1000909375028093740282E896E20C94E31EFC
:103E20000F931F93CF93DF938C01EB0140E060E091
:103E300080E20E94A51A8AE0F801878F89899A8911
:103E400006979A8B898B84E6858F89899A891816BB
:103E500019068CF088898F5F888B89E49CE10E9429
:103E6000E31E8889833038F481E990E09A8B898B4E
:103E700088ECF801868FDF91CF911F910F91089503
:103E80000895EF92FF921F93CF93DF9300D000D05D
:103E900000D0CDB7DEB766E489E790E00E942C330E
:103EA00060E58AE790E00E942C338BE7E82EF12C46
:103EB00011E41A8219821E821D821B831C831D83BA
:103EC00046E050E0B701CE0101960E941C331F5F0F
:103ED00086E0E80EF11C8DE8E816F10451F726960D
:103EE0000FB6F894DEBF0FBECDBFDF91CF911F910B
:103EF000FF90EF900895CF93C62F0E946117CC23B7
:103F000021F0C23059F0CF91089540E054E06FEFB6
:103F100070E081E892E0CF910C94F73340E851E0F3
:103F2000F6CFAF92BF92CF92DF92EF920F93CF93E3
:103F30006C015B0182E0A80EB11C21E040E0C601EB
:103F40000E94611C0E945A1AE12C00E020EA3AE229
:103F500049E55CE261E070E081E290E00E940E1AC7
:103F6000F601268146E85AE26DE070E08AE290E0D0
:103F70000E94EE19F60126814CE65AE26DE070E0EF
:103F800086E390E00E94EE19F601268148E55AE2A8
:103F90006DE070E08FE390E00E94EE19F60126815B
:103FA0004EE35AE26DE070E087E490E00E94EE1983
:103FB000F601268144E25AE26DE070E08FE490E081
:103FC0000E94EE19F6018781883C49F420E04AEC12
:103FD00059E264E370E08BE290E00E94FE19F60182
:103FE000C085C695C695C13059F1E8F0C23099F147
:103FF000C330D1F1F6018285882351F0C13009F434
:1040000047C0D8F1C23009F451C0C33009F457C0D9
:1040100060E0C501CF910F91EF90DF90CF90BF90FE
:10402000AF900C947B1FE12C00E028E839E248EACD
:1040300059E26EE070E090E080E00E940E1ADACF64
:10404000E12C00E026E439E246E659E26EE070E059
:1040500080E790E0F2CFE12C00E028E839E248EA7E
:1040600059E26FE170E0E7CFE12C00E026E439E2AD
:1040700046E659E26FE170E0EBCFE12C00E02CE97D
:1040800038E240EF58E263E070E082E190E00BC07C
:10409000EE24E39401E02CE938E240EF58E263E0DB
:1040A00070E08BE590E00E940E1AB2CFE12C00E0A8
:1040B00026E138E248E558E260E170E0E6CFE12C25
:1040C00000E028E737E246EC57E260E170E087E481
:1040D00090E0E9CF2F923F924F925F926F927F9242
:1040E0008F929F92AF92BF92CF92DF92EF92FF9208
:1040F0000F931F93CF93DF93CDB7DEB72B970FB6F8
:10410000F894DEBF0FBECDBF6C015B013B0122E026
:10411000620E711C912C812CD60153968C91539771
:10412000F401E80FF11D87FDFA95CF01D9962C9186
:10413000D997222331F054962D913C912E173F07A9
:1041400051F0E12C00E02FE633E24FE654E270E05C
:1041500060E00E940E1AD601D9968C91D9978823D7
:1041600069F0E12C00E02DE631E24DE652E270E02C
:1041700060E054968D919C910E940E1AB0E48B0ED3
:10418000911C8114E1E09E0639F6912C812CD60118
:1041900056968C91E12C00E02BE231E24BE451E2A7
:1041A00064E170E0F401E80FF11D87FDFA95CF019D
:1041B0000E940E1AF0E18F0E911C20EA82169104E3
:1041C00031F7D50151968D909C90F601158D27E51C
:1041D0003CE145EA5CE170E060E089E590E00E9446
:1041E0000E1A1123E9F0C40165E070E00E94DD338E
:1041F0004B01512CE52CF12CE814F904A4F4FEE554
:10420000EF0EF11C03E010E0B801C7010E94711726
:104210000F5F1F4F0B301105B9F753945394EACF3A
:10422000C5010E94A41BD6015E968C9161E0882393
:1042300029F06EE10E94AF33682F6170C5010E94C2
:104240001E1A10E000E0F601878920E049E151E202
:1042500068E270E0D801A80FB11D87FDBA95CD01C5
:104260000E94FE19F601808D20E049E151E265E3EC
:1042700070E0D801A80FB11D87FDBA95CD010E944D
:10428000FE19005E1F4F003A1105E9F680E1482E45
:10429000512C10E0F601F996FB87EA871E01FAE03F
:1042A0002F0E311CD60152968C9152978823D9F04B
:1042B00050968C915097811316C05C960C9161E0DA
:1042C00070E0112311F070E060E0C2010E96680FFB
:1042D000791FE02E27ED30E247EF50E2F6018685A8
:1042E00097850E940E1A4601F4E28F0E911C2A85D2
:1042F0003B8528153905E1F0D40115968C91159769
:10430000882391F012968C91129781130DC0139609
:104310000C911397E02E2DE63FE141E250E2B2010D
:104320008D919C910E940E1AB7E08B0E911CDFCFED
:10433000F601678180E06F3020F082E06C3108F494
:1043400081E0811354C0D6011996EC901997EE20A4
:1043500091F0EA940E2D000F062E000C770B1596A7
:104360008C91815025EF3CE147EC5DE1082E000C7B
:10437000990B0E940E1A00E0F60127814581B501D4
:10438000C6010E94151C89E0E4E0F1E0DE0111960F
:1043900001900D928A95E1F79E012F5F3F4F4901F1
:1043A000D401EC91EC0DFD2DF11DE184EE20C9F05E
:1043B000EA940E2D000F12966C911297F6018781E8
:1043C000680F062E000C770B858111969C91890F42
:1043D00025EF3CE147EC5DE1082E000C990B0E94B3
:1043E0000E1AF3E08F0E911C28143904C9F61F5FD2
:1043F0002DE0420E511C133009F054CFB501C60117
:104400000E94EC1BD50159968C9162E0811161E00C
:10441000C3012B960FB6F894DEBF0FBECDBFDF9160
:10442000CF911F910F91FF90EF90DF90CF90BF90B1
:10443000AF909F908F907F906F905F904F903F9044
:104440002F900C947B1F2F923F924F925F926F920E
:104450007F928F929F92AF92BF92CF92DF92EF9214
:10446000FF920F931F93CF93DF93CDB7DEB72897BB
:104470000FB6F894DEBF0FBECDBF5C012B0122E06A
:10448000420E511CFB016580768021E040E00E94D5
:10449000611CE12C00E026E533E140EE53E163E0EE
:1044A00070E08EE190E00E940E1A20E730E142EECB
:1044B00051E160E170E08CE190E00E940E1A75011C
:1044C00006E110E09E012F5F3F4F190147013BE0DD
:1044D000830E911C54E2C52ED12CF40121914F0181
:1044E0002F3309F484C020544AED5FE0B801C601BF
:1044F0000E94FE19F6E0CF0ED11C26E3C216D104AD
:1045000061F74E0137E0830E911C41E4C42ED12C9B
:1045100098868F82F10126E011922A95E9F7F7013A
:1045200081859285F1016AE070E00E94C933819330
:10453000CB012F8138852E173F07A9F7F40122916F
:104540004F01255E4AED5FE0B801C6010E94FE19E9
:10455000F5E0CF0ED11C2FE5C216D104D9F6075FC6
:104560001F4F36E0E30EF11C0133110509F0AECF09
:10457000F50105810F3F09F462C0C30168E370E0F3
:104580000E94C9338D3108F45AC086E0089F10019B
:104590001124FBE02F0E311C29E0029F8001112421
:1045A000380135E1630E711CF5018680889E40015B
:1045B00011247401F3E2EF0EF11C29E2820E911C2A
:1045C000035E1F4F8E149F04C1F06301C8010134C4
:1045D000110514F080E490E0C816D90654F4B60131
:1045E000C7010E9471173FEFC31AD30AEFCF20E033
:1045F0007BCF8FEFE81AF80AE5CFF50186812A0C08
:104600003B1CF101E80FF11D20812F3309F445C057
:104610002054F5016581F9E06F9FB00111246A5EB5
:104620007F4F36E0839FC00111243BEFC32EE12C66
:1046300010E000E04AED5FE084960E9471180E944D
:104640005A1AF50185818F3F61F48085811109C077
:1046500020E040E85FE064E370E08BE290E00E94DD
:10466000FE1960E0C20128960FB6F894DEBF0FBEB7
:10467000CDBFDF91CF911F910F91FF90EF90DF9011
:10468000CF90BF90AF909F908F907F906F905F90F2
:104690004F903F902F900C947B1F20E0BACFAF92A9
:1046A000BF92CF92DF92EF920F93CF93DF93EC0103
:1046B0006B015B0182E0A80EB11C20E041E0CE015D
:1046C0000E94611C8E81843658F40B85E02E2AE707
:1046D0003DE04CE75EE06AE270E090E00E940E1A76
:1046E000E12C00E028E53DE048E65DE06CE170E0AB
:1046F00088E690E00E940E1AF601218D46E95CE002
:1047000066E270E088E690E00E94FE190E945A1A64
:104710000A852FE14D81B601CE010E94151CF601DC
:10472000618DC501DF91CF910F91EF90DF90CF9018
:10473000BF90AF900C947B1F3F924F925F926F920D
:104740007F928F929F92AF92BF92CF92DF92EF9221
:10475000FF920F931F93CF93DF93EC018B01DB014B
:1047600017967C908F8D882341F081508F8F811117
:1047700004C040E060E00E94A51A8C818111C5C090
:10478000F8018581968187709927892B31F48C8D6A
:104790008F5F843009F4E9C08C8FD80150968C91DA
:1047A000833040F4898D9A8D181619061CF40197F0
:1047B0009A8F898F8D8D882311F081508D8F8E8DEA
:1047C000882311F081508E8FE98DFA8DCF0160E83A
:1047D0007CE00E94DD330996439770F5D80153962B
:1047E0002D913C9154974AE0429FC001439F900D08
:1047F000112420E931E0281B390B39A328A3539653
:104800008D919C9165E0689FA001699F500D1124D6
:1048100088EC90E0841B950B9BA38AA3253B310574
:1048200020F024EB30E039A328A38536910520F051
:1048300084E690E09BA38AA32D813E81D801509607
:104840008C915097833008F497C02938BFEF3B070D
:104850000CF48DC0F8018581968165E070E00E94BE
:10486000C93322503109892B09F494C0F80185819C
:1048700080FD1EC08B898150803C09F451C38B8B15
:1048800029AD222329F08C899D8901979D8B8C8BE2
:10489000898D9A8D892B61F421110AC081E089AF3D
:1048A0008B89082E000C990B80549F4F9D8B8C8B0D
:1048B000D80115968D919C9163E070E00E94C933F8
:1048C000823031F08E898150803F09F42BC38E8B6A
:1048D000F8018581968183709927833031F08F8923
:1048E0008250813E0CF420C38F8BD80115968D9198
:1048F0009C9165E070E00E94C933833030F4888D6C
:104900008350813E0CF412C3888FF8018581968113
:1049100066E070E00E94C933892B91F4FE0139965C
:104920009E01235F3F4F8191882339F08F5FDF0124
:104930001197863009F4FCC28C932E173F0799F724
:10494000B801CE01DF91CF911F910F91FF90EF90B1
:10495000DF90CF90BF90AF909F908F907F906F909F
:104960005F904F903F900C94241E1C8E16CF81E0D8
:10497000D80158968C937ACF37FF0FC0F801858104
:10498000968165E070E00E94C933892B09F06ECFF3
:104990002E5F3F4F3E832D8369CFEF2B39F4283CA8
:1049A000310594F415968D919C91EBCF5E01B4E2A4
:1049B000AB0EB11C7501CE01C996F501E817F907D8
:1049C00079F016823796FACFF80183899489019697
:1049D000948B838B45E064E0C8010E94E91C46CFBC
:1049E0004F0175FE08C08D819E81181619061CF4B2
:1049F00001979E838D83D80115968D919C9163E0DC
:104A000070E00E94C9338230E9F176FE3BC0CD8070
:104A1000DE80B6E4CB16D104ACF5EFEFCE1ADE0A99
:104A20004F81B601CE010E948A17682EFFEF8F17C3
:104A300009F411C18C8581110AC081E08C87B8010D
:104A4000CE010E94101F87E39CE10E94E31E8D812E
:104A50009E814F96262D30E0FE0147E0649EE00DDA
:104A6000F11D112495A384A3833E9F4F0CF411A63E
:104A700087E0829FF001839FF00D1124EC0FFD1F52
:104A800081E082A777FE1CC08F818830C8F0DD24CA
:104A9000DA94D80E6D817E814D2DCE010E948A1749
:104AA0008F3F09F4DBC0898581110AC081E08987C5
:104AB000B801CE010E94101F87E39CE10E94E31E13
:104AC0008D8581111DC077FC18C0DF80DA946D815F
:104AD0007E814D2DCE010E948A178F3F09F4C1C0FF
:104AE000898581110AC081E08987B801CE010E94C1
:104AF000101F87E39CE10E94E31ECE010E94EE1A84
:104B0000B72DB0716B2E74FE1CC08F818132C8F43A
:104B1000DD24D394D80E6D817E814D2DCE010E946F
:104B20008A178F3F09F49FC08A8581110AC081E0EE
:104B30008A87B801CE010E94101F87E39CE10E9482
:104B4000E31ECD84E1E0CE121CC0611017C0DF80EF
:104B5000D3946D817E814D2DCE010E948A178F3FA7
:104B600009F485C08A85811109C0CA86B801CE01C1
:104B70000E94101F87E39CE10E94E31ECE010E9469
:104B8000EE1A898D9A8D8D3291400CF479C06501B1
:104B900022E0422E512C612C712C332433948C143E
:104BA0009D0409F46DC0D60115968C91811164C0E5
:104BB0000E94A6322CEA30E040E050E00E944C33E4
:104BC000DC01CB0180589F4FAF4FBF4FF60191835F
:104BD0008083833E9F4F1CF4D60115961C920E9441
:104BE000A63223E030E040E050E00E944C33F60172
:104BF00062830E94A632A30192010E944C33D60127
:104C000013966C930E94A632A30192010E944C332A
:104C10006E5F7F4F8F4F9F4FF601648335823281E5
:104C200040815181F50120E08E169F0611F18581AA
:104C3000882379F0828138130CC080819181841B94
:104C4000950B97FF03C0919581959109C3970CF43B
:104C50002F5F3796E9CFDE82CD8214CFDF821D86AB
:104C60002FCFDF824ACFDF8281E08D876ACFDF825C
:104C700085CF213009F09CCFF7E0CF0ED11C8FCF2C
:104C80008989298D3A8D2D3231401CF0882309F411
:104C9000ACC08150898BD80115968D919C9163E0B1
:104CA00070E00E94C933823009F453C08A89882396
:104CB00009F44FC08E859F8501979F878E87089640
:104CC00071F41A8A0E94A6322AE530E040E050E0F2
:104CD0000E944C33665F7F4F8F4F9F4F698B6E856D
:104CE0007F8528894D815E818F81FB0138964E1723
:104CF0005F077CF5415E5F4F6417750754F5EEE082
:104D00002E9F9001112490E0BC016B5E7F4FA901A2
:104D10004D5D5F4F64177507E4F4255E3F4F4F9676
:104D200028173907B4F440E060E280E00E94A51A39
:104D30008AE08F8FD8011E968D919C911F970296C5
:104D40001F969C938E931E971A8A89E29CE10E947B
:104D5000E31E9EE0D92ECC24C3948E149F0409F048
:104D600061C087E0F82EFE0150E040E0E42EDE0155
:104D700070E060E0E61609F4C4C081A5882309F458
:104D8000C0C099968C919997882309F4BAC09696D9
:104D90009C91969786A19813B4C0A4A0B5A09496B0
:104DA0002D913C9195976501C21AD30AD7FE03C095
:104DB000D194C194D1088FE1C816D1040CF0A1C0E0
:104DC0002A153B050CF08DC0215E3F4FF49EF0018B
:104DD000F59EF00D1124EC0FFD1F35A324A3233EF7
:104DE0003F4F0CF0C0CF11A6BECF8A89811153CF9F
:104DF0000E94A63224ED30E040E050E00E944C33A7
:104E000060587F4F8F4F9F4F7F876E870E94A632DB
:104E100023E030E040E050E00E944C33688B81E0BA
:104E20008A8B39CFF7018581882309F453C08681A5
:104E3000811150C04281208131816F818D819E819D
:104E4000FC01B0962E173F07C4F4D9011296329791
:104E5000EA17FB0794F470E04D9DA0011124DA01DC
:104E60005B96FB017F96AE17BF073CF46B5E7F4FEE
:104E70004B5D5F4F64177507C4F0D70114966C91B2
:104E800070E0F801858196810E94C933892B31F544
:104E900082E090E0281B390BD7012D933C93233EF1
:104EA0003F4FC4F4F701158215C04F96D7018D937B
:104EB0009C93833E9F4F14F4F70115828C858111DA
:104EC00009C0CC86B801CE010E94101F87E39CE187
:104ED0000E94E31EF7E0EF0EF11C3FCF81E090E06F
:104EE000D9CFC5014F96F69EF001F79EF00D112423
:104EF000EC0FFD1F95A384A3833E9F4F0CF473CF4B
:104F000032CF6F5F7F4F17966330710509F032CF54
:104F10004F5F5F4F37964330510509F027CFA6CC3E
:104F20001B8AAECC1E8AD4CC1F8ADFCC188EEDCC67
:104F30001C9203CD2F923F924F925F926F927F927D
:104F40008F929F92AF92BF92CF92DF92EF92FF9299
:104F50000F931F93CF93DF9300D01F92CDB7DEB78F
:104F60009B838A838B01DB011796BC91B983FC017B
:104F700081AD882341F0815081AF811104C040E0B0
:104F800060E00E94A51AAA81BB8114968C911497A7
:104F900081117FC37D01B9E2EB0EF11CF80185811F
:104FA000968165E070E00E94C933892B09F03EC10B
:104FB000AA81BB8199968C9199976D01B5E0CB0E32
:104FC000D11C52E3A52E63E0462E7BE2372EE2E0B1
:104FD0006E2E22242A948C5E882E912CBB24B394AE
:104FE000FAE05F2EAAEF7A2ECE14DF0409F41EC178
:104FF000F6018781882309F4F6C08081863679F529
:10500000D8011E968D919C911F9705961F969C9393
:105010008E931E9740E060E280E00E94A51A8DE822
:1050200095E10E94E31EEA81FB8151AED6011696FE
:105030008C9116978111A4C013969C9113979F5F32
:1050400013969C93D60113962C9113972B3409F049
:105050009AC013961C92139717961C92C4C0238172
:10506000885F90E08819990997FF03C09195819511
:1050700091092A3021F0203211F0263329F48B30A7
:10508000A8F6F601B086D2CF2B3029F0213219F0E4
:10509000273309F072C0D60118969C911897911188
:1050A00037C08B30A8F11696BC92F80180898F5FCB
:1050B000808B40E060E080E20E94A51A8FE795E1D6
:1050C0000E94E31EAA81BB81D9965C92D8015096BA
:1050D000EC91E33008F0AACFD6018C918C3320F507
:1050E0008732A8F5823108F4A1CFAA81BB81D0967E
:1050F0001C92D0979F96BC929F97D2967C92D29703
:10510000E150FF0BEB5BFA4EE491D196EC938ECF1E
:10511000213269F1273371F12B3009F087CF89E70C
:1051200095E10E94E31E82CF813808F07FCFAA81EB
:10513000BB81D0966C92D0979F96BC929F97D29647
:105140007C92D297E150FF0BEF50FB4EDDCFAA814E
:10515000BB81D096BC92D0979F96BC929F97D296D7
:105160007C92D297E150FF0BE15EFA4ECDCF83E700
:1051700095E1D7CF8DE695E1D4CFF601108656CFD5
:10518000F60123825FCF823009F447C038F48823C8
:1051900059F0813009F43AC0D6015ECF8D33E0F783
:1051A0008F5FF60186831FC0822F90E02B30F8F4CA
:1051B0001296EC911297F0E0EE0FFF1FEB59FE4FA5
:1051C00020813181880F991FF901E80FF91F45915E
:1051D0005491F6014083FC013196E20FF31F859153
:1051E000949111968C93B9E0CB0ED11CFDCE880F13
:1051F000991F8A5A9B4EFC0125913491F601208318
:10520000FC01319685919491D601EBCFF601808116
:105210008F5F808331826682E6CF8C918F5F8C9323
:105220001196AC92119716964C92DDCFF801B0888A
:10523000F2E0FB1598F4EA81FB81359681E0EE16E9
:10524000FF0661F09781992339F09681911104C08E
:105250009581911101C085833996F1CFD8011596BA
:105260008D919C916FE070E00E94C933892B91F47D
:10527000EA81FB813596EE16FF0661F0878188236F
:1052800029F084818F5F883019F084833996F3CFB9
:105290001482FCCFEA81FB8182AD811140C085A9D7
:1052A00096A901978E3FFFEF9F0730F4AA81BB813B
:1052B000D6969C938E93D597EA81FB8185A996A972
:1052C000892B69F5D8011E96CD90DC9063E070E0E3
:1052D000B8EECB16B3E0DB0650F488EE93E08C1901
:1052E0009D096AEF70E00E94C9336D5F7F4FEA81CC
:1052F000FB8135964CE250E0A6E1B0E0EE16FF06E9
:1053000009F088C0EA81FB8190E080E024852223B7
:1053100009F4FFC10196399684309105B9F7898067
:1053200085FE0FC0AA81BB819A968C919A978111B4
:1053300008C099968C919997833118F082E09C96D9
:105340008C93898086FE0FC0AA81BB819A968C912E
:105350009A97811108C099968C9199978C3318F47B
:1053600083E09C968C93F8018581968180FD1DC019
:10537000AA81BB819A96EC919A979C962C912230A7
:1053800009F4E7C0233009F4F6C0EA81FB8123A5C4
:105390002F5F2C3009F401C123A7EA81FB8122A5EC
:1053A000253019F412A624E024A766E070E00E94DC
:1053B000C933892B09F05BC1AA81BB819F968C916F
:1053C0009F97882309F41AC1D2968C91D2978F5F48
:1053D000D2968C93D297482F082E000C550BD1965D
:1053E0002C91D19730E087FD0DC04217530754F43C
:1053F000D0968C91813009F414C108F4D3C0823066
:1054000009F420C14217530709F0DFC0EA81FB818C
:1054100017A6DBC08781882339F12381263109F45F
:105420007ECF2C3209F47BCF30E0CA01821B930B74
:1054300097FF03C09195819591094D01821A930AB6
:10544000940197FE03C0319521953109022E000C7D
:10545000330B261737070CF462CF082E000C990B7C
:10546000861797070CF45BCF399648CF2CEDC21600
:1054700025E0D20608F050C04601969487948CED42
:1054800095E088199909E5E0F0E0BF010E94C93371
:105490009B018EEEC81682E0D80608F03FC08EEE63
:1054A00092E088199909BF010E94C9334901B12CC2
:1054B000A12C2B01712C612C481459046A047B0423
:1054C00084F584189508A608B70841F00E94A63212
:1054D000A50194010E944C334B015C01480C591CFE
:1054E0006A1C7B1CAA81BB81D6965C924E92D59792
:1054F000F8018685978585319105C8F08997E0F494
:105500000E94A63222E030E040E050E00E944C339E
:10551000EA81FB8160AF03CF26E930E06BE470E005
:10552000C5CFF6E94F2E512C612C712CDBCFAA810F
:10553000BB81D8961C92F3CE0E94A63223E030E0C5
:1055400040E050E00E944C33AA81BB81D8966C9316
:10555000E6CEAA81BB8199962C91999731E03E0FB6
:105560009A963C939A97F0E0E451FB4EE4912E1BFF
:1055700099962C930ACFAA81BB8199962C919997E1
:1055800031E03E0F9A963C939A97F0E0E451FB4E3F
:10559000E491E20F9996EC93F8CEAA81BB819B9699
:1055A0001C92FBCECA010196880F991FFC01EB5B90
:1055B000FA4EE491AA81BB819D96EC939D97FC01E4
:1055C000EA5BFA4EE4919E96EC93241B350B28304F
:1055D00031050CF048C0AA81BB81D4968C91D49738
:1055E0008F5FD4968C93D497883041F49F961C9209
:1055F0009F97D2961C92D297D4961C92EA81FB81F7
:105600003596EE15FF0599F18781882341F0858154
:10561000882329F08F5F8583863009F417823996B5
:10562000F0CFCA010196880F991FFC01E15EFA4E86
:10563000E491AA81BB819D96EC939D97FC01E05E6D
:10564000FA4EC0CFCA010196880F991FFC01EF5096
:10565000FB4EE491AA81BB819D96EC939D97FC0142
:10566000EE50FB4EAFCFEA81FB8114AAC7CFD80121
:1056700050968C91833068F08A819B810596E8165C
:10568000F90609F483C00996FC0132972081222390
:10569000B1F3F801268537858689978982179307A4
:1056A00028F481E0AA81BB81DA968C93EA81FB81A0
:1056B00082AD882379F0CF010596AF01475D5F4F3A
:1056C0008417950709F467C00996FC013297208179
:1056D0002223B1F3B8018A819B810F900F900F9024
:1056E000DF91CF911F910F91FF90EF90DF90CF90BE
:1056F000BF90AF909F908F907F906F905F904F90F2
:105700003F902F900C94241E81E0D80158968C93E2
:10571000E1CFAA81BB81D896EC9129E0289FD001E6
:10572000299FB00D11248A809B80A80DB91D81E0AE
:105730001C968C931C9718961C9218971B961C927B
:105740001B971A961C921A971796EC931797F0E0EE
:10575000EE0FFF1FEB59FE4F80819181FC012591D7
:10576000349115962C931597FC013196859194915F
:1057700016968C9392E0992E9B1408F077CE8FEFBB
:105780009FEFEA81FB8196AB85ABC9CD81E0D80163
:1057900058968C937ECFEA81FB8181A5D8015596DE
:1057A0008C93559753968D919C915497019654964E
:1057B0009C938E93539750968C91833008F0A4CF8E
:1057C00046E063E0C8010E94E91C84CF6F927F929B
:1057D0008F929F92AF92BF92CF92DF92EF920F93F0
:1057E0001F93CF93DF93EC015B014B0182E0880EA6
:1057F000911C20E041E0CE010E94611C8FA561E078
:10580000882321F08CA9833008F460E0C5010E9450
:105810001E1AE12C00E027E53CE145EA5CE170E07E
:1058200060E089E590E00E940E1AC5010E94A41B69
:105830008BA566E00E94AF33082F89A5E02E23E2F6
:105840003AE145E25BE16AE270E090E00E940E1A04
:105850000E945A1A6E01E5E0CE0ED11C3E01F9E21B
:105860006F0E711C13E06C147D0409F457C0F6012F
:105870008781882309F44EC08581833070F5868145
:1058800004E0811101C00481F601618170E0808132
:10589000E02E21E238E141E259E190E00E940E1A47
:1058A000F60186818230C8F086958695612F0E9428
:1058B000AF33092F000FF501818D813009F40F5F9F
:1058C000F60161816550770B8081E92E23EB37E18A
:1058D00047ED57E190E00E940E1AF601E580EE20B8
:1058E000C9F0EA9401E0F501818D813009F000E012
:1058F0008E2D880F080FF6016181062E000C770BA4
:10590000808125EF3CE147EC5DE1082E000C990B0E
:105910000E940E1AF9E0CF0ED11CA5CF8DA99EA929
:105920008B349105A0F5E8AD84E0E89FF0011124E7
:10593000E559FE4F6181062E000C770B8081E12C2A
:1059400000E021E737E141E957E1082E000C990B0F
:105950000E940E1A8DA99EA96EE170E00E94C933C3
:105960000F97A8F4E8AD84E0E89FF0011124E55911
:10597000FE4F6381062E000C770B82812DE437E108
:105980004EE557E1082E000C990B0E940E1A8FA5C8
:105990008823E1F08AA987FD19C09CA99430B0F44E
:1059A000859566E00E94BB33943009F448C0953079
:1059B00009F491E06EA570E08DA5E92E092F2BE981
:1059C00035E143E756E190E00E940E1A00E02FE136
:1059D00040E6B501CE010E94151CECA8EE20C9F0EE
:1059E000F50180898330A8F4EA9401E0918D91302B
:1059F00009F000E09E2D990F090F813011F18EE31F
:105A000025EF3CE147EC5DE161E070E090E00E9451
:105A10000E1AB501CE010E94EC1BF501618DC40187
:105A2000DF91CF911F910F91EF90DF90CF90BF90BA
:105A3000AF909F908F907F906F900C947B1F92E01F
:105A4000B9CF8BE4DDCFCF93DF93EC0146E050E09C
:105A50006BE770E00E94FE3246E050E061E870E0E3
:105A6000CE0106960E94FE3246E050E067E870E004
:105A7000CE010C96DF91CF910C94FE32CF92DF9243
:105A8000EF92FF920F931F93CF93DF93EC01FB01F3
:105A900017812D812F3F09F49FC0858196816CE08D
:105AA00070E00E94C933892B09F07CC017FF20C029
:105AB000CE0136E0239F800D911D11240B96EE81BF
:105AC000E80FF92FF11D20812F5F2083EE81E80F71
:105AD000F92FF11D20812B3514F021E42083EE8174
