:100000000C9400180C9428180C9428180C94281898
:100010000C9428180C9428180C9428180C94281860
:100020000C9428180C9428180C9428180C94281850
:100030000C9428180C9428180C9428180C94281840
:100040000C9428180C9428180C9428180C94281830
:100050000C9428180C9428180C9428180C948E20B2
:100060000C9428180C9428180C9428180C94281810
:100070000C9428180C9428180C9428180C94281800
:100080000C9428180C9428180C9428180C942818F0
:100090000C9428180C9428180C9428180C942818E0
:1000A0000C9428180C9428180C942818D5F08D144A
:1000B000A1C881CFD9F1AF200004083E09093E3F15
:1000C00025251A1E2121123F21211E3F2525213FD2
:1000D0000505011E21293A3F04043F213F2100105C
:1000E00021211F3F040A313F2020203F02023F3FD1
:1000F00002043F1E21211E3F0909061E21112E3F29
:1001000009093622252519013F01011F20201F0F53
:1001100010201F3F10103F3B04043B0304380731FD
:100120002D2321102A2A3C3F2424181C2222141893
:1001300024243F1C2A2A2C043E05014C52523E3FE7
:10014000040438243D20004040443D3F081422214F
:100150003F20003E04043E3E04023C1C22221C7E42
:1001600022221C1C22227E3E040204242A2A12027D
:100170001F22201E20201E0E10201E3E10103E3674
:100180000808364E50503E322A26221E29251E22AD
:100190003F2000322929261221251A0C0A3F081770
:1001A0002525191E252518013905031A25251A06A6
:1001B00029291E002F00000020000002290502004E
:1001C000040400FFFFFFFFFFFFFFFFFFFFFFC0C0B2
:1001D000C0808000FFFFFFFFFFFFFFFFFFFFFFFF6B
:1001E000FFFFFFFFFFFFFFFFFFFFFFFFFFFFFFFF1F
:1001F000E3E3C7C7C381FFFFFFFFFFFFFFFFFFFF71
:10020000FFFFFFFFFFFF7FFFFFFFFFFFFFFFFFFF7E
:10021000FFFFE1E1E1E1E0C0FFFFFFFFFFFFFFFFC4
:10022000FFFFFFFFFFFFFF7F3FFFFFFFFFFFFFFF1E
:10023000FFFFFFFF010100000000FFFFFFFFFFFFC6
:10024000FF7F3F1F070000000000001140756DEAAE
:10025000EAD710DFDF4080BF4040408080001F1F92
:100260001E3E3E3E3D3D397A7B787BF7F600FFEA45
:10027000E8D5D4D6109EBEA2A2BE22A2444442819A
:100280003D3D3D3D3D3C3D3D3D393B383B3B3B806D
:100290007FAAA8AAA8AE20BEBCA1A1BF21A1A1A1EE
:1002A00020C0F7F7F7F7F7787B7B3A3A3B3C3D9D68
:1002B0009D403FF1E8F4F8F4FAF4FA0101FF01017E
:1002C00000000000FFFFFFFF7F3F8F472010070067
:1002D0000000000000800DFFFFFFFFFFFFFFFFFF9A
:1002E000FFFFFFFFFFFFFFFFFFFFFFFFFFFFFFFF1E
:1002F000FFFFFFFFFFFFFFFFFFFFFFFFFFFFFFFF0E
:10030000FFFFFFFFFFFFFFFFFFFFFFFFFFFFFFFFFD
:10031000FFFFFFFFFFFFFFFFFFFFFFFFFFFFFFFFED
:10032000FFFFFFFFFFFFFFFFFFFFFFFFFFFFFFFFDD
:10033000FFFFFFFFFFFFFFFFFFFFFFFFFFFFFFFFCD
:10034000FFFFFFFFFFFFFFFFFFFFFFFFFFFFFFFFBD
:10035000FFFFFFFFFFFFFF1F1F1F1F1F1F1F1F1F8D
:100360001F1F1F1F1F1F1F1F1F1F1F1F1F1F1F1F9D
:100370001F1F1F1F1F1F1F1F1F1F1F1F1F1F1F1F8D
:100380001F1F1F1F1F1F1F1F1F1F1F1F1F1F1F1F7D
:100390001F1F1F1F1F1F1F1F1F1F1F1F1F1F1F1F6D
:1003A0001F1F1F1F1F1F1F1F1F1F1F1F1F1F1F1F5D
:1003B0001F1F1F1F1F1F1F1F1F1F1F1F1F1F1F1F4D
:1003C0001F1F1F1F1F1F1F1F1F1F1F1F1F1F1F1F3D
:1003D0001F1F1F1F1F1F1F800DFEBEBEBEBEBEBE45
:1003E000BABABA3A3ABABA9A8AAAA2B2B2BAB8B8F9
:1003F000BABABEBEBEBEBEBEBEBEBEBEBEBEBEBE25
:10040000BEBEBEBEBABABABA3A1A8AA2B0B8BABAB0
:10041000BEBEBEBEBEBEBEBEBEBEBEBEBEBEBEBEFC
:10042000BEBEBEBEBEBEBEBABAB8A0021ABABABA84
:10043000BABABEBEBEBEBEBEBEBEBEBEBEBEBEBEE4
:10044000BEBEBEBEBEBEBABABABAB8B8B8B0A28254
:100450000A1A3ABABABABABABA1F1F0717131B193F
:100460001D1C1E1F1F1F1F1F1F1F1F1F1F1F1F1FA2
:100470001F1F1F1F1F1F1F1F1F1F1F1F1F1F1F1F8C
:100480001F1F1F1F1F07111C1E1F1F1F1F1F1F1FA6
:100490001F1F1F1F1F1F1F1F1F1F1F1F1F1F1F1F6C
:1004A0001F1F1F1F1F1F1F1F1F1F1F1F1C10030F9A
:1004B0001F1F1F1F1F1F1F1F1F1F1F1F1F1F1F1F4C
:1004C0001F1F1F1F1F1F1F1F1F1F1F1F1F1F1F1F3C
:1004D0001F1E181001030F1F1FF8FFFFFEFCFCFC7E
:1004E000FC0303030303030303080A280709221478
:1004F00024080401010201010101010102040810A4
:1005000020408020079D733A1DD9B273979C4DB946
:10051000ED5A7139D739272773CE713999DD3A32BF
:10052000E59CEB5CCD050D0F929DAB64E72AD9B934
:100530004A76AE929DAB64E72A598CD145175D741B
:10054000D1450A4D079DAB9DB2B1395749272B2E96
:10055000E76AD791652F5793652F57E3CAB9DA2910
:100560001B9B734EA723536EBB565C6B25959B7EDE
:10057000D9B94B4EE66476EB709476CEB9BC72DB9B
:10058000B5E272AE76CAC6E65CED3A070D0FD5E568
:1005900094BC9C929753F2724A5E4EC9CB2979E57E
:1005A000955452492595545249259554524925153B
:1005B000192307524E2AA9A453B8954ED9D099555C
:1005C0004E92659593540F08C1F7C1FFC1D5FFC185
:1005D000DFFFC1F5FBFFD1C0E0E0F0F0F0F0F8FC88
:1005E000FEFF7F7FFEFC600001010707070707078A
:1005F00007070400000000100BC0202010D0D050CE
:10060000180402816141829C600001010701000021
:10061000000400030400000000F8FCFCFCFC78F877
:10062000FCFCFCFCFCF8F8FCFCFCFCFCB8F8FCFC5A
:10063000FCFCF8F8FCFCFCFCD8F8FCFEFFFFFFFF1C
:10064000FFFFFEFCF80103030100000103030101A9
:100650000303010303030303010303030301000373
:1006600003030301000103070F0F0F0F0F0F070311
:10067000012C0CF80404B48448F80404D41404C80D
:10068000F80404D49464B84884941424F8488494F6
:100690001424D8F8040201F14949F1010204F801D7
:1006A0000202010000010202010102020102020233
:1006B0000202010202020201000202020201000122
:1006C000020408090808090804020129100040A0D2
:1006D0005000CF012101FFFF000000800000FFFF5C
:1006E000FF0000000000BFBF1F00004040E0F8FF17
:1006F000FF00A854A850AA55AA5500FFFFFFFFFF0E
:10070000FF00AA55AA5500FFFFFF00AA55AA00FF47
:10071000FFFF0054AA54A803FFFF00AA55AA55A042
:1007200050A04000CF012101FFFF00A050A04000D9
:10073000FFFFFF00A050A000BFBF1F40005040E0DF
:10074000F8FFFF00A050A040AA55AA5500FFFFFFE8
:10075000FFFFFF00AA55AA5500FFFFFF00AA55AAF8
:1007600000FFFFFF0055AA55A803FFFF00AA55AAE6
:10077000558040A04000CF012101FFFF00A854A8F0
:100780005000FFFFFF00A854A800BFBF1F0000409B
:1007900040E0F8FFFF00A854AA54AA55AA5500FF4C
:1007A000FFFFFFFFFF00AA55AA5500FFFFFF00AAA9
:1007B00055AA00FFFFFF0054AA54A803FFFF00AA98
:1007C00055AA55F8FCFEFFFFFFFFFFFFFFFFFFFFED
:1007D000FFFFFFFFFFFFFFFFFFFFFFFFFFFFFFFF29
:1007E000FFFFFFFFFFFFFFFFFFFFFFFFFFFFFFFF19
:1007F000FFFFFFFFFFFFFFFFFFFFFFFFFFFFFFFE0A
:10080000FCF8FFFFFFFFFFFFFFFFFFFFFFFFFFFF02
:10081000FFFFFFFFFFFFFFFFFFFFFFFFFFFFFFFFE8
:10082000FFFFFFFFFFFFFFFFFFFFFFFFFFFFFFFFD8
:10083000FFFFFFFFFFFFFFFFFFFFFFFFFFFFFFFFC8
:10084000FFFFFFFFFFFFFFFFFFFFFFFFFFFFFFFFB8
:10085000FFFFFFFFFFFFFFFFFFFFFFFFFFFFFFFFA8
:10086000FFFFFFFFFFFFFFFFFFFFFFFFFFFFFFFF98
:10087000FFFFFFFFFFFFFFFFFFFFFFFFFFFFFFFF88
:10088000FFFFFFFFFFFFFFFFFFFFFFFFFFFFFFFF78
:10089000FFFFFFFFFFFFFFFFFFFFFFFFFFFFFFFF68
:1008A000FFFFFFFFFFFFFFFFFFFFFFFFFFFFFFFF58
:1008B000FFFFFFFFFFFFFFFFFFFFFFFFFFFFFFFF48
:1008C000FFFFFFFFFFFFFFFFFFFFFFFFFFFFFFFF38
:1008D000FFFFFFFFFFFFFFFFFFFFFFFFFFFFFFFF28
:1008E000FFFFFFFFFFFFFFFFFFFFFFFFFFFFFFFF18
:1008F000FFFFFFFFFFFFFFFFFFFFFFFFFFFFFFFF08
:10090000FFFFFFFFFFFFFFFFFFFFFFFFFFFFFFFFF7
:10091000FFFFFFFFFFFFFFFFFFFFFFFFFFFFFFFFE7
:10092000FFFFFFFFFFFFFFFFFFFFFFFFFFFFFFFFD7
:10093000FFFFFFFFFFFFFFFFFFFFFFFFFF000103C0
:100940000707070707070707070707070707070737
:100950000707070707070707070707070707070727
:100960000707070707070707070707070707070717
:100970000707070707070707070301003F33F804C6
:10098000FA0D05E5E52525252525252525252525FA
:10099000E52525252525252525E525252525252587
:1009A000252525252565E5E5E5E5252525252525B7
:1009B0002525252525E5E5E5050DFA04F8FF00FFC9
:1009C0000000FFFFFF000000000000FF1F1C18F8E0
:1009D000FF000000000000FFFFFF0000000000FF1C
:1009E000FFFF000000000083FFFF00000000000088
:1009F000FFFF3F38F8FFFF0000FF00FFFF00FF0090
:100A000000FFFFFF000000000000FCF0F0F0FFFF1F
:100A1000000000000000FFFFFF0000000000FBFBE3
:100A2000F1000004040E3FFFFF000000000000FD85
:100A3000FDE0E0FFFFFF0000FF00FFFF00FF000000
:100A4000FFFFCFC0C0C0C0C0404F7F7F7F7F4FC07F
:100A5000C0C04040404FFFCF4040C0C0C04F7F7F2C
:100A6000E04040404040FFCFC040404040C0CFCF7A
:100A7000C7C0F0FFFF0000FF00FFFF00FF0000FF06
:100A8000FF9F2F37470F9FFF0000007F7F0080C12F
:100A9000FF03FC000001FFFF00C0030F3F0000FF49
:100AA000FF000000FFFF030000FFFEF89F2F374705
:100AB0000F9FFFFF0000FF00FFFF00FF80003F3F90
:100AC0003F3F3E3E3F3F2F2020202F3F3F3F2F20E4
:100AD0002D3D2D2020202F202F3F3C3020203F2F48
:100AE0002020202F3F3C30202F27333F3F3E3E3FEA
:100AF0003F3F3F0080FF00FF00010205050505059F
:100B00000505050505050505050505050505050595
:100B10000505050505050505050505050505050585
:100B20000505050505050505050505050505050575
:100B300005050505020100008080C0C0C0FFFFFF61
:100B4000FFFFFFFFFFFFFFFFFFFFFFFFFFFFFFFFB5
:100B5000FFFFFFFFFFFFFFFFFF80C1C3C3E3E3FF12
:100B6000FFFFFFFFFFFFFFFFFFFF7FFFFFFFFFFF15
:100B7000FFFFFFFFFFFFFFFFFFFFFFC0E0E1E1E13D
:100B8000E1FFFFFFFFFFFFFFFFFFFFFF3F7F7F7FD3
:100B9000FFFFFFFFFFFFFFFFFFFFFFFFFF00000062
:100BA000000000FFFFFFFFFFFFFFFFFFFFFF000050
:100BB000000000000F1F3F7FFFFFFFFFFFFFFF113F
:100BC00040008080404040BF8040DFDF10D7EAEA2D
:100BD0006D75FF00F6F77B787B7A393D3D3E3E3EF2
:100BE0001E1F1F80414242A222BEA2A2BE9E10D65C
:100BF000D4D5E8EA7F803B3B3B383B393D3D3D3C2B
:100C00003D3D3D3D3DC020A1A1A121BFA1A1BCBE54
:100C100020AEA8AAA8AA3F405D5DBDBC3B3A3A7B86
:100C20007B78F7F7F7F7F7000000000000FF0101FD
:100C3000FAF4FAF4F8F4E8F10000000000000F10F4
:100C400020478F3F7FFFFFFFFF04087EFF817E82EA
:100C5000FEFF80C6A19FCE6689FF7638ACFFB06FDD
:100C600089F9707EFF857883F1FD83768D99761EF4
:100C7000BFA17E0E18FEFEFCF9F7FBF93143677F3A
:100C8000FFFFFFFFFFFFFFFFFFFFFFDFCE80303FD3
:100C90007FFFFFFFFFFFFFFFBFBF97C7F3F8FC2AEF
:100CA000183F9FDFC3B1F9F9F3C7F1FCFEFCF1C7B0
:100CB000F3F9F9F3C7F7FBFBE78FBF0F67E68E3C4D
:100CC0003977FBF93143677FFFFFFFFEFFFFFFFF2F
:100CD000FFFFFFFFFFFFFFFFFFFFFFFFFFFFFFFF24
:100CE000FFFFFFFFFFFFFEFFF773680C9FFFFFDFB3
:100CF000CE80303F7FFFFFFFFFFFFFFFFFFFFFFFC3
:100D0000FFFFFFFFFFFFFFFFFFFFFFFFFFFFFFFFF3
:100D1000BFBF97CFEFE6E0F1BFBF97C7F3F8FC2363
:100D2000183F9FDFC3B1F9F9F347717CFEFC7147AF
:100D30007379F9F3C7F7FBFBE78FBF0F67E78F3FC7
:100D40003F7FFFFFFEFFF3F9F9F3F9FCFEFEFEFC27
:100D5000FEFEFFFFFEFCF9FDFCFCF8C1D39F1F3E29
:100D6000FFF773680C9FFFFFFFFFFFFFFFFFFFFF11
:100D7000FFFFFFFFFFFFFFFFFFFFBF7F7F3FBB9333
:100D8000C5FCBEBF97CFEFE6E0F11E18FFFFFFFFE7
:100D9000E77373E77399CCECCC19EDF4F6660CB9F4
:100DA000B33B3979F183A73F3F7FBFBF9FA7B09E79
:100DB000CFE69C3F7F3F9F7FFFFFFF7E3F8FEF6728
:100DC000F0F87F77278BF8FCFFFF3F7FFFFF7FFF67
:100DD000FFFF3F7FFFFF7EFEFEFF3F7FFFFF7EFEA8
:100DE000FEFF3F7FFFFF1810FFFFFFFF1FCFEFDF6A
:100DF0008FF3F9FDF9E3FDFEFECCE1F7F7E7070F0E
:100E0000F7F7F3F4F6F3F9FCF3E7EFE7F3EFDFDFDF
:100E1000DFEFE7F1FDFCFEFFF0F8FCFEFFFFFFFF58
:100E20000707FFFFFFFFFFFFFFFF000001030707AA
:100E30000707070700000A13F008F412B535E505A7
:100E40000101FF00EF08288CEF00000001020505FA
:100E50000505010000003C3E3F3F3F3E3C07063C8D
:100E6000023D0105023C3C0205013D023C00000040
:100E70000080C0E0E0E0E0E0E0E0E0E0E0E0E0FCB6
:100E8000FEFFFFFFFEFCC080000000000000FEFF30
:100E9000FFFFFFFFFFFFFFFFFFFFFFFFFFFFFFFF62
:100EA000FFFFFFFFFFFFFFFFFCF8000000FFFFFF59
:100EB000FFFFFFFFFFFFFFFFFFFFFFFFFFFFFFFF42
:100EC000FFFFFFFFFFFFFFFFFF00060F0F1F1F1FAA
:100ED0003F7F7F7F7F3F1F1F1F1F1F1F1F1F3F7FE2
:100EE0007F7F7F3F1F1F1F0F071F1F000000008015
:100EF00040A0A0A0A0A0A0A0A0A0A0A0A0BC82856F
:100F000081BD823C4080000000000000FE01FC85A5
:100F1000FD01FF03FDBDDDEDBD9D85FD03FF030567
:100F2000BDDDAD3C380304F8000000FF0082B24A8A
:100F3000BBBBBBBA7AFACACE8686CECBFB7BBABA2B
:100F4000BAB26AE2EA00FF0006090A161116234146
:100F50004C444123161113131313111623414C440F
:100F600041231611170807181AFFFFFFFFFFFFFFA5
:100F7000FFFFFFFFFFFFFFFFFFFFFFFFFFFFFFFF81
:100F8000FFDFDFDFDFDF5F5F5F5F1F1F1F1F5F5F51
:100F90005F5F5F5F5F5F5F5F5FF7F7F7F7F7F7F739
:100FA000F7F7F7F7F7F6F4F0E1C307173777F7F736
:100FB000F70303030303030303030303030303030D
:100FC000030303020000010303F8FFFFFEFCFCFC27
:100FD000FC0303030303030303080A28070922147D
:100FE0002408040101020101010101000000007058
:100FF000F8FCFEFEFFFFFEFC6000000000000000A9
:10100000000000000000000060FCFEFFFFFEFEFC90
:10101000F870000000000080800082C7E7FFFFFF3B
:10102000FFFFFEFCFCFC3838383838383838B8B8A0
:1010300038FCFCFCFFFFFFFFFFFFC787020000003A
:1010400000070F1F1F0F07010100040E1F3F3F1B6A
:10105000010000000000000003070F1F0F07010040
:101060000000000F1F1F1F1E0C00000000000000EA
:1010700070F8FCFEFEFFFFFEFC60000000000000B8
:1010800000000000000000000060FCFEFFFFFEFE0C
:10109000FCF870000000000000000002C7E7FFFF3E
:1010A000FFFFFFFEFCFCFC38B8B838383838383859
:1010B00038B8FCFCFCFFFFFFFFFFFFC78702808002
:1010C00000000000000C1E1F1F1F0F000000000189
:1010D000070F1F0F0703000000000000011B3F3F28
:1010E0001F0E04000101070F1F1F0F07002B160022
:1010F00000000070880402160141229C600000007C
:10110000000000000000000000000000609C224180
:1011100001160204887000000000008080008245F3
:10112000243E80808091322444C4282828282828FE
:101130002828A8A828C4442493918080003E448590
:101140000200000000070810110806010100040A4F
:101150001121241A010000000000000003040811FE
:10116000080601000000000F101213120C0000000E
:101170000000000070880402160141229C600000FB
:1011800000000000000000000000000000609C2241
:1011900041011602048870000000000000000002F7
:1011A000C5243E00808091B22444C428A8A82828E1
:1011B0002828282828A844442493918080003E446D
:1011C0008502808000000000000C121312100F0036
:1011D00000000001060811080403000000000000E0
:1011E000011A2421110A0400010106081110080740
:1011F00000E60D8A0D1F0D9F0C730CF8FCFCFCFC27
:1012000078F8FCFCFCFCFCF8F8FCFCFCFCFCB8F8F6
:10121000FCFCFCFCF8F8FCFCFCFCD8F8FCFEFFFF36
:10122000FFFFFFFFFEFCF8010303010000010303C1
:101230000101030301030303030301030303030188
:10124000000303030301000103070F0F0F0F0F0F2C
:101250000703012C0CF80404B48448F80404D414E3
:1012600004C8F80404D49464B84884941424F84856
:1012700084941424D8F8040201F14949F1010204CC
:10128000F801020201000001020201010202010252
:101290000202020201020202020100020202020133
:1012A00000010204080908080908040201F8FCFE0C
:1012B000FFFFFFFFFFFFFFFFFFFFFFFFFFFFFFFF3E
:1012C000FFFFFFFFFFFFFFFFFFFFFFFFFFFFFFFF2E
:1012D000FFFFFFFFFFFFFFFFFFFFFFFFFFFFFFFF1E
:1012E000FFFFFFFFFFFFFFFFFFFFFFFFFFFFFFFF0E
:1012F000FFFFFFFFFEFCF8FFFFFFFFFFFFFFFFFF09
:10130000FFFFFFFFFFFFFFFFFFFFFFFFFFFFFFFFED
:10131000FFFFFFFFFFFFFFFFFFFFFFFFFFFFFFFFDD
:10132000FFFFFFFFFFFFFFFFFFFFFFFFFFFFFFFFCD
:10133000FFFFFFFFFFFFFFFFFFFFFFFFFFFFFFFFBD
:10134000FFFFFFFFFFFFFFFFFFFFFFFFFFFFFFFFAD
:10135000FFFFFFFFFFFFFFFFFFFFFFFFFFFFFFFF9D
:10136000FFFFFFFFFFFFFFFFFFFFFFFFFFFFFFFF8D
:10137000FFFFFFFFFFFFFFFFFFFFFFFFFFFFFFFF7D
:10138000FFFFFFFFFFFFFFFFFFFFFFFFFFFFFFFF6D
:10139000FFFFFFFFFFFFFFFFFFFFFFFFFFFFFFFF5D
:1013A000FFFFFFFFFFFFFFFFFFFFFFFFFFFFFFFF4D
:1013B000FFFFFFFFFFFFFFFFFFFFFFFFFFFFFFFF3D
:1013C000FFFFFFFFFFFFFFFFFFFFFFFFFFFFFFFF2D
:1013D000FFFFFFFFFF0103070F0F0F0F0F0F0F0F8F
:1013E0000F0F0F0F0F0F0F0F0F0F0F0F0F0F0F0F0D
:1013F0000F0F0F0F0F0F0F0F0F0F0F0F0F0F0F0FFD
:101400000F0F0F0F0F0F0F0F0F0F0F0F0F0F0F0FEC
:101410000F0F0F0F0F0F0F0F0F0F0F0F0703014AC3
:1014200024F804FA0D05050505050505050505055E
:10143000050505050505050505050505050505055C
:10144000050505050505050505050505050505054C
:10145000050505050505050505050505050505053C
:10146000050505050505050DFA04F8FF00FF000058
:10147000000000000000000000000000000000006C
:10148000000000000000000000000000000000005C
:10149000000000000000000000000000000000004C
:1014A000000000000000000000000000000000003C
:1014B0000000FF00FFFF00FF000000000000000030
:1014C000000000000000000000000000000000001C
:1014D000000000000000000000000000000000000C
:1014E00000000000000000000000000000000000FC
:1014F000000000000000000000000000FF00FFFFEF
:1015000000FF0000000000000000000000000000DC
:1015100000000000000000000000000000000000CB
:1015200000000000000000000000000000000000BB
:1015300000000000000000000000000000000000AB
:10154000000000000000FF00FF0102050B0A0A0A6C
:101550000A0A0A0A0A0A0A0A0A0A0A0A0A0A0A0AEB
:101560000A0A0A0A0A0A0A0A0A0A0A0A0A0A0A0ADB
:101570000A0A0A0A0A0A0A0A0A0A0A0A0A0A0A0ACB
:101580000A0A0A0A0A0A0A0A0A0A0A0A0A0A0A0BBA
:1015900005020102FFFFFFFEFEFFFFFFFFFFFFFF4F
:1015A000FEFEFFC7EFFFEEFFFFFFFEFEFFFFFF02A5
:1015B000003CFEFFFFFFFFFEFEFFFF1FFEFCFEFFE5
:1015C000FFFEFEFFFFFFFFFFFFFEBEFFFFFFFFF777
:1015D000EF3EFEFFFFFFFF8E081F1F1F0F0F1F1F95
:1015E0001F1F1F1F1F0F0F1F1F0F1F0F1F1F1F0F5B
:1015F0000F1F1F1F08000E1F1F1F1F0F070F1F1F8A
:101600000F07070F1F1F0F0F1F1F1F0F0F1F1F1F7A
:101610001F1F1F1F1F1F0E1F1F1F1F0F07450D021C
:10162000FD0101DEDE0101FDFD0101FD0602FDC53A
:101630002931AEFD0101DEDE0101FD02003CC201E7
:101640000D1971FE0201FD11FE0402FDFD0206FDF1
:101650000101BDBD0142BEFD0101BD15E93EC20152
:101660000D19718E081710100F0F1010171710108A
:10167000170C08171708100F1710100F0F1010175E
:1016800008000E11131610080708101709070408A0
:101690001717080C1710100F0F101017171010172E
:1016A00017110E111316100807008080C0C0C0FF6C
:1016B000FFFFFFFFFFFFFFFFFFFFFFFFFFFFFFFF3A
:1016C000FFFFFFFFFFFFFFFFFFFFFF80C1C3C3E37B
:1016D000E3FFFFFFFFFFFFFFFFFFFFFF7FFFFFFFB6
:1016E000FFFFFFFFFFFFFFFFFFFFFFFFFFC0E0E186
:1016F000E1E1E1FFFFFFFFFFFFFFFFFFFFFF3F7F94
:101700007F7FFFFFFFFFFFFFFFFFFFFFFFFFFF00E8
:101710000000000000FFFFFFFFFFFFFFFFFFFFFFD4
:101720000000000000000F1F3F7FFFFFFFFFFFFFD3
:10173000FF1140008080404040BF8040DFDF10D775
:10174000EAEA6D75FF00F6F77B787B7A393D3D3E1E
:101750003E3E1E1F1F80414242A222BEA2A2BE9E4A
:1017600010D6D4D5E8EA7F803B3B3B383B393D3D42
:101770003D3C3D3D3D3D3DC020A1A1A121BFA1A1DA
:10178000BCBE20AEA8AAA8AA3F405D5DBDBC3B3A46
:101790003A7B7B78F7F7F7F7F7000000000000FFCF
:1017A0000101FAF4FAF4F8F4E8F100000000000096
:1017B0000F1020478F3F7FFFFFFFFF120113001420
:1017C000001501160217041807190B1A101B171C15
:1017D0001E1D251E201F1B20162111220C2308244C
:1017E00005250326022701280129012A012B022CA5
:1017F000032D052E082F0C30113116321B332134E6
:10180000253521361E371A381639123A0E3B0B3C55
:10181000093D083E073F07400741084209430B4482
:101820000E45124616471A481E49214A254B224C9E
:101830001F4D1C4E1A4F1851165315551457145955
:10184000145B145D155F166118621A631C641F65D2
:10185000226625010102020303030202010116129E
:101860004A2B462B422B3F2A3C293A273924382041
:10187000371B37163711370C380839053A033C0245
:101880003E014100440047004A004C00120E372B35
:101890003725371F37193713370D380839053A03FD
:1018A0003C013E01400042004400460048004A001E
:1018B0004C00130F202B22252420261B28162A112A
:1018C0002C0C2E0830053203350238013B003E0057
:1018D0004100440047004A004C000E180101030675
:1018E000080406CEBC988000000000000000000044
:1018F000000020317FCFC0800000000000000040C9
:101900004068380C07032A18C060203C4E06060CBD
:10191000380E0301030E380C06060C3808040418B0
:101920007040F0981971C3C6880406CEBC98800038
:1019300000000100000000000000000000000000A6
:10194000000000000000000000000000000100088E
:101950008C97F360000020317FCFC0800000000032
:101960000000000000000000000000000000000077
:10197000000000000000004040683010191F0E40B9
:101980004068380C07032318C060203C4E06060C44
:10199000B88E8301038EB88C86060C3808040418B0
:1019A0007040F0981870C0C080000001000C06065E
:1019B0000C060301010103010100000103060203FB
:1019C00003073E2C60E0C100088C97F36000000024
:1019D0000000000000000000000000000000000007
:1019E00000408080C0446C3A034140683010191FA9
:1019F0000E1E1800000000188C8C188C66331333F0
:101A0000E6120B0999F3464CC4C6860E7C58C0C03A
:101A100080404060584F61301963C080C0608000D2
:101A2000000081C07010980F078088D874070300E9
:101A3000E020408080008000E02040808001810123
:101A4000E020408080018101E0204080801810006B
:101A5000000000E0301020700C0602061C0201019C
:101A6000331E080818F8F008080C0B090C06030CC4
:101A70001810180C1020202010180E020301000E60
:101A800018FEFEFCF9F7FBF93143677FFFFFFFFF0C
:101A9000FFFFFFFFFFFFFFDFCE80303F7FFFFFFF35
:101AA000FFFFFFFFBFBF97C7F3F8FC2A183F9FDF78
:101AB000C3B1F9F9F3C7F1FCFEFCF1C7F3F9F9F38F
:101AC000C7F7FBFBE78FBF0F67E68E3C3977FBF963
:101AD0003143677FFFFFFFFEFFFFFFFFFFFFFFFFB9
:101AE000FFFFFFFFFFFFFFFFFFFFFFFFFFFFFFFF06
:101AF000FFFFFEFFF773680C9FFFFFDFCE80303FD4
:101B00007FFFFFFFFFFFFFFFFFFFFFFFFFFFFFFF65
:101B1000FFFFFFFFFFFFFFFFFFFFFFFFBFBF97CFED
:101B2000EFE6E0F1BFBF97C7F3F8FC23183F9FDF54
:101B3000C3B1F9F9F347717CFEFC71477379F9F38E
:101B4000C7F7FBFBE78FBF0F67E78F3F3F7FFFFFC5
:101B5000FEFFF3F9F9F3F9FCFEFEFEFCFEFEFFFFCB
:101B6000FEFCF9FDFCFCF8C1D39F1F3EFFF7736834
:101B70000C9FFFFFFFFFFFFFFFFFFFFFFFFFFFFFC8
:101B8000FFFFFFFFFFFFBF7F7F3FBB93C5FCBEBFD3
:101B900097CFEFE6E0F11E18FFFFFFFFE77373E753
:101BA0007399CCECCC19EDF4F6660CB9B33B3979EA
:101BB000F183A73F3F7FBFBF9FA7B09ECFE69C3F6B
:101BC0007F3F9F7FFFFFFF7E3F8FEF67F0F87F77BC
:101BD000278BF8FCFFFF3F7FFFFF7FFFFFFF3F7F6B
:101BE000FFFF7EFEFEFF3F7FFFFF7EFEFEFF3F7F8B
:101BF000FFFF1810FFFFFFFF1FCFEFDF8FF3F9FD8F
:101C0000F9E3FDFEFECCE1F7F7E7070FF7F7F3F492
:101C1000F6F3F9FCF3E7EFE7F3EFDFDFDFEFE7F1F0
:101C2000FDFCFEFFF8FCFEFFFFFFFFFFFFFFFFFFD5
:101C3000FFFFFFFFFFFFFFFFFFFFFFFFFFFFFFFFB4
:101C4000FFFFFFFFFFFFFFFFFFFFFFFFFFFFFFFFA4
:101C5000FFFFFFFEFCF8FFFFFFFFFFFFFFFFFFFF9F
:101C6000FFFFFFFFFFFFFFFFFFFFFFFFFFFFFFFF84
:101C7000FFFFFFFFFFFFFFFFFFFFFFFFFFFFFFFF74
:101C8000FFFFFFFFFFFFFFFF070F1F3F3F3F3F3FEC
:101C90003F3F3F3F3F3F3F3F3F3F3F3F3F3F3F3F54
:101CA0003F3F3F3F3F3F3F3F3F3F3F3F3F3F3F3F44
:101CB0003F3F3F3F3F3F3F1F0F07321600F804F200
:101CC0000A0A0A0A0A0A4ACACA4ACA8A0A4ACACA74
:101CD0000A0ACACA0ACACA0A8ACA4ACA8A0A4ACAA4
:101CE000CA4ACA0A0A0A0A0A0A0AF204F80000FFE3
:101CF00000FF00000000000080FFFF880F0380FE4F
:101D000027FFF8803FFF80FF3F0043C78EFC78002D
:101D100080FFFF84CE00000000000000FF00FF00F5
:101D200000070813141414141414141414141414A1
:101D30001414141414141414141414141414141463
:101D40001414141414141414141414141414130860
:101D50000700F8FCFEFFFFFFFFFFFFFFFFFFFFFF95
:101D6000FFFFFFFFFFFFFFFFFFFFFFFFFFFFFFFF83
:101D7000FFFFFFFFFFFFFFFFFFFFFFFFFFFFFFFF73
:101D8000FFFFFFFFFFFFFFFFFFFFFFFFFFFFFFFE64
:101D9000FCF8FFFFFFFFFFFFFFFFFFFFFFFFFFFF5D
:101DA000FFFFFFFFFFFFFFFFFFFFFFFFFFFFFFFF43
:101DB000FFFFFFFFFFFFFFFFFFFFFFFFFFFFFFFF33
:101DC000FFFFFFFFFFFFFFFFFFFFFFFFFFFFFFFF23
:101DD000FFFF070F1F3F3F3F3F3F3F3F3F3F3F3F1B
:101DE0003F3F3F3F3F3F3F3F3F3F3F3F3F3F3F3F03
:101DF0003F3F3F3F3F3F3F3F3F3F3F3F3F3F3F3FF3
:101E00003F3F3F3F3F3F3F3F3F3F3F3F3F3F3F1F02
:101E10000F07401600F804F20A0A0ACA4ACACA0A98
:101E20000A4ACACA0A0A4ACACA0ACACA4A4ACACA12
:101E30004ACA0A0A0A0A0ACA4ACA0A4ACACA0ACAC2
:101E40004A4ACACA4ACA0A4ACACA4ACA8A0A0A0AB2
:101E5000F204F80000FF00FF00003FFF807CFD045B
:101E600080FE27FFF88080FF1F0EFFFF8080FFFFAE
:101E700084CE000000003FFF80FF3F0003FFFC070F
:101E80000080FFFF84CE0080FFFF08FFF38000008A
:101E9000FF00FF0000070813141414141414141482
:101EA00014141414141414141414141414141414F2
:101EB00014141414141414141414141414141414E2
:101EC00014141414141414141414141414141414D2
:101ED000130807003C3E3F3F3F3E3C07063C023DA7
:101EE0000105023C3C0205013D023C00000000806F
:101EF000C0E0E0E0E0E0E0E0E0E0E0E0E0FCFEFFA9
:101F0000FFFFFEFCC080000000000000FEFFFFFF9E
:101F1000FFFFFFFFFFFFFFFFFFFFFFFFFFFFFFFFD1
:101F2000FFFFFFFFFFFFFCF8000000FFFFFFFFFFC8
:101F3000FFFFFFFFFFFFFFFFFFFFFFFFFFFFFFFFB1
:101F4000FFFFFFFFFFFFFF00060F0F1F1F1F3F7F59
:101F50007F7F7F3F1F1F1F1F1F1F1F1F3F7F7F7F11
:101F60007F3F1F1F1F0F071F1F000000008040A0A2
:101F7000A0A0A0A0A0A0A0A0A0A0A0BC828581BD80
:101F8000823C4080000000000000FE01FC85FD0155
:101F9000FF03FDBDDDEDBD9D85FD03FF0305BDDD3B
:101FA000AD3C380304F8000000FF0082B24ABBBB1E
:101FB000BBBA7AFACACE8686CECBFB7BBABABAB2A5
:101FC0006AE2EA00FF0006090A16111623414C4492
:101FD0004123161113131313111623414C444123AB
:101FE000161117080780C0E0F0E0C4CEFFFFFFFF26
:101FF000CEC4E0F0E0C08003173F7FFFFFFFFFFF8C
:10200000FFFFFFFFFF7F3F170300000000000101FB
:10201000000000000101000000000000000000C0FE
:10202000E4CEFFFFFFFFCEE4C00000000000000090
:102030001FBFFFFFFFFFFFFFFFFFBF1F00000000EC
:10204000000000000101000000000101000000008C
:102050000000000000C0E4CEFFFFFFFFCEE4C000A0
:102060000000000000000087DFFFFFFFFFFFFFDF31
:1020700087000000000000000000010100000000D7
:1020800001010000000000000000000004CEFFFF7E
:10209000FFFFCE0400000000000000000080D8FD1B
:1020A000FFFFFFFFFDD880000000000000000000DF
:1020B0000101000000000101000000000012118079
:1020C00040A01020C4CA35151535CAC42010A04040
:1020D0008002152851C65865BA8181BA6558C65123
:1020E00028150200000000000101000000000101AD
:1020F000000000000000000000C024CA351515359E
:10210000CA24C0000000000000001FA05865BA816A
:1021100081BA6558A01F0000000000000000010106
:10212000000000000101000000000000000000C0ED
:1021300024CA35151535CA24C0000000000000006F
:1021400000875865BA8181BA655887000000000091
:10215000000000000101000000000101000000007B
:1021600000000000000004CA35151535CA0400003F
:1021700000000000000000805865BA8181BA6558EF
:1021800080000000000000000000010100000000CD
:10219000010100000000003E7F3E7F3E7F7F3E7FCA
:1021A0007E3E7F3F0E2E7F2E11073E4136413E413F
:1021B000553E415E3E41350A2E512EC0E0E0F0F022
:1021C000F0F0F8FCFEFF7F7FFEFC600001010707D6
:1021D0000707070707070400000000100BC02020B6
:1021E00010D0D050180402816141829C600001012E
:1021F00007010000000400030400000000000000CC
:102200000000C0E0F0F0E0C00000000000000000AE
:10221000000001030301000000000000000080E056
:10222000F0F8F8F8F0E0C00000000000000103073B
:10223000070F0F070301000000C0E0F8FCFEFEFFDF
:10224000FFFFFFFEFEFCF8F003070F1F1F3F7F7F1D
:102250007F7F3F1F0F03010080D8FCFE7E3F1E0CD6
:102260009C3E7F3F9E0C03070F1F1F0F0E1E3F7FDC
:102270003F1E0D0301000C9EBF3F1E0400040E1FF5
:102280003F3F1E0C060F1F3F1F0E0400081C3E7F21
:102290003F1E0C0002070F060000000000070F1F82
:1022A0001E1C0E1E3E3C380000000010387C38100A
:1022B00000020702000000000000000002070E04F8
:1022C000081C381000000000000000002070200FE3
:1022D0000F0000000000C020D0D020C0000000008F
:1022E00000000000000001020201000000000000E8
:1022F0000000000000C02020C0000000000000001E
:1023000000000000000101000000000000000000CB
:10231000806090E8E8C8D020C00000000000000104
:102320000205050B0B050201000000000000008003
:102330006010103020C0000000000000000001020A
:10234000020404020100000000C020D8E4DAFAFD13
:10235000FDFDF5FAFAF408F003040B17172B5F5F85
:102360005F5E2D130D020100C0201824040202023A
:102370000A040408F00000030408081420202021A7
:10238000120C02010000805864DA5A2D120C942AB3
:102390005D2D920C03040B1716090E122D5E2D12E3
:1023A0000D0201000080982424120C00081422124F
:1023B0000C00000304080906000C1221120C000195
:1023C00000000C92AD251A0400040A152D2D120CE4
:1023D0000609162E150A040008142A5D2D120C0099
:1023E000000C121A04000000040A12120C0000066D
:1023F00009110A04000000081422120C0000020552
:1024000009060000000000060915120C0C122A240F
:1024100038000000001028542810000002070F06A2
:102420000000000000060F1F1E0C0C1E3E3C380072
:1024300000000010387C3810000205020000000087
:102440000000000002070E04081C38100000000005
:1024500000000000207020000200000000000000CA
:10246000000000020400000810000000000000004E
:1024700000000020000E0E0E1F1F1F1F1F1F0E0E3C
:102480000E001C1F1F1F1F1F1F1F1F070000071FFD
:102490001F1F1F1F1F1F1F1C000C050E0A0E1F15DC
:1024A0001F1F151F0E0A0E000400000A00000A007C
:1024B000000400001C171D1F171D1F171D0700001B
:1024C000000802000802000802000000071D171F94
:1024D0001D171F1D171C0000000208000208000243
:1024E000080000C0E0E0F0FCFEFFFFFFFEFFF6F892
:1024F000F0F060003179797D3F0F0F0F0F07070F64
:102500001E0F060E1F1FFEF8F0FFFFFFFFFCF8F87E
:10251000F0E000000010397F7F2F3F7F7F3F0B07E7
:1025200007020030F8BCF8F0F0F8F8F8F8FEDFCF5A
:10253000CFC6800307070F377F3F7F7F7F3F1F078F
:10254000030301A0F0F0E8FEFFFFFEFAFFFFCE0458
:1025500000000003070F0F1F7F7F7F7F070F3F7C67
:102560007C38000030F8FCFEFEFEFC7E3CF8F8F003
:10257000C00000163F3F1F0F1F3F3F3F3F1F1F1F61
:102580001F1F0E00C6EFFEFFFFFEFCFCFEFEFCF868
:1025900070000000033F7F7F7F3F3C3D1F1F0F0304
:1025A000010000387CFCFCFCFC7E7EFEFEFCF8FC9E
:1025B000FE7E34000001070F0F1E3F1F3F3F3F1FED
:1025C0000F06000040E0F8FCFCDE9EFEFFFFFFFE71
:1025D000E0000000070F1F3F3F1F1F3F7F7F3F7B33
:1025E000310000100FC02020107CC28109191A6927
:1025F00036889090600031494945320A080808053C
:1026000005091209060E1111E608300F31190B8C5D
:10261000C80810E0000000102946502E3843463507
:102620000B0405020030C8A4C85050080808A8A62A
:10263000514949468003040408364B2D4C4840213B
:102640001F04020201A05010E8D631610E3A053194
:10265000CA040000000304080918684C46780608FC
:1026600033444438000030C884020222B4523CC8CB
:102670000830C000001629241E08102020232D1623
:10268000161711110E00C6291A0D09028C04C282F8
:10269000048870000000033C424E5D332425121371
:1026A0000E020100003844C47434B45A6282020439
:1026B00008BC924A340000010608091E2516222093
:1026C00020100906000040A038E4A45292665D394B
:1026D000211EE00000000708102021101820485893
:1026E0002C4A3100000000000070F8FCFEFEFFFFE5
:1026F000FEFC600000000000000000000000000080
:10270000000060FCFEFFFFFEFEFCF8700000000011
:102710000080800082C7E7FFFFFFFFFFFEFCFCFC9C
:102720003838383838383838B8B838FCFCFCFFFF4F
:10273000FFFFFFFFC7870200000000070F1F1F0FEA
:1027400007010100040E1F3F3F1B010000000000B5
:10275000000003070F1F0F0701000000000F1F1FDD
:102760001F1E0C0000000000000070F8FCFEFEFFC1
:10277000FFFEFC6000000000000000000000000000
:1027800000000060FCFEFFFFFEFEFCF87000000091
:10279000000000000002C7E7FFFFFFFFFFFEFCFC98
:1027A000FC38B8B838383838383838B8FCFCFCFF52
:1027B000FFFFFFFFFFC78702808000000000000CC2
:1027C0001E1F1F1F0F0000000001070F1F0F070330
:1027D000000000000000011B3F3F1F0E040001012C
:1027E000070F1F1F0F07002B160000000070880442
:1027F00002160141229C6000000000000000000061
:10280000000000000000609C224101160204887054
:1028100000000000008080008245243E808080917E
:10282000322444C42828282828282828A8A828C4CE
:10283000442493918080003E4485020000000007FC
:102840000810110806010100040A1121241A0100D0
:102850000000000000000304081108060100000049
:10286000000F101213120C0000000000000070880E
:102870000402160141229C600000000000000000DC
:1028800000000000000000609C2241011602048844
:1028900070000000000000000002C5243E0080809F
:1028A00091B22444C428A8A828282828282828A881
:1028B00044442493918080003E448502808000003F
:1028C0000000000C121312100F0000000001060897
:1028D00011080403000000000000011A2421110A5D
:1028E000040001010608111008070018BCFEFFFFD4
:1028F000FEFCFEFFFFFEBC1803070F1F1F0F070F94
:102900001F1F0F07030D0D18A4422151EAF4E241E5
:102910008142A418030408101008050A11100804C5
:10292000034D1AF11986190619DA1800FC02010183
:102930000101010101010101010101010101010187
:102940000101010101010101010101010101010276
:10295000FC00102F50A0A0A0A0A0A0A0A0A0A0A00C
:10296000A0A0A0A0A0A0A0A0A0A0A0A0A0A0A0A067
:10297000A0A0A0A0A0A0502F10F21B961B2B1BAB59
:102980001A7F1A271000FC02010101010101010157
:102990000101010101010101010101010101010127
:1029A00001010101010101010102FC00102F50A0F1
:1029B000A0A0A0A0A0A0A0A0A0A0A0A0A0A0A0A017
:1029C000A0A0A0A0A0A0A0A0A0A0A0A0A0A0A0A007
:1029D000502F10F8FCFEFFFFFFFFFFFFFFFFFFFF80
:1029E000FFFFFFFFFFFFFFFFFFFFFFFFFFFFFFFFF7
:1029F000FFFFFFFFFFFFFFFFFFFFFFFFFFFFFFFFE7
:102A0000FFFFFEFCF8FFFFFFFFFFFFFFFFFFFFFFE1
:102A1000FFFFFFFFFFFFFFFFFFFFFFFFFFFFFFFFC6
:102A2000FFFFFFFFFFFFFFFFFFFFFFFFFFFFFFFFB6
:102A3000FFFFFFFFFFFFFF070F1F3F3F3F3F3F3FEE
:102A40003F3F3F3F3F3F3F3F3F3F3F3F3F3F3F3F96
:102A50003F3F3F3F3F3F3F3F3F3F3F3F3F3F3F3F86
:102A60003F3F3F3F3F3F1F0F07321600F804F20A77
:102A70000A0A0A0A0A4ACACA4ACA8A0A4ACACA0AB6
:102A80000ACACA0ACACA0A8ACA4ACA8A0A4ACACA26
:102A90004ACA0A0A0A0A0A0A0AF204F80000FF00EF
:102AA000FF00000000000080FFFF880F0380FE276A
:102AB000FFF8803FFF80FF3F0043C78EFC78008017
:102AC000FFFF84CE00000000000000FF00FF0000B8
:102AD00007081314141414141414141414141414D0
:102AE00014141414141414141414141414141414A6
:102AF00014141414141414141414141414130807B0
:102B0000003C3E3F3F3F3E3C07063C023D01050284
:102B10003C3C0205013D023C0000000080C0E0E0BA
:102B2000E0E0E0E0E0E0E0E0E0E0FCFEFFFFFFFEF0
:102B3000FCC080000000000000FEFFFFFFFFFFFF61
:102B4000FFFFFFFFFFFFFFFFFFFFFFFFFFFFFFFF95
:102B5000FFFFFFFCF8000000FFFFFFFFFFFFFFFF8C
:102B6000FFFFFFFFFFFFFFFFFFFFFFFFFFFFFFFF75
:102B7000FFFFFFFF00060F0F1F1F1F3F7F7F7F7F9D
:102B80003F1F1F1F1F1F1F1F1F3F7F7F7F7F3F1F75
:102B90001F1F0F071F1F000000008040A0A0A0A063
:102BA000A0A0A0A0A0A0A0A0BC828581BD823C4026
:102BB00080000000000000FE01FC85FD01FF03FD18
:102BC000BDDDEDBD9D85FD03FF0305BDDDAD3C38DD
:102BD0000304F8000000FF0082B24ABBBBBBBA7A14
:102BE000FACACE8686CECBFB7BBABABAB26AE2EA22
:102BF00000FF0006090A16111623414C4441231612
:102C00001113131313111623414C444123161117AA
:102C100008070000000000C0E0F0F0E0C000000085
:102C2000000000000000000103030100000000009C
:102C300000000080E0F0F8F8F8F0E0C000000000CC
:102C40000000010307070F0F070301000000C0E0A9
:102C5000F8FCFEFEFFFFFFFFFEFEFCF8F003070F8F
:102C60001F1F3F7F7F7F7F3F1F0F03010080D8FC26
:102C7000FE7E3F1E0C9C3E7F3F9E0C03070F1F1FD6
:102C80000F0E1E3F7F3F1E0D0301000C9EBF3F1E17
:102C90000400040E1F3F3F1E0C060F1F3F1F0E04B3
:102CA00000081C3E7F3F1E0C0002070F06000000BC
:102CB0000000070F1F1E1C0E1E3E3C3800000000C7
:102CC00010387C38100002070200000000000000ED
:102CD0000002070E04081C3810000000000000006D
:102CE000002070200F0F0000000000C020D0D02076
:102CF000C00000000000000000000001020201000E
:102D000000000000000000000000C02020C0000003
:102D100000000000000000000000010100000000B1
:102D20000000000000806090E8E8C8D020C00000EB
:102D300000000000010205050B0B05020100000068
:102D400000000000806010103020C0000000000073
:102D50000000000102020404020100000000C02083
:102D6000D8E4DAFAFDFDFDF5FAFAF408F003040BF5
:102D700017172B5F5F5F5E2D130D020100C0201837
:102D800024040202020A040408F0000003040808F4
:102D90001420202021120C02010000805864DA5A0D
:102DA0002D120C942A5D2D920C03040B1716090E9C
:102DB000122D5E2D120D0201000080982424120CA9
:102DC00000081422120C00000304080906000C126B
:102DD00021120C000100000C92AD251A0400040A17
:102DE000152D2D120C0609162E150A040008142A9A
:102DF0005D2D120C00000C121A04000000040A12CF
:102E0000120C00000609110A040000000814221226
:102E10000C0000020509060000000000060915125A
:102E20000C0C122A2438000000001028542810002E
:102E30000002070F060000000000060F1F1E0C0C0A
:102E40001E3E3C380000000010387C38100002059F
:102E500002000000000000000002070E04081C38F9
:102E600010000000000000000020702000020000A0
:102E70000000000000000000020400000810000034
:102E80000000000000000000200004DEFFFEFEFF46
:102E9000FFFFFFFEFEFFDE04010307030103030340
:102EA0000301030703010E0B0004DE50FCFAFEFED3
:102EB000FAFC50DE040000010300000101010100E2
:102EC00000030100000000000000000000000000FE
:102ED00000FCFEFFFFFFFFFFFFFFFFFFFEFCF8E02F
:102EE000C00080F8FCFEFFFFFFFFFFFFFFFFFFFFBA
:102EF000FFFFFFFFFFFFFFFFFFFFFFFFFFFFFF8061
:102F000007070F0F0F1F3F3F3F3F1F0F0F0F0F0F01
:102F10000F0F0F1F3F3F3F3F1F0F0F0F07031E18DD
:102F200000000000000000000000000000FC02257E
:102F300001FDFD1DED2D2D29A2C41820C0008078B3
:102F400004D255B5D55555D5B575F5F5F0F7F0FF63
:102F50007FB8D75456D7B571F0807F8007040B082F
:102F60000B1120262220110B0809090909080B1151
:102F700020262220110B080B04031008030303036F
:102F8000030303030303030303030303271000FCEA
:102F90000201010101010101010101010101010120
:102FA0000101010101010101010101010101010111
:102FB000010102FC00102F50A0A0A0A0A0A0A0A082
:102FC000A0A0A0A0A0A0A0A0A0A0A0A0A0A0A0A001
:102FD000A0A0A0A0A0A0A0A0A0502F100820FFFF9C
:102FE000FFFFFFFFFFFFFFFFFFFFFFFFFFFF134795
:102FF0002F4F170F5F0F0C0A0A0A0A0A0A0A8530B8
:1030000011241FBECFEFDAE0DEBFCDBF11E0A0E09C
:10301000B1E0E6E6FCE602C005900D92A43BB107E4
:10302000D9F726E0A4EBB1E001C01D92A03CB207A5
:10303000E1F717E1C0E0D8E104C02197FE010E944A
:10304000F934CF3FD107C9F70E9473310C94313660
:103050000C940000089580E090E00895089508958C
:103060000895089508950895089508950895FC0118
:103070008AE191E091838083158214828EE091E051
:103080009383828388E0838781E08287178210861A
:103090001682818708950895CF92EF920F931F9320
:1030A000CF93DF93FC016A3039F485818483968164
:1030B0008185890F86834AC084816E3719F48D5FBC
:1030C000848344C0262FEF0166816F5F2A334CF45E
:1030D0002033C4F42D32C1F02E3281F0213249F573
:1030E00015C02B352CF421345CF42F3341F121C071
:1030F0009FE9920F9A31E8F4275409C02FE307C0E3
:10310000215405C02C5F03C021E401C02EE33F81A0
:10311000062E000C770B082E000C990B313089F429
:103120003AEFC32EE12C00E010E049EB50E00E94A2
:10313000D82088858B5F9C81890F8C8307C020E411
:10314000E6CF49EB50E00E945922F3CF81E090E0B6
:10315000DF91CF911F910F91EF90CF9008950C9434
:1031600094350C9494350C9494350C9494350C94BB
:1031700094350C9494350C9494350C949435EF92CA
:103180000F93CF93DF93C0E0D0E0E12C00E029ED76
:1031900034E049EE54E06BE370E0CE010E94D122AE
:1031A0002896C038D10589F7DF91CF910F91EF9024
:1031B0000895EF920F93CF93DF93C0E0D0E0E12C1E
:1031C00000E029ED34E049EE54E06CE170E0CE011E
:1031D0000E94D1222896C038D10589F725ED32E02A
:1031E00047ED53E063E370E080E090E00E94D1227D
:1031F00023EC31E04BE452E060E070E080E090E0EE
:103200000E94D122DF91CF910F91EF9008952F92DC
:103210003F924F925F926F927F928F929F92AF9266
:10322000BF92CF92DF92EF92FF920F931F93CF93B3
:10323000DF93CDB7DEB72A970FB6F894DEBF0FBE87
:10324000CDBF9A8789875B01DB0119969C901997FE
:103250001A968C911A97809589218D83E985FA8534
:1032600087A58111C6C2248527FF0EC017968D91B0
:103270009C91189765E070E00E94E534892B09F075
:10328000B8C22E5F2487B5C249845A84FDE14F0E2F
:10329000511C69847A842FE2620E711CC984DA841D
:1032A00032E2C30ED11CF601CF01059768167906EC
:1032B00019F010823696F8CF95FE07C0A985BA8519
:1032C0001C968C9118160CF4C1C285010C5F1F4F1F
:1032D00096FE31C0E985FA858484F1E3F8155CF146
:1032E000E82C082C000CFF08A7014F5F5F4FA98551
:1032F000BA851D962C911D97B801CD010E944230D0
:10330000882309F4A8C2A985BA8551969C91519742
:10331000911103C091E051969C93E985FA85B6E03E
:103320008B9FE00DF11D11242FE1E20EF11CF68EB2
:10333000E58E81E082A397FE20C0E985FA85858528
:103340008730D8F0FF24FA94F80EE985FA85448591
:10335000042E000C550B2F2DB801CF010E944230D6
:10336000882309F47EC2A985BA851E968C911E9782
:10337000811103C081E01E968C93A985BA8552966F
:103380008C91529781112EC097FC20C01D96FC9005
:103390001D97FA941C964C911C97042E000C550B0B
:1033A0002F2DB801CD010E944230882341F0E985DC
:1033B000FA85868581110AC081E0868707C0A985C4
:1033C000BA851D96FC921D9752961C92E985FA8546
:1033D0008585863009F44AC2843109F447C28132B6
:1033E00009F444C2F92DF071EF2E94FE1EC0A98598
:1033F000BA851D968C918132C0F4FF24F394F80EA7
:10340000E985FA854485042E000C550B2F2DB80153
:10341000CF010E944230882309F42EC2E985FA8543
:103420008785811102C081E08787E985FA859288C6
:10343000F1E09F122FC0E11021C0A985BA851D9629
:10344000FC901D97F3941C964C911C97042E000C35
:10345000550B2F2DB801CD010E944230882339F041
:10346000E985FA858785811109C0978607C0A985F6
:10347000BA851D96FC921D9752969C92E985FA8515
:103480008585863009F401C2843109F4FEC1813298
:1034900009F4FBC1420129843A84F0E22F0E311C69
:1034A0007101820121E00615170509F467C0D701F3
:1034B0008C9181115DC0A701415051095A83498304
:1034C00068E470E080E090E02E830E94A51FDC019C
:1034D000CB0180589F4FAF4FBF4FF801918380833E
:1034E00063E070E080E090E00E94A51FA981BA81AE
:1034F0006C9362E070E080E090E00E94A51FDC0128
:10350000CB010296A11DB11DF80184832E81D70144
:103510002C93E981FA814081D8016D917C913886A4
:103520002F82D20130E0A615B705F9F0EF81F885BA
:103530008081882399F0CF010197FC018081841359
:103540000DC08D919C911197861B970B97FF03C01F
:103550009195819591094F970CF49DC116968F8195
:103560009885069698878F83DECF313009F0A8CFF3
:103570000A5F1F4F96E0E90EF11C95CFA985BA8529
:1035800056968C915697811144C057968C91811113
:1035900044C062E070E080E090E00E94A51F162F1A
:1035A00063E070E080E090E00E94A51F9B01AC0109
:1035B0002F5F3F4F4F4F5F4F29833A834B835C838D
:1035C00064ED70E080E090E00E94A51FDC01CB017B
:1035D00080589F4FAF4FBF4FE985FA85948B838BFF
:1035E000112311F080E501C080EFA985BA855596B9
:1035F0008C935597E9815896EC9381E0111180E006
:10360000A985BA8559968C93599781E057968C93E2
:1036100004C08150E985FA85868BD50117968D9176
:103620009C9118979C0127703327232B51F421E09C
:10363000E985FA8530A9311120E0A985BA85D096AF
:103640002C9363E070E00E94E5340297C1F0E985B5
:10365000FA85828D8150883F11F0828F04C0A98540
:10366000BA855A961C92E985FA85838D8150803EF1
:1036700011F0838F04C0A985BA855B961C92E985F9
:10368000FA858789882379F1D50117968C9180FF77
:1036900004C129C0803891050CF410C1E985FA8570
:1036A000638974898589082E000C990B4485042E42
:1036B000000C550B25852B01F0E14F0E511C4415D4
:1036C00055050CF422C1F10109851A850E5C1F4FC6
:1036D0007C0120E1E20EF11C208121113AC13696D5
:1036E000E017F107C9F7FF24F3948614970409F44F
:1036F0005DC0860102501109F8018081882309F418
:103700004EC0D6018C9181114AC0F6013397408199
:10371000D401ED91FC91A985BA851D962C911D9738
:103720001C968C91082E000C990BDC015E96BC0156
:10373000605E7F4FE617F7070CF06EC1BF016E5F4A
:103740007F4FA617B7070CF067C130E0BEE04B9F74
:10375000A0011124DA015B96B901615E7F4FA617C3
:10376000B7070CF059C14B5D5F4F2B5E3F4F2417DD
:1037700035070CF051C14F96D4018D939C93E98588
:10378000FA858189811103C0E985FA85F18AF401FE
:1037900080819181823E9F4F14F4D8011C92B6E043
:1037A0008B0E911CE6E0CE0ED11C9FCFE984FA84EB
:1037B000FFE1EF0EF11C86E0882E270180E090E00B
:1037C000782ED70100E010E0912C6201E2E0CE1AE1
:1037D000D1087910E8C093940F5F1F4F169653E0FD
:1037E0009512F7CF019666E0460E511C8330910585
:1037F00039F7D50117968D919C91189766E070E086
:103800000E94E534892B69F03D8132FF1DC1A985F5
:10381000BA859F969C919F9781E089279F968C936C
:1038200013C1E985FA853E9629853A852E5E3F4F7C
:103830008081882331F08F5F863011F0808301C052
:1038400010823196E217F30799F7DECF8150E985B0
:10385000FA8584873ACD8394A985BA851C968C9283
:103860006ACDE985FA85F586128A87CD84E0A98537
:10387000BA8552968C93B6CDA985BA851D96FC92D1
:103880001D9781E052968C93D0CD84E0A985BA85AE
:1038900052968C93FFCD3F5F61CEE985FA85208DEE
:1038A00083899489821B9109948B838B803FFFEFDE
:1038B0009F0709F0EFCEE985FA85178AA985BA85B1
:1038C00059969C91599755968C91992319F091305E
:1038D00049F0E4CE8150E985FA85858B803F09F077
:1038E000DDCE07C08F5FE985FA85858B803509F0CD
:1038F000D5CE178A64E670E080E090E00E94A51FB4
:10390000A985BA8556966C93C9CE415E5F4F641700
:1039100075070CF0D8CE30E0F9017596AC01405F28
:103920005F4FE417F5070CF0CECE215E3F4F8217B4
:1039300093070CF0C8CED5011F968D919C9150979E
:10394000019650969C938E931F97E985FA85178A66
:10395000CACE9F0123503109D9014D915C912E5F50
:103960003F4FD9012C91441555050CF0B8CE425E5D
:103970005F4F641775070CF0B2CEBEE02B9F90012D
:103980001124A901455E5F4F4E155F050CF0A7CECF
:103990002B5D3F4F821793070CF0A1CEA985BA8506
:1039A00057961C929CCEF20130812C91321313CF8A
:1039B000F60120813181AD0142505109FA01408167
:1039C0005181B901641B750B77FF03C07195619537
:1039D00071096F3171050CF0FECE4217530774F474
:1039E000889EF001899EF00D112429853A85E20F09
:1039F000F31F415E5F4F568F458FDFCE809EF001F3
:103A0000819EF00D112449855A85E40FF51F215E32
:103A10003F4F368F258FD1CED60111976C9170E034
:103A2000D50117968D919C9118970E94E5348823B3
:103A300019F081E090E002C082E090E0E81BF90B11
:103A4000D401ED93FC93A3CE2A960FB6F894DEBF73
:103A50000FBECDBFDF91CF911F910F91FF90EF90DF
:103A6000DF90CF90BF90AF909F908F907F906F909E
:103A70005F904F903F902F900895CF92DF92EF92FA
:103A8000FF920F931F93CF93DF936C017A018B0109
:103A9000C0E0D0E0CE15DF0589F0D8016D918D0131
:103AA000D601ED91FC910190F081E02DC6010995C0
:103AB000892B11F47E0102C02196ECCFC701DF9162
:103AC000CF911F910F91FF90EF90DF90CF900895CD
:103AD0001F93CF93DF93DC0120E030E040E050E023
:103AE00011E0C1E0D0E02617370791F114968C91D0
:103AF0001497811115C014961C93149712968D91EA
:103B00009C911397ED91FC911197E80FF91FE491A7
:103B10001596EC931597019613969C938E93129796
:103B200014969C91149715968C911597892349F0BA
:103B3000FE01022E02C0EE0FFF1F0A94E2F74E2B89
:103B40005F2B990F14969C9314972F5F3F4FCBCF09
:103B5000CA01DF91CF911F9108952F923F924F920A
:103B60005F926F927F928F929F92AF92BF92CF920D
:103B7000DF92EF92FF920F931F93CF93DF93CDB716
:103B8000DEB72B970FB6F894DEBF0FBECDBF4C014A
:103B90006B015A8349831C821B821D821E8268E04E
:103BA00070E0CE0101960E94681D01961C0168E03C
:103BB00070E0CE0101960E94681D8C0161E070E00A
:103BC000CE0101960E94681D482FC401820D931DED
:103BD00097FDD3C050E8851691040CF0CEC0980133
:103BE0002F5F3F4FC601820F931F97FDC6C060E451
:103BF000C616D1040CF0C1C08601D7FE04C0002750
:103C000011270C191D09077011277601D7FE03C073
:103C100077E0E70EF11C63E0F594E7946A95E1F72D
:103C2000D7FE09C081E0E81AF10888E090E0BC0105
:103C3000601B710B8B01690137FF03C077E0C70E72
:103C4000D11C53E0D594C7945A95E1F727703327D8
:103C5000232B19F08FEFC81AD80A4F8331E020E0E8
:103C6000A12CB12C612C712C88E090E0AC01401BA0
:103C7000510B598748876C147D040CF07EC0442496
:103C80004394512C61E070E0CE0101962A873B8776
:103C90000E94681D2A853B85892B21F452E0450E40
:103CA000511CF0CFB201CE0101960E94681DAC01FB
:103CB0004F5F5F4FE0E0F0E02A853B85E417F507B2
:103CC00008F052C06F816111232B330F09F04AC0F5
:103CD000B701660D771DCB010196099798F5C501CF
:103CE000880D991D8038910568F52B015694542C48
:103CF000442457944794480C591C4A0C5B1C6F3F52
:103D00008FEF7807B1F1D201A954BD4F822F002E59
:103D100001C0880F0A94EAF79C91892B8C930115B6
:103D2000110581F06730710569F0D201A95CBC4FC3
:103D300030E0088402C0359527950A94E2F78C910B
:103D4000282B2C939FEFA91AB90AA214B30444F0AC
:103D50006FEF661A760A31E020E0A12CB12C02C088
:103D600031E020E03196AACF4F8151E045274F83C3
:103D700082CF01151105C9F6E5CF2B960FB6F89441
:103D8000DEBF0FBECDBFDF91CF911F910F91FF908E
:103D9000EF90DF90CF90BF90AF909F908F907F90EB
:103DA0006F905F904F903F902F9008950895FB0182
:103DB000108A1786128A118A148A0895CF93DF9386
:103DC000EC0141EB55E061E170E08FE290E00E9490
:103DD000AD1D4CE855E06AE170E08BE290E00E9496
:103DE000AD1D4CE855E06AE170E089E490E00E9486
:103DF000AD1D8A81811111C04CE855E06AE170E087
:103E00008AE390E00E94AD1D43E455E06EE270E06D
:103E10008AE190E00E94AD1D32C046E255E06AE1C1
:103E200070E08AE390E00E94AD1D43E055E06EE251
:103E300070E08CE290E00E94AD1D8A816FE00E94EC
:103E4000CB34837040E050E161E370E0CBEFD4E02D
:103E50004817A9F0942F990F915B9B01FE01529F87
:103E6000D001A0781124A90F2770E20FF11D9491C1
:103E7000A954BD4F2C91922B9C934F5FE9CFE7EB58
:103E8000F2E081E0A0E0B8E000800EBC8111012CDE
:103E90001197A0FDFDCF0192B9F70DB4DF91CF913D
:103EA0000895FC01DB011A968C911A97809519965A
:103EB0009C911997892351F08281882311F08CE716
:103EC00082838281811102C081E082838281882382
:103ED00059F08F5F82838D3739F482E056968C9348
:103EE000569757961C920895089508950E942C366F
:103EF0009091B7029EBD91E0811190E091959093D1
:103F0000B702E8EBF2E0808191930DB407FEFDCF9C
:103F10008EBD86E0E73BF807B1F70DB407FEFDCF95
:103F200008950F931F93CF93DF938C01EB010E94B1
:103F300052348883C80101960E9452348983CE018D
:103F4000DF91CF911F910F910895CF93DF9300D010
:103F500000D0CDB7DEB7611571058105910579F007
:103F60009B01AC0169833A834B835C830E94443498
:103F700029813A814B815C810E94683403C060E0F2
:103F800070E0CB010F900F900F900F90DF91CF91C9
:103F900008956115710579F0FB0101900020E9F7A2
:103FA0003197AF01461B570BDC01ED91FC9102806C
:103FB000F381E02D099480E090E008952F923F92E4
:103FC0004F925F926F927F928F929F92AF92BF9229
:103FD000CF92DF92EF92FF920F931F93CF93DF93D5
:103FE000CDB7DEB7AC970FB6F894DEBF0FBECDBF2E
:103FF0007C016B01042FCE01889699A788A715E450
:104000004E0192E2890E911CEE27FF27E61BF70B6B
:10401000FBA7EAA7F6E0F80DFCA7370122E0620E45
:10402000711C8AE0282E312C412C512C86E0F401A1
:1040300011928A95E9F7C601D7FE02C08AA59BA511
:10404000F4016AE070E00E94E5348193CB012CA575
:104050002E13F7CFF701178316830087E8A5F9A57C
:104060002291F9A7E8A730E040E050E019A2CE0184
:1040700081965C01CA01B901A20191010E949A34A2
:10408000605DF50162935F01211531054105510520
:1040900089F7BF01C3010E94C91F1B5F133631F6A8
:1040A000AC960FB6F894DEBF0FBECDBFDF91CF91B7
:1040B0001F910F91FF90EF90DF90CF90BF90AF9046
:1040C0009F908F907F906F905F904F903F902F9038
:1040D00008953FB7F8948091B8069091B906A091E1
:1040E000BA06B091BB0626B5A89B05C02F3F19F0B4
:1040F0000196A11DB11D3FBFBA2FA92F982F882768
:10410000820F911DA11DB11DBC01CD0142E0660FC2
:10411000771F881F991F4A95D1F708951F920F9214
:104120000FB60F9211242F933F938F939F93AF93CA
:10413000BF938091B3029091B402A091B502B09167
:10414000B6023091B70623E0230F2D3720F40196F5
:10415000A11DB11D05C026E8230F0296A11DB11DAA
:104160002093B7068093B3029093B402A093B50254
:10417000B093B6028091B8069091B906A091BA06A4
:10418000B091BB060196A11DB11D8093B806909316
:10419000B906A093BA06B093BB06BF91AF919F91A9
:1041A0008F913F912F910F900FBE0F901F901895F8
:1041B0002F923F924F925F926F927F928F929F9237
:1041C000AF92BF92CF92DF92EF92FF920F931F9325
:1041D000CF93DF9300D000D000D0CDB7DEB7CD8233
:1041E0004115510509F43BC1FA0134913196E4912E
:1041F0004E5F5F4FA32EB12C211102C0EE2061F162
:104200008E2E869486948694912CA1E0B0E0FE2FA9
:10421000F77011F4A0E0B0E08A0E9B1EA89CD001BC
:10422000A99CB00DB89CB00D1124FD81F33019F498
:10423000AA0FBB1F0AC00115110539F0EA9E400103
:10424000EB9E900C1124080D191D2A9F70012B9FC5
:10425000F00C11244E0D5F1D2D812F3F39F40115F7
:10426000110511F021E001C022E02D837C01EA0C50
:10427000FB1C1E141F040CF0F2C0803891050CF0DA
:10428000EEC0DB01AE0FB11D1A161B060CF0E7C025
:10429000603471050CF0E3C04115510509F4DFC02D
:1042A000F62FF7706F2EDB0177FD179623E0B5959B
:1042B000A7952A95E1F7FA2F77FF04C0662011F041
:1042C000FFEFFA0F97FF05C0AA27BB27A81BB90B62
:1042D00002C0A0E0B0E020E8E216F10424F020E8FB
:1042E000722E781A01C0732E7A1A6F2F0F2E000CBF
:1042F000770BFF3F1CF4C62EC09401C0C12C99243B
:1043000093942E2F277009F4912CE695E695E69567
:104310009E0E690D711D693071051CF0E8E09E2E3E
:104320009F1ADC2CDF0E6D2D20E86203800D911D9D
:1043300011248A0F9B1F61E070E0062C02C0660FFB
:10434000771F0A94E2F72D81233011F0E1E001C0DC
:10435000E2E0A718B108EA9D802C1124EE2EF12C82
:10436000C39EA00DB11D1124EA9E9001EB9E300D5D
:10437000FA9E300D11245A01A20EB31E011511052B
:1043800009F0A801D70111972A0F3B1F420F531FB5
:10439000AFEFA69F9001A79F300D112429014094F3
:1043A0005094F90DFE83282D30E0E79D200D311D3E
:1043B0001124EE81DE1609F452C0DC01A954BD4F70
:1043C0004A018501C12CC71409F441C0F801349099
:1043D000369EF001379EF00D1124FA83E983E095B3
:1043E000F095FC83EB83FD81F23019F45C824B8203
:1043F00011C0ED81EB3F19F41A8219820BC0F40150
:104400003490369EF001379EF00D1124E095F09522
:10441000FC83EB83D7FC06C0FC91EB81EF23F98191
:10442000EF2BEC93662061F0F6E0FD154CF0FD01FA
:10443000E058FF4F20803C8023203A803228308291
:104440008E0C9F1C0E0D1F1DC3941196BCCFD394D0
:10445000A20EB31E420F531F80589F4FAACF26961D
:104460000FB6F894DEBF0FBECDBFDF91CF911F9185
:104470000F91FF90EF90DF90CF90BF90AF909F9003
:104480008F907F906F905F904F903F902F90089506
:10449000CF92EF920F931F9322E0C22EE12C00E007
:1044A00010E020E00E94D8201F910F91EF90CF9054
:1044B0000895CF92EF920F931F933BEFC32EE12C01
:1044C00000E010E00E94D8201F910F91EF90CF9054
:1044D00008956F927F928F929F92AF92BF92CF92E8
:1044E000EF92FF920F931F93CF93DF9300D000D0F2
:1044F00000D0CDB7DEB7F82E862FFE01319696E0BC
:10450000DF011D929A95E9F70AE010E026E02E0FF0
:10451000972FB8010E94E5348193862F2E13F8CF90
:104520003E01B6E06B0E711C842E912C5401EEE11D
:10453000AE1AB108F1100AC0D3012C9149E45CE035
:1045400063E070E0C5010E9459220EC08AEFC82EB8
:10455000E12C00E010E0F301208149E45CE063E03D
:1045600070E0C5010E94D820F1E06F1A710885E063
:10457000A80EB11CA814B904E9F626960FB6F89453
:10458000DEBF0FBECDBFDF91CF911F910F91FF9086
:10459000EF90CF90BF90AF909F908F907F906F9053
:1045A0000895CF92EF920F931F93F901202FCC24FF
:1045B000C3948F010E94D8201F910F91EF90CF904C
:1045C0000895CF92DF92EF920F931F93CF93DF93D3
:1045D000EC016B010E94D918E12C00E027E33BE0DD
:1045E0004FEB5BE060E070E080E790E00E94D1225A
:1045F000B601CE010E94BF1823EC37E04CE759E02A
:1046000061E070E081E290E00E94D1228AEFC82E42
:1046100000E010E02D854BEC56E06DE070E08AE2A2
:1046200090E00E94D8208E85883C51F429E136E044
:1046300041E756E064E370E08BE290E00E94D12213
:10464000E12C00E027ED35E047EF55E06EE070E04B
:1046500080E090E00E94D1228F85882341F046ECD3
:1046600055E060E170E081E190E00E94482280E046
:10467000DF91CF911F910F91EF90DF90CF900C942D
:10468000781FF89487E78093000880930108A89525
:1046900088E18093600088E080936000FFCFCF9333
:1046A000DF93FC01EB0199858A858095892394FF2E
:1046B00008C09485903118F49F5F948703C00E94CE
:1046C0004123148683FF04C085E08E8B84E08F8BAA
:1046D0008F8198856FE070E00E94E534892B39F472
:1046E00085858F5F833011F0858701C015868F81A6
:1046F000988560E570E00E94E534892B21F4978568
:1047000081E0892787878685883C10F48F5F8687BC
:10471000DF91CF9108958F929F92AF92BF92CF92E7
:10472000DF92EF92FF926C01E12CF12C0E94692044
:104730004B015C01C114D104E104F104F1F00E94C9
:104740006920DC01CB0188199909AA09BB09883EB7
:104750009340A105B10570F321E0C21AD108E10828
:10476000F10888EE880E83E0981EA11CB11CC114CC
:10477000D104E104F10419F7DDCFFF90EF90DF9051
:10478000CF90BF90AF909F908F9008958FB18095FC
:10479000807F669B88601C9B84600895CF93DF9325
:1047A00000D0CDB7DEB71A821982BE016F5F7F4F8E
:1047B00090E00E94911F89819A810F900F90DF9164
:1047C000CF910895BF92CF92DF92EF92FF920F9315
:1047D0001F93CF93DF9300D000D0CDB7DEB76C012D
:1047E0008E010F5F1F4FE62EF12CE01AF10A83E0D5
:1047F000B82EB00EC701800F911F0E945234F801ED
:1048000081938F01BE12F6CF1C8289819A81AB8180
:10481000BC81F60180839183A283B3830F900F90B4
:104820000F900F90DF91CF911F910F91FF90EF901C
:10483000DF90CF90BF900895EF92FF920F931F9358
:10484000CF93DF931F92CDB7DEB77C01FC010081CF
:104850001181C80169830E9452346981681719F077
:10486000C8010E945A34C7010F90DF91CF911F9168
:104870000F91FF90EF900895EF92FF920F931F9387
:10488000CF93DF9300D0CDB7DEB78C017B01FB0166
:1048900060819A838983CE0101960E941C24F701CE
:1048A00061810F5F1F4F1A830983CE0101960E9419
:1048B0001C24C7010F900F90DF91CF911F910F9192
:1048C000FF90EF900895CF93DF9300D0CDB7DEB780
:1048D0009A838983CE0101960E941C240F900F9029
:1048E000DF91CF9108950F931F93CF93DF9300D063
:1048F000CDB7DEB7082F85E690E00E945234182F1E
:1049000086E690E00E945234011105C0163419F475
:10491000803509F459C066E485E690E00E9463247E
:1049200060E586E690E00E94632407E610E060E020
:10493000C8010E9463240F5F1F4F0A371105B9F7A2
:1049400061E487E690E00E94632462E48BE690E0F5
:104950000E94632463E48FE690E00E94632461E494
:1049600088E690E00E94632462E48CE690E00E9476
:10497000632463E480E790E00E94632461E489E6B5
:1049800090E00E94632462E48DE690E00E9463243C
:1049900063E481E790E00E9463241A821982BE01D9
:1049A0006F5F7F4F83E790E00E943C24BE016F5F02
:1049B0007F4F85E790E00E943C24BE016F5F7F4FF0
:1049C00087E790E00E943C240F900F90DF91CF91F9
:1049D0001F910F910895FC01DB011A964C911A97D3
:1049E000409519968C911997482317962D913C91D3
:1049F0001897C90187709927892B29F481E092893A
:104A0000911180E0828B20FD66C013969C911397D4
:104A10008685943059F5823A38F48B3578F48C33A6
:104A200050F08C3488F554C08F3B08F445C08F3B60
:104A300009F448C04DC08485815042C081E0808B1C
:104A400023703327232B09F043C08585863128F452
:104A5000833138F48231E1F106C08B3120F4825089
:104A600003C0815001C08350858732C08D3838F42F
:104A7000843710F5853160F1893248F405C0843BF4
:104A8000E8F0843BF9F024C081E0808B21C081E014
:104A9000808B23703327232BD9F49785858592301B
:104AA00020F0943020F48E5F03C08F5F01C08D5FD3
:104AB00085879F5F97870CC0108A0AC084858F5FA7
:104AC000848706C056969C93569757961C92579784
:104AD00086858F5F868743FF09C013968C91139755
:104AE00056968C93569757961C92579717968D917A
:104AF0009C9118978F709927892B39F483898F5F40
:104B0000853010F4838B01C0138A17968D919C9188
:104B100018976CE070E00E94E534892B39F48585A4
:104B2000823121F0918981E08927818B0895FC01F0
:104B3000DB0113968C91843021F48CE9848782E721
:104B400005C080E68487DB0153968C9185871686A5
:104B5000108A118A128A1786138A08956F927F929B
:104B60008F929F92AF92BF92CF92DF92EF92FF927D
:104B70000F931F93CF93DF93EC01FB01C780D08489
:104B80000E94D918E12C00E029EA36E141E357E11F
:104B900060E070E080E790E00E94D12223E935E1F7
:104BA0004DE156E163E070E08FE190E00E94D12298
:104BB0002DEA32E14FE154E160E170E08DE190E0F7
:104BC0000E94D12213E21F831E8385E188877E0124
:104BD000F2E0EF0EF11CBE01605F7F4FC7010E9443
:104BE000C91F6AA17BA145E1CE010E94DE1F1F8380
:104BF0001E838EE18887BE016C5E7F4FC7010E94D5
:104C0000C91F6CA17DA14EE1CE010E94DE1F1F8352
:104C10001E8387E28887BE01685E7F4FC7010E94BE
:104C2000C91F6EA17FA147E2CE010E94DE1F2C8525
:104C30002F3F09F470C0C60168E370E00E94E534BC
:104C40004D9708F468C0FE01E20FF11DE20FF11D5F
:104C5000848C958C49E0249F90011124C9014596CC
:104C6000AD8466E0A69E50011124A5014E5D5F4F04
:104C7000E8E2AE0EB11C235E3F4F60E1762E7BEF83
:104C8000C72E74E0D72E4A155B0541F1BC0197FF92
:104C90001BC060E070E018C06E177F07E4F4403876
:104CA000510584F48B01F601709ED001A078112487
:104CB000A40F0770E00FF11D6490A954BD4FEC9153
:104CC0006E2A6C926F5F7F4FF9012134310524F316
:104CD000E0E4F0E0E1CF4F5F5F4FD5CF19868C85E0
:104CE00099E0899F902D11249B5E2D85822F880F3E
:104CF000820F880F8D5D8F838E839887EA81FB8179
:104D0000D401A20FB11D0190F081E02D6C91C7017B
:104D1000099581E089878F8581110FC08C858F3F30
:104D200061F4E12C00E02BEF31E143E552E164E373
:104D300070E08BE290E00E94D12280E0DF91CF9181
:104D40001F910F91FF90EF90DF90CF90BF90AF90A9
:104D50009F908F907F906F900C94781FCF92DF92EE
:104D6000EF92FF921F93CF93DF93EC01FB018285BB
:104D700011859C859F3F09F48CC0E780F08427E073
:104D8000E222FF24E114F10409F08DC017FF20C0D6
:104D9000FE01E90FF11DE90FF11D848D958D2D8523
:104DA000FC01E20FF11D20812F5F20832D85FC0186
:104DB000E20FF11D20812B3514F021E420832D8595
:104DC000FC01E20FF11D8081803411F481E48083C5
:104DD00014FF21C08C85FE01E80FF11DE80FF11DC5
:104DE000848D958D2D85FC01E20FF11D20812150D0
:104DF00020832D85FC01E20FF11D2081213414F464
:104E00002AE520832D85FC01E20FF11D80818E3380
:104E100011F48AE5808315FF05C08D85882311F084
:104E200081508D8716FF05C08D85823010F48F5F0D
:104E30008D8713FF38C08C85FE01E80FF11DE80F48
:104E4000F11D048CF58DE02D80818F3361F181811E
:104E50008F3349F182818F3331F16F01F601619116
:104E60006F018C85970144E08402200D311D1124CF
:104E7000C90189599F4F0E9463245FEFE51AF50A23
:104E800083E0E816F10451F78FEF8C8784E68F8773
:104E90000AC08095812383FF06C08F85811103C0DE
:104EA00082E0868B178A8E8517FF4DC014FF4BC09A
:104EB0008F5F8E87853108F454C08D3388F18D3330
:104EC00009F04FC01E8683E884BD8FEF87BD81EF58
:104ED000809380001092880010928A0081E00E94E6
:104EE000732467E6CE0140960E94E2236BE6CE0172
:104EF00044960E94E2236FE6CE0148960E94E22388
:104F000083E70E94CE239BA38AA385E70E94CE233A
:104F10009DA38CA387E70E94CE239FA38EA321C0CD
:104F200020E430E0F901E81BF109CF01880F93E894
:104F300094BD9FEF97BD91EF9093800010928800F1
:104F400080938A000EC0882361F083E884BD8FEFD0
:104F500087BD81EF809380001092880010928A00B4
:104F60001E868F85882311F081508F87DF91CF9126
:104F70001F91FF90EF90DF90CF9008952F923F9276
:104F80004F925F926F927F928F929F92AF92BF9259
:104F9000CF92DF92EF92FF920F931F93CF93DF9305
:104FA00000D000D0CDB7DEB78C015B01FC011586C7
:104FB000168684E68787FB01878590899C838B838F
:104FC000312C832D880F8D580E94CE232B813C815C
:104FD000281739074CF06BE6E62EF12C75E7C72E43
:104FE000D12CE2E02E2E2CC03394F3E03F12E9CF17
:104FF00033243A9453C0C2010E945234682FC40132
:10500000840D951D0E9463248FEF481A580A461498
:10501000570489F71A821982BE016F5F7F4FC6015C
:105020000E94911FBE016F5F7F4FC60102960E94D2
:105030003C242A94E2E0CE1AD108F4E0EF1AF108F9
:10504000321448F4370184E0680E711C270154E0E3
:10505000852E912CD0CFE32CF12C9701220F331FFA
:10506000220F331F4901E7E68E0E911C6901FBE612
:10507000CF0ED11C6FE3C4010E9463248FEF881A06
:10508000980A8C149D04B1F7C701880F991FBE01BF
:105090006D5F7F4F8D589F4F0E943C24F8013486EE
:1050A00083E884BD8FEF87BD81EF809380001092ED
:1050B000880010928A00F5011286118667E6C80101
:1050C00040960E94E2236BE6C80144960E94E223C8
:1050D0006FE6C80148960E94E22383E70E94CE2330
:1050E000F80193A382A385E70E94CE23F80195A33C
:1050F00084A387E70E94CE23F80197A386A30F908D
:105100000F900F900F90DF91CF911F910F91FF9013
:10511000EF90DF90CF90BF90AF909F908F907F9057
:105120006F905F904F903F902F900895CF92DF92B5
:10513000EF920F93CF93DF93EC016B010E94D9188C
:105140008B8990E0FC01EE0FFF1FEF50FE4E459162
:105150005491FC01EC56FE4F608170E0FC01E75673
:10516000FE4F808190E00E9448228D85843658F45D
:105170000989E02E2BEE3FE04DEE50E16AE270E04F
:1051800090E00E94D122E12C00E029EC3FE049EDC3
:105190005FE06CE170E088E690E00E94D12247E693
:1051A0005FE066E270E088E690E00E944822B60187
:1051B000CE010E94BF188C852DE63EE049EE5EE0F0
:1051C0006FE170E090E00E94D1228C8590E00A8926
:1051D00026E53EE04DE55EE06FE170E042960E941C
:1051E000D1228889882361F08C8590E000E028E155
:1051F0003EE046E35EE064E270E004970E94D12264
:10520000F6018489DF91CF910F91EF90DF90CF90DD
:105210000C94781FFC01EE59FF4F10823C971282CC
:1052200015823D9610823196108208952F923F92FA
:105230004F925F926F927F928F929F92AF92BF92A6
:10524000CF92DF92EF92FF920F931F93CF93DF9352
:1052500000D000D000D0CDB7DEB79C838B837B011C
:10526000DB011996DC9019971A965C9050945D209A
:105270001C01B3E62B0E311CF10180818111B6C2F5
:105280000B811C810E5A1F4FD801EC91DB01179640
:105290008D919C91189765E070E00E94E534892B10
:1052A00039F0F70181899289039709F0CFC0C3C013
:1052B0008B819C810C96AB80BC80F1E1AF0EB11C60
:1052C0004B815C81435F5F4F8B809C802EE0820E20
:1052D000911C2B813C812E5E3F4FF2E06F2EEC5EE5
:1052E0006E2F70E07A836983CC24C394AB81BC8138
:1052F000AA5ABF4F6AEF762E8017910791F2F501F7
:105300006081662309F48BC0FC016081663641F43C
:10531000F701678570896F5F7F4F708B678742C029
:10532000FA017081753209F03DC0685F70E0E98173
:10533000FA816E1B7F0B77FF03C071956195710930
:105340006B3071057CF1F901C082F7010188F289A7
:10535000E02DFE83ED83BF016F5F7F4FF701728BFE
:10536000618BFC014080FBE3F41508F494C2E7E292
:105370004E1608F07EC2F2E14F16A0F063307105C0
:1053800088F413961C9213971296CC921297159646
:105390007C921597ED81FE81EE54F74EE4911496C0
:1053A000EC931497F40160816F5F60836C3411F4A7
:1053B000108233C0F9017081723021F170F47723CB
:1053C00091F0713051F5FC0160816F5F60836BE299
:1053D000FA016083F901608222C07D33F0F47F5FBF
:1053E000F90170831CC070E0660F771FFB01E55464
:1053F000F84E4490FC014082FB01E454F84E649165
:10540000FA0109C0FC0160816F5F608362E3FA0109
:10541000608363E0F901608302C0F50110820796A2
:10542000F7E0AF0EB11C495F5F4F67E0860E911C3D
:10543000295F3F4F61CFEB81FC8172962B813C81CC
:10544000285A3F4F81E0E217F30761F4D70117961E
:105450008D919C9118976FE070E00E94E534892B44
:1054600081F019C0DF0111979C91992341F090813F
:10547000911105C011979C91992309F422C2379686
:10548000E2CFEB81FC813F962B813C812B5A3F4F31
:10549000E217F30729F4F701878180FF0DC03DC0B3
:1054A0008281882339F080818F5F883011F080837A
:1054B00001C010823796ECCF81899289039768F5F5
:1054C000AB80BC80F0E6AF0EB11CD5018C91815051
:1054D0008C93811122C0F701878590892B813C81B3
:1054E0002F593F4F49018B30910508F0ECC162E321
:1054F00070E080E090E00E94A51FDC01CB018A569D
:105500009F4FAF4FBF4FF5018083D4011C9286E0BF
:10551000EB81FC81E15AFF4F8083F7018781908501
:105520006EE170E00E94E534892BB9F5EB81FC81D6
:10553000EC59FF4F8081811130C0EB81FC81E15A31
:10554000FF4F8081882349F181508083811125C0DC
:10555000EB81FC81719690819111E5C1AB81BC8199
:10556000F7E08F9FA00DB11D112481E051968C931F
:1055700051971E961C921E9752961C9252975096C7
:105580001C925097EBEBF7E1E4911C96EC931C977F
:10559000ECEBF7E1E4911D96EC93D5FE0AC0D8013F
:1055A00011968C911197811104C08C91833108F070
:1055B000C1C1D6FE09C0F8018181811105C0808179
:1055C0008C3310F483E08383D70117968C9180FD90
:1055D0003DC0F8018381823019F08330E9F036C094
:1055E000D8018081E18191E09E0F11969C93F0E0BB
:1055F000ED5AF74EE4918E1BF801808382818F5F14
:105600008C3011F0828301C012829B30F9F4F801D2
:10561000118284E083831AC0D8018081E18191E006
:105620009E0F11969C931197F0E0ED5AF74EE4917E
:10563000E80FEC9312968C9112978F5F8C3019F0D3
:1056400012968C93E2CFF8011282DFCFD701179622
:105650008D919C91189766E070E00E94E534892B4B
:1056600071F0F70181899289039709F09DC08B81C0
:105670009C8141962B813C81295A3F4F8CC0AB8144
:10568000BC81AA5ABF4F12968C911297882309F4B5
:1056900063C015968C9115978F5F15968C9315970F
:1056A000282F082E000C330B87FD39C014968C91DF
:1056B000149790E02817390794F513968C91139757
:1056C0008130E9F078F0823051F5C9010196880FF8
:1056D000991FFC01E25AF74EE491EC93FC01E15A68
:1056E000F74E19C0C9010196880F991FFC01EE54AD
:1056F000F74EE491EC93FC01ED54F74E0CC0C90158
:105700000196880F991FFC01E457F74EE491EC9342
:10571000FC01E357F74EE4911196EC931197149620
:105720008C91149790E02817390719F412961C925F
:105730001297821B930BEB81FC81E25AFF4F089773
:1057400054F480818F5F8083883031F412961C92EC
:10575000129715961C921082EB81FC8171962B8119
:105760003C81295A3F4FE217F30709F47ACF808131
:10577000882349F0DF018E91882329F08F5F8C9375
:10578000863009F410823796EECF0796FC013797E2
:105790004081411109C082179307B9F781E0EB817D
:1057A000FC81EE59FF4F8083D70117968D919C9114
:1057B00018979C0127703327232B49F4EB81FC8138
:1057C000E45AFF4F21E03081311120E020838F70B7
:1057D0009927892B59F4EB81FC81EB59FF4F80818C
:1057E0008F5F853010F4808301C01082F7018785B8
:1057F0009089EB81FC81EC59FF4F069710F081E016
:10580000808380818823E1F08B819C8141962B816C
:105810003C81295A3F4F8217930739F00796FC01C4
:10582000379740814423B9F30BC0EB81FC81EE5ADA
:10583000FF4F8081F701838B83E0868B85E0878B28
:10584000EB81FC81EE59FF4F8081882351F053FE9C
:1058500076C086E0D70156968C93569757961C9241
:105860006EC052FE6CC0F101908181E08927808377
:1058700066C06330710508F095CD1396CC921397EE
:105880001296CC92129715967C921597ED81FE8117
:10589000E457F74E83CDE0E8E41508F483CD633098
:1058A000710508F07FCD13966C9213971296CC92E7
:1058B000129715967C921597ED81FE81E25AF74E6C
:1058C0006DCD8C93DCCD4597A8F462E370E080E069
:1058D00090E00E94A51FDC01CB0188589F4FAF4F7D
:1058E000BF4FF50180830E94443422E030E040E065
:1058F00050E014C062E370E080E090E00E94A51FD9
:10590000DC01CB01805B9F4FAF4FBF4FF501808320
:105910000E94443423E030E040E050E00E946834CC
:10592000D4016C93F4CD8F5F37968A3009F013CE93
:105930008FEF14CE82E0D80113968C933ACE269640
:105940000FB6F894DEBF0FBECDBFDF91CF911F9190
:105950000F91FF90EF90DF90CF90BF90AF909F900E
:105960008F907F906F905F904F903F902F90089511
:10597000FC0188ED84878FE1858717A69F01215D53
:105980003F4FB096CF0103972817390719F01082BF
:105990003696F8CF08952F923F924F925F926F9272
:1059A0007F928F929F92AF92BF92CF92DF92EF92AF
:1059B0000F931F93CF93DF93EC016B013C0125E61E
:1059C000620E711CD3018C9190E0FC01E155FE4FF9
:1059D000A080FC01E655FE4F8080FB018489912C5C
:1059E000B12C811111C020E043E859E260E070E081
:1059F00089E590E00E945922D301EC91F0E0EE0F8E
:105A0000FF1FE758F64D13C0E12C00E02BE239E20E
:105A100043E859E260E070E089E590E00E94D1221D
:105A2000D301EC91F0E0EE0FFF1FEF5DF64D4591D5
:105A30005491B401C5010E944822B601CE010E94D2
:105A4000D918F601818992898130910529F008F4ED
:105A50003FC0029771F026C0FE01EA5AFF4F8281D3
:105A6000882309F4AAC138968081833008F0A5C143
:105A70002FC0E12C00E02BEE38E245E059E261E076
:105A800070E08CE490E00E94D122FE01EA5AFF4FC0
:105A90008281882309F49CC138968081833008F084
:105AA00097C116C0E12C00E02BEE38E245E059E248
:105AB00061E070E08CE490E00E94D1222BEE38E2AD
:105AC00045E059E261E070E08FE390E00E94D1226E
:105AD000D6011F966D917C9150974CE754968C910E
