:100000000C943A170C9462170C9462170C946217B4
:100010000C9462170C9462170C9462170C9462177C
:100020000C9462170C9462170C9427200C9499205E
:100030000C9462170C9462170C9462170C9462175C
:100040000C9462170C9462170C9462170C9462174C
:100050000C9462170C9462170C9462170C94612430
:100060000C9462170C9462170C9462170C9462172C
:100070000C9462170C9462170C9462170C9462171C
:100080000C9462170C9462170C9462170C9462170C
:100090000C9462170C9462170C9462170C946217FC
:1000A0000C9462170C9462170C946217F8FCFCFC19
:1000B000FC78F8FCFCFCFCFCF8F8FCFCFCFCFCB854
:1000C000F8FCFCFCFCF8F8FCFCFCFCD8F8FCFEFF9F
:1000D000FFFFFFFFFFFEFCF8010303010000010327
:1000E00003010103030103030303030103030303E8
:1000F00001000303030301000103070F0F0F0F0F9C
:100100000F0703012C0CF80404B48448F80404D449
:100110001404C8F80404D49464B84884941424F8EB
:100120004884941424D8F8040201F14949F10102E9
:1001300004F80102020100000102020101020201B1
:100140000202020202010202020201000202020293
:10015000010001020408090808090804020101015C
:1001600002020303030202010116124A2B462B422C
:100170002B3F2A3C293A2739243820371B3716379A
:1001800011370C380839053A033C023E014100445E
:100190000047004A004C00120E372B3725371F3717
:1001A000193713370D380839053A033C013E014031
:1001B0000042004400460048004A004C00130F2053
:1001C0002B22252420261B28162A112C0C2E083021
:1001D000053203350238013B003E00410044004730
:1001E000004A004C00D5F08D14A1C881CFD9F1AFE1
:1001F000200004083E09093E3F25251A1E21211230
:100200003F21211E3F2525213F0505011E21293AB9
:100210003F04043F213F21001021211F3F040A31E8
:100220003F2020203F02023F3F02043F1E21211EAB
:100230003F0909061E21112E3F09093622252519DD
:10024000013F01011F20201F0F10201F3F10103FF2
:100250003B04043B03043807312D2321102A2A3C98
:100260003F2424181C2222141824243F1C2A2A2C40
:10027000043E05014C52523E3F040438243D200008
:100280004040443D3F081422213F20003E04043EEC
:100290003E04023C1C22221C7E22221C1C22227EA6
:1002A0003E040204242A2A12021F22201E20201E9D
:1002B0000E10201E3E10103E360808364E50503E9E
:1002C000322A26221E29251E223F200032292926D5
:1002D0001221251A0C0A3F08172525191E25251855
:1002E000013905031A25251A0629291E002F0000A9
:1002F000002000000229050200040400F0F8FCFEC2
:10030000FFFFFFFF0707FFFFFFFFFFFFFFFF0000EB
:10031000010307070707070700000A13F008F41294
:10032000B535E5050101FF00EF08288CEF0000005E
:100330000102050505050100000007063C02050154
:100340003D023C07063C3E3F3F3F3E3C07063C0229
:100350003D0105023C0000000080C0E0E0E0E0E07C
:10036000E0E0E0E0E0E0E0FCFEFFFFFFFEFCC0803C
:10037000000000000000FEFFFFFFFFFFFFFFFFFF88
:10038000FFFFFFFFFFFFFFFFFFFFFFFFFFFFFFFF7D
:10039000FCF8000000FFFFFFFFFFFFFFFFFFFFFF74
:1003A000FFFFFFFFFFFFFFFFFFFFFFFFFFFFFFFF5D
:1003B000FF00060F0F1F1F1F3F7F7F7F7F3F1F1F05
:1003C0001F1F1F1F1F1F3F7F7F7F7F3F1F1F1F0F8D
:1003D000071F1F000000008040A0A0A0A0A0A0A0B8
:1003E000A0A0A0A0A0BC828581BD823C408000006E
:1003F00000000000FE01FC85FD01FF03FDBDDDEDF9
:10040000BD9D85FD03FF0305BDDDAD3C380304F84C
:10041000000000FF0082B24ABBBBBBBA7AFACACE68
:100420008686CECBFB7BBABABAB26AE2EA00FF009C
:1004300006090A16111623414C44412316111313C1
:100440001313111623414C444123161117080718A2
:100450001AFFFFFFFFFFFFFFFFFFFFFFFFFFFFFF91
:10046000FFFFFFFFFFFFFFFFFFDFDFDFDFDF5F5F7C
:100470005F5F1F1F1F1F5F5F5F5F5F5F5F5F5F5F8C
:100480005FF7F7F7F7F7F7F7F7F7F7F7F7F6F4F09F
:10049000E1C307173777F7F7F703030303030303F2
:1004A0000303030303030303030303020000010325
:1004B000030000000070F8FCFEFEFFFFFEFC600081
:1004C000000000000000000000000000000060FCD0
:1004D000FEFFFFFEFEFCF8700000000000808000C0
:1004E00082C7E7FFFFFFFFFFFEFCFCFC383838380F
:1004F00038383838B8B838FCFCFCFFFFFFFFFFFF86
:10050000C7870200000000070F1F1F0F070101002F
:10051000040E1F3F3F1B0100000000000000030706
:100520000F1F0F0701000000000F1F1F1F1E0C00F0
:1005300000000000000070F8FCFEFEFFFFFEFC6003
:10054000000000000000000000000000000000604B
:10055000FCFEFFFFFEFEFCF8700000000000000043
:100560000002C7E7FFFFFFFFFFFEFCFCFC38B8B846
:1005700038383838383838B8FCFCFCFFFFFFFFFF4C
:10058000FFC78702808000000000000C1E1F1F1F95
:100590000F0000000001070F1F0F070300000000FD
:1005A0000000011B3F3F1F0E04000101070F1F1F2A
:1005B0000F07002B1600000000708804021601418E
:1005C000229C60000000000000000000000000000D
:1005D0000000609C224101160204887000000000A7
:1005E000008080008245243E80808091322444C473
:1005F0002828282828282828A8A828C444249391F3
:100600008080003E448502000000000708101108A9
:1006100006010100040A1121241A01000000000053
:10062000000003040811080601000000000F10126A
:1006300013120C0000000000000070880402160174
:1006400041229C600000000000000000000000004B
:10065000000000609C224101160204887000000026
:10066000000000000002C5243E00808091B22444B6
:10067000C428A8A828282828282828A8444424933F
:10068000918080003E448502808000000000000CC4
:10069000121312100F0000000001060811080403D5
:1006A000000000000000011A2421110A04000101C9
:1006B000060811100807002C18FFFFFFFFFFFFFFBF
:1006C000FFFFFFFFFFFFFFFFFFFFFFFFFFFFFFFF3A
:1006D000FFFFFFFFFFFFFFFFFFFFFFFFFFFFFFFF2A
:1006E000FFFFFFFFFFFFFFFFFF7F3FBF7F3FCFE722
:1006F000F7E78FF7FBFB3387DFDF9F1F3FFFFFFF2E
:10070000FFFFFFFFFFFFFFFFFFFFFFFFFFFFFFFFF9
:10071000FFDFDFCFD3D8CFE7F3CE9FBF9FCFBF7F21
:100720007F7FBF9FC7F7F3F8FCFFFFFFFFFFFFFFCF
:10073000FFFFFFFFFFFFFFFFFFFFFFFFFFFFFFFFC9
:10074000FFFFFFFFFFFFFF7F7F7FFFFF7F7F7F7F39
:10075000FFFFFFFFFFFFFFFFFFFFFFFFFFFFFFFFA9
:10076000FFFFFFFFFFFFFFFFFFFFFFFFFF7339B931
:100770007339CCE6F6E68CF6FAFB3386DCD99D1CA1
:100780003CF8C1D39F1F3FFFFFFFFFFFFFFFFFFFAD
:10079000FFFFFFFFFFDFDFCFD3D8CFE7F3CE9FBF51
:1007A0009FCFBF7F7F7FBF9FC7F7B3787C3FBB934F
:1007B000C5FCFEFFFFFFFFFFFFFFFFFFFFFFFFFF87
:1007C000FFFFFF3F9FDFC3B1F9F9F347717CFEFCE8
:1007D00071477379F9F3C7F7FBFBE78FBF0F67E743
:1007E0008F3F3F7FFFFFFFFFFFFFFFFFFFFFFFFE8A
:1007F000FFF3F9F9F3F9FCFEFEFEFCFEFEFFFFFE3F
:10080000FCF9FDFCFCF8C1D39F1F3EFFF773680C99
:100810009FFFFFFFFFFFFFFFFFFFFFFFFFFFFFFF48
:10082000FFFFFFFFFFFFFFFFFFFFFFFFFFFFBF7F98
:100830007F3FBB93C5FCBEBF97CFEFE6E0F1FFFF64
:10084000FFFFFFFFFFFFFF3F9FDFC3B1F9F9F3C7D2
:10085000F1FCFEFCF1C7F3F9F9F3C7F7FBFBE78FF7
:10086000BF0F67E68E3C3977FBF93143677FFFFFA7
:10087000FFFFFFFEFFFFFFFFFFFFFFFFFFFFFFFF89
:10088000FFFFFFFFFFFFFFFFFFFFFFFFFFFFFEFF79
:10089000F773680C9FFFFFDFCE80303F7FFFFFFFC5
:1008A000FFFFFFFFFFFFFFFFFFFFFFFFFFFFFFFF58
:1008B000FFFFFFFFFFFFFFFFFFFFBFBF97CFEFE689
:1008C000E0F1BFBF97C7F3F8FCFFFFFFFFFFFFFF9B
:1008D000FFFFFFFFFFFFFFFFFFFFFFFFFFFFFFFF28
:1008E000FFFFFFFFFFFFFFFEFEFCF9F7FBF93143BF
:1008F000677FFFFFFFFFFFFFFFFFFFFFFFFFFFFF20
:10090000FFFFFFFFFFFFFFFFFFFFFFFFFFFFFFFFF7
:10091000FFFFFFFFFFFFFFFFFFFFFFDFCE80303F46
:100920007FFFFFFFFFFFFFFFFFFFFFFFFFFFFFFF57
:10093000FFFFFFFFFFFFFFFFFFFFFFFFFFFFFFFFC7
:10094000FFFFFFFFFFFFBFBF97C7F3F8FCFFFFFFED
:10095000FFFFFFFFFFFFFFFFC0C0C0808000FFFF61
:10096000FFFFFFFFFFFFFFFFFFFFFFFFFFFFFFFF97
:10097000FFFFFFFFFFFFFFFFFFFFE3E3C7C7C381E9
:10098000FFFFFFFFFFFFFFFFFFFFFFFFFFFFFFFF77
:100990007FFFFFFFFFFFFFFFFFFFFFFFE1E1E1E15F
:1009A000E0C0FFFFFFFFFFFFFFFFFFFFFFFFFFFFB5
:1009B000FF7F3FFFFFFFFFFFFFFFFFFFFFFF010183
:1009C00000000000FFFFFFFFFFFFFF7F3F1F07004A
:1009D00000000000001140756DEAEAD710DFDF402B
:1009E00080BF4040408080001F1F1E3E3E3E3D3D78
:1009F000397A7B787BF7F600FFEAE8D5D4D6109EEB
:100A0000BEA2A2BE22A2444442813D3D3D3D3D3CAA
:100A10003D3D3D393B383B3B3B807FAAA8AAA8AE71
:100A200020BEBCA1A1BF21A1A1A120C0F7F7F7F76B
:100A3000F7787B7B3A3A3B3C3D9D9D403FF1E8F4A3
:100A4000F8F4FAF4FA0101FF010100000000FFFFD1
:100A5000FFFF7F3F8F47201007000000000000804D
:100A60000DFFFFFFFFFFFFFFFFFFFFFFFFFFFFFF88
:100A7000FFFFFFFFFFFFFFFFFFFFFFFFFFFFFFFF86
:100A8000FFFFFFFFFFFFFFFFFFFFFFFFFFFFFFFF76
:100A9000FFFFFFFFFFFFFFFFFFFFFFFFFFFFFFFF66
:100AA000FFFFFFFFFFFFFFFFFFFFFFFFFFFFFFFF56
:100AB000FFFFFFFFFFFFFFFFFFFFFFFFFFFFFFFF46
:100AC000FFFFFFFFFFFFFFFFFFFFFFFFFFFFFFFF36
:100AD000FFFFFFFFFFFFFFFFFFFFFFFFFFFFFFFF26
:100AE000FF1F1F1F1F1F1F1F1F1F1F1F1F1F1F1F36
:100AF0001F1F1F1F1F1F1F1F1F1F1F1F1F1F1F1F06
:100B00001F1F1F1F1F1F1F1F1F1F1F1F1F1F1F1FF5
:100B10001F1F1F1F1F1F1F1F1F1F1F1F1F1F1F1FE5
:100B20001F1F1F1F1F1F1F1F1F1F1F1F1F1F1F1FD5
:100B30001F1F1F1F1F1F1F1F1F1F1F1F1F1F1F1FC5
:100B40001F1F1F1F1F1F1F1F1F1F1F1F1F1F1F1FB5
:100B50001F1F1F1F1F1F1F1F1F1F1F1F1F1F1F1FA5
:100B60001F800DFEBEBEBEBEBEBEBABABA3A3ABA0B
:100B7000BA9A8AAAA2B2B2BAB8B8BABABEBEBEBE51
:100B8000BEBEBEBEBEBEBEBEBEBEBEBEBEBEBABA8D
:100B9000BABA3A1A8AA2B0B8BABABEBEBEBEBEBE11
:100BA000BEBEBEBEBEBEBEBEBEBEBEBEBEBEBEBE65
:100BB000BEBABAB8A0021ABABABABABABEBEBEBEF5
:100BC000BEBEBEBEBEBEBEBEBEBEBEBEBEBEBEBE45
:100BD000BABABABAB8B8B8B0A2820A1A3ABABABAA5
:100BE000BABABA1F1F0717131B191D1C1E1F1F1F80
:100BF0001F1F1F1F1F1F1F1F1F1F1F1F1F1F1F1F05
:100C00001F1F1F1F1F1F1F1F1F1F1F1F1F1F1F070C
:100C1000111C1E1F1F1F1F1F1F1F1F1F1F1F1F1FF6
:100C20001F1F1F1F1F1F1F1F1F1F1F1F1F1F1F1FD4
:100C30001F1F1F1F1F1F1C10030F1F1F1F1F1F1F02
:100C40001F1F1F1F1F1F1F1F1F1F1F1F1F1F1F1FB4
:100C50001F1F1F1F1F1F1F1F1F1F1F1E18100103F5
:100C60000F1F1FF8FFFFFEFCFCFCFCF8FFFFFEFC63
:100C7000FCFCFCF8FFFFFEFCFCFCFCF8FFFFFEFCAC
:100C8000FCFCFCF8FFFFFEFCFCFCFCF8FFFFFEFC9C
:100C9000FCFCFCF8FFFFFEFCFCFCFCF8FFFFFEFC8C
:100CA000FCFCFCF8FFFFFEFCFCFCFCF8FFFFFEFC7C
:100CB000FCFCFCF8FFFFFEFCFCFCFCF8FFFFFEFC6C
:100CC000FCFCFCF8FFFFFEFCFCFCFCF8FFFFFEFC5C
:100CD000FCFCFCF8FFFFFEFCFCFCFCF8FFFFFEFC4C
:100CE000FCFCFC03030303030303030303030303E9
:100CF00003030303030303030303030303030303C4
:100D000003030303030303030303030303030303B3
:100D100003030303030303030303030303030303A3
:100D20000303030303030303030303030303030393
:100D30000303030303030303030303030303030383
:100D40000303030303030303030303030303030373
:100D50000303030303030303030303030303030363
:100D6000030303800A28070922142408042807091A
:100D70002214240804280709221424080428070937
:100D80002214240804280709221424080428070927
:100D90002214240804280709221424080428070917
:100DA0002214240804280709221424080428070907
:100DB00022142408042807092214240804280709F7
:100DC00022142408042807092214240804280709E7
:100DD00022142408042807092214240804280709D7
:100DE0002214240804010102010101010101010290
:100DF00001010101010101020101010101010102E1
:100E000001010101010101020101010101010102D0
:100E100001010101010101020101010101010102C0
:100E200001010101010101020101010101010102B0
:100E300001010101010101020101010101010102A0
:100E40000101010101010102010101010101010290
:100E50000101010101010102010101010101010280
:100E60000101010101080B00020202010009040056
:100E70000001020200000524001001052401010107
:100E80000424020605240600010705810310004022
:100E900009040100020A00000007050202400000E8
:100EA000070583024000000403090412010002EF59
:100EB00002014041233680000101020301417264B6
:100EC00075696E6F204C4C430041726475696E6F9A
:100ED000204C656F6E6172646F000F08C1F7C1FF2F
:100EE000C1D5FFC1DFFFC1F5FBFFD1F8FCFCFCFC65
:100EF00078F8FCFCFCFCFCF8F8FCFCFCFCFCB8F80A
:100F0000FCFCFCFCF8F8FCFCFCFCD8F8FCFEFFFF49
:100F1000FFFFFFFFFEFCF8010303010000010303D4
:100F2000010103030103030303030103030303019B
:100F3000000303030301000103070F0F0F0F0F0F3F
:100F40000703012C0CF80404B48448F80404D414F6
:100F500004C8F80404D49464B84884941424F84869
:100F600084941424D8F8040201F14949F1010204DF
:100F7000F801020201000001020201010202010265
:100F80000202020201020202020100020202020146
:100F9000000102040809080809080402013F33F8A7
:100FA00004FA0D05E5E525252525252525252525F5
:100FB00025E52525252525252525E5252525252561
:100FC00025252525252565E5E5E5E5252525252591
:100FD000252525252525E5E5E5050DFA04F8FF007D
:100FE000FF0000FFFFFF000000000000FF1F1C18B3
:100FF000F8FF000000000000FFFFFF0000000000FD
:10100000FFFFFF000000000083FFFF008040800022
:1010100000FFFF3F38F8FFFF0000FF00FFFF00FF69
:101020000000FFFFFF00A054AA5500FCF0F2F0FF03
:10103000FF00A050A85000FFFFFF00A050A000FB41
:10104000FBF10040A4448E3FFFFF00AA55AA5500C3
:10105000FDFDE0E0FFFFFF0000FF00FFFF00FF00DD
:1010600000FFFFCFC0CAC5CAC5404F7F7F7F7F4FFB
:10107000C0CAC54A45404FFFCF404AC5CAC04F7F8E
:101080007FE0454A454A40FFCFC04A454A45C0CF68
:10109000CFC7C0F0FFFF0000FF00FFFF00FF000010
:1010A000FFFF9F2F37470F9FFF0000007F7F0080CB
:1010B000C1FF03FC000001FFFF00C0030F3F000061
:1010C000FFFF000000FFFF030000FFFEF89F2F3727
:1010D000470F9FFFFF0000FF00FFFF00FF80003F62
:1010E0003F3F3F3E3E3F3F2F2020202F3F3F3F2F9F
:1010F000202D3D2D2020202F202F3F3C3020203F31
:101100002F2020202F3F3C30202F27333F3F3E3ED3
:101110003F3F3F3F0080FF00FF000102050505053E
:10112000050505050505050505050505050505056F
:10113000050505050505050505050505050505055F
:10114000050505050505050505050505050505054F
:101150000505050505020100F804FA0D05E5E5257C
:1011600025252525252525252525E525252525256F
:10117000252525E52525252525252525252525651F
:10118000E5E5E5E52525252525252525252525E54F
:10119000E5E5050DFA04F8FF00FF0000FFFFFF0082
:1011A0000000000000FF1F1C18F8FF0000000000F6
:1011B00000FFFFFF0000000000FFFFFF0000000035
:1011C0000083FFFF000000000000FFFF3F38F8FF32
:1011D000FF0000FF00FFFF00FF0000FFFFFF00AA6D
:1011E00055AA5400FCF0F2F0FFFF00AA55AA5400E3
:1011F000FFFFFF00AA55AA00FBFBF10450A5548E87
:101200003FFFFF00AA55AA5400FDFDE0E0FFFFFFED
:101210000000FF00FFFF00FF0000FFFFCFC0CAC5B6
:10122000CAC5404F7F7F7F7F4FC0CAC54A45404FE8
:10123000FFCF404AC5CAC04F7F7FE0454A454A407C
:10124000FFCFC04A454A45C0CFCFC7C0F0FFFF001F
:1012500000FF00FFFF00FF0000FFFF9F2F37470F39
:101260009FFF0000007F7F0080C1FF03FC000001A2
:10127000FFFF00C0030F3F0000FFFF000000FFFF63
:10128000030000FFFEF89F2F37470F9FFFFF00006E
:10129000FF00FFFF00FF80003F3F3F3F3E3E3F3FDC
:1012A0002F2020202F3F3F3F2F202D3D2D2020207D
:1012B0002F202F3F3C3020203F2F2020202F3F3C4D
:1012C00030202F27333F3F3E3E3F3F3F3F0080FFD0
:1012D00000FF0001020505050505050505050505D5
:1012E00005050505050505050505050505050505AE
:1012F000050505050505050505050505050505059E
:101300000505050505050505050505050505020194
:1013100000F804FA0D05E5E52525252525252525D3
:10132000252525E52525252525252525E5252525ED
:10133000252525252525252565E5E5E5E52525251D
:101340002525252525252525E5E5E5050DFA04F8BE
:10135000FF00FF0000FFFFFF000000000000FF1F74
:101360001C18F8FF008040800000FFFFFF00804055
:101370008000FFFFFF000000000083FFFF008040AF
:10138000A04000FFFF3F38F8FFFF0000FF00FFFF15
:1013900000FF0000FFFFFF00A854AA5400FCF0F279
:1013A000F0FFFF00AA55AA5500FFFFFF00AA55AAAB
:1013B00000FBFBF10040A4448E3FFFFF00AA55AAAA
:1013C0005500FDFDE0E0FFFFFF0000FF00FFFF0014
:1013D000FF0000FFFFCFC0CAC5CAC5404F7F7F7F57
:1013E0007F4FC0CAC54A45404FFFCF404AC5CAC01B
:1013F0004F7F7FE0454A454A40FFCFC04A454A45B6
:10140000C0CFCFC7C0F0FFFF0000FF00FFFF00FF0D
:101410000000FFFF9F2F37470F9FFF0000007F7FD7
:101420000080C1FF03FC000001FFFF00C0030F3F6D
:101430000000FFFF000000FFFF030000FFFEF89F19
:101440002F37470F9FFFFF0000FF00FFFF00FF80C7
:10145000003F3F3F3F3E3E3F3F2F2020202F3F3F5A
:101460003F2F202D3D2D2020202F202F3F3C3020AE
:10147000203F2F2020202F3F3C30202F27333F3F7D
:101480003E3E3F3F3F3F0080FF00FF000102050559
:1014900005050505050505050505050505050505FC
:1014A00005050505050505050505050505050505EC
:1014B00005050505050505050505050505050505DC
:1014C000050505050505050201008040756DEAEA80
:1014D000D710DFDF4080BF7F7F7FFFFFFFFFFFFF71
:1014E000FFFFFFFFFFFFFFFFFFFFFFFFFFFF0FF704
:1014F0001B0B0B0B0B0B0B0B0B0B0B0B0B0B0B0B2C
:101500000B0B0B0B0B0B0B0B0B0B0B0B0B0B0B0B2B
:101510000B0B0B0B0B0B0B0B0B0B0B0B0B0B0B0B1B
:101520000B0B0B0B0B0B0B0B1BF70FFFFFFFFFFF47
:10153000FFFFFFFFFFFFFFFFFFFFFFFF1FDFDFDFFB
:101540000FEFEF08A8EFE804757575751F1F1E3EB5
:101550003E3E3D3D39FA7B787BF7F600FFFFFFFF0B
:10156000FFFFFFFFFFFFFFFFFFFFFFFFFFFF00FF8A
:10157000000000000000000000000000000000006B
:10158000000000000000000000000000000000005B
:10159000000000000000000000000000000000004B
:1015A000000000000000000000FF00FFFFFFFFFF41
:1015B000FFFFFFFFFFFFFFFFFFFFFFFFC0BDBDBD40
:1015C000BCBEBE3E3E1E1E1F9F1F9F1FFAC8CDC43D
:1015D000763416060100E038B060677EFFFFFFFF3B
:1015E000FFFFFFFFFFFFFFFFFFFFFFFFFFFF00FF0A
:1015F00000000000000000000000000000000000EB
:1016000000000000000000000000000000000000DA
:1016100000000000000000000000000000000000CA
:10162000000000000000000000FF00FFFFFFFFFFC0
:10163000FFFFFFFFFFFFFFFFFFFFFFFFFFFFFFFFBA
:10164000FFFFFF8081FE40405E5356573D3D3D3DCC
:101650003C3C3C3C3D383A393B3B3B80FF7F9F3F25
:101660007F7FBF7FFF7F9F3F7F7FBF7FFFFF00FFA9
:10167000000000000000000000000000000000006A
:10168000000000000000000000000000000000005A
:10169000000000000000000000000000000000004A
:1016A000000000000000000000FF00FFFF7F9F3FE0
:1016B0007F7FBF7FFF7F9F3F7F7FBFFF01DDDDDD3E
:1016C000C0DEDEC0D2DEC0D1DFDFDFDFAAA8AAA87D
:1016D000AE20BEBCA1A1BF32B1B2B030D2D0E0D2F8
:1016E000D1D2D0D0D2D0E0D2D1D2D0D0D2FF00FF50
:1016F00000000000000000000000000000000000EA
:1017000000000000000000000000000000000000D9
:1017100000000000000000000000000000000000C9
:10172000000000000000000000FF00FFD2D0E0D267
:10173000D1D2D0D0D2D0E0D2D1D2D0D3D4D5E5D569
:10174000D5D5FD0101E90101E9316971F7F7F7F735
:10175000F7787B7B3A3A3B3C3D9D9DC0FFFFFFFF06
:10176000FFFFFFFFFFFFFFFFFFFFFFFFFFFF00FF88
:101770000000000000000000000000000000000069
:101780000000000000000000000000000000000059
:101790000000000000000000000000000000000049
:1017A000000000000000000000FF00FFFFFFFFFF3F
:1017B000FFFFFFFFFFFFFFFFFFFFFFFF07777777C9
:1017C0000777770494F7F404F5F5F5F5F1E8F4F804
:1017D000F4FAF4FA0101FFD7D7D7D75757179797DD
:1017E000D7C7C7D7D7F7F7F7F7F7F7F7F7F7F6F54C
:1017F000FBFAFAFAFAFAFADADADADADADA5A1A8AF8
:10180000CADADAFAFAFAFAFAFAFAFAFAFAFAFAFAA8
:10181000FAFAFAFAFAFAFAFAFAFADADACA0A1ADA88
:10182000DADADADADAFAFAFAFBF5F6F7F7F7F7F7CF
:10183000F7F7F7F7F7F7F7F7F7D7D7DFD0D7D7EFFF
:10184000AF2FEF0F1E9E1E9E1E3E3E3EFFFFFFFF70
:101850007F3F8FC7E0F0FDFBFDFDFCFCFDFDFDFDC6
:10186000FDFDFDFDFDFDFDFDFDFDFDFDFDFDFDFDA8
:10187000FDFDFDFDFDFDFDFD3D8DE5F1F8FCFDFDF2
:10188000FDFDFDFDFDFDFDFDFDFDFDFDFDFDFDFD88
:10189000FDFDFDFDFDFDFDFDFDFDFDFDFDFDF8E09A
:1018A000851D7DFDFDFDFDFDFDFDFDFDFDFDFDFD40
:1018B000FDFDFDFDFDFDFDFDFDFDFDFDE5E5C5C5F8
:1018C000C5858780000E0D0E0D1E1D1AF8FCFEFF4B
:1018D000FFFFFFFFFFFFFFFFFFFFFFFFFFFFFFFF18
:1018E000FFFFFFFFFFFFFFFFFFFFFFFFFFFFFFFF08
:1018F000FFFFFFFFFFFFFFFFFFFFFFFFFFFFFFFFF8
:10190000FFFFFFFFFFFFFFFFFFFEFCF8FFFFFFFFF2
:10191000FFFFFFFFFFFFFFFFFFFFFFFFFFFFFFFFD7
:10192000FFFFFFFFFFFFFFFFFFFFFFFFFFFFFFFFC7
:10193000FFFFFFFFFFFFFFFFFFFFFFFFFFFFFFFFB7
:10194000FFFFFFFFFFFFFFFFFFFFFFFF070F1F3F2F
:101950003F3F3F3F3F3F3F3F3F3F3F3F3F3F3F3F97
:101960003F3F3F3F3F3F3F3F3F3F3F3F3F3F3F3F87
:101970003F3F3F3F3F3F3F3F3F3F3F3F3F3F3F3F77
:101980003F3F3F3F3F3F3F3F3F1F0F07401600F89D
:1019900004F20A0A0ACA4ACACA0A0A4ACACA0A0A85
:1019A0004ACACA0ACACA4A4ACACA4ACA0A0A0A0A57
:1019B0000ACA4ACA0A4ACACA0ACA4A4ACACA4ACA47
:1019C0000A4ACACA4ACA8A0A0A0AF204F80000FF86
:1019D00000FF00003FFF807CFD0480FE27FFF880B1
:1019E00080FF1F0EFFFF8080FFFF84CE00000000FD
:1019F0003FFF80FF3F0003FFFC070080FFFF84CE16
:101A00000080FFFF08FFF3800000FF00FF000007D9
:101A10000813141414141414141414141414141493
:101A20001414141414141414141414141414141476
:101A30001414141414141414141414141414141466
:101A400014141414141414141414130807000000AC
:101A5000000000C0E0F0F0E0C00000000000000066
:101A600000000001030301000000000000000080EE
:101A7000E0F0F8F8F8F0E0C000000000000001031A
:101A800007070F0F070301000000C0E0F8FCFEFE8F
:101A9000FFFFFFFFFEFEFCF8F003070F1F1F3F7F55
:101AA0007F7F7F3F1F0F03010080D8FCFE7E3F1E1B
:101AB0000C9C3E7F3F9E0C03070F1F1F0F0E1E3F07
:101AC0007F3F1E0D0301000C9EBF3F1E0400040E4D
:101AD0001F3F3F1E0C060F1F3F1F0E0400081C3E39
:101AE0007F3F1E0C0002070F060000000000070FDA
:101AF0001F1E1C0E1E3E3C380000000010387C38B3
:101B00001000020702000000000000000002070EA3
:101B100004081C38100000000000000000207020A5
:101B20000F0F0000000000C020D0D020C000000037
:101B3000000000000000000102020100000000009F
:101B4000000000000000C02020C0000000000000D5
:101B50000000000000000101000000000000000083
:101B600000806090E8E8C8D020C0000000000000BD
:101B7000010205050B0B050201000000000000003A
:101B8000806010103020C000000000000000000144
:101B900002020404020100000000C020D8E4DAFAC6
:101BA000FDFDFDF5FAFAF408F003040B17172B5F9F
:101BB0005F5F5E2D130D020100C020182404020295
:101BC000020A040408F0000003040808142020207E
:101BD00021120C02010000805864DA5A2D120C9474
:101BE0002A5D2D920C03040B1716090E122D5E2D83
:101BF000120D0201000080982424120C0008142207
:101C0000120C00000304080906000C1221120C003B
:101C10000100000C92AD251A0400040A152D2D12A6
:101C20000C0609162E150A040008142A5D2D120C44
:101C300000000C121A04000000040A12120C00002A
:101C40000609110A04000000081422120C00000208
:101C50000509060000000000060915120C0C122AE6
:101C60002438000000001028542810000002070F3C
:101C7000060000000000060F1F1E0C0C1E3E3C3824
:101C80000000000010387C3810000205020000003F
:101C9000000000000002070E04081C3810000000BD
:101CA0000000000000207020000200000000000082
:101CB0000000000002040000081000000000000006
:101CC00000000000200007063C0205013D023C0721
:101CD000063C3E3F3F3F3E3C07063C023D010502BD
:101CE0003C0000000080C0E0E0E0E0E0E0E0E0E098
:101CF000E0E0E0FCFEFFFFFFFEFCC0800000000013
:101D00000000FEFFFFFFFFFFFFFFFFFFFFFFFFFFE2
:101D1000FFFFFFFFFFFFFFFFFFFFFFFFFCF80000DB
:101D200000FFFFFFFFFFFFFFFFFFFFFFFFFFFFFFC2
:101D3000FFFFFFFFFFFFFFFFFFFFFFFFFF00060F9B
:101D40000F1F1F1F3F7F7F7F7F3F1F1F1F1F1F1FF3
:101D50001F1F3F7F7F7F7F3F1F1F1F0F071F1F001A
:101D60000000008040A0A0A0A0A0A0A0A0A0A0A0D3
:101D7000A0BC828581BD823C408000000000000044
:101D8000FE01FC85FD01FF03FDBDDDEDBD9D85FD73
:101D900003FF0305BDDDAD3C380304F8000000FF80
:101DA0000082B24ABBBBBBBA7AFACACE8686CECB19
:101DB000FB7BBABABAB26AE2EA00FF0006090A1669
:101DC000111623414C4441231611131313131116FA
:101DD00023414C444123161117080780C0E0F0E06E
:101DE000C4CEFFFFFFFFCEC4E0F0E0C08003173F8A
:101DF0007FFFFFFFFFFFFFFFFFFFFF7F3F17030096
:101E000000000000010100000000010100000000CE
:101E10000000000000C0E4CEFFFFFFFFCEE4C000E2
:101E20000000000000001FBFFFFFFFFFFFFFFFFFDC
:101E3000BF1F0000000000000000010100000000C2
:101E40000101000000000000000000C0E4CEFFFF20
:101E5000FFFFCEE4C0000000000000000087DFFFAD
:101E6000FFFFFFFFFFDF8700000000000000000011
:101E7000010100000000010100000000000000005E
:101E8000000004CEFFFFFFFFCE04000000000000B2
:101E900000000080D8FDFFFFFFFFFDD8800000009C
:101EA000000000000000010100000000010100002E
:101EB00000000012118040A01020C4CA351515354D
:101EC000CAC42010A0408002152851C65865BA81A6
:101ED00081BA6558C65128150200000000000101B2
:101EE000000000000101000000000000000000C030
:101EF00024CA35151535CA24C000000000000000B2
:101F00001FA05865BA8181BA6558A01F0000000063
:101F100000000000010100000000010100000000BD
:101F20000000000000C024CA35151535CA24C000C1
:101F300000000000000000875865BA8181BA65582A
:101F40008700000000000000000001010000000008
:101F500001010000000000000000000004CA351567
:101F60001535CA040000000000000000008058651C
:101F7000BA8181BA655880000000000000000000AE
:101F8000010100000000010100000000003E7F3E52
:101F90007F3E7F7F3E7F7E3E7F3F0E2E7F2E11074E
:101FA0003E4136413E41553E415E3E41350A2E514D
:101FB0002EC0E0E0F0F0F0F0F8FCFEFF7F7FFEFCCA
:101FC0006000010107070707070707070400000073
:101FD00000100BC0202010D0D050180402816141A5
:101FE000829C60000101070100000004000304005E
:101FF0000000000E0E0E1F1F1F1F1F1F0E0E0E00D3
:102000001C1F1F1F1F1F1F1F1F070000071F1F1F51
:102010001F1F1F1F1F1C000C050E0A0E1F151F1F60
:10202000151F0E0A0E000400000A00000A0000043A
:1020300000001C171D1F171D1F171D07000000089B
:1020400002000802000802000000071D171F1D17EC
:102050001F1D171C000000020800020800020800F3
:1020600000C0E0E0F0FCFEFFFFFFFEFFF6F8F0F03E
:1020700060003179797D3F0F0F0F0F07070F1E0F9B
:10208000060E1F1FFEF8F0FFFFFFFFFCF8F8F0E060
:1020900000000010397F7F2F3F7F7F3F0B07070233
:1020A0000030F8BCF8F0F0F8F8F8F8FEDFCFCFC653
:1020B000800307070F377F3F7F7F7F3F1F070303A3
:1020C00001A0F0F0E8FEFFFFFEFAFFFFCE040000E3
:1020D0000003070F0F1F7F7F7F7F070F3F7C7C3838
:1020E000000030F8FCFEFEFEFC7E3CF8F8F0C0007C
:1020F00000163F3F1F0F1F3F3F3F3F1F1F1F1F1F68
:102100000E00C6EFFEFFFFFEFCFCFEFEFCF87000BA
:102110000000033F7F7F7F3F3C3D1F1F0F030100F7
:1021200000387CFCFCFCFC7E7EFEFEFCF8FCFE7EA7
:1021300034000001070F0F1E3F1F3F3F3F1F0F06D8
:10214000000040E0F8FCFCDE9EFEFFFFFFFEE0002A
:102150000000070F1F3F3F1F1F3F7F7F3F7B310066
:1021600000100FC02020107CC28109191A6936881E
:102170009090600031494945320A08080805050970
:102180001209060E1111E608300F31190B8CC80820
:1021900010E0000000102946502E384346350B044D
:1021A00005020030C8A4C85050080808A8A6514924
:1021B00049468003040408364B2D4C4840211F0437
:1021C000020201A05010E8D631610E3A0531CA046E
:1021D0000000000304080918684C467806083344D8
:1021E0004438000030C884020222B4523CC808308F
:1021F000C000001629241E08102020232D161617B3
:1022000011110E00C6291A0D09028C04C28204881D
:1022100070000000033C424E5D33242512130E0271
:102220000100003844C47434B45A6282020408BC09
:10223000924A340000010608091E251622202010AB
:102240000906000040A038E4A45292665D39211EC0
:10225000E0000000070810202110182048582C4AE0
:102260003100000000000070F8FCFEFEFFFFFEFCE5
:1022700060000000000000000000000000000000FE
:1022800060FCFEFFFFFEFEFCF87000000000008016
:10229000800082C7E7FFFFFFFFFFFEFCFCFC383831
:1022A000383838383838B8B838FCFCFCFFFFFFFF46
:1022B000FFFFC7870200000000070F1F1F0F070165
:1022C0000100040E1F3F3F1B010000000000000042
:1022D00003070F1F0F0701000000000F1F1F1F1E25
:1022E0000C0000000000000070F8FCFEFEFFFFFE86
:1022F000FC60000000000000000000000000000082
:102300000060FCFEFFFFFEFEFCF870000000000015
:1023100000000002C7E7FFFFFFFFFFFEFCFCFC38E8
:10232000B8B838383838383838B8FCFCFCFFFFFF0C
:10233000FFFFFFC78702808000000000000C1E1F07
:102340001F1F0F0000000001070F1F0F07030000F1
:1023500000000000011B3F3F1F0E04000101070F9A
:102360001F1F0F07002B16000000007088040216C4
:102370000141229C600000000000000000000000FD
:1023800000000000609C22410116020488700000D9
:102390000000008080008245243E808080913224AD
:1023A00044C42828282828282828A8A828C4442441
:1023B00093918080003E44850200000000070810D1
:1023C000110806010100040A1121241A010000006D
:1023D0000000000003040811080601000000000FBF
:1023E000101213120C00000000000000708804029C
:1023F000160141229C600000000000000000000067
:102400000000000000609C22410116020488700058
:102410000000000000000002C5243E00808091B250
:102420002444C428A8A828282828282828A84444C0
:102430002493918080003E4485028080000000004B
:10244000000C121312100F00000000010608110802
:102450000403000000000000011A2421110A0400F6
:1024600001010608111008070004087EFF817E8222
:10247000FEFF80C6A19FCE6689FF7638ACFFB06FA5
:1024800089F9707EFF857883F1FD83768D99761EBC
:10249000BFA17E18BCFEFFFFFEFCFEFFFFFEBC18C6
:1024A00003070F1F1F0F070F1F1F0F07030D0D1827
:1024B000A4422151EAF4E2418142A4180304081025
:1024C0001008050A11100804032C18FFFFFFFFFF76
:1024D000FFFFFFFFFFFFFFFFFFFFFFFFFFFFFFFF0C
:1024E000FFFFFFFFFFFFFFFFFFFFFFFFFFFFFFFFFC
:1024F000FFFFFFFFFFFFFFFFFFFFFF7F3FBF7F3FAC
:10250000CFE7F7E78FF7FBFB3387DFDF9F1F3FFF47
:10251000FFFFFFFFFFFFFFFFFFFFFFFFFFFFFFFFCB
:10252000FFFFFFDFDFCFD3D8CFE7F3CE9FBF9FCF33
:10253000BF7F7F7FBF9FC7F7F3F8FCFFFFFFFFFF61
:10254000FFFFFFFFFFFFFFFFFFFFFFFFFFFFFFFF9B
:10255000FFFFFFFFFFFFFFFFFF7F7F7FFFFF7F7F0B
:102560007F7FFFFFFFFFFFFFFFFFFFFFFFFFFFFF7B
:10257000FFFFFFFFFFFFFFFFFFFFFFFFFFFFFF73F7
:1025800039B97339CCE6F6E68CF6FAFB3386DCD93A
:102590009D1C3CF8C1D39F1F3FFFFFFFFFFFFFFFC4
:1025A000FFFFFFFFFFFFFFDFDFCFD3D8CFE7F3CE83
:1025B0009FBF9FCFBF7F7F7FBF9FC7F7B3787C3F11
:1025C000BB93C5FCFEFFFFFFFFFFFFFFFFFFFFFF09
:1025D000FFFFFFFFFF3F9FDFC3B1F9F9F347717CB6
:1025E000FEFC71477379F9F3C7F7FBFBE78FBF0F69
:1025F00067E78F3F3F7FFFFFFFFFFFFFFFFFFFFF0B
:10260000FFFEFFF3F9F9F3F9FCFEFEFEFCFEFEFF10
:10261000FFFEFCF9FDFCFCF8C1D39F1F3EFFF773E2
:10262000680C9FFFFFFFFFFFFFFFFFFFFFFFFFFFA4
:10263000FFFFFFFFFFFFFFFFFFFFFFFFFFFFFFFFAA
:10264000BF7F7F3FBB93C5FCBEBF97CFEFE6E0F1F6
:10265000FFFFFFFFFFFFFFFFFF3F9FDFC3B1F9F960
:10266000F3C7F1FCFEFCF1C7F3F9F9F3C7F7FBFB85
:10267000E78FBF0F67E68E3C3977FBF93143677F01
:10268000FFFFFFFFFFFEFFFFFFFFFFFFFFFFFFFF5B
:10269000FFFFFFFFFFFFFFFFFFFFFFFFFFFFFFFF4A
:1026A000FEFFF773680C9FFFFFDFCE80303F7FFF98
:1026B000FFFFFFFFFFFFFFFFFFFFFFFFFFFFFFFF2A
:1026C000FFFFFFFFFFFFFFFFFFFFFFFFBFBF97CF32
:1026D000EFE6E0F1BFBF97C7F3F8FCFFFFFFFFFF96
:1026E000FFFFFFFFFFFFFFFFFFFFFFFFFFFFFFFFFA
:1026F000FFFFFFFFFFFFFFFFFFFEFEFCF9F7FBF907
:102700003143677FFFFFFFFFFFFFFFFFFFFFFFFF7B
:10271000FFFFFFFFFFFFFFFFFFFFFFFFFFFFFFFFC9
:10272000FFFFFFFFFFFFFFFFFFFFFFFFFFDFCE8089
:10273000303F7FFFFFFFFFFFFFFFFFFFFFFFFFFFB8
:10274000FFFFFFFFFFFFFFFFFFFFFFFFFFFFFFFF99
:10275000FFFFFFFFFFFFFFFFBFBF97C7F3F8FC00BE
:10276000FC0201010101010101010101010101015D
:102770000101010101010101010101010101010149
:1027800001010102FC00102F50A0A0A0A0A0A0A059
:10279000A0A0A0A0A0A0A0A0A0A0A0A0A0A0A0A039
:1027A000A0A0A0A0A0A0A0A0A0A0502F1027100023
:1027B000FC0201010101010101010101010101010D
:1027C00001010101010101010101010101010101F9
:1027D00001010102FC00102F50A0A0A0A0A0A0A009
:1027E000A0A0A0A0A0A0A0A0A0A0A0A0A0A0A0A0E9
:1027F000A0A0A0A0A0A0A0A0A0A0502F10FFFFFF0D
:10280000FFFFFFFFFFFFFFFFC0C0C0808000FFFF92
:10281000FFFFFFFFFFFFFFFFFFFFFFFFFFFFFFFFC8
:10282000FFFFFFFFFFFFFFFFFFFFE3E3C7C7C3811A
:10283000FFFFFFFFFFFFFFFFFFFFFFFFFFFFFFFFA8
:102840007FFFFFFFFFFFFFFFFFFFFFFFE1E1E1E190
:10285000E0C0FFFFFFFFFFFFFFFFFFFFFFFFFFFFE6
:10286000FF7F3FFFFFFFFFFFFFFFFFFFFFFF0101B4
:1028700000000000FFFFFFFFFFFFFF7F3F1F07007B
:1028800000000000001140756DEAEAD710DFDF405C
:1028900080BF4040408080001F1F1E3E3E3E3D3DA9
:1028A000397A7B787BF7F600FFEAE8D5D4D6109E1C
:1028B000BEA2A2BE22A2444442813D3D3D3D3D3CDC
:1028C0003D3D3D393B383B3B3B807FAAA8AAA8AEA3
:1028D00020BEBCA1A1BF21A1A1A120C0F7F7F7F79D
:1028E000F7787B7B3A3A3B3C3D9D9D403FF1E8F4D5
:1028F000F8F4FAF4FA0101FF010100000000FFFF03
:10290000FFFF7F3F8F47201007000000000000807E
:102910000DFFFFFFFFFFFFFFFFFFFFFFFFFFFFFFB9
:10292000FFFFFFFFFFFFFFFFFFFFFFFFFFFFFFFFB7
:10293000FFFFFFFFFFFFFFFFFFFFFFFFFFFFFFFFA7
:10294000FFFFFFFFFFFFFFFFFFFFFFFFFFFFFFFF97
:10295000FFFFFFFFFFFFFFFFFFFFFFFFFFFFFFFF87
:10296000FFFFFFFFFFFFFFFFFFFFFFFFFFFFFFFF77
:10297000FFFFFFFFFFFFFFFFFFFFFFFFFFFFFFFF67
:10298000FFFFFFFFFFFFFFFFFFFFFFFFFFFFFFFF57
:10299000FF1F1F1F1F1F1F1F1F1F1F1F1F1F1F1F67
:1029A0001F1F1F1F1F1F1F1F1F1F1F1F1F1F1F1F37
:1029B0001F1F1F1F1F1F1F1F1F1F1F1F1F1F1F1F27
:1029C0001F1F1F1F1F1F1F1F1F1F1F1F1F1F1F1F17
:1029D0001F1F1F1F1F1F1F1F1F1F1F1F1F1F1F1F07
:1029E0001F1F1F1F1F1F1F1F1F1F1F1F1F1F1F1FF7
:1029F0001F1F1F1F1F1F1F1F1F1F1F1F1F1F1F1FE7
:102A00001F1F1F1F1F1F1F1F1F1F1F1F1F1F1F1FD6
:102A10001F800DFEBEBEBEBEBEBEBABABA3A3ABA3C
:102A2000BA9A8AAAA2B2B2BAB8B8BABABEBEBEBE82
:102A3000BEBEBEBEBEBEBEBEBEBEBEBEBEBEBABABE
:102A4000BABA3A1A8AA2B0B8BABABEBEBEBEBEBE42
:102A5000BEBEBEBEBEBEBEBEBEBEBEBEBEBEBEBE96
:102A6000BEBABAB8A0021ABABABABABABEBEBEBE26
:102A7000BEBEBEBEBEBEBEBEBEBEBEBEBEBEBEBE76
:102A8000BABABABAB8B8B8B0A2820A1A3ABABABAD6
:102A9000BABABA1F1F0717131B191D1C1E1F1F1FB1
:102AA0001F1F1F1F1F1F1F1F1F1F1F1F1F1F1F1F36
:102AB0001F1F1F1F1F1F1F1F1F1F1F1F1F1F1F073E
:102AC000111C1E1F1F1F1F1F1F1F1F1F1F1F1F1F28
:102AD0001F1F1F1F1F1F1F1F1F1F1F1F1F1F1F1F06
:102AE0001F1F1F1F1F1F1C10030F1F1F1F1F1F1F34
:102AF0001F1F1F1F1F1F1F1F1F1F1F1F1F1F1F1FE6
:102B00001F1F1F1F1F1F1F1F1F1F1F1E1810010326
:102B10000F1F1FF8FFFFFEFCFCFCFCF8FFFFFEFC94
:102B2000FCFCFCF8FFFFFEFCFCFCFCF8FFFFFEFCDD
:102B3000FCFCFCF8FFFFFEFCFCFCFCF8FFFFFEFCCD
:102B4000FCFCFCF8FFFFFEFCFCFCFCF8FFFFFEFCBD
:102B5000FCFCFCF8FFFFFEFCFCFCFCF8FFFFFEFCAD
:102B6000FCFCFCF8FFFFFEFCFCFCFCF8FFFFFEFC9D
:102B7000FCFCFCF8FFFFFEFCFCFCFCF8FFFFFEFC8D
:102B8000FCFCFCF8FFFFFEFCFCFCFCF8FFFFFEFC7D
:102B9000FCFCFC030303030303030303030303031A
:102BA00003030303030303030303030303030303F5
:102BB00003030303030303030303030303030303E5
:102BC00003030303030303030303030303030303D5
:102BD00003030303030303030303030303030303C5
:102BE00003030303030303030303030303030303B5
:102BF00003030303030303030303030303030303A5
:102C00000303030303030303030303030303030394
:102C1000030303800A28070922142408042807094B
:102C20002214240804280709221424080428070968
:102C30002214240804280709221424080428070958
:102C40002214240804280709221424080428070948
:102C50002214240804280709221424080428070938
:102C60002214240804280709221424080428070928
:102C70002214240804280709221424080428070918
:102C80002214240804280709221424080428070908
:102C900022142408040101020101010101010102C1
:102CA0000101010101010102010101010101010212
:102CB0000101010101010102010101010101010202
:102CC00001010101010101020101010101010102F2
:102CD00001010101010101020101010101010102E2
:102CE00001010101010101020101010101010102D2
:102CF00001010101010101020101010101010102C2
:102D000001010101010101020101010101010102B1
:102D1000010101010120079D733A1DD9B273979CEF
:102D20004DB9ED5A7139D739272773CE713999DDED
:102D30003A32E59CEB5CCD050D0F929DAB64E72A22
:102D4000D9B94A76AE929DAB64E72A598CD1451722
:102D50005D74D1450A4D079DAB9DB2B139574927E6
:102D60002B2EE76AD791652F5793652F57E3CAB982
:102D7000DA291B9B734EA723536EBB565C6B2595BC
:102D80009B7ED9B94B4EE66476EB709476CEB9BC97
:102D900072DBB5E272AE76CAC6E65CED3A070D0F9D
:102DA000D5E594BC9C929753F2724A5E4EC9CB29EA
:102DB00079E59554524925955452492595545249DF
:102DC0002515192307524E2AA9A453B8954ED9D0D8
:102DD00099554E92659593541201130014001501F4
:102DE000160217041807190B1A101B171C1E1D2595
:102DF0001E201F1B20162111220C23082405250349
:102E000026022701280129012A012B022C032D0566
:102E10002E082F0C30113116321B33213425352169
:102E2000361E371A381639123A0E3B0B3C093D084C
:102E30003E073F07400741084209430B440E451235
:102E40004616471A481E49214A254B224C1F4D1C45
:102E50004E1A4F18511653155514571459145B1424
:102E60005D155F166118621A631C641F6522662572
:102E70008F30563011241FBECFEFDAE0DEBFCDBF5A
:102E800011E0A0E0B1E0E2E1F8E602C005900D92A9
:102E9000AA3DB107D9F726E0AAEDB1E001C01D9225
:102EA000A63FB207E1F717E1C9E3D7E104C02197D4
:102EB000FE010E94D032C833D107C9F70E94022E0A
:102EC0000C94FC330C940000DB01FC01E15BFF4F30
:102ED00010823D97128215821F961C921E921E9799
:102EE00051961C921E92509752961C9208956F9282
:102EF0007F928F929F92AF92BF92CF92DF92EF928A
:102F0000FF920F931F93CF93DF93EC017B01DB01C3
:102F100019967C90199718966C9018978C01025C02
:102F20001F4F16968D919C91179765E070E00E9457
:102F3000BC32892B09F0A0C04EADDE011296F2E33F
:102F4000CF2E83E0B82E9BE2A92E22E0D22E4C5E3B
:102F500050E061E09E012E5B3F4F7AEFA017B10772
:102F600009F48AC014968C911497882309F482C0BE
:102F70008C91863639F4F701868597850196978777
:102F8000868733C011969C911197953271F5885FB1
:102F900090E0841B950B97FF03C091958195910953
:102FA0008B3018F115966C931597F70180889188EE
:102FB000FFEF8F1A9F0AF701918A808A8C918C33D8
:102FC00008F027C2873208F018C2823170F0F90188
:102FD000138262837583E82DE33008F0E2E0F0E0CD
:102FE000E454FE4F8491F901848312968C911297D8
:102FF0008F5F12968C9312978C3421F412961C9248
:10300000129735C015969C911597923031F170F456
:10301000992399F0913059F58C918F5F8C9311968B
:10302000AC9211971596DC92159724C09D33F8F455
:103030009F5F15969C9315971DC090E0880F991F70
:10304000FC01E852F24DE491EC93FC01E752F24DA1
:10305000E4911196EC9311970DC08C918F5F8C9336
:103060001196CC9211971596BC92159703C01496A1
:103070001C921497169672CFD70116968D919C913B
:1030800017976FE070E00E94BC32892B89F4FE0133
:1030900032960E171F0761F08481882339F08381EF
:1030A0008F5F883011F0838301C013823696F1CF91
:1030B000F701868180FD34C080899189039780F56E
:1030C0006E01FDE4CF0ED11CD6018C9181508C9302
:1030D000811126C0D7011E968D919C911F97FE01EC
:1030E000E45BFF4F4F019E01225B3F4F59018B3044
:1030F000910508F09DC10E94D23122E330E040E00A
:1031000050E00E943F32DC01CB018A569F4FAF4F07
:10311000BF4FF601808386E0D4018C93F5011082C5
:10312000D70116968D919C9117976EE170E00E94E1
:10313000BC32892B09F03CC0FE01E45BFF4F80816B
:103140008823B1F1813091F51082FE0180E09681F3
:10315000992329F08F5F36968A30C9F78FEF90E078
:10316000AC014F5F5F4F26E0249FF001259FF00DDB
:103170001124EC0FFD1F31E03083289FD001299FDF
:10318000B00D1124AC0FBD1F14961C921497179606
:103190001C921797E8EDFDE2E4911296EC931297DA
:1031A000E9EDFDE2E4911396EC9302C08150808337
:1031B00065FE08C0F8018181811104C08EAD8331A4
:1031C00008F0138266FE0CC0D80111968C911197FD
:1031D000811106C08EAD8C3318F481E013968C9368
:1031E000F701868180FD37C0D80113968C91882322
:1031F00091F0813081F58EADD8011196EC91119747
:1032000091E09E0F11969C93F0E0E25AFE4FE491FC
:10321000E80FEEAF0FC08EADD8011196EC9111976B
:1032200091E09E0F11969C93F0E0E25AFE4FE491DC
:103230008E1B8EAFF80182818F5F8C3051F4D801E4
:1032400012961C929B3039F4F801118282E083833C
:1032500002C08283F7CF6E01B2E4CB0ED11CF6011F
:103260008281882309F48AC0D70116968D919C919A
:10327000179766E070E00E94BC32892B09F07EC08F
:1032800085818F5F8583282F082E000C330B87FDE7
:1032900037C0848190E02817390794F58381813005
:1032A000F9F080F0823061F5C9010196880F991F0D
:1032B000FC01E759FE4FE491D601EC93FC01E6597D
:1032C000FE4F1BC0C9010196880F991FFC01E354F2
:1032D000FE4FE491D601EC93FC01E254FE4F0DC089
:1032E000C9010196880F991FFC01E956FE4FE49130
:1032F000D601EC93FC01E856FE4FE4911196EC9355
:10330000F601848190E02817390709F41282821BA4
:10331000930B9E01255B3F4F5901D90108976CF52E
:103320004C914F5F4C9350E060E070E02AE08DEEEE
:1033300095E00E94EC226DEB71E08DEE95E00E942D
:10334000D722F5018081883039F4D60112961C927B
:10335000129715961C921082F501408150E060E0B2
:1033600070E02AE08DEE95E00E94EC226FEB71E0B8
:103370008DEE95E00E94D72201C01C92F701868154
:1033800097819C0127703327232B41F4FE01E85BD2
:10339000FF4F21E03081311120E020838F70992789
:1033A000892B51F4FE01E65BFF4F80818F5F8530F2
:1033B00010F4808301C01082D70150968D919C91AA
:1033C0005197039761F4CE0102960817190709F483
:1033D00069C00696FC01329720812223B1F3C15BBC
:1033E000DF4F8881882309F463C07094672063FEEF
:1033F0005FC084E0F701848B5BC0F9016383628363
:103400007583E82DE33008F0E2E0F0E0EA56FE4F85
:10341000E9CD813808F0E9CDF901D3826283758363
:10342000E82DE33008F0E2E0F0E0E859FE4FDACDB5
:103430004597D0F40E94D23122E330E040E050E0E2
:103440000E943F32DC01CB0188589F4FAF4FBF4FE6
:10345000F601808386E0D4018C930E94D23122E071
:1034600030E040E050E019C00E94D23122E330E069
:1034700040E050E00E943F32DC01CB01805B9F4F77
:10348000AF4FBF4FF601808386E0D4018C930E943A
:10349000D23123E030E040E050E00E943F32F501BD
:1034A00060833ECE81E0FE01E15BFF4F808397CFDA
:1034B000DF91CF911F910F91FF90EF90DF90CF9010
:1034C000BF90AF909F908F907F906F9008954F9294
:1034D0005F926F927F928F929F92AF92BF92CF92A4
:1034E000DF92EF92FF920F931F93CF93DF93EC0144
:1034F000FB01E680F78015E21F831E8382E1888747
:103500006E01F2E0CF0ED11CBE01605F7F4FC6019D
:103510000E94D7226AA17BA142E1CE010E94EF2B3B
:103520001F831E838BE18887BE016C5E7F4FC601BF
:103530000E94D7226CA17DA14BE1CE010E94EF2B0E
:103540001F831E8384E28887BE01685E7F4FC601A9
:103550000E94D7226EA17FA144E2CE010E94EF2BF0
:103560000C850F3F09F45CC0C70168E370E00E945E
:10357000BC328D3108F454C0FE01E00FF11DE00FA4
:10358000F11D448C558C89E0089F8001112448016D
:10359000E2E18E0E911C6D84F6E06F9E30011124E5
:1035A000530184E2A80EB11CEAE26E0E711C065EA5
:1035B0001F4FA614B704D9F0740197FE02C0E12C86
:1035C000F12CC8010134110514F080E490E0E816F4
:1035D000F9064CF441E0B701C5010E94DE27FFEF78
:1035E000EF1AFF0AEECF8FEFA81AB80AE2CF1986BA
:1035F0008C8599E0899F902D11249E5E2D85822FC8
:10360000880F820F880F8B5D8F838E839887F201DE
:10361000E20FF11D6081C6010E94721E81E0898760
:103620008C858F3F79F48F8581110CC0E12C00E0EF
:103630002CEA30E044E051E064E370E08BE290E09B
:103640000E94EE26DF91CF911F910F91FF90EF9096
:10365000DF90CF90BF90AF909F908F907F906F90B2
:103660005F904F900C94DF2B0E94F733FC01DB013D
:1036700019969C911997909518968C911897982364
:1036800016962D913C911797A90147705527452B08
:1036900029F481E04085411180E0808720FD34C01D
:1036A0008481823A48F48B35A0F48C3370F08C34EA
:1036B00040F181E0868325C08F3B10F18F3B09F5F7
:1036C00083E054968C9354971CC0828181508283EE
:1036D00018C081E0868323703327232B91F48381E4
:1036E000863128F4833138F4823159F006C08B31A9
:1036F00020F4825003C0815001C08350838301C0F5
:10370000168284818F5F848393FF04C083E0549684
:103710008C93549716968D919C9117978F7099273B
:10372000892B39F485818F5F853010F4858301C042
:10373000158216968D919C9117976CE070E00E940F
:10374000BC32892B39F48381823121F0978181E069
:10375000892787830895FC018CE9828382E783832C
:10376000148215821682178210860895089580E0CB
:1037700090E008950895CF92DF92EF92FF921F9309
:10378000CF93DF93EC016B01FB01F18410854C8535
:1037900050E060E070E02AE08DEE95E00E94EC22BF
:1037A0006FEB71E08DEE95E00E94D7228C858F3F04
:1037B00009F499C0F601E680F780F7E0EF22FF24D4
:1037C000E114F10409F0A5C017FF20C0FE01E80FC5
:1037D000F11DE80FF11D848D958D2D85FC01E20F03
:1037E000F11D20812F5F20832D85FC01E20FF11D4B
:1037F00020812B3514F021E420832D85FC01E20F7C
:10380000F11D8081803411F481E4808314FF21C094
:103810008C85FE01E80FF11DE80FF11D848D958D5B
:103820002D85FC01E20FF11D2081215020832D8583
:10383000FC01E20FF11D2081213414F42AE52083DC
:103840002D85FC01E20FF11D80818E3311F48AE594
:10385000808315FF05C08D85882311F081508D87E9
:1038600016FF05C08D85823010F48F5F8D8713FFA2
:1038700050C062EC71E08DEE95E00E94D7226FEBB4
:1038800071E08DEE95E00E94D7228C85FE01E80F55
:10389000F11DE80FF11D048CF58DE02D80818F3333
:1038A000C1F181818F33A9F182818F3391F16F0151
:1038B000F60161916F018C85970144E08402200D2F
:1038C000311D1124C90189599F4F0E9485275FEF3F
:1038D000E51AF50A83E0E816F10451F78FEF8C87BB
:1038E00084E68F8716C0F094F122F3FE12C08F8514
:1038F00081110FC06EEC71E08DEE95E00E94D72231
:103900006FEB71E08DEE95E00E94D72281E0F60129
:10391000848B8E8517FF4DC014FF4BC08F5F8E8741
:10392000853108F454C08D3388F18D3309F04FC0D0
:103930001E8683E884BD8FEF87BD81EF8093800072
:103940001092880010928A0081E00E94762867E633
:10395000CE0140960E9438286BE6CE0144960E9424
:1039600038286FE6CE0148960E94382883E70E94E7
:1039700024289BA38AA385E70E9424289DA38CA3C7
:1039800087E70E9424289FA38EA321C020E430E073
:10399000A901481B5109CA01880F93E894BD9FEF04
:1039A00097BD91EF909380001092880080938A00D9
:1039B0000EC0882361F083E884BD8FEF87BD81EF5F
:1039C000809380001092880010928A001E868F8556
:1039D000882311F081508F87DF91CF911F91FF9045
:1039E000EF90DF90CF9008952F923F924F925F9289
:1039F0006F927F928F929F92AF92BF92CF92DF92FF
:103A0000EF92FF920F931F93CF93DF9300D000D0DC
:103A1000CDB7DEB78C012B01FC011586168684E636
:103A20008787FB01868597859C838B83312C832D2B
:103A3000880F8D580E9424282B813C812817390734
:103A40004CF05BE6652E712C65E7C62ED12C72E03A
:103A5000272E2CC03394F3E03F12E9CF33243A945D
:103A600052C0C7010E942932682FC4018E0D9F1DCC
:103A70000E948527EFEFEE1AFE0AAE14BF0489F705
:103A80001A821982BE016F5F7F4FC6010E94592CB6
:103A9000BE016F5F7F4FC60102960E94F9272A94EC
:103AA000F2E0CF1AD10884E0681A7108321448F4A1
:103AB000530184E0A80EB11C730144E0842E912CC4
:103AC000D0CFE32CF12C6701CC0CDD1CCC0CDD1C21
:103AD0005601E7E6AE0EB11CFBE6CF0ED11C6FE33C
:103AE000C5010E9485278FEFA81AB80ACA14DB0403
:103AF000B1F7C701880F991FBE016D5F7F4F8D58C9
:103B00009F4F0E94F927F801348683E884BD8FEF28
:103B100087BD81EF809380001092880010928A0008
:103B2000F2011186108667E6C80140960E94382887
:103B30006BE6C80144960E9438286FE6C801489693
:103B40000E94382883E70E942428F80193A382A3C7
:103B500085E70E942428F80195A384A387E70E94A3
:103B60002428F80197A386A30F900F900F900F9031
:103B7000DF91CF911F910F91FF90EF90DF90CF9049
:103B8000BF90AF909F908F907F906F905F904F907D
:103B90003F902F900895CF92DF92EF920F93CF93A3
:103BA000DF93EC016B01E12C00E023E63CE043E60F
:103BB0005DE06CE170E080E090E00E94EE262FE591
:103BC0003AE041E65BE063E370E080E090E00E9471
:103BD000EE262DE439E045ED59E060E070E080E04C
:103BE00090E00E94EE2623E63CE043E65DE06BE3D6
:103BF00070E080E090E00E94EE262D8147EB56E0D9
:103C000060E070E080E190E00E94DE268B818436E7
:103C100058F40F81E02E21EB34E043EB55E06AE2EB
:103C200070E090E00E94EE26E12C00E023E63CE00C
:103C300043E65DE06CE170E088E690E00E94EE26ED
:103C400020E04FE454E066E270E088E690E00E94F5
:103C5000DE2623E63CE043E65DE06BE370E088E6C9
:103C600090E00E94EE268A8125E533E041ED53E0A5
:103C70006FE170E090E00E94EE268885882359F07D
:103C80008130B1F48A8190E0E12C00E023E433E05C
:103C90004AE353E008C08A8190E0E12C00E023E48D
:103CA00033E04CE453E06FE170E042960E94EE2670
:103CB0008E81882369F08A8190E0E12C00E02CEF6E
:103CC00032E04AE153E064E270E004970E94EE269D
:103CD000F6018289DF91CF910F91EF90DF90CF9025
:103CE0000C946D2CCF92EF920F931F93CF93DF9391
:103CF000FC016A3039F48581848396818185890F3E
:103D0000868348C084816E3719F48D5F848342C0F6
:103D1000262FEF0166816F5F2A3348F42033C0F409
:103D20002D32C1F02E3281F0213249F515C02B35EC
:103D300028F4213458F42F3341F121C09FE9920F28
:103D40009A31E8F4275409C02FE307C0215405C075
:103D50002C5F03C021E401C02EE33F81062E000C3E
:103D6000770B082E000C990B313089F44AEFC42EE2
:103D7000E12C00E010E042EF51E00E94AB24888586
:103D80008B5F9C81890F8C8305C020E4E6CF3BEFDD
:103D9000C32EEECF81E090E0DF91CF911F910F9184
:103DA000EF90CF9008950C946E330C946E330C9476
:103DB0006E330C946E330C946E330C946E33089502
:103DC000089508950895089508950C946E33089504
:103DD0004091E2015091E3012091E0013091E10135
:103DE00042175307B4F49091E8009570E1F3909175
:103DF000E80092FD19C08093F1008091E20190915A
:103E0000E30101968F739927892B19F48EEF809324
:103E1000E8008091E2019091E30101969093E30123
:103E20008093E20181E0089580E00895DF92EF92AF
:103E3000FF920F931F93CF93DF93D82E8A017B01BC
:103E4000E40EF51EEB01CE15DF0571F0D7FE03C0C1
:103E5000FE01849101C088810E94E81E2196811193
:103E6000F2CF8FEF9FEF01C0C801DF91CF911F917B
:103E70000F91FF90EF90DF900895615030F0209106
:103E8000F100FC0120830196F8CF289884E6809306
:103E9000EB010895CF92DF92EF92FF920F931F9361
:103EA000CF93DF936C017A018B01C0E0D0E0CE1597
:103EB000DF0581F0D8016D918D01D601ED91FC9166
:103EC0000190F081E02DC6010995892B11F0219612
:103ED000EECF7E01C701DF91CF911F910F91FF902F
:103EE000EF90DF90CF900895CF93DF931F92CDB7DF
:103EF000DEB76983DC01ED91FC910280F381E02D56
:103F000041E050E0BE016F5F7F4F09950F90DF9158
:103F1000CF91089583E08093E9008091F200882397
:103F200019F08AE38093E8000895FC018485958563
:103F300097FD0BC09FB7F89482E08093E9008091D1
:103F4000F2009FBF90E0019608959FB7F89482E039
:103F50008093E9008091F2009FBF90E008950F9355
:103F60001F93CF93DF931F92CDB7DEB782E0898393
:103F700042E450E065E67EE080E80E94161F0E9461
:103F8000EE2DDC0112960D911C9113970115110570
:103F900089F0D801ED91FC910280F381E02DBE0102
:103FA0006F5F7F4FC801099597FD04C0F801008538
:103FB0001185ECCF89810F90DF91CF911F910F91E7
:103FC00008950E94DD2D90E008950F931F93CF93E5
:103FD000DF931F92CDB7DEB78C01FC0184859585F8
:103FE00097FF0EC0CE0101960E94AF2D019719F4E4
:103FF000898190E002C08FEF9FEFF8019587848759
:10400000F801848595850F90DF91CF911F910F91D5
:104010000895CF93DF931F92CDB7DEB7FC0184855F
:10402000958597FD05C02FEF3FEF358724870BC09F
:10403000CE0101960E94AF2D019719F4898190E07D
:1040400002C08FEF9FEF0F90DF91CF9108951F92E5
:104050000F920FB60F9211248F939F938091E100DE
:104060009091E100937F9093E10083FF0FC0109245
:10407000E90091E09093EB001092EC0092E39093B2
:10408000ED001092EC0198E09093F00082FF20C0C8
:1040900093E09093E9009091F200992319F09AE34C
:1040A0009093E8009091E501992339F09091E50112
:1040B00091509093E501992389F19091EB01992317
:1040C00039F09091EB0191509093EB01992341F1DC
:1040D00084FF10C08091E2008E7E81608093E200B8
:1040E0008091E1008F7E8093E1008091DA018E7EE5
:1040F000806111C080FF16C08091E2008E7E8061D9
:104100008093E2008091E1008E7E8093E1008091B7
:10411000DA018E7E81608093DA0104C05D9ACDCF92
:10412000289AD6CF9F918F910F900FBE0F901F901E
:1041300018951F920F920FB60F921124CF92DF9213
:10414000EF92FF920F931F932F933F934F935F93A1
:104150006F937F938F939F93AF93BF93EF93FF934F
:10416000CF93DF93CDB7DEB76C97DEBFCDBF109294
:10417000E9008091E80083FFFBC168E0CE0145962D
:104180000E943D1F82EF8093E8008D8987FF05C064
:104190009091E80090FFFCCF03C09EEF9093E80061
:1041A000982F907609F0C6C09E894F89588D2F8927
:1041B000F88C91110CC0803829F48091DB01809338
:1041C000F10002C01092F1001092F10045C191304F
:1041D00051F4811141C14130510509F03DC1809137
:1041E000DB018D7F0BC0933061F4811135C141300B
:1041F000510509F031C18091DB0182608093DB01C0
:104200002BC1953049F48091E80080FFFCCF822FCC
:1042100080688093E30020C1963009F05EC00B8D6A
:104220001C8D22E01092E9001092E3011092E2014D
:10423000F21232C01092E1011092E0010E94AF1F11
:1042400099E0BE016F5F7F4FDB01E92F1D92EA9578
:10425000E9F79983FA8291E09E8390EA98879AEF32
:1042600099872091E2013091E301275F3F4F3C8322
:104270002B838D831092E9001092E3011092E201EA
:104280001093E1010093E00149E050E080E00E94DA
:10429000161F0E94AF1FE0C01093E1010093E001E0
:1042A0000E94EE2DDC0112960D911C9113970115C1
:1042B000110509F4BBC0D801ED91FC910480F58192
:1042C000E02DBE016B5E7F4FC8010995009709F094
:1042D000C7C0F80100851185EACF973009F445C1C0
:1042E000983021F481E08093F100B6C0993009F054
:1042F000B3C0837009F039C1E7E1F1E081E031E05A
:1043000096E32081211109C08EE78093EA00109284
:10431000EA008F898093EC019FC08093E90030937D
:10432000EB0021912093EC009093ED008F5F87309C
:1043300041F7EACF8B8D9C8D1092E9001092E3013A
:104340001092E2019093E1018093E001898D811147
:1043500053C08E899D89913A49F4813209F005C193
:1043600047E050E064E071E080E0BBC0913209F0CA
:10437000FCC0833269F48F89988DA0E0B0E080930F
:10438000000190930101A0930201B093030164C066
:10439000803269F48091E80082FFFCCF67E084E01E
:1043A00091E00E943D1F8BEF8093E80055C0823260
:1043B00009F052C08F8980930B01EEEFFFE78591E2
:1043C00094918B3F9C4D19F0E0E0F8E002C0EEEFD5
:1043D000FAE08091040190910501A0910601B0914D
:1043E0000701803B9440A105B10509F09EC0809172
:1043F0000B0180FF79C099C00E94EE2DFC01028163
:1044000013810115110509F4B0C0D801ED91FC919B
:104410000190F081E02DBE016B5E7F4FC8010995D0
:1044200081111AC0F80100851185EBCFF1E0FF166C
:1044300009F44EC0F3E0FF1298C08F89882309F475
:104440004AC0823089F440E860E189EC9EE00E9435
:104450005A30882309F489C08EEF8093E80088C021
:1044600018161906CCF381C0813029F440E86BE0BE
:104470008DEB9EE0ECCF833009F077C00E94EE2DEB
:10448000DC011296ED90FC9013978E010F5F1F4F89
:104490006801E114F10479F0D701ED91FC910680F7
:1044A000F781E02DB801C7010995080F111DF7012B
:1044B000E084F184EECFD8011C92F6010190002037
:1044C000E9F73197BF016C197D0940E0C601BFCF04
:1044D0006BEA7EE002C067EA7EE0FB01449150E0B7
:1044E00080E80E94161FB8CFEE3F2AE0F20751F095
:1044F000808191818737A7E79A0721F09093FF0A7F
:104500008093FE0A87E797E791838083809160001C
:104510008093E4019BE088E10FB6F894A89580931E
:1045200060000FBE9093600097CF808191818737A4
:10453000974709F091CFA89580916000886180939A
:1045400060008091E40180936000EE3FBAE0FB07D9
:1045500039F08091FE0A9091FF0A918380837CCF8D
:104560001092FF0A1092FE0A77CF81E28093EB004F
:104570006C960FB6F894DEBF0FBECDBFDF91CF9122
:10458000FF91EF91BF91AF919F918F917F916F912B
:104590005F914F913F912F911F910F91FF90EF905D
:1045A000DF90CF900F900FBE0F901F901895611560
:1045B000710579F0FB0101900020E9F73197AF0117
:1045C000461B570BDC01ED91FC910280F381E02D3D
:1045D000099480E090E008958F929F92AF92BF92ED
:1045E000EF92FF920F931F93CF93DF93CDB7DEB778
:1045F000A1970FB6F894DEBF0FBECDBF7C01FA01C4
:10460000CB0119A2223008F42AE08E010F5D1F4F62
:10461000822E912CA12CB12CBF01A50194010E94E6
:104620007132F901CA01015011096A3014F4605D58
:1046300001C0695CD8016C93232B242B252B61F7D7
:10464000B801C7010E94D722A1960FB6F894DEBF29
:104650000FBECDBFDF91CF911F910F91FF90EF90D3
:10466000BF90AF909F908F9008958F929F92AF923E
:10467000BF92CF92DF92EF92FF926B017C010E947A
:104680003C244B015C01C114D104E104F104F1F0BC
:104690000E943C24DC01CB0188199909AA09BB09B5
:1046A000883E9340A105B10570F321E0C21AD108FC
:1046B000E108F10888EE880E83E0981EA11CB11C69
:1046C000C114D104E104F10419F7DDCFFF90EF909C
:1046D000DF90CF90BF90AF909F908F9008958F9272
:1046E0009F92AF92BF92CF92DF92EF92FF920F9381
:1046F0001F93CF93DF936C017B018A0180910B01A3
:10470000882309F45CC08091EC01882309F457C028
:104710008091DA0180FF05C08091E0008260809383
:10472000E000E801B12C8AEFA82E93E0892E2AE35D
:10473000922E209711F4BB20D9F10E94DD2D81111A
:104740000AC0AA94AA20D9F161E070E080E090E06C
:104750000E943523EECF282F30E0C217D3070CF488
:104760008C2F9FB7F8948092E9002091E80025FFF4
:104770001DC0282F30E0C21BD30BF701815020F061
:1047800041914093F100FACFE20EF31EBB2019F0E5
:104790009092E8000AC08091E80085FD07C09092E1
:1047A000E800BB24B394209709F0B12C9FBFC1CF80
:1047B0005D9884E68093E5011016110644F081E0CF
:1047C00090E0F6019383828380E090E001C0C8010D
:1047D000DF91CF911F910F91FF90EF90DF90CF90DD
:1047E000BF90AF909F908F9008950895CF93DF93DF
:1047F000FC01EB01988589858095892394FF14C07D
:104800009485903118F49F5F94870FC0F89487E7E0
:104810008093000880930108A89588E18093600048
:1048200088E080936000FFCF148683FF02C082E09F
:104830008C8B8E819F816FE070E00E94BC32892B4F
:1048400039F485858F5F833011F0858701C0158627
:104850008E819F8160E570E00E94BC32892B21F43B
:10486000978581E0892787878685883C10F48F5F4C
:104870008687DF91CF9108953FB7F8948091E70143
:104880009091E801A091E901B091EA0126B5A89BB9
:1048900005C02F3F19F00196A11DB11D3FBFBA2FD2
:1048A000A92F982F8827820F911DA11DB11DBC0132
:1048B000CD0142E0660F771F881F991F4A95D1F7F7
:1048C00008951F920F920FB60F9211242F933F93CA
:1048D0008F939F93AF93BF938091DC019091DD0103
:1048E000A091DE01B091DF013091E60123E0230FBA
:1048F0002D3720F40196A11DB11D05C026E8230F18
:104900000296A11DB11D2093E6018093DC019093D6
:10491000DD01A093DE01B093DF018091E70190916A
:10492000E801A091E901B091EA010196A11DB11D34
:104930008093E7019093E801A093E901B093EA0125
:10494000BF91AF919F918F913F912F910F900FBE8B
:104950000F901F9018954F925F927F928F929F9227
:10496000AF92BF92CF92DF92EF92FF920F931F937D
:10497000CF93DF9300D000D0CDB7DEB7DC01480184
:104980004115510509F406C2FA01F490319684915B
:104990004E5F5F4FAF2CB12C211102C0EE2061F1B0
:1049A00001E010E0982F977011F400E010E0982FCC
:1049B000969596959695090F111D0A9DF0010B9DF0
:1049C000F00D1A9DF00D112413E0712EC71003C0D5
:1049D000EE0FFF1F0AC08114910439F0EE9E800192
:1049E000EF9E100D1124800E911E2E9F80012F9F8F
:1049F000100D1124400F511F1FEFC11208C0811468
:104A0000910419F0CC24C39402C022E0C22EFD010F
:104A1000EA0DFB1D1E161F060CF0BCC1A038B10527
:104A20000CF0B8C19B01280F311D121613060CF0B3
:104A3000B1C1603471050CF0ADC14115510509F4E7
:104A4000A9C1362F37708B0177FF02C0095F1F4F56
:104A500093E0159507959A95E1F7202F77FF04C00D
:104A6000332311F02FEF200FB7FF05C000271127C8
:104A70000A1B1B0B02C000E010E0E038F1051CF03F
:104A800090E89A1B01C09F2D901B622F022E000CF4
:104A9000770B2F3F1CF4E62EE09401C0E12CF1E0EF
:104AA000E82FE77009F4F0E0869586958695F80F73
:104AB0006F0F711D6930710514F0F8E0F21BFE19DB
:104AC0002E0D60E82603A00DB11D1124A00FB11F0B
:104AD000FE9C000D111D1124400F511F61E070E07C
:104AE0007B01032E02C0EE0CFF1C0A94E2F773E078
:104AF000C71609F407C17C15C8F081E0C81609F48F
:104B0000B9C0E2E0CE1246C18FEF8E9D80018F9D2D
:104B1000100D1124009510951C830B839C80BD0102
:104B200063517E4F2B018F2E820E2DC06AEF762EA1
:104B3000C71409F43BC01BEFC1122CC1BD01635166
:104B40007E4F4B01DF2ED20E83C084918E9D60017B
:104B50008F9DD00C1124DA82C98227FD05C0DB01AC
:104B60008C918023C82ACC92311113C031966F5F8B
:104B70007F4F8E2F841B891740F32F5F4A0D5B1DDB
:104B8000B0E84B0E511C281509F404C1B201FA011A
:104B9000F0CF27305CF76B01B0E8CB0ED11CD6010B
:104BA0008C9189217A8087298C93E0CFBD01635154
:104BB0007E4F4B01DF2ED20E2D1509F4EBC0B40150
:104BC000FA018E2F841B8917F0F484918E9D800149
:104BD0008F9D100D11241A83098327FD04C0DB016A
:104BE0008C91082B0C93332351F0273044F48B0124
:104BF00000581F4FD801CC908A818C298C93319614
:104C00006F5F7F4FDECF2F5F4A0D5B1DB0E88B0ECD
:104C1000911CD2CF84918E9DB0018F9D700D112477
:104C20007A83698327FD05C06095D8018C9168233C
:104C30006C93311113C031960F5F1F4F8E2F841B61
:104C4000891740F32F5F4A0D5B1DB0E88B0E911C56
:104C50002D1509F49FC08401FA01F0CF27305CF7CD
:104C6000B80160587F4F8A818095DB01CC908C2100
:104C70008C93E1CF080D191DA351BE4F7F2E720EEC
:104C8000271509F487C0BD01C12CD12CC91690F598
:104C9000F801EC0DFD1DE491EE9D4001EF9D900C9F
:104CA0001124809490949C828B82FA01EC0DFD1D5E
:104CB000E491EE9D2001EF9D500C11245A8249820F
:104CC00027FD05C0FB0180818822482840823323CC
:104CD00059F027304CF4FB01E058FF4F90808C8155
:104CE00089219A8089298083FFEFCF1ADF0A6F5FBD
:104CF0007F4FCCCF2F5F4A0D5B1D0A0D1B1DA058A7
:104D0000BF4FBECFC92ED12C2801440E551EA35132
:104D1000BE4F60E870E04B018C189D08AC18BD08D0
:104D2000AA0CBB1CC92E022F192F2F2FF201A40190
:104D3000B501732ECF93DF93ED01EF96EF96229698
:104D40008590A590772059F08E9C4001AE9C500133
:104D500007302CF4D880B094DB20D928D9920023D6
:104D60003AF0DC90A094DA20D828DD920C94B92691
:104D700011961A9529F72A9551F01C2D03951124A7
:104D8000E60FF11DA40FB11DC40FD11DD9CFDF91C6
:104D9000CF9111240F900F900F900F90DF91CF9132
:104DA0001F910F91FF90EF90DF90CF90BF90AF9049
:104DB0009F908F907F905F904F900895CF92EF9249
:104DC0000F931F9332E0C32EE12C00E010E00E940D
:104DD000AB241F910F91EF90CF900895CF92EF9257
:104DE0000F931F93F901202FCC24C3948F010E94AD
:104DF000AB241F910F91EF90CF900895CF92EF9237
:104E0000FF920F931F93CF93DF93EC01EAECF4E151
:104E10008491EBECF4E1E491282F30E02115310589
:104E2000B9F1EE23A9F12038310514F4682F01C03F
:104E300060E821E09E2F977009F420E0E695E69562
:104E4000E6952E0F293008F028E0861B9DEEE92E0E
:104E500091E0F92E30E04CEC54E190E0860F911D8A
:104E60002317B1F08701FA017E2F741B761748F4DF
:104E7000749137FD02C0D8017C9331960F5F1F4FAC
:104E8000F3CF480F591F3F5FB0E8EB0EF11CE8CF9E
:104E90008AEFC82EE12C00E010E02D854DE95FE09F
:104EA00061E070E081E290E00E94AB248E85883C56
:104EB00051F42BEE3EE043E45FE064E370E08BE20C
:104EC00090E00E94EE268F85882349F020E04AED8D
:104ED0005EE060E170E082E190E00E94DE26DF911A
:104EE000CF911F910F91FF90EF90CF900C94DF2BFB
:104EF000BC0180E090E00C9435238FB18095807FD9
:104F0000669B88601C9B846008951F93CF93DF93FA
:104F1000EC01162F0E942932181739F0612FCE01AB
:104F2000DF91CF911F910C943132DF91CF911F917E
:104F300008951F93CF93DF93DC0120E030E040E041
:104F400050E011E0C1E0D0E02617370791F1149648
:104F50008C911497811115C014961C931497129676
:104F60008D919C911397ED91FC911197E80FF91F8A
:104F7000E4911596EC931597019613969C938E9356
:104F8000129714969C91149715968C9115978923D6
:104F900049F0FE01022E02C0EE0FFF1F0A94E2F755
:104FA0004E2B5F2B990F14969C9314972F5F3F4FB6
:104FB000CBCFCA01DF91CF911F9108958038910521
:104FC000B8F460347105A0F490E121E061FD24E0C3
:104FD00060FD220F62FD2295687F969FD00111240B
:104FE000A80FA351BE4F8C91822B40FF82278C9338
:104FF0000895AF92BF92DF92EF92FF920F931F93AB
:10500000CF93DF93EC017B018B015C0182E0A80E62
:10501000B11CF801D1908F01CE010E942932D8161F
:1050200021F06D2DCE010E9431322196CA15DB058B
:1050300081F7C701DF91CF911F910F91FF90EF9002
:10504000DF90BF90AF900895CF93DF9300D0CDB79E
:10505000DEB71A821982BE016F5F7F4F90E00E9417
:10506000592C89819A810F900F90DF91CF910895EB
:10507000AF92BF92CF92DF92EF92FF920F931F9366
:10508000CF93DF9300D000D0CDB7DEB76C015E01C7
:1050900084E0A80EB11C8E010F5F1F4FE62EF12C8D
:1050A000E01AF10AC701800F911F0E942932F8010E
:1050B00081938F01EA15FB05A9F71C8289819A81EA
:1050C000AB81BC81F60180839183A283B3830F906F
:1050D0000F900F900F90DF91CF911F910F91FF9044
:1050E000EF90DF90CF90BF90AF9008950F931F93F4
:1050F000CF93DF9300D0CDB7DEB7082F85E690E0E1
:105100000E942932182F86E690E00E942932011170
:1051100005C0163419F4803509F459C066E485E6F3
:1051200090E00E94852760E586E690E00E94852752
:1051300007E610E060E0C8010E9485270F5F1F4F5F
:105140000A371105B9F761E487E690E00E948527E8
:1051500062E48BE690E00E94852763E48FE690E0AE
:105160000E94852761E488E690E00E94852762E43A
:105170008CE690E00E94852763E480E790E00E943F
:10518000852761E489E690E00E94852762E48DE648
:1051900090E00E94852763E481E790E00E948527E4
:1051A0001A821982BE016F5F7F4F83E790E00E94F1
:1051B000F927BE016F5F7F4F85E790E00E94F927D6
:1051C000BE016F5F7F4F87E790E00E94F9270F9045
:1051D0000F90DF91CF911F910F9108950895FC01D9
:1051E000DB0119968C911997809518969C911897C8
:1051F000892399F08281882311F08CE78283928140
:1052000091110EC081E0828380E48093900081E45C
:105210009FE0909399008093980092819923B1F038
:105220009F5F9283953059F09D3761F0923071F411
:1052300080E596E4909399008093980008951092E9
:105240009000089581E054968C93089508950F93EB
:105250001F93CF93DF93EC0143EC5DE261E170E0DB
:105260008FE290E00E94862C4EE95DE26AE170E0F8
:105270008BE290E00E94862C4EE95DE26AE170E0EC
:1052800089E490E00E94862C8A81811111C04EE948
:105290005DE26AE170E08AE390E00E94862C45E5D9
:1052A0005DE26EE270E08AE190E00E94862C24C00C
:1052B00048E35DE26AE170E08AE390E00E94862CB8
:1052C00045E15DE26EE270E08CE290E00E94862CA7
:1052D0008A816FE00E94A232082F0370CFE4D0E0F1
:1052E00010E0101749F041E061E370E0CE010E9448
:1052F000DE271F5F2296F5CFDF91CF911F910F918F
:105300000C94DF2B4F925F926F927F928F929F92BD
:10531000AF92BF92CF92DF92EF920F931F93CF93F2
:10532000DF93CDB7DEB762970FB6F894DEBF0FBE3E
:10533000CDBF5C014B01E12C00E023E13BE243E106
:105340005CE26CE170E080E090E00E94EE262FE0ED
:1053500039E241E15AE263E370E080E090E00E94CC
:10536000EE262DEF37E245E858E260E070E080E09D
:1053700090E00E94EE26D40152968C9181110EC0CD
:105380003BEFC32E00E010E020E04DEA57E260E082
:1053900070E089E590E00E94AB240CC0E12C00E0B5
:1053A0002FE537E24DEA57E260E070E089E590E0F2
:1053B0000E94EE26F501E65BFF4F208149EC54E2A6
:1053C00060E070E080E190E00E94DE26F4018089D8
:1053D00091898130910529F008F43FC0029771F05E
:1053E00026C0F501EE5BFF4F8281882309F4D4C10A
:1053F00039968081833008F0CFC12FC0E12C00E0C6
:1054000023E934E24DEA54E261E070E08CE490E09C
:105410000E94EE26F501EE5BFF4F8281882309F49E
:10542000C6C139968081833008F0C1C116C0E12C15
:1054300000E023E934E24DEA54E261E070E08CE4FC
:1054400090E00E94EE2623E934E24DEA54E261E066
:1054500070E08FE390E00E94EE26FE013D9686E02C
:10546000DF011D928A95E9F7D4011E968C911E9753
:105470001F969C913F019E012D5E3F4F0AE010E078
:10548000B8010E94BC328193CB01E217F307C1F748
:105490002EE5422E512CF4018289811109C09BEF27
:1054A000C92EE12C00E010E0D30115962C9107C025
:1054B0008AEFC82EE12C00E010E0F301258149E6D7
:1054C00054E263E070E0C2010E94AB24F1E06F1A85
:1054D000710825E0420E511C3CE743165104D9F6F1
:1054E00035018EE3680E711CD30112968C9166E033
:1054F0000E94A232082FF50186ADE02E23E632E2AB
:1055000045E653E26AE270E090E00E94EE26E12C6C
:1055100000E023E13BE243E15CE26BE370E080E02A
:1055200090E00E94EE266501F2E0CF0ED11C13E060
:10553000C614D70409F440C0D60114968C91149770
:105540008823B1F115968C911597811103C013969C
:105550000C9101C004E0F601618170E08081E02ED1
:1055600021E630E241E651E290E00E94EE26D601CB
:1055700015968C918230E0F086958695612F0E9479
:10558000A232092F000FF4018289813009F40F5FE4
:10559000D60111966C91119770E0655071098C914C
:1055A000E92E23EF3FE147E150E290E00E94EE2632
:1055B000B6E0CB0ED11CBCCF8CE0EDE1F1E0DE011A
:1055C000119601900D928A95E1F73501ECE46E0E8B
:1055D000711CD3018C91882309F441C06501BEE49C
:1055E000CB0ED11CF6018081F4E08F9FC001112405
:1055F000FE01E80FF91F6281062E000C770BE1E037
:10560000F0E0EC0FFD1FE80FF91F8081E12C00E0B6
:1056100021EB3FE141ED5FE1082E000C990B0E9468
:10562000EE26D3018C9180FD1AC0F6018081F4E052
:105630008F9FC0011124FE01E80FF91F6481062E1F
:10564000000C770BFE01E80FF91F83812DE83FE185
:105650004EE95FE1082E000C990B0E94EE26F50141
:10566000EE5BFF4F82819501255B3F4F69018823E7
:10567000D9F0858187FD18C0D9019C919430A0F4A0
:10568000859566E00E94AE32943009F093C092E0B6
:10569000618170E08081E92E092F2BED3DE143EB24
:1056A0005EE190E00E94EE26E12C00E021EE3CE17C
:1056B0004DE55DE16FE170E080E690E00E94EE264E
:1056C000F501E85BFF4F8081882349F0813099F430
:1056D000E12C00E02FEC3CE146EC5CE106C0E12C63
:1056E00000E02FEC3CE148ED5CE16FE170E082E727
:1056F00090E00E94EE26F601E080EE2011F1D40148
:1057000050962D913C91519723303105D0F4EA9475
:1057100001E052968C91813009F000E08E2D880FC7
:10572000080F2130310519F08EE390E002C08BE4C0
:1057300090E02EE43AE140E25BE161E070E00E943B
:10574000EE26F501E15BFF4F8081882361F0E12CBB
:1057500000E02CEC38E14CE859E164E170E080E2D3
:1057600090E00E94EE26F401828962960FB6F894CA
:10577000DEBF0FBECDBFDF91CF911F910F91EF9094
:10578000DF90CF90BF90AF909F908F907F906F9061
:105790005F904F900C946D2CE12C00E023E934E2F3
:1057A0004DEA54E261E070E08CE490E054CEE12CEC
:1057B00000E049CE953009F06BCF91E069CFEDEE76
:1057C000F1E081E0A0E0B8E000800EBC8111012C86
:1057D0001197A0FDFDCF0192B9F70DB408952F9256
:1057E0003F924F925F926F927F928F929F92AF9271
:1057F000BF92CF92DF92EF92FF920F931F93CF93BE
:10580000DF9300D000D000D0CDB7DEB78C017B0194
:10581000242E6E0187E0C80ED11C260187E4382EA5
:10582000FE0131965F0166247724661A770A4801E3
:10583000F2E08F0E911CF50186E011928A95E9F74E
:10584000C701F7FCC301F5016AE070E00E94BC32B9
:105850008193CB01CE16DF06B9F7F8013782368285
:105860002086F20142912F0150E060E070E02AE0D2
:10587000C4010E94EC22F5E03F0E85E63812DBCF32
:1058800026960FB6F894DEBF0FBECDBFDF91CF9145
:105890001F910F91FF90EF90DF90CF90BF90AF904E
:1058A0009F908F907F906F905F904F903F902F9040
:1058B00008950F931F93CF93DF938C01EB010E9408
:1058C00029328883C80101960E9429328983CE013A
:1058D000DF91CF911F910F9108959091ED019EBDA1
:1058E00091E0811190E091959093ED01EEEEF1E061
:1058F000808191930DB407FEFDCF8EBD85E0ED3E16
:10590000F807B1F70DB407FEFDCF08952F923F922F
:105910004F925F926F927F928F929F92AF92BF92BF
:10592000CF92DF92EF92FF920F931F93CF93DF936B
:10593000CDB7DEB72B970FB6F894DEBF0FBECDBF45
:105940005C017B015A8349831C821B821D821E825B
:1059500068E070E0CE0101960E9499270196998730
:10596000888768E070E0CE0101960E9499278C013B
:1059700061E070E0CE0101960E9499272885398563
:105980002A0D3B1D37FDD2C020E8A216B1040CF051
:10599000CDC098012F5F3F4FA9014E0D5F1D57FDF0
:1059A000C5C060E4E616F1040CF0C0C08701F7FE44
:1059B00004C0002711270E191F0907701127A7011E
:1059C000F7FE02C0495F5F4F1A0153E035942794F8
:1059D0005A95E1F7F7FE09C071E0271A310848E04F
:1059E00050E0BA01601B710B8B01390137FF03C016
:1059F00077E0670E711C43E0759467944A95E1F770
:105A000027703327232B19F09FEF691A790A8F83A8
:105A100044244394512CE12CF12CC12CD12C88E04E
:105A200090E09C01201B310B3B872A87C614D704CA
:105A30000CF07CC088248394912C61E070E0CE014E
:105A400001960E949927892B21F432E0830E911C44
:105A5000F4CFB401CE0101960E949927DC01119682
:105A600040E050E06F814A175B0708F057C06111B2
:105A70005428440C09F04FC091012C0D3D1DC90163
:105A800001960997A0F5C5018E0D9F1D80389105DF
:105A900070F5B9017695762F6627779567956A0D2B
:105AA0007B1D6E0D7F1D2F3F8FEF3807D9F1FB0156
:105AB000E351FE4F852D002E01C0880F0A94EAF7AE
:105AC0009081892B80830115110589F027303105DC
:105AD00071F0FB01E359FD4F852D90E00A8402C06F
