:100000000C9474150C949C150C949C150C949C15D4
:100010000C949C150C949C150C949C150C949C159C
:100020000C949C150C949C150C949C150C949C158C
:100030000C949C150C949C150C949C150C949C157C
:100040000C949C150C949C150C949C150C949C156C
:100050000C949C150C949C150C949C150C942628BF
:100060000C949C150C949C150C949C150C949C154C
:100070000C949C150C949C150C949C150C949C153C
:100080000C949C150C949C150C949C150C949C152C
:100090000C949C150C949C150C949C150C949C151C
:1000A0000C949C150C949C150C949C1544335B3358
:1000B0009D339D337E33E833C9330E18FEFEFCF9C1
:1000C000F7FBF93143677FFFFFFFFFFFFFFFFFFFF4
:1000D000FFFFDFCE80303F7FFFFFFFFFFFFFFFBF4F
:1000E000BF97C7F3F8FC01010306080406CEBC98CD
:1000F00080000000000000000000000020317FCFE1
:10010000C08000000000000000404068380C070379
:100110002A183F9FDFC3B1F9F9F3C7F1FCFEFCF1E8
:10012000C7F3F9F9F3C7F7FBFBE78FBF0F67E68E5D
:100130003C3977FBF93143677FFFFFFFFEFFFFFF8D
:10014000FFFFFFFFFFFFFFFFFFFFFFFFFFFFFFFFBF
:10015000FFFFFFFFFFFFFFFEFFF773680C9FFFFF2E
:10016000DFCE80303F7FFFFFFFFFFFFFFFFFFFFF7E
:10017000FFFFFFFFFFFFFFFFFFFFFFFFFFFFFFFF8F
:10018000FFBFBF97CFEFE6E0F1BFBF97C7F3F8FC23
:10019000C060203C4E06060C380E0301030E380CDE
:1001A00006060C38080404187040F0981971C3C68C
:1001B000880406CEBC98800000000100000000000A
:1001C000000000000000000000000000000000002F
:1001D00000000000000100088C97F360000020314F
:1001E0007FCFC08000000000000000000000000081
:1001F00000000000000000000000000000000040BF
:1002000040683010191F0E404068380C070323184F
:100210003F9FDFC3B1F9F9F347717CFEFC7147736F
:1002200079F9F3C7F7FBFBE78FBF0F67E78F3F3F16
:100230007FFFFFFEFFF3F9F9F3F9FCFEFEFEFCFE83
:10024000FEFFFFFEFCF9FDFCFCF8C1D39F1F3EFF43
:10025000F773680C9FFFFFFFFFFFFFFFFFFFFFFF2C
:10026000FFFFFFFFFFFFFFFFFFBF7F7F3FBB93C588
:10027000FCBEBF97CFEFE6E0F1C060203C4E060623
:100280000CB88E8301038EB88C86060C38080404E3
:10029000187040F0981870C0C080000001000C0673
:1002A000060C06030101010301010000010306021F
:1002B0000303073E2C60E0C100088C97F360000048
:1002C000000000000000000000000000000000002E
:1002D0000000408080C0446C3A03414068301019EF
:1002E0001F0E1E18FFFFFFFFE77373E77399CCEC37
:1002F000CC19EDF4F6660CB9B33B3979F183A73F1D
:100300003F7FBFBF9FA7B09ECFE69C3F7F3F9F7FB1
:10031000FFFFFF7E3F8FEF67F0F87F77278BF8FCBA
:10032000FFFF3F7FFFFF7FFFFFFF3F7FFFFF7EFE5F
:10033000FEFF3F7FFFFF7EFEFEFF3F7FFFFF0000CF
:100340000000188C8C188C66331333E6120B099955
:10035000F3464CC4C6860E7C58C0C08040406058EE
:100360004F61301963C080C0608000000081C070A0
:1003700010980F078088D874070300E02040808021
:10038000008000E020408080018101E020408080EA
:10039000018101E0204080801810FFFFFFFF1FCF88
:1003A000EFDF8FF3F9FDF9E3FDFEFECCE1F7F7E7B0
:1003B000070FF7F7F3F4F6F3F9FCF3E7EFE7F3EFE2
:1003C000DFDFDFEFE7F1FDFCFEFF00000000E030C3
:1003D0001020700C0602061C020101331E080818CA
:1003E000F8F008080C0B090C06030C1810180C1078
:1003F00020202010180E02030100D5F08D14A1C892
:1004000081CFD9F1AF200004083E09093E3F2525E0
:100410001A1E2121123F21211E3F2525213F0505BE
:10042000011E21293A3F04043F213F2100102121D0
:100430001F3F040A313F2020203F02023F3F0204B9
:100440003F1E21211E3F0909061E21112E3F0909C9
:100450003622252519013F01011F20201F0F1020E2
:100460001F3F10103F3B04043B03043807312D238A
:1004700021102A2A3C3F2424181C22221418242448
:100480003F1C2A2A2C043E05014C52523E3F0404D4
:1004900038243D20004040443D3F081422213F20A5
:1004A000003E04043E3E04023C1C22221C7E22220A
:1004B0001C1C22227E3E040204242A2A12021F222D
:1004C000201E20201E0E10201E3E10103E36080852
:1004D000364E50503E322A26221E29251E223F200B
:1004E00000322929261221251A0C0A3F0817252532
:1004F000191E252518013905031A25251A0629294B
:100500001E002F0000002000000229050200040444
:100510000004087EFF817E82FEFF80C6A19FCE661A
:1005200089FF7638ACFFB06F89F9707EFF857883DC
:10053000F1FD83768D99761EBFA17E00FCFEFFFF44
:10054000FFFFFFFFFFFFFFFFFFFFFFFFFFFFFFFFBB
:10055000FFFFFFFFFFFFFFFFFFFFFFFFFFFFFFFEAC
:10056000FC00103F7FFFFFFFFFFFFFFFFFFFFFFFCC
:10057000FFFFFFFFFFFFFFFFFFFFFFFFFFFFFFFF8B
:10058000FFFFFFFFFFFF7F3F10271000FC0201016C
:10059000010101010101010101010101010101014B
:1005A000010101010101010101010101010101023A
:1005B000FC00102F50A0A0A0A0A0A0A0A0A0A0A0D0
:1005C000A0A0A0A0A0A0A0A0A0A0A0A0A0A0A0A02B
:1005D000A0A0A0A0A0A0502F10FC02FDFEFEFEFED9
:1005E000FEFEFEFEFEFEFEFEFEFEFEFEFEFEFEFE2B
:1005F000FEFEFEFEFEFEFEFEFEFEFEFEFEFD02FC1A
:100600002F50AF5F5F5F5F5F5F5F5F5F5F5F5F5FE9
:100610005F5F5F5F5F5F5F5F5F5F5F5F5F5F5F5FEA
:100620005F5F5F5FAF502F008080C0C0C0FFFFFFE3
:10063000FFFFFFFFFFFFFFFFFFFFFFFFFFFFFFFFCA
:10064000FFFFFFFFFFFFFFFFFF80C1C3C3E3E3FF27
:10065000FFFFFFFFFFFFFFFFFFFF7FFFFFFFFFFF2A
:10066000FFFFFFFFFFFFFFFFFFFFFFC0E0E1E1E152
:10067000E1FFFFFFFFFFFFFFFFFFFFFF3F7F7F7FE8
:10068000FFFFFFFFFFFFFFFFFFFFFFFFFF00000077
:10069000000000FFFFFFFFFFFFFFFFFFFFFF000065
:1006A000000000000F1F3F7FFFFFFFFFFFFFFF1154
:1006B00040008080404040BF8040DFDF10D7EAEA42
:1006C0006D75FF00F6F77B787B7A393D3D3E3E3E07
:1006D0001E1F1F80414242A222BEA2A2BE9E10D671
:1006E000D4D5E8EA7F803B3B3B383B393D3D3D3C40
:1006F0003D3D3D3D3DC020A1A1A121BFA1A1BCBE6A
:1007000020AEA8AAA8AA3F405D5DBDBC3B3A3A7B9B
:100710007B78F7F7F7F7F7000000000000FF010112
:10072000FAF4FAF4F8F4E8F10000000000000F1009
:1007300020478F3F7FFFFFFFFFFFFFFFFFFFFFFF10
:10074000FFFFFFFFC0C0C0808000FFFFFFFFFFFF73
:10075000FFFFFFFFFFFFFFFFFFFFFFFFFFFFFFFFA9
:10076000FFFFFFFFFFFFE3E3C7C7C381FFFFFFFFFB
:10077000FFFFFFFFFFFFFFFFFFFFFFFF7FFFFFFF09
:10078000FFFFFFFFFFFFFFFFE1E1E1E1E0C0FFFF4F
:10079000FFFFFFFFFFFFFFFFFFFFFFFFFF7F3FFFA9
:1007A000FFFFFFFFFFFFFFFFFFFF01010000000051
:1007B000FFFFFFFFFFFFFF7F3F1F0700000000005C
:1007C000001140756DEAEAD710DFDF4080BF40407E
:1007D000408080001F1F1E3E3E3E3D3D397A7B78A3
:1007E0007BF7F600FFEAE8D5D4D6109EBEA2A2BEE3
:1007F00022A2444442813D3D3D3D3D3C3D3D3D398D
:100800003B383B3B3B807FAAA8AAA8AE20BEBCA138
:10081000A1BF21A1A1A120C0F7F7F7F7F7787B7B53
:100820003A3A3B3C3D9D9D403FF1E8F4F8F4FAF440
:10083000FA0101FF010100000000FFFFFFFF7F3F01
:100840008F472010070000000000009803E2020E0E
:10085000021001BA00800DFFFFFFFFFFFFFFFFFF47
:10086000FFFFFFFFFFFFFFFFFFFFFFFFFFFFFFFF98
:10087000FFFFFFFFFFFFFFFFFFFFFFFFFFFFFFFF88
:10088000FFFFFFFFFFFFFFFFFFFFFFFFFFFFFFFF78
:10089000FFFFFFFFFFFFFFFFFFFFFFFFFFFFFFFF68
:1008A000FFFFFFFFFFFFFFFFFFFFFFFFFFFFFFFF58
:1008B000FFFFFFFFFFFFFFFFFFFFFFFFFFFFFFFF48
:1008C000FFFFFFFFFFFFFFFFFFFFFFFFFFFFFFFF38
:1008D000FFFFFFFFFFFFFF1F1F1F1F1F1F1F1F1F08
:1008E0001F1F1F1F1F1F1F1F1F1F1F1F1F1F1F1F18
:1008F0001F1F1F1F1F1F1F1F1F1F1F1F1F1F1F1F08
:100900001F1F1F1F1F1F1F1F1F1F1F1F1F1F1F1FF7
:100910001F1F1F1F1F1F1F1F1F1F1F1F1F1F1F1FE7
:100920001F1F1F1F1F1F1F1F1F1F1F1F1F1F1F1FD7
:100930001F1F1F1F1F1F1F1F1F1F1F1F1F1F1F1FC7
:100940001F1F1F1F1F1F1F1F1F1F1F1F1F1F1F1FB7
:100950001F1F1F1F1F1F1F800DFEBEBEBEBEBEBEBF
:10096000BABABA3A3ABABA9A8AAAA2B2B2BAB8B873
:10097000BABABEBEBEBEBEBEBEBEBEBEBEBEBEBE9F
:10098000BEBEBEBEBABABABA3A1A8AA2B0B8BABA2B
:10099000BEBEBEBEBEBEBEBEBEBEBEBEBEBEBEBE77
:1009A000BEBEBEBEBEBEBEBABAB8A0021ABABABAFF
:1009B000BABABEBEBEBEBEBEBEBEBEBEBEBEBEBE5F
:1009C000BEBEBEBEBEBEBABABABAB8B8B8B0A282CF
:1009D0000A1A3ABABABABABABA1F1F0717131B19BA
:1009E0001D1C1E1F1F1F1F1F1F1F1F1F1F1F1F1F1D
:1009F0001F1F1F1F1F1F1F1F1F1F1F1F1F1F1F1F07
:100A00001F1F1F1F1F07111C1E1F1F1F1F1F1F1F20
:100A10001F1F1F1F1F1F1F1F1F1F1F1F1F1F1F1FE6
:100A20001F1F1F1F1F1F1F1F1F1F1F1F1C10030F14
:100A30001F1F1F1F1F1F1F1F1F1F1F1F1F1F1F1FC6
:100A40001F1F1F1F1F1F1F1F1F1F1F1F1F1F1F1FB6
:100A50001F1E181001030F1F1FF8FFFFFEFCFCFCF8
:100A6000FC0303030303030303080A2807092214F2
:100A70002408040101020101010101F0F8FCFEFF5C
:100A8000FFFFFF0707FFFFFFFFFFFFFFFF00000162
:100A90000307070707070700000A13F008F412B559
:100AA00035E5050101FF00EF08288CEF000000018B
:100AB0000205050505010000003C3E3F3F3F3E3C6E
:100AC00007063C023D0105023C3C0205013D023C9B
:100AD0000000000080C0E0E0E0E0E0E0E0E0E0E016
:100AE000E0E0FCFEFFFFFFFEFCC080000000000015
:100AF00000FEFFFFFFFFFFFFFFFFFFFFFFFFFFFF06
:100B0000FFFFFFFFFFFFFFFFFFFFFFFCF8000000FC
:100B1000FFFFFFFFFFFFFFFFFFFFFFFFFFFFFFFFE5
:100B2000FFFFFFFFFFFFFFFFFFFFFFFF00060F0FAD
:100B30001F1F1F3F7F7F7F7F3F1F1F1F1F1F1F1F05
:100B40001F3F7F7F7F7F3F1F1F1F0F071F1F00005B
:100B500000008040A0A0A0A0A0A0A0A0A0A0A0A055
:100B6000BC828581BD823C4080000000000000FE08
:100B700001FC85FD01FF03FDBDDDEDBD9D85FD0390
:100B8000FF0305BDDDAD3C380304F8000000FF00A5
:100B900082B24ABBBBBBBA7AFACACE8686CECBFB40
:100BA0007BBABABAB26AE2EA00FF0006090A161175
:100BB0001623414C4441231611131313131116230A
:100BC000414C4441231611170807F8FCFEFFFFFFB4
:100BD000FFFFFFFFFFFFFFFFFFFFFFFFFFFFFFFF25
:100BE000FFFFFFFFFFFFFFFFFFFFFFFFFFFFFFFF15
:100BF000FFFFFFFFFFFFFFFFFFFEFCF8FFFFFFFF10
:100C0000FFFFFFFFFFFFFFFFFFFFFFFFFFFFFFFFF4
:100C1000FFFFFFFFFFFFFFFFFFFFFFFFFFFFFFFFE4
:100C2000FFFFFFFFFFFFFFFFFFFFFFFFFFFF070FBC
:100C30001F3F3F3F3F3F3F3F3F3F3F3F3F3F3F3FE4
:100C40003F3F3F3F3F3F3F3F3F3F3F3F3F3F3F3FB4
:100C50003F3F3F3F3F3F3F3F3F3F3F3F3F1F0F072C
:100C6000321600F804F20A0A0A0A0A0A4ACACA4AEA
:100C7000CA8A0A4ACACA0A0ACACA0ACACA0A8ACA94
:100C80004ACA8A0A4ACACA4ACA0A0A0A0A0A0A0A84
:100C9000F204F80000FF00FF00000000000080FFE9
:100CA000FF880F0380FE27FFF8803FFF80FF3F0093
:100CB00043C78EFC780080FFFF84CE000000000058
:100CC0000000FF00FF00000708131414141414148C
:100CD00014141414141414141414141414141414D4
:100CE00014141414141414141414141414141414C4
:100CF0001414141413080700F8FCFEFFFFFFFFFF95
:100D0000FFFFFFFFFFFFFFFFFFFFFFFFFFFFFFFFF3
:100D1000FFFFFFFFFFFFFFFFFFFFFFFFFFFFFFFFE3
:100D2000FFFFFFFFFFFFFFFFFFFFFFFFFFFFFFFFD3
:100D3000FFFFFFFFFFFEFCF8FFFFFFFFFFFFFFFFCE
:100D4000FFFFFFFFFFFFFFFFFFFFFFFFFFFFFFFFB3
:100D5000FFFFFFFFFFFFFFFFFFFFFFFFFFFFFFFFA3
:100D6000FFFFFFFFFFFFFFFFFFFFFFFFFFFFFFFF93
:100D7000FFFFFFFFFFFFFFFF070F1F3F3F3F3F3F0B
:100D80003F3F3F3F3F3F3F3F3F3F3F3F3F3F3F3F73
:100D90003F3F3F3F3F3F3F3F3F3F3F3F3F3F3F3F63
:100DA0003F3F3F3F3F3F3F3F3F3F3F3F3F3F3F3F53
:100DB0003F3F3F3F3F1F0F07401600F804F20A0A6B
:100DC0000ACA4ACACA0A0A4ACACA0A0A4ACACA0A83
:100DD000CACA4A4ACACA4ACA0A0A0A0A0ACA4ACA33
:100DE0000A4ACACA0ACA4A4ACACA4ACA0A4ACACA23
:100DF0004ACA8A0A0A0AF204F80000FF00FF00004B
:100E00003FFF807CFD0480FE27FFF88080FF1F0EDF
:100E1000FFFF8080FFFF84CE000000003FFF80FFC7
:100E20003F0003FFFC070080FFFF84CE0080FFFF30
:100E300008FFF3800000FF00FF00000708131414F0
:100E40001414141414141414141414141414141462
:100E50001414141414141414141414141414141452
:100E60001414141414141414141414141414141442
:100E7000141414141414130807000000000000C018
:100E8000E0F0F0E0C0000000000000000000000101
:100E9000030301000000000000000080E0F0F8F80B
:100EA000F8F0E0C0000000000000010307070F0F8A
:100EB000070301000000C0E0F8FCFEFEFFFFFFFF9B
:100EC000FEFEFCF8F003070F1F1F3F7F7F7F7F3F71
:100ED0001F0F03010080D8FCFE7E3F1E0C9C3E7F4E
:100EE0003F9E0C03070F1F1F0F0E1E3F7F3F1E0D5F
:100EF0000301000C9EBF3F1E0400040E1F3F3F1E57
:100F00000C060F1F3F1F0E0400081C3E7F3F1E0CE7
:100F10000002070F060000000000070F1F1E1C0E36
:100F20001E3E3C380000000010387C3810000207DC
:100F300002000000000000000002070E04081C3838
:100F40001000000000000000002070200F0F0000C3
:100F5000000000C020D0D020C00000000000000031
:100F6000000000010202010000000000000000007B
:100F70000000C02020C000000000000000000000B1
:100F800000000101000000000000000000806090EF
:100F9000E8E8C8D020C000000000000001020505FC
:100FA0000B0B050201000000000000008060101023
:100FB0003020C00000000000000000010202040414
:100FC000020100000000C020D8E4DAFAFDFDFDF5C2
:100FD000FAFAF408F003040B17172B5F5F5F5E2D1E
:100FE000130D020100C0201824040202020A0404A6
:100FF00008F00000030408081420202021120C022D
:10100000010000805864DA5A2D120C942A5D2D924A
:101010000C03040B1716090E122D5E2D120D020182
:10102000000080982424120C00081422120C0000E6
:101030000304080906000C1221120C000100000C28
:1010400092AD251A0400040A152D2D120C0609165E
:101050002E150A040008142A5D2D120C00000C1233
:101060001A04000000040A12120C00000609110AFA
:1010700004000000081422120C00000205090600FA
:1010800000000000060915120C0C122A243800007A
:1010900000001028542810000002070F060000006E
:1010A0000000060F1F1E0C0C1E3E3C380000000006
:1010B00010387C381000020502000000000000001B
:1010C0000002070E04081C38100000000000000099
:1010D000002070200002000000000000000000005E
:1010E00002040000081000000000000000000000E2
:1010F00020000F0F0F03040006000707070707076C
:10110000070707070707070707070707070707076F
:1011100007070707071B0600020002000200020083
:1011200002000200020002000200020002000200AF
:10113000020000000000000000000000000000FCB1
:10114000FEFFFFFFFFFFFFFFFFFFFEFCF8E0C00018
:1011500080F8FCFEFFFFFFFFFFFFFFFFFFFFFFFF29
:10116000FFFFFFFFFFFFFFFFFFFFFFFFFF800707FE
:101170000F0F0F1F3F3F3F3F1F0F0F0F0F0F0F0F9F
:101180000F1F3F3F3F3F1F0F0F0F07030080C0C0DF
:10119000C0C0E0F0E0E0C0C0C0C0C0C0C0C0C0C0BF
:1011A0008000000000000000000000F8FDFFFFFFCD
:1011B000FFFFFFFFFFFFFFFFFFFFFFFFFFFFFFFF3F
:1011C000FEFEFEFCF8F0E0800003070F0F1F3F3F1C
:1011D0003F3F1F0F0F0F0F0F0F0F0F0F1F3F3F3F0F
:1011E0003F1F0F0F07031E18000000000000000043
:1011F0000000000000FC022501FDFD1DED2D2D2944
:10120000A2C41820C000807804D255B5D55555D554
:10121000B575F5F5F0F7F0FF7FB8D75456D7B5712F
:10122000F0807F8007040B080B1120262220110B71
:101230000809090909080B1120262220110B080BA7
:101240000403008040404040605020204040404027
:10125000404040404040800000000000000000008E
:1012600000F805422492D05052D690063666667633
:101270007676723082C55252D2B428106080000354
:1012800004080B1120262220110B0A0A0A0A0A0A56
:101290000A0B1120262220110B0904033C7EFFFFBC
:1012A000FFFF7E3C003C7EFFFF7E3C0000003CFFD9
:1012B000FF3C0000003C7EFFFF7E3C0008083C42F3
:1012C000BDADA5BD423C003C42BDAD423C0000006E
:1012D0003CFFC33C0000003C42A5BD423C0010085E
:1012E00003030303030303030303030303030303CE
:1012F000FFFFFFFEFCFCFCFCFFFFFFFEFCFCFCFC18
:1013000003030303030303030303030303030303AD
:10131000100A108E9284A8889088108E9284A888D3
:101320009088030202020202020203020202020287
:101330000202401CFFFFFFFFFFFFFFFFFFFFFFFF59
:10134000FFFFFFFFFFFFFFFFFFFF01FDFDFD019717
:101350009717979701FDFDFDEDC5EDFDFDFD01978B
:101360009717979701FDFDFD01FFFFFFFFFFFFFFAF
:10137000FFFFFFFFFFFFFFFFFFFFFFFF07F30B0B69
:101380004BEB4B0B0BFB03FFFFFF00FFFFFF00F7D7
:101390007300F77300FFFFFFFFABFFFFFFFF00F7D6
:1013A0007300F77300FFFFFF00FFFFFFFFFFFFFF6A
:1013B000FFFFFFFFFFFFFFFFFFFFFF7FBCD9EA72C8
:1013C000BA5AAA52AA53A04FAF4FA0FFFFFF00DEA8
:1013D000CEC0DECE00FF0BFF02E202FF0BFF00DEFD
:1013E000CEC0DECE00FFFFFF00FFFFFFFFFFFFFFCD
:1013F000FFFFFFFF0F0F0F0F0F0F0F0F0F0F0F0F3D
:101400000F0F0F0F0F0F0F0F0F0F0F0F0F0F0F0FEC
:101410000F0F0F0F0F0F0F0F0F0F0F0F0F0F0F0FDC
:101420000F0F0F0F0F0F0F0F0F0F0F0F0F0F0F0FCC
:101430000F0F0F0F401CFFFFFFFFFFFFFFFFFFE736
:101440000BE515D55515D55515E50B67BFBFBFBFC6
:10145000BFBFBFBFA70BE515D55515D55515E50B76
:1014600067BFBF93AD92A9B7BFBF7FFFFFFFFFFF6D
:10147000FFFFFFFFFFFF9F2F57AB55AA54A9439FC4
:1014800000FF00D6D210D6D200FF0001FC02DA4ADB
:1014900002DA4A02FC01FC00D6D210D6D200FF00CC
:1014A00001FC02DA4A02DA4A02FC01FCFFFFFFFFFC
:1014B000FFFFFFFFFFFFFFFFFEFC01F60600050E2A
:1014C00000FF00FE060206FE00FF0000FF00FAFA21
:1014D00002FAFA00FF00FF00FE060206FE00FF000F
:1014E00000FF00FAFA02FAFA00FF00FFFFFFFFFF19
:1014F000FFFFFFFFFFFF0F0F0F0F0F0F0F0F0F0F5C
:101500000F0F0F0F0F0F0F0F0F0F0F0F0F0F0F0FEB
:101510000F0F0F0F0F0F0F0F0F0F0F0F0F0F0F0FDB
:101520000F0F0F0F0F0F0F0F0F0F0F0F0F0F0F0FCB
:101530000F0F0F0F0F0F010204081020408020072B
:101540009D733A1DD9B273979C4DB9ED5A7139D735
:1015500039272773CE713999DD3A32E59CEB5CCDA2
:10156000050D0F929DAB64E72AD9B94A76AE929DDC
:10157000AB64E72A598CD145175D74D1450A4D07F4
:101580009DAB9DB2B1395749272B2EE76AD791659C
:101590002F5793652F57E3CAB9DA291B9B734EA7C0
:1015A00023536EBB565C6B25959B7ED9B94B4EE69B
:1015B0006476EB709476CEB9BC72DBB5E272AE762F
:1015C000CAC6E65CED3A070D0FD5E594BC9C929730
:1015D00053F2724A5E4EC9CB2979E595545249259A
:1015E0009554524925955452492515192307524EB1
:1015F0002AA9A453B8954ED9D099554E9265959382
:10160000540F08C1F7C1FFC1D5FFC1DFFFC1F5FB12
:10161000FFD1C0E0E0F0F0F0F0F8FCFEFF7F7FFECD
:10162000FC60000101070707070707070704000020
:101630000000100BC0202010D0D05018040281618F
:1016400041829C60000101070100000004000304C6
:1016500000000000F8FCFCFCFC78F8FCFCFCFCFC46
:10166000F8F8FCFCFCFCFCB8F8FCFCFCFCF8F8FC12
:10167000FCFCFCD8F8FCFEFFFFFFFFFFFFFEFCF8C0
:10168000010303010000010303010103030103033C
:101690000303030103030303010003030303010026
:1016A0000103070F0F0F0F0F0F0703012C0CF80496
:1016B00004B48448F80404D41404C8F80404D4948A
:1016C00064B84884941424F84884941424D8F80402
:1016D0000201F14949F1010204F80102020100008E
:1016E00001020201010202010202020202010202DF
:1016F00002020100020202020100010204080908BC
:1017000008090804020129100040A05000CF01215F
:1017100001FFFF000000800000FFFFFF000000004D
:1017200000BFBF1F00004040E0F8FFFF00A854A822
:1017300050AA55AA5500FFFFFFFFFFFF00AA55AAB8
:101740005500FFFFFF00AA55AA00FFFFFF0054AAA3
:1017500054A803FFFF00AA55AA55A050A04000CFEF
:10176000012101FFFF00A050A04000FFFFFF00A0EB
:1017700050A000BFBF1F40005040E0F8FFFF00A096
:1017800050A040AA55AA5500FFFFFFFFFFFF00AA87
:1017900055AA5500FFFFFF00AA55AA00FFFFFF0052
:1017A00055AA55A803FFFF00AA55AA558040A0409E
:1017B00000CF012101FFFF00A854A85000FFFFFF48
:1017C00000A854A800BFBF1F00004040E0F8FFFF82
:1017D00000A854AA54AA55AA5500FFFFFFFFFFFF17
:1017E00000AA55AA5500FFFFFF00AA55AA00FFFF57
:1017F000FF0054AA54A803FFFF00AA55AA55F8FCFD
:10180000FEFFFFFFFFFFFFFFFFFFFFFFFFFFFFFFE9
:10181000FFFFFFFFFFFFFFFFFFFFFFFFFFFFFFFFD8
:10182000FFFFFFFFFFFFFFFFFFFFFFFFFFFFFFFFC8
:10183000FFFFFFFFFFFFFFFFFFFFFEFCF8FFFFFFC3
:10184000FFFFFFFFFFFFFFFFFFFFFFFFFFFFFFFFA8
:10185000FFFFFFFFFFFFFFFFFFFFFFFFFFFFFFFF98
:10186000FFFFFFFFFFFFFFFFFFFFFFFFFFFFFFFF88
:10187000FFFFFFFFFFFFFFFFFFFFFFFFFFFFFFFF78
:10188000FFFFFFFFFFFFFFFFFFFFFFFFFFFFFFFF68
:10189000FFFFFFFFFFFFFFFFFFFFFFFFFFFFFFFF58
:1018A000FFFFFFFFFFFFFFFFFFFFFFFFFFFFFFFF48
:1018B000FFFFFFFFFFFFFFFFFFFFFFFFFFFFFFFF38
:1018C000FFFFFFFFFFFFFFFFFFFFFFFFFFFFFFFF28
:1018D000FFFFFFFFFFFFFFFFFFFFFFFFFFFFFFFF18
:1018E000FFFFFFFFFFFFFFFFFFFFFFFFFFFFFFFF08
:1018F000FFFFFFFFFFFFFFFFFFFFFFFFFFFFFFFFF8
:10190000FFFFFFFFFFFFFFFFFFFFFFFFFFFFFFFFE7
:10191000FFFFFFFFFFFFFFFFFFFFFFFFFFFFFFFFD7
:10192000FFFFFFFFFFFFFFFFFFFFFFFFFFFFFFFFC7
:10193000FFFFFFFFFFFFFFFFFFFFFFFFFFFFFFFFB7
:10194000FFFFFFFFFFFFFFFFFFFFFFFFFFFFFFFFA7
:10195000FFFFFFFFFFFFFFFFFFFFFFFFFFFFFFFF97
:10196000FFFFFFFFFFFFFFFFFFFFFFFFFFFFFFFF87
:10197000FFFFFFFFFFFFFFFF000103070707070748
:1019800007070707070707070707070707070707E7
:1019900007070707070707070707070707070707D7
:1019A00007070707070707070707070707070707C7
:1019B000070707070301003F33F804FA0D05E5E5C3
:1019C0002525252525252525252525E52525252507
:1019D00025252525E52525252525252525252525F7
:1019E00065E5E5E5E5252525252525252525252567
:1019F000E5E5E5050DFA04F8FF00FF0000FFFFFF35
:101A0000000000000000FF1F1C18F8FF000000008D
:101A10000000FFFFFF0000000000FFFFFF000000CC
:101A2000000083FFFF000000000000FFFF3F38F8C8
:101A3000FFFF0000FF00FFFF00FF0000FFFFFF00AF
:101A40000000000000FCF0F0F0FFFF0000000000CC
:101A500000FFFFFF0000000000FBFBF1000004049A
:101A60000E3FFFFF000000000000FDFDE0E0FFFF73
:101A7000FF0000FF00FFFF00FF0000FFFFCFC0C01E
:101A8000C0C0C0404F7F7F7F7F4FC0C0C04040403C
:101A90004FFFCF4040C0C0C04F7F7FE0404040403C
:101AA00040FFCFC040404040C0CFCFC7C0F0FFFF95
:101AB0000000FF00FFFF00FF0000FFFF9F2F3747E0
:101AC0000F9FFF0000007F7F0080C1FF03FC00002C
:101AD00001FFFF00C0030F3F0000FFFF000000FFF9
:101AE000FF030000FFFEF89F2F37470F9FFFFF0007
:101AF00000FF00FFFF00FF80003F3F3F3F3E3E3FB3
:101B00003F2F2020202F3F3F3F2F202D3D2D2020F5
:101B1000202F202F3F3C3020203F2F2020202F3F00
:101B20003C30202F27333F3F3E3E3F3F3F3F00802A
:101B3000FF00FF0001020505050505050505050572
:101B40000505050505050505050505050505050545
:101B50000505050505050505050505050505050535
:101B60000505050505050505050505050505050228
:101B700001001201130114011501160217041807C0
:101B8000190B1A101B171C1E1D251E201F1B2016AB
:101B90002111220C230824052503260227012901EF
:101BA0002A022B032C052D072E0A2F0D301131167A
:101BB000321B332134253521361E371A3816391297
:101BC0003A0E3B0B3C093D083E073F0740074108E2
:101BD0004209430B440E45124616471A481E492136
:101BE0004A254B224C1F4D1C4E1A4F1851165315A7
:101BF0005514571459145B145D155F166118621A59
:101C0000631C641F65226625030407040316124A39
:101C10002B462B422B3F2A3C293A273924382037A0
:101C20001B37163711370C380839053A033C023E8A
:101C3000014100440047004A004C00120E372B3788
:101C400025371F37193713370D380839053A033C44
:101C5000013E01400042004400460048004A004C5A
:101C600000130F202B22252420261B28162A112C96
:101C70000C2E0830053203350238013B003E00418E
:101C800000440047004A004C00181AFFFFFFFFFF06
:101C9000FFFFFFFFFFFFFFFFFFFFFFFFFFFFFFFF54
:101CA000FFFFFFDFDFDFDFDF5F5F5F5F1F1F1F1FE4
:101CB0005F5F5F5F5F5F5F5F5F5F5FF7F7F7F7F73C
:101CC000F7F7F7F7F7F7F7F6F4F0E1C30717377709
:101CD000F7F7F703030303030303030303030303F8
:101CE00003030303030200000103030000000000DC
:101CF00000000000000000000000000000000000E4
:101D0000000000C0C0C0C0C0404040400000000013
:101D10004040404040404040404040F7F7F7F7F730
:101D2000F7F7F7F7F7F7F7F6F4F0E1C307173777A8
:101D3000F7F7F70303030303030303030303030397
:101D40000303030303020000010303F8FFFFFEFC8B
:101D5000FCFCFC0303030303030303080A2807092D
:101D60002214240804010102010101010100000004
:101D70000070F8FCFEFEFFFFFEFC600000000000AB
:101D80000000000000000000000060FCFEFFFFFEFD
:101D9000FEFCF870000000000080800082C7E7FFB2
:101DA000FFFFFFFFFEFCFCFC383838383838383885
:101DB000B8B838FCFCFCFFFFFFFFFFFFC78702003D
:101DC000000000070F1F1F0F07010100040E1F3F37
:101DD0003F1B010000000000000003070F1F0F075A
:101DE00001000000000F1F1F1F1E0C00000000005C
:101DF000000070F8FCFEFEFFFFFEFC60000000002B
:101E0000000000000000000000000060FCFEFFFF7A
:101E1000FEFEFCF870000000000000000002C7E7B2
:101E2000FFFFFFFFFFFEFCFCFC38B8B8383838383D
:101E3000383838B8FCFCFCFFFFFFFFFFFFC7870204
:101E4000808000000000000C1E1F1F1F0F000000FC
:101E50000001070F1F0F0703000000000000011B17
:101E60003F3F1F0E04000101070F1F1F0F07002B2C
:101E7000160000000070880402160141229C6000D8
:101E80000000000000000000000000000000609C56
:101E900022410116020488700000000000808000CA
:101EA0008245243E80808091322444C428282828FA
:101EB00028282828A8A828C4442493918080003E7C
:101EC0004485020000000007081011080601010007
:101ED000040A1121241A010000000000000003047C
:101EE0000811080601000000000F101213120C0068
:101EF00000000000000070880402160141229C606E
:101F00000000000000000000000000000000006071
:101F10009C224101160204887000000000000000AD
:101F20000002C5243E00808091B22444C428A8A8A1
:101F300028282828282828A8444424939180800011
:101F40003E448502808000000000000C1213121035
:101F50000F00000000010608110804030000000043
:101F60000000011A2421110A0400010106081110C1
:101F7000080700F8FCFCFCFC78F8FCFCFCFCFCF816
:101F8000F8FCFCFCFCFCB8F8FCFCFCFCF8F8FCFCE5
:101F9000FCFCD8F8FCFEFFFFFFFFFFFFFEFCF80192
:101FA0000303010000010303010103030103030311
:101FB00003030103030303010003030303010001FF
:101FC00003070F0F0F0F0F0F0703012C0CF804046A
:101FD000B48448F80404D41404C8F80404D4946401
:101FE000B84884941424F84884941424D8F804023B
:101FF00001F14949F1010204F80102020100000166
:1020000002020101020201020202020201020202B4
:10201000020100020202020100010204080908088C
:102020000908040201F8FCFEFFFFFFFFFFFFFFFFAE
:10203000FFFFFFFFFFFFFFFFFFFFFFFFFFFFFFFFB0
:10204000FFFFFFFFFFFFFFFFFFFFFFFFFFFFFFFFA0
:10205000FFFFFFFFFFFFFFFFFFFFFFFFFFFFFFFF90
:10206000FFFFFFFFFFFFFFFFFFFFFFFFFEFCF8FF8B
:10207000FFFFFFFFFFFFFFFFFFFFFFFFFFFFFFFF70
:10208000FFFFFFFFFFFFFFFFFFFFFFFFFFFFFFFF60
:10209000FFFFFFFFFFFFFFFFFFFFFFFFFFFFFFFF50
:1020A000FFFFFFFFFFFFFFFFFFFFFFFFFFFFFFFF40
:1020B000FFFFFFFFFFFFFFFFFFFFFFFFFFFFFFFF30
:1020C000FFFFFFFFFFFFFFFFFFFFFFFFFFFFFFFF20
:1020D000FFFFFFFFFFFFFFFFFFFFFFFFFFFFFFFF10
:1020E000FFFFFFFFFFFFFFFFFFFFFFFFFFFFFFFF00
:1020F000FFFFFFFFFFFFFFFFFFFFFFFFFFFFFFFFF0
:10210000FFFFFFFFFFFFFFFFFFFFFFFFFFFFFFFFDF
:10211000FFFFFFFFFFFFFFFFFFFFFFFFFFFFFFFFCF
:10212000FFFFFFFFFFFFFFFFFFFFFFFFFFFFFFFFBF
:10213000FFFFFFFFFFFFFFFFFFFFFFFFFFFFFFFFAF
:10214000FFFFFFFFFFFFFFFFFFFFFFFFFF01030791
:102150000F0F0F0F0F0F0F0F0F0F0F0F0F0F0F0F8F
:102160000F0F0F0F0F0F0F0F0F0F0F0F0F0F0F0F7F
:102170000F0F0F0F0F0F0F0F0F0F0F0F0F0F0F0F6F
:102180000F0F0F0F0F0F0F0F0F0F0F0F0F0F0F0F5F
:102190000F0F0F0F0703014A24F804FA0D05050578
:1021A00005050505050505050505050505050505DF
:1021B00005050505050505050505050505050505CF
:1021C00005050505050505050505050505050505BF
:1021D0000505050505050505050505050505050DA7
:1021E000FA04F8FF00FF00000000000000000000FB
:1021F00000000000000000000000000000000000DF
:1022000000000000000000000000000000000000CE
:1022100000000000000000000000000000000000BE
:1022200000000000000000000000FF00FFFF00FFB2
:10223000000000000000000000000000000000009E
:10224000000000000000000000000000000000008E
:10225000000000000000000000000000000000007E
:10226000000000000000000000000000000000006E
:1022700000000000FF00FFFF00FF00000000000062
:10228000000000000000000000000000000000004E
:10229000000000000000000000000000000000003E
:1022A000000000000000000000000000000000002E
:1022B0000000000000000000000000000000FF001F
:1022C000FF0102050B0A0A0A0A0A0A0A0A0A0A0A8E
:1022D0000A0A0A0A0A0A0A0A0A0A0A0A0A0A0A0A5E
:1022E0000A0A0A0A0A0A0A0A0A0A0A0A0A0A0A0A4E
:1022F0000A0A0A0A0A0A0A0A0A0A0A0A0A0A0A0A3E
:102300000A0A0A0A0A0A0A0B05020102FFFFFFFE77
:10231000FEFFFFFFFFFFFFFFFEFEFFC7EFFFEEFF29
:10232000FFFFFEFEFFFFFF02003CFEFFFFFFFFFE80
:10233000FEFFFF1FFEFCFEFFFFFEFEFFFFFFFFFF95
:10234000FFFEBEFFFFFFFFF7EF3EFEFFFFFFFF8E2A
:10235000081F1F1F0F0F1F1F1F1F1F1F1F0F0F1FE4
:102360001F0F1F0F1F1F1F0F0F1F1F1F08000E1F04
:102370001F1F1F0F070F1F1F0F07070F1F1F0F0F15
:102380001F1F1F0F0F1F1F1F1F1F1F1F1F1F0E1F8E
:102390001F1F1F0F07450D02FD0101DEDE0101FDBC
:1023A000FD0101FD0602FDC52931AEFD0101DEDEA4
:1023B0000101FD02003CC2010D1971FE0201FD1177
:1023C000FE0402FDFD0206FD0101BDBD0142BEFD90
:1023D0000101BD15E93EC2010D19718E08171010DB
:1023E0000F0F101017171010170C08171708100FE1
:1023F0001710100F0F10101708000E1113161008E9
:1024000007081017090704081717080C1710100FF2
:102410000F1010171710101717110E1113161008A0
:102420000780C0E0F0E0C4CEFFFFFFFFCEC4E0F0C5
:10243000E0C08003173F7FFFFFFFFFFFFFFFFFFFAD
:10244000FF7F3F17030000000000010100000000B3
:102450000101000000000000000000C0E4CEFFFF0A
:10246000FFFFCEE4C0000000000000001FBFFFFF20
:10247000FFFFFFFFFFFFBF1F000000000000000084
:102480000101000000000101000000000000000048
:1024900000C0E4CEFFFFFFFFCEE4C000000000005C
:1024A00000000087DFFFFFFFFFFFFFDF8700000066
:1024B0000000000000000101000000000101000018
:1024C000000000000000000004CEFFFFFFFFCE046C
:1024D00000000000000000000080D8FDFFFFFFFFAB
:1024E000FDD8800000000000000000000101000095
:1024F00000000101000000000012118040A0102027
:10250000C4CA35151535CAC42010A040800215284C
:1025100051C65865BA8181BA6558C651281502005E
:1025200000000000010100000000010100000000A7
:102530000000000000C024CA35151535CA24C000AB
:102540000000000000001FA05865BA8181BA6558DC
:10255000A01F0000000000000000010100000000BA
:102560000101000000000000000000C024CA351571
:102570001535CA24C000000000000000008758651F
:10258000BA8181BA65588700000000000000000091
:102590000101000000000101000000000000000037
:1025A000000004CA35151535CA04000000000000FB
:1025B000000000805865BA8181BA6558800000002B
:1025C0000000000000000101000000000101000007
:1025D0000000003E7F3E7F3E7F7F3E7F7E3E7F3F0E
:1025E0000E2E7F2E11073E4136413E41553E415E43
:1025F0003E41350A2E512EC0E0E0F0F0F0F0F8FC3C
:10260000FEFF7F7FFEFC6000010107070707070749
:1026100007070400000000100BC0202010D0D0508D
:10262000180402816141829C6000010107010000E1
:102630000004000304000000000E0E0E1F1F1F1FE9
:102640001F1F0E0E0E001C1F1F1F1F1F1F1F1F0707
:102650000000071F1F1F1F1F1F1F1F1C000C050E40
:102660000A0E1F151F1F151F0E0A0E000400000A78
:1026700000000A00000400001C171D1F171D1F1773
:102680001D07000000080200080200080200000008
:10269000071D171F1D171F1D171C00000002080033
:1026A00002080002080000C0E0E0F0FCFEFFFFFFAF
:1026B000FEFFF6F8F0F060003179797D3F0F0F0FE3
:1026C0000F07070F1E0F060E1F1FFEF8F0FFFFFF7C
:1026D000FFFCF8F8F0E000000010397F7F2F3F7F0B
:1026E0007F3F0B0707020030F8BCF8F0F0F8F8F86D
:1026F000F8FEDFCFCFC6800307070F377F3F7F7F0E
:102700007F3F1F07030301A0F0F0E8FEFFFFFEFA82
:10271000FFFFCE0400000003070F0F1F7F7F7F7FA6
:10272000070F3F7C7C38000030F8FCFEFEFEFC7E8C
:102730003CF8F8F0C00000163F3F1F0F1F3F3F3F1F
:102740003F1F1F1F1F1F0E00C6EFFEFFFFFEFCFCFA
:10275000FEFEFCF870000000033F7F7F7F3F3C3DA2
:102760001F1F0F03010000387CFCFCFCFC7E7EFE7A
:10277000FEFCF8FCFE7E34000001070F0F1E3F1F19
:102780003F3F3F1F0F06000040E0F8FCFCDE9EFECE
:10279000FFFFFFFEE0000000070F1F3F3F1F1F3F2E
:1027A0007F7F3F7B310000100FC02020107CC28152
:1027B00009191A6936889090600031494945320AF2
:1027C0000808080505091209060E1111E608300F60
:1027D00031190B8CC80810E0000000102946502E5B
:1027E000384346350B0405020030C8A4C8505008D1
:1027F0000808A8A6514949468003040408364B2D11
:102800004C4840211F04020201A05010E8D631615B
:102810000E3A0531CA040000000304080918684C88
:102820004678060833444438000030C88402022247
:10283000B4523CC80830C000001629241E081020DD
:1028400020232D16161711110E00C6291A0D090284
:102850008C04C282048870000000033C424E5D3349
:10286000242512130E020100003844C47434B45AF3
:102870006282020408BC924A340000010608091E64
:102880002516222020100906000040A038E4A4529A
:1028900092665D39211EE00000000708102021101B
:1028A000182048582C4A3100000000000070F8FC45
:1028B000FEFEFFFFFEFC60000000000000000000C4
:1028C00000000000000060FCFEFFFFFEFEFCF87050
:1028D000000000000080800082C7E7FFFFFFFFFFCD
:1028E000FEFCFCFC3838383838383838B8B838FC92
:1028F000FCFCFFFFFFFFFFFFC7870200000000078F
:102900000F1F1F0F07010100040E1F3F3F1B010097
:1029100000000000000003070F1F0F070100000068
:10292000000F1F1F1F1E0C0000000000000070F8A9
:10293000FCFEFEFFFFFEFC60000000000000000047
:102940000000000000000060FCFEFFFFFEFEFCF83F
:1029500070000000000000000002C7E7FFFFFFFF5B
:10296000FFFEFCFCFC38B8B838383838383838B88E
:10297000FCFCFCFFFFFFFFFFFFC787028080000019
:102980000000000C1E1F1F1F0F0000000001070F9A
:102990001F0F0703000000000000011B3F3F1F0E38
:1029A00004000101070F1F1F0F07002B1600000076
:1029B0000070880402160141229C600000000000A3
:1029C00000000000000000000000609C2241011691
:1029D0000204887000000000008080008245243ED0
:1029E00080808091322444C4282828282828282838
:1029F000A8A828C4442493918080003E4485020006
:102A0000000000070810110806010100040A112146
:102A1000241A010000000000000003040811080649
:102A200001000000000F101213120C000000000043
:102A3000000070880402160141229C600000000022
:102A40000000000000000000000000609C22410126
:102A50001602048870000000000000000002C52477
:102A60003E00808091B22444C428A8A828282828A1
:102A7000282828A844442493918080003E4485025D
:102A8000808000000000000C121312100F000000E4
:102A90000001060811080403000000000000011AEC
:102AA0002421110A0400010106081110080700186A
:102AB000BCFEFFFFFEFCFEFFFFFEBC1803070F1F5E
:102AC0001F0F070F1F1F0F07030D0D18A4422151E1
:102AD000EAF4E2418142A418030408101008050A30
:102AE0001110080403008A3011241FBECFEFDAE072
:102AF000DEBFCDBF11E0A0E0B1E0E0EBFCE602C03C
:102B000005900D92AA3AB107D9F726E0AAEAB1E0FA
:102B100001C01D92AC3DB207E1F715E1C4E7D5E174
:102B200004C02197FE010E941E35C337D107C9F7A3
:102B30000E947D310C9456360C940000FC01DB01A0
:102B40001A964C911A97409519968C91199748238B
:102B500017962D913C91189720FD66C013969C9175
:102B600013978189953059F5823A38F48B3578F48A
:102B70008C3350F08C3488F554C08F3B08F445C03A
:102B80008F3B09F448C04DC08785815042C081E029
:102B9000838B23703327232B09F043C08089863130
:102BA00028F4833138F48231E1F106C08B3120F40E
:102BB000825003C0815001C08350808B32C08D3859
:102BC00038F4843710F5853160F1893248F405C056
:102BD000843BE8F0843BF9F024C081E0838B21C082
:102BE00081E0838B23703327232BD9F4928980894A
:102BF000923020F0943020F48E5F03C08F5F01C0CC
:102C00008D5F808B9F5F928B0CC0138A0AC0878573
:102C10008F5F878706C059969C9359975A961C9246
:102C20005A9781898F5F818B43FF09C013968C91DE
:102C3000139759968C9359975A961C925A971796B0
:102C40008D919C9118976CE070E00E94F634892B6E
:102C500039F48089823121F0948981E08927848B3D
:102C60000895FC01DB0113968C9113978530D1F404
:102C70008CE9878782E7808B1F968D919C91509776
:102C8000C29652964D915C91539762E3649F900176
:102C9000659F300D1124820F931F56969C938E933F
:102CA000559705C080E6878754968C91808B118A52
:102CB000138A148A128A0895089580E090E0089596
:102CC000089508950895089508950895089508951C
:102CD0000895FC018AE191E091838083158214823A
:102CE0008EE091E09383828388E0838781E082870E
:102CF0001782108616828187148616860895089595
:102D0000CF92EF920F931F93CF93DF93FC016A3022
:102D100039F48581848396818185890F86834AC0B1
:102D200084816E3719F48D5F848344C0262FEF01B0
:102D300066816F5F2A334CF42033C4F42D32C1F026
:102D40002E3281F0213249F515C02B352CF4213477
:102D50005CF42F3341F121C09FE9920F9A31E8F4DE
:102D6000275409C02FE307C0215405C02C5F03C0BE
:102D700021E401C02EE33F81062E000C770B082EC4
:102D8000000C990B313089F43AEFC32EE12C00E0AE
:102D900010E047E054E00E94702888858B5F9C819A
:102DA000890F8C8307C020E4E6CF47E054E00E94FF
:102DB000E029F3CF81E090E0DF91CF911F910F9157
:102DC000EF90CF9008950C94B9350C94B9350C94CC
:102DD000B9350C94B9350C94B9350C94B9350C94BB
:102DE000B9350C94B935EF920F93CF93DF93EC0183
:102DF000662361F0E12C00E028EF3CE048EB5DE069
:102E000064E170E080E290E00E94002A8E858823D1
:102E100061F0E12C00E02AEC3BE040E65CE064E19C
:102E200070E087E290E00E94002ADF91CF910F913D
:102E3000EF900895AF92BF92CF92DF92EF920F93EF
:102E40001F93CF93DF935C01102FFB018781908547
:102E500087709927892B39F481E0F50194859111C8
:102E600080E0F5018487C22F220FDD0BC42E440FB2
:102E7000DD08E12C00E020ED3AE04CE45BE0BE012F
:102E8000C6010E94002AF501048529EB3AE040ECD6
:102E90005AE0BE01C60142960E94002A112361F049
:102EA000BE016B5F7F4F00E02BE73AE049E95AE053
:102EB000C60104970E94002ADF91CF911F910F91C4
:102EC000EF90DF90CF90BF90AF900895EF920F9367
:102ED000CF93DF93C0E0D0E0E12C00E029E53AE0B9
:102EE00049E65AE06BE370E0CE010E94002A289682
:102EF000C038D10589F7DF91CF910F91EF900895F8
:102F0000AF92BF92CF92DF92EF92FF920F931F93F7
:102F1000CF93DF93EC016B01F42E122FA12CB12C77
:102F2000E12C00E029E53AE049E65AE06CE170E086
:102F3000C5010E94002A88E0A80EB11CE0E8AE1688
:102F4000B10471F725E538E047E559E063E370E047
:102F500080E090E00E94002AFF2021F1AD85B0E0E2
:102F6000FD01EE0FFF1FE55BF74F45915491FD0109
:102F7000EC56FE4F608170E0A756BE4F8C91F60173
:102F8000278990E00E94F029F601878190858F7053
:102F90009927892B39F48D858F5F853010F48D87C3
:102FA00001C01D86E12C00E029E337E041EC57E049
:102FB00060E070E080E090E00E94002A112351F070
:102FC00027E236E04FEA56E060E070E080E790E00C
:102FD0000E94002ADF91CF911F910F91FF90EF90F7
:102FE000DF90CF90BF90AF9008958F929F92AF9255
:102FF000BF92CF92EF92FF920F931F93CF93DF93E5
:1030000000D000D000D0CDB7DEB75B01F42EE12CAC
:10301000411102C001E001C000E02BE335E049E8C6
:1030200055E060E070E089E590E00E94002AFE0132
:10303000319686E0DF011D928A95E9F7D5011F964A
:103040008C911F9750969C910AE010E026E02E0F7D
:10305000B8010E94F6348193CB012E13F9CF4E01B3
:10306000B6E08B0E911C9EE5A92EB12CF1100AC082
:10307000F401208141E155E063E070E0C5010E9468
:10308000E0290EC08AEFC82EE12C00E010E0D40148
:103090002C9141E155E063E070E0C5010E94702889
:1030A000B1E08B1A9108E5E0AE0EB11CFCE7AF165B
:1030B000B104E1F626960FB6F894DEBF0FBECDBF81
:1030C000DF91CF911F910F91FF90EF90CF90BF9024
:1030D000AF909F908F9008952F923F924F925F9262
:1030E0006F927F928F929F92AF92BF92CF92DF9218
:1030F000EF92FF920F931F93CF93DF9300D000D0F6
:10310000CDB7DEB79C838B835B01DB011996FC9006
:103110001997FC01868581110FC117968D919C919D
:10312000189787709927892B51F487A18F5F843076
:1031300011F087A304C0AB81BC8197961C92EB81F0
:10314000FC8183A194A1181619061CF4019794A37D
:1031500083A3AB81BC819396ED91FC919497CF01B1
:1031600060E87CE00E940A3509964397B8F5D501DE
:1031700052968D919C9153974AE0489F9001499FA8
:10318000300D112440E951E0421B530BAB81BC814F
:1031900099965C934E93989725E0289FB001299FBC
:1031A000700D112428EC30E0261B370B9B963C93C6
:1031B0002E939A97453B510530F084EB90E0999619
:1031C0009C938E9398972536310540F084E690E0E5
:1031D000AB81BC819B969C938E939A97AB81BC816B
:1031E0001F962D913C91509737FF12C0F5018781B2
:1031F000908565E070E00E94F634892BF9F42E5F2B
:103200003F4FAB81BC8150963C932E931F9716C0C5
:10321000EF2B09F0D4C0283C31050CF0BEC0F501FD
:103220008781908565E070E00E94F634892B31F447
:103230002E5F3F4FEB81FC81308B2787D50117969E
:103240008C9180FD36C0EB81FC81858D8150803C66
:1032500011F0858F04C0AB81BC815D961C92EB811F
:10326000FC81EF5BFF4F2081222359F0AB81BC81B1
:103270005E968D919C915F9701975F969C938E933C
:103280005E97AB81BC8193968D919C919497892B8D
:1032900081F421110EC081E080835D968C915D9751
:1032A000082E000C990B80549F4F5F969C938E9331
:1032B0005E97F5018781908563E070E00E94F634A7
:1032C000029771F0AB81BC8190968C919097815060
:1032D000803F19F090968C9303C0EB81FC8110A283
:1032E000D50117968D919C91189783709927039714
:1032F00061F0EB81FC8181A18250813E14F081A3B9
:1033000004C0AB81BC8191961C92F50187819085A8
:1033100065E070E00E94F634039770F4AB81BC81E5
:1033200092968C9192978350813E1CF092968C934A
:1033300003C0EB81FC8112A2D50117968D919C915F
:10334000189766E070E00E94F634892B89F0F50149
:10335000828580959185892382FF8FC3AB81BC8153
:103360001E969C911E9781E089271E968C9385C39B
:10337000EB81FC8173962B813C81295E3F4F8081DC
:10338000882331F08F5F863011F0808301C0108276
:103390003196E217F30799F7DACFD50152968D915E
:1033A0009C915397019653969C938E93529784E0E9
:1033B00059968C93599785E05A968C933FCF0B8101
:1033C0001C81045D1F4F6B807C80B1E46B0E711C0F
:1033D000EB81FC81F2968B819C81895B9F4FE81782
:1033E000F90719F010823796FACFF5FE04C02115BF
:1033F000310509F0A4C16501F4E0CF0ED11CD5015F
:1034000017968D919C91189763E070E00E94F634B6
:10341000029709F44BC0F6FE49C0EB81FC8187841A
:103420009088F6E48F1691040CF040C0FFEF8F1ADD
:103430009F0AAB81BC8151962C915197A401B60192
:10344000CD010E94B920E82EBFEF8B1709F47EC191
:10345000AB81BC8156968C915697811108C081E052
:1034600056968C935697B501CD010E94FC20EB81B6
:10347000FC8127853089215E3F4F8E2D90E047E00B
:10348000E49EE00DF11D112435A724A7233E3F4FF4
:103490000CF411AA27E0289FF001299FF00D1124B8
:1034A0002B813C81E20FF31F81E082ABF7FE23C04A
:1034B000EB81FC8181898830F0F0EE24EA94E80EFB
:1034C000EB81FC81478550892E2DB601CF010E94EA
:1034D000B9208F3F09F441C1AB81BC8153968C91D7
:1034E0005397811108C081E053968C935397B5018F
:1034F000CD010E94FC20AB81BC8157968C915797DF
:10350000811130C0F7FC22C05196EC905197EA949B
:103510001F964D915C9150972E2DB601CD010E94C2
:10352000B9208F3F61F0EB81FC81838981110EC04E
:1035300081E0838BB501CF010E94FC2007C0AB81E5
:10354000BC815196EC92519757961C92EB81FC816D
:103550008189873009F406C1843109F403C18132BD
:1035600009F400C1FF2DF0719F2EF4FE20C0AB8145
:10357000BC8151968C918132D0F4FF24F394F80EE3
:10358000EB81FC81478550892F2DB601CF010E9428
:10359000B9208F3F09F4ECC0EB81FC818489811153
:1035A00006C081E0848BB501CF010E94FC20EB8135
:1035B000FC81E788F1E0EF1231C0911023C0AB81AC
:1035C000BC815196FC905197F3941F964D915C915C
:1035D00050972F2DB601CD010E94B9208F3F59F091
:1035E000EB81FC81848981110DC0E48AB501CF0192
:1035F0000E94FC2007C0AB81BC815196FC92519780
:103600005796EC92EB81FC818189873009F4B9C02F
:10361000843109F4B6C0813209F4B3C0AB81BC81F6
:1036200093968D919C919497D1964D018D329140B6
:1036300054F4EB81FC8123A134A1838D2D323140E0
:103640000CF486C179C074016801C614D70489F3EB
:10365000D7018C91811169C01701B3E02B1A310891
:103660002701E2E04E1A51089701215031093A83AF
:1036700029836CEA70E080E090E00E943D27DC0145
:10368000CB0180589F4FAF4FBF4FF601918380838E
:10369000833E9F4F14F4D7011C9263E070E080E0FA
:1036A00090E00E943D27F101608362E070E080E0DD
:1036B00090E00E943D27D2016C9362E070E080E0D0
:1036C00090E00E943D27DC01CB010296A11DB11DB7
:1036D000E981FA818083E1E0D701EC93D1013C914B
:1036E000F60140815181D401B80120E066157705CB
:1036F000C9F08C91882391F0CD010397FC01808162
:1037000083130CC0FB0180819181841B950B97FF73
:1037100003C0919581959109C397CCF1695F7F4F63
:103720001796E4CF213009F0A4CFF7E0CF0ED11CDB
:1037300027E0E20EF11C89CF882359F109C12150FD
:103740003109EB81FC81308B278755CEAB81BC8161
:1037500050969C928E921F97A9CEEB81FC81E18AB4
:10376000178AC9CE84E0AB81BC8157968C93FACE80
:10377000AB81BC815196FC92519781E057968C9316
:1037800016CF84E0AB81BC8157968C9347CF2F5FD7
:10379000C5CFEB81FC81848D81111EC064ED70E08A
:1037A00080E090E00E943D27DC01CB0180589F4FD4
:1037B000AF4FBF4FEB81FC81918F808F63E070E052
:1037C00080E090E00E943D27AB81BC815A966C93CB
:1037D0005A9781E05C968C93F5018781908563E030
:1037E00070E00E94F634029709F452C0AB81BC81AC
:1037F0005C968C915C97882309F44AC058968D9109
:103800009C915997019759969C938E935897089637
:1038100089F4EB81FC81148E6AE570E080E090E031
:103820000E943D27DC01CB010A96A11DB11DEB8151
:10383000FC81838FAB81BC8158966D917C915997A7
:103840005A968C915A971F964D915C91509751962C
:103850002C91FB0138964E175F07D4F4415E5F4F01
:1038600064177507ACF4BEE08B9FC001112430E0F3
:10387000B9016B5E7F4FAC014D5D5F4F64177507FB
:103880003CF4215E3F4F4B96821793070CF466C0C1
:103890007401DD24D3940615170509F453C0F7010C
:1038A0008081882309F448C0D80116968C91811133
:1038B00043C0F70133976081F80120813181AB81EA
:1038C000BC8151964C9151971F968D919C91509728
:1038D000DC015E96FC01B0962E173F070CF049C044
:1038E000F9013296AE17BF070CF043C050E0BEE0BE
:1038F0006B9FB0011124DB015B96FA017F96AE1736
:10390000BF07BCF56B5D7F4F4B5E5F4F4617570798
:1039100084F54F96F80191838083833E9F4F14F482
:10392000D7011C92EB81FC818689811105C0D68A62
:10393000B501CF010E94FC20095F1F4FB7E0EB0EDD
:10394000F11CA9CF87E0782E140160E070E03FC041
:103950008150AB81BC815B968C933ECFF50187850E
:1039600090890296908B8787AB81BC815C961C9274
:103970008FCFF7013197608170E0D50117968D9157
:103980009C9118970E94F634882319F081E090E00A
:1039900002C082E090E0281B390BF80131832083BC
:1039A000233E3F4F4CF6D7011C92C6CF64121CC079
:1039B0004F5F5F4F179643305105C1F76F5F7F4FE1
:1039C000E7E02E0E311C6330710509F437CC662E0A
:1039D000D40140E050E06101E3E0CE1AD10871016A
:1039E000F5E0EF1AF108E2CFF1018081882301F3BD
:1039F0008C918823E9F2F6012081CD010397FC0127
:103A000080812813D5CFF701808191819D012550B8
:103A10003109F901208131818C01021B130B17FF41
:103A200003C01195019511090F3111050CF62817E6
:103A300039078CF4215E3F4F769EF001779EF00DA2
:103A400011248B819C81E80FF91F35A724A7233E01
:103A50003F4F8CF079CF4F96749EF001759EF00D1C
:103A60001124AB81BC81EA0FFB1F95A784A7833E7D
:103A70009F4F0CF069CF11AA67CF0F900F900F9056
:103A80000F90DF91CF911F910F91FF90EF90DF90FA
:103A9000CF90BF90AF909F908F907F906F905F90EE
:103AA0004F903F902F900895FB01138A128A118A3C
:103AB000108A1786178A0895FC01DB011A968C91EB
:103AC0001A97809519969C911997892351F08281B4
:103AD000882311F08CE782838281811102C081E00A
:103AE00082838281882359F08F5F82838D3739F4F6
:103AF00082E059968C9359975A961C92089508958E
:103B00000895CF92EF920F931F93CF93DF93EC0121
:103B10008B0121E040E00E948017B801CE010E9495
:103B20006617E12C00E02EEF37E147EB59E161E049
:103B300070E081E290E00E94002A8AEFC82E00E047
:103B400010E0288946E057E16DE070E08AE290E0FD
:103B50000E9470288989883C51F424E536E14CEABA
:103B600056E164E370E08BE290E00E94002AE12CD1
:103B700000E022E136E142E356E16EE070E080E0F1
:103B800090E00E94002A8A89882349F020E041E0E1
:103B900056E160E170E081E190E00E94F02980E070
:103BA000DF91CF911F910F91EF90CF900C94CC2586
:103BB000CF93DF93FC01EB0199858A85809589235A
:103BC00094FF08C09785903118F49F5F978703C0D2
:103BD0000E94102A178683FF04C093E0998F95E016
:103BE0009A8F82FF04C086E0898F85E08A8F8F815B
:103BF00098856FE070E00E94F634892B39F4808953
:103C00008F5F833011F0808B01C0108A8F8198857F
:103C100060E570E00E94F634892B21F4928981E0FE
:103C20008927828B8189883C10F48F5F818BDF919B
:103C3000CF910895CF93DF93EC014CEE55E161E114
:103C400070E08FE290E00E94142647EC55E16AE1B3
:103C500070E08BE290E00E94142647EC55E16AE1A7
:103C600070E089E490E00E9414268A81811111C0DD
:103C700047EC55E16AE170E08AE390E00E94142687
:103C80004EE755E16EE270E08AE190E00E94142672
:103C900032C041E655E16AE170E08AE390E00E94BB
:103CA00014264EE355E16EE270E08CE290E00E9453
:103CB00014268A816FE00E94DC34837040E050E17A
:103CC00061E370E0C6E3D5E14817A9F0942F990F9E
:103CD000915B9B01FE01529FD001A0781124A90F96
:103CE0002770E20FF11D9491AD52BD4F2C91922B94
:103CF0009C934F5FE9CFE3EDF2E081E0A0E0B8E014
:103D000000800EBC8111012C1197A0FDFDCF019206
:103D1000B9F70DB4DF91CF9108952F923F924F9252
:103D20005F926F927F928F929F92AF92BF92CF924B
:103D3000DF92EF920F931F93CF93DF9300D000D0C9
:103D400000D0CDB7DEB79E838D834B01FB0127806A
:103D50003084A12CB12C8F5B9F4F6C01ED81FE81D3
:103D6000858D9501280F311D87FD3A95C901F40114
:103D70002789F601211121C02081222339F0ED810C
:103D8000FE81268D378D8217930739F020E044E3BA
:103D900054E160E070E00E94F029F6018081882300
:103DA00061F120E042E353E160E070E0ED81FE81EB
:103DB000868D978D0E94F02920C02081222339F022
:103DC000ED81FE81268D378D8217930739F020E033
:103DD00044E354E160E070E00E94E029F601808154
:103DE000882359F020E042E353E160E070E0ED8188
:103DF000FE81868D978D0E94E029F0E4AF0EB11C04
:103E0000A11421E0B20609F0A9CFA12CB12CED81BB
:103E1000FE8180A1E12C00E020EF32E140E153E19E
:103E200064E170E0F501E80FF11D87FDFA95CF011F
:103E30000E94002AF0E1AF0EB11C20EAA216B104E4
:103E400031F741E0B4018D819E810E94F517A12CCC
:103E5000B12CED81FE8181A120E04EED52E168E2BE
:103E600070E0F501E80FF11D87FDFA95CF010E9482
:103E7000F029ED81FE8182A120E04EED52E165E363
:103E800070E0F501E80FF11D87FDFA95CF010E9462
:103E9000F029F0E2AF0EB11C20EAA216B104C9F677
:103EA00080E1482E512C10E08D819E818C969A8362
:103EB0008983ED81FE81F196FC83EB83ED81FE81A8
:103EC000848D882321F0828D181709F401C169803F
:103ED0007A80AB80BC806C147D0481F0F501808118
:103EE000882329F033978081811709F40AC1F7E00C
:103EF0006F0E711C27E0A20EB11CEDCFED81FE818B
:103F000061896F3030F06C3110F481E003C082E0E1
:103F100001C080E0181368C0ED81FE81E388EE20C7
:103F200089F0EA940E2D000F062E000C770B878582
:103F300081502AE73EE04CE45FE0082E000C990B2C
:103F40000E94002AED81FE8147855089CA014E9664
:103F50008E39910508F4E4C0ED81FE81E688EE20FB
:103F600099F0EA940E2D000F6189605F062E000C17
:103F7000770B8785895E2AE73EE04CE45FE0082EF8
:103F8000000C990B0E94002AED81FE81E588EE204D
:103F900099F0EA940E2D000F6189605F062E000CE7
:103FA000770B878588502AE73EE04CE45FE0082ED7
:103FB000000C990B0E94002AED81FE81E488EE201E
:103FC00099F0EA940E2D000F6189645F062E000CB3
:103FD000770B8785895F2AE73EE04CE45FE0082E97
:103FE000000C990B0E94002A1F5FFDE04F0E511C30
:103FF000133009F063CFED81FE8193898489890FA5
:104000009689890F9589890FF9F460E08D819E81E9
:104010000E94F31682E026960FB6F894DEBF0FBE1C
:10402000CDBFDF91CF911F910F91EF90DF90CF9097
:10403000BF90AF909F908F907F906F905F904F90C8
:104040003F902F900C94CC25ED81FE81618970E02A
:104050006750710987859089E12C00E02AEF30E1F3
:1040600045E151E102960E94002AED81FE8186A180
:10407000853138F4C10168E370E00E94F6344D9751
:1040800020F2ED81FE81C784D088F2E0CF0ED11CF2
:10409000A12CB12CED81FE8186A190E0A816B90675
:1040A0000CF0B3CFED81FE81618970E0655071093C
:1040B000E12C00E022EF30E145EF50E1C6010E9423
:1040C000002AFAE0AF0EB11C22E0C20ED11CE2CFF2
:1040D000ED81FE8107A1C2010E9661E070E011231F
:1040E00011F060E070E0680F791FE02E2CE932E1FA
:1040F0004CEB52E1ED81FE81808D918D0E94002A72
:10410000E6CEF50132970081E02E22E331E146EE62
:1041100051E1B201F301808191810E94002AE7CE32
:1041200000E0ED81FE812189B401CF010E941A17C0
:1041300013CFEF92FF920F931F93CF93DF931F92B2
:10414000CDB7DEB77C01FC0100811181C801698314
:104150000E9463346981681719F0C8010E946B34AA
:10416000C7010F90DF91CF911F910F91FF90EF90BA
:104170000895EF92FF920F931F93CF93DF9330E058
:10418000790165E1E60EF11CDC01D19690E08A012F
:10419000015E1F4F215E3F4F8C918823F9F0FD0196
:1041A00035970190F081E02DBD0163507109EB015D
:1041B0006881E017F10794F47E964E175F0774F458
:1041C000DEE06D9FB0011124FB017B96E217F3073F
:1041D0002CF46B5D7F4FE616F70634F09F5F179661
:1041E0009330D1F68FEF01C0892FDF91CF911F91CE
:1041F0000F91FF90EF900895FC0196A19A5011F055
:1042000096A308958CE886A3FB01878590898A3060
:10421000910518F00A97908B87870895CF93DF93C5
:10422000FC01E159FF4F10823C97128215823D96A6
:104230001082719722E12083DC011E961C92EC0112
:1042400065969E0126503109E217F30731F0188276
:10425000DE0111971C922896F4CFDF91CF9108953B
:104260002F923F924F925F926F927F928F929F9286
:10427000AF92BF92CF92DF92EF92FF920F931F9374
:10428000CF93DF9300D000D000D0CDB7DEB78C0144
:104290004B01DB011A96BC91B983FB017184DC01EF
:1042A0001E968C9181112EC3F801E15AFF4FFB83BA
:1042B000EA83E081DB0117968D919C91189765E068
:1042C00070E00E94F634892B31F0F401818983304B
:1042D00008F0BBC0C5C09801215F3F4F5801F5E110
:1042E000AF0EB11C780140E1E40EF11CA8014F5E55
:1042F0005F4FB8016C5E7F4F680186E1C80ED11C2C
:10430000EC5E2E2E312C66246394D801AD59BF4F3C
:10431000FAEF5F2EEA81FB812E173F07B1F2F5011C
:104320008081882309F481C0F9018081863639F4BF
:10433000F401878590890596908B87872CC0FA01B8
:104340004080885F90E08219930997FF03C09195A0
:1043500081959109FAE04F1631F0E0E24E1619F01E
:10436000F6E34F1205C00B97B4F4F601608213C058
:10437000FBE04F1631F0E1E24E1619F0F7E34F1271
:1043800008C0F6014080411006C00B970CF01BC31B
:1043900002C0F6011082FB019081911105C0FA0163
:1043A00080818F5F808304C044244A94FA01408254
:1043B000FA0180818B3411F4108235C0923031F1D2
:1043C00078F4992399F0913071F5F90180818F5F2C
:1043D0008083EBE24E2EF7014082F2E04F2E20C0A8
:1043E0009D3308F59F5FFB0190831FC090E0880F0D
:1043F000991FFC01EE58F44E4490F9014082FC01F3
:10440000ED58F44E8491F70180830FC0F90180814B
:104410008F5F808382E3482EF701408293E0492E2C
:10442000FB01408202C0F5011082285F3F4FF8E097
:10443000AF0EB11C88E0E80EF11C485F5F4F685F6B
:104440007F4F98E0C90ED11C65CFF801759681E0C9
:104450009F01265031094A815B814217530761F45D
:10446000D40117968D919C9118976FE070E00E948F
:10447000F634892B81F018C09081992351F0DF0127
:1044800011979C91911105C011979C91992309F462
:10449000E4C23896DDCFF8017296CF010397AA8166
:1044A000BB81A817B90739F4F801E059FF4F8081A3
:1044B00081111FC10CC08381882339F080818F5FF7
:1044C000883011F0808301C010823896E6CF7801E1
:1044D000BBE6EB0EF11CF7018081918101978E3FC5
:1044E000FFEF9F0718F4D7018D939C93F70120816C
:1044F00031812115310509F0FCC0D4011F964D9181
:104500005C915097483EB3E05B0758F488EE93E027
:10451000841B950B6AEF70E00E94F6346D5F7F4F4D
:1045200002C063E070E0F80175965F014CE250E074
:10453000A6E14A2E512CCF010697AA81BB81A8176C
:10454000B90781F18081882359F1CF010497DC01FB
:104550008C91863109F4CDC08C3209F4CAC0C82EC2
:10456000D12CCA018C199D0997FF03C091958195A3
:104570009109D201AC19BD096D01B7FF03C0D194F7
:10458000C194D1080C2C000CDD08C616D7060CF41B
:10459000B0C0082E000C990B861797070CF4A9C021
:1045A0003896C9CFF501808181112CC0D90183E0F3
:1045B000AA0FBB1F8A95E1F7A00FB11F81E05596A6
:1045C0008C93559751961C92519754961C925497E0
:1045D00053961C925397E2E7FBE1E4911F96EC930C
:1045E000E3E7FBE1E491D901129693E0AA0FBB1F28
:1045F0009A95E1F7A00FB11FEC93F4018189833004
:1046000040F072C02F5F3F4F38962A30310559F67F
:1046100070C00784F089E02DEC3DB5E0FB07C8F4DD
:104620005F01B694A7948CED95E08A199B09A5E0EB
:10463000CA2ED12CB6010E94F6349B01EE3EF24008
:1046400050F48EEE92E08A199B09B6010E94F6346E
:1046500004C026E930E06BE470E0C901A0E0B0E0FE
:104660005B01C12CD12CA816B906CA06DB067CF466
:10467000BC01CD016A197B098C099D090E943D2767
:10468000DC01CB018A0D9B1DAC1DBD1D04C086E95C
:1046900090E0A0E0B0E0F70191838083D4011F9601
:1046A0008D919C915097F801E259FF4F7F01853120
:1046B000910568F0899768F40E94553422E030E053
:1046C00040E050E00E947934F701608312C010820C
:1046D00010C00E94553423E030E040E050E00E94DA
:1046E0007934D7016C9305C08FEF9FEFF701918369
:1046F000808375FE0BC0AA81BB8111968C911197A6
:10470000811104C08C91833108F0AFC176FE09C0DD
:10471000EA81FB818181811104C080818C3308F49E
:10472000A9C1D40117968C9180FD42C0EA81FB811A
:1047300083818230A9F0833009F03AC0EA81FB819D
:104740008081E18191E09E0FAA81BB8111969C93AB
:104750001197F0E0E85FF34EE491E80FEC9311C09D
:10476000AA81BB818C911196EC91119791E09E0FDB
:1047700011969C931197F0E0E85FF34EE4918E1B45
:104780008C9312968C9112978F5F8C3071F4EA8122
:10479000FB811282953061F4AA81BB8111961C9233
:1047A000119784E013968C9303C012968C93F2CFEA
:1047B000D40117968D919C91189766E070E00E9445
:1047C000F634892B41F0F4018189833008F49AC0D2
:1047D000C80145968AC0D801AD59BF4F12968C9139
:1047E0001297882309F462C015968C9115978F5FF4
:1047F00015968C931597282F082E000C330B87FDE8
:1048000039C014968C91149790E02817390794F5C5
:1048100013968C9113978130E9F078F0823051F53E
:10482000C9010196880F991FFC01E35FF34EE491E3
:10483000EC93FC01E25FF34E19C0C9010196880FA9
:10484000991FFC01EF59F34EE491EC93FC01EE59F2
:10485000F34E0CC0C9010196880F991FFC01E55C5D
:10486000F34EE491EC93FC01E45CF34EE491119679
:10487000EC93119714968C91149790E028173907B0
:1048800019F412961C921297821B930BF801E659A9
:10489000FF4F089754F480818F5F8083883031F414
:1048A00012961C92129715961C921082F80175961A
:1048B000CF0106972A813B812817390709F483CF56
:1048C0008081882351F0DF0112978C91882329F091
:1048D0008F5F8C93863009F410823896E9CF089662
:1048E000FC013897208121110DC09C01265031090F
:1048F0004A815B814217530791F781E0F801E15942
:10490000FF4F8083D4011F962D913C91509755966F
:104910008D919C915697F801E059FF4F82179307AC
:1049200010F481E080838081882351F1F801E15AFD
:10493000FF4FC80145969C0126503109E217F30745
:1049400039F00896DC0118972C912223A1F318C0A6
:104950008081D40154968C93549752968D919C915A
:104960005397019653969C938E93529751968C91A0
:10497000833008F074C083E0F401818F86E0828F79
:10498000F801E159FF4F8081882369F08981809582
:10499000782273FE75C087E0D40159968C9359979D
:1049A0005A961C926DC0F401828580959185892369
:1049B00082FF66C0D8011E969C911E9781E08927D0
:1049C0001E968C935DC0FB016082F40191899F5F0C
:1049D000918BF90180818C3358F5873288F09330C0
:1049E00008F0D9CC13966C92139712966C9212978A
:1049F00015965C921597E92FF0E0E65CF34E13C034
:104A0000823108F4C8CC933008F0C5CC13961C92C0
:104A1000139712966C92129715965C921597E92F40
:104A2000F0E0E05AF34EE4911496EC931497B3CC73
:104A3000813808F0B0CC933008F0ADCCF2E013969A
:104A4000FC93139712966C92129715965C92159799
:104A5000E92FF0E0E45FF34EE6CF8C931ACD81E0CE
:104A6000F801E159FF4F80838BCF82E0EA81FB811F
:104A700083834CCE83E0AA81BB8113968C9351CE65
:104A800026960FB6F894DEBF0FBECDBFDF91CF9153
:104A90001F910F91FF90EF90DF90CF90BF90AF905C
:104AA0009F908F907F906F905F904F903F902F904E
:104AB0000895CF92DF92EF92FF920F931F93CF93BF
:104AC000DF936C017A018B01C0E0D0E0CE15DF05E9
:104AD00089F0D8016D918D01D601ED91FC91019085
:104AE000F081E02DC6010995892B11F47E0102C0E9
:104AF0002196ECCFC701DF91CF911F910F91FF90CD
:104B0000EF90DF90CF9008951F93CF93DF93DC0158
:104B100020E030E040E050E011E0C1E0D0E02617B6
:104B2000370791F114968C911497811115C0149642
:104B30001C93149712968D919C911397ED91FC9173
:104B40001197E80FF91FE4911596EC9315970196CC
:104B500013969C938E93129714969C911497159686
:104B60008C911597892349F0FE01022E02C0EE0FA9
:104B7000FF1F0A94E2F74E2B5F2B990F14969C931C
:104B800014972F5F3F4FCBCFCA01DF91CF911F9179
:104B9000089508950E9451369091D3029EBD91E0F0
:104BA000813009F490E091959093D30221E030E0B8
:104BB0009FEFF901ED52FD4F6081813039F018F01F
:104BC000823039F011C02F5F3F4F0AC02F5F3F4F37
:104BD0000AC0A9014F5F5F4F203831401CF49A0191
:104BE000908302C09A0110820DB407FEFDCF6EBD06
:104BF000211544E03407ECF20DB407FEFDCF089513
:104C00000F931F93CF93DF938C01EB010E946334CA
:104C10008883C80101960E9463348983CE01DF91A5
:104C2000CF911F910F9108952F923F924F925F92D3
:104C30006F927F928F929F92AF92BF92CF92DF92AC
:104C4000EF92FF920F931F93CF93DF93CDB7DEB711
:104C50002B970FB6F894DEBF0FBECDBF4C016B0192
:104C60005A8349831C821B821D821E8268E070E089
:104C7000CE0101960E94842501961C0168E070E037
:104C8000CE0101960E9484258C0161E070E0CE0186
:104C900001960E948425482FC401820D931D97FD23
:104CA000D3C050E8851691040CF0CEC098012F5F58
:104CB0003F4FC601820F931F97FDC6C060E4C61622
:104CC000D1040CF0C1C08601D7FE04C00027112713
:104CD0000C191D09077011277601D7FE03C077E074
:104CE000E70EF11C63E0F594E7946A95E1F7D7FECF
:104CF00009C081E0E81AF10888E090E0BC01601B7F
:104D0000710B8B01690137FF03C077E0C70ED11C1F
:104D100053E0D594C7945A95E1F727703327232B96
:104D200019F08FEFC81AD80A4F8331E020E0A12C88
:104D3000B12C612C712C88E090E0AC01401B510B30
:104D4000598748876C147D040CF07EC0442443943A
:104D5000512C61E070E0CE0101962A873B870E94CA
:104D600084252A853B85892B21F452E0450E511C70
:104D7000F0CFB201CE0101960E948425AC014F5FB5
:104D80005F4FE0E0F0E02A853B85E417F50708F087
:104D900052C06F816111232B330F09F04AC0B70154
:104DA000660D771DCB010196099798F5C501880D11
:104DB000991D8038910568F52B015694542C442494
:104DC00057944794480C591C4A0C5B1C6F3F8FEF5B
:104DD0007807B1F1D201AD52BD4F822F002E01C034
:104DE000880F0A94EAF79C91892B8C930115110581
:104DF00081F06730710569F0D201AD5ABC4F30E0E7
:104E0000088402C0359527950A94E2F78C91282BE7
:104E10002C939FEFA91AB90AA214B30444F06FEFC0
:104E2000661A760A31E020E0A12CB12C02C031E0F4
:104E300020E03196AACF4F8151E045274F8382CFA2
:104E400001151105C9F6E5CF2B960FB6F894DEBF14
:104E50000FBECDBFDF91CF911F910F91FF90EF90CB
:104E6000DF90CF90BF90AF909F908F907F906F908A
:104E70005F904F903F902F900895CF93DF9300D095
:104E800000D0CDB7DEB7611571058105910579F0C8
:104E90009B01AC0169833A834B835C830E94553448
:104EA00029813A814B815C810E94793403C060E0A2
:104EB00070E0CB010F900F900F900F90DF91CF918A
:104EC00008956115710579F0FB0101900020E9F763
:104ED0003197AF01461B570BDC01ED91FC9102802D
:104EE000F381E02D099480E090E008952F923F92A5
:104EF0004F925F926F927F928F929F92AF92BF92EA
:104F0000CF92DF92EF92FF920F931F93CF93DF9395
:104F1000CDB7DEB7AC970FB6F894DEBF0FBECDBFEE
:104F20007C016B01042FCE01889699A788A715E410
:104F30004E0192E2890E911CEE27FF27E61BF70B2C
:104F4000FBA7EAA7F6E0F80DFCA7370122E0620E06
:104F5000711C8AE0282E312C412C512C86E0F40162
:104F600011928A95E9F7C601D7FE02C08AA59BA5D2
:104F7000F4016AE070E00E94F6348193CB012CA525
:104F80002E13F7CFF701178316830087E8A5F9A53D
:104F90002291F9A7E8A730E040E050E019A2CE0145
:104FA00081965C01CA01B901A20191010E94AB3452
:104FB000605DF50162935F012115310541055105E1
:104FC00089F7BF01C3010E9461271B5F133631F6C9
:104FD000AC960FB6F894DEBF0FBECDBFDF91CF9178
:104FE0001F910F91FF90EF90DF90CF90BF90AF9007
:104FF0009F908F907F906F905F904F903F902F90F9
:1050000008953FB7F8948091D4069091D506A09169
:10501000D606B091D70626B5A89B05C02F3F19F03C
:105020000196A11DB11D3FBFBA2FA92F982F882728
:10503000820F911DA11DB11DBC01CD0142E0660F83
:10504000771F881F991F4A95D1F708951F920F92D5
:105050000FB60F9211242F933F938F939F93AF938B
:10506000BF938091CF029091D002A091D102B091D4
:10507000D2023091D30623E0230F2D3720F401967E
:10508000A11DB11D05C026E8230F0296A11DB11D6B
:105090002093D3068093CF029093D002A093D102A5
:1050A000B093D2028091D4069091D506A091D606F5
:1050B000B091D7060196A11DB11D8093D40690939F
:1050C000D506A093D606B093D706BF91AF919F9116
:1050D0008F913F912F910F900FBE0F901F901895B9
:1050E0002F923F924F925F926F927F928F929F92F8
:1050F000AF92BF92CF92DF92EF92FF920F931F93E6
:10510000CF93DF9300D000D000D0CDB7DEB7CD82F3
:105110004115510509F43BC1FA0134913196E491EE
:105120004E5F5F4FA32EB12C211102C0EE2061F122
:105130008E2E869486948694912CA1E0B0E0FE2F6A
:10514000F77011F4A0E0B0E08A0E9B1EA89CD0017D
:10515000A99CB00DB89CB00D1124FD81F33019F459
:10516000AA0FBB1F0AC00115110539F0EA9E4001C4
:10517000EB9E900C1124080D191D2A9F70012B9F86
:10518000F00C11244E0D5F1D2D812F3F39F40115B8
:10519000110511F021E001C022E02D837C01EA0C11
:1051A000FB1C1E141F040CF0F2C0803891050CF09B
:1051B000EEC0DB01AE0FB11D1A161B060CF0E7C0E6
:1051C000603471050CF0E3C04115510509F4DFC0EE
:1051D000F62FF7706F2EDB0177FD179623E0B5955C
:1051E000A7952A95E1F7FA2F77FF04C0662011F002
:1051F000FFEFFA0F97FF05C0AA27BB27A81BB90B23
:1052000002C0A0E0B0E020E8E216F10424F020E8BB
:10521000722E781A01C0732E7A1A6F2F0F2E000C7F
:10522000770BFF3F1CF4C62EC09401C0C12C9924FB
:1052300093942E2F277009F4912CE695E695E69528
:105240009E0E690D711D693071051CF0E8E09E2EFF
:105250009F1ADC2CDF0E6D2D20E86203800D911D5E
:1052600011248A0F9B1F61E070E0062C02C0660FBC
:10527000771F0A94E2F72D81233011F0E1E001C09D
:10528000E2E0A718B108EA9D802C1124EE2EF12C43
:10529000C39EA00DB11D1124EA9E9001EB9E300D1E
:1052A000FA9E300D11245A01A20EB31E01151105EC
:1052B00009F0A801D70111972A0F3B1F420F531F76
:1052C000AFEFA69F9001A79F300D112429014094B4
:1052D0005094F90DFE83282D30E0E79D200D311DFF
:1052E0001124EE81DE1609F452C0DC01AD52BD4F2F
:1052F0004A018501C12CC71409F441C0F80134905A
:10530000369EF001379EF00D1124FA83E983E09573
:10531000F095FC83EB83FD81F23019F45C824B82C3
:1053200011C0ED81EB3F19F41A8219820BC0F40110
:105330003490369EF001379EF00D1124E095F095E3
:10534000FC83EB83D7FC06C0FC91EB81EF23F98152
:10535000EF2BEC93662061F0F6E0FD154CF0FD01BB
:10536000E058FF4F20803C8023203A803228308252
:105370008E0C9F1C0E0D1F1DC3941196BCCFD39491
:10538000A20EB31E420F531F80589F4FAACF2696DE
:105390000FB6F894DEBF0FBECDBFDF91CF911F9146
:1053A0000F91FF90EF90DF90CF90BF90AF909F90C4
:1053B0008F907F906F905F904F903F902F900895C7
:1053C000CF92EF920F931F933BEFC32EE12C00E09F
:1053D00010E00E9470281F910F91EF90CF900895D8
:1053E000CF92EF920F931F9332E0C32EE12C00E097
:1053F00010E00E9470281F910F91EF90CF900895B8
:10540000CF92EF920F931F93F901202FCC24C394D6
:105410008F010E9470281F910F91EF90CF900895F7
:10542000F89487E78093000880930108A89588E1A5
:105430008093600088E080936000FFCF8F929F92FE
:10544000AF92BF92CF92DF92EF92FF926C01E12C6C
:10545000F12C0E9401284B015C01C114D104E1042C
:10546000F104F1F00E940128DC01CB0188199909AF
:10547000AA09BB09883E9340A105B10570F321E05C
:10548000C21AD108E108F10888EE880E83E0981E60
:10549000A11CB11CC114D104E104F10419F7DDCF42
:1054A000FF90EF90DF90CF90BF90AF909F908F9044
:1054B00008958FB18095807F669B88601C9B846077
:1054C0000895EF92FF920F931F93CF93DF9300D035
:1054D000CDB7DEB78C017B01FB0160819A838983A4
:1054E000CE0101960E949920F70161810F5F1F4F45
:1054F0001A830983CE0101960E949920C7010F905B
:105500000F90DF91CF911F910F91FF90EF90089531
:10551000CF93DF9300D0CDB7DEB79A838983CE01D6
:1055200001960E9499200F900F90DF91CF910895DE
:10553000CF93DF9300D0CDB7DEB71A821982BE01B8
:105540006F5F7F4F90E00E94002689819A810F90C3
:105550000F90DF91CF910895BF92CF92DF92EF929B
:10556000FF920F931F93CF93DF9300D000D0CDB75E
:10557000DEB76C018E010F5F1F4FE62EF12CE01A93
:10558000F10A83E0B82EB00EC701800F911F0E9470
:105590006334F80181938F01BE12F6CF1C8289819A
:1055A0009A81AB81BC81F60180839183A283B3830E
:1055B0000F900F900F900F90DF91CF911F910F914F
:1055C000FF90EF90DF90CF90BF9008950F931F93BF
:1055D000CF93DF9300D0CDB7DEB7082F85E690E0FC
:1055E0000E946334182F86E690E00E946334011114
:1055F00005C0163419F4803509F459C066E485E60F
:1056000090E00E94882A60E586E690E00E94882A61
:1056100007E610E060E0C8010E94882A0F5F1F4F74
:105620000A371105B9F761E487E690E00E94882AFD
:1056300062E48BE690E00E94882A63E48FE690E0C3
:105640000E94882A61E488E690E00E94882A62E449
:105650008CE690E00E94882A63E480E790E00E9454
:10566000882A61E489E690E00E94882A62E48DE657
:1056700090E00E94882A63E481E790E00E94882AF3
:105680001A821982BE016F5F7F4F83E790E00E940C
:10569000612ABE016F5F7F4F85E790E00E94612A1B
:1056A000BE016F5F7F4F87E790E00E94612A0F90F5
:1056B0000F90DF91CF911F910F9108956F927F927C
:1056C0008F929F92AF92BF92CF92DF92EF92FF9212
:1056D0000F931F93CF93DF93EC01FB01C780D0841E
:1056E00021E040E00E948017E12C00E02BE033E253
:1056F00045E953E263E070E08FE190E00E94002A08
:1057000025E230E247E951E260E170E08DE190E0AE
:105710000E94002A13E21F831E8385E188877E0191
:10572000F2E0EF0EF11CBE016D5E7F4FC7010E94DB
:1057300061276DA17EA145E1CE010E9476271F83DE
:105740001E838EE18887BE01695E7F4FC7010E947C
:1057500061276FA178A54EE1CE010E9476271F83B5
:105760001E8387E28887BE01655E7F4FC7010E9466
:10577000612769A57AA547E2CE010E9476272F8589
:105780002F3F09F470C0C60168E370E00E94F63450
:105790004D9708F468C0FE01E20FF11DE20FF11D04
:1057A000878C90A049E0249F90011124C90145965F
:1057B000A88866E0A69E50011124A5014E5D5F4FAA
:1057C000E8E2AE0EB11C235E3F4F60E1762E76E339
:1057D000C72E75E1D72E4A155B0541F1BC0197FF35
:1057E0001BC060E070E018C06E177F07E4F440381B
:1057F000510584F48B01F601709ED001A07811242C
:10580000A40F0770E00FF11D6490AD52BD4FEC91F5
:105810006E2A6C926F5F7F4FF9012134310524F3BA
:10582000E0E4F0E0E1CF4F5F5F4FD5CF19868F8581
:1058300099E0899F902D11249B5E2889822F880FE3
:10584000820F880F8D5D8F838E839887EA81FB811D
:10585000D401A20FB11D0190F081E02D6C91C70120
:10586000099581E089878F858F3F79F48A89811135
:105870000CC0E12C00E023E73FE14BEC5FE164E387
:1058800070E08BE290E00E94002A80E0DF91CF91EF
:105890001F910F91FF90EF90DF90CF90BF90AF904E
:1058A0009F908F907F906F900C94CC25CF92DF9239
:1058B000EF92FF921F93CF93DF93EC01FB01828560
:1058C00011852F852F3F09F48DC0878190856CE06D
:1058D00070E00E94F6346C01892B09F08DC017FF2F
:1058E00020C0FE01E20FF11DE20FF11D278D30A156
:1058F0008889F901E80FF11D80818F5F8083888995
:10590000F901E80FF11D80818B3514F081E480836B
:105910008889F901E80FF11D8081803411F481E458
:10592000808314FF21C08F85FE01E80FF11DE80F71
:10593000F11D278D30A18889F901E80FF11D8081C3
:10594000815080838889F901E80FF11D80818134BD
:1059500014F48AE580838889F901E80FF11D8081BC
:105960008E3311F48AE5808315FF05C0888988236A
:1059700011F08150888B16FF05C08889823010F4A1
:105980008F5F888B13FF38C08F85FE01E80FF11DF4
:10599000E80FF11D078CF0A1E02D80818F3361F1BC
:1059A00081818F3349F182818F3331F17F01F7019A
:1059B00061917F018F85960144E08402200D311DA5
:1059C0001124C90189599F4F0E94882A5FEFC51A87
:1059D000D50A83E0C816D10451F78FEF8F8784E68C
:1059E0008A8B0AC08095812383FF06C08A89811132
:1059F00003C082E0818F128E898917FF4DC014FF8A
:105A00004BC08F5F898B853108F454C08D3388F18A
:105A10008D3309F04FC0198A83E884BD8FEF87BDAD
:105A200081EF809380001092880010928A0081E0BC
:105A30000E94E62A67E6CE0143960E94AC2A6BE6F6
:105A4000CE0147960E94AC2A6FE6CE014B960E948B
:105A5000AC2A83E70E94982A9EA38DA385E70E9423
:105A6000982A98A78FA387E70E94982A9AA789A7C0
:105A700021C020E430E0F901E81BF109CF01880FD3
:105A800093E894BD9FEF97BD91EF909380001092A3
:105A9000880080938A000EC0882361F083E884BD6B
:105AA0008FEF87BD81EF8093800010928800109265
:105AB0008A00198A8A89882311F081508A8BDF91A4
:105AC000CF911F91FF90EF90DF90CF9008952F928C
:105AD0003F924F925F926F927F928F929F92AF927E
