:100000000C94FA170C9422180C9422180C942218B1
:100010000C9422180C9422180C9422180C94221878
:100020000C9422180C9422180C9422180C94221868
:100030000C9422180C9422180C9422180C94221858
:100040000C9422180C9422180C9422180C94221848
:100050000C9422180C9422180C9422180C94C22987
:100060000C9422180C9422180C9422180C94221828
:100070000C9422180C9422180C9422180C94221818
:100080000C94CD190C9422180C9422180C9422185C
:100090000C9422180C9422180C9422180C942218F8
:1000A0000C9422180C9422180C9422187A3491344F
:1000B000CF34CF34B0341A35FB340E18FEFEFCF9C1
:1000C000F7FBF93143677FFFFFFFFFFFFFFFFFFFF4
:1000D000FFFFDFCE80303F7FFFFFFFFFFFFFFFBF4F
:1000E000BF97C7F3F8FC01010306080406CEBC98CD
:1000F00080000000000000000000000020317FCFE1
:10010000C08000000000000000404068380C070379
:100110002A183F9FDFC3B1F9F9F3C7F1FCFEFCF1E8
:10012000C7F3F9F9F3C7F7FBFBE78FBF0F67E68E5D
:100130003C3977FBF93143677FFFFFFFFEFFFFFF8D
:10014000FFFFFFFFFFFFFFFFFFFFFFFFFFFFFFFFBF
:10015000FFFFFFFFFFFFFFFEFFF773680C9FFFFF2E
:10016000DFCE80303F7FFFFFFFFFFFFFFFFFFFFF7E
:10017000FFFFFFFFFFFFFFFFFFFFFFFFFFFFFFFF8F
:10018000FFBFBF97CFEFE6E0F1BFBF97C7F3F8FC23
:10019000C060203C4E06060C380E0301030E380CDE
:1001A00006060C38080404187040F0981971C3C68C
:1001B000880406CEBC98800000000100000000000A
:1001C000000000000000000000000000000000002F
:1001D00000000000000100088C97F360000020314F
:1001E0007FCFC08000000000000000000000000081
:1001F00000000000000000000000000000000040BF
:1002000040683010191F0E404068380C070323184F
:100210003F9FDFC3B1F9F9F347717CFEFC7147736F
:1002200079F9F3C7F7FBFBE78FBF0F67E78F3F3F16
:100230007FFFFFFEFFF3F9F9F3F9FCFEFEFEFCFE83
:10024000FEFFFFFEFCF9FDFCFCF8C1D39F1F3EFF43
:10025000F773680C9FFFFFFFFFFFFFFFFFFFFFFF2C
:10026000FFFFFFFFFFFFFFFFFFBF7F7F3FBB93C588
:10027000FCBEBF97CFEFE6E0F1C060203C4E060623
:100280000CB88E8301038EB88C86060C38080404E3
:10029000187040F0981870C0C080000001000C0673
:1002A000060C06030101010301010000010306021F
:1002B0000303073E2C60E0C100088C97F360000048
:1002C000000000000000000000000000000000002E
:1002D0000000408080C0446C3A03414068301019EF
:1002E0001F0E1E18FFFFFFFFE77373E77399CCEC37
:1002F000CC19EDF4F6660CB9B33B3979F183A73F1D
:100300003F7FBFBF9FA7B09ECFE69C3F7F3F9F7FB1
:10031000FFFFFF7E3F8FEF67F0F87F77278BF8FCBA
:10032000FFFF3F7FFFFF7FFFFFFF3F7FFFFF7EFE5F
:10033000FEFF3F7FFFFF7EFEFEFF3F7FFFFF0000CF
:100340000000188C8C188C66331333E6120B099955
:10035000F3464CC4C6860E7C58C0C08040406058EE
:100360004F61301963C080C0608000000081C070A0
:1003700010980F078088D874070300E02040808021
:10038000008000E020408080018101E020408080EA
:10039000018101E0204080801810FFFFFFFF1FCF88
:1003A000EFDF8FF3F9FDF9E3FDFEFECCE1F7F7E7B0
:1003B000070FF7F7F3F4F6F3F9FCF3E7EFE7F3EFE2
:1003C000DFDFDFEFE7F1FDFCFEFF00000000E030C3
:1003D0001020700C0602061C020101331E080818CA
:1003E000F8F008080C0B090C06030C1810180C1078
:1003F00020202010180E02030100D5F08D14A1C892
:1004000081CFD9F1AF200018BCFEFFFFFEFCFEFF3C
:10041000FFFEBC1803070F1F1F0F070F1F1F0F073B
:10042000030D0D18A4422151EAF4E2418142A418BF
:10043000030408101008050A111008040300808046
:10044000C0C0C0FFFFFFFFFFFFFFFFFFFFFFFFFF79
:10045000FFFFFFFFFFFFFFFFFFFFFFFFFFFFFF802B
:10046000C1C3C3E3E3FFFFFFFFFFFFFFFFFFFFFF8A
:100470007FFFFFFFFFFFFFFFFFFFFFFFFFFFFFFF0C
:10048000FFC0E0E1E1E1E1FFFFFFFFFFFFFFFFFF52
:10049000FFFF3F7F7F7FFFFFFFFFFFFFFFFFFFFFAC
:1004A000FFFFFF000000000000FFFFFFFFFFFFFF56
:1004B000FFFFFFFF0000000000000F1F3F7FFFFF56
:1004C000FFFFFFFFFF1140008080404040BF8040A1
:1004D000DFDF10D7EAEA6D75FF00F6F77B787B7AED
:1004E000393D3D3E3E3E1E1F1F80414242A222BE7C
:1004F000A2A2BE9E10D6D4D5E8EA7F803B3B3B3813
:100500003B393D3D3D3C3D3D3D3D3DC020A1A1A190
:1005100021BFA1A1BCBE20AEA8AAA8AA3F405D5D94
:10052000BDBC3B3A3A7B7B78F7F7F7F7F700000062
:10053000000000FF0101FAF4FAF4F8F4E8F1000019
:10054000000000000F1020478F3F7FFFFFFFFFFFDD
:10055000FFFFFFFFFFFFFFFFFFFFC0C0C080800065
:10056000FFFFFFFFFFFFFFFFFFFFFFFFFFFFFFFF9B
:10057000FFFFFFFFFFFFFFFFFFFFFFFFE3E3C7C733
:10058000C381FFFFFFFFFFFFFFFFFFFFFFFFFFFF35
:10059000FFFF7FFFFFFFFFFFFFFFFFFFFFFFE1E127
:1005A000E1E1E0C0FFFFFFFFFFFFFFFFFFFFFFFFF5
:1005B000FFFFFF7F3FFFFFFFFFFFFFFFFFFFFFFF8B
:1005C000010100000000FFFFFFFFFFFFFF7F3F1F53
:1005D000070000000000001140756DEAEAD710DF47
:1005E000DF4080BF4040408080001F1F1E3E3E3ED7
:1005F0003D3D397A7B787BF7F600FFEAE8D5D4D623
:10060000109EBEA2A2BE22A2444442813D3D3D3D79
:100610003D3C3D3D3D393B383B3B3B807FAAA8AA52
:10062000A8AE20BEBCA1A1BF21A1A1A120C0F7F707
:10063000F7F7F7787B7B3A3A3B3C3D9D9D403FF195
:10064000E8F4F8F4FAF4FA0101FF010100000000F7
:10065000FFFFFFFF7F3F8F472010070000000000D3
:1006600000800DFFFFFFFFFFFFFFFFFFFFFFFFFF0A
:10067000FFFFFFFFFFFFFFFFFFFFFFFFFFFFFFFF8A
:10068000FFFFFFFFFFFFFFFFFFFFFFFFFFFFFFFF7A
:10069000FFFFFFFFFFFFFFFFFFFFFFFFFFFFFFFF6A
:1006A000FFFFFFFFFFFFFFFFFFFFFFFFFFFFFFFF5A
:1006B000FFFFFFFFFFFFFFFFFFFFFFFFFFFFFFFF4A
:1006C000FFFFFFFFFFFFFFFFFFFFFFFFFFFFFFFF3A
:1006D000FFFFFFFFFFFFFFFFFFFFFFFFFFFFFFFF2A
:1006E000FFFFFF1F1F1F1F1F1F1F1F1F1F1F1F1F7A
:1006F0001F1F1F1F1F1F1F1F1F1F1F1F1F1F1F1F0A
:100700001F1F1F1F1F1F1F1F1F1F1F1F1F1F1F1FF9
:100710001F1F1F1F1F1F1F1F1F1F1F1F1F1F1F1FE9
:100720001F1F1F1F1F1F1F1F1F1F1F1F1F1F1F1FD9
:100730001F1F1F1F1F1F1F1F1F1F1F1F1F1F1F1FC9
:100740001F1F1F1F1F1F1F1F1F1F1F1F1F1F1F1FB9
:100750001F1F1F1F1F1F1F1F1F1F1F1F1F1F1F1FA9
:100760001F1F1F800DFEBEBEBEBEBEBEBABABA3AC5
:100770003ABABA9A8AAAA2B2B2BAB8B8BABABEBEDD
:10078000BEBEBEBEBEBEBEBEBEBEBEBEBEBEBEBE89
:10079000BABABABA3A1A8AA2B0B8BABABEBEBEBE1D
:1007A000BEBEBEBEBEBEBEBEBEBEBEBEBEBEBEBE69
:1007B000BEBEBEBABAB8A0021ABABABABABABEBEF9
:1007C000BEBEBEBEBEBEBEBEBEBEBEBEBEBEBEBE49
:1007D000BEBEBABABABAB8B8B8B0A2820A1A3ABAA1
:1007E000BABABABABA1F1F0717131B191D1C1E1F4E
:1007F0001F1F1F1F1F1F1F1F1F1F1F1F1F1F1F1F09
:100800001F1F1F1F1F1F1F1F1F1F1F1F1F1F1F1FF8
:100810001F07111C1E1F1F1F1F1F1F1F1F1F1F1F12
:100820001F1F1F1F1F1F1F1F1F1F1F1F1F1F1F1FD8
:100830001F1F1F1F1F1F1F1F1C10030F1F1F1F1F06
:100840001F1F1F1F1F1F1F1F1F1F1F1F1F1F1F1FB8
:100850001F1F1F1F1F1F1F1F1F1F1F1F1F1E1810BF
:1008600001030F1F1F9803E2020E021001BA00F8E5
:10087000FFFFFEFCFCFCFC0303030303030303086C
:100880000A280709221424080401010201010101B8
:1008900001DC003200B80132007003320000801E1B
:1008A000002300410014006E000F0055002D0000D1
:1008B000801219131514121510160F17101812198B
:1008C000141A171B1B1C201D251E201F1B20162160
:1008D00011220C2308240525032602270129012AB9
:1008E000022B032C052D072E0A2F0D301131163245
:1008F0001B332134253521361E371A381639123A62
:100900000E3B0B3C093D083E073F074007410842AC
:1009100009430B440E45124616471A481E49214A00
:10092000254B224C1F4D1C4E1A4F1851165315556E
:1009300014571459145B145D155F166118621A631D
:100940001C641F65226625120F130B14071504166D
:100950000317041807190B1A171B1B1C201D251E33
:10096000201F1B20162111220C23082405250326F5
:1009700002270129012A022B032C052D072E0A2FFD
:100980000D30113116321B332134253521361E37F7
:100990001A381639123A0E3B0B3C093D083E073F08
:1009A00007400741084209430B440E4512461647CB
:1009B0001A481E49214A254B224C1F4D1C4E1A4FE6
:1009C00018511653155514571459145B145D155FBF
:1009D000166118621A631C641F65226625120113D2
:1009E0000114011501160217041807190B1A101B20
:1009F000171C1E1D251E201F1B20162111220C2333
:100A000008240525032602270129012A022B032C8D
:100A1000052D072E0A2F0D30113116321B332134CC
:100A2000253521361E371A381639123A0E3B0B3C43
:100A3000093D083E073F07400741084209430B4470
:100A40000E45124616471A481E49214A254B224C8C
:100A50001F4D1C4E1A4F1851165315551457145943
:100A6000145B145D155F166118621A631C641F65C0
:100A7000226625030407040316124A2B462B422B39
:100A80003F2A3C293A2739243820371B371637119B
:100A9000370C380839053A033C023E014100440056
:100AA00047004A004C00120E372B3725371F3719E5
:100AB0003713370D380839053A033C013E01400031
:100AC00042004400460048004A004C00130F202B0F
:100AD00022252420261B28162A112C0C2E0830052E
:100AE0003203350238013B003E004100440047001C
:100AF0004A004C009402320000806C0232000080F8
:100B000044023200008094023200B8013200B40086
:100B100032000080DC003200B80132007003320085
:100B20000080F0F8FCFEFFFFFFFF0707FFFFFFFF5D
:100B3000FFFFFFFF0000010307070707070700008B
:100B40000A13F008F412B535E5050101FF00EF08BE
:100B5000288CEF00000001020505050501000000DA
:100B60003C3E3F3F3F3E3C07063C023D0105023C08
:100B70003C0205013D023C0000000080C0E0E0E0D6
:100B8000E0E0E0E0E0E0E0E0E0FCFEFFFFFFFEFC94
:100B9000C080000000000000FEFFFFFFFFFFFFFF1E
:100BA000FFFFFFFFFFFFFFFFFFFFFFFFFFFFFFFF55
:100BB000FFFFFCF8000000FFFFFFFFFFFFFFFFFF4C
:100BC000FFFFFFFFFFFFFFFFFFFFFFFFFFFFFFFF35
:100BD000FFFFFF00060F0F1F1F1F3F7F7F7F7F3F1D
:100BE0001F1F1F1F1F1F1F1F3F7F7F7F7F3F1F1F55
:100BF0001F0F071F1F000000008040A0A0A0A0A0A2
:100C0000A0A0A0A0A0A0A0BC828581BD823C408005
:100C1000000000000000FE01FC85FD01FF03FDBD9A
:100C2000DDEDBD9D85FD03FF0305BDDDAD3C380356
:100C300004F8000000FF0082B24ABBBBBBBA7AFADC
:100C4000CACE8686CECBFB7BBABABAB26AE2EA00DB
:100C5000FF0006090A16111623414C4441231611C0
:100C600013131313111623414C4441231611170873
:100C700007F8FCFEFFFFFFFFFFFFFFFFFFFFFFFF87
:100C8000FFFFFFFFFFFFFFFFFFFFFFFFFFFFFFFF74
:100C9000FFFFFFFFFFFFFFFFFFFFFFFFFFFFFFFF64
:100CA000FEFCF8FFFFFFFFFFFFFFFFFFFFFFFFFF5F
:100CB000FFFFFFFFFFFFFFFFFFFFFFFFFFFFFFFF44
:100CC000FFFFFFFFFFFFFFFFFFFFFFFFFFFFFFFF34
:100CD000FFFFFFFFFF070F1F3F3F3F3F3F3F3F3FEC
:100CE0003F3F3F3F3F3F3F3F3F3F3F3F3F3F3F3F14
:100CF0003F3F3F3F3F3F3F3F3F3F3F3F3F3F3F3F04
:100D00003F3F3F3F1F0F07321600F804F20A0A0A5E
:100D10000A0A0A4ACACA4ACA8A0A4ACACA0A0ACA73
:100D2000CA0ACACA0A8ACA4ACA8A0A4ACACA4ACA63
:100D30000A0A0A0A0A0A0AF204F80000FF00FF0081
:100D4000000000000080FFFF880F0380FE27FFF8EF
:100D5000803FFF80FF3F0043C78EFC780080FFFF8D
:100D600084CE00000000000000FF00FF0000070824
:100D70001314141414141414141414141414141434
:100D80001414141414141414141414141414141423
:100D9000141414141414141414141413080700F85D
:100DA000FCFEFFFFFFFFFFFFFFFFFFFFFFFFFFFF57
:100DB000FFFFFFFFFFFFFFFFFFFFFFFFFFFFFFFF43
:100DC000FFFFFFFFFFFFFFFFFFFFFFFFFFFFFFFF33
:100DD000FFFFFFFFFFFFFFFFFFFFFFFFFEFCF8FF2E
:100DE000FFFFFFFFFFFFFFFFFFFFFFFFFFFFFFFF13
:100DF000FFFFFFFFFFFFFFFFFFFFFFFFFFFFFFFF03
:100E0000FFFFFFFFFFFFFFFFFFFFFFFFFFFFFFFFF2
:100E1000FFFFFFFFFFFFFFFFFFFFFFFFFFFFFF07DA
:100E20000F1F3F3F3F3F3F3F3F3F3F3F3F3F3F3F22
:100E30003F3F3F3F3F3F3F3F3F3F3F3F3F3F3F3FC2
:100E40003F3F3F3F3F3F3F3F3F3F3F3F3F3F3F3FB2
:100E50003F3F3F3F3F3F3F3F3F3F3F3F1F0F074029
:100E60001600F804F20A0A0ACA4ACACA0A0A4ACA90
:100E7000CA0A0A4ACACA0ACACA4A4ACACA4ACA0AD2
:100E80000A0A0A0ACA4ACA0A4ACACA0ACA4A4ACA42
:100E9000CA4ACA0A4ACACA4ACA8A0A0A0AF204F8E2
:100EA0000000FF00FF00003FFF807CFD0480FE2764
:100EB000FFF88080FF1F0EFFFF8080FFFF84CE00C1
:100EC0000000003FFF80FF3F0003FFFC070080FFA2
:100ED000FF84CE0080FFFF08FFF3800000FF00FFCB
:100EE0000000070813141414141414141414141404
:100EF00014141414141414141414141414141414B2
:100F000014141414141414141414141414141414A1
:100F100014141414141414141414141414130807AB
:100F20000004087EFF817E82FEFF80C6A19FCE6600
:100F300089FF7638ACFFB06F89F9707EFF857883C2
:100F4000F1FD83768D99761EBFA17E181AFFFFFFF3
:100F5000FFFFFFFFFFFFFFFFFFFFFFFFFFFFFFFFA1
:100F6000FFFFFFFFFFDFDFDFDFDF5F5F5F5F1F1F71
:100F70001F1F5F5F5F5F5F5F5F5F5F5F5FF7F7F739
:100F8000F7F7F7F7F7F7F7F7F7F6F4F0E1C3071716
:100F90003777F7F7F703030303030303030303039D
:100FA0000303030303030302000001030300000023
:100FB0000000000000000000000000000000000031
:100FC0000000000000C0C0C0C0C040404040000061
:100FD00000004040404040404040404040F7F7F76C
:100FE000F7F7F7F7F7F7F7F7F7F6F4F0E1C30717B6
:100FF0003777F7F7F703030303030303030303033D
:1010000003030303030303020000010303F8FFFFCC
:10101000FEFCFCFCFC0303030303030303080A2890
:101020000709221424080401010201010101010041
:1010300000000070F8FCFEFEFFFFFEFC60000000F8
:1010400000000000000000000000000060FCFEFF47
:10105000FFFEFEFCF870000000000080800082C7E8
:10106000E7FFFFFFFFFFFEFCFCFC3838383838385C
:101070003838B8B838FCFCFCFFFFFFFFFFFFC7871C
:101080000200000000070F1F1F0F07010100040EE0
:101090001F3F3F1B010000000000000003070F1F5F
:1010A0000F0701000000000F1F1F1F1E0C00000093
:1010B0000000000070F8FCFEFEFFFFFEFC60000078
:1010C0000000000000000000000000000060FCFEC6
:1010D000FFFFFEFEFCF870000000000000000002B0
:1010E000C7E7FFFFFFFFFFFEFCFCFC38B8B838384D
:1010F0003838383838B8FCFCFCFFFFFFFFFFFFC76B
:101100008702808000000000000C1E1F1F1F0F00C0
:1011100000000001070F1F0F070300000000000080
:10112000011B3F3F1F0E04000101070F1F1F0F0788
:10113000002B160000000070880402160141229C5A
:10114000600000000000000000000000000000003F
:10115000609C22410116020488700000000000809B
:1011600080008245243E80808091322444C4282817
:10117000282828282828A8A828C4442493918080B7
:10118000003E448502000000000708101108060117
:101190000100040A1121241A0100000000000000CF
:1011A00003040811080601000000000F10121312BA
:1011B0000C000000000000007088040216014122AB
:1011C0009C60000000000000000000000000000023
:1011D00000609C224101160204887000000000009B
:1011E00000000002C5243E00808091B22444C4283F
:1011F000A8A828282828282828A84444249391808F
:1012000080003E448502808000000000000C121324
:1012100012100F000000000106081108040300006E
:1012200000000000011A2421110A0400010106082F
:101230001110080700F8FCFCFCFC78F8FCFCFCFC36
:10124000FCF8F8FCFCFCFCFCB8F8FCFCFCFCF8F836
:10125000FCFCFCFCD8F8FCFEFFFFFFFFFFFFFEFCE0
:10126000F80103030100000103030101030301036B
:101270000303030301030303030100030303030147
:10128000000103070F0F0F0F0F0F0703012C0CF8BE
:101290000404B48448F80404D41404C8F80404D43E
:1012A0009464B84884941424F84884941424D8F896
:1012B000040201F14949F1010204F80102020100AE
:1012C0000001020201010202010202020202010205
:1012D00002020201000202020201000102040809E6
:1012E000080809080402010408022905023E090948
:1012F0003E3F25251A1E2121123F21211E3F252573
:10130000213F0505011E21293A3F04043F213F21C9
:10131000001021211F3F040A313F2020203F0202FC
:101320003F3F02043F1E21211E3F0909061E2111D5
:101330002E3F09093622252519013F01011F2020D2
:101340001F0F10201F3F10103F3B04043B030438C5
:1013500007312D23211E29251E223F200032292955
:10136000261221251A0C0A3F08172525191E2525A6
:1013700018013905031A25251A0629291EF8FCFE2D
:10138000FFFFFFFFFFFFFFFFFFFFFFFFFFFFFFFF6D
:10139000FFFFFFFFFFFFFFFFFFFFFFFFFFFFFFFF5D
:1013A000FFFFFFFFFFFFFFFFFFFFFFFFFFFFFFFF4D
:1013B000FFFFFFFFFFFFFFFFFFFFFFFFFFFFFFFF3D
:1013C000FFFFFFFFFEFCF8FFFFFFFFFFFFFFFFFF38
:1013D000FFFFFFFFFFFFFFFFFFFFFFFFFFFFFFFF1D
:1013E000FFFFFFFFFFFFFFFFFFFFFFFFFFFFFFFF0D
:1013F000FFFFFFFFFFFFFFFFFFFFFFFFFFFFFFFFFD
:10140000FFFFFFFFFFFFFFFFFFFFFFFFFFFFFFFFEC
:10141000FFFFFFFFFFFFFFFFFFFFFFFFFFFFFFFFDC
:10142000FFFFFFFFFFFFFFFFFFFFFFFFFFFFFFFFCC
:10143000FFFFFFFFFFFFFFFFFFFFFFFFFFFFFFFFBC
:10144000FFFFFFFFFFFFFFFFFFFFFFFFFFFFFFFFAC
:10145000FFFFFFFFFFFFFFFFFFFFFFFFFFFFFFFF9C
:10146000FFFFFFFFFFFFFFFFFFFFFFFFFFFFFFFF8C
:10147000FFFFFFFFFFFFFFFFFFFFFFFFFFFFFFFF7C
:10148000FFFFFFFFFFFFFFFFFFFFFFFFFFFFFFFF6C
:10149000FFFFFFFFFFFFFFFFFFFFFFFFFFFFFFFF5C
:1014A000FFFFFFFFFF0103070F0F0F0F0F0F0F0FBE
:1014B0000F0F0F0F0F0F0F0F0F0F0F0F0F0F0F0F3C
:1014C0000F0F0F0F0F0F0F0F0F0F0F0F0F0F0F0F2C
:1014D0000F0F0F0F0F0F0F0F0F0F0F0F0F0F0F0F1C
:1014E0000F0F0F0F0F0F0F0F0F0F0F0F0703014AF3
:1014F00024F804FA0D05050505050505050505058E
:10150000050505050505050505050505050505058B
:10151000050505050505050505050505050505057B
:10152000050505050505050505050505050505056B
:10153000050505050505050DFA04F8FF00FF000087
:10154000000000000000000000000000000000009B
:10155000000000000000000000000000000000008B
:10156000000000000000000000000000000000007B
:10157000000000000000000000000000000000006B
:101580000000FF00FFFF00FF00000000000000005F
:10159000000000000000000000000000000000004B
:1015A000000000000000000000000000000000003B
:1015B000000000000000000000000000000000002B
:1015C000000000000000000000000000FF00FFFF1E
:1015D00000FF00000000000000000000000000000C
:1015E00000000000000000000000000000000000FB
:1015F00000000000000000000000000000000000EB
:1016000000000000000000000000000000000000DA
:10161000000000000000FF00FF0102050B0A0A0A9B
:101620000A0A0A0A0A0A0A0A0A0A0A0A0A0A0A0A1A
:101630000A0A0A0A0A0A0A0A0A0A0A0A0A0A0A0A0A
:101640000A0A0A0A0A0A0A0A0A0A0A0A0A0A0A0AFA
:101650000A0A0A0A0A0A0A0A0A0A0A0A0A0A0A0BE9
:1016600005020102FFFFFFFEFEFFFFFFFFFFFFFF7E
:10167000FEFEFFC7EFFFEEFFFFFFFEFEFFFFFF02D4
:10168000003CFEFFFFFFFFFEFEFFFF1FFEFCFEFF14
:10169000FFFEFEFFFFFFFFFFFFFEBEFFFFFFFFF7A6
:1016A000EF3EFEFFFFFFFF8E081F1F1F0F0F1F1FC4
:1016B0001F1F1F1F1F0F0F1F1F0F1F0F1F1F1F0F8A
:1016C0000F1F1F1F08000E1F1F1F1F0F070F1F1FB9
:1016D0000F07070F1F1F0F0F1F1F1F0F0F1F1F1FAA
:1016E0001F1F1F1F1F1F0E1F1F1F1F0F07450D024C
:1016F000FD0101DEDE0101FDFD0101FD0602FDC56A
:101700002931AEFD0101DEDE0101FD02003CC20116
:101710000D1971FE0201FD11FE0402FDFD0206FD20
:101720000101BDBD0142BEFD0101BD15E93EC20181
:101730000D19718E081710100F0F101017171010B9
:10174000170C08171708100F1710100F0F1010178D
:1017500008000E11131610080708101709070408CF
:101760001717080C1710100F0F101017171010175D
:1017700017110E11131610080721080F0F08080083
:1017800006090B06000E03030E000F090F06000FDB
:101790000F000F02030F000E0F090D000E10BEBD4B
:1017A000BEBDBEBDBEBDBEBDBEBDBE00000400040C
:1017B000000400040004000400004E080F0D07029E
:1017C000000F050F0A000F0D0900020B0D00020BA0
:1017D0000D00000000000F0D0702000F0F080800A9
:1017E0000E03030E00030E0E0300000006090B0695
:1017F000000F02030F00000000010F0F010E030392
:101800000E000F0D0702000F0D090E10A7C7A7C786
:10181000A7C7A7C7A7C7A7C7A7000707070707073F
:10182000070707070707070024080E1F1F1F0E00E2
:10183000000000000000000000001F0E0400000077
:10184000000000000000040E1F00040E1F009302A1
:101850003C0100005300DC033C010000530027055D
:101860003C0100005300DC039E0000002900270516
:101870009E000000290093023C0100005300DC039D
:10188000900127053C010000E30193023C010000A8
:101890005300DC033C010000530027053C0100001D
:1018A0005300DC039E000000290027059E00000075
:1018B000290093023C0100005300DC03900127053E
:1018C0003C010000E3012A023C01000053003F03F9
:1018D0003C010000530055043C01000053003F034D
:1018E0009E000000290055049E00000029002A02E5
:1018F0003C01000053003F03900155043C010000EF
:10190000E3012A023C01000053003F033C010000B8
:10191000530055043C01000053003F039E000000AB
:10192000290055049E00000029002A023C01000005
:1019300053003F03900155043C010000E301008087
:10194000FCFEFFFFFFFFFFFFFFFFFFFFFFFFFFFFAB
:10195000FFFFFFFFFFFFFFFFFFFFFFFFFFFFFFFF97
:10196000FFFFFFFFFFFEFC0103070707070707074D
:1019700007070707070707070707070707070707F7
:10198000070707070707070F1F3F07070301271070
:1019900000FCFE867E86FE0EB60EFE06EE06FE06F7
:1019A000D6EEFE06FE06B64EFE06FE8E76AEFE6E47
:1019B00056B6FE46FEFC00000103030303030303C7
:1019C00003030303030303030303030303030303E7
:1019D00003030303030303070F0303030100FCFED8
:1019E000FFFFFFFFFFFFFFFFFFFFFFFFFFFFFFFF07
:1019F000FFFFFFFFFFFFFFFFFFFFFFFFFFFEFC01F9
:101A00000307073F1F0F0707070707070707070712
:101A10000707070707070707070707070707030160
:101A2000211000FCFE06D6F6FE06FE067E7EFE06B1
:101A3000EE06FE8E768EFEF606F6FE065676FE461E
:101A4000FEFC0000010303030F070303030303036A
:101A50000303030303030303030303030303030356
:101A600003030100FCFEFFFFFFFFFFFFFFFFFFFF7F
:101A7000FFFFFFFFFFFFFFFEFC010307073F1F0FF4
:101A80000707070707070707070707070301FCFE04
:101A9000FFFFFFFFFFFFFFFFFFFFFFFFFFFFFFFF56
:101AA000FFFEFC01030707070707070707070707EC
:101AB000070F1F3F07070301151000FCFE06DE0697
:101AC000FE0656FE067EFE06D6EEFE46FEFC000034
:101AD000010303030F0703030303030303030303C8
:101AE0000303010000FCFE06DE06FE0656FE067E2F
:101AF000FE06D6EEFE46FEFC0000010303030303D0
:101B000003030303030303070F030303010060FC44
:101B1000FE7F7FFFFEFCF8F0F0F0F0E0E0C0000098
:101B20000000040707070707070707010100100B5C
:101B3000609C8241618102041850D0D0102020C0E6
:101B40000000000004030004000000010701010080
:101B5000C0E0E0F0F0F0F0F8FCFEFF7F7FFEFC60FC
:101B60000001010707070707070707040000000037
:101B7000100BC0202010D0D0501804028161418287
:101B80009C60000101070100000004000304000044
:101B90000000F8FCFCFCFC78F8FCFCFCFCFCF8F811
:101BA000FCFCFCFCFCB8F8FCFCFCFCF8F8FCFCFCC5
:101BB000FCD8F8FCFEFFFFFFFFFFFFFEFCF801036F
:101BC00003010000010303010103030103030303F5
:101BD00003010303030301000303030301000103E3
:101BE000070F0F0F0F0F0F0703012C0CF80404B49D
:101BF0008448F80404D41404C8F80404D49464B8E1
:101C00004884941424F84884941424D8F8040201D5
:101C1000F14949F1010204F8010202010000010248
:101C20000201010202010202020202010202020298
:101C30000100020202020100010204080908080969
:101C4000080402010410A854A850AA55AA55A0508F
:101C5000A040AA55AA55A854AA54AA55AA5504109A
:101C6000004040E054AA54A8005040E055AA55A8AE
:101C7000004040E054AA54A80310000000AA55AA4E
:101C8000A050A0AA55AAA854A8AA55AA04100000BA
:101C90008000AA55AA55A050A040AA55AA55A854FC
:101CA000A850AA55AA5504100040A050AA55AA55FC
:101CB000A050A040AA55AA558040A040AA55AA55B8
:101CC000F8FCFEFFFFFFFFFFFFFFFFFFFFFFFFFF2F
:101CD000FFFFFFFFFFFFFFFFFFFFFFFFFFFFFFFF14
:101CE000FFFFFFFFFFFFFFFFFFFFFFFFFFFFFFFF04
:101CF000FFFFFFFFFFFFFFFFFFFFFFFFFEFCF8FFFF
:101D0000FFFFFFFFFFFFFFFFFFFFFFFFFFFFFFFFE3
:101D1000FFFFFFFFFFFFFFFFFFFFFFFFFFFFFFFFD3
:101D2000FFFFFFFFFFFFFFFFFFFFFFFFFFFFFFFFC3
:101D3000FFFFFFFFFFFFFFFFFFFFFFFFFFFFFFFFB3
:101D4000FFFFFFFFFFFFFFFFFFFFFFFFFFFFFFFFA3
:101D5000FFFFFFFFFFFFFFFFFFFFFFFFFFFFFFFF93
:101D6000FFFFFFFFFFFFFFFFFFFFFFFFFFFFFFFF83
:101D7000FFFFFFFFFFFFFFFFFFFFFFFFFFFFFFFF73
:101D8000FFFFFFFFFFFFFFFFFFFFFFFFFFFFFFFF63
:101D9000FFFFFFFFFFFFFFFFFFFFFFFFFFFFFFFF53
:101DA000FFFFFFFFFFFFFFFFFFFFFFFFFFFFFFFF43
:101DB000FFFFFFFFFFFFFFFFFFFFFFFFFFFFFFFF33
:101DC000FFFFFFFFFFFFFFFFFFFFFFFFFFFFFFFF23
:101DD000FFFFFFFFFFFFFFFFFFFFFFFFFFFFFFFF13
:101DE000FFFFFFFFFFFFFFFFFFFFFFFFFFFFFFFF03
:101DF000FFFFFFFFFFFFFFFFFFFFFFFFFFFFFFFFF3
:101E0000FFFFFFFFFFFFFFFFFFFFFFFFFFFFFFFFE2
:101E1000FFFFFFFFFFFFFFFFFFFFFFFFFFFFFFFFD2
:101E2000FFFFFFFFFFFFFFFFFFFFFFFFFFFFFFFFC2
:101E3000FFFFFFFFFFFFFFFFFFFF00010307070793
:101E40000707070707070707070707070707070722
:101E50000707070707070707070707070707070712
:101E60000707070707070707070707070707070702
:101E70000707070707070301003F33F804FA0D05BA
:101E8000E5E52525252525252525252525E52525C2
:101E9000252525252525E525252525252525252532
:101EA000252565E5E5E5E5252525252525252525A2
:101EB0002525E5E5E5050DFA04F8FF00FF0000FF24
:101EC000FFFF000000000000FF1F1C18F8FF0000CB
:101ED00000000000FFFFFF0000000000FFFFFF0008
:101EE0000000000083FFFF000000000000FFFF3F34
:101EF00038F8FFFF0000FF00FFFF00FF0000FFFFBA
:101F0000FF000000000000FCF0F0F0FFFF00000008
:101F1000000000FFFFFF0000000000FBFBF10000DD
:101F200004040E3FFFFF000000000000FDFDE0E0A4
:101F3000FFFFFF0000FF00FFFF00FF0000FFFFCFDB
:101F4000C0C0C0C0C0404F7F7F7F7F4FC0C0C04077
:101F500040404FFFCF4040C0C0C04F7F7FE0404077
:101F6000404040FFCFC040404040C0CFCFC7C0F04E
:101F7000FFFF0000FF00FFFF00FF0000FFFF9F2F9B
:101F800037470F9FFF0000007F7F0080C1FF03FCE9
:101F9000000001FFFF00C0030F3F0000FFFF000033
:101FA00000FFFF030000FFFEF89F2F37470F9FFF42
:101FB000FF0000FF00FFFF00FF80003F3F3F3F3E6C
:101FC0003E3F3F2F2020202F3F3F3F2F202D3D2DF4
:101FD0002020202F202F3F3C3020203F2F2020206A
:101FE0002F3F3C30202F27333F3F3E3E3F3F3F3F78
:101FF0000080FF00FF000102050505050505050538
:102000000505050505050505050505050505050580
:102010000505050505050505050505050505050570
:102020000505050505050505050505050505050560
:1020300005020100010204081020408094023200D1
:10204000B8013200B4003200008000FCFEFFFFFF48
:10205000FFFFFFFFFFFFFFFFFFFFFFFFFFFFFFFF90
:10206000FFFFFFFFFFFFFFFFFFFFFFFFFFFFFEFC84
:1020700000103F7FFFFFFFFFFFFFFFFFFFFFFFFF9E
:10208000FFFFFFFFFFFFFFFFFFFFFFFFFFFFFFFF60
:10209000FFFFFFFFFF7F3F10271000FC020101013F
:1020A0000101010101010101010101010101010120
:1020B000010101010101010101010101010102FC14
:1020C00000102F50A0A0A0A0A0A0A0A0A0A0A0A001
:1020D000A0A0A0A0A0A0A0A0A0A0A0A0A0A0A0A000
:1020E000A0A0A0A0A0502F100000000000C0E0F0B1
:1020F000F0E0C00000000000000000000001030349
:1021000001000000000000000080E0F0F8F8F8F0A6
:10211000E0C0000000000000010307070F0F0703E5
:1021200001000000C0E0F8FCFEFEFFFFFFFFFEFE26
:10213000FCF8F003070F1F1F3F7F7F7F7F3F1F0FBC
:1021400003010080D8FCFE7E3F1E0C9C3E7F3F9E1C
:102150000C03070F1F1F0F0E1E3F7F3F1E0D0301B5
:10216000000C9EBF3F1E0400040E1F3F3F1E0C06C6
:102170000F1F3F1F0E0400081C3E7F3F1E0C000275
:10218000070F060000000000070F1F1E1C0E1E3E5A
:102190003C380000000010387C38100002070200B4
:1021A0000000000000000002070E04081C381000A8
:1021B000000000000000002070200F0F0000000051
:1021C00000C020D0D020C0000000000000000000AF
:1021D00000010202010000000000000000000000F9
:1021E000C02020C00000000000000000000000002F
:1021F0000101000000000000000000806090E8E89D
:10220000C8D020C0000000000000010205050B0B33
:102210000502010000000000000080601010302066
:10222000C0000000000000000001020204040201DE
:1022300000000000C020D8E4DAFAFDFDFDF5FAFA4E
:10224000F408F003040B17172B5F5F5F5E2D130D6F
:10225000020100C0201824040202020A040408F04B
:102260000000030408081420202021120C020100A1
:1022700000805864DA5A2D120C942A5D2D920C03BA
:10228000040B1716090E122D5E2D120D020100000F
:1022900080982424120C00081422120C000003045D
:1022A000080906000C1221120C000100000C92AD6E
:1022B000251A0400040A152D2D120C0609162E15D8
:1022C0000A040008142A5D2D120C00000C121A04D6
:1022D000000000040A12120C00000609110A040092
:1022E0000000081422120C0000020509060000007C
:1022F0000000060915120C0C122A243800000000F8
:102300001028542810000002070F060000000000EB
:10231000060F1F1E0C0C1E3E3C380000000010383B
:102320007C381000020502000000000000000002DE
:10233000070E04081C3810000000000000000020F8
:1023400070200002000000000000000000000204F5
:102350000000081000000000000000000000200045
:1023600000000000000000000000000000FCFEFF74
:10237000FFFFFFFFFFFFFFFFFEFCF8E0C00080F85B
:10238000FCFEFFFFFFFFFFFFFFFFFFFFFFFFFFFF61
:10239000FFFFFFFFFFFFFFFFFFFFFF8007070F0F9C
:1023A0000F1F3F3F3F3F1F0F0F0F0F0F0F0F0F1F4D
:1023B0003F3F3F3F1F0F0F0F07030080C0C0C0C04B
:1023C000E0F0E0E0C0C0C0C0C0C0C0C0C0C080007D
:1023D000000000000000000000F8FDFFFFFFFFFF0D
:1023E000FFFFFFFFFFFFFFFFFFFFFFFFFFFFFEFEFF
:1023F000FEFCF8F0E0800003070F0F1F3F3F3F3F58
:102400001F0F0F0F0F0F0F0F0F0F1F3F3F3F3F1FEC
:102410000F0F07031E18000000000000000000005E
:10242000000000FC022501FDFD1DED2D2D29A2C49B
:102430001820C000807804D255B5D55555D5B5754E
:10244000F5F5F0F7F0FF7FB8D75456D7B571F080A7
:102450007F8007040B080B1120262220110B08098E
:10246000090909080B1120262220110B080B04036F
:10247000008040404040605020204040404040406C
:10248000404040408000000000000000000000F8D4
:1024900005422492D05052D69006366666767676FD
:1024A000723082C55252D2B42810608000030408F2
:1024B0000B1120262220110B0A0A0A0A0A0A0A0B0B
:1024C0001120262220110B0904033C7EFFFFFFFF91
:1024D0007E3C003C7EFFFF7E3C0000003CFFFF3C5A
:1024E0000000003C7EFFFF7E3C0008083C42BDAD82
:1024F000A5BD423C003C42BDAD423C0000003CFF5B
:10250000C33C0000003C42A5BD423C001008030350
:102510000303030303030303030303030303FFFF93
:10252000FFFEFCFCFCFCFFFFFFFEFCFCFCFC0303CD
:102530000303030303030303030303030303100A57
:10254000108E9284A8889088108E9284A888908893
:102550000302020202020202030202020202020259
:10256000000000000000000000000000000000006B
:10257000000000000000FEFEFEFEFEF8F8F8F8F88D
:10258000FEFEFEFEFEFEFEFEFEFEFEF8F8F8F8F889
:10259000FEFEFEFEFE000000000000000000000045
:1025A0000000000000000000F8FCFCFCFCFCFCFC4F
:1025B000FCFCFC000000FFFFFFFFFFFFFFFFFFFF31
:1025C000FFFFFFFFFFFFFFFFFFFFFFFFFFFFFFFF1B
:1025D000FFFFFFFFFF000000000000000000000000
:1025E0000000000000000080C3E7F7FFFFFFFFFFCF
:1025F000FFFFFFF0F0F0FFFFFFFFFFFFFFFFFFFF18
:10260000FFFFFFFFFFFFFFFFFFFFFFFFFFFFFFFFDA
:10261000FFFFFFFFFF0000000000000000000000BF
:1026200000000000000000000000000000000000AA
:10263000000000000000000000000000000000009A
:10264000000000000000000000000000000000008A
:10265000000000000000000000000000000000007A
:10266000401C00000000000000000000000000000E
:10267000000000000000000000FCFCFC0090901036
:10268000909000FCFCFCECC4ECFCFCFC0090901076
:10269000909000FCFCFC0000000000000000000026
:1026A0000000000000000000000000F0080848E8FA
:1026B000480808F80000000000FFFFFF00F7730063
:1026C000F77300FFFFFFFFABFFFFFFFF00F7730093
:1026D000F77300FFFFFF0000000000000000000093
:1026E0000000000000000000000080C1E272BA5A41
:1026F000AA52AA53A040A040A0FFFFFF00DECEC018
:10270000DECE00FF0BFF02E202FF0BFF00DECEC0B9
:10271000DECE00FFFFFF0000000000000000000010
:1027200000000000000000000000000000000000A9
:102730000000000000000000000000000000000099
:102740000000000000000000000000000000000089
:102750000000000000000000000000000000000079
:10276000000000000000000000000018FCFEFEFE5B
:10277000FEFEFEFEFEFEFC98C0C0C0C0C0C0C0C0D1
:10278000D8FCFEFEFEFEFEFEFEFEFEFC98C0C0EC87
:10279000FEFFDEC8C0C08000000000000000000096
:1027A000000060F0F8FCFEFFFFFEFCE0FFFFFFFF13
:1027B000FFFFFFFFFFFFFFFFFFFFFFFFFFFFFFFF29
:1027C000FFFFFFFFFFFFFFFFFFFFFFFFFFFFFFFF19
:1027D000FFFFFFFFFFFFFF030000000000000000FD
:1027E000000000000103FFFFFFFFFFFFFFFFFFFFEF
:1027F000FFFFFFFFFFFFFFFFFFFFFFFFFFFFFFFFE9
:10280000FFFFFFFFFFFFFFFFFFFFFFFFFFFFFFFFD8
:10281000FFFFFFFFFFFFFF000000000000000000BF
:1028200000000000000000000000000000000000A8
:102830000000000000000000000000000000000098
:102840000000000000000000000000000000000088
:102850000000000000000000000000000000000078
:102860000000401C0000000000000000000008E420
:1028700014D45414D45414E40800808080808080E0
:1028800080808008E414D45414D45414E4080080E4
:102890008080AC92888080800000000000000000F2
:1028A00000000000002050A854AA54A8408000FF57
:1028B00000D6D210D6D200FF0001FC02DA4A02DABA
:1028C0004A02FC01FC00D6D210D6D200FF0001FC67
:1028D00002DA4A02DA4A02FC0100000000000000AD
:1028E000000000000000000001F60600050E00FFD9
:1028F00000FE060206FE00FF0000FF00FAFA02FAE0
:10290000FA00FF00FF00FE060206FE00FF0000FFC7
:1029100000FAFA02FAFA00FF0000000000000000CE
:1029200000000000000000000000000000000000A7
:102930000000000000000000000000000000000097
:102940000000000000000000000000000000000087
:102950000000000000000000000000000000000077
:102960000000000080C0E0F0E0C4CEFFFFFFFFCE1B
:10297000C4E0F0E0C08003173F7FFFFFFFFFFFFFD1
:10298000FFFFFFFF7F3F1703000000000001010071
:102990000000000101000000000000000000C0E491
:1029A000CEFFFFFFFFCEE4C0000000000000001FCC
:1029B000BFFFFFFFFFFFFFFFFFBF1F000000000082
:1029C0000000000101000000000101000000000003
:1029D00000000000C0E4CEFFFFFFFFCEE4C0000017
:1029E00000000000000087DFFFFFFFFFFFFFDF8721
:1029F00000000000000000000001010000000001D4
:102A0000010000000000000000000004CEFFFFFFF6
:102A1000FFCE0400000000000000000080D8FDFF91
:102A2000FFFFFFFDD8800000000000000000000153
:102A300001000000000101000000000012118040B0
:102A4000A01020C4CA35151535CAC42010A0408076
:102A500002152851C65865BA8181BA6558C65128F1
:102A6000150200000000000101000000000101004B
:102A70000000000000000000C024CA35151535CA4A
:102A800024C0000000000000001FA05865BA81812A
:102A9000BA6558A01F0000000000000000010100FE
:102AA0000000000101000000000000000000C02440
:102AB000CA35151535CA24C000000000000000000A
:102AC000875865BA8181BA65588700000000000008
:102AD00000000001010000000001010000000000F2
:102AE000000000000004CA35151535CA04000000B6
:102AF000000000000000805865BA8181BA655880E6
:102B000000000000000000000001010000000001C2
:102B10000100000000003E7F3E7F3E7F7F3E7F7EC3
:102B20003E7F3F0E2E7F2E11073E4136413E4155DE
:102B30003E415E3E41350A2E512EC0E0E0F0F0F0FD
:102B4000F0F8FCFEFF7F7FFEFC6000010107070735
:102B500007070707070400000000100BC020201023
:102B6000D0D050180402816141829C6000010107AD
:102B70000100000004000304000000000E0E0E1F00
:102B80001F1F1F1F1F0E0E0E001C1F1F1F1F1F1FAA
:102B90001F1F070000071F1F1F1F1F1F1F1F1C00D5
:102BA0000C050E0A0E1F151F1F151F0E0A0E00041E
:102BB00000000A00000A00000400001C171D1F1777
:102BC0001D1F171D07000000080200080200080270
:102BD000000000071D171F1D171F1D171C000000F8
:102BE00002080002080002080000C0E0E0F0FCFE5D
:102BF000FFFFFFFEFFF6F8F0F060003179797D3FCE
:102C00000F0F0F0F07070F1E0F060E1F1FFEF8F006
:102C1000FFFFFFFFFCF8F8F0E000000010397F7FB5
:102C20002F3F7F7F3F0B0707020030F8BCF8F0F022
:102C3000F8F8F8F8FEDFCFCFC6800307070F377F1D
:102C40003F7F7F7F3F1F07030301A0F0F0E8FEFFF7
:102C5000FFFEFAFFFFCE0400000003070F0F1F7FE7
:102C60007F7F7F070F3F7C7C38000030F8FCFEFE42
:102C7000FEFC7E3CF8F8F0C00000163F3F1F0F1F1F
:102C80003F3F3F3F1F1F1F1F1F0E00C6EFFEFFFFEE
:102C9000FEFCFCFEFEFCF870000000033F7F7F7F1F
:102CA0003F3C3D1F1F0F03010000387CFCFCFCFC77
:102CB0007E7EFEFEFCF8FCFE7E34000001070F0F56
:102CC0001E3F1F3F3F3F1F0F06000040E0F8FCFC87
:102CD000DE9EFEFFFFFFFEE0000000070F1F3F3FEC
:102CE0001F1F3F7F7F3F7B310000100FC02020104F
:102CF0007CC28109191A693688909060003149496F
:102D000045320A0808080505091209060E1111E6E0
:102D100008300F31190B8CC80810E0000000102992
:102D200046502E384346350B0405020030C8A4C86F
:102D30005050080808A8A6514949468003040408D1
:102D4000364B2D4C4840211F04020201A05010E8D0
:102D5000D631610E3A0531CA0400000003040809A7
:102D600018684C4678060833444438000030C8845C
:102D7000020222B4523CC80830C000001629241EAA
:102D800008102020232D16161711110E00C6291A1F
:102D90000D09028C04C282048870000000033C42CA
:102DA0004E5D33242512130E020100003844C47412
:102DB00034B45A6282020408BC924A34000001060C
:102DC00008091E2516222020100906000040A03800
:102DD000E4A45292665D39211EE00000000708104D
:102DE000202110182048582C4A3100000000000013
:102DF00070F8FCFEFEFFFFFEFC600000000000001B
:102E000000000000000000000060FCFEFFFFFEFE6E
:102E1000FCF870000000000080800082C7E7FFFF20
:102E2000FFFFFFFEFCFCFC3838383838383838B83B
:102E3000B838FCFCFCFFFFFFFFFFFFC78702000064
:102E40000000070F1F1F0F07010100040E1F3F3F67
:102E50001B010000000000000003070F1F0F070107
:102E6000000000000F1F1F1F1E0C000000000000CC
:102E70000070F8FCFEFEFFFFFEFC6000000000009A
:102E80000000000000000000000060FCFEFFFFFEEC
:102E9000FEFCF870000000000000000002C7E7FF21
:102EA000FFFFFFFFFEFCFCFC38B8B8383838383874
:102EB0003838B8FCFCFCFFFFFFFFFFFFC78702802C
:102EC0008000000000000C1E1F1F1F0F00000000EC
:102ED00001070F1F0F0703000000000000011B3F48
:102EE0003F1F0E04000101070F1F1F0F07002B16C5
:102EF0000000000070880402160141229C6000005E
:102F000000000000000000000000000000609C22A3
:102F100041011602048870000000000080800082D9
:102F200045243E80808091322444C42828282828C3
:102F3000282828A8A828C4442493918080003E44CF
:102F400085020000000007081011080601010004B6
:102F50000A1121241A0100000000000000030408E7
:102F600011080601000000000F101213120C0000DF
:102F7000000000000070880402160141229C6000DD
:102F80000000000000000000000000000000609C45
:102F900022410116020488700000000000000000B9
:102FA00002C5243E00808091B22444C428A8A828E9
:102FB000282828282828A844442493918080003E6B
:102FC000448502808000000000000C121312100FD4
:102FD00000000000010608110804030000000000C2
:102FE00000011A2421110A04000101060811100829
:102FF0000700C33111241FBECFEFDAE0DEBFCDBF23
:1030000011E0A0E0B1E0E4E8FFE602C005900D9217
:10301000A83AB107D9F726E0A8EAB1E001C01D92AD
:10302000AD39B207E1F717E1CAEFD7E104C0219744
:10303000FE010E948836C93FD107C9F70E94B0320D
:103040000C94C0370C94000080918602E0918402B9
:10305000F0918502882349F0CF0102969093850272
:1030600080938402859194910895CF010296909364
:103070008502809384028081918108950895089546
:103080000895089508950895089508950895089558
:103090000C9423370C9423370C9423370C94233748
:1030A0000C9423370C9423370C9423370C94233738
:1030B000EF920F93CF93DF93C0E0D0E0E12C00E0DC
:1030C0002FE638E04FE758E06BE370E0CE010E9456
:1030D0000B2C2896C038D10589F7DF91CF910F913D
:1030E000EF900895EF92FF920F931F93CF93DF938A
:1030F000EC018B01F22E442321F1AB81B0E0FD0104
:10310000EE0FFF1FEB59F74F45915491FD01ED571D
:10311000FE4F608170E0A857BE4F8C91F801238D5F
:1031200090E00E948C2BF801878190858F70992701
:10313000892B39F48B818F5F853010F48B8301C02C
:103140001B82C0E0D0E0E12C00E02FE638E04FE742
:1031500058E06CE170E0CE010E940B2C2896C0383C
:10316000D10589F721E636E043E657E063E370E0F6
:1031700080E090E00E940B2C2FE435E047ED55E015
:1031800060E070E080E090E00E940B2CFF2051F0A6
:103190002DE334E045EC54E060E070E080E790E03F
:1031A0000E940B2CDF91CF911F910F91FF90EF9018
:1031B0000895AF92BF92CF92DF92EF920F931F9339
:1031C000CF93DF936B0181E04827DB0152961C917E
:1031D000141B80E8A82E81E0B82EC0E0D0E0C11713
:1031E000D0F4FE01D5018D915D0190E0D6015B9692
:1031F0002C91211102C0E0E0F0E0E12C00E027E09A
:1032000034E041E254E061E070E08E1B9F0B0E94CD
:103210000B2C2196E4CFDF91CF911F910F91EF906E
:10322000DF90CF90BF90AF900895E1E7F0E080810C
:103230008D7F808310929100469847981092830268
:103240000895CF92DF92EF92FF920F931F93CF9347
:10325000DF930E942418811520E8920751F4DF9132
:10326000CF911F910F91FF90EF90DF90CF900C9432
:10327000151921E020938302813020E8920751F450
:1032800080918102909182029093850280938402C2
:103290000E94241897FD05C020918002222309F482
:1032A00040C020917F0221113CC021E02093870281
:1032B000EC01DF77209769F481E0809388024698DB
:1032C0003FE9C32E3FE0D32EE12CF12CCAEFD0E032
:1032D00014C08E0120E030E060E472E48FE090E002
:1032E000A90198010E94E33569017A0181E0C81AB9
:1032F000D108E108F10810928802E0918D02F09166
:103300008E020995811103C081E08093880280912B
:103310008702882309F43FC08091880281113BC055
:1033200003C010928702C4CF469935C0479A0E94C5
:103330002418009771F09C01DE010E943736DC01F1
:10334000CB0129E0B595A795979587952A95D1F753
:1033500003C08FEF9FEFDC01109290002AE02093D2
:103360009100D0929900C092980080938902909326
:103370008A02A0938B02B0938C02809171008260CC
:1033800080937100DF91CF911F910F91FF90EF908B
:10339000DF90CF9008954798CACF1F920F920FB633
:1033A0000F9211242F933F934F935F936F937F93CB
:1033B0008F939F93AF93BF93EF93FF938091890275
:1033C00090918A02A0918B02B0918C02892B8A2B5A
:1033D0008B2B81F18091880281110BC098B180E420
:1033E000892788B980918702882319F088B180588D
:1033F00088B98091890290918A02A0918B02B09144
:103400008C02181619061A061B06B4F4809189025C
:1034100090918A02A0918B02B0918C020197A10930
:10342000B1098093890290938A02A0938B02B09392
:103430008C0202C00E942119FF91EF91BF91AF91C0
:103440009F918F917F916F915F914F913F912F91BC
:103450000F900FBE0F901F9018959C01E1E7F0E0D0
:1034600090819D7F908381E08093860230938502D6
:103470002093840230938202209381020C942119BC
:103480002F923F924F925F926F927F928F929F9274
:10349000AF92BF92CF92DF92EF92FF920F931F9362
:1034A000CF93DF9300D000D0CDB7DEB79C838B8362
:1034B0005B01DB011996FC90FC01878D882341F0AC
:1034C0008150878F811104C040E060E00E94952DFB
:1034D000AB81BC8114968C9114978111D6C1F501F2
:1034E0008781908587709927892B69F45C968C91E8
:1034F0005C978F5F843019F05C968C9304C0AB812D
:10350000BC815C961C92F5018289833070F4AB819A
:10351000BC8159968D919C915A97181619062CF4D6
:1035200001975A969C938E935997EB81FC81858DD8
:10353000882311F08150858FAB81BC815E968C9180
:103540005E97882319F081505E968C93AB81BC8185
:103550005996ED91FC915A97CF0160E87CE00E946A
:10356000743609964397B8F5D50155968D919C917F
:1035700056974AE0489F9001499F300D112440E939
:1035800051E0421B530BAB81BC8191965C934E93EF
:10359000909725E0289FB001299F700D112428ECF9
:1035A00030E0261B370B93963C932E939297453B26
:1035B000510530F084EB90E091969C938E93909718
:1035C0002536310540F084E690E0AB81BC819396CE
:1035D0009C938E939297D50152968C91AB81BC812E
:1035E00015962D913C9116978330A8F02938BFEF9E
:1035F0003B076CF0F5018781908565E070E00E94E3
:103600006036892B09F0C9C0225031092CC081E0F5
:10361000F501828FC2C037FF13C0D50117968D9177
:103620009C91189765E070E00E946036892B09F044
:10363000B4C02E5F3F4FEB81FC8136832583ADC044
:10364000EF2B09F06DC1283C31050CF059C1F50193
:103650008781908565E070E00E946036892B09F0D3
:103660009CC02E5F3F4FAB81BC8116963C932E933E
:10367000159793C0F5FC6AC16501B4E0CB0ED11C6F
:10368000F5018781908563E070E00E9460360297C3
:1036900009F061C1F7FC6DC1AB81BC811D968C91B5
:1036A0001D97882309F46CC1BF2DB0719B2EF4FCCB
:1036B00094C1AB81BC811D96EC90B1E0EB1609F48E
:1036C00093C1AB81BC8159968D919C915A979996E3
:1036D0004D018D3291400CF0B2C1EB81FC81218D06
:1036E000328D81892D3231400CF476C3811174C33F
:1036F000EB81FC81828981111EC064ED70E080E065
:1037000090E00E947929DC01CB0180589F4FAF4F98
:10371000BF4FEB81FC819787868763E070E080E094
:1037200090E00E947929AB81BC8150966C935097B0
:1037300081E052968C93F5018781908563E070E07B
:103740000E946036029709F099C27401DD24D39477
:103750000615170509F0E8C287E0782E140160E02D
:1037600070E0662ED40140E050E06101E3E0CE1A43
:10377000D1087101F5E0EF1AF108641269C34F5FD7
:103780005F4F179643305105C1F76F5F7F4FE7E0FA
:103790002E0E311C6330710521F7D50117968C91DF
:1037A00080FD30C0EB81FC8183898150803C11F029
:1037B000838B04C0AB81BC8153961C92EB81FC814E
:1037C00021AD222329F0848995890197958B848BDB
:1037D000AB81BC8159968D919C915A97892B91F41C
:1037E000211110C081E0D9968C93D99753968C9172
:1037F0005397082E000C990B80549F4F55969C931D
:103800008E935497F5018781908563E070E00E9464
:103810006036029771F0AB81BC8156968C915697B9
:103820008150803F19F056968C9303C0EB81FC8148
:10383000168AD50117968D919C91189783709927B8
:10384000039761F0EB81FC8187898250813E14F0FF
:10385000878B04C0AB81BC8157961C92F501878190
:10386000908565E070E00E946036039770F4AB814C
:10387000BC8158968C9158978350813E1CF0589685
:103880008C9303C0EB81FC81108ED50117968D912E
:103890009C91189766E070E00E946036892BD9F001
:1038A000B5018B819C810F900F900F900F90DF914D
:1038B000CF911F910F91FF90EF90DF90CF90BF902D
:1038C000AF909F908F907F906F905F904F903F90C0
:1038D0002F900C944528EB81FC8139962B813C81FB
:1038E000235F3F4F8081882331F08F5F863011F056
:1038F000808301C010823196E217F30799F7D0CF89
:10390000D50155968D919C915697019656969C930C
:103910008E93559745E064E0C5010E9480263DCF17
:103920000B811C810C5D1F4F6B807C80B9E36B0E9B
:10393000711CEB81FC81BA968B819C81CF96E81734
:10394000F90709F497CE10823796F9CF2115310582
:1039500009F0F0C091CEF6FE9DCEAB81BC811596EC
:103960008D909C901697B6E48B1691040CF4E9C0E8
:1039700091CEEB81FC818781883008F02CC18CCE00
:10398000F7FC26C01796EC901797EA9415964D9180
:103990005C9116972E2DB601CD010E949A2F8F3F74
:1039A00081F0EB81FC818185811112C081E08187EA
:1039B000B501CF010E94DD2F8FE998E00E942D1AFA
:1039C00007C0AB81BC811796EC9217971D961C928D
:1039D0008B819C810E940D3067CEEB81FC818781B9
:1039E000813208F41FC165CE911024C0EB81FC81A7
:1039F000F780F394458156812F2DB601CF010E94A7
:103A00009A2F8F3F99F0AB81BC811A968C911A97AF
:103A1000811110C01A96EC921A97B501CD010E943F
:103A2000DD2F8FE998E00E942D1A04C0EB81FC8104
:103A3000F782E5868B819C810E940D3042CE740115
:103A40006801C614D70409F448CED7018C918111BE
:103A50006AC01701B3E02B1A31082701E2E04E1AC1
:103A600051089701215031093A8329836CEA70E0AB
:103A700080E090E00E947929DC01CB0180589F4FC3
:103A8000AF4FBF4FF60191838083833E9F4F14F465
:103A9000D7011C9263E070E080E090E00E947929F9
:103AA000F101608362E070E080E090E00E9479299B
:103AB000D2016C9362E070E080E090E00E9479298E
:103AC000DC01CB010296A11DB11DE981FA81808341
:103AD000E1E0D701EC93D1013C91F60140815181A5
:103AE000D401B80120E066157705D1F08C918823C8
:103AF00099F0CD010397FC01808183130DC0FB0178
:103B000080819181841B950B97FF03C091958195CE
:103B10009109C3970CF4B0C0695F7F4F1796E3CF4C
:103B2000213009F0A3CFF7E0CF0ED11C27E0E20E41
:103B3000F11C87CF21503109EB81FC81368325832D
:103B40009BCDFFEF8F1A9F0AAB81BC8117962C91FA
:103B50001797A401B601CD010E949A2FE82EBFEF5E
:103B60008B1791F1EB81FC81848581110AC081E082
:103B70008487B501CF010E94DD2F8FE998E00E9474
:103B80002D1AAB81BC8115962D913C911697215E23
:103B90003F4F8E2D90E0FD01B7E0EB9EE00DF11D53
:103BA000112435A324A3233E3F4F0CF411A627E094
:103BB000289FF001299FF00D11248B819C81E80F33
:103BC000F91F81E082A766CDAB81BC8116969C92DD
:103BD0008E9215975FCDEE24EA94E80EEB81FC817E
:103BE000458156812E2DB601CF010E949A2F8F3F1D
:103BF000A1F0AB81BC8119968C91199781114CCDA4
:103C000081E019968C931997B501CD010E94DD2FA3
:103C10008FE998E00E942D1A3FCDEB81FC81E7826D
:103C200015863ACDFF24F394F80EAB81BC8115962E
:103C30004D915C9116972F2DB601CD010E949A2FC0
:103C40008F3FA1F0AB81BC811A968C911A9781119C
:103C500030CD81E01A968C931A97B501CD010E9460
:103C6000DD2F8FE998E00E942D1A23CDEB81FC8196
:103C7000F78281E085871DCD2F5F4ECFAB81BC8160
:103C800052968C915297882309F45FCD1E968D91A0
:103C90009C911F9701971F969C938E931E97089651
:103CA00089F4EB81FC81128A6AE570E080E090E0A3
:103CB0000E947929DC01CB010A96A11DB11DEB817F
:103CC000FC81818BAB81BC811E966D917C911F978D
:103CD00050968C91509715964D915C91169717962A
:103CE0002C91FB0138964E175F070CF02ECD415EEC
:103CF0005F4F641775070CF028CDBEE08B9FC001A5
:103D0000112430E0B9016B5E7F4FAC014D5D5F4F18
:103D1000641775070CF019CD215E3F4F4B96821743
:103D200093070CF012CD5EC0F7018081882309F45F
:103D30004DC0D80116968C91811148C0F701339778
:103D40006081F80120813181AB81BC8117964C9153
:103D5000179715968D919C911697DC015E96FC0144
:103D6000B0962E173F070CF056C0F9013296AE17E9
:103D7000BF070CF050C050E0BEE06B9FB0011124B3
:103D8000DB015B96FA017F96AE17BF070CF043C0CC
:103D90006B5D7F4F4B5E5F4F46175707E4F54F96BD
:103DA000F80191838083833E9F4F14F4D7011C92C6
:103DB000EB81FC818485811109C0D486B501CF01D6
:103DC0000E94DD2F8FE998E00E942D1A095F1F4F96
:103DD000B7E0EB0EF11CBCCC8150AB81BC8151969D
:103DE0008C93A9CC40E060E280E00E94952D8AE0AF
:103DF000EB81FC81878FD50150968D919C915197D5
:103E0000029651969C938E935097128A81E998E07E
:103E10000E942D1A9ACCF7013197608170E0D5018C
:103E200017968D919C9118970E946036882319F0FF
:103E300081E090E002C082E090E0281B390BF8019D
:103E400031832083233E3F4F0CF6D7011C92BECF17
:103E5000F1018081882309F492CC8C91882309F4A4
:103E60008ECCF6012081CD010397FC0180812813BF
:103E700086CCF701808191819D0125503109F9019E
:103E8000208131818C01021B130B17FF03C0119598
:103E9000019511090F3111050CF071CC2817390764
:103EA0008CF4215E3F4F769EF001779EF00D112439
:103EB0008B819C81E80FF91F35A324A3233E3F4F3C
:103EC0008CF04CCC4F96749EF001759EF00D112431
:103ED000AB81BC81EA0FFB1F95A384A3833E9F4F58
:103EE0000CF03CCC11A63ACCCF93DF93FC01DB0164
:103EF0005A961C9213AA14AA88EC90E096AB85AB54
:103F000017AA10AE11AE17A612AA12AE82E181A7AF
:103F10001482DF011C96F096AE17BF0731F01C9299
:103F2000ED01219718821996F7CF80EF98E29093D0
:103F30008E0280938D02DF91CF9108952F923F9250
:103F40004F925F926F927F928F929F92AF92BF92A9
:103F5000CF92DF92EF92FF920F931F93CF93DF9355
:103F6000CDB7DEB727970FB6F894DEBF0FBECDBF33
:103F70009F838E838B01DB011996BC91B983FC0171
:103F800081AD882341F0815081AF811104C040E0B0
:103F900060E00E94952DAE81BF8114968C9114979C
:103FA000811180C39996BB83AA83EE81FF8121A5ED
:103FB000D80117968D919C91189765E070E00E944A
:103FC0006036892B31F0F8018289833008F0DDC03A
:103FD000E7C0EE80FF80F5E0EF0EF11C2E803F8001
:103FE0004CE0240E311C4E805F8056E0450E511C83
:103FF000CE80DF8088E0C80ED11CAE80BF809BE001
:10400000A90EB11C6E807F80ADE06A0E711C2C5E23
:10401000E22FF0E0FD83EC83992493945AEF852EF0
:10402000AA81BB81EA16FB0671F2D1018C9188232B
:1040300009F498C0F70180818636C1F4D801509602
:104040008D919C915197059651969C938E93509784
:1040500040E060E280E00E94952D84E19BE00E94B8
:104060002D1A2AE0EE81FF8121AF28C0D6012C91C4
:10407000885F90E0EC81FD818E1B9F0B97FF03C052
:104080009195819591092A3021F0203211F0263343
:1040900029F40B979CF4D3019C9210C02B3021F093
:1040A000213211F0273341F4F30130813111AEC3D5
:1040B0000B970CF054C3AAC3D3011C92F501908155
:1040C000911105C0D6018C918F5F8C9303C02FEFA7
:1040D000F6012083D6018C918B3411F41C9240C0E0
:1040E000923099F170F4992399F0913009F038C029
:1040F000D7018C918F5F8C932BE2F2012083E2E059
:104100002CC09D3368F581E0890FD5018C932AC0BE
:10411000F3013697E081F0E0EE0FFF1FE357FE4F0B
:104120002081318190E0880F991FF901E80FF91F74
:1041300045915491D7014C93FC013196E20FF31F46
:1041400045915491F20140830DC0D7018C918F5F4E
:104150008C9322E3F2012083E3E0D501EC9302C0CB
:10416000F1011082F9E0EF0EF11C29E0220E311C62
:1041700049E0440E511C59E0C50ED11C89E0A80E3F
:10418000B11C99E0690E711C4BCFEE81FF813C960A
:104190002E813F81205D3F4F81E0E217F30751F40C
:1041A000F801878190856FE070E00E946036892B6E
:1041B00081F019C09081992351F0DF0111979C91F2
:1041C000911105C011979C91992309F431C3399637
:1041D000E4CFEE81FF8139962E813F81235D3F4FF1
:1041E000E217F30739F4AE81BF81DA968C91811121
:1041F00031C10CC08381882339F080818F5F883082
:1042000011F0808301C010823996EACFEE81FF81E0
:1042100085A996A901978E3FFFEF9F0730F4AE81E5
:10422000BF81D6969C938E93D597EE81FF8125A969
:1042300036A92115310509F00DC1D80150964D91CF
:104240005C915197483EB3E05B0758F488EE93E0E9
:10425000841B950B6AEF70E00E9460366D5F7F4FA4
:1042600002C063E070E0EE81FF813C964E815F8189
:10427000405D5F4F5F019CE2892E912CA6E1EA2E02
:10428000F12CE417F50781F18081882359F1CF01E2
:104290000497DC018C91863109F4DCC08C3209F47E
:1042A000D9C0C82ED12CC4018C199D0997FF03C019
:1042B000919581959109D701AC19BD096D01B7FFA1
:1042C00003C0D194C194D1080C2C000CDD08C61693
:1042D000D7060CF4BFC0082E000C990B8617970761
:1042E0000CF4B8C03996CDCFF5018081811137C06B
:1042F000AE81BF81D896EC9189E0829FD001839FE7
:10430000B00D11244E815F81A40FB51F81E01C9672
:104310008C931C9718961C9218971B961C921B97AF
:104320001A961C921A971796EC931797F0E0EE0FD7
:10433000FF1FE357FE4F80819181FC01259134914D
:1043400015962C931597FC013196859194911696AC
:104350008C93D80152968C91833048F075C02F5FB2
:104360003F4F39962430310509F0BFCF73C0F801B3
:10437000208931892C3DF5E03F07C8F46901D694C6
:10438000C7948CED95E08C199D09A5E0EA2EF12CDF
:10439000B7010E946036FB012E3E324050F48EEE93
:1043A00092E08C199D09B7010E94603604C0E6E9CD
:1043B000F0E06BE470E0CF01A0E0B0E06B01E12C35
:1043C000F12CC816D906EA06FB066CF4BC01CD0137
:1043D0006C197D098E099F090E947929C60ED71E86
:1043E000E81EF91E05C0E6E9CE2ED12CE12CF12CF9
:1043F000AE81BF81D696DC92CE92D597F8018089A6
:1044000091898531910570F0899788F40E948735EC
:1044100022E030E040E050E00E94E335EE81FF8191
:1044200060AF18C0AE81BF81D8961C9213C00E94A5
:10443000873523E030E040E050E00E94E335AE8174
:10444000BF81D8966C9306C08FEF9FEFEE81FF81FE
:1044500096AB85ABF981F5FF0FC0AE81BF819A960F
:104460008C919A97811108C099968C919997833174
:1044700018F082E09C968C93B981B6FF0AC0EE8159
:10448000FF8182A5811105C081A58C3310F483E0E2
:1044900084A7D80117968C9180FD48C0EE81FF81DA
:1044A00084A58230B9F0833009F040C0EE81FF81ED
:1044B00081A5E2A591E09E0FAE81BF819A969C9363
:1044C0009A97F0E0ED58F54FE491E80F9996EC9348
:1044D000999715C0AE81BF8199968C9199979A96BC
:1044E000EC919A9791E09E0F9A969C939A97F0E0A0
:1044F000ED58F54FE4918E1B99968C9399979B9666
:104500008C919B978F5F8C3071F4EE81FF8113A6A5
:10451000953061F4AE81BF819A961C929A9784E09F
:104520009C968C9303C09B968C93F2CFD8011796E0
:104530008D919C91189766E070E00E946036892BFF
:1045400069F0F8018289833008F4ACC08E819F81C4
:104550000C962E813F81205D3F4F9EC0AE81BF8172
:104560009F968C919F97882309F476C0D2968C9160
:10457000D2978F5FD2968C93D297282F082E000C5B
:10458000330BD1964C91D19787FD43C0842F90E097
:10459000281739070CF03DC0D0968C91813031F14D
:1045A000A0F0823009F035C0C9010196880F991F2B
:1045B000FC01E858F54FE491AE81BF819D96EC93E4
:1045C0009D97FC01E758F54F21C0C9010196880F5E
:1045D000991FFC01E453F54FE491AE81BF819D9694
:1045E000EC939D97FC01E353F54F10C0C901019670
:1045F000880F991FFC01EA55F54FE491AE81BF8108
:104600009D96EC939D97FC01E955F54FE4919E969C
:10461000EC93842F90E02817390719F4EE81FF817D
:1046200017A6821B930B0897A4F4AE81BF81D49682
:104630008C91D4978F5FD4968C93D497883061F403
:104640009F961C929F97D2961C92D297D4961C92BA
:1046500003C0EE81FF8114AAEE81FF813C962E817A
:104660003F81205D3F4FE217F30709F46ACF808155
:10467000882351F0DF0112978C91882329F08F5FF6
:104680008C93863009F410823996EDCF0996FC019F
:1046900039974081411106C082179307B9F781E02D
:1046A000F801828FD80150962D913C9151975896E0
:1046B0008D919C9159978217930720F481E0EE81A8
:1046C000FF8182AFAE81BF81DA968C91DA97882321
:1046D00049F1CD010C969D01205D3F4F8217930754
:1046E00039F00996FC01399740814423B9F31AC087
:1046F000EE81FF8181A5D80157968C9357975596E7
:104700008D919C915697019656969C938E935597B2
:1047100052968C91833008F08DC046E063E0C8016A
:104720000E948026B8018E819F8127960FB6F8944B
:10473000DEBF0FBECDBFDF91CF911F910F91FF90D4
:10474000EF90DF90CF90BF90AF909F908F907F9031
:104750006F905F904F903F902F900C944528D5011B
:104760009C92F80182898F5F828B40E060E080E25A
:104770000E94952D86E09BE00E942D1AEAE0AE8112
:10478000BF81D996EC93D8015296EC91E33008F0B2
:1047900095CCD7018C918C33A0F4873228F58231E7
:1047A00008F48CCCAE81BF81D0961C92D0979F9696
:1047B0009C929F97D2968C92D297F0E0E553F54F5A
:1047C00021C0813808F07ACCF2E0AE81BF81D0966A
:1047D000FC93D0979F969C929F97D2968C92D2975B
:1047E000F0E0E958F54F0EC0AE81BF81D0969C92A3
:1047F000D0979F969C929F97D2968C92D297F0E0FA
:10480000EB55F54FE491D196EC9358CC213259F405
:104810008AEF9AE005C02B3009F050CC80E09BE095
:104820000E942D1A4BCC2733B1F784EF9AE0F8CFD2
:104830008C93CDCC81E0F801828F74CFCF93DF933E
:10484000EC0146E050E06BE770E00E94953546E0F1
:1048500050E061E870E0CE0106960E94953546E092
:1048600050E067E870E0CE010C96DF91CF910C9498
:104870009535FC01DB0113964C9113974530C9F433
:104880008CE9858382E7868350968D919C91519720
:104890008D9655966D917C915697469F9001479FB6
:1048A000300D1124820F931F59969C938E93589725
:1048B00005C080E6858357968C9186831782128681
:1048C0001386108680E2818708952F923F924F923F
:1048D0005F926F927F928F929F92AF92BF92CF9290
:1048E000DF92EF92FF920F931F93CF93DF93CDB799
:1048F000DEB727970FB6F894DEBF0FBECDBF5C01C1
:10490000FB014780508421E040E00E947218E12CB6
:1049100000E023E636E14DEE56E163E070E08FE122
:1049200090E00E940B2C2DE733E14FEE54E160E163
:1049300070E08DE190E00E940B2C85011501F2E101
:104940002F0E311C66E1E62EF12C9E012F5F3F4FAA
:10495000490136E0380D3F8355E2652E712CC12C9C
:10496000D12CF801EC0DFD1D23852F3311F02054BF
:1049700001C020E047EE52E1B701C3010E948C2B39
:104980008FEFC81AD80A96E0690E711CE3E0CE16C4
:10499000D10439F79E01295F3F4F390142E4C42E0B
:1049A000D12CF40126E011922A95E9F7F8018185CE
:1049B0009285F4016AE070E00E9460368193CB0139
:1049C0003F813E13F7CFF30122913F01255E47EE71
:1049D00052E1B701C6010E948C2BF5E0CF0ED11C2D
:1049E00020E6C216D104E9F639E0E30EF11C0A5FB5
:1049F0001F4F0215130509F0AFCFF50105810F3FD9
:104A000009F46CC0C20168E370E00E9460364D9703
:104A100008F464C0C501F6E00F9F800D911D1124BC
:104A20009C01255F3F4F690139E0039F80011124FC
:104A3000380185E1680E711CF501E680F6E0EF9E15
:104A400070011124470124E2820E911C3AE2E30E28
:104A5000F11C035E1F4F8E149F04F9F0230177FEB3
:104A600011C0412C512C0EC04816590694F480E810
:104A70008816910424F4B201C4010E9467299FEFB3
:104A8000491A590AC8010134110574F380E490E011
:104A9000EBCFEFEF8E1A9E0ADECFF5018681F6018D
:104AA000E80FF11D20812F3311F0205401C020E0C8
:104AB000F5016581F9E06F9FB00111246A5E7F4FB7
:104AC00036E0839FC00111243BEFC32EE12C00E0B0
:104AD00010E047EE52E185960E940C2AF50185818F
:104AE0008F3F79F4808581110CC0E12C00E025E333
:104AF00032E14DE852E164E370E08BE290E00E9425
:104B00000B2C80E027960FB6F894DEBF0FBECDBF0A
:104B1000DF91CF911F910F91FF90EF90DF90CF9099
:104B2000BF90AF909F908F907F906F905F904F90CD
:104B30003F902F900C9433294F925F926F927F9207
:104B40008F929F92AF92BF92CF92DF92EF92FF929D
:104B50000F931F93CF93DF9300D000D000D0CDB739
:104B6000DEB78C015B01FC011682178284E6808728
:104B7000FB01E088F188E114F10409F459C08BE7E6
:104B800090E00E94AD35E816F906A8F481E890E0BF
:104B90000E94AD35E816F90698F487E890E00E9487
:104BA000AD35E816F90608F443C047E8842E912C89
:104BB00052E0552E0AC03BE7832E912C512C05C0A4
:104BC00021E8822E912C5524539487E8682E712C6D
:104BD00092E0492ECE0101966C015414B0F44A942F
:104BE00096E0499EB001112465587F4F46E050E0A1
:104BF000C6010E94953546E050E0B301C6010E940F
:104C0000B335E6E06E1A7108E8CF86E0F60111923E
:104C10008A95E9F78FE38B838C838D83FA82E9820F
:104C200046E050E0B401C6010E94B335852D01C0B5
:104C30008FEFF8018583F50112861186C801099668
:104C40000E941E2426960FB6F894DEBF0FBECDBF7D
:104C5000DF91CF911F910F91FF90EF90DF90CF9058
:104C6000BF90AF909F908F907F906F905F904F908C
:104C70000895EF92FF920F931F93CF93DF9300D08D
:104C800000D000D0CDB7DEB7FE01319626E0DF01BF
:104C90001D922A95E9F7DC0150962C915097519678
:104CA0009C910AE010E036E03E0F822FB8010E948E
:104CB00060368193262F972F3E13F7CF7E01B7E002
:104CC000EB0EF11C0EE510E0F70122917F0141E2AD
:104CD0005FE063E070E0C8010E947C2B0B5F1F4F18
:104CE0000C37110589F726960FB6F894DEBF0FBE74
:104CF000CDBFDF91CF911F910F91FF90EF9008955D
:104D00000F931F93CF93DF93EC01062F142F40E0F6
:104D100060E080E00E94952D0E9415190D8F1E8F76
:104D2000DF91CF911F910F910895CF92DF92EF9273
:104D3000FF921F93CF93DF93EC01FB0192851185C6
:104D40002D812F3F09F484C0878190856CE070E04D
:104D50000E9460366C01892B09F086C017FF22C0C3
:104D6000AE0186E0289F400D511D11249A01255F58
:104D70003F4F8E81F901E80FF11D80818F5F8083A5
:104D80008E81F901E80FF11D80818B3514F081E4EB
:104D900080838E81F901E80FF11D8081803411F448
:104DA00081E4808314FF17C08D81FE0196E0899F06
:104DB000E00DF11D11243B968E81DF01A80FB11D7E
:104DC0008C9181508C938E81E80FF11D808181340C
:104DD00014F48AE5808315FF05C08E81882311F0C5
:104DE00081508E8316FF05C08E81823010F48F5F54
:104DF0008E8313FF39C08D81FE0126E0829FE00D76
:104E0000F11D11243B9680818F3371F181818F33A5
:104E100059F182818F3341F17F01F70161917F0167
:104E20008D81960146E0849F200D311D1124C9011A
:104E300083589F4F0E94C3355FEFC51AD50A83E0A0
:104E4000C816D10451F78FEF8D8384E688870CC094
:104E5000909591239C7041F08885811105C040E0B8
:104E600062E0CF010E94802610769F81103609F5FE
:104E70009F5F9F83953128F19D3378F09D3309F52D
:104E80001F8240E060E080E00E94952D0E94A12DED
:104E9000CE0109960E941E2414C020E430E0F901DE
:104EA000E91BF109CF0140E060E0880F0E94952DD9
:104EB00008C0992331F040E060E080E00E94952D29
:104EC0001F828885882311F081508887DF91CF91D8
:104ED0001F91FF90EF90DF90CF900895FF920F9376
:104EE0001F93CF93DF93EC018B01FB01F284F094CD
:104EF0008185F822878180FD7DC08F816AE00E94D4
:104F00004636498580FD8FC080E060E00E94952D87
:104F1000F80163819F816530A9F5923A38F49B3599
:104F200088F49C3358F09C34E0F561C09F3B30F12D
:104F30009F3B09F05CC040E065E056C08D81815028
:104F40008D8355C081E08A87F801878190858370C1
:104F50009927892B09F04BC09E81963130F493310B
:104F600040F4923109F443C006C09B3120F49250C2
:104F700003C0915001C093509E8339C089858150F0
:104F8000898729C09D3838F4943728F5953178F110
:104F9000993250F406C0943B00F1943B41F540E057
:104FA00023C081E08A8723C081E08A87F801878156
:104FB000908583709927892BD1F42885822F90E0E2
:104FC0000196959587959E81890F8E83253078F47B
:104FD0002F5F28870CC01A860AC08D818F5F8D8352
:104FE00089858150898703C0C8010E9480268F81EE
:104FF0008F5F8F83F3FE06C040E0F8016381C80134
:105000000E948026F801878190856CE070E00E9404
:105010006036892B59F48E81823141F09B8581E085
:1050200089278B8703C0842F40E06FCFDF91CF911A
:105030001F910F91FF900895EF920F93CF93DF93FD
:10504000EC01FB01828D882361F0E12C00E02FE967
:105050003DE04FE55EE064E170E080E290E00E94B8
:105060000B2C8C81882361F0E12C00E021E73CE0EF
:1050700047E05DE064E170E087E290E00E940B2C85
:10508000DF91CF910F91EF900895DC01FB019285A4
:10509000909521859223828D882339F093FF0EC04D
:1050A00040E067E0CF010C94802692FF07C0149681
:1050B0008C91149791E0982714969C930895AF9241
:1050C000BF92CF92DF92EF920F931F93CF93DF9314
:1050D0005C01102FFB018781908587709927892BB0
:1050E00039F481E0F5019281911180E0F50182832C
:1050F000C22F220FDD0BC42E440FDD08E12C00E08F
:1051000027E73BE043EF5BE0BE01C6010E940B2CAA
:10511000F501028120E63BE047E65BE0BE01C60107
:1051200042960E940B2C112361F0BE016B5F7F4FF2
:1051300000E022E23BE040E45BE0C60104970E940D
:105140000B2CDF91CF911F910F91EF90DF90CF90BB
:10515000BF90AF900895CF92DF92EF920F93CF93CD
:10516000DF93EC016B0120E041E00E9472188E8118
:10517000843658F40B85E02E2FE230E141E351E113
:105180006AE270E090E00E940B2CE12C00E02DE040
:1051900030E14DE150E16CE170E088E690E00E9482
:1051A0000B2CF601238D4BE45FE066E270E088E6AD
:1051B00090E00E948C2BB601CE010E9458180A85FF
:1051C0002FE14D81B601CE010E945F28F601838D4B
:1051D000DF91CF910F91EF90DF90CF900C94332916
:1051E00080918F020895089508950E94BB37FC01B5
:1051F000DB011A968C911A97809519969C911997B4
:10520000892351F08281882311F08CE78283828187
:10521000811102C081E082839281992349F09F5FCE
:1052200092839D3729F440E062E0CD010C94802602
:105230000895FB01DC0118961C9218971A961C928F
:10524000168A158A148A138A128A118A108A138E72
:10525000128E80EF98E290938E0280938D028EE4FE
:1052600098E10C942D1A909194029EBD91E08130AA
:1052700009F490E091959093940221E030E09FEF43
:10528000F901EC56FD4F6081813039F018F0823021
:1052900039F011C02F5F3F4F0AC02F5F3F4F0AC048
:1052A000A9014F5F5F4F203831401CF49A01908371
:1052B00002C09A0110820DB407FEFDCF6EBD21150C
:1052C00044E03407ECF20DB407FEFDCF0895E4E3AB
:1052D000F0E290E1969FD001A0781124A80F6770AA
:1052E000E60FF11D9491AC56BD4F8C91982B9C9379
:1052F0000895CF93DF9300D000D0CDB7DEB761150E
:1053000071058105910579F09B01AC0169833A83B0
:105310004B835C830E94873529813A814B815C8174
:105320000E94E33503C060E070E0CB010F900F9066
:105330000F900F90DF91CF9108953FB7F89480912F
:10534000950690919606A0919706B091980626B57D
:10535000A89B05C02F3F19F00196A11DB11D3FBFAD
:10536000BA2FA92F982F8827820F911DA11DB11D3B
:10537000BC01CD0142E0660F771F881F991F4A9537
:10538000D1F708951F920F920FB60F9211242F9309
:105390003F938F939F93AF93BF938091900290918F
:1053A0009102A0919202B09193023091940623E071
:1053B000230F2D3720F40196A11DB11D05C026E84D
:1053C000230F0296A11DB11D209394068093900295
:1053D00090939102A0939202B093930280919506CC
:1053E00090919606A0919706B09198060196A11DFE
:1053F000B11D8093950690939606A0939706B0935F
:105400009806BF91AF919F918F913F912F910F90EF
:105410000FBE0F901F9018952F923F924F925F9260
:105420006F927F928F929F92AF92BF92CF92DF92B4
:10543000EF92FF920F931F93CF93DF9300D000D092
:1054400000D0CDB7DEB7CD824115510509F43BC17F
:10545000FA0134913196E4914E5F5F4FA32EB12C47
:10546000211102C0EE2061F18E2E869486948694DE
:10547000912CA1E0B0E0FE2FF77011F4A0E0B0E0B5
:105480008A0E9B1EA89CD001A99CB00DB89CB00DA3
:105490001124FD81F33019F4AA0FBB1F0AC00115B6
:1054A000110539F0EA9E4001EB9E900C1124080D85
:1054B000191D2A9F70012B9FF00C11244E0D5F1DAA
:1054C0002D812F3F39F40115110511F021E001C0A4
:1054D00022E02D837C01EA0CFB1C1E141F040CF03F
:1054E000F2C0803891050CF0EEC0DB01AE0FB11DAB
:1054F0001A161B060CF0E7C0603471050CF0E3C00F
:105500004115510509F4DFC0F62FF7706F2EDB014E
:1055100077FD179623E0B595A7952A95E1F7FA2F21
:1055200077FF04C0662011F0FFEFFA0F97FF05C068
:10553000AA27BB27A81BB90B02C0A0E0B0E020E857
:10554000E216F10424F020E8722E781A01C0732EBE
:105550007A1A6F2F0F2E000C770BFF3F1CF4C62E0C
:10556000C09401C0C12C992493942E2F277009F464
:10557000912CE695E695E6959E0E690D711D6930B4
:1055800071051CF0E8E09E2E9F1ADC2CDF0E6D2DBD
:1055900020E86203800D911D11248A0F9B1F61E09A
:1055A00070E0062C02C0660F771F0A94E2F72D8187
:1055B000233011F0E1E001C0E2E0A718B108EA9D54
:1055C000802C1124EE2EF12CC39EA00DB11D1124B0
:1055D000EA9E9001EB9E300DFA9E300D11245A0187
:1055E000A20EB31E0115110509F0A801D7011197EC
:1055F0002A0F3B1F420F531FAFEFA69F9001A79F9B
:10560000300D1124290140945094F90DFE83282D6A
:1056100030E0E79D200D311D1124EE81DE1609F4E6
:1056200052C0DC01AC56BD4F4A018501C12CC714E4
:1056300009F441C0F8013490369EF001379EF00D18
:105640001124FA83E983E095F095FC83EB83FD81D7
:10565000F23019F45C824B8211C0ED81EB3F19F4FA
:105660001A8219820BC0F4013490369EF001379EE5
:10567000F00D1124E095F095FC83EB83D7FC06C078
:10568000FC91EB81EF23F981EF2BEC93662061F025
:10569000F6E0FD154CF0FD01E058FF4F20803C8006
:1056A00023203A80322830828E0C9F1C0E0D1F1D45
:1056B000C3941196BCCFD394A20EB31E420F531FB6
:1056C00080589F4FAACF26960FB6F894DEBF0FBE24
:1056D000CDBFDF91CF911F910F91FF90EF90DF90A1
:1056E000CF90BF90AF909F908F907F906F905F9082
:1056F0004F903F902F900895CF92EF920F931F936A
:105700003AEFC32EE12C00E010E00E940C2A1F911A
:105710000F91EF90CF900895CF92EF920F931F9338
:1057200032E0C32EE12C00E010E00E940C2A1F9111
:105730000F91EF90CF9008950F931F93CF93DF9326
:10574000EC0120E048E258E161E170E08FE290E096
:105750000E948C2B20E04AE058E16AE170E08BE285
:1057600090E00E948C2B20E04AE058E16AE170E072
:1057700089E490E00E948C2B8A8120E0811112C084
:105780004AE058E16AE170E08AE390E00E948C2BE5
:1057900020E04AEB57E16EE270E08AE190E00E947F
:1057A0008C2B25C04CE957E16AE170E08AE390E078
:1057B0000E948C2B20E049E757E16EE270E08CE21A
:1057C00090E00E948C2B8A816FE00E944636C82FA1
:1057D000C3700FE410E0D0E0DC1749F061E370E043
:1057E000C8010E946729DF5F0E5F1F4FF5CFE4E914
:1057F000F2E081E0A0E0B8E000800EBC8111012C55
:105800001197A0FDFDCF0192B9F70DB4DF91CF91B3
:105810001F910F910895CF92EF920F931F93F9016B
:10582000202FCC24C3948F010E940C2A1F910F912A
:10583000EF90CF900895CF92DF92EF920F93CF9396
:10584000DF936C01EB0121E040E00E947218BE0181
:10585000C6010E945818E12C00E020EC3CE149E729
:105860005EE161E070E081E290E00E940B2CF601C5
:10587000268146EA5CE16DE070E08AE290E00E94F9
:105880007C2BF60126814CE85CE16DE070E086E35C
:1058900090E00E947C2BF601268148E75CE16DE0F8
:1058A00070E08FE390E00E947C2BF60126814EE5AC
:1058B0005CE16DE070E087E490E00E947C2BF601F3
:1058C000268144E45CE16DE070E08FE490E00E94AA
:1058D0007C2BF6018781883C51F422E93BE14AEEBA
:1058E0005BE164E370E08BE290E00E940B2CF60138
:1058F000C085C695C695C130B9F068F0C230E9F0F0
:10590000C33051F5E12C00E02EE03BE14EE25BE1DB
:105910006FE170E01DC0E12C00E020E53BE140E7D5
:105920005BE16EE070E011C0E12C00E02EE03BE1B5
:105930004EE25BE16EE070E00BC0E12C00E020E5A0
:105940003BE140E75BE16FE170E080E090E002C0A6
:1059500080E790E00E940B2CF6018285882399F164
:10596000C130C9F078F0C23011F1C33061F5E12CDB
:1059700000E020E439E14EE859E160E170E087E4BD
:1059800090E01FC0E12C00E024E63AE148EB5AE148
:1059900063E070E014C0EE24E39401E024E63AE111
:1059A00048EB5AE163E070E089E590E00AC0E12C41
:1059B00000E02EED39E140E25AE160E170E082E181
:1059C00090E00E940B2C80E0DF91CF910F91EF903F
:1059D000DF90CF900C943329F89487E780930008E8
:1059E00080930108A89588E18093600088E0809307
:1059F0006000FFCFFF920F931F93CF93DF93EC01D3
:105A00008B01FB018185F284F094F82284FF08C0A9
:105A10008D81803118F48F5F8D8303C00E94EC2C40
:105A20001D82F3FE05C045E063E0C8010E948026A8
:105A3000F2FE05C040E067E0C8010E948026F80140
:105A4000878190856FE070E00E946036892B39F481
:105A50008E818F5F833011F08E8301C01E82F8012A
:105A60008781908560E570E00E9460369C019F818F
:105A7000232B59F49C3448F02A8581E082278A87B9
:105A800088858F5F803131F41886983C28F49F5FB9
:105A90009F8302C08887F9CFDF91CF911F910F912B
:105AA000FF9008958F929F92AF92BF92CF92DF9214
:105AB000EF92FF926C01E12CF12C0E949D294B0189
:105AC0005C01C114D104E104F104F1F00E949D29AC
:105AD000DC01CB0188199909AA09BB09883E9340CA
