:100000000C94281B0C94501B0C94501B0C94501BEC
:100010000C94501B0C94501B0C94501B0C94501BB4
:100020000C94501B0C94501B0C94501B0C94501BA4
:100030000C94501B0C94501B0C94501B0C94501B94
:100040000C94501B0C94501B0C94501B0C94501B84
:100050000C94501B0C94501B0C94501B0C94B12A04
:100060000C94501B0C94501B0C94501B0C94501B64
:100070000C94501B0C94501B0C94501B0C94501B54
:100080000C94501B0C94501B0C94501B0C94501B44
:100090000C94501B0C94501B0C94501B0C94501B34
:1000A0000C94501B0C94501B0C94501BF8FCFCFC43
:1000B000FC78F8FCFCFCFCFCF8F8FCFCFCFCFCB854
:1000C000F8FCFCFCFCF8F8FCFCFCFCD8F8FCFEFF9F
:1000D000FFFFFFFFFFFEFCF8010303010000010327
:1000E00003010103030103030303030103030303E8
:1000F00001000303030301000103070F0F0F0F0F9C
:100100000F0703012C0CF80404B48448F80404D449
:100110001404C8F80404D49464B84884941424F8EB
:100120004884941424D8F8040201F14949F10102E9
:1001300004F80102020100000102020101020201B1
:100140000202020202010202020201000202020293
:10015000010001020408090808090804020112014B
:10016000130014001501160217041807190B1A10B2
:100170001B171C1E1D251E201F1B20162111220CC3
:1001800023082405250326022701280129012A0125
:100190002B022C032D052E082F0C30113116321B8B
:1001A000332134253521361E371A381639123A0EC6
:1001B0003B0B3C093D083E073F0740074108420909
:1001C000430B440E45124616471A481E49214A253C
:1001D0004B224C1F4D1C4E1A4F18511653155514D7
:1001E000571459145B145D155F166118621A631C6D
:1001F000641F652266250101020203030302020156
:100200000116124A2B462B422B3F2A3C293A27390A
:10021000243820371B37163711370C380839053A80
:10022000033C023E014100440047004A004C0012DA
:100230000E372B3725371F37193713370D38083945
:10024000053A033C013E014000420044004600489C
:10025000004A004C00130F202B22252420261B28A7
:10026000162A112C0C2E0830053203350238013BBA
:10027000003E004100440047004A004C000E18FEBA
:10028000FEFCF9F7FBF93143677FFFFFFFFFFFFF3C
:10029000FFFFFFFFFFDFCE80303F7FFFFFFFFFFF4D
:1002A000FFFFBFBF97C7F3F8FC2A183F9FDFC3B11A
:1002B000F9F9F3C7F1FCFEFCF1C7F3F9F9F3C7F75D
:1002C000FBFBE78FBF0F67E68E3C3977FBF93143C5
:1002D000677FFFFFFFFEFFFFFFFFFFFFFFFFFFFF47
:1002E000FFFFFFFFFFFFFFFFFFFFFFFFFFFFFFFF1E
:1002F000FEFFF773680C9FFFFFDFCE80303F7FFF6C
:10030000FFFFFFFFFFFFFFFFFFFFFFFFFFFFFFFFFD
:10031000FFFFFFFFFFFFFFFFFFFFBFBF97CFEFE62E
:10032000E0F1BFBF97C7F3F8FC23183F9FDFC3B1CD
:10033000F9F9F347717CFEFC71477379F9F3C7F75C
:10034000FBFBE78FBF0F67E78F3F3F7FFFFFFEFF9E
:10035000F3F9F9F3F9FCFEFEFEFCFEFEFFFFFEFCE6
:10036000F9FDFCFCF8C1D39F1F3EFFF773680C9F9B
:10037000FFFFFFFFFFFFFFFFFFFFFFFFFFFFFFFF8D
:10038000FFFFFFFFBF7F7F3FBB93C5FCBEBF97CF83
:10039000EFE6E0F11E18FFFFFFFFE77373E77399C5
:1003A000CCECCC19EDF4F6660CB9B33B3979F1839A
:1003B000A73F3F7FBFBF9FA7B09ECFE69C3F7F3F39
:1003C0009F7FFFFFFF7E3F8FEF67F0F87F77278BE0
:1003D000F8FCFFFF3F7FFFFF7FFFFFFF3F7FFFFF37
:1003E0007EFEFEFF3F7FFFFF7EFEFEFF3F7FFFFFA3
:1003F0001810FFFFFFFF1FCFEFDF8FF3F9FDF9E3C9
:10040000FDFEFECCE1F7F7E7070FF7F7F3F4F6F39D
:10041000F9FCF3E7EFE7F3EFDFDFDFEFE7F1FDFCF8
:10042000FEFF04083E09093E3F25251A1E21211220
:100430003F21211E3F2525213F0505011E21293A87
:100440003F04043F213F21001021211F3F040A31B6
:100450003F2020203F02023F3F02043F1E21211E79
:100460003F0909061E21112E3F09093622252519AB
:10047000013F01011F20201F0F10201F3F10103FC0
:100480003B04043B03043807312D2321102A2A3C66
:100490003F2424181C2222141824243F1C2A2A2C0E
:1004A000043E05014C52523E3F040438243D2000D6
:1004B0004040443D3F081422213F20003E04043EBA
:1004C0003E04023C1C22221C7E22221C1C22227E74
:1004D0003E040204242A2A12021F22201E20201E6B
:1004E0000E10201E3E10103E360808364E50503E6C
:1004F000322A26221E29251E223F200032292926A3
:100500001221251A0C0A3F08172525191E25251822
:10051000013905031A25251A0629291E002F000076
:10052000002000000229050200040400F0F8FCFE8F
:10053000FFFFFFFF0707FFFFFFFFFFFFFFFF0000B9
:10054000010307070707070700000A13F008F41262
:10055000B535E5050101FF00EF08288CEF0000002C
:10056000010205050505010000003C3E3F3F3F3EFE
:100570003C07063C023D0105023C3C0205013D02F0
:100580003C0000000080C0E0E0E0E0E0E0E0E0E00F
:10059000E0E0E0FCFEFFFFFFFEFCC080000000008A
:1005A0000000FEFFFFFFFFFFFFFFFFFFFFFFFFFF5A
:1005B000FFFFFFFFFFFFFFFFFFFFFFFFFCF8000053
:1005C00000FFFFFFFFFFFFFFFFFFFFFFFFFFFFFF3A
:1005D000FFFFFFFFFFFFFFFFFFFFFFFFFF00060F13
:1005E0000F1F1F1F3F7F7F7F7F3F1F1F1F1F1F1F6B
:1005F0001F1F3F7F7F7F7F3F1F1F1F0F071F1F0092
:100600000000008040A0A0A0A0A0A0A0A0A0A0A04A
:10061000A0BC828581BD823C4080000000000000BB
:10062000FE01FC85FD01FF03FDBDDDEDBD9D85FDEA
:1006300003FF0305BDDDAD3C380304F8000000FFF7
:100640000082B24ABBBBBBBA7AFACACE8686CECB90
:10065000FB7BBABABAB26AE2EA00FF0006090A16E0
:10066000111623414C444123161113131313111671
:1006700023414C4441231611170807181AFFFFFFA6
:10068000FFFFFFFFFFFFFFFFFFFFFFFFFFFFFFFF7A
:10069000FFFFFFFFFFDFDFDFDFDF5F5F5F5F1F1F4A
:1006A0001F1F5F5F5F5F5F5F5F5F5F5F5FF7F7F712
:1006B000F7F7F7F7F7F7F7F7F7F6F4F0E1C30717EF
:1006C0003777F7F7F7030303030303030303030376
:1006D00003030303030303020000010303000000FC
:1006E0000070F8FCFEFEFFFFFEFC60000000000052
:1006F0000000000000000000000060FCFEFFFFFEA4
:10070000FEFCF870000000000080800082C7E7FF58
:10071000FFFFFFFFFEFCFCFC38383838383838382B
:10072000B8B838FCFCFCFFFFFFFFFFFFC7870200E3
:10073000000000070F1F1F0F07010100040E1F3FDD
:100740003F1B010000000000000003070F1F0F0700
:1007500001000000000F1F1F1F1E0C000000000002
:10076000000070F8FCFEFEFFFFFEFC6000000000D1
:10077000000000000000000000000060FCFEFFFF21
:10078000FEFEFCF870000000000000000002C7E759
:10079000FFFFFFFFFFFEFCFCFC38B8B838383838E4
:1007A000383838B8FCFCFCFFFFFFFFFFFFC78702AB
:1007B000808000000000000C1E1F1F1F0F000000A3
:1007C0000001070F1F0F0703000000000000011BBE
:1007D0003F3F1F0E04000101070F1F1F0F07002BD3
:1007E000160000000070880402160141229C60007F
:1007F0000000000000000000000000000000609CFD
:100800002241011602048870000000000080800070
:100810008245243E80808091322444C428282828A0
:1008200028282828A8A828C4442493918080003E22
:1008300044850200000000070810110806010100AD
:10084000040A1121241A0100000000000000030422
:100850000811080601000000000F101213120C000E
:1008600000000000000070880402160141229C6014
:100870000000000000000000000000000000006018
:100880009C22410116020488700000000000000054
:100890000002C5243E00808091B22444C428A8A848
:1008A00028282828282828A84444249391808000B8
:1008B0003E448502808000000000000C12131210DC
:1008C0000F000000000106081108040300000000EA
:1008D0000000011A2421110A040001010608111068
:1008E000080700F00394032903A9027D02FFFFFF1C
:1008F000FFFFFFFFFFFFFFFFC0C0C0808000FFFFC2
:10090000FFFFFFFFFFFFFFFFFFFFFFFFFFFFFFFFF7
:10091000FFFFFFFFFFFFFFFFFFFFE3E3C7C7C38149
:10092000FFFFFFFFFFFFFFFFFFFFFFFFFFFFFFFFD7
:100930007FFFFFFFFFFFFFFFFFFFFFFFE1E1E1E1BF
:10094000E0C0FFFFFFFFFFFFFFFFFFFFFFFFFFFF15
:10095000FF7F3FFFFFFFFFFFFFFFFFFFFFFF0101E3
:1009600000000000FFFFFFFFFFFFFF7F3F1F0700AA
:1009700000000000001140756DEAEAD710DFDF408B
:1009800080BF4040408080001F1F1E3E3E3E3D3DD8
:10099000397A7B787BF7F600FFEAE8D5D4D6109E4B
:1009A000BEA2A2BE22A2444442813D3D3D3D3D3C0B
:1009B0003D3D3D393B383B3B3B807FAAA8AAA8AED2
:1009C00020BEBCA1A1BF21A1A1A120C0F7F7F7F7CC
:1009D000F7787B7B3A3A3B3C3D9D9D403FF1E8F404
:1009E000F8F4FAF4FA0101FF010100000000FFFF32
:1009F000FFFF7F3F8F4720100700000000000080AE
:100A00000DFFFFFFFFFFFFFFFFFFFFFFFFFFFFFFE8
:100A1000FFFFFFFFFFFFFFFFFFFFFFFFFFFFFFFFE6
:100A2000FFFFFFFFFFFFFFFFFFFFFFFFFFFFFFFFD6
:100A3000FFFFFFFFFFFFFFFFFFFFFFFFFFFFFFFFC6
:100A4000FFFFFFFFFFFFFFFFFFFFFFFFFFFFFFFFB6
:100A5000FFFFFFFFFFFFFFFFFFFFFFFFFFFFFFFFA6
:100A6000FFFFFFFFFFFFFFFFFFFFFFFFFFFFFFFF96
:100A7000FFFFFFFFFFFFFFFFFFFFFFFFFFFFFFFF86
:100A8000FF1F1F1F1F1F1F1F1F1F1F1F1F1F1F1F96
:100A90001F1F1F1F1F1F1F1F1F1F1F1F1F1F1F1F66
:100AA0001F1F1F1F1F1F1F1F1F1F1F1F1F1F1F1F56
:100AB0001F1F1F1F1F1F1F1F1F1F1F1F1F1F1F1F46
:100AC0001F1F1F1F1F1F1F1F1F1F1F1F1F1F1F1F36
:100AD0001F1F1F1F1F1F1F1F1F1F1F1F1F1F1F1F26
:100AE0001F1F1F1F1F1F1F1F1F1F1F1F1F1F1F1F16
:100AF0001F1F1F1F1F1F1F1F1F1F1F1F1F1F1F1F06
:100B00001F800DFEBEBEBEBEBEBEBABABA3A3ABA6B
:100B1000BA9A8AAAA2B2B2BAB8B8BABABEBEBEBEB1
:100B2000BEBEBEBEBEBEBEBEBEBEBEBEBEBEBABAED
:100B3000BABA3A1A8AA2B0B8BABABEBEBEBEBEBE71
:100B4000BEBEBEBEBEBEBEBEBEBEBEBEBEBEBEBEC5
:100B5000BEBABAB8A0021ABABABABABABEBEBEBE55
:100B6000BEBEBEBEBEBEBEBEBEBEBEBEBEBEBEBEA5
:100B7000BABABABAB8B8B8B0A2820A1A3ABABABA05
:100B8000BABABA1F1F0717131B191D1C1E1F1F1FE0
:100B90001F1F1F1F1F1F1F1F1F1F1F1F1F1F1F1F65
:100BA0001F1F1F1F1F1F1F1F1F1F1F1F1F1F1F076D
:100BB000111C1E1F1F1F1F1F1F1F1F1F1F1F1F1F57
:100BC0001F1F1F1F1F1F1F1F1F1F1F1F1F1F1F1F35
:100BD0001F1F1F1F1F1F1C10030F1F1F1F1F1F1F63
:100BE0001F1F1F1F1F1F1F1F1F1F1F1F1F1F1F1F15
:100BF0001F1F1F1F1F1F1F1F1F1F1F1E1810010356
:100C00000F1F1FF8FFFFFEFCFCFCFCF8FFFFFEFCC3
:100C1000FCFCFCF8FFFFFEFCFCFCFCF8FFFFFEFC0C
:100C2000FCFCFCF8FFFFFEFCFCFCFCF8FFFFFEFCFC
:100C3000FCFCFCF8FFFFFEFCFCFCFCF8FFFFFEFCEC
:100C4000FCFCFCF8FFFFFEFCFCFCFCF8FFFFFEFCDC
:100C5000FCFCFCF8FFFFFEFCFCFCFCF8FFFFFEFCCC
:100C6000FCFCFCF8FFFFFEFCFCFCFCF8FFFFFEFCBC
:100C7000FCFCFCF8FFFFFEFCFCFCFCF8FFFFFEFCAC
:100C8000FCFCFC0303030303030303030303030349
:100C90000303030303030303030303030303030324
:100CA0000303030303030303030303030303030314
:100CB0000303030303030303030303030303030304
:100CC00003030303030303030303030303030303F4
:100CD00003030303030303030303030303030303E4
:100CE00003030303030303030303030303030303D4
:100CF00003030303030303030303030303030303C4
:100D0000030303800A28070922142408042807097A
:100D10002214240804280709221424080428070997
:100D20002214240804280709221424080428070987
:100D30002214240804280709221424080428070977
:100D40002214240804280709221424080428070967
:100D50002214240804280709221424080428070957
:100D60002214240804280709221424080428070947
:100D70002214240804280709221424080428070937
:100D800022142408040101020101010101010102F0
:100D90000101010101010102010101010101010241
:100DA0000101010101010102010101010101010231
:100DB0000101010101010102010101010101010221
:100DC0000101010101010102010101010101010211
:100DD0000101010101010102010101010101010201
:100DE00001010101010101020101010101010102F1
:100DF00001010101010101020101010101010102E1
:100E00000101010101D5F08D14A1C881CFD9F1AF45
:100E10002000F8FCFEFFFFFFFFFFFFFFFFFFFFFFCB
:100E2000FFFFFFFFFFFFFFFFFFFFFFFFFFFFFFFFD2
:100E3000FFFFFFFFFFFFFFFFFFFFFFFFFFFFFFFFC2
:100E4000FFFEFCF8FFFFFFFFFFFFFFFFFFFFFFFFBD
:100E5000FFFFFFFFFFFFFFFFFFFFFFFFFFFFFFFFA2
:100E6000FFFFFFFFFFFFFFFFFFFFFFFFFFFFFFFF92
:100E7000FFFFFFFFFFFF070F1F3F3F3F3F3F3F3F8A
:100E80003F3F3F3F3F3F3F3F3F3F3F3F3F3F3F3F72
:100E90003F3F3F3F3F3F3F3F3F3F3F3F3F3F3F3F62
:100EA0003F3F3F3F3F1F0F07321600F804F20A0A88
:100EB0000A0A0A0A4ACACA4ACA8A0A4ACACA0A0A92
:100EC000CACA0ACACA0A8ACA4ACA8A0A4ACACA4AC2
:100ED000CA0A0A0A0A0A0A0AF204F80000FF00FF16
:100EE00000000000000080FFFF880F0380FE27FF46
:100EF000F8803FFF80FF3F0043C78EFC780080FFF3
:100F0000FF84CE00000000000000FF00FF0000078B
:100F1000081314141414141414141414141414149E
:100F20001414141414141414141414141414141481
:100F3000141414141414141414141414130807009F
:100F40000000000000C0E0F0F0E0C0000000000081
:100F50000000000000010303010000000000000089
:100F60000080E0F0F8F8F8F0E0C0000000000000B9
:100F7000010307070F0F070301000000C0E0F8FCA2
:100F8000FEFEFFFFFFFFFEFEFCF8F003070F1F1F32
:100F90003F7F7F7F7F3F1F0F03010080D8FCFE7ED5
:100FA0003F1E0C9C3E7F3F9E0C03070F1F1F0F0E22
:100FB0001E3F7F3F1E0D0301000C9EBF3F1E04001D
:100FC000040E1F3F3F1E0C060F1F3F1F0E0400089C
:100FD0001C3E7F3F1E0C0002070F060000000000B1
:100FE000070F1F1E1C0E1E3E3C380000000010386C
:100FF0007C38100002070200000000000000000220
:10100000070E04081C38100000000000000000203B
:1010100070200F0F0000000000C020D0D020C000C2
:1010200000000000000000000001020201000000BA
:101030000000000000000000C02020C000000000F0
:10104000000000000000000001010000000000009E
:10105000000000806090E8E8C8D020C000000000D8
:101060000000010205050B0B050201000000000055
:101070000000806010103020C00000000000000060
:10108000000102020404020100000000C020D8E4B4
:10109000DAFAFDFDFDF5FAFAF408F003040B171770
:1010A0002B5F5F5F5E2D130D020100C0201824042A
:1010B0000202020A040408F00000030408081420D5
:1010C000202021120C02010000805864DA5A2D12EF
:1010D0000C942A5D2D920C03040B1716090E122D89
:1010E0005E2D120D0201000080982424120C0008CD
:1010F0001422120C00000304080906000C1221122D
:101100000C000100000C92AD251A0400040A152DF4
:101110002D120C0609162E150A040008142A5D2D3E
:10112000120C00000C121A04000000040A12120C27
:1011300000000609110A04000000081422120C0025
:1011400000020509060000000000060915120C0C3B
:10115000122A243800000000102854281000000231
:10116000070F060000000000060F1F1E0C0C1E3E9D
:101170003C380000000010387C38100002050200E6
:101180000000000000000002070E04081C381000D8
:10119000000000000000002070200002000000009D
:1011A0000000000000000204000008100000000021
:1011B00000000000000020003C3E3F3F3F3E3C0757
:1011C000063C023D0105023C3C0205013D023C009B
:1011D00000000080C0E0E0E0E0E0E0E0E0E0E0E02F
:1011E000E0FCFEFFFFFFFEFCC080000000000000EE
:1011F000FEFFFFFFFFFFFFFFFFFFFFFFFFFFFFFF00
:10120000FFFFFFFFFFFFFFFFFFFFFCF8000000FFF5
:10121000FFFFFFFFFFFFFFFFFFFFFFFFFFFFFFFFDE
:10122000FFFFFFFFFFFFFFFFFFFFFF00060F0F1F86
:101230001F1F3F7F7F7F7F3F1F1F1F1F1F1F1F1FFE
:101240003F7F7F7F7F3F1F1F1F0F071F1F00000073
:10125000008040A0A0A0A0A0A0A0A0A0A0A0A0BC92
:10126000828581BD823C4080000000000000FE01BC
:10127000FC85FD01FF03FDBDDDEDBD9D85FD03FF8B
:101280000305BDDDAD3C380304F8000000FF00821B
:10129000B24ABBBBBBBA7AFACACE8686CECBFB7B40
:1012A000BABABAB26AE2EA00FF0006090A161116D3
:1012B00023414C44412316111313131311162341D8
:1012C0004C444123161117080700000000000000DD
:1012D000000000000000FCFEFFFFFFFFFFFFFFFF1C
:1012E000FFFEFCF8E0C00080F8FCFEFFFFFFFFFF00
:1012F000FFFFFFFFFFFFFFFFFFFFFFFFFFFFFFFFFE
:10130000FFFFFFFF8007070F0F0F1F3F3F3F3F1FEC
:101310000F0F0F0F0F0F0F0F1F3F3F3F3F1F0F0FFD
:101320000F07031E1800000000000000000000006E
:101330000000FC022501FDFD1DED2D2D29A2C41884
:1013400020C000807804D255B5D55555D5B575F572
:10135000F5F0F7F0FF7FB8D75456D7B571F0807F1E
:101360008007040B080B1120262220110B08090905
:101370000909080B1120262220110B080B04031069
:101380000803030303030303030303030303030328
:10139000030820FFFFFFFFFFFFFFFFFFFFFFFFFF2F
:1013A000FFFFFF13472F4F170F5F0F0C0A0A0A0AA0
:1013B0000A0A0A20079D733A1DD9B273979C4DB94A
:1013C000ED5A7139D739272773CE713999DD3A3201
:1013D000E59CEB5CCD050D0F929DAB64E72AD9B976
:1013E0004A76AE929DAB64E72A598CD145175D745D
:1013F000D1450A4D079DAB9DB2B1395749272B2ED8
:10140000E76AD791652F5793652F57E3CAB9DA2951
:101410001B9B734EA723536EBB565C6B25959B7E1F
:10142000D9B94B4EE66476EB709476CEB9BC72DBDC
:10143000B5E272AE76CAC6E65CED3A070D0FD5E5A9
:1014400094BC9C929753F2724A5E4EC9CB2979E5BF
:10145000955452492595545249259554524925157C
:10146000192307524E2AA9A453B8954ED9D099559D
:101470004E92659593540F08C1F7C1FFC1D5FFC1C6
:10148000DFFFC1F5FBFFD1C0E0E0F0F0F0F0F8FCC9
:10149000FEFF7F7FFEFC60000101070707070707CB
:1014A00007070400000000100BC0202010D0D0500F
:1014B000180402816141829C600001010701000063
:1014C000000400030400000000F8FCFCFCFC78F8B9
:1014D000FCFCFCFCFCF8F8FCFCFCFCFCB8F8FCFC9C
:1014E000FCFCF8F8FCFCFCFCD8F8FCFEFFFFFFFF5E
:1014F000FFFFFEFCF80103030100000103030101EB
:1015000003030103030303030103030303010003B4
:1015100003030301000103070F0F0F0F0F0F070352
:10152000012C0CF80404B48448F80404D41404C84E
:10153000F80404D49464B84884941424F848849437
:101540001424D8F8040201F14949F1010204F80118
:101550000202010000010202010102020102020274
:101560000202010202020201000202020201000163
:10157000020408090808090804020129100040A013
:101580005000CF012101FFFF000000800000FFFF9D
:10159000FF0000000000BFBF1F00004040E0F8FF58
:1015A000FF00A854A850AA55AA5500FFFFFFFFFF4F
:1015B000FF00AA55AA5500FFFFFF00AA55AA00FF89
:1015C000FFFF0054AA54A803FFFF00AA55AA55A084
:1015D00050A04000CF012101FFFF00A050A040001B
:1015E000FFFFFF00A050A000BFBF1F40005040E021
:1015F000F8FFFF00A050A040AA55AA5500FFFFFF2A
:10160000FFFFFF00AA55AA5500FFFFFF00AA55AA39
:1016100000FFFFFF0055AA55A803FFFF00AA55AA27
:10162000558040A04000CF012101FFFF00A854A831
:101630005000FFFFFF00A854A800BFBF1F000040DC
:1016400040E0F8FFFF00A854AA54AA55AA5500FF8D
:10165000FFFFFFFFFF00AA55AA5500FFFFFF00AAEA
:1016600055AA00FFFFFF0054AA54A803FFFF00AAD9
:1016700055AA55F8FCFEFFFFFFFFFFFFFFFFFFFF2E
:10168000FFFFFFFFFFFFFFFFFFFFFFFFFFFFFFFF6A
:10169000FFFFFFFFFFFFFFFFFFFFFFFFFFFFFFFF5A
:1016A000FFFFFFFFFFFFFFFFFFFFFFFFFFFFFFFE4B
:1016B000FCF8FFFFFFFFFFFFFFFFFFFFFFFFFFFF44
:1016C000FFFFFFFFFFFFFFFFFFFFFFFFFFFFFFFF2A
:1016D000FFFFFFFFFFFFFFFFFFFFFFFFFFFFFFFF1A
:1016E000FFFFFFFFFFFFFFFFFFFFFFFFFFFFFFFF0A
:1016F000FFFFFFFFFFFFFFFFFFFFFFFFFFFFFFFFFA
:10170000FFFFFFFFFFFFFFFFFFFFFFFFFFFFFFFFE9
:10171000FFFFFFFFFFFFFFFFFFFFFFFFFFFFFFFFD9
:10172000FFFFFFFFFFFFFFFFFFFFFFFFFFFFFFFFC9
:10173000FFFFFFFFFFFFFFFFFFFFFFFFFFFFFFFFB9
:10174000FFFFFFFFFFFFFFFFFFFFFFFFFFFFFFFFA9
:10175000FFFFFFFFFFFFFFFFFFFFFFFFFFFFFFFF99
:10176000FFFFFFFFFFFFFFFFFFFFFFFFFFFFFFFF89
:10177000FFFFFFFFFFFFFFFFFFFFFFFFFFFFFFFF79
:10178000FFFFFFFFFFFFFFFFFFFFFFFFFFFFFFFF69
:10179000FFFFFFFFFFFFFFFFFFFFFFFFFFFFFFFF59
:1017A000FFFFFFFFFFFFFFFFFFFFFFFFFFFFFFFF49
:1017B000FFFFFFFFFFFFFFFFFFFFFFFFFFFFFFFF39
:1017C000FFFFFFFFFFFFFFFFFFFFFFFFFFFFFFFF29
:1017D000FFFFFFFFFFFFFFFFFFFFFFFFFFFFFFFF19
:1017E000FFFFFFFFFFFFFFFFFFFFFFFFFF00010302
:1017F0000707070707070707070707070707070779
:101800000707070707070707070707070707070768
:101810000707070707070707070707070707070758
:101820000707070707070707070301003F33F80407
:10183000FA0D05E5E525252525252525252525253B
:10184000E52525252525252525E5252525252525C8
:10185000252525252565E5E5E5E5252525252525F8
:101860002525252525E5E5E5050DFA04F8FF00FF0A
:101870000000FFFFFF000000000000FF1F1C18F821
:10188000FF000000000000FFFFFF0000000000FF5D
:10189000FFFF000000000083FFFF000000000000C9
:1018A000FFFF3F38F8FFFF0000FF00FFFF00FF00D1
:1018B00000FFFFFF000000000000FCF0F0F0FFFF61
:1018C000000000000000FFFFFF0000000000FBFB25
:1018D000F1000004040E3FFFFF000000000000FDC7
:1018E000FDE0E0FFFFFF0000FF00FFFF00FF000042
:1018F000FFFFCFC0C0C0C0C0404F7F7F7F7F4FC0C1
:10190000C0C04040404FFFCF4040C0C0C04F7F7F6D
:10191000E04040404040FFCFC040404040C0CFCFBB
:10192000C7C0F0FFFF0000FF00FFFF00FF0000FF47
:10193000FF9F2F37470F9FFF0000007F7F0080C170
:10194000FF03FC000001FFFF00C0030F3F0000FF8A
:10195000FF000000FFFF030000FFFEF89F2F374746
:101960000F9FFFFF0000FF00FFFF00FF80003F3FD1
:101970003F3F3E3E3F3F2F2020202F3F3F3F2F2025
:101980002D3D2D2020202F202F3F3C3020203F2F89
:101990002020202F3F3C30202F27333F3F3E3E3F2B
:1019A0003F3F3F0080FF00FF0001020505050505E0
:1019B00005050505050505050505050505050505D7
:1019C00005050505050505050505050505050505C7
:1019D00005050505050505050505050505050505B7
:1019E00005050505020100008080C0C0C0FFFFFFA3
:1019F000FFFFFFFFFFFFFFFFFFFFFFFFFFFFFFFFF7
:101A0000FFFFFFFFFFFFFFFFFF80C1C3C3E3E3FF53
:101A1000FFFFFFFFFFFFFFFFFFFF7FFFFFFFFFFF56
:101A2000FFFFFFFFFFFFFFFFFFFFFFC0E0E1E1E17E
:101A3000E1FFFFFFFFFFFFFFFFFFFFFF3F7F7F7F14
:101A4000FFFFFFFFFFFFFFFFFFFFFFFFFF000000A3
:101A5000000000FFFFFFFFFFFFFFFFFFFFFF000091
:101A6000000000000F1F3F7FFFFFFFFFFFFFFF1180
:101A700040008080404040BF8040DFDF10D7EAEA6E
:101A80006D75FF00F6F77B787B7A393D3D3E3E3E33
:101A90001E1F1F80414242A222BEA2A2BE9E10D69D
:101AA000D4D5E8EA7F803B3B3B383B393D3D3D3C6C
:101AB0003D3D3D3D3DC020A1A1A121BFA1A1BCBE96
:101AC00020AEA8AAA8AA3F405D5DBDBC3B3A3A7BC8
:101AD0007B78F7F7F7F7F7000000000000FF01013F
:101AE000FAF4FAF4F8F4E8F10000000000000F1036
:101AF00020478F3F7FFFFFFFFFFFFFFFFFFFFFFF3D
:101B0000FFFFFFFFC0C0C0808000FFFFFFFFFFFF9F
:101B1000FFFFFFFFFFFFFFFFFFFFFFFFFFFFFFFFD5
:101B2000FFFFFFFFFFFFE3E3C7C7C381FFFFFFFF27
:101B3000FFFFFFFFFFFFFFFFFFFFFFFF7FFFFFFF35
:101B4000FFFFFFFFFFFFFFFFE1E1E1E1E0C0FFFF7B
:101B5000FFFFFFFFFFFFFFFFFFFFFFFFFF7F3FFFD5
:101B6000FFFFFFFFFFFFFFFFFFFF0101000000007D
:101B7000FFFFFFFFFFFFFF7F3F1F07000000000088
:101B8000001140756DEAEAD710DFDF4080BF4040AA
:101B9000408080001F1F1E3E3E3E3D3D397A7B78CF
:101BA0007BF7F600FFEAE8D5D4D6109EBEA2A2BE0F
:101BB00022A2444442813D3D3D3D3D3C3D3D3D39B9
:101BC0003B383B3B3B807FAAA8AAA8AE20BEBCA165
:101BD000A1BF21A1A1A120C0F7F7F7F7F7787B7B80
:101BE0003A3A3B3C3D9D9D403FF1E8F4F8F4FAF46D
:101BF000FA0101FF010100000000FFFFFFFF7F3F2E
:101C00008F47201007000000000000800DFFFFFF3D
:101C1000FFFFFFFFFFFFFFFFFFFFFFFFFFFFFFFFD4
:101C2000FFFFFFFFFFFFFFFFFFFFFFFFFFFFFFFFC4
:101C3000FFFFFFFFFFFFFFFFFFFFFFFFFFFFFFFFB4
:101C4000FFFFFFFFFFFFFFFFFFFFFFFFFFFFFFFFA4
:101C5000FFFFFFFFFFFFFFFFFFFFFFFFFFFFFFFF94
:101C6000FFFFFFFFFFFFFFFFFFFFFFFFFFFFFFFF84
:101C7000FFFFFFFFFFFFFFFFFFFFFFFFFFFFFFFF74
:101C8000FFFFFFFFFFFFFFFFFFFFFFFFFF1F1F1F04
:101C90001F1F1F1F1F1F1F1F1F1F1F1F1F1F1F1F54
:101CA0001F1F1F1F1F1F1F1F1F1F1F1F1F1F1F1F44
:101CB0001F1F1F1F1F1F1F1F1F1F1F1F1F1F1F1F34
:101CC0001F1F1F1F1F1F1F1F1F1F1F1F1F1F1F1F24
:101CD0001F1F1F1F1F1F1F1F1F1F1F1F1F1F1F1F14
:101CE0001F1F1F1F1F1F1F1F1F1F1F1F1F1F1F1F04
:101CF0001F1F1F1F1F1F1F1F1F1F1F1F1F1F1F1FF4
:101D00001F1F1F1F1F1F1F1F1F1F1F1F1F800DFEB5
:101D1000BEBEBEBEBEBEBABABA3A3ABABA9A8AAA6B
:101D2000A2B2B2BAB8B8BABABEBEBEBEBEBEBEBE1F
:101D3000BEBEBEBEBEBEBEBEBEBEBABABABA3A1AFB
:101D40008AA2B0B8BABABEBEBEBEBEBEBEBEBEBE1F
:101D5000BEBEBEBEBEBEBEBEBEBEBEBEBEBABAB8B1
:101D6000A0021ABABABABABABEBEBEBEBEBEBEBE25
:101D7000BEBEBEBEBEBEBEBEBEBEBEBEBABABABA93
:101D8000B8B8B8B0A2820A1A3ABABABABABABA1F7E
:101D90001F0717131B191D1C1E1F1F1F1F1F1F1F8F
:101DA0001F1F1F1F1F1F1F1F1F1F1F1F1F1F1F1F43
:101DB0001F1F1F1F1F1F1F1F1F1F1F07111C1E1F5D
:101DC0001F1F1F1F1F1F1F1F1F1F1F1F1F1F1F1F23
:101DD0001F1F1F1F1F1F1F1F1F1F1F1F1F1F1F1F13
:101DE0001F1F1C10030F1F1F1F1F1F1F1F1F1F1F41
:101DF0001F1F1F1F1F1F1F1F1F1F1F1F1F1F1F1FF3
:101E00001F1F1F1F1F1F1F1E181001030F1F1FF86A
:101E1000FFFFFEFCFCFCFCF8FFFFFEFCFCFCFCF8FA
:101E2000FFFFFEFCFCFCFCF8FFFFFEFCFCFCFCF8EA
:101E3000FFFFFEFCFCFCFCF8FFFFFEFCFCFCFCF8DA
:101E4000FFFFFEFCFCFCFCF8FFFFFEFCFCFCFCF8CA
:101E5000FFFFFEFCFCFCFCF8FFFFFEFCFCFCFCF8BA
:101E6000FFFFFEFCFCFCFCF8FFFFFEFCFCFCFCF8AA
:101E7000FFFFFEFCFCFCFCF8FFFFFEFCFCFCFCF89A
:101E8000FFFFFEFCFCFCFCF8FFFFFEFCFCFCFC037F
:101E90000303030303030303030303030303030312
:101EA0000303030303030303030303030303030302
:101EB00003030303030303030303030303030303F2
:101EC00003030303030303030303030303030303E2
:101ED00003030303030303030303030303030303D2
:101EE00003030303030303030303030303030303C2
:101EF00003030303030303030303030303030303B2
:101F00000303030303030303030303030303038024
:101F10000A2807092214240804280709221424087F
:101F20000428070922142408042807092214240875
:101F30000428070922142408042807092214240865
:101F40000428070922142408042807092214240855
:101F50000428070922142408042807092214240845
:101F60000428070922142408042807092214240835
:101F70000428070922142408042807092214240825
:101F80000428070922142408042807092214240815
:101F9000040101020101010101010102010101012C
:101FA000010101020101010101010102010101011F
:101FB000010101020101010101010102010101010F
:101FC00001010102010101010101010201010101FF
:101FD00001010102010101010101010201010101EF
:101FE00001010102010101010101010201010101DF
:101FF00001010102010101010101010201010101CF
:1020000001010102010101010101010201010101BE
:10201000010E1801010306080406CEBC98800000DA
:1020200000000000000000000020317FCFC08000D1
:10203000000000000000404068380C07032A18C068
:1020400060203C4E06060C380E0301030E380C06C9
:10205000060C38080404187040F0981971C3C6883B
:102060000406CEBC988000000001000000000000C3
:102070000000000000000000000000000000000060
:10208000000000000100088C97F360000020317F01
:10209000CFC0800000000000000000000000000031
:1020A00000000000000000000000000000004040B0
:1020B000683010191F0E404068380C07032318C001
:1020C00060203C4E06060CB88E8301038EB88C86C9
:1020D000060C38080404187040F0981870C0C080CE
:1020E000000001000C06060C0603010101030101BA
:1020F0000000010306020303073E2C60E0C1000854
:102100008C97F36000000000000000000000000059
:102110000000000000000000408080C0446C3A03D2
:102120004140683010191F0E1E1800000000188C66
:102130008C188C66331333E6120B0999F3464CC4A2
:10214000C6860E7C58C0C080404060584F61301930
:1021500063C080C0608000000081C07010980F07CD
:102160008088D874070300E020408080008000E071
:1021700020408080018101E020408080018101E0D9
:1021800020408080181000000000E0301020700C0B
:102190000602061C020101331E080818F8F00808A0
:1021A0000C0B090C06030C1810180C102020201022
:1021B000180E020301000E18FEFEFCF9F7FBF931C0
:1021C00043677FFFFFFFFFFFFFFFFFFFFFFFDFCE44
:1021D00080303F7FFFFFFFFFFFFFFFBFBF97C7F3C9
:1021E000F8FC2A183F9FDFC3B1F9F9F3C7F1FCFEF1
:1021F000FCF1C7F3F9F9F3C7F7FBFBE78FBF0F67F4
:10220000E68E3C3977FBF93143677FFFFFFFFEFF26
:10221000FFFFFFFFFFFFFFFFFFFFFFFFFFFFFFFFCE
:10222000FFFFFFFFFFFFFFFFFFFEFFF773680C9F3D
:10223000FFFFDFCE80303F7FFFFFFFFFFFFFFFFF8D
:10224000FFFFFFFFFFFFFFFFFFFFFFFFFFFFFFFF9E
:10225000FFFFFFBFBF97CFEFE6E0F1BFBF97C7F328
:10226000F8FC23183F9FDFC3B1F9F9F347717CFEF7
:10227000FC71477379F9F3C7F7FBFBE78FBF0F6773
:10228000E78F3F3F7FFFFFFEFFF3F9F9F3F9FCFE15
:10229000FEFEFCFEFEFFFFFEFCF9FDFCFCF8C1D3D8
:1022A0009F1F3EFFF773680C9FFFFFFFFFFFFFFFBD
:1022B000FFFFFFFFFFFFFFFFFFFFFFFFFFBF7F7F6E
:1022C0003FBB93C5FCBEBF97CFEFE6E0F11E18FF02
:1022D000FFFFFFE77373E77399CCECCC19EDF4F6CD
:1022E000660CB9B33B3979F183A73F3F7FBFBF9FEE
:1022F000A7B09ECFE69C3F7F3F9F7FFFFFFF7E3FC3
:102300008FEF67F0F87F77278BF8FCFFFF3F7FFFA9
:10231000FF7FFFFFFF3F7FFFFF7EFEFEFF3F7FFF50
:10232000FF7EFEFEFF3F7FFFFF1810FFFFFFFF1F36
:10233000CFEFDF8FF3F9FDF9E3FDFEFECCE1F7F718
:10234000E7070FF7F7F3F4F6F3F9FCF3E7EFE7F33A
:10235000EFDFDFDFEFE7F1FDFCFEFFF8FCFEFFFF44
:10236000FFFFFFFFFFFFFFFFFFFFFFFFFFFFFFFF7D
:10237000FFFFFFFFFFFFFFFFFFFFFFFFFFFFFFFF6D
:10238000FFFFFFFFFFFFFFFFFFFFFEFCF8FFFFFF68
:10239000FFFFFFFFFFFFFFFFFFFFFFFFFFFFFFFF4D
:1023A000FFFFFFFFFFFFFFFFFFFFFFFFFFFFFFFF3D
:1023B000FFFFFFFFFFFFFFFFFFFFFFFFFFFFFF0725
:1023C0000F1F3F3F3F3F3F3F3F3F3F3F3F3F3F3F6D
:1023D0003F3F3F3F3F3F3F3F3F3F3F3F3F3F3F3F0D
:1023E0003F3F3F3F3F3F3F3F3F3F3F3F3F3F1F0F4D
:1023F00007321600F804F20A0A0A0A0A0A4ACACA86
:102400004ACA8A0A4ACACA0A0ACACA0ACACA0A8A6C
:10241000CA4ACA8A0A4ACACA4ACA0A0A0A0A0A0A1C
:102420000AF204F80000FF00FF0000000000008036
:10243000FFFF880F0380FE27FFF8803FFF80FF3FEC
:102440000043C78EFC780080FFFF84CE00000000B0
:10245000000000FF00FF00000708131414141414F8
:10246000141414141414141414141414141414142C
:10247000141414141414141414141414141414141C
:10248000141414141413080700F8FCFEFFFFFFFFD8
:10249000FFFFFFFFFFFFFFFFFFFFFFFFFFFFFFFF4C
:1024A000FFFFFFFFFFFFFFFFFFFFFFFFFFFFFFFF3C
:1024B000FFFFFFFFFFFFFFFFFFFFFFFFFFFFFFFF2C
:1024C000FFFFFFFFFFFFFEFCF8FFFFFFFFFFFFFF27
:1024D000FFFFFFFFFFFFFFFFFFFFFFFFFFFFFFFF0C
:1024E000FFFFFFFFFFFFFFFFFFFFFFFFFFFFFFFFFC
:1024F000FFFFFFFFFFFFFFFFFFFFFFFFFFFFFFFFEC
:10250000FFFFFFFFFFFFFFFFFF070F1F3F3F3F3FA3
:102510003F3F3F3F3F3F3F3F3F3F3F3F3F3F3F3FCB
:102520003F3F3F3F3F3F3F3F3F3F3F3F3F3F3F3FBB
:102530003F3F3F3F3F3F3F3F3F3F3F3F3F3F3F3FAB
:102540003F3F3F3F3F3F1F0F07401600F804F20A8E
:102550000A0ACA4ACACA0A0A4ACACA0A0A4ACACADB
:102560000ACACA4A4ACACA4ACA0A0A0A0A0ACA4A4B
:10257000CA0A4ACACA0ACA4A4ACACA4ACA0A4ACA7B
:10258000CA4ACA8A0A0A0AF204F80000FF00FF00D9
:10259000003FFF807CFD0480FE27FFF88080FF1F46
:1025A0000EFFFF8080FFFF84CE000000003FFF8011
:1025B000FF3F0003FFFC070080FFFF84CE0080FF89
:1025C000FF08FFF3800000FF00FF0000070813145E
:1025D00014141414141414141414141414141414BB
:1025E00014141414141414141414141414141414AB
:1025F000141414141414141414141414141414149B
:1026000014141414141414130807003C3E3F3F3FE5
:102610003E3C07063C023D0105023C3C0205013DF3
:10262000023C0000000080C0E0E0E0E0E0E0E0E02C
:10263000E0E0E0E0FCFEFFFFFFFEFCC080000000E9
:10264000000000FEFFFFFFFFFFFFFFFFFFFFFFFF98
:10265000FFFFFFFFFFFFFFFFFFFFFFFFFFFCF80093
:102660000000FFFFFFFFFFFFFFFFFFFFFFFFFFFF78
:10267000FFFFFFFFFFFFFFFFFFFFFFFFFFFF000662
:102680000F0F1F1F1F3F7F7F7F7F3F1F1F1F1F1FBA
:102690001F1F1F3F7F7F7F7F3F1F1F1F0F071F1FB2
:1026A000000000008040A0A0A0A0A0A0A0A0A0A02A
:1026B000A0A0BC828581BD823C408000000000005B
:1026C00000FE01FC85FD01FF03FDBDDDEDBD9D8527
:1026D000FD03FF0305BDDDAD3C380304F800000039
:1026E000FF0082B24ABBBBBBBA7AFACACE8686CE9C
:1026F000CBFB7BBABABAB26AE2EA00FF0006090A6B
:1027000016111623414C44412316111313131311B0
:102710001623414C444123161117080780C0E0F0EE
:10272000E0C4CEFFFFFFFFCEC4E0F0E0C08003179F
:102730003F7FFFFFFFFFFFFFFFFFFFFF7F3F17030D
:102740000000000000010100000000010100000085
:10275000000000000000C0E4CEFFFFFFFFCEE4C099
:10276000000000000000001FBFFFFFFFFFFFFFFF92
:10277000FFBF1F000000000000000001010000007A
:10278000000101000000000000000000C0E4CEFFD6
:10279000FFFFFFCEE4C0000000000000000087DF64
:1027A000FFFFFFFFFFFFDF870000000000000000C9
:1027B0000001010000000001010000000000000015
:1027C00000000004CEFFFFFFFFCE04000000000069
:1027D0000000000080D8FDFFFFFFFFFDD880000053
:1027E00000000000000000010100000000010100E5
:1027F0000000000012118040A01020C4CA35151539
:1028000035CAC42010A0408002152851C65865BAA8
:102810008181BA6558C651281502000000000001E8
:1028200001000000000101000000000000000000A5
:10283000C024CA35151535CA24C0000000000000A8
:10284000001FA05865BA8181BA6558A01F0000001A
:102850000000000000010100000000010100000074
:10286000000000000000C024CA35151535CA24C078
:102870000000000000000000875865BA8181BA6539
:102880005887000000000000000000010100000067
:102890000001010000000000000000000004CA3533
:1028A000151535CA04000000000000000000805823
:1028B00065BA8181BA655880000000000000000000
:1028C00000010100000000010100000000003E7F47
:1028D0003E7F3E7F7F3E7F7E3E7F3F0E2E7F2E11CE
:1028E000073E4136413E41553E415E3E41350A2E4E
:1028F000512EC0E0E0F0F0F0F0F8FCFEFF7F7FFE2C
:10290000FC6000010107070707070707070400002D
:102910000000100BC0202010D0D05018040281619C
:1029200041829C60000101070100000004000304D3
:10293000000000000000000000C0E0F0F0E0C00077
:10294000000000000000000000010303010000007F
:10295000000000000080E0F0F8F8F8F0E0C00000AF
:1029600000000000010307070F0F0703010000002C
:10297000C0E0F8FCFEFEFFFFFFFFFEFEFCF8F003E8
:10298000070F1F1F3F7F7F7F7F3F1F0F03010080C7
:10299000D8FCFE7E3F1E0C9C3E7F3F9E0C03070F23
:1029A0001F1F0F0E1E3F7F3F1E0D0301000C9EBF19
:1029B0003F1E0400040E1F3F3F1E0C060F1F3F1F4B
:1029C0000E0400081C3E7F3F1E0C0002070F06008D
:1029D00000000000070F1F1E1C0E1E3E3C380000AA
:1029E000000010387C3810000207020000000000D0
:1029F00000000002070E04081C3810000000000050
:102A00000000002070200F0F0000000000C020D048
:102A1000D020C00000000000000000000001020201
:102A2000010000000000000000000000C02020C0E5
:102A30000000000000000000000000000101000094
:102A400000000000000000806090E8E8C8D020C0CE
:102A5000000000000000010205050B0B050201004B
:102A6000000000000000806010103020C000000056
:102A70000000000000010202040402010000000046
:102A8000C020D8E4DAFAFDFDFDF5FAFAF408F00307
:102A9000040B17172B5F5F5F5E2D130D020100C043
:102AA000201824040202020A040408F000000304AF
:102AB00008081420202021120C0201000080586414
:102AC000DA5A2D120C942A5D2D920C03040B171662
:102AD000090E122D5E2D120D020100008098242493
:102AE000120C00081422120C00000304080906004E
:102AF0000C1221120C000100000C92AD251A0400EA
:102B0000040A152D2D120C0609162E150A040008AC
:102B1000142A5D2D120C00000C121A04000000048F
:102B20000A12120C00000609110A04000000081421
:102B300022120C0000020509060000000000060930
:102B400015120C0C122A24380000000010285428FA
:102B500010000002070F060000000000060F1F1EF5
:102B60000C0C1E3E3C380000000010387C38100071
:102B7000020502000000000000000002070E040829
:102B80001C3810000000000000000020702000022F
:102B90000000000000000000000002040000081017
:102BA0000000000000000000000020000E0E0E1FBC
:102BB0001F1F1F1F1F0E0E0E001C1F1F1F1F1F1F7A
:102BC0001F1F070000071F1F1F1F1F1F1F1F1C00A5
:102BD0000C050E0A0E1F151F1F151F0E0A0E0004EE
:102BE00000000A00000A00000400001C171D1F1747
:102BF0001D1F171D07000000080200080200080240
:102C0000000000071D171F1D171F1D171C000000C7
:102C100002080002080002080000C0E0E0F0FCFE2C
:102C2000FFFFFFFEFFF6F8F0F060003179797D3F9D
:102C30000F0F0F0F07070F1E0F060E1F1FFEF8F0D6
:102C4000FFFFFFFFFCF8F8F0E000000010397F7F85
:102C50002F3F7F7F3F0B0707020030F8BCF8F0F0F2
:102C6000F8F8F8F8FEDFCFCFC6800307070F377FED
:102C70003F7F7F7F3F1F07030301A0F0F0E8FEFFC7
:102C8000FFFEFAFFFFCE0400000003070F0F1F7FB7
:102C90007F7F7F070F3F7C7C38000030F8FCFEFE12
:102CA000FEFC7E3CF8F8F0C00000163F3F1F0F1FEF
:102CB0003F3F3F3F1F1F1F1F1F0E00C6EFFEFFFFBE
:102CC000FEFCFCFEFEFCF870000000033F7F7F7FEF
:102CD0003F3C3D1F1F0F03010000387CFCFCFCFC47
:102CE0007E7EFEFEFCF8FCFE7E34000001070F0F26
:102CF0001E3F1F3F3F3F1F0F06000040E0F8FCFC57
:102D0000DE9EFEFFFFFFFEE0000000070F1F3F3FBB
:102D10001F1F3F7F7F3F7B310000100FC02020101E
:102D20007CC28109191A693688909060003149493E
:102D300045320A0808080505091209060E1111E6B0
:102D400008300F31190B8CC80810E0000000102962
:102D500046502E384346350B0405020030C8A4C83F
:102D60005050080808A8A6514949468003040408A1
:102D7000364B2D4C4840211F04020201A05010E8A0
:102D8000D631610E3A0531CA040000000304080977
:102D900018684C4678060833444438000030C8842C
:102DA000020222B4523CC80830C000001629241E7A
:102DB00008102020232D16161711110E00C6291AEF
:102DC0000D09028C04C282048870000000033C429A
:102DD0004E5D33242512130E020100003844C474E2
:102DE00034B45A6282020408BC924A3400000106DC
:102DF00008091E2516222020100906000040A038D0
:102E0000E4A45292665D39211EE00000000708101C
:102E1000202110182048582C4A31000000000000E2
:102E200070F8FCFEFEFFFFFEFC60000000000000EA
:102E300000000000000000000060FCFEFFFFFEFE3E
:102E4000FCF870000000000080800082C7E7FFFFF0
:102E5000FFFFFFFEFCFCFC3838383838383838B80B
:102E6000B838FCFCFCFFFFFFFFFFFFC78702000034
:102E70000000070F1F1F0F07010100040E1F3F3F37
:102E80001B010000000000000003070F1F0F0701D7
:102E9000000000000F1F1F1F1E0C0000000000009C
:102EA0000070F8FCFEFEFFFFFEFC6000000000006A
:102EB0000000000000000000000060FCFEFFFFFEBC
:102EC000FEFCF870000000000000000002C7E7FFF1
:102ED000FFFFFFFFFEFCFCFC38B8B8383838383844
:102EE0003838B8FCFCFCFFFFFFFFFFFFC7870280FC
:102EF0008000000000000C1E1F1F1F0F00000000BC
:102F000001070F1F0F0703000000000000011B3F17
:102F10003F1F0E04000101070F1F1F0F07002B1694
:102F20000000000070880402160141229C6000002D
:102F300000000000000000000000000000609C2273
:102F400041011602048870000000000080800082A9
:102F500045243E80808091322444C4282828282893
:102F6000282828A8A828C4442493918080003E449F
:102F70008502000000000708101108060101000486
:102F80000A1121241A0100000000000000030408B7
:102F900011080601000000000F101213120C0000AF
:102FA000000000000070880402160141229C6000AD
:102FB0000000000000000000000000000000609C15
:102FC0002241011602048870000000000000000089
:102FD00002C5243E00808091B22444C428A8A828B9
:102FE000282828282828A844442493918080003E3B
:102FF000448502808000000000000C121312100FA4
:103000000000000001060811080403000000000091
:1030100000011A2421110A040001010608111008F8
:10302000070004087EFF817E82FEFF80C6A19FCE3E
:103030006689FF7638ACFFB06F89F9707EFF8578BE
:1030400083F1FD83768D99761EBFA17E18BCFEFFAD
:10305000FFFEFCFEFFFFFEBC1803070F1F1F0F073C
:103060000F1F1F0F07030D0D18A4422151EAF4E2B0
:10307000418142A418030408101008050A11100821
:103080000403FFFFFFFFFFFFFFFFFFFFFFC0C0C004
:10309000808000FFFFFFFFFFFFFFFFFFFFFFFFFF3D
:1030A000FFFFFFFFFFFFFFFFFFFFFFFFFFFFFFE34C
:1030B000E3C7C7C381FFFFFFFFFFFFFFFFFFFFFF66
:1030C000FFFFFFFFFF7FFFFFFFFFFFFFFFFFFFFF90
:1030D000FFE1E1E1E1E0C0FFFFFFFFFFFFFFFFFFD6
:1030E000FFFFFFFFFFFF7F3FFFFFFFFFFFFFFFFF30
:1030F000FFFFFF010100000000FFFFFFFFFFFFFFD8
:103100007F3F1F070000000000001140756DEAEAD4
:10311000D710DFDF4080BF4040408080001F1F1E6F
:103120003E3E3E3D3D397A7B787BF7F600FFEAE88C
:10313000D5D4D6109EBEA2A2BE22A2444442813D56
:103140003D3D3D3D3C3D3D3D393B383B3B3B807F3C
:10315000AAA8AAA8AE20BEBCA1A1BF21A1A1A1205E
:10316000C0F7F7F7F7F7787B7B3A3A3B3C3D9D9DFC
:10317000403FF1E8F4F8F4FAF4FA0101FF0101002C
:10318000000000FFFFFFFF7F3F8F47201007000078
:1031900000000000800DFFFFFFFFFFFFFFFFFFFFAC
:1031A000FFFFFFFFFFFFFFFFFFFFFFFFFFFFFFFF2F
:1031B000FFFFFFFFFFFFFFFFFFFFFFFFFFFFFFFF1F
:1031C000FFFFFFFFFFFFFFFFFFFFFFFFFFFFFFFF0F
:1031D000FFFFFFFFFFFFFFFFFFFFFFFFFFFFFFFFFF
:1031E000FFFFFFFFFFFFFFFFFFFFFFFFFFFFFFFFEF
:1031F000FFFFFFFFFFFFFFFFFFFFFFFFFFFFFFFFDF
:10320000FFFFFFFFFFFFFFFFFFFFFFFFFFFFFFFFCE
:10321000FFFFFFFFFFFF1F1F1F1F1F1F1F1F1F1F7E
:103220001F1F1F1F1F1F1F1F1F1F1F1F1F1F1F1FAE
:103230001F1F1F1F1F1F1F1F1F1F1F1F1F1F1F1F9E
:103240001F1F1F1F1F1F1F1F1F1F1F1F1F1F1F1F8E
:103250001F1F1F1F1F1F1F1F1F1F1F1F1F1F1F1F7E
:103260001F1F1F1F1F1F1F1F1F1F1F1F1F1F1F1F6E
:103270001F1F1F1F1F1F1F1F1F1F1F1F1F1F1F1F5E
:103280001F1F1F1F1F1F1F1F1F1F1F1F1F1F1F1F4E
:103290001F1F1F1F1F1F800DFEBEBEBEBEBEBEBABB
:1032A000BABA3A3ABABA9A8AAAA2B2B2BAB8B8BA0A
:1032B000BABEBEBEBEBEBEBEBEBEBEBEBEBEBEBE32
:1032C000BEBEBEBABABABA3A1A8AA2B0B8BABABEC2
:1032D000BEBEBEBEBEBEBEBEBEBEBEBEBEBEBEBE0E
:1032E000BEBEBEBEBEBEBABAB8A0021ABABABABA9A
:1032F000BABEBEBEBEBEBEBEBEBEBEBEBEBEBEBEF2
:10330000BEBEBEBEBEBABABABAB8B8B8B0A2820A19
:103310001A3ABABABABABABA1F1F0717131B191D3D
:103320001C1E1F1F1F1F1F1F1F1F1F1F1F1F1F1FB1
:103330001F1F1F1F1F1F1F1F1F1F1F1F1F1F1F1F9D
:103340001F1F1F1F07111C1E1F1F1F1F1F1F1F1FB7
:103350001F1F1F1F1F1F1F1F1F1F1F1F1F1F1F1F7D
:103360001F1F1F1F1F1F1F1F1F1F1F1C10030F1FAB
:103370001F1F1F1F1F1F1F1F1F1F1F1F1F1F1F1F5D
:103380001F1F1F1F1F1F1F1F1F1F1F1F1F1F1F1F4D
:103390001E181001030F1F1FF8FFFFFEFCFCFCFCB2
:1033A000F8FFFFFEFCFCFCFCF8FFFFFEFCFCFCFC55
:1033B000F8FFFFFEFCFCFCFCF8FFFFFEFCFCFCFC45
:1033C000F8FFFFFEFCFCFCFCF8FFFFFEFCFCFCFC35
:1033D000F8FFFFFEFCFCFCFCF8FFFFFEFCFCFCFC25
:1033E000F8FFFFFEFCFCFCFCF8FFFFFEFCFCFCFC15
:1033F000F8FFFFFEFCFCFCFCF8FFFFFEFCFCFCFC05
:10340000F8FFFFFEFCFCFCFCF8FFFFFEFCFCFCFCF4
:10341000F8FFFFFEFCFCFCFC0303030303030303B0
:10342000030303030303030303030303030303036C
:10343000030303030303030303030303030303035C
:10344000030303030303030303030303030303034C
:10345000030303030303030303030303030303033C
:10346000030303030303030303030303030303032C
:10347000030303030303030303030303030303031C
:10348000030303030303030303030303030303030C
:103490000303030303030303800A280709221424F8
:1034A00008042807092214240804280709221424E0
:1034B00008042807092214240804280709221424D0
:1034C00008042807092214240804280709221424C0
:1034D00008042807092214240804280709221424B0
:1034E00008042807092214240804280709221424A0
:1034F0000804280709221424080428070922142490
:10350000080428070922142408042807092214247F
:1035100008042807092214240804010102010101FA
:103520000101010102010101010101010201010189
:103530000101010102010101010101010201010179
:103540000101010102010101010101010201010169
:103550000101010102010101010101010201010159
:103560000101010102010101010101010201010149
:103570000101010102010101010101010201010139
:103580000101010102010101010101010201010129
:103590000101010102010101010184212821BD2055
:1035A0003D20112000FC0201010101010101010186
:1035B00001010101010101010101010101010101FB
:1035C000010101010101010102FC00102F50A0A026
:1035D000A0A0A0A0A0A0A0A0A0A0A0A0A0A0A0A0EB
:1035E000A0A0A0A0A0A0A0A0A0A0A0A0A0A0A0502B
:1035F0002F102923CD226222E221B621271000FCC0
:1036000002010101010101010101010101010101A9
:10361000010101010101010101010101010101019A
:10362000010102FC00102F50A0A0A0A0A0A0A0A00B
:10363000A0A0A0A0A0A0A0A0A0A0A0A0A0A0A0A08A
:10364000A0A0A0A0A0A0A0A0A0502F100E300A30D3
:1036500011241FBECFEFDAE0DEBFCDBF11E0A0E046
:10366000B1E0ECE1FCE602C005900D92A23BB1078F
:10367000D9F726E0A2EBB1E001C01D92AF39B20745
:10368000E1F71BE1C7E2DBE104C02197FE010E94E4
:10369000D534C632D107C9F70E9417310C940136D0
:1036A0000C940000FC01E85AFF4F10823C971282F4
:1036B00015823D9610823196108208952F923F9286
:1036C0005F926F927F928F929F92AF92BF92CF92B2
:1036D000DF92EF92FF920F931F93CF93DF938C01B2
:1036E0007B01FB0161847284709476206C01F9E5A2
:1036F000CF0ED11CF6018081811150C2E801C85B58
:10370000DF4FFB018781908565E070E00E94C13446
:10371000892B09F0A2C02881D8011296F2E3AF2EBE
:1037200083E0982E9BE2892E32E0B32E2C5E30E0AF
:1037300061E0C801845B9F4F7AEFAC17BD0709F4C5
:103740008CC015964C911597442309F484C04C9174
:10375000463641F4F701478550894F5F5F4F508BE4
:10376000478734C011965C911197553279F5485FBF
:1037700050E0421B530B57FF03C05195419551092F
:103780004B3020F116966C931697F70121883288FA
:10379000A1014F5F5F4F528B418B5C90FBE3F515AE
:1037A00008F439C2E7E25E1608F029C2F2E15F16BA
:1037B00068F04330510550F4FC0113826283758335
:1037C000F101EB5AFD4F4491FC01448312964C9158
:1037D00012974F5F12964C9312974C3421F4129625
:1037E0001C92129735C016965C911697523031F1A3
:1037F00070F4552399F0513059F54C914F5F4C932B
:1038000011968C9211971696BC92169724C05D3330
:10381000F8F45F5F16965C9316971DC050E0440F56
:10382000551FFA01E25AFE4FE491EC93FA01E15A76
:10383000FE4FE4911196EC9311970DC04C914F5FA0
:103840004C931196AC92119716969C92169703C0C2
:1038500015961C921597179670CFF701818992895A
:10386000039791F4F801329681E0EC17FD0761F0BF
:103870009581992339F09681911104C094819923FF
:1038800009F4D9C13796F1CFF701878190856FE0B0
:1038900070E00E94C134892B89F4F8013296CE176A
:1038A000DF0761F08581882339F083818F5F88305D
:1038B00011F0838301C013823796F1CFF70187811E
:1038C00080FD30C081899289039760F55801F6E543
:1038D000AF0EB11CF501808181508083811122C01F
:1038E000F701878590899801295A3F4F49018B300C
:1038F000910508F0A2C10E94D73322E330E040E0F6
:1039000050E00E944434DC01CB018A569F4FAF4FF8
:10391000BF4FF5018083F401108286E0F801EB5A75
:10392000FF4F8083F701878190856EE170E00E94F0
:10393000C134892B09F03DC0F801E65AFF4F808160
:10394000811137C0F801EB5AFF4F8081882389F13C
:103950008150808381112DC0F80197819111A1C1FF
:1039600090E0AC014F5F5F4F27E0249FF001259F5F
:10397000F00D1124E00FF11F31E03083289FD001BA
:10398000299FB00D1124A00FB11F14961C921497FB
:1039900018961C92189716961C921697EEE5F1E071
:1039A000E4911296EC931297EFE5F1E0E49113960F
:1039B000EC9365FE07C08981811104C08881833141
:1039C00008F01B8266FE07C08981811104C08881CE
:1039D0008C3308F475C1F701878180FD29C08B8184
:1039E000882371F0813021F58881E98191E09E0F73
:1039F0009983F0E0EA50FE4FE491E80FE8830BC0B2
:103A00008881E98191E09E0F9983F0E0EA50FE4FB2
:103A1000E4918E1B88838A818F5F8C3039F41A82FF
:103A20009B3031F4198282E08B8302C08A83F8CF05
:103A3000F7018781908566E070E00E94C134892B90
:103A400009F07DC0D801A45BBF4F12968C911297EC
:103A5000882309F462C015968C9115978F5F15968F
:103A60008C931597282F082E000C330B87FD39C037
:103A700014968C91149790E02817390794F51396B3
:103A80008C9113978130E9F078F0823051F5C901BB
:103A90000196880F991FFC01EF5FFD4FE491EC93B5
:103AA000FC01EE5FFD4F19C0C9010196880F991FF7
:103AB000FC01EB5AFD4FE491EC93FC01EA5AFD4FF7
:103AC0000CC0C9010196880F991FFC01E15DFD4FF3
:103AD000E491EC93FC01E05DFD4FE4911196EC93D1
:103AE000119714968C91149790E02817390719F4C0
:103AF00012961C921297821B930BF801EC5AFF4FFF
:103B0000089754F480818F5F8083883031F4129657
:103B10001C92129715961C921082F8013296CE17BD
:103B2000DF0769F08581882341F08481882329F0AB
:103B30008F5F8483863009F415823796F0CFF701C2
:103B400081899289039761F4C8010296C817D90741
:103B500009F4B9C00796FC01329720812223B1F302
:103B6000F701878190859C0127703327232B41F42F
:103B7000F801EE5AFF4F21E03081311120E020831F
:103B80008F709927892B51F4F801E55AFF4F8081F6
:103B90008F5F853010F4808301C01082F701878524
:103BA0009089F801E65AFF4F892B11F081E080835C
:103BB0008081882379F0F80132969801285B3F4F85
:103BC000E217F30709F474C03796DF0112978C915E
:103BD0008823B1F3F801E85AFF4F8081882339F038
:103BE00073FE77C086E0F701868B178A72C072FE7B
:103BF00070C0F601908181E0892780836AC04330DC
:103C0000510508F0E3CDFC01638362837583F10104
:103C1000E15DFD4FD8CDE0E8E51508F4D7CD4330A0
:103C2000510508F0D3CDFC01B38262837583F101A5
:103C3000EF5FFD4FC8CD848325CE4597B8F40E9431
:103C4000D73322E330E040E050E00E944434DC010E
:103C5000CB0188589F4FAF4FBF4FF50180830E9423
:103C6000D73322E030E040E050E016C00E94D73366
:103C700022E330E040E050E00E944434DC01CB011C
:103C8000805B9F4FAF4FBF4FF50180830E94D733BA
:103C900023E030E040E050E00E944434F4016083CF
:103CA0003CCE8F5F37968A3009F057CE8FEF58CED3
:103CB0008081F701838B83E0868B85E0878B8ACFB9
:103CC00081E08B8388CE81E0F801E85AFF4F808342
:103CD00047CFDF91CF911F910F91FF90EF90DF9031
:103CE000CF90BF90AF909F908F907F906F905F909C
:103CF0003F902F9008954F925F926F927F928F9294
:103D00009F92AF92BF92CF92DF92EF92FF920F936A
:103D10001F93CF93DF93EC01FB01E780F08415E262
:103D20001F831E8382E188876E01F2E0CF0ED11CD3
:103D3000BE01605F7F4FC6010E943F296AA17BA13F
:103D400042E1CE010E94A8281F831E838BE1888751
:103D5000BE016C5E7F4FC6010E943F296CA17DA110
:103D60004BE1CE010E94A8281F831E8384E288872E
:103D7000BE01685E7F4FC6010E943F296EA17FA1F0
:103D800044E2CE010E94A8280C850F3F09F45CC0D4
:103D9000C70168E370E00E94C1348D3108F454C05B
:103DA000FE01E00FF11DE00FF11D448C558C89E000
:103DB000089F800111244801E2E18E0E911C6D8460
:103DC000F6E06F9E30011124530184E2A80EB11C6D
:103DD000EAE26E0E711C065E1F4FA614B704D9F0FE
:103DE000740197FE02C0E12CF12CC80101341105C9
:103DF00014F080E490E0E816F9064CF441E0B701D5
:103E0000C5010E94F22CFFEFEF1AFF0AEECF8FEFF1
:103E1000A81AB80AE2CF19868C8599E0899F902D5F
:103E200011249E5E2D85822F880F820F880F8B5D57
:103E30008F838E839887F201E20FF11D6081C601A6
:103E40000E949F2281E089878C858F3F79F48F853E
:103E500081110CC0E12C00E02CEA30E044E051E09C
:103E600064E370E08BE290E00E947D2CDF91CF91C3
:103E70001F910F91FF90EF90DF90CF90BF90AF9088
:103E80009F908F907F906F905F904F900C949828A8
:103E9000FC01DB011A964C911A97409519968C916A
:103EA0001997482317962D913C911897C90187704F
:103EB0009927892B29F481E09085911180E08087F2
:103EC00020FD66C013969C9113978481943059F518
:103ED000823A38F48B3578F48C3350F08C3488F592
:103EE00054C08F3B08F445C08F3B09F448C04DC017
:103EF0008281815042C081E0868323703327232B47
:103F000009F043C08381863128F4833138F482314B
:103F1000E1F106C08B3120F4825003C0815001C012
:103F20008350838332C08D3838F4843710F585315F
:103F300060F1893248F405C0843BE8F0843BF9F035
:103F400024C081E0868321C081E0868323703327EB
:103F5000232BD9F495818381923020F0943020F482
:103F60008E5F03C08F5F01C08D5F83839F5F9583EA
:103F70000CC016820AC082818F5F828306C056966B
:103F80009C93569757961C92579784818F5F848392
:103F900043FF09C013968C91139756968C935697AE
:103FA00057961C92579717968D919C9118978F70E2
:103FB0009927892B39F481858F5F853010F48187AB
:103FC00001C0118617968D919C9118976CE070E056
:103FD0000E94C134892B39F48381823121F0978189
:103FE00081E0892787830895FC01DB0113968C917A
:103FF000843021F48CE9828382E705C080E68283E5
:10400000DB0153968C91838314821682178210866B
:10401000158211860895089580E090E0089508952E
:10402000089508950895089508950895CF92DF9210
:10403000EF92FF921F93CF93DF93EC01FB01118569
:104040008C858F3F09F48CC0E780F08427E0E22262
:10405000FF24E114F10409F08EC017FF20C0FE0117
:10406000E80FF11DE80FF11D848D958D2D85FC0164
:10407000E20FF11D20812F5F20832D85FC01E20FCF
:10408000F11D20812B3514F021E420832D85FC01C6
:10409000E20FF11D8081803411F481E4808314FFEC
:1040A00021C08C85FE01E80FF11DE80FF11D848D04
:1040B000958D2D85FC01E20FF11D2081215020837B
:1040C0002D85FC01E20FF11D2081213414F42AE535
:1040D00020832D85FC01E20FF11D80818E3311F4C8
:1040E0008AE5808315FF05C08D85882311F08150F6
:1040F0008D8716FF05C08D85823010F48F5F8D8708
:1041000013FF39C08C85FE01E80FF11DE80FF11D8A
:10411000048CF58DE02D80818F3369F181818F339F
:1041200051F182818F3339F16F01F60161916F0195
:104130008C85970144E08402200D311D1124C901B2
:1041400089599F4F0E94DE2C5FEFE51AF50A83E044
:10415000E816F10451F78FEF8C8784E68F870BC048
:1041600082858095812383FF06C08F85811103C0DE
:1041700082E0868B178A8E8517FF4DC014FF4BC0D7
:104180008F5F8E87853108F454C08D3388F18D336D
:1041900009F04FC01E8683E884BD8FEF87BD81EF95
:1041A000809380001092880010928A0081E00E9423
:1041B000582767E6CE0140960E944C2D6BE6CE0153
:1041C00044960E944C2D6FE6CE0148960E944C2DDD
:1041D00083E70E94382D9BA38AA385E70E94382D90
:1041E0009DA38CA387E70E94382D9FA38EA321C097
:1041F00020E430E0F901E81BF109CF01880F93E8D2
:1042000094BD9FEF97BD91EF90938000109288002E
:1042100080938A000EC0882361F083E884BD8FEF0D
:1042200087BD81EF809380001092880010928A00F1
:104230001E868F85882311F081508F87DF91CF9163
:104240001F91FF90EF90DF90CF9008952F923F92B3
:104250004F925F926F927F928F929F92AF92BF9296
:10426000CF92DF92EF92FF920F931F93CF93DF9342
:1042700000D000D0CDB7DEB78C012B01FC01158634
:10428000168684E68787FB01878590899C838B83CC
:10429000312C832D880F8D580E94382D2B813C8125
:1042A000281739074CF05BE6652E712C65E7C62EA2
:1042B000D12C72E0272E2CC03394F3E03F12E9CFCB
:1042C00033243A9452C0C7010E942E34682FC4018F
:1042D0008E0D9F1D0E94DE2CEFEFEE1AFE0AAE142B
:1042E000BF0489F71A821982BE016F5F7F4FC60132
:1042F0000E944F29BE016F5F7F4FC60102960E9448
:104300000D2D2A94F2E0CF1AD10884E0681A7108C2
:10431000321448F4530184E0A80EB11C730144E048
:10432000842E912CD0CFE32CF12C6701CC0CDD1C1A
:10433000CC0CDD1C5601E7E6AE0EB11CFBE6CF0E41
:10434000D11C6FE3C5010E94DE2C8FEFA81AB80ABA
:10435000CA14DB04B1F7C701880F991FBE016D5F56
:104360007F4F8D589F4F0E940D2DF801348683E8B2
:1043700084BD8FEF87BD81EF80938000109288000D
:1043800010928A00F2011286118667E6C8014096F3
:104390000E944C2D6BE6C80144960E944C2D6FE69E
:1043A000C80148960E944C2D83E70E94382DF801E1
:1043B00093A382A385E70E94382DF80195A384A3D7
:1043C00087E70E94382DF80197A386A30F900F90DE
:1043D0000F900F90DF91CF911F910F91FF90EF9071
:1043E000DF90CF90BF90AF909F908F907F906F9015
:1043F0005F904F903F902F900895CF92DF92EF9271
:104400000F93CF93DF93EC016B01E12C00E023E0ED
:104410003CE043E05DE06CE170E080E090E00E9411
:104420007D2C2FEF39E041E05BE063E370E080E05A
:1044300090E00E947D2C2DEE38E045E759E060E0E9
:1044400070E080E090E00E947D2C23E03CE043E0BF
:104450005DE06BE370E080E090E00E947D2C898558
:1044600090E0FC01EE0FFF1FED51F74F4591549185
:10447000FC01E456FE4F608170E0FC01EF55FE4FF9
:10448000808190E00E946C2C8B81843658F40F81DF
:10449000E02E2DED36E04FED57E06AE270E090E05F
:1044A0000E947D2CE12C00E023E03CE043E05DE055
:1044B0006CE170E088E690E00E947D2C4BE756E0CE
:1044C00066E270E088E690E00E946C2C23E03CE01D
:1044D00043E05DE06BE370E088E690E00E947D2CB5
:1044E0008A8121E835E04DEF55E06FE170E090E022
:1044F0000E947D2C8A8190E008852AE635E041E71C
:1045000055E06FE170E042960E947D2C8E818823F9
:1045100061F08A8190E000E02CE235E04AE455E069
:1045200064E270E004970E947D2CF6018489DF919B
:10453000CF910F91EF90DF90CF900C944228CF92C3
:10454000EF920F931F93CF93DF93FC016A3039F4FE
:104550008581848396818185890F868348C0848183
:104560006E3719F48D5F848342C0262FEF01668178
:104570006F5F2A3348F42033C0F42D32C1F02E325D
:1045800081F0213249F515C02B3528F4213458F437
:104590002F3341F121C09FE9920F9A31E8F427545B
:1045A00009C02FE307C0215405C02C5F03C021E4DC
:1045B00001C02EE33F81062E000C770B082E000C65
:1045C000990B313089F44AEFC42EE12C00E010E061
:1045D00042E254E00E94FB2A88858B5F9C81890F10
:1045E0008C8305C020E4E6CF3BEFC32EEECF81E005
:1045F00090E0DF91CF911F910F91EF90CF900895B0
:104600000C9473350C9473350C9473350C9473358A
:104610000C9473350C947335CF93DF93EC010E94A7
:104620001823CE01DF91CF910C9473350C94733520
:1046300008950895FB01108A1786128A118A148A38
:104640000895FC01DB011A968C911A9780951996B2
:104650009C911997892351F08281882311F08CE76E
:1046600082839281911105C081E082839281992396
:1046700059F09F5F92839D3739F482E056968C9370
:10468000569757961C92089508950895FC0188ED59
:1046900084878FE1858715A2CF01859673968E1743
:1046A0009F0719F014823696FACF08958F929F9241
:1046B000AF92BF92CF92DF92EF920F931F93CF935F
:1046C000DF93EC01C12CD12C888941E953E160E0F2
:1046D00070E09601280F311D87FD3A95C9010E94AF
:1046E0006C2C38E0C30ED11C88E8C816D10461F7E1
:1046F000C12CD12C89894FE753E166E270E0F601C5
:10470000E80FF11D87FDFA95CF010E946C2C898975
:104710004FE753E164E370E09601280F311D87FDF8
:104720003A95C9010E946C2C30E2C30ED11C80EA7C
:10473000C816D104F9F68EE0C82ED12C10E05E0127
:10474000E5E2AE0EB11C4E01F3E18F0E911CA814F0
:10475000B904B1F0F4018481882371F0838181135D
:104760000BC0E12C00E029EC32E143E253E1B60159
:10477000808191810E947D2CF6E08F0E911CE7CF05
:104780006D85111105C08AEF860F883060F05FC01B
:10479000113029F482EF860F8D3028F058C085EE55
:1047A000860F8730B8F570E08C85E12C00E02FECA7
:1047B00031E14BE452E1082E000C990B0E947D2C54
:1047C0006D8570E08C85082E000C990B0EA128EBEE
:1047D00031E14FEB51E142960E947D2CEE84EE20B8
:1047E00091F0EA940E2D000F6D8570E0605F7F4FB1
:1047F0008C85082E000C990B20E43FE042E150E14B
:1048000047960E947D2C1F5F2EE0C20ED11C1330F4
:1048100009F099CF8DA1882361F0E12C00E022E11D
:104820003EE048EA5EE064E170E087E290E00E94EA
:104830007D2C81E0DF91CF911F910F91EF90DF9060
:10484000CF90BF90AF909F908F900C9442281F5FA5
:104850003EE0C30ED11C77CFCF92EF920F931F9300
:10486000CF93DF93EC01E12C00E02FE03EE14FE03D
:104870005FE16CE170E080E090E00E947D2C2BE035
:104880003CE14DE05DE163E370E080E090E00E9498
:104890007D2C29EF3AE141E85BE160E070E080E0E7
:1048A00090E00E947D2C2FE03EE14FE05FE16BE362
:1048B00070E080E090E00E947D2C27EE39E14FE629
:1048C0005AE160E070E080E790E00E947D2C23E7F1
:1048D00036E14CE258E161E070E081E290E00E9454
:1048E0007D2C8AEFC82E00E010E02D854BE755E1C6
:1048F0006DE070E08AE290E00E94FB2A8E85883CA1
:1049000051F429EC34E141E255E164E370E08BE2DB
:1049100090E00E947D2CE12C00E027E834E147EA9A
:1049200054E16EE070E080E090E00E947D2C8F8585
:10493000882341F046E754E160E170E081E190E0D6
:104940000E946C2C80E0DF91CF911F910F91EF902E
:10495000CF900C944228CF93DF93FC01EB01998513
:104960008A858095892394FF08C09485903118F436
:104970009F5F948703C00E948D2C148683FF04C020
:1049800083E08E8B84E08F8B8F8198856FE070E061
:104990000E94C134892B39F485858F5F833011F0F3
:1049A000858701C015868F81988560E570E00E943B
:1049B000C134892B21F4978581E0892787878685F3
:1049C000883C10F48F5F8687DF91CF9108950F9315
:1049D0001F93CF93DF93EC0141E654E161E170E076
:1049E0008FE290E00E9463294CE354E16AE170E0B9
:1049F0008BE290E00E9463294CE354E16AE170E0AD
:104A000089E490E00E9463298A81811111C04CE3FE
:104A100054E16AE170E08AE390E00E94632943EF89
:104A200053E16EE270E08AE190E00E94632924C0C5
:104A300046ED53E16AE170E08AE390E00E94632969
:104A400043EB53E16EE270E08CE290E00E94632958
:104A50008A816FE00E94A734082F0370CFE4D0E072
:104A600010E0101749F041E061E370E0CE010E94D0
:104A7000F22C1F5F2296F5CFDF91CF911F910F91FE
:104A80000C9498282F923F924F925F926F927F9250
:104A90008F929F92AF92BF92CF92DF92EF92FF924E
:104AA0000F931F93CF93DF9300D01F92CDB7DEB744
:104AB0009B838A836B01FB0111858285809581230D
:104AC0008983EA81FB8185A181119BC1248527FF10
:104AD0000FC0FB018781908565E070E00E94C134C2
:104AE000892B09F08EC12E5FEA81FB81248789C161
:104AF00015FF06C0222321F02150EA81FB81248783
:104B000016FF07C0EA81FB818485823314F48F5F2E
:104B1000848717FF1BC0EA81FB8145854730B0F0D1
:104B200041506485062E000C770BCF010E945B2854
:104B3000EA81FB81882331F08685811107C081E0FD
:104B4000868704C08585815085871786012F00716F
:104B500014FF1CC0EA81FB8145854132B8F44F5FE8
:104B60006485062E000C770BCF010E945B28EA813A
:104B7000FB81882331F08685811108C081E086871A
:104B800005C085858F5F858781E08787EA81FB8106
:104B90008785811125C017FD16C045854150648564
:104BA000062E000C770BCF010E945B28EA81FB8167
:104BB000882331F08685811106C081E0868703C095
:104BC000858581508587EA81FB818585863021F046
:104BD000843111F0813221F482E0EA81FB81878700
:104BE000EA81FB811785113021F5011115C045853A
:104BF0004F5F6485062E000C770BCF010E945B2867
:104C0000EA81FB81882329F08685811105C01687FA
:104C100003C085858F5F8587EA81FB818585863026
:104C200021F0843111F0813221F482E0EA81FB81AC
:104C300087872A803B80F5E22F0E311C0A811B8179
:104C40000D5E1F4F780193E0492E512C612C712C81
:104C500022E0822E912CA12CB12C2E143F0409F4B9
:104C60004FC0F7018481882369F0F6E0EF0EF11C54
:104C7000F4CF8481811134C036962E163F06C9F7D1
:104C8000213099F30E94D73324ED30E040E050E02A
:104C90000E944434DC01CB0180589F4FAF4FBF4F7F
:104CA000F701918380830E94D733A30192010E9470
:104CB0004434F70163830E94D733A50194010E9415
:104CC0004434DC01CB010296A11DB11DF70185839F
:104CD00021E02483338140815181F80120E0CDCF50
:104CE00083813813C9CF80819181841B950B97FFF5
:104CF00003C09195819591094F970CF4A0C0BCCF4A
:104D0000F601878190859C0127703327232B49F476
:104D100021E0EA81FB8136A1311120E0EA81FB81AB
:104D200026A363E070E00E94C1348230B1F0EA81D2
:104D3000FB8180898150883F11F0808B03C0EA811C
:104D4000FB81108AEA81FB8181898150803E11F0CC
:104D5000818B03C0EA81FB81118A2016310611F193
:104D6000F80184818823D9F020813181658170E048
:104D7000F601878190850E94C134882319F081E073
:104D800090E002C082E090E0A901481B590BF801B5
:104D900051834083423E5F4F14F4F80114820A5F4E
:104DA0001F4FDBCF86E0F82EEA81FB8180E090E0A8
:104DB000E82EAA81BB8120E030E0E216B9F05689E6
:104DC00056964C915697541311C043895489539663
:104DD0006D917C9154978A01061B170B17FF03C036
:104DE0001195019511090F3111055CF12F5F3F4FAE
:104DF00016962330310509F70196369683309105D2
:104E0000B9F6F6018781908566E070E00E94C134B2
:104E1000892B59F4EA81FB818685882331F08F5FE5
:104E2000EA81FB81863061F51686F981F2FF2AC09E
:104E3000EA81FB8195A181E0892785A323C02F5FAB
:104E40001BCF6417750774F4F89EF001F99EF00DFE
:104E500011244A815B81E40FF51F615E7F4F748BE3
:104E6000638BA2CFF29EF001F39EF00D11248A8194
:104E70009B81E80FF91F415E5F4F548B438B94CFAA
:104E80008687D3CF0F900F900F90DF91CF911F9116
:104E90000F91FF90EF90DF90CF90BF90AF909F90D9
:104EA0008F907F906F905F904F903F902F900895DC
:104EB0000F931F93CF93DF9300D0CDB7DEB7082FAA
:104EC00085E690E00E942E34182F86E690E00E943E
:104ED0002E34011105C0163419F4803509F459C077
:104EE00066E485E690E00E94DE2C60E586E690E0D0
:104EF0000E94DE2C07E610E060E0C8010E94DE2C74
:104F00000F5F1F4F0A371105B9F761E487E690E09C
:104F10000E94DE2C62E48BE690E00E94DE2C63E4CB
:104F20008FE690E00E94DE2C61E488E690E00E942B
:104F3000DE2C62E48CE690E00E94DE2C63E480E7E5
:104F400090E00E94DE2C61E489E690E00E94DE2C75
:104F500062E48DE690E00E94DE2C63E481E790E05D
:104F60000E94DE2C1A821982BE016F5F7F4F83E799
:104F700090E00E940D2DBE016F5F7F4F85E790E0AE
:104F80000E940D2DBE016F5F7F4F87E790E00E946A
:104F90000D2D0F900F90DF91CF911F910F910895DC
:104FA000CF92DF92EF92FF920F931F93CF93DF93F5
:104FB0006C017A018B01C0E0D0E0CE15DF0581F0F5
:104FC000D8016D918D01D601ED91FC910190F08198
:104FD000E02DC6010995892B11F02196EECF7E01B7
:104FE000C701DF91CF911F910F91FF90EF90DF905C
:104FF000CF9008951F93CF93DF93DC0120E030E042
:1050000040E050E011E0C1E0D0E02617370791F111
:1050100014968C911497811115C014961C931497B3
:1050200012968D919C911397ED91FC911197E80F39
:10503000F91FE4911596EC931597019613969C939E
:105040008E93129714969C91149715968C911597A0
:10505000892349F0FE01022E02C0EE0FFF1F0A94C1
:10506000E2F74E2B5F2B990F14969C9314972F5FAA
:105070003F4FCBCFCA01DF91CF911F910895089583
:105080000E94FC35909196029EBD91E0811190E0C6
:10509000919590939602E7E9F2E0808191930DB4A7
:1050A00007FEFDCF8EBD86E0E639F807B1F70DB4F7
:1050B00007FEFDCF0895EF92FF920F931F93CF93BA
:1050C000DF9350E0DA011F96EC01A596FC01739680
:1050D0008B01015E1F4F425E5F4FCE17DF0701F16C
:1050E00084818823D9F02081318120173107B4F4DD
:1050F000225E3F4F621773078CF423819EE0299F45
:1051000090011124790195E1E90EF11CE416F506F0
:105110002CF42C5D3F4FA217B3071CF03696DDCF61
:1051200080E0DF91CF911F910F91FF90EF90089554
:10513000E6E9F2E081E0A0E0B8E000800EBC811179
:10514000012C1197A0FDFDCF0192B9F70DB4089580
:105150002F923F924F925F926F927F928F929F9287
:10516000AF92BF92CF92DF92EF92FF920F931F9375
:10517000CF93DF93CDB7DEB7AD970FB6F894DEBF10
:105180000FBECDBF6C015B014BA74E0188E2880EBC
:10519000911C340197E498A77E01E2E2EE0EF11C27
:1051A00088279927861B970B9AA789A7F60132961D
:1051B000FDA7ECA78AE0282E312C412C512CF701B9
:1051C00086E011928A95E9F7C501B7FE02C089A56C
:1051D0009AA5F7016AE070E00E94C1348193CB0187
:1051E000E815F905B9F788A5F601878386839BA59D
:1051F0009087F30122913F0130E040E050E019A296
:105200008E010F5D1F4FCA01B901A20191010E94D9
:105210007634605DF80162938F01211531054105F7
:10522000510589F7309761F001900020E9F7319737
:10523000AF01401B510BB8018CA59DA50E94D02742
:10524000F8A5FB5FF8A7F53609F0B9CFAD960FB614
:10525000F894DEBF0FBECDBFDF91CF911F910F91AC
:10526000FF90EF90DF90CF90BF90AF909F908F9086
:105270007F906F905F904F903F902F9008956115B1
:10528000710551F0FB0101900020E9F73197AF0162
:10529000461B570B0C94D02780E090E008950F93A5
:1052A0001F93CF93DF938C01EB010E942E348883F0
:1052B000C80101960E942E348983CE01DF91CF91DF
:1052C0001F910F9108952F923F924F925F926F928C
:1052D0007F928F929F92AF92BF92CF92DF92EF9286
:1052E000FF920F931F93CF93DF93CDB7DEB72B972A
:1052F0000FB6F894DEBF0FBECDBF5C017B015A83B1
:1053000049831C821B821D821E8268E070E0CE01F0
:1053100001960E94FA2701969987888768E070E0D5
:10532000CE0101960E94FA278C0161E070E0CE0167
:1053300001960E94FA27288539852A0D3B1D37FDE5
:10534000D2C020E8A216B1040CF0CDC098012F5FA6
:105350003F4FA9014E0D5F1D57FDC5C060E4E61625
:10536000F1040CF0C0C08701F7FE04C0002711272C
:105370000E191F0907701127A701F7FE02C0495F28
:105380005F4F1A0153E0359427945A95E1F7F7FEE1
:1053900009C071E0271A310848E050E0BA01601BEB
:1053A000710B8B01390137FF03C077E0670E711C69
:1053B00043E0759467944A95E1F727703327232BD0
:1053C00019F09FEF691A790A8F8344244394512C72
:1053D000E12CF12CC12CD12C88E090E09C01201B09
:1053E000310B3B872A87C614D7040CF07CC0882475
:1053F0008394912C61E070E0CE0101960E94FA271F
:10540000892B21F432E0830E911CF4CFB401CE013C
:1054100001960E94FA27DC01119640E050E06F816E
:105420004A175B0708F057C061115428440C09F073
:105430004FC091012C0D3D1DC90101960997A0F5A2
:10544000C5018E0D9F1D8038910570F5B9017695C7
:10545000762F6627779567956A0D7B1D6E0D7F1DEC
:105460002F3F8FEF3807D9F1FB01EA56FD4F852D0D
:10547000002E01C0880F0A94EAF79081892B80835F
:105480000115110589F02730310571F0FB01EA5E45
:10549000FC4F852D90E00A8402C0959587950A946B
:1054A000E2F75080852980839FEFE91AF90A288561
:1054B0003985E216F3064CF03FEFC31AD30A4424B1
:1054C0004394512CE12CF12C03C044244394512CDF
:1054D0004F5F5F4FA4CF71E067276F8384CF0115C3
:1054E0001105A1F6E1CF2B960FB6F894DEBF0FBEE3
:1054F000CDBFDF91CF911F910F91FF90EF90DF9083
:10550000CF90BF90AF909F908F907F906F905F9063
:105510004F903F902F9008953FB7F8948091970651
:1055200090919806A0919906B0919A0626B5A89BED
:1055300005C02F3F19F00196A11DB11D3FBFBA2F25
:10554000A92F982F8827820F911DA11DB11DBC0185
:10555000CD0142E0660F771F881F991F4A95D1F74A
:1055600008951F920F920FB60F9211242F933F931D
:105570008F939F93AF93BF938091920290919302E8
:10558000A0919402B09195023091960623E0230FEA
:105590002D3720F40196A11DB11D05C026E8230F6B
:1055A0000296A11DB11D20939606809392029093BE
:1055B0009302A0939402B0939502809197069091E4
:1055C0009806A0919906B0919A060196A11DB11D69
:1055D0008093970690939806A0939906B0939A06A5
:1055E000BF91AF919F918F913F912F910F900FBEDF
:1055F0000F901F9018952F923F924F925F926F924B
:105600007F928F929F92AF92BF92CF92DF92EF9252
:10561000FF920F931F93CF93DF9300D000D000D061
:10562000CDB7DEB74115510509F43DC1FA01B4907B
:105630003196E4914E5F5F4F6B2C712C211102C0AB
:10564000EE2061F1A1E0B0E03E2F377011F4A0E050
:10565000B0E03E2F3695369536954D01830E911C60
:10566000869CD001879CB00D969CB00D1124F3E070
:10567000CF1203C0AA0FBB1F0AC00115110539F0D4
:10568000EA9E4001EB9E900C1124080D191D2A9FE3
:1056900070012B9FF00C11244E0D5F1D2FEFC212D5
:1056A00008C00115110519F0CC24C39402C032E0E2
:1056B000C32E7301E80EF91E1E141F040CF0F3C074
:1056C000803891050CF0EFC09B012E0F311D121692
:1056D00013060CF0E8C0603471050CF0E4C041150D
:1056E000510509F4E0C0362F37703D83DB0177FDAB
:1056F000179623E0B595A7952A95E1F73A2F77FFFE
:1057000005C06D81662311F03FEF3A0F97FF05C08A
:10571000AA27BB27A81BB90B02C0A0E0B0E0F0E8A5
:10572000EF16F10424F020E8D22ED81A01C0DB2CA9
:10573000DA1A632F032E000C770B3F3F1CF4A62EC2
:10574000A09401C0A12CF1E02E2F277009F4F0E005
:10575000E695E695E695FE0F6F0F711D69307105B0
:1057600014F0F8E0F31B7A2C730E272D60E8260363
:10577000800D911D11244C018A0E9B1E61E070E08A
:105780000D8002C0660F771F0A94E2F783E0C81607
:1057900011F0E1E001C0E2E02B2D2D192E9F202D0C
:1057A0001124EE2EF12CBA9CA00DB11D1124AE9D3A
:1057B000C001AF9D900DBE9D900D11245A01A80E01
:1057C000B91E0115110509F0A801D70111978A0F1B
:1057D0009B1F480F591FAFEFA69FC001A79F900DB9
:1057E00011242C0140945094C4018A569D4FF30F0C
:1057F000FE8330E0ED9D200D311D1124EE817E16DB
:1058000009F451C0DC014A018501612CD61409F468
:1058100042C0F8013490369EF001379EF00D1124FD
:10582000FA83E983E095F095FC83EB83F2E0CF12F5
:1058300003C05C824B8211C0EBEFCE1203C01A8210
:1058400019820BC0F4013490369EF001379EF00DA2
:105850001124E095F095FC83EB8377FC06C0FB8177
:10586000EC91EF23F981EF2BEC93FD81FF2361F0A5
:10587000E6E0E7154CF0FD01E058FF4F20803C804A
:1058800032202A80322830828E0C9F1C0E0D1F1D64
:1058900063941196BBCF7394A20EB31E420F531F95
:1058A00080589F4FABCF26960FB6F894DEBF0FBE41
:1058B000CDBFDF91CF911F910F91FF90EF90DF90BF
:1058C000CF90BF90AF909F908F907F906F905F90A0
:1058D0004F903F902F900895CF92EF920F931F9388
:1058E00022E0C22EE12C00E010E020E00E94FB2A22
:1058F0001F910F91EF90CF900895CF92EF920F9359
:105900001F93F901202FCC24C3948F010E94FB2AFE
:105910001F910F91EF90CF900895F89487E78093AF
:10592000000880930108A89588E18093600088E0D2
:1059300080936000FFCF8F929F92AF92BF92CF92E1
:10594000DF92EF92FF926C01E12CF12C0E948C2AE5
:105950004B015C01C114D104E104F104F1F00E9497
:105960008C2ADC01CB0188199909AA09BB09883E58
:105970009340A105B10570F321E0C21AD108E108F6
:10598000F10888EE880E83E0981EA11CB11CC1149A
:10599000D104E104F10419F7DDCFFF90EF90DF901F
:1059A000CF90BF90AF909F908F9008958FB18095CA
:1059B000807F669B88601C9B846008951F93CF93B3
:1059C000DF93EC01162F0E942E34181739F0612F47
:1059D000CE01DF91CF911F910C943634DF91CF919E
:1059E0001F91089580389105B8F460347105A0F4D2
:1059F00090E121E061FD24E060FD220F62FD22952F
:105A0000687F969FD0011124A80FAA56BD4F8C9194
:105A1000822B40FF82278C930895AF92BF92DF9232
:105A2000EF92FF920F931F93CF93DF93EC017B01D3
:105A30008B015C0182E0A80EB11CF801D1908F01AE
:105A4000CE010E942E34D81621F06D2DCE010E9479
:105A500036342196CA15DB0581F7C701DF91CF9156
:105A60001F910F91FF90EF90DF90BF90AF9008953E
:105A7000CF93DF9300D0CDB7DEB71A821982BE0173
:105A80006F5F7F4F90E00E944F2989819A810F902C
:105A90000F90DF91CF910895AF92BF92CF92DF9296
:105AA000EF92FF920F931F93CF93DF9300D000D01C
:105AB000CDB7DEB76C015E0184E0A80EB11C8E018B
:105AC0000F5F1F4FE62EF12CE01AF10AC701800F7D
:105AD000911F0E942E34F80181938F01EA15FB0576
