:100000000C94C90E0C94F10E0C94F10E0C94F10E9C
:100010000C94F10E0C94F10E0C94F10E0C94F10E64
:100020000C94F10E0C94F10E0C94D6160C94481707
:100030000C94F10E0C94F10E0C94F10E0C94F10E44
:100040000C94F10E0C94F10E0C94F10E0C94F10E34
:100050000C94F10E0C94F10E0C94F10E0C940C1403
:100060000C94F10E0C94F10E0C94F10E0C94F10E14
:100070000C94F10E0C94F10E0C94F10E0C94F10E04
:100080000C94F10E0C94F10E0C94F10E0C94F10EF4
:100090000C94F10E0C94F10E0C94F10E0C94F10EE4
:1000A0000C94F10E0C94F10E0C94F10E28160070C5
:1000B0008814021619613A846000000000000000F4
:1000C000000000000000000000807804020A2215F1
:1000D00062B24C000000000082453E008080113278
:1000E0002444C438A8A8282828282828283844C404
:1000F00004040303000000392740601010E00C12D4
:100100001312100F00000101020204090804030089
:100110000000000000001B242022130D010101013A
:100120000101020202010070F8FCFEFEFFFFFEE486
:10013000600000000000000000000000000000005F
:100140000080F8FCFEFEFEFFFEFE4C0000000000FA
:1001500082C7FFFFFFFFFFFEFCFCFC38B8B8383851
:100160003838383838387CFC9CDCDFFFFFFFFFFF75
:10017000E7C0E0F0F0E00C1E1F1F1F0F00000101A0
:100180000303070F0F0703000000000000001B3FE0
:100190003F3F1F0D01010101010103030301100F86
:1001A0000040A038E4A45292665D39211EE00000B0
:1001B00000070810202110182048582C4A31000050
:1001C000100F3844C47434B45A6282020408BC92DA
:1001D0004A340000010608091E25162220201009B5
:1001E0000600100F00C6291A0D09028C04C28204F1
:1001F0008870000000033C424E5D33242512130E2C
:1002000002010000100F0030C884020222B4523CE8
:10021000C80830C000001629241E08102020232DF5
:1002200016161711110E100FA05010E8D631610EDE
:100230003A0531CA040000000304080918684C4656
:100240007806083344443800100F30C8A4C8505012
:10025000080808A8A6514949468003040408364BFB
:100260002D4C4840211F04020201100F0E1111E60F
:1002700008300F31190B8CC80810E000000010295D
:1002800046502E384346350B04050200100FC0209F
:1002900020107CC28109191A69368890906000315B
:1002A000494945320A0808080505091209060040AF
:1002B000E0F8FCFCDE9EFEFFFFFFFEE00000000712
:1002C0000F1F3F3F1F1F3F7F7F3F7B310000387C68
:1002D000FCFCFCFC7E7EFEFEFCF8FCFE7E34000096
:1002E00001070F0F1E3F1F3F3F3F1F0F060000C6B5
:1002F000EFFEFFFFFEFCFCFEFEFCF87000000003BA
:100300003F7F7F7F3F3C3D1F1F0F030100000030F8
:10031000F8FCFEFEFEFC7E3CF8F8F0C00000163F44
:100320003F1F0F1F3F3F3F3F1F1F1F1F1F0EA0F00C
:10033000F0E8FEFFFFFEFAFFFFCE04000000030717
:100340000F0F1F7F7F7F7F070F3F7C7C380030F8C7
:10035000BCF8F0F0F8F8F8F8FEDFCFCFC68003075E
:10036000070F377F3F7F7F7F3F1F07030301100F7A
:100370000E1F1FFEF8F0FFFFFFFFFCF8F8F0E00093
:10038000000010397F7F2F3F7F7F3F0B0707020060
:10039000C0E0E0F0FCFEFFFFFFFEFFF6F8F0F060CB
:1003A000003179797D3F0F0F0F0F07070F1E0F06E2
:1003B0003F33F804FA0D05E5E525252525252525F6
:1003C00025252525E52525252525252525E525255D
:1003D00025252525252525252565E5E5E5E525258D
:1003E000252525252525252525E5E5E5050DFA0401
:1003F000F8FF00FF0000FFFFFF000000000000FF0B
:100400001F1C18F8FF008040800000FFFFFF0080E5
:10041000408000FFFFFF000000000083FFFF00801E
:1004200040A04000FFFF3F38F8FFFF0000FF00FF43
:10043000FF00FF0000FFFFFF00A854AA5400FCF0DB
:10044000F2F0FFFF00AA55AA5500FFFFFF00AA55D2
:10045000AA00FBFBF10040A4448E3FFFFF00AA5519
:10046000AA5500FDFDE0E0FFFFFF0000FF00FFFFD9
:1004700000FF0000FFFFCFC0CAC5CAC5404F7F7F45
:100480007F7F4FC0CAC54A45404FFFCF404AC5CACB
:10049000C04F7F7FE0454A454A40FFCFC04A454AAA
:1004A00045C0CFCFC7C0F0FFFF0000FF00FFFF0037
:1004B000FF0000FFFF9F2F37470F9FFF0000007FC7
:1004C0007F0080C1FF03FC000001FFFF00C0030F9D
:1004D0003F0000FFFF000000FFFF030000FFFEF8E9
:1004E0009F2F37470F9FFFFF0000FF00FFFF00FF18
:1004F00080003F3F3F3F3E3E3F3F2F2020202F3F89
:100500003F3F2F202D3D2D2020202F202F3F3C30FE
:1005100020203F2F2020202F3F3C30202F27333F0B
:100520003F3E3E3F3F3F3F0080FF00FF000102058E
:10053000050505050505050505050505050505056B
:10054000050505050505050505050505050505055B
:10055000050505050505050505050505050505054B
:1005600005050505050505050201003F33F804FAF8
:100570000D05E5E52525252525252525252525E523
:100580002525252525252525E5252525252525255B
:100590002525252565E5E5E5E525252525252525CB
:1005A00025252525E5E5E5050DFA04F8FF00FF0002
:1005B00000FFFFFF000000000000FF1F1C18F8FFF5
:1005C000000000000000FFFFFF0000000000FFFF30
:1005D000FF000000000083FFFF000000000000FF9C
:1005E000FF3F38F8FFFF0000FF00FFFF00FF0000A3
:1005F000FFFFFF00AA55AA5400FCF0F2F0FFFF0035
:10060000AA55AA5400FFFFFF00AA55AA00FBFBF160
:100610000450A5548E3FFFFF00AA55AA5400FDFDCB
:10062000E0E0FFFFFF0000FF00FFFF00FF0000FF12
:10063000FFCFC0CAC5CAC5404F7F7F7F7F4FC0CAAA
:10064000C54A45404FFFCF404AC5CAC04F7F7FE0F3
:10065000454A454A40FFCFC04A454A45C0CFCFC76B
:10066000C0F0FFFF0000FF00FFFF00FF0000FFFFE2
:100670009F2F37470F9FFF0000007F7F0080C1FF43
:1006800003FC000001FFFF00C0030F3F0000FFFF5D
:10069000000000FFFF030000FFFEF89F2F37470F09
:1006A0009FFFFF0000FF00FFFF00FF80003F3F3F74
:1006B0003F3E3E3F3F2F2020202F3F3F3F2F202D0A
:1006C0003D2D2020202F202F3F3C3020203F2F2069
:1006D00020202F3F3C30202F27333F3F3E3E3F3FDF
:1006E0003F3F0080FF00FF000102050505050505ED
:1006F00005050505050505050505050505050505AA
:100700000505050505050505050505050505050599
:100710000505050505050505050505050505050589
:100720000505050201003F33F804FA0D05E5E5254E
:1007300025252525252525252525E52525252525A9
:10074000252525E525252525252525252525256559
:10075000E5E5E5E52525252525252525252525E589
:10076000E5E5050DFA04F8FF00FF0000FFFFFF00BC
:100770000000000000FF1F1C18F8FF000000000030
:1007800000FFFFFF0000000000FFFFFF000000006F
:100790000083FFFF008040800000FFFF3F38F8FF2C
:1007A000FF0000FF00FFFF00FF0000FFFFFF00A0B1
:1007B00054AA5500FCF0F2F0FFFF00A050A8500032
:1007C000FFFFFF00A050A000FBFBF10040A4448EFF
:1007D0003FFFFF00AA55AA5500FDFDE0E0FFFFFF27
:1007E0000000FF00FFFF00FF0000FFFFCFC0CAC5F1
:1007F000CAC5404F7F7F7F7F4FC0CAC54A45404F23
:10080000FFCF404AC5CAC04F7F7FE0454A454A40B6
:10081000FFCFC04A454A45C0CFCFC7C0F0FFFF0059
:1008200000FF00FFFF00FF0000FFFF9F2F37470F73
:100830009FFF0000007F7F0080C1FF03FC000001DC
:10084000FFFF00C0030F3F0000FFFF000000FFFF9D
:10085000030000FFFEF89F2F37470F9FFFFF0000A8
:10086000FF00FFFF00FF80003F3F3F3F3E3E3F3F16
:100870002F2020202F3F3F3F2F202D3D2D202020B7
:100880002F202F3F3C3020203F2F2020202F3F3C87
:1008900030202F27333F3F3E3E3F3F3F3F0080FF0A
:1008A00000FF00010205050505050505050505050F
:1008B00005050505050505050505050505050505E8
:1008C00005050505050505050505050505050505D8
:1008D00005050505050505050505050505050201CF
:1008E0000003081F051F1F151B1F11111F110E1FCD
:1008F00015111F05011F111D1F041F001F001010DF
:100900001F1F041B1F10101F061F1F011F1F111F79
:100910001F05071F311F1F051B17151D011F011F75
:10092000101F0F100F1F0C1F1B041B071C0719158E
:10093000130C121E1F120C1E12120C121F0C1A1472
:10094000041F052E2A1E1F021C001D00201D001F53
:10095000041A011F001E041E1E021E1E121E3E123D
:100960000C0C123E1E020614120A020F121E101E5A
:100970000E100E1E081E1A041A2E281E1A12161FFA
:10098000111F121F101D151711151F07041F171512
:100990001D1F151D01011F1F151F17151F00170013
:1009A000001000040404040E040229060A000004D6
:1009B000083E09093E3F25251A1E2121123F21210B
:1009C0001E3F2525213F0505011E21293A3F04042C
:1009D0003F213F21001021211F3F040A313F2020E9
:1009E000203F02023F3F02043F1E21211E3F090912
:1009F000061E21112E3F09093622252519013F0126
:100A0000011F20201F0F10201F3F10103F3B040428
:100A10003B03043807312D2321102A2A3C3F24248C
:100A2000181C2222141824243F1C2A2A2C043E05B8
:100A3000014C52523E3F040438243D2000404044C3
:100A40003D3F081422213F20003E04043E3E0402A4
:100A50003C1C22221C7E22221C1C22227E3E0402DE
:100A600004242A2A12021F22201E20201E0E1020DB
:100A70001E3E10103E360808364E50503E322A2692
:100A8000221E29251E223F20003229292612212537
:100A90001A0C0A3F08172525191E252518013905A6
:100AA000031A25251A0629291E002F000000200000
:100AB00000022905020004040000C0C0C0C0C0C07C
:100AC000800000FFFFFFFFFFFFFFFF00FFFFFFFFB2
:100AD000FFFFFFFF000707070707070100091F00C7
:100AE00000808080808000000000FF00FE02F4098A
:100AF000F20000FF0AFB8AAACA7B0000030202027E
:100B00000300000B040001020000000000020100CD
:100B10000B040808000000030000000808000000A3
:100B20000080C0E0E0E0E0E0E0E0E0E0E0E0E0FC09
:100B3000FEFFFFFFFEFCC080000000000000FEFF83
:100B4000FFFFFFFFFFFFFFFFFFFFFFFFFFFFFFFFB5
:100B5000FFFFFFFFFFFFFFFFFCF8000000FFFFFFAC
:100B6000FFFFFFFFFFFFFFFFFFFFFFFFFFFFFFFF95
:100B7000FFFFFFFFFFFFFFFFFF00060F0F1F1F1FFD
:100B80003F7F7F7F7F3F1F1F1F1F1F1F1F1F3F7F35
:100B90007F7F7F3F1F1F1F0F071F1F000000008068
:100BA00040A0A0A0A0A0A0A0A0A0A0A0A0BC8285C2
:100BB00081BD823C4080000000000000FE01FC85F9
:100BC000FD01FF03FDBDDDEDBD9D85FD03FF0305BB
:100BD000BDDDAD3C380304F8000000FF0082B24ADE
:100BE000BBBBBBBA7AFACACE8686CECBFB7BBABA7F
:100BF000BAB26AE2EA00FF0006090A16111623419A
:100C00004C444123161113131313111623414C4462
:100C10004123161117080700FCFEFFFFFFFFFFFF2F
:100C2000FFFFFFFFFFFFFFFFFFFFFFFFFFFFFFFFD4
:100C3000FFFFFFFFFFFFFFFFFFFFFFFFFFFFFFFFC4
:100C4000FFFFFFFEFC00103F7FFFFFFFFFFFFFFFE6
:100C5000FFFFFFFFFFFFFFFFFFFFFFFFFFFFFFFFA4
:100C6000FFFFFFFFFFFFFFFFFFFFFFFFFFFFFFFF94
:100C7000FFFF7F3F102F1000FC0201010101010165
:100C80000101010101010101010101010101010154
:100C90000101010101010101010101010101010144
:100CA00001010102FC00102F50A0A0A0A0A0A0A054
:100CB000A0A0A0A0A0A0A0A0A0A0A0A0A0A0A0A034
:100CC000A0A0A0A0A0A0A0A0A0A0A0A0A0A0A0A024
:100CD000A0A0502F10FFFFFFFFFFFFFFFFFFFFFF50
:100CE000C0C0C0808000FFFFFFFFFFFFFFFFFFFFCE
:100CF000FFFFFFFFFFFFFFFFFFFFFFFFFFFFFFFF04
:100D0000FFFFE3E3C7C7C381FFFFFFFFFFFFFFFF55
:100D1000FFFFFFFFFFFFFFFF7FFFFFFFFFFFFFFF63
:100D2000FFFFFFFFE1E1E1E1E0C0FFFFFFFFFFFFA9
:100D3000FFFFFFFFFFFFFFFFFF7F3FFFFFFFFFFF03
:100D4000FFFFFFFFFFFF010100000000FFFFFFFFAB
:100D5000FFFFFF7F3F1F07000000000000114075EC
:100D60006DEAEAD710DFDF4080BF4040408080005E
:100D70001F1F1E3E3E3E3D3D397A7B787BF7F600D5
:100D8000FFEAE8D5D4D6109EBEA2A2BE22A2444459
:100D900042813D3D3D3D3D3C3D3D3D393B383B3B4A
:100DA0003B807FAAA8AAA8AE20BEBCA1A1BF21A15A
:100DB000A1A120C0F7F7F7F7F7787B7B3A3A3B3CE5
:100DC0003D9D9D403FF1E8F4F8F4FAF4FA0101FF8B
:100DD000010100000000FFFFFFFF7F3F8F47201051
:100DE000070000000000008017F8FFFFFEFCFCFC7D
:100DF000FCF8FFFFFEFCFCFCFCF8FFFFFEFCFCFC2B
:100E0000FCF8FFFFFEFCFCFCFCF8FFFFFEFCFCFC1A
:100E1000FCF8FFFFFEFCFCFCFCF8FFFFFEFCFCFC0A
:100E2000FCF8FFFFFEFCFCFCFCF8FFFFFEFCFCFCFA
:100E3000FCF8FFFFFEFCFCFCFCF8FFFFFEFCFCFCEA
:100E4000FCF8FFFFFEFCFCFCFCF8FFFFFEFCFCFCDA
:100E5000FCF8FFFFFEFCFCFCFCF8FFFFFEFCFCFCCA
:100E6000FCF8FFFFFEFCFCFCFCFFFFFFFFFFFFFFA9
:100E7000FFFFFFFFFFFFFFFFFFFFFFFFFFFFFFFF82
:100E8000FFFFFFFFFFFFFFFFFFFFFFFFFFFFFFFF72
:100E9000FFFFFFFFFFFFFFFFFFFFFFFFFFFFFFFF62
:100EA000FFFFFFFFFFFFFFFFFFFFFFFFFFFFFFFF52
:100EB000FFFFFFFFFFFFFFFFFFFFFFFFFFFFFFFF42
:100EC000FFFFFFFFFFFFFFFFFFFFFFFFFFFFFFFF32
:100ED000FFFFFFFFFFFFFFFFFFFFFFFFFFFFFFFF22
:100EE000FFFFFFFFFFFFFFFFFF7F7F7F7F7F7F7F92
:100EF0007F7F7F7F7F7F7F7F7F7F7F7F7F7F7F7F02
:100F00007F7F7F7F7F7F7F7F7F7F7F7F7F7F7F7FF1
:100F10007F7F7F7F7F7F7F7F7F7F7F7F7F7F7F7FE1
:100F20007F7F7F7F7F7F7F7F7F7F7F7F7F7F7F7FD1
:100F30007F7F7F7F7F7F7F7F7F7F7F7F7F7F7F7FC1
:100F40007F7F7F7F7F7F7F7F7F7F7F7F7F7F7F7FB1
:100F50007F7F7F7F7F7F7F7F7F7F7F7F7F7F7F7FA1
:100F60007F7F7F7F7F7F7F7F7F8017280709221405
:100F700024080428078922142408042807092214B5
:100F80002408042807092214240804280709221425
:100F90002408042807092214240804280709221415
:100FA0002408042807092214240804280709221405
:100FB00024080428070922142408042807092214F5
:100FC00024080428070922142408042807092214E5
:100FD00024080428070922142408042807092214D5
:100FE0002408042807092214240804F9F9FAF9F955
:100FF000F9F9E9E9E9EAE9E9E96929A989CAC9E95F
:10100000E1E1E9E9F9FAF9F9F9F9F9F9F9FAF9F99E
:10101000F9F9F9F9F9FAE9E9E9E9E969298AC1E1AE
:10102000E9E9F9F9F9FAF9F9F9F9F9F9F9FAF9F94E
:10103000F9F9F9F9F9FAF9F9F9E9E9E1810A69E95E
:10104000E9E9E9E9F9FAF9F9F9F9F9F9F9FAF9F94E
:10105000F9F9F9F9F9FAF9F9E9E9E9E9E1E2E1C1BE
:1010600089092969E9EAE9E9E9E9E97F7E1E5E4E35
:101070006E6676727A7C7C7E7E7E7E7E7E7E7E7ED4
:101080007E7E7E7E7E7E7E7E7E7E7E7E7E7E7E7E80
:101090007E7E7E7E7E7E7E1E4672787C7E7E7E7E1C
:1010A0007E7E7E7E7E7E7E7E7E7E7E7E7E7E7E7E60
:1010B0007E7E7E7E7E7E7E7E7E7E7E7E7E7C70429C
:1010C0000E3E7E7E7E7E7E7E7E7E7E7E7E7E7E7EF0
:1010D0007E7E7E7E7E7E7E7E7E7E7E7E7E7E7E7E30
:1010E0007E7E7C786042060E3E7E7E0000000080A0
:1010F000C0E0E0E0E0E0E0E0E0E0E0E0E0FCFEFFB7
:10110000FFFFFEFCC080000000000000FEFFFFFFAC
:10111000FFFFFFFFFFFFFFFFFFFFFFFFFFFFFFFFDF
:10112000FFFFFFFFFFFFFCF8000000FFFFFFFFFFD6
:10113000FFFFFFFFFFFFFFFFFFFFFFFFFFFFFFFFBF
:10114000FFFFFFFFFFFFFF00060F0F1F1F1F3F7F67
:101150007F7F7F3F1F1F1F1F1F1F1F1F3F7F7F7F1F
:101160007F3F1F1F1F0F071F1F000000008040A0B0
:10117000A0A0A0A0A0A0A0A0A0A0A0BC828581BD8E
:10118000823C4080000000000000FE01FC85FD0163
:10119000FF03FDBDDDEDBD9D85FD03FF0305BDDD49
:1011A000AD3C380304F8000000FF0082B24ABBBB2C
:1011B000BBBA7AFACACE8686CECBFB7BBABABAB2B3
:1011C0006AE2EA00FF0006090A16111623414C44A0
:1011D0004123161113131313111623414C444123B9
:1011E0001611170807AC0026018C026A0248022675
:1011F000020402E201C0019E0190036E034E032E21
:10120000030E03EE02CE02AE0200FCFEFFFFFFFF64
:10121000FFFFFFFFFFFFFFFFFFFFFFFFFFFFFFFFDE
:10122000FFFFFFFFFFFFFFFFFFFFFFFFFFFFFFFFCE
:10123000FFFFFFFFFFFEFC00103F7FFFFFFFFFFFF0
:10124000FFFFFFFFFFFFFFFFFFFFFFFFFFFFFFFFAE
:10125000FFFFFFFFFFFFFFFFFFFFFFFFFFFFFFFF9E
:10126000FFFFFFFF7F3F102F1000FC020101010173
:10127000010101010101010101010101010101015E
:10128000010101010101010101010101010101014E
:10129000010101010102FC00102F50A0A0A0A0A09C
:1012A000A0A0A0A0A0A0A0A0A0A0A0A0A0A0A0A03E
:1012B000A0A0A0A0A0A0A0A0A0A0A0A0A0A0A0A02E
:1012C000A0A0A0A0502F10FFFFFFFFFFFFFFFFFF18
:1012D000FFFFC0C0C0808000FFFFFFFFFFFFFFFFD8
:1012E000FFFFFFFFFFFFFFFFFFFFFFFFFFFFFFFF0E
:1012F000FFFFFFFFE3E3C7C7C381FFFFFFFFFFFF60
:10130000FFFFFFFFFFFFFFFFFFFF7FFFFFFFFFFF6D
:10131000FFFFFFFFFFFFE1E1E1E1E0C0FFFFFFFFB3
:10132000FFFFFFFFFFFFFFFFFFFFFF7F3FFFFFFF0D
:10133000FFFFFFFFFFFFFFFF010100000000FFFFB5
:10134000FFFFFFFFFF7F3F1F0700000000000011AD
:1013500040756DEAEAD710DFDF4080BF4040408033
:1013600080001F1F1E3E3E3E3D3D397A7B787BF755
:10137000F600FFEAE8D5D4D6109EBEA2A2BE22A2F5
:10138000444442813D3D3D3D3D3C3D3D3D393B3842
:101390003B3B3B807FAAA8AAA8AE20BEBCA1A1BFB0
:1013A00021A1A1A120C0F7F7F7F7F7787B7B3A3AA4
:1013B0003B3C3D9D9D403FF1E8F4F8F4FAF4FA011E
:1013C00001FF010100000000FFFFFFFF7F3F8F478B
:1013D0002010070000000000008017F8FFFFFEFC4F
:1013E000FCFCFCF8FFFFFEFCFCFCFCF8FFFFFEFC35
:1013F000FCFCFCF8FFFFFEFCFCFCFCF8FFFFFEFC25
:10140000FCFCFCF8FFFFFEFCFCFCFCF8FFFFFEFC14
:10141000FCFCFCF8FFFFFEFCFCFCFCF8FFFFFEFC04
:10142000FCFCFCF8FFFFFEFCFCFCFCF8FFFFFEFCF4
:10143000FCFCFCF8FFFFFEFCFCFCFCF8FFFFFEFCE4
:10144000FCFCFCF8FFFFFEFCFCFCFCF8FFFFFEFCD4
:10145000FCFCFCF8FFFFFEFCFCFCFCFFFFFFFFFFB9
:10146000FFFFFFFFFFFFFFFFFFFFFFFFFFFFFFFF8C
:10147000FFFFFFFFFFFFFFFFFFFFFFFFFFFFFFFF7C
:10148000FFFFFFFFFFFFFFFFFFFFFFFFFFFFFFFF6C
:10149000FFFFFFFFFFFFFFFFFFFFFFFFFFFFFFFF5C
:1014A000FFFFFFFFFFFFFFFFFFFFFFFFFFFFFFFF4C
:1014B000FFFFFFFFFFFFFFFFFFFFFFFFFFFFFFFF3C
:1014C000FFFFFFFFFFFFFFFFFFFFFFFFFFFFFFFF2C
:1014D000FFFFFFFFFFFFFFFFFFFFFF7F7F7F7F7F9C
:1014E0007F7F7F7F7F7F7F7F7F7F7F7F7F7F7F7F0C
:1014F0007F7F7F7F7F7F7F7F7F7F7F7F7F7F7F7FFC
:101500007F7F7F7F7F7F7F7F7F7F7F7F7F7F7F7FEB
:101510007F7F7F7F7F7F7F7F7F7F7F7F7F7F7F7FDB
:101520007F7F7F7F7F7F7F7F7F7F7F7F7F7F7F7FCB
:101530007F7F7F7F7F7F7F7F7F7F7F7F7F7F7F7FBB
:101540007F7F7F7F7F7F7F7F7F7F7F7F7F7F7F7FAB
:101550007F7F7F7F7F7F7F7F7F7F7F801728070947
:1015600022142408042807892214240804280709BF
:10157000221424080428070922142408042807092F
:10158000221424080428070922142408042807091F
:10159000221424080428070922142408042807090F
:1015A00022142408042807092214240804280709FF
:1015B00022142408042807092214240804280709EF
:1015C00022142408042807092214240804280709DF
:1015D00022142408042807092214240804F9F9FA1B
:1015E000F9F9F9F9E9E9E9EAE9E9E96929A989CA29
:1015F000C9E9E1E1E9E9F9FAF9F9F9F9F9F9F9FAE9
:10160000F9F9F9F9F9F9F9FAE9E9E9E9E969298A68
:10161000C1E1E9E9F9F9F9FAF9F9F9F9F9F9F9FAA8
:10162000F9F9F9F9F9F9F9FAF9F9F9E9E9E1810AC8
:1016300069E9E9E9E9E9F9FAF9F9F9F9F9F9F9FAF8
:10164000F9F9F9F9F9F9F9FAF9F9E9E9E9E9E1E278
:10165000E1C189092969E9EAE9E9E9E9E97F7E1E49
:101660005E4E6E6676727A7C7C7E7E7E7E7E7E7E2E
:101670007E7E7E7E7E7E7E7E7E7E7E7E7E7E7E7E8A
:101680007E7E7E7E7E7E7E7E7E1E4672787C7E7E26
:101690007E7E7E7E7E7E7E7E7E7E7E7E7E7E7E7E6A
:1016A0007E7E7E7E7E7E7E7E7E7E7E7E7E7E7E7C5C
:1016B00070420E3E7E7E7E7E7E7E7E7E7E7E7E7E44
:1016C0007E7E7E7E7E7E7E7E7E7E7E7E7E7E7E7E3A
:1016D0007E7E7E7E7C786042060E3E7E7E01020427
:1016E000081020408020079D733A1DD9B273979C43
:1016F0004DB9ED5A7139D739272773CE713999DD34
:101700003A32E59CEB5CCD050D0F929DAB64E72A68
:10171000D9B94A76AE929DAB64E72A598CD1451768
:101720005D74D1450A4D079DAB9DB2B1395749272C
:101730002B2EE76AD791652F5793652F57E3CAB9C8
:10174000DA291B9B734EA723536EBB565C6B259502
:101750009B7ED9B94B4EE66476EB709476CEB9BCDD
:1017600072DBB5E272AE76CAC6E65CED3A070D0FE3
:10177000D5E594BC9C929753F2724A5E4EC9CB2930
:1017800079E5955452492595545249259554524925
:101790002515192307524E2AA9A453B8954ED9D01E
:1017A00099554E92659593540F08C1F7C1FFC1D565
:1017B000FFC1DFFFC1F5FBFFD1F8FCFCFCFC78F8B2
:1017C000FCFCFCFCFCF8F8FCFCFCFCFCB8F8FCFCA9
:1017D000FCFCF8F8FCFCFCFCD8F8FCFEFFFFFFFF6B
:1017E000FFFFFEFCF80103030100000103030101F8
:1017F00003030103030303030103030303010003C2
:1018000003030301000103070F0F0F0F0F0F07035F
:10181000012C0CF80404B48448F80404D41404C85B
:10182000F80404D49464B84884941424F848849444
:101830001424D8F8040201F14949F1010204F80125
:101840000202010000010202010102020102020281
:101850000202010202020201000202020201000170
:10186000020408090808090804020126076B05B0EC
:10187000038040756DEAEAD710DFDF4080BF7F7FCD
:101880007FFFFFFFFFFFFFFFFFFFFFFFFFFFFFFFE8
:10189000FFFFFFFFFF0FF71B0B0B0B0B0B0B0B0BD4
:1018A0000B0B0B0B0B0B0B0B0B0B0B0B0B0B0B0B88
:1018B0000B0B0B0B0B0B0B0B0B0B0B0B0B0B0B0B78
:1018C0000B0B0B0B0B0B0B0B0B0B0B0B0B0B0B1B58
:1018D000F70FFFFFFFFFFFFFFFFFFFFFFFFFFFFF10
:1018E000FFFFFF1FDFDFDF0FEFEF08A8EFE8047552
:1018F0007575751F1F1E3E3E3E3D3D39FA7B787B58
:10190000F7F600FFFFFFFFFFFFFFFFFFFFFFFFFFF7
:10191000FFFFFFFFFF00FF000000000000000000CD
:1019200000000000000000000000000000000000B7
:1019300000000000000000000000000000000000A7
:101940000000000000000000000000000000000097
:10195000FF00FFFFFFFFFFFFFFFFFFFFFFFFFFFF96
:10196000FFFFFFC0BDBDBDBCBEBE3E3E1E1E1F9FD5
:101970001F9F1FFAC8CDC4763416060100E038B0A8
:1019800060677EFFFFFFFFFFFFFFFFFFFFFFFFFF1F
:10199000FFFFFFFFFF00FF0000000000000000004D
:1019A0000000000000000000000000000000000037
:1019B0000000000000000000000000000000000027
:1019C0000000000000000000000000000000000017
:1019D000FF00FFFFFFFFFFFFFFFFFFFFFFFFFFFF16
:1019E000FFFFFFFFFFFFFFFFFFFF8081FE40405E24
:1019F0005356573D3D3D3D3C3C3C3C3D383A393BE0
:101A00003B3B80FF7F9F3F7F7FBF7FFF7F9F3F7F6D
:101A10007FBF7FFFFF00FF0000000000000000000C
:101A200000000000000000000000000000000000B6
:101A300000000000000000000000000000000000A6
:101A40000000000000000000000000000000000096
:101A5000FF00FFFF7F9F3F7F7FBF7FFF7F9F3F7F15
:101A60007FBFFF01DDDDDDC0DEDEC0D2DEC0D1DF45
:101A7000DFDFDFAAA8AAA8AE20BEBCA1A1BF32B1F9
:101A8000B2B030D2D0E0D2D1D2D0D0D2D0E0D2D108
:101A9000D2D0D0D2FF00FF00000000000000000004
:101AA0000000000000000000000000000000000036
:101AB0000000000000000000000000000000000026
:101AC0000000000000000000000000000000000016
:101AD000FF00FFD2D0E0D2D1D2D0D0D2D0E0D2D14C
:101AE000D2D0D3D4D5E5D5D5D5FD0101E90101E9A1
:101AF000316971F7F7F7F7F7787B7B3A3A3B3C3D72
:101B00009D9DC0FFFFFFFFFFFFFFFFFFFFFFFFFFE8
:101B1000FFFFFFFFFF00FF000000000000000000CB
:101B200000000000000000000000000000000000B5
:101B300000000000000000000000000000000000A5
:101B40000000000000000000000000000000000095
:101B5000FF00FFFFFFFFFFFFFFFFFFFFFFFFFFFF94
:101B6000FFFFFF077777770777770494F7F404F59B
:101B7000F5F5F5F1E8F4F8F4FAF4FA0101FFD7D736
:101B8000D7D75757179797D7C7C7D7D7F7F7F7F7C5
:101B9000F7F7F7F7F7F6F5FBFAFAFAFAFAFADADAFC
:101BA000DADADADA5A1A8ACADADAFAFAFAFAFAFA75
:101BB000FAFAFAFAFAFAFAFAFAFAFAFAFAFAFAFA85
:101BC000FADADACA0A1ADADADADADADAFAFAFAFB74
:101BD000F5F6F7F7F7F7F7F7F7F7F7F7F7F7F7F798
:101BE000D7D7DFD0D7D7EFAF2FEF0F1E9E1E9E1E89
:101BF0003E3E3EFFFFFFFF7F3F8FC7E0F0FDFBFD56
:101C0000FDFCFCFDFDFDFDFDFDFDFDFDFDFDFDFD06
:101C1000FDFDFDFDFDFDFDFDFDFDFDFDFDFDFD3DB4
:101C20008DE5F1F8FCFDFDFDFDFDFDFDFDFDFDFD7E
:101C3000FDFDFDFDFDFDFDFDFDFDFDFDFDFDFDFDD4
:101C4000FDFDFDFDFDF8E0851D7DFDFDFDFDFDFDBE
:101C5000FDFDFDFDFDFDFDFDFDFDFDFDFDFDFDFDB4
:101C6000FDFDFDE5E5C5C5C5858780000E0D0E0DA2
:101C70001E1D1AD5F08D14A1C881CFD9F1AF200057
:101C8000080B000202020100090400000102020028
:101C900000052400100105240101010424020605A9
:101CA0002406000107058103100040090401000219
:101CB0000A000000070502024000000705830240F9
:101CC00000000403090412010002EF020140412355
:101CD000368000010102030141726475696E6F2054
:101CE0004C4C430041726475696E6F204C656F6E99
:101CF0006172646F001201130014001501160217BF
:101D0000041807190B1A101B171C1E1D251E201F57
:101D10001B20162111220C23082405250326022747
:101D200001280129012A012B022C032D052E082F41
:101D30000C30113116321B332134253521361E3734
:101D40001A381639123A0E3B0B3C093D083E073F44
:101D500007400741084209430B440E451246164707
:101D60001A481E49214A254B224C1F4D1C4E1A4F22
:101D700018511653155514571459145B145D155FFB
:101D8000166118621A631C641F6522662500BD1F58
:101D9000171D11241FBECFEFDAE0DEBFCDBF11E06B
:101DA000A0E0B1E0EEE4F5E402C005900D92AE3B98
:101DB000B107D9F726E0AEEBB1E001C01D92AC3916
:101DC000B207E1F71EE0C8ECDEE004C02197FE0197
:101DD0000E946221C73CD107C9F70E941B1D0C94C9
:101DE0009A220C9400002F923F924F925F926F9232
:101DF0007F928F929F92AF92BF92CF92DF92EF929B
:101E0000FF920F931F93CF93DF9300D000D000D0A9
:101E1000CDB7DEB7F02ECD82A02FB0E06C01CA0E98
:101E2000DB1E1C141D040CF0F3C0803891050CF06F
:101E3000EFC0FB01EE0DF11D1E161F060CF0E8C0F1
:101E4000603471050CF0E4C04115510509F4E0C09F
:101E5000062F0770602EFB0177FD379613E0F5958E
:101E6000E7951A95E1F71E2F77FF04C0662011F061
:101E70001FEF1E0F97FF05C0EE27FF27E81BF90B8A
:101E800002C0E0E0F0E060E8C616D10424F060E8AB
:101E9000962E981A01C09F2C9E1A612F012E000CBD
:101EA000770B1F3F1CF4B62EB09401C0B12CDD247B
:101EB000D3940E2D077009F4D12CE694E694E694A1
:101EC000ED0C6E0D711D693071051CF068E0E62E99
:101ED000E11A8B2C810E782D00E87003800D911D86
:101EE00011248E0F9F1F61E070E0062C02C0660F68
:101EF000771F0A94E2F70D81033011F001E001C071
:101F000002E0A919B1090A9F302C1124C02ED12C4E
:101F1000BF9CE00DF11D1124CE9ED001CF9EB00DCF
:101F2000DE9EB00D11245A01AA0EBB1E21153105EB
:101F300009F0A901960121503109A20FB31F4A0FE0
:101F40005B1FEFEFE69F9001E79F300D1124290101
:101F5000409450941E0D1E83232D30E0099D200DCA
:101F6000311D11240E81801609F452C0DC01AE52DD
:101F7000BE4F7A018501712C791409F441C0F80132
:101F80003490369EF001379EF00D1124FA83E983D8
:101F9000E095F095FC83EB83FD81F23019F45C82CF
:101FA0004B8211C0ED81EB3F19F41A8219820BC0EC
:101FB000F7013490369EF001379EF00D1124E09524
:101FC000F095FC83EB8387FC06C0FC91EB81EF234B
:101FD000F981EF2BEC93662061F0F6E0F8154CF0F8
:101FE000FD01E058FF4F20803C8023203A803228BA
:101FF0003082EC0CFD1C0C0D1D1D73941196BCCF92
:102000008394A20EB31E420F531F80589F4FAACF36
:1020100026960FB6F894DEBF0FBECDBFDF91CF91ED
:102020001F910F91FF90EF90DF90CF90BF90AF90F6
:102030009F908F907F906F905F904F903F902F90E8
:1020400008950895CF93DF93FC01EB01988589856E
:102050008095892394FF14C09689903118F49F5F6E
:10206000968B0FC0F89487E780930008809301084F
:10207000A89588E18093600088E080936000FFCF9E
:10208000168A83FF02C082E0888B8E819F816FE079
:1020900070E00E944E21892B39F487898F5F83304D
:1020A00011F0878B01C0178A8E819F8160E570E0F7
:1020B0000E944E21892B21F4918D81E08927818F07
:1020C000808D883C10F48F5F808FDF91CF910895D1
:1020D0000895FC01DB0119968C911997809518964B
:1020E0009C911897892399F08281882311F08CE7BD
:1020F0008283828181110BC081E0828380E480939E
:10210000900081E49FE090939900809398009281E1
:102110009923B1F09F5F9283953059F09D3761F01C
:10212000923071F480E596E4909399008093980042
:10213000089510929000089581E050968C93089530
:10214000089508950F931F93CF93DF93EC018B01B4
:10215000FB0140858681978165E070E00E944E21F9
:10216000892B51F0F801868197816FE070E00E9421
:102170004E21892B51F135C0DE011596BE01695CF7
:102180007F4F12968C9112978823D1F08C918F5F9C
:102190008C3411F08C9301C01C922C9130E0220FF2
:1021A000331FF901EB50F34E5491CD010297FC011E
:1021B0005083F901EA50F34E24910196FC012083EB
:1021C0001596A617B707E9F6CDCFFE0136969E0104
:1021D000285C3F4F8181811107C03596E217F307D4
:1021E000C9F745FF0CC008C080818F5F883011F0AF
:1021F0008083F3CF1082F1CF8DA9813140F446FF67
:1022000009C08DA98C3330F48F5F8DAB03C0815032
:102210008DABF5CFDF91CF911F910F910895DC0128
:1022200081E017968C93179715961C921597E5EFFA
:10223000FCE1E4911396EC931397E6EFFCE1E49153
:102240001496EC930895FC01DB0116962D913C91B8
:10225000179720FD2FC084818D3828F48B3508F521
:102260008C33A8F408C08F3B08F18F3B01F583E065
:1022700050968C931CC082818150828316968D91DA
:102280009C91179787709927892B89F404C0277030
:102290003327232B61F481E09581911180E08583C0
:1022A00006C082E0858381E0838301C0138284813C
:1022B0008F5F848308950895CF92DF92EF920F93FA
:1022C0001F93CF93DF93FC016A3039F485818483B7
:1022D00096818185890F8683AAC0A4816E3719F4FF
:1022E000AE5FA483A4C0962FEF0166816F5F9A331F
:1022F00084F4903314F59B3219F11CF4913221F1DE
:102300005DC09D3209F460C09E3209F057C01FE3E2
:102310001CC09B354CF4913474F49A3399F09F337C
:1023200009F04CC012E411C08FE9890F8A3108F01E
:1023300045C019EB03C01FEB01C014E0190F05C025
:1023400011E403C013E401C01EE38F81062E000CCC
:10235000770B0A2E000CBB0B813009F03AC0E1EE7E
:10236000F8E00491E2EEF8E0E490112379F1E02F37
:10237000F0E02E2D269526952695422F50E021E05F
:1023800030E08E2D877011F420E030E0240F351FEF
:10239000E29F6001E39FD00CF29FD00C11249601C4
:1023A0001203A001139F500D11244D51574F9AEF66
:1023B000C92E20E030E0CD010E94F30E88858D5FAC
:1023C0009C81890F8C8333C010E4BFCF43EE58E06B
:1023D000EECFE1EEF8E00491E2EEF8E0E4901123B4
:1023E00009F1E02FF0E02E2D269526952695422F17
:1023F00050E021E030E08E2D877011F420E030E0D5
:10240000240F351FE29F6001E39FD00CF29FD00C98
:10241000112496011203A001139F500D11244D5158
:10242000574F02C043EE58E08BEFC82EC2CF81E079
:1024300090E0DF91CF911F910F91EF90DF90CF90BF
:102440000895089580E090E0089508950895EF922A
:102450000F931F933AEFE32E00E010E00E947819EB
:102460001F910F91EF900895EF920F931F93CF93C9
:10247000DF93FC016A3039F48581848396818185FC
:10248000890F868349C084816E3719F48D5F8483F8
:1024900043C0262FEF0166816F5F2A334CF420334F
:1024A000C4F42D32C1F02E3281F0213221F515C055
:1024B0002B352CF421345CF42F3319F11CC09FE927
:1024C000920F9A31C0F4275409C02FE307C021545A
:1024D00005C02C5F03C021E401C02EE33F81062E1E
:1024E000000C770B082E000C990B313061F44FEA89
:1024F00059E00E94271288858C5F9C81890F8C830C
:102500000BC020E4EBCF3BEFE32E00E010E04FEAFE
:1025100059E00E947819EFCF81E090E0DF91CF91F0
:102520001F910F91EF900895CF92EF920F931F9309
:10253000CF93DF93EC01E1E7F8E10491E2E7F8E102
:10254000E49092E0C92E20E030E043E758E160E0FB
:1025500070E080E090E00E94F30EEF89F0E0EE0F73
:10256000FF1FE559F74E4591549120E061E070E07E
:1025700081E290E00E942712888D883C51F429EB7B
:1025800037E141E158E164E370E08BE290E00E94C2
:10259000921B898D882369F082E0E82E00E010E02C
:1025A00020E048EA57E160E170E082E190E00E94BB
:1025B0007819DF91CF911F910F91EF90CF900895EF
:1025C000EF92FF920F931F93CF93DF938C0129ED2E
:1025D00033E14BE555E169E270E080E090E00E9474
:1025E000921B27EC32E14FE453E160E070E080E0C1
:1025F00090E00E94921B29E032E147E652E160E060
:1026000070E081E590E00E94921BE8012796780136
:1026100089E3E80EF11C88818823C9F0FE01319717
:10262000408150E0440F551FFA01E750FE4E2591BE
:102630003491FA01E751FE4E45915491FE013397D2
:10264000608170E03197808190E00E94921B259616
:10265000CE15DF0501F7E7EEF1E125913491E5EEC6
:10266000F1E145915491F80185A96AE270E090E0AA
:102670000E94921B2BEE30E147E651E16FE170E0E2
:1026800080E690E0DF91CF911F910F91FF90EF9046
:102690000C94921BCF93DF93EC0127EE3DE049E6CB
:1026A0005FE069E270E080E090E00E94921B25ED1F
:1026B0003CE04DE55DE060E070E080E090E00E948D
:1026C000921B27E13CE045E75CE060E070E081E5DB
:1026D00090E00E94921B8A812DE13BE049E95BE09A
:1026E0006FE170E090E00E94921B8D81882341F0A1
:1026F000813081F48A8190E020E043E05BE005C016
:102700008A8190E020E040E15BE06CE170E040967F
:102710000E9427128B81882369F08A8190E029EB3F
:102720003AE04DED5AE06EE170E00897DF91CF910D
:102730000C94921BDF91CF910895CF93DF93EC011E
:1027400043E957E161E170E08FE290E00E949F1B56
:102750004EE657E16AE170E08BE290E00E949F1B39
:102760004EE657E16AE170E089E490E00E949F1B29
:102770008A81811112C04EE657E16AE170E08AE376
:1027800090E00E949F1B45E257E16EE270E08AE113
:1027900090E0DF91CF910C949F1B48E057E16AE1F4
:1027A00070E08AE390E00E949F1B45EE56E16EE2E6
:1027B00070E08CE290E00E949F1B8A816FE00E9493
:1027C0004221837040E050E161E370E0CDEDD6E15D
:1027D0004817A9F0942F990F915B9B01FE01529F1E
:1027E000D001A0781124A90F2770E20FF11D949158
:1027F000AE52BE4F2C91922B9C934F5FE9CFDF914D
:10280000CF9108950C94FD210C94FD210C94FD2191
:102810000C94FD210C94FD211F920F920FB60F9284
:1028200011242F933F938F939F93AF93BF938091E6
:10283000C3019091C401A091C501B091C60130912E
:10284000BE0123E0230F2D3720F40196A11DB11DF9
:1028500005C026E8230F0296A11DB11D2093BE01DD
:102860008093C3019093C401A093C501B093C601A6
:102870008091BF019091C001A091C101B091C201AE
:102880000196A11DB11D8093BF019093C001A0933B
:10289000C101B093C201BF91AF919F918F913F91C0
:1028A0002F910F900FBE0F901F901895BC0180E0E4
:1028B00090E00C943D158FB18095807F669B886079
:1028C0001C9B846008951F93CF93DF93DC0120E06D
:1028D00030E040E050E011E0C1E0D0E026173707DB
:1028E00091F114968C911497811115C014961C9334
:1028F000149712968D919C911397ED91FC911197DD
:10290000E80FF91FE4911596EC931597019613962D
:102910009C938E93129714969C91149715968C9174
:102920001597892349F0FE01022E02C0EE0FFF1F0A
:102930000A94E2F74E2B5F2B990F14969C931497F1
:102940002F5F3F4FCBCFCA01DF91CF911F910895E9
:10295000089508950895089508950C94FD2108950B
:10296000CF92DF92EF92FF920F931F93CF93DF935B
:102970006C017A018B01C0E0D0E0CE15DF0589F053
:10298000D8016D918D01D601ED91FC910190F081FE
:10299000E02DC6010995892B11F47E0102C0219614
:1029A000ECCFC701DF91CF911F910F91FF90EF9076
:1029B000DF90CF9008953FB7F8948091BF01909138
:1029C000C001A091C101B091C20126B5A89B05C06C
:1029D0002F3F19F00196A11DB11D3FBFBA2FA92F9E
:1029E000982F8827820F911DA11DB11DBC01CD011B
:1029F00042E0660F771F881F991F4A95D1F7089507
:102A00000E9495224091CA015091CB012091C801AA
:102A10003091C90142175307B4F49091E8009570C2
:102A2000E1F39091E80092FD19C08093F10080914C
:102A3000CA019091CB0101968F739927892B19F4C4
:102A40008EEF8093E8008091CA019091CB010196AE
:102A50009093CB018093CA0181E0089580E00895AE
:102A6000615030F02091F100FC0120830196F8CFF5
:102A7000289884E68093D00108958F929F92AF9218
:102A8000BF92CF92DF92EF92FF926B017C010E9486
:102A9000DB144B015C01C114D104E104F104F1F039
:102AA0000E94DB14DC01CB0188199909AA09BB0932
:102AB000883E9340A105B10570F321E0C21AD10808
:102AC000E108F10888EE880E83E0981EA11CB11C75
:102AD000C114D104E104F10419F7DDCFFF90EF90A8
:102AE000DF90CF90BF90AF909F908F900895CF933D
:102AF000DF931F92CDB7DEB76983DC01ED91FC91C6
:102B00000280F381E02D41E050E0BE016F5F7F4F16
:102B100009950F90DF91CF91089583E08093E900AC
:102B20008091F200882319F08AE38093E8000895E9
:102B3000FC018485958597FD0BC09FB7F89482E0D2
:102B40008093E9008091F2009FBF90E00196089584
:102B50009FB7F89482E08093E9008091F2009FBFD4
:102B600090E008958F929F92AF92BF92CF92DF92A2
:102B7000EF92FF920F931F93CF93DF935C016B0152
:102B80007A0180910B01882309F45BC08091D10107
:102B9000882309F456C08091CE0180FF05C0809142
:102BA000E00082608093E000E70110E00AEF83E03C
:102BB000882E9AE3992E2097D9F10E94F21C811158
:102BC0000AC0015009F43DC061E070E080E090E08F
:102BD0000E943D15F0CF282F30E0C217D3070CF428
:102BE0008C2F4FB7F8948092E9009091E80095FF00
:102BF0001DC0282F30E0C21BD30BF601982F915037
:102C000020F081918093F100FACFC20ED31E1123E0
:102C100019F09092E80009C08091E80085FD06C097
:102C20009092E80011E0209709F010E04FBFC3CF69
:102C30001111C3CF5D9884E68093CF011E141F0449
:102C400044F081E090E0F5019383828380E090E09E
:102C500001C0C701DF91CF911F910F91FF90EF90BD
:102C6000DF90CF90BF90AF909F908F9008950E947B
:102C7000F21C90E00895CF93DF931F92CDB7DEB79B
:102C8000FC018485958597FD05C02FEF3FEF3587C3
:102C900024870BC0CE0101960E94C81C019719F42D
:102CA000898190E002C08FEF9FEF0F90DF91CF916D
:102CB00008950F931F93CF93DF931F92CDB7DEB785
:102CC0008C01FC018485958597FF0EC0CE0101968D
:102CD0000E94C81C019719F4298130E002C02FEF2F
:102CE0003FEFF80135872487F801848595850F909B
:102CF000DF91CF911F910F910895DF92EF92FF9294
:102D00000F931F93CF93DF93D82E8A017B01E40E9C
:102D1000F51EEB01CE15DF0571F0D7FE03C0FE01F5
:102D2000849101C088810E94021521968111F2CF01
:102D30008FEF9FEF01C0C801DF91CF911F910F91DD
:102D4000FF90EF90DF9008950F931F93CF93DF9341
:102D50001F92CDB7DEB782E0898342E450E060E89D
:102D60007CE180E80E947D160E94031DDC01129622
:102D70000D911C9113970115110569F0D801ED9182
:102D8000FC910280F381E02DBE016F5F7F4FC8018F
:102D9000099597FF07C089810F90DF91CF911F910F
:102DA0000F910895F80100851185E5CF1F920F92CC
:102DB0000FB60F9211248F939F938091E100909111
:102DC000E100937F9093E10083FF0FC01092E90030
:102DD00091E09093EB001092EC0092E39093ED0061
:102DE0001092D10198E09093F00082FF20C093E010
:102DF0009093E9009091F200992319F09AE390934F
:102E0000E8009091CF01992339F09091CF01915032
:102E10009093CF01992389F19091D001992339F0B2
:102E20009091D00191509093D001992341F184FF6A
:102E300010C08091E2008E7E81608093E2008091DC
:102E4000E1008F7E8093E1008091CE018E7E8061D3
:102E500011C080FF16C08091E2008E7E8061809359
:102E6000E2008091E1008E7E8093E1008091CE01AE
:102E70008E7E81608093CE0104C05D9ACDCF289A6A
:102E8000D6CF9F918F910F900FBE0F901F901895E6
:102E90001F920F920FB60F921124CF92DF92EF92F2
:102EA000FF920F931F932F933F934F935F936F93D3
:102EB0007F938F939F93AF93BF93EF93FF93CF93A2
:102EC000DF93CDB7DEB76C97DEBFCDBF1092E900C0
:102ED0008091E80083FFEDC168E0CE0145960E9435
:102EE000301582EF8093E8008D8987FF05C09091AF
:102EF000E80090FFFCCF03C09EEF9093E800982F6E
:102F0000907609F0C6C09E892F89188D91110CC04A
:102F1000803829F48091CD018093F10002C0109295
:102F2000F1001092F10048C1422F50E0512B913036
:102F300051F4811141C14130510509F03DC18091E9
:102F4000CD018D7F0BC0933061F4811135C14130CB
:102F5000510509F031C18091CD0182608093CD018E
:102F60002BC1953041F48091E80080FFFCCF2068B0
:102F70002093E30021C1963009F05FC0EB8CFC8CFC
:102F80001092E9001092CB011092CA01123091F513
:102F90001092C9011092C8010E94A41699E0BE01C6
:102FA0006F5F7F4FDB01E92F1D92EA95E9F7998367
:102FB0001A8391E09E8390EA98879AEF99872091EF
:102FC000CA013091CB01275F3F4F3C832B838D8318
:102FD0001092E9001092CB011092CA01F092C9013F
:102FE000E092C80149E050E080E00E947D160E9416
:102FF000A416E2C0F092C901E092C8010E94031D2C
:10300000DC011296ED90FC901397E114F10409F4A1
:10301000C0C0D701ED91FC910480F581E02DBE0187
:103020006B5E7F4FC7010995009719F00CF0C4C083
:10303000C7C0F701E084F184E8CF973009F4C0C03D
:10304000983021F481E08093F100B6C0993009F006
:10305000B3C0837009F0B4C0E7E1F1E081E021E0A2
:1030600036E39081992361F08093E9002093EB008F
:1030700091919093EC003093ED008F5F873089F74A
:103080008EE78093EA001092EA008F898093D10145
:1030900093C08B8D9C8D1092E9001092CB01109201
:1030A000CA019093C9018093C801898D811156C0CE
:1030B0008E899D89913A59F4813209F081C047E0A7
:1030C00050E064E071E080E00E947D1675C09132AE
:1030D00009F076C0833289F4888D90E0982F882794
:1030E0002F89822BA0E0B0E0809300019093010132
:1030F000A0930201B09303015FC0803269F4809114
:10310000E80082FFFCCF67E084E091E00E94301588
:103110008BEF8093E80006C0823209F04DC08F89A2
:1031200080930B018091CC01882319F0EEEFFAE037
:1031300002C0E0E0F8E08091040190910501A091C7
:103140000601B0910701803B9440A105B10509F04B
:103150007BC080910B0180FF93C076C00E94031D4D
:10316000DC0112960D911C9113970115110541F187
:10317000D801ED91FC910190F081E02DBE016B5ED4
:103180007F4FC8010995811117C0F801008511858D
:10319000ECCF113009F44EC0133091F48F8988239D
:1031A00009F445C0823081F440E860E184EE9CE19E
:1031B0000E94801F882321F08EEF8093E80079C061
:1031C00081E28093EB0075C0813029F440E86BE028
:1031D00088ED9CE1EDCF833099F70E94031DDC015F
:1031E0001296ED90FC9013978E010F5F1F4F6801B0
:1031F000E114F10479F0D701ED91FC910680F7819B
:10320000E02DB801C7010995080F111DF701E084F1
:10321000F184EECFD8011C92F60101900020E9F76D
:103220003197BF016C197D0940E0C601C1CF62EC46
:103230007CE102C066EC7CE16115710509F2FB01DD
:10324000449150E080E840CF0FB6F894A895809163
:103250006000886180936000109260000FBEA895A6
:10326000EE3F2AE0F20739F08091FE0A9091FF0AC2
:1032700091838083A1CF1092FF0A1092FE0A9CCF07
:10328000EE3F8AE0F80731F0808191819093FF0A48
:103290008093FE0A87E797E7918380839BE088E12C
:1032A0000FB6F894A895809360000FBE90936000CD
:1032B00083CF6C960FB6F894DEBF0FBECDBFDF9103
:1032C000CF91FF91EF91BF91AF919F918F917F919E
:1032D0006F915F914F913F912F911F910F91FF90AF
:1032E000EF90DF90CF900F900FBE0F901F9018952A
:1032F0006F927F928F929F92AF92BF92CF92DF9206
:10330000EF92FF920F931F93CF93DF9300D000D0E3
:10331000CDB7DEB7DC014B017E2D4115510509F417
:10332000EEC1FA016491319694915A01F2E0AF0E28
:10333000B11CC62ED12C222309F1492F4695469562
:103340004695E42FF0E041E050E0892F877011F4BA
:1033500040E050E04E0F5F1FC49EF001C59EF00D8F
:10336000D49EF00D1124733011F4EE0FFF1F2E9F29
:10337000A0012F9F500D1124A40EB51E7F3F31F4E4
:103380000115110511F071E001C072E0AD014C0DA5
:103390005D1D141615060CF0B2C1A038B1050CF075
:1033A000AEC19401290F311D121613060CF0A7C1EE
:1033B00080E4881691040CF0A2C1A114B10409F4B0
:1033C0009EC1382D3770F40197FC379623E0F595B0
:1033D000E7952A95E1F72E2F97FE04C0332311F0CD
:1033E0002FEF2E0FB7FF05C0EE27FF27EA1BFB0BC1
:1033F00002C0E0E0F0E04038510524F050E85A1BEC
:10340000952E01C0962E9E1AE22E022E000CFF0869
:103410002F3F1CF45E2D509501C050E041E0892FF4
:10342000877009F440E0969596959695490FE40EBD
:10343000F11C99E0E916F10414F048E0421BF42E67
:10344000F51A250F40E82403A00DB11D1124AE0F7D
:10345000BF1F569FE00DF11D1124A5014E0F5F1FE8
:1034600081E090E05C01032E02C0AA0CBB1C0A9410
:10347000E2F7733009F400C1A0F4713009F4B3C06D
:10348000723009F03CC18FEF8A9DB0018B9D700DA9
:103490001124609570957C836B837C806F2C620E09
:1034A00029C07A3F29F07B3F09F029C1F20E87C07D
:1034B000F20E51C0FA01E00FF11FE491EA9D700194
:1034C000EB9DF00C1124FA82E98227FD07C0FC0174
:1034D000F080EF2DE623EE2AFC01E082311113C0CB
:1034E0000F5F1F4F0196091528F32F5F4C0D5D1DCF
:1034F000A058BF4F261509F402C1CD018E529E4F30
:1035000000E010E0F0CF27305CF7FC01E058FF4FFF
:10351000E080E7208A80E828E082E2CFFA01E60F27
:10352000F71FE491EA9D8001EB9D100D11241A8391
:10353000098327FD04C0FC011081012B0083311198
:1035400013C06F5F7F4F0196691540F32F5F4C0DDD
:103550005D1DA058BF4F2F1509F4D1C0CD018E526B
:103560009E4F60E070E0F0CF27305CF78C01005890
:103570001F4FF801E080FA81EF2AF801E082E1CFE5
:10358000FA01E00FF11FE491EA9DC001EB9D900D5F
:1035900011249A83898327FD05C08095FB019081C2
:1035A00089238083311114C00F5F1F4F6F5F7F4FDE
:1035B000091530F32F5F4C0D5D1DA058BF4F2F151F
:1035C00009F49DC0BD016E527E4F00E010E0F0CFC7
:1035D000273054F7FB01E058FF4F8A818095908196
:1035E00089238083E1CF0E0F1F1F8F2C820E281599
:1035F00009F485C0CD018E529E4F7C0160E070E0E1
:10360000691590F5F801E60FF71FE491EA9DC001F6
:10361000EB9D900D1124809590959C838B83FA01EE
:10362000E60FF71FE491EA9D3001EB9D700C112429
:103630007A82698227FD05C0F70190818923682A73
:103640006082332359F027304CF4F701E058FF4FE4
:1036500090818C8189239A81892B80836F5F7F4F32
:10366000FFEFEF1AFF0ACCCF2F5F4C0D5D1D0C0D45
:103670001D1DA058BF4FBBCF892D90E0E40FF51F53
:10368000AE52BE4F60E870E0681B790BC81AD90AC9
:103690008601000F111F592D4F2D792CE32ECF934A
:1036A000DF93ED01EF96EF9622968590C590EE2080
:1036B00059F08A9C4001CA9C600127302CF4F880A4
:1036C000D094FD20F928F99222233AF0FC90C0947E
:1036D000FC20F828FD920C946E1B11965A9529F740
:1036E0004A9551F0572D23951124E00FF11DA60F97
:1036F000B11DC60FD11DD9CFDF91CF9111240F90ED
:103700000F900F900F90DF91CF911F910F91FF902D
:10371000EF90DF90CF90BF90AF909F908F907F9071
:103720006F900895EF920F931F93EE24E394890115
:1037300020E00E9478191F910F91EF9008952F9229
:103740003F924F925F926F927F928F929F92AF9231
:10375000BF92CF92DF92EF92FF920F931F93CF937E
:10376000DF93CDB7DEB72B970FB6F894DEBF0FBE51
:10377000CDBF4C016B015A8349831C821B821D8281
:103780001E8268E070E0CE0101960E9463140196EB
:103790001C0168E070E0CE0101960E9463148C0168
:1037A00061E070E0CE0101960E946314482FC401CD
:1037B000820D931D97FDD3C050E8851691040CF03F
:1037C000CEC098012F5F3F4FC601820F931F97FD18
:1037D000C6C060E4C616D1040CF0C1C08601D7FE95
:1037E00004C0002711270C191D0907701127760145
:1037F000D7FE03C077E0E70EF11C63E0F594E79491
:103800006A95E1F7D7FE09C081E0E81AF10888E07F
:1038100090E0BC01601B710B8B01690137FF03C095
:1038200077E0C70ED11C53E0D594C7945A95E1F7C1
:1038300027703327232B19F08FEFC81AD80A4F832C
:1038400031E020E0A12CB12C612C712C88E090E0BB
:10385000AC01401B510B598748876C147D040CF058
:103860007EC044244394512C61E070E0CE01019667
:103870002A873B870E9463142A853B85892B21F484
:1038800052E0450E511CF0CFB201CE0101960E94CC
:103890006314AC014F5F5F4FE0E0F0E02A853B85A9
:1038A000E417F50708F052C06F816111232B330F25
:1038B00009F04AC0B701660D771DCB010196099743
:1038C00098F5C501880D991D8038910568F52B0183
:1038D0005694542C442457944794480C591C4A0C31
:1038E0005B1C6F3F8FEF7807B1F1D201AE52BE4F34
:1038F000822F002E01C0880F0A94EAF79C91892B31
:103900008C930115110581F06730710569F0D201C2
:10391000AE5ABD4F30E0088402C0359527950A9411
:10392000E2F78C91282B2C939FEFA91AB90AA214C5
:10393000B30444F06FEF661A760A31E020E0A12C60
:10394000B12C02C031E020E03196AACF4F8151E086
:1039500045274F8382CF01151105C9F6E5CF2B9678
:103960000FB6F894DEBF0FBECDBFDF91CF911F9190
:103970000F91FF90EF90DF90CF90BF90AF909F900E
:103980008F907F906F905F904F903F902F90089511
:10399000FC018091D101811103C08FEF9FEF089549
:1039A0009FB7F89482E08093E9002091F20030E024
:1039B0001216130614F421E030E02115310559F0F8
:1039C000289884E68093D0018091F10080838091D3
:1039D000F200882319F09FBFC90108958BE68093F8
:1039E000E800F9CF2FB7F89483E08093E900909135
:1039F000E800892F807295FF04C09091F20080E466
:103A0000891B2FBF08958091400681110DC082E06F
:103A100080933C0684E080933D0610923F0610920E
:103A20003E0681E0809340068CE396E0089582EDA7
:103A300095E00C94AC14789484B5826084BD84B510
:103A4000816084BD85B5826085BD85B5816085BD99
:103A500080916E00816080936E0010928100809151
:103A600081008260809381008091810081608093D9
:103A7000810080918000816080938000809191001E
:103A80008260809391008091910081608093910089
:103A9000809190008160809390008091C10084604B
:103AA0008093C1008091C10082608093C1008091A9
:103AB000C10081608093C1008091C30081608093C8
:103AC000C3008091C00082608093C0008091C200DA
:103AD00081608093C20080917A00846080937A0034
:103AE00080917A00826080937A0080917A00816070
:103AF00080937A0080917A00806880937A00109297
:103B0000D1011092CD011092CE018091D700816039
:103B10008093D70080EA8093D80089B5806189BD01
:103B200089B5826089BD09B400FEFDCF61E070E017
:103B300080E090E00E943D158091D8008F7C8061EC
:103B40008093D8008091E000807F8093E000809196
:103B5000E1008E7E8093E1008DE08093E200559A33
:103B6000209AEEEFFFE7859194918B3F9C4D19F4DD
:103B700081E08093CC0181EC80937C0085B1806FE3
:103B800085B984B1877E84B984B1876E84B95E9A21
:103B90005F988AB1806D8AB9769A6E9881B3806F8A
:103BA00081BB899880B38D7080BB80E58CBD81E03E
:103BB0008DBD85E090E00E9456145F9A85E090E00C
:103BC0000E9456145E985C98E3E7FCE18DE08E0F4E
:103BD00094919EBD00000DB407FEFDCF31968E136B
:103BE000F7CF5C9A81E880936400809165008160E2
:103BF000809365000E945B1487FF24C05C9885EA6F
:103C00008EBD00000DB407FEFDCF5C9A2E982F9854
:103C10002D988091640080628093640081E083BF6E
:103C2000889513BEFCCF2D980E945B14847884384D
:103C300071F00E945B148471843129F188EC90E06A
:103C40000E9456140E945B1482FDEDCF38C02D9A5D
:103C500088EC90E00E9456142F9882E090E00E9439
:103C6000C9208F3F29F06FEF82E090E00E94D120C1
:103C700084EF91E00E9456142F9A0E945B1484787E
:103C80008438D9F3D6CF2D9A88EC90E00E94561450
:103C90002E9882E090E00E94C920882329F060E0FD
:103CA00082E090E00E94D12084EF91E00E945614BF
:103CB0002E9A0E945B1484718431D9F3BFCF2D9A60
:103CC00082E090E00E94C920882331F03E9A3F9A1A
:103CD00081E08093C70104C01092C7013E983F98CD
:103CE000809164008E7F8093640080917A0080646C
:103CF00080937A0080917A0086FDFCCFC091780095
:103D0000D09179000E94DB148E0120E030E0980110
:103D100011270027600F711F821F931F6115710506
:103D20008105910511F00E94C0208091640081609E
:103D3000809364008DE08093DC0583E884BD8FEF81
:103D400087BD81EF809380001092880010928A00D6
:103D50001092E2058824839402ED11E0D0E085EF13
:103D6000E82E8CE1F82E96EFC92E9CE1D92E20E0AA
:103D7000A22E20E0B22E992493948FB7F89440910C
:103D8000C3015091C4016091C5017091C6018FBFFC
:103D90008091DD05942F981B892FC091DE05CC23DF
:103DA00029F09093DF051092DE05A3C09091DC0509
:103DB000891740F48F5F891708F09BC083BE8895F0
:103DC00013BE97C09092DE054093DD058091D80523
:103DD0009091D90501969093D9058093D80580914B
:103DE000DA058093DB050E945B148093DA058C2F43
:103DF000F80181118FEF0024819381938193819346
:103E00000394D1F78091E2058130E1F030F0823007
:103E100009F44EC0833059F15FC08091E1058823D9
:103E200021F01092D4051092E10562ED75E08DEF5E
:103E300095E00E94691062ED75E08DEF95E00E94BB
:103E40009D134AC09091E105913021F08093D405F3
:103E50008093E10562ED75E083EE95E00E9422100B
:103E600062ED75E083EE95E00E94941235C090916A
:103E7000E105933081F08093D40590920D06109265
:103E80000B06F701949190930906F6019491909393
:103E90000A068093E10562ED75E086E096E00E94F7
:103EA000A21062ED75E086E096E00E94E01214C078
:103EB0009091E105923021F08093D4058093E10543
:103EC00062ED75E080E096E00E94231162ED75E0FE
:103ED00080E096E00E944A13F80180E098E00080BC
:103EE0000EBCD111012C019780FDFDCF0192B9F7D5
:103EF0000DB4A114B10409F440CF0E9400003DCFDD
:103F0000CF92DF92EF92FF920F931F93CF93DF93A5
:103F10001F92CDB7DEB7182F062FE42E862F880FFD
:103F20008E5F99830E94021583E00E940215F12E94
:103F3000C12E9981D92E8C2D8F19801798F4F601F6
:103F4000E7FE02C0849101C080810E940215182FF3
:103F500080E00E9402158123FFEFCF1ADF0A811152
:103F6000EACF01C081E00F90DF91CF911F910F91B7
:103F7000FF90EF90DF90CF90089510924B06109233
:103F80004A0688EE93E0A0E0B0E080934C06909360
:103F90004D06A0934E06B0934F0681E291E09093B8
:103FA0004906809348068FEF9FEF909355068093C4
:103FB00054061092DA051092DB0580E18093DC054F
:103FC0001092D9051092D8051092DE0583E391E096
:103FD0009093D6058093D50589EB91E09093D30516
:103FE0008093D2051092E8051092E70581E491E0F4
:103FF0009093E6058093E50598E09093EE0581E0C7
:104000008093ED051092EA051092EB051092E905F8
:104010008093EC051092F2051092F1052DE431E049
:104020003093F0052093EF059093F8058093F70502
:104030001092F4051092F5051092F3058093F605A1
:1040400089E691E09093E4058093E3051092F905E9
:104050001092FA051092FB051092FC0589E991E097
:104060009093FE058093FD051092FF0589E791E08E
:1040700090930106809300068CE9809302061092CB
:104080000306109204061092050689E891E09093C9
:104090000706809306061092080680E090E065EF20
:1040A0007CE146EF5CE1DC01AE52BA4FDB961C923C
:1040B000DB97D9961C92D997FB012491D7962C9324
:1040C000D797FA012491D8962C93059682339105BF
:1040D00051F780E180933B0608958F929F92AF92B3
:1040E000BF92CF92DF92EF92FF92CF93DF93EC01DA
:1040F000688179818A819B816115710581059105AE
:1041000021F464E279ED8BE597E02DE133EF41E0B6
:1041100050E00E94DF2049015A019B01AC01A7EA4F
:10412000B1E40E94FE206B017C01ACEEB4EFA5016E
:1041300094010E940C21DC01CB018C0D9D1DAE1D54
:10414000BF1DB7FF03C00197A109B04888839983B9
:10415000AA83BB83BC01CD019F77DF91CF91FF90F4
:10416000EF90DF90CF90BF90AF909F908F90089589
:104170000E946D2008958CE091E00E946D200895CA
:1041800060930C0170930D0180930E0190930F01C9
:104190000895F999FECF92BD81BDF89A992780B50F
:1041A0000895262FF999FECF1FBA92BD81BD20BD7B
:1041B0000FB6F894FA9AF99A0FBE01960895052E53
:1041C00097FB1EF400940E94F62057FD07D00E9432
:1041D000112107FC03D04EF40C94F6205095409525
:1041E000309521953F4F4F4F5F4F089590958095A3
:1041F000709561957F4F8F4F9F4F08950E94332197
:10420000A59F900DB49F900DA49F800D911D11242A
:104210000895B7FF0C94FE200E94FE20821B930B92
:104220000895A1E21A2EAA1BBB1BFD010DC0AA1FF7
:10423000BB1FEE1FFF1FA217B307E407F50720F00F
:10424000A21BB30BE40BF50B661F771F881F991F8A
:104250001A9469F760957095809590959B01AC01D3
:10426000BD01CF010895A29FB001B39FC001A39FDC
:10427000700D811D1124911DB29F700D811D11249F
:10428000911D0895991B79E004C0991F961708F0B5
:10429000961B881F7A95C9F780950895AA1BBB1BAA
:1042A00051E107C0AA1FBB1FA617B70710F0A61B36
:1042B000B70B881F991F5A95A9F780959095BC0157
:1042C000CD010895EE0FFF1F0590F491E02D0994A4
:1042D000CF93DF938230910510F482E090E0E0917B
:1042E0009A06F0919B0620E030E0C0E0D0E03097E5
:1042F00011F14081518148175907C0F048175907FB
:1043000061F482819381209719F09B838A832BC06B
:1043100090939B0680939A0626C02115310519F0CB
:104320004217530718F49A01BE01DF01EF01028022
:10433000F381E02DDCCF2115310509F1281B390B64
:104340002430310590F412968D919C91139761154C
:10435000710521F0FB019383828304C090939B0637
:1043600080939A06FD01329644C0FD01E20FF31FCF
:1043700081939193225031092D933C933AC020911F
:10438000980630919906232B41F420911201309127
:1043900013013093990620939806209110013091D3
:1043A00011012115310541F42DB73EB7409114019B
:1043B00050911501241B350BE0919806F091990658
:1043C000E217F307A0F42E1B3F0B2817390778F0EC
:1043D000AC014E5F5F4F2417350748F04E0F5F1F4B
:1043E00050939906409398068193919302C0E0E020
:1043F000F0E0CF01DF91CF9108950F931F93CF93FA
:10440000DF93009709F48CC0FC013297138212826B
:1044100000919A0610919B060115110581F42081E7
:104420003181820F931F20919806309199062817A9
:10443000390779F5F0939906E093980671C0D80191
:1044400040E050E0AE17BF0750F412962D913C911A
:104450001397AD012115310509F1D901F3CF9D0164
:10446000DA013383228360817181860F971F82175F
:10447000930769F4EC0128813981260F371F2E5FDD
:104480003F4F318320838A819B8193838283452B95
:1044900029F4F0939B06E0939A0642C01396FC938E
:1044A000EE931297ED01499159919E01240F351F0A
:1044B000E217F30771F480819181840F951F0296B2
:1044C00011969C938E938281938113969C938E93E5
:1044D0001297E0E0F0E0D80112968D919C9113972D
:1044E000009719F0F8018C01F6CF8D919C919801FD
:1044F0002E5F3F4F820F931F2091980630919906AF
:104500002817390769F4309729F410929B06109206
:104510009A0602C01382128210939906009398069D
:10452000DF91CF911F910F91089581E090E0F89471
:104530000C949A221EE0C8ECDEE004C0FE010E944A
:0E45400062212196C93CD107C9F7F894FFCF3C
:10454E00FFFFFFFF00E1000000000000010000007F
:10455E0000009C06800000C1808100000000000069
:10456E00007715B21537168D1598153B165916008E
:10457E00000000211000000000AF140A140000001B
:10458E00005C11B01422122112000000003412B08F
:10459E001422122112000000000000000026122535
:1045AE00120015001500000000AB14081468102549
:1045BE00122210941200000000A91404145B11259D
:1045CE001223114A1300000000A81402140F112523
:1045DE0012A210E01200000000AA140614A1102569
:1045EE001269109D13000000000000000026122525
:0E45FE00120015001500000000AC14AD1400F2
:00000001FF
