:100000000C94CC0B0C94F40B0C94F40B0C94F40B9C
:100010000C94F40B0C94F40B0C94F40B0C94F40B64
:100020000C94F40B0C94F40B0C948A160C94FC16A0
:100030000C94F40B0C94F40B0C94F40B0C94F40B44
:100040000C94F40B0C94F40B0C94F40B0C94F40B34
:100050000C94F40B0C94F40B0C94F40B0C94FC0F18
:100060000C94F40B0C94F40B0C94F40B0C94F40B14
:100070000C94F40B0C94F40B0C94F40B0C94F40B04
:100080000C94F40B0C94F40B0C94F40B0C94F40BF4
:100090000C94F40B0C94F40B0C94F40B0C94F40BE4
:1000A0000C94F40B0C94F40B0C94F40B28160070C5
:1000B0008814021619613A846000000000000000F4
:1000C000000000000000000000807804020A2215F1
:1000D00062B24C000000000082453E008080113278
:1000E0002444C438A8A8282828282828283844C404
:1000F00004040303000000392740601010E00C12D4
:100100001312100F00000101020204090804030089
:100110000000000000001B242022130D010101013A
:100120000101020202010070F8FCFEFEFFFFFEE486
:10013000600000000000000000000000000000005F
:100140000080F8FCFEFEFEFFFEFE4C0000000000FA
:1001500082C7FFFFFFFFFFFEFCFCFC38B8B8383851
:100160003838383838387CFC9CDCDFFFFFFFFFFF75
:10017000E7C0E0F0F0E00C1E1F1F1F0F00000101A0
:100180000303070F0F0703000000000000001B3FE0
:100190003F3F1F0D01010101010103030301100F86
:1001A0000040A038E4A45292665D39211EE00000B0
:1001B00000070810202110182048582C4A31000050
:1001C000100F3844C47434B45A6282020408BC92DA
:1001D0004A340000010608091E25162220201009B5
:1001E0000600100F00C6291A0D09028C04C28204F1
:1001F0008870000000033C424E5D33242512130E2C
:1002000002010000100F0030C884020222B4523CE8
:10021000C80830C000001629241E08102020232DF5
:1002200016161711110E100FA05010E8D631610EDE
:100230003A0531CA040000000304080918684C4656
:100240007806083344443800100F30C8A4C8505012
:10025000080808A8A6514949468003040408364BFB
:100260002D4C4840211F04020201100F0E1111E60F
:1002700008300F31190B8CC80810E000000010295D
:1002800046502E384346350B04050200100FC0209F
:1002900020107CC28109191A69368890906000315B
:1002A000494945320A0808080505091209060040AF
:1002B000E0F8FCFCDE9EFEFFFFFFFEE00000000712
:1002C0000F1F3F3F1F1F3F7F7F3F7B310000387C68
:1002D000FCFCFCFC7E7EFEFEFCF8FCFE7E34000096
:1002E00001070F0F1E3F1F3F3F3F1F0F060000C6B5
:1002F000EFFEFFFFFEFCFCFEFEFCF87000000003BA
:100300003F7F7F7F3F3C3D1F1F0F030100000030F8
:10031000F8FCFEFEFEFC7E3CF8F8F0C00000163F44
:100320003F1F0F1F3F3F3F3F1F1F1F1F1F0EA0F00C
:10033000F0E8FEFFFFFEFAFFFFCE04000000030717
:100340000F0F1F7F7F7F7F070F3F7C7C380030F8C7
:10035000BCF8F0F0F8F8F8F8FEDFCFCFC68003075E
:10036000070F377F3F7F7F7F3F1F07030301100F7A
:100370000E1F1FFEF8F0FFFFFFFFFCF8F8F0E00093
:10038000000010397F7F2F3F7F7F3F0B0707020060
:10039000C0E0E0F0FCFEFFFFFFFEFFF6F8F0F060CB
:1003A000003179797D3F0F0F0F0F07070F1E0F06E2
:1003B00003081F051F1F151B1F11111F110E1F15ED
:1003C000111F05011F111D1F041F001F0010101F0A
:1003D0001F041B1F10101F061F1F011F1F111F1FAF
:1003E00005071F311F1F051B17151D011F011F10BA
:1003F0001F0F100F1F0C1F1B041B071C07191513C1
:100400000C121E1F120C1E12120C121F0C1A1404B6
:100410001F052E2A1E1F021C001D00201D001F0488
:100420001A011F001E041E1E021E1E121E3E120C6A
:100430000C123E1E020614120A020F121E101E0E8D
:10044000100E1E081E1A041A2E281E1A12161F112C
:100450001F121F101D151711151F07041F17151D3B
:100460001F151D01011F1F151F17151F0017000065
:100470001000040404040E040229060A0000040803
:100480003E09093E3F25251A1E2121123F21211E2A
:100490003F2525213F0505011E21293A3F04043F40
:1004A000213F21001021211F3F040A313F2020203D
:1004B0003F02023F3F02043F1E21211E3F09090661
:1004C0001E21112E3F09093622252519013F010160
:1004D0001F20201F0F10201F3F10103F3B04043B24
:1004E00003043807312D2321102A2A3C3F242418E5
:1004F0001C2222141824243F1C2A2A2C043E050105
:100500004C52523E3F040438243D20004040443DBC
:100510003F081422213F20003E04043E3E04023CDA
:100520001C22221C7E22221C1C22227E3E0402044B
:10053000242A2A12021F22201E20201E0E10201EF6
:100540003E10103E360808364E50503E322A2622C3
:100550001E29251E223F2000322929261221251A74
:100560000C0A3F08172525191E25251801390503F2
:100570001A25251A0629291E002F00000020000038
:10058000022905020004040000C0C0C0C0C0C08031
:100590000000FFFFFFFFFFFFFFFF00FFFFFFFFFF68
:1005A000FFFFFF000707070707070100091F0000FB
:1005B000808080808000000000FF00FE02F409F2CD
:1005C0000000FF0AFB8AAACA7B00000302020203A2
:1005D00000000B0400010200000000000201000BFB
:1005E00004080800000003000000080800000000E4
:1005F00080C0E0E0E0E0E0E0E0E0E0E0E0E0FCFE41
:10060000FFFFFFFEFCC080000000000000FEFFFFB7
:10061000FFFFFFFFFFFFFFFFFFFFFFFFFFFFFFFFEA
:10062000FFFFFFFFFFFFFFFCF8000000FFFFFFFFE1
:10063000FFFFFFFFFFFFFFFFFFFFFFFFFFFFFFFFCA
:10064000FFFFFFFFFFFFFFFF00060F0F1F1F1F3FF2
:100650007F7F7F7F3F1F1F1F1F1F1F1F1F3F7F7F2A
:100660007F7F3F1F1F1F0F071F1F000000008040DC
:10067000A0A0A0A0A0A0A0A0A0A0A0A0BC828581B6
:10068000BD823C4080000000000000FE01FC85FDB2
:1006900001FF03FDBDDDEDBD9D85FD03FF0305BD30
:1006A000DDAD3C380304F8000000FF0082B24ABB15
:1006B000BBBBBA7AFACACE8686CECBFB7BBABABAB5
:1006C000B26AE2EA00FF0006090A16111623414C3D
:1006D000444123161113131313111623414C4441A3
:1006E00023161117080700FCFEFFFFFFFFFFFFFFA7
:1006F000FFFFFFFFFFFFFFFFFFFFFFFFFFFFFFFF0A
:10070000FFFFFFFFFFFFFFFFFFFFFFFFFFFFFFFFF9
:10071000FFFFFEFC00103F7FFFFFFFFFFFFFFFFF1B
:10072000FFFFFFFFFFFFFFFFFFFFFFFFFFFFFFFFD9
:10073000FFFFFFFFFFFFFFFFFFFFFFFFFFFFFFFFC9
:10074000FF7F3F102F1000FC020101010101010198
:100750000101010101010101010101010101010189
:100760000101010101010101010101010101010179
:10077000010102FC00102F50A0A0A0A0A0A0A0A0EA
:10078000A0A0A0A0A0A0A0A0A0A0A0A0A0A0A0A069
:10079000A0A0A0A0A0A0A0A0A0A0A0A0A0A0A0A059
:1007A000A0502F10FFFFFFFFFFFFFFFFFFFFFFC065
:1007B000C0C0808000FFFFFFFFFFFFFFFFFFFFFFC4
:1007C000FFFFFFFFFFFFFFFFFFFFFFFFFFFFFFFF39
:1007D000FFE3E3C7C7C381FFFFFFFFFFFFFFFFFF8B
:1007E000FFFFFFFFFFFFFF7FFFFFFFFFFFFFFFFF99
:1007F000FFFFFFE1E1E1E1E0C0FFFFFFFFFFFFFFDF
:10080000FFFFFFFFFFFFFFFF7F3FFFFFFFFFFFFF38
:10081000FFFFFFFFFF010100000000FFFFFFFFFFE0
:10082000FFFF7F3F1F070000000000001140756DB3
:10083000EAEAD710DFDF4080BF4040408080001FE1
:100840001F1E3E3E3E3D3D397A7B787BF7F600FF2A
:10085000EAE8D5D4D6109EBEA2A2BE22A24444424B
:10086000813D3D3D3D3D3C3D3D3D393B383B3B3B86
:10087000807FAAA8AAA8AE20BEBCA1A1BF21A1A129
:10088000A120C0F7F7F7F7F7787B7B3A3A3B3C3D7E
:100890009D9D403FF1E8F4F8F4FAF4FA0101FF01FC
:1008A0000100000000FFFFFFFF7F3F8F4720100780
:1008B0000000000000008017F8FFFFFEFCFCFCFCBD
:1008C000F8FFFFFEFCFCFCFCF8FFFFFEFCFCFCFC60
:1008D000F8FFFFFEFCFCFCFCF8FFFFFEFCFCFCFC50
:1008E000F8FFFFFEFCFCFCFCF8FFFFFEFCFCFCFC40
:1008F000F8FFFFFEFCFCFCFCF8FFFFFEFCFCFCFC30
:10090000F8FFFFFEFCFCFCFCF8FFFFFEFCFCFCFC1F
:10091000F8FFFFFEFCFCFCFCF8FFFFFEFCFCFCFC0F
:10092000F8FFFFFEFCFCFCFCF8FFFFFEFCFCFCFCFF
:10093000F8FFFFFEFCFCFCFCFFFFFFFFFFFFFFFFDB
:10094000FFFFFFFFFFFFFFFFFFFFFFFFFFFFFFFFB7
:10095000FFFFFFFFFFFFFFFFFFFFFFFFFFFFFFFFA7
:10096000FFFFFFFFFFFFFFFFFFFFFFFFFFFFFFFF97
:10097000FFFFFFFFFFFFFFFFFFFFFFFFFFFFFFFF87
:10098000FFFFFFFFFFFFFFFFFFFFFFFFFFFFFFFF77
:10099000FFFFFFFFFFFFFFFFFFFFFFFFFFFFFFFF67
:1009A000FFFFFFFFFFFFFFFFFFFFFFFFFFFFFFFF57
:1009B000FFFFFFFFFFFFFFFF7F7F7F7F7F7F7F7F47
:1009C0007F7F7F7F7F7F7F7F7F7F7F7F7F7F7F7F37
:1009D0007F7F7F7F7F7F7F7F7F7F7F7F7F7F7F7F27
:1009E0007F7F7F7F7F7F7F7F7F7F7F7F7F7F7F7F17
:1009F0007F7F7F7F7F7F7F7F7F7F7F7F7F7F7F7F07
:100A00007F7F7F7F7F7F7F7F7F7F7F7F7F7F7F7FF6
:100A10007F7F7F7F7F7F7F7F7F7F7F7F7F7F7F7FE6
:100A20007F7F7F7F7F7F7F7F7F7F7F7F7F7F7F7FD6
:100A30007F7F7F7F7F7F7F7F801728070922142495
:100A400008042807892214240804280709221424EA
:100A5000080428070922142408042807092214245A
:100A6000080428070922142408042807092214244A
:100A7000080428070922142408042807092214243A
:100A8000080428070922142408042807092214242A
:100A9000080428070922142408042807092214241A
:100AA000080428070922142408042807092214240A
:100AB00008042807092214240804F9F9FAF9F9F9B5
:100AC000F9E9E9E9EAE9E9E96929A989CAC9E9E1AC
:100AD000E1E9E9F9FAF9F9F9F9F9F9F9FAF9F9F9BC
:100AE000F9F9F9F9FAE9E9E9E9E969298AC1E1E9F4
:100AF000E9F9F9F9FAF9F9F9F9F9F9F9FAF9F9F974
:100B0000F9F9F9F9FAF9F9F9E9E9E1810A69E9E9A3
:100B1000E9E9E9F9FAF9F9F9F9F9F9F9FAF9F9F973
:100B2000F9F9F9F9FAF9F9E9E9E9E9E1E2E1C18963
:100B3000092969E9EAE9E9E9E9E97F7E1E5E4E6E85
:100B40006676727A7C7C7E7E7E7E7E7E7E7E7E7EF9
:100B50007E7E7E7E7E7E7E7E7E7E7E7E7E7E7E7EB5
:100B60007E7E7E7E7E7E1E4672787C7E7E7E7E7E51
:100B70007E7E7E7E7E7E7E7E7E7E7E7E7E7E7E7E95
:100B80007E7E7E7E7E7E7E7E7E7E7E7E7C70420E41
:100B90003E7E7E7E7E7E7E7E7E7E7E7E7E7E7E7EB5
:100BA0007E7E7E7E7E7E7E7E7E7E7E7E7E7E7E7E65
:100BB0007E7C786042060E3E7E7E0000000080C093
:100BC000E0E0E0E0E0E0E0E0E0E0E0E0FCFEFFFFAD
:100BD000FFFEFCC080000000000000FEFFFFFFFFE2
:100BE000FFFFFFFFFFFFFFFFFFFFFFFFFFFFFFFF15
:100BF000FFFFFFFFFFFCF8000000FFFFFFFFFFFF0C
:100C0000FFFFFFFFFFFFFFFFFFFFFFFFFFFFFFFFF4
:100C1000FFFFFFFFFFFF00060F0F1F1F1F3F7F7F1C
:100C20007F7F3F1F1F1F1F1F1F1F1F3F7F7F7F7F54
:100C30003F1F1F1F0F071F1F000000008040A0A0C4
:100C4000A0A0A0A0A0A0A0A0A0A0BC828581BD82E1
:100C50003C4080000000000000FE01FC85FD01FF1B
:100C600003FDBDDDEDBD9D85FD03FF0305BDDDADD0
:100C70003C380304F8000000FF0082B24ABBBBBB53
:100C8000BA7AFACACE8686CECBFB7BBABABAB26A39
:100C9000E2EA00FF0006090A16111623414C4441FE
:100CA00023161113131313111623414C4441231619
:100CB00011170807AC0026018C026A0248022602BE
:100CC0000402E201C0019E0190036E034E032E0355
:100CD0000E03EE02CE02AE0200FCFEFFFFFFFFFF9E
:100CE000FFFFFFFFFFFFFFFFFFFFFFFFFFFFFFFF14
:100CF000FFFFFFFFFFFFFFFFFFFFFFFFFFFFFFFF04
:100D0000FFFFFFFFFEFC00103F7FFFFFFFFFFFFF25
:100D1000FFFFFFFFFFFFFFFFFFFFFFFFFFFFFFFFE3
:100D2000FFFFFFFFFFFFFFFFFFFFFFFFFFFFFFFFD3
:100D3000FFFFFF7F3F102F1000FC020101010101A6
:100D40000101010101010101010101010101010193
:100D50000101010101010101010101010101010183
:100D60000101010102FC00102F50A0A0A0A0A0A032
:100D7000A0A0A0A0A0A0A0A0A0A0A0A0A0A0A0A073
:100D8000A0A0A0A0A0A0A0A0A0A0A0A0A0A0A0A063
:100D9000A0A0A0502F10FFFFFFFFFFFFFFFFFFFFEE
:100DA000FFC0C0C0808000FFFFFFFFFFFFFFFFFF0D
:100DB000FFFFFFFFFFFFFFFFFFFFFFFFFFFFFFFF43
:100DC000FFFFFFE3E3C7C7C381FFFFFFFFFFFFFF95
:100DD000FFFFFFFFFFFFFFFFFF7FFFFFFFFFFFFFA3
:100DE000FFFFFFFFFFE1E1E1E1E0C0FFFFFFFFFFE9
:100DF000FFFFFFFFFFFFFFFFFFFF7F3FFFFFFFFF43
:100E0000FFFFFFFFFFFFFF010100000000FFFFFFEA
:100E1000FFFFFFFF7F3F1F070000000000001140A1
:100E2000756DEAEAD710DFDF4080BF404040808028
:100E3000001F1F1E3E3E3E3D3D397A7B787BF7F614
:100E400000FFEAE8D5D4D6109EBEA2A2BE22A244DC
:100E50004442813D3D3D3D3D3C3D3D3D393B383B80
:100E60003B3B807FAAA8AAA8AE20BEBCA1A1BF21FF
:100E7000A1A1A120C0F7F7F7F7F7787B7B3A3A3BBF
:100E80003C3D9D9D403FF1E8F4F8F4FAF4FA01018D
:100E9000FF010100000000FFFFFFFF7F3F8F4720A1
:100EA00010070000000000008017F8FFFFFEFCFCA8
:100EB000FCFCF8FFFFFEFCFCFCFCF8FFFFFEFCFC6A
:100EC000FCFCF8FFFFFEFCFCFCFCF8FFFFFEFCFC5A
:100ED000FCFCF8FFFFFEFCFCFCFCF8FFFFFEFCFC4A
:100EE000FCFCF8FFFFFEFCFCFCFCF8FFFFFEFCFC3A
:100EF000FCFCF8FFFFFEFCFCFCFCF8FFFFFEFCFC2A
:100F0000FCFCF8FFFFFEFCFCFCFCF8FFFFFEFCFC19
:100F1000FCFCF8FFFFFEFCFCFCFCF8FFFFFEFCFC09
:100F2000FCFCF8FFFFFEFCFCFCFCFFFFFFFFFFFFEB
:100F3000FFFFFFFFFFFFFFFFFFFFFFFFFFFFFFFFC1
:100F4000FFFFFFFFFFFFFFFFFFFFFFFFFFFFFFFFB1
:100F5000FFFFFFFFFFFFFFFFFFFFFFFFFFFFFFFFA1
:100F6000FFFFFFFFFFFFFFFFFFFFFFFFFFFFFFFF91
:100F7000FFFFFFFFFFFFFFFFFFFFFFFFFFFFFFFF81
:100F8000FFFFFFFFFFFFFFFFFFFFFFFFFFFFFFFF71
:100F9000FFFFFFFFFFFFFFFFFFFFFFFFFFFFFFFF61
:100FA000FFFFFFFFFFFFFFFFFFFF7F7F7F7F7F7F51
:100FB0007F7F7F7F7F7F7F7F7F7F7F7F7F7F7F7F41
:100FC0007F7F7F7F7F7F7F7F7F7F7F7F7F7F7F7F31
:100FD0007F7F7F7F7F7F7F7F7F7F7F7F7F7F7F7F21
:100FE0007F7F7F7F7F7F7F7F7F7F7F7F7F7F7F7F11
:100FF0007F7F7F7F7F7F7F7F7F7F7F7F7F7F7F7F01
:101000007F7F7F7F7F7F7F7F7F7F7F7F7F7F7F7FF0
:101010007F7F7F7F7F7F7F7F7F7F7F7F7F7F7F7FE0
:101020007F7F7F7F7F7F7F7F7F7F801728070922D9
:1010300014240804280789221424080428070922F4
:101040001424080428070922142408042807092264
:101050001424080428070922142408042807092254
:101060001424080428070922142408042807092244
:101070001424080428070922142408042807092234
:101080001424080428070922142408042807092224
:101090001424080428070922142408042807092214
:1010A000142408042807092214240804F9F9FAF979
:1010B000F9F9F9E9E9E9EAE9E9E96929A989CAC98E
:1010C000E9E1E1E9E9F9FAF9F9F9F9F9F9F9FAF9EE
:1010D000F9F9F9F9F9F9FAE9E9E9E9E969298AC1D6
:1010E000E1E9E9F9F9F9FAF9F9F9F9F9F9F9FAF9A6
:1010F000F9F9F9F9F9F9FAF9F9F9E9E9E1810A698E
:10110000E9E9E9E9E9F9FAF9F9F9F9F9F9F9FAF99D
:10111000F9F9F9F9F9F9FAF9F9E9E9E9E9E1E2E1C5
:10112000C189092969E9EAE9E9E9E9E97F7E1E5E01
:101130004E6E6676727A7C7C7E7E7E7E7E7E7E7E43
:101140007E7E7E7E7E7E7E7E7E7E7E7E7E7E7E7EBF
:101150007E7E7E7E7E7E7E7E1E4672787C7E7E7E5B
:101160007E7E7E7E7E7E7E7E7E7E7E7E7E7E7E7E9F
:101170007E7E7E7E7E7E7E7E7E7E7E7E7E7E7C709F
:10118000420E3E7E7E7E7E7E7E7E7E7E7E7E7E7E6B
:101190007E7E7E7E7E7E7E7E7E7E7E7E7E7E7E7E6F
:1011A0007E7E7E7C786042060E3E7E7E01020408D2
:1011B0001020408020079D733A1DD9B273979C4D33
:1011C000B9ED5A7139D739272773CE713999DD3A7C
:1011D00032E59CEB5CCD050D0F929DAB64E72AD9FF
:1011E000B94A76AE929DAB64E72A598CD145175D1A
:1011F00074D1450A4D079DAB9DB2B1395749272B94
:101200002EE76AD791652F5793652F57E3CAB9DA4E
:10121000291B9B734EA723536EBB565C6B25959B76
:101220007ED9B94B4EE66476EB709476CEB9BC723B
:10123000DBB5E272AE76CAC6E65CED3A070D0FD5B5
:10124000E594BC9C929753F2724A5E4EC9CB2979C1
:10125000E5955452492595545249259554524925AE
:1012600015192307524E2AA9A453B8954ED9D099DF
:10127000554E92659593548040756DEAEAD710DF1C
:10128000DF4080BF7F7F7FFFFFFFFFFFFFFFFFFF8C
:10129000FFFFFFFFFFFFFFFFFFFFFF0FF71B0BCB62
:1012A000CB4B4B4B4B4B4B4B4B4B4B4BCB4B4B4B8E
:1012B0004B4B4B4B4BCB4B4B4B4B4B4B4B4B4B4BFE
:1012C0004BCBCBCBCBCB4B4B4B4B4B4B4B4B4B4BEE
:1012D0004BCBCBCB0B1BF70FFFFFFFFFFFFFFFFF3E
:1012E000FFFFFFFFFFFFFFFFFF1FDFDFDF0FEFEF5E
:1012F00008A8EFE804757575751F1F1E3E3E3E3D3C
:101300003D39FA7B787BF7F600FFFFFFFFFFFFFF19
:10131000FFFFFFFFFFFFFFFFFFFFFF00FF0000FFDA
:10132000FFFE000000000000FE3E3830F1FE00002D
:1013300000000000FEFFFE0000000000FEFEFE00B8
:101340000000010107FFFE000000000000FEFE7E1D
:1013500070F1FFFF0000FF00FFFFFFFFFFFFFFFF37
:10136000FFFFFFFFFFFFFFFFFFC0BDBDBDBCBEBE57
:101370003E3E1E1E1F9F1F9F1FFAC8CDC476341607
:10138000060100E038B060677EFFFFE0FBE0FFE0B1
:10139000EAFFE0EFFFE0FAFDFFE8FF00FF0000FFDB
:1013A000FFFF0054AA54A800F9E0E4E0FFFF005456
:1013B000AA54A800FFFFFF0054A85600F7F7E3085F
:1013C000A04AA81C7FFFFF0054AA54A800FBFBC042
:1013D000C0FFFFFF0000FF00FFFFFFFFFFFFFFFF59
:1013E000FFFFFFFFFFFFFFFFFFFFFFFFFFFFFFFF0D
:1013F0008081FE40405E5356573D3D3D3D3C3C3C68
:101400003C3D383A393B3B3B80FF7F9F3F7F7FBF6E
:101410007FFF7F9F3F7F7FBF7FFFFF00FF0000FFB9
:10142000FF9F80958A958A809FFFFFFFFF9F809591
:101430008A958A809FFF9F80958A95809FFFFFC035
:101440008A958A9580FF9F80958A958A809F9F8F35
:1014500081E1FFFF0000FF00FFFF7F9F3F7F7FBF15
:101460007FFF7F9F3F7F7FBFFF01DDDDDDC0DEDED1
:10147000C0D2DEC0D1DFDFDFDFAAA8AAA8AE20BEBF
:10148000BCA1A1BF32B1B2B030D2D0E0D2D1D2D063
:10149000D0D2D0E0D2D1D2D0D0D2FF00FF0000FF16
:1014A000FF3F5F6F8F1F3FFE000000FEFE000183C5
:1014B000FF06F8000003FFFE0081071F7E0000FF0B
:1014C000FE000000FEFF070100FEFCF03F5F6F8F93
:1014D0001F3FFFFF0000FF00FFD2D0E0D2D1D2D0EB
:1014E000D0D2D0E0D2D1D2D0D3D4D5E5D5D5D5FD88
:1014F0000101E90101E9316971F7F7F7F7F7787B45
:101500007B3A3A3B3C3D9D9DC0FFFFFFFFFFFFFF45
:10151000FFFFFFFFFFFFFFFFFFFFFF00FF00007F58
:101520007F7F7E7C7C7E7F5F4040405E7E7E7F5FF3
:10153000415A7B5A4040415F405F7E786040407F27
:101540005F4040405F7F7860405F4F677F7E7C7C7C
:101550007E7F7F7F0000FF00FFFFFFFFFFFFFFFF99
:10156000FFFFFFFFFFFFFFFFFF0777777707777723
:101570000494F7F404F5F5F5F5F1E8F4F8F4FAF469
:10158000FA0101FFD7D7D7D75757179797D7C7C7AC
:10159000D7D7F7F7F7F7F7F7F7F7F7F6F5FBFAFA14
:1015A000FAFAFAFADA5A5A5A5ADADA5A4A4A5A5ABB
:1015B000FAFA7A7A7A7A7AFAFA7A7A7A7AFAFA7A8B
:1015C0007A7A7AFAFA7A3A1A1A9A9A1A1A3A5ADAFB
:1015D000DADAFAFAFAFBF5F6F7F7F7F7F7F7F7F7CB
:1015E000F7F7F7F7F7F7D7D7DFD0D7D7EFAF2FEF6A
:1015F0000F1E9E1E9E1E3E3E3EFFFFFFFF7F3F8F43
:10160000C7E0F0FDFBFDFDFCFCFDFDFDFDFDFDFD6E
:10161000FDFDFDFDFDFDFDFDFDFDFDFDFDFDFDFDFA
:10162000FDFDFDFDFF20A0FBF8FCFFE0E0FDF1E08B
:10163000ECFFE0E0EDE9E6FFE4E8E9E1F2FFE4E8F1
:10164000E9E1F2FDFFE0C0809F84849F80C0207F9D
:10165000FDFDFDFDFDFDFDFDFDFDFDFDFDFDFDFDBA
:10166000FDFDFDFDFDFDFDFDFDE5E5C5C5C5858770
:1016700080000E0D0E0D1E1D1A080B000202020145
:101680000009040000010202000005240010010509
:101690002401010104240206052406000107058136
:1016A0000310004009040100020A000000070502BF
:1016B00002400000070583024000000403090412F1
:1016C000010002EF020140412336800001010203C4
:1016D0000141726475696E6F204C4C430041726425
:1016E00075696E6F204C656F6E6172646F001201D8
:1016F000130014001501160217041807190B1A100D
:101700001B171C1E1D251E201F1B20162111220C1D
:1017100023082405250326022701280129012A017F
:101720002B022C032D052E082F0C30113116321BE5
:10173000332134253521361E371A381639123A0E20
:101740003B0B3C093D083E073F0740074108420963
:10175000430B440E45124616471A481E49214A2596
:101760004B224C1F4D1C4E1A4F1851165315551431
:10177000571459145B145D155F166118621A631CC7
:10178000641F65226625D5F08D14A1C881CFD9F1DB
:10179000AF200000341AF31911241FBECFEFDAE096
:1017A000DEBFCDBF11E0A0E0B1E0EAEFFEE302C092
:1017B00005900D92AE3BB107D9F726E0AEEBB1E054
:1017C00001C01D92A939B207E1F71BE0CBECDBE0C9
:1017D00004C02197FE010E94381ECA3CD107C9F7F8
:1017E0000E94DE1A0C94701F0C9400002F923F92FE
:1017F0004F925F926F927F928F929F92AF92BF9221
:10180000CF92DF92EF92FF920F931F93CF93DF93CC
:1018100000D000D000D0CDB7DEB7F02ECD82A02F03
:10182000B0E06C01CA0EDB1E1C141D040CF0F3C0EA
:10183000803891050CF0EFC0FB01EE0DF11D1E1676
:101840001F060CF0E8C0603471050CF0E4C04115CF
:10185000510509F4E0C0062F0770602EFB0177FDEB
:10186000379613E0F595E7951A95E1F71E2F77FF68
:1018700004C0662011F01FEF1E0F97FF05C0EE2772
:10188000FF27E81BF90B02C0E0E0F0E060E8C616B5
:10189000D10424F060E8962E981A01C09F2C9E1A5D
:1018A000612F012E000C770B1F3F1CF4B62EB09455
:1018B00001C0B12CDD24D3940E2D077009F4D12C76
:1018C000E694E694E694ED0C6E0D711D6930710599
:1018D0001CF068E0E62EE11A8B2C810E782D00E8D2
:1018E0007003800D911D11248E0F9F1F61E070E029
:1018F000062C02C0660F771F0A94E2F70D810330B1
:1019000011F001E001C002E0A919B1090A9F302CD1
:101910001124C02ED12CBF9CE00DF11D1124CE9EB0
:10192000D001CF9EB00DDE9EB00D11245A01AA0E3B
:10193000BB1E2115310509F0A9019601215031097D
:10194000A20FB31F4A0F5B1FEFEFE69F9001E79FC7
:10195000300D11242901409450941E0D1E83232D17
:1019600030E0099D200D311D11240E81801609F4EF
:1019700052C0DC01A853BE4F7A018501712C791445
:1019800009F441C0F8013490369EF001379EF00D05
:101990001124FA83E983E095F095FC83EB83FD81C4
:1019A000F23019F45C824B8211C0ED81EB3F19F4E7
:1019B0001A8219820BC0F7013490369EF001379ECF
:1019C000F00D1124E095F095FC83EB8387FC06C0B5
:1019D000FC91EB81EF23F981EF2BEC93662061F012
:1019E000F6E0F8154CF0FD01E058FF4F20803C80F8
:1019F00023203A8032283082EC0CFD1C0C0D1D1D7A
:101A000073941196BCCF8394A20EB31E420F531F42
:101A100080589F4FAACF26960FB6F894DEBF0FBE10
:101A2000CDBFDF91CF911F910F91FF90EF90DF908D
:101A3000CF90BF90AF909F908F907F906F905F906E
:101A40004F903F902F9008950895CF92EF920F936B
:101A5000E7E7F2E10491E8E7F2E1E49082E0C82EE2
:101A600020E030E049E752E160E070E080E090E0A3
:101A70000E94F60B0F91EF90CF900895DC01FB01CF
:101A8000808591859095982384FF17C056962C9158
:101A90005697203120F42F5F56962C9310C0F8945F
:101AA00087E78093000880930108A89588E18093D8
:101AB000600088E080936000FFCF56961C9293FFF1
:101AC00002C082E0808B08950895FC01DB01199625
:101AD0008C911997809518969C911897892399F065
:101AE0008281882311F08CE78283828181110BC06F
:101AF00081E0828380E48093900081E49FE0909372
:101B000099008093980092819923B1F09F5F92830E
:101B1000953059F09D3761F0923071F480E596E48C
:101B200090939900809398000895109290000895E2
:101B300081E050968C930895089508950F931F9314
:101B4000CF93DF93EC018B01FB0140858681978168
:101B500065E070E00E94241E892B51F0F801868117
:101B600097816FE070E00E94241E892B51F135C0EF
:101B7000DE011596BE01695C7F4F12968C9112971B
:101B80008823D1F08C918F5F8C3411F08C9301C03D
:101B90001C922C9130E0220F331FF901E251F94ED3
:101BA0005491CD010297FC015083F901E151F94EA6
:101BB00024910196FC0120831596A617B707E9F634
:101BC000CDCFFE0136969E01285C3F4F8181811169
:101BD00007C03596E217F307C9F745FF0CC008C0E8
:101BE00080818F5F883011F08083F3CF1082F1CF36
:101BF0008DA9813140F446FF09C08DA98C3330F4A2
:101C00008F5F8DAB03C081508DABF5CFDF91CF914E
:101C10001F910F910895DC0181E017968C9317971F
:101C200015961C921597EEEEF6E1E4911396EC935F
:101C30001397EFEEF6E1E4911496EC930895FC010E
:101C4000DB0116962D913C91179720FD2FC08481C2
:101C50008D3828F48B3508F58C33A8F408C08F3BF9
:101C600008F18F3B01F583E050968C931CC0828174
:101C70008150828316968D919C9117978770992732
:101C8000892B89F404C027703327232B61F481E06A
:101C90009581911180E0858306C082E0858381E093
:101CA000838301C0138284818F5F848308950895A4
:101CB000CF92DF92EF920F931F93CF93DF93FC01AC
:101CC0006A3039F48581848396818185890F868382
:101CD000AAC0A4816E3719F4AE5FA483A4C0962F66
:101CE000EF0166816F5F9A3384F4903314F59B3271
:101CF00019F11CF4913221F15DC09D3209F460C0EC
:101D00009E3209F057C01FE31CC09B354CF4913440
:101D100074F49A3399F09F3309F04CC012E411C067
:101D20008FE9890F8A3108F045C019EB03C01FEB1A
:101D300001C014E0190F05C011E403C013E401C091
:101D40001EE38F81062E000C770B0A2E000CBB0BB6
:101D5000813009F03AC0E0EBF3E00491E1EBF3E00D
:101D6000E490112379F1E02FF0E02E2D26952695B1
:101D70002695422F50E021E030E08E2D877011F43F
:101D800020E030E0240F351FE29F6001E39FD00C7C
:101D9000F29FD00C112496011203A001139F500D45
:101DA00011244E545C4F9AEFC92E20E030E0CD0153
:101DB0000E94F60B88858D5F9C81890F8C8333C0D0
:101DC00010E4BFCF42EB53E0EECFE0EBF3E0049141
:101DD000E1EBF3E0E490112309F1E02FF0E02E2D88
:101DE000269526952695422F50E021E030E08E2D55
:101DF000877011F420E030E0240F351FE29F60016E
:101E0000E39FD00CF29FD00C112496011203A00185
:101E1000139F500D11244E545C4F02C042EB53E00F
:101E20008BEFC82EC2CF81E090E0DF91CF911F9160
:101E30000F91EF90DF90CF900895089580E090E0AB
:101E4000089508950895CF93DF93EC0142E652E19F
:101E500061E170E08FE290E00E9461154DE352E194
:101E60006AE170E08BE290E00E9461154DE352E17F
:101E70006AE170E089E490E00E9461158A81811135
:101E800012C04DE352E16AE170E08AE390E00E9403
:101E9000611544EF51E16EE270E08AE190E0DF917C
:101EA000CF910C94611547ED51E16AE170E08AE34E
:101EB00090E00E94611544EB51E16EE270E08CE22B
:101EC00090E00E9461158A816FE00E94181E837065
:101ED00040E050E161E370E0CCEAD1E14817A9F0BD
:101EE000942F990F915B9B01FE01529FD001A07826
:101EF0001124A90F2770E20FF11D9491A853BE4F32
:101F00002C91922B9C934F5FE9CFDF91CF91089555
:101F1000EF92FF920F931F93CF93DF938C0128EAE8
:101F20003EE04AE250E169E270E080E090E00E9429
:101F30004D1526E93DE04EE15EE060E070E080E0B6
:101F400090E00E944D1528ED3CE046E35DE060E046
:101F500070E081E590E00E944D15E8012796780138
:101F600089E3E80EF11C88818823C9F0FE013197CE
:101F7000408150E0440F551FFA01E853F34F25917B
:101F80003491FA01E854F34F45915491FE0133978F
:101F9000608170E03197808190E00E944D15259618
:101FA000CE15DF0501F7E6EBFCE025913491E4EB7B
:101FB000FCE045915491F80185A96AE270E090E057
:101FC0000E944D152AEB3BE046E35CE06FE170E0D8
:101FD00080E690E0DF91CF911F910F91FF90EF90FD
:101FE0000C944D150C94D31E0C94D31E0C94D31E3C
:101FF0000C94D31E0C94D31E1F920F920FB60F9207
:1020000011242F933F938F939F93AF93BF9380910E
:10201000900690919106A0919206B091930630910E
:10202000BE0123E0230F2D3720F40196A11DB11D21
:1020300005C026E8230F0296A11DB11D2093BE0105
:102040008093900690939106A0939206B093930686
:1020500080918C0690918D06A0918E06B0918F068E
:102060000196A11DB11D80938C0690938D06A093BF
:102070008E06B0938F06BF91AF919F918F913F9144
:102080002F910F900FBE0F901F9018954F925F9257
:102090007F928F929F92AF92BF92CF92DF92EF92F8
:1020A000FF920F931F93CF93DF9300D000D0CDB753
:1020B000DEB729011C2DA02EB12C9C012A0D3B1D41
:1020C000121613060CF0B3C1803891050CF0AFC1A5
:1020D000FB01EE0DF11D1E161F060CF0A8C16034A9
:1020E00071050CF0A4C14115510509F4A0C1E62FFA
:1020F000E770FE2EFB0177FD3796A3E0F595E79597
:10210000AA95E1F7AE2F77FF04C0FF2011F0AFEFE3
:10211000AE0F97FF05C0EE27FF27E81BF90B02C0A3
:10212000E0E0F0E02038310524F020E8722E781A43
:1021300001C0702E7E1A6A2F0A2E000C770BAF3F5B
:102140001CF4D62ED09401C0D12C21E03E2D377046
:1021500009F420E0E694E694E694E20E6E0D711D1B
:10216000693071051CF028E0E22EEA1AED183D2DC9
:102170003A0FDC0120E83203A00DB11D1124AE0F8F
:10218000BF1FD09EE00DF11D11244E0F5F1F81E097
:1021900090E04C010F2C02C0880C991C0A94E2F7C5
:1021A000133009F403C1A0F4113009F4B5C01230A2
:1021B00009F03DC18FEF889DB001899D700D1124FC
:1021C000609570957C836B835C802E2D230F2BC0D4
:1021D0001A3F31F01B3F09F02AC12E2D230F88C072
:1021E0002E2D230F51C0FA01E00FF11FE491E89D5D
:1021F0006001E99DD00C1124DA82C98237FD07C045
:10220000FC01E080EE2DE623CE2AFC01C082F11015
:1022100013C00F5F1F4F0196071528F33F5F4A0D4C
:102220005B1DA058BF4F321709F401C1CD0188537F
:102230009E4F00E010E0F0CF37305CF7FC01E05833
:10224000FF4FD080D520CA80DC28D082E2CFFA01AF
:10225000E60FF71FE491E89D8001E99D100D112420
:102260001A83098337FD04C0FC011081012B008310
:10227000F11013C06F5F7F4F0196671540F33F5F0A
:102280004A0D5B1DA058BF4F321709F4D0C0CD01D5
:1022900088539E4F60E070E0F0CF37305CF78C01E0
:1022A00000581F4FF801E080EA81EE2AF801E08231
:1022B000E1CFFA01E00FF11FE491E89DC001E99D33
:1022C000900D11249A83898337FD05C08095FB0109
:1022D000908189238083F11014C00F5F1F4F6F5FBF
:1022E0007F4F071530F33F5F4A0D5B1DA058BF4F6E
:1022F000321709F49CC0BD0168537E4F00E010E026
:10230000F0CF373054F7FB01E058FF4F8A818095BA
:10231000908189238083E1CFC2018E0F9F1F2E2DD4
:10232000230F321709F483C0BD0168537E4F6B0140
:1023300000E010E0071590F5FC01E00FF11FE491BB
:10234000E89DB001E99D700D1124609570957C8326
:102350006B83FA01E00FF11FE491E89D2001E99DF4
:10236000500C11245A82498237FD05C0F601708154
:102370006723462A4082FF2059F037304CF4F6019B
:10238000E058FF4F70816C8167237A81672B6083EF
:102390000F5F1F4FFFEFCF1ADF0ACCCF3F5F4A0D11
:1023A0005B1D8A0D9B1DA058BF4FBBCFC72CD12CE6
:1023B000E40FF51FA853BE4F60E870E06C197D096B
:1023C000AC18BD088501000F111F572D2E2DCF937E
:1023D000DF93ED01EF96EF962296A590C590FF2032
:1023E00059F0A89C5001C89C600137302CF4E8805B
:1023F000D094ED20EB28E99233233AF0EC90C0948E
:10240000EC20EA28ED920C94061211965A9529F7C1
:102410002A9551F0572D33951124E00FF11DA60F89
:10242000B11DC60FD11DD9CFDF91CF9111240F90CF
:102430000F900F900F90DF91CF911F910F91FF9010
:10244000EF90DF90CF90BF90AF909F908F907F9054
:102450005F904F900895CF92DF92EF920F93CF93BA
:10246000DF934115510569F1FA0104913196E49029
:102470004E5F5F4F2223F9F0C02FD0E0AE2DA6951E
:10248000A695A695EA2FF0E0A1E0B0E03E2D3770CA
:1024900011F4A0E0B0E0AE0FBF1FCA9F6001CB9F58
:1024A000D00CDA9FD00C11242C9DF0012D9DF00D45
:1024B00011244E0F5F1F2AEFC22E20E030E00E9451
:1024C0004610DF91CF910F91EF90DF90CF9008955C
:1024D000CF93DF93EC0126EB38E048E35AE069E262
:1024E00070E080E090E00E944D1524EA37E04CE275
:1024F00058E060E070E080E090E00E944D1526EE2C
:1025000036E044E457E060E070E081E590E00E944E
:102510004D158A812CEE35E048E656E06FE170E01B
:1025200090E00E944D158D81882341F0813081F427
:102530008A8190E020E042ED55E005C08A8190E07C
:1025400020E04FED55E06CE170E040960E942B12C8
:102550008B81882369F08A8190E028E835E04CEA95
:1025600055E06EE170E00897DF91CF910C944D1526
:10257000DF91CF910895CF92EF920F93CF93DF9396
:10258000FC016A3039F48581848396818185890FC5
:10259000868373C084816E3719F48D5F84836DC028
:1025A000262FEF0166816F5F2A334CF42033C4F489
:1025B0002D32C1F02E3281F0213221F515C02B359C
:1025C0002CF421345CF42F3319F11CC09FE9920FD5
:1025D0009A31C0F4275409C02FE307C0215405C025
:1025E0002C5F03C021E401C02EE33F81062E000CC6
:1025F000770B082E000C990B313061F44EE754E054
:102600000E942B1288858C5F9C81890F8C8335C03A
:1026100020E4EBCFEEE7F4E00491EFE7F4E0E490A0
:10262000222311F1A02FB0E04E2D469546954695F8
:10263000E42FF0E041E050E03E2D377011F440E02F
:1026400050E04E0F5F1FA49FF001A59FF00DB49FB7
:10265000F00D1124AF012403D001259FB00D1124EA
:10266000AD0140585B4F02C040E854E02BEFC22E52
:1026700020E030E00E944610C5CF81E090E0DF917D
:10268000CF910F91EF90CF900895BC0180E090E042
:102690000C94B9198FB18095807F669B88601C9BD4
:1026A000846008951F93CF93DF93DC0120E030E036
:1026B00040E050E011E0C1E0D0E02617370791F18B
:1026C00014968C911497811115C014961C9314972D
:1026D00012968D919C911397ED91FC911197E80FB3
:1026E000F91FE4911596EC931597019613969C9318
:1026F0008E93129714969C91149715968C9115971A
:10270000892349F0FE01022E02C0EE0FFF1F0A943A
:10271000E2F74E2B5F2B990F14969C9314972F5F23
:102720003F4FCBCFCA01DF91CF911F9108950895FC
:1027300008950895089508950C94D31E0895FC01FA
:102740008091C701811103C08FEF9FEF08959FB75C
:10275000F89482E08093E9002091F20030E01216B4
:10276000130614F421E030E02115310559F02898C2
:1027700084E68093C6018091F10080838091F2000D
:10278000882319F09FBFC90108958BE68093E80064
:10279000F9CF2FB7F89483E08093E9009091E80097
:1027A000892F807295FF04C09091F20080E4891B0C
:1027B0002FBF08958091340681110DC082E080936F
:1027C000300684E080933106109233061092320670
:1027D00081E08093340680E396E00895CF93DF9301
:1027E0001F92CDB7DEB76983DC01ED91FC910280C9
:1027F000F381E02D41E050E0BE016F5F7F4F09950E
:102800000F90DF91CF91089583E08093E90080914C
:10281000F200882319F08AE38093E80008950E946B
:10282000C91390E00895CF93DF931F92CDB7DEB721
:10283000FC018485958597FD05C02FEF3FEF358717
:1028400024870BC0CE0101960E949F13019719F4B3
:10285000898190E002C08FEF9FEF0F90DF91CF91C1
:1028600008950F931F93CF93DF931F92CDB7DEB7D9
:102870008C01FC018485958597FF0EC0CE010196E1
:102880000E949F13019719F4298130E002C02FEFB5
:102890003FEFF80135872487F801848595850F90EF
:1028A000DF91CF911F910F910895FC01848595854B
:1028B00097FD0BC09FB7F89482E08093E900809168
:1028C000F2009FBF90E0019608959FB7F89482E0D0
:1028D0008093E9008091F2009FBF90E008958F926D
:1028E0009F92AF92BF92CF92DF92EF92FF920F939F
:1028F0001F93CF93DF935C016B017A0180910B01F1
:10290000882309F45BC08091C701882309F456C06D
:102910008091C50180FF05C08091E00082608093B6
:10292000E000E70110E00AEF83E0882E9AE3992E99
:102930002097D9F10E94C91381110AC0015009F4EE
:102940003DC061E070E080E090E00E94B919F0CFF6
:10295000282F30E0C217D3070CF48C2F4FB7F89410
:102960008092E9009091E80095FF1DC0282F30E08B
:10297000C21BD30BF601982F915020F081918093C8
:10298000F100FACFC20ED31E112319F09092E80085
:1029900009C08091E80085FD06C09092E80011E032
:1029A000209709F010E04FBFC3CF1111C3CF5D983E
:1029B00084E680932F061E141F0444F081E090E00B
:1029C000F5019383828380E090E001C0C701DF912D
:1029D000CF911F910F91FF90EF90DF90CF90BF901C
:1029E000AF909F908F900895DF92EF92FF920F9398
:1029F0001F93CF93DF93D82E8A017B01E40EF51E3F
:102A0000EB01CE15DF0571F0D7FE03C0FE01849106
:102A100001C088810E947E1921968111F2CF8FEF2B
:102A20009FEF01C0C801DF91CF911F910F91FF90DF
:102A3000EF90DF9008950F931F93CF93DF931F9232
:102A4000CDB7DEB782E0898342E450E069E776E102
:102A500080E80E94F4140E94DA13DC0112960D91B2
:102A60001C9113970115110569F0D801ED91FC91A6
:102A70000280F381E02DBE016F5F7F4FC801099591
:102A800097FF07C089810F90DF91CF911F910F9120
:102A90000895F80100851185E5CFCF92EF920F934D
:102AA0004115510551F0FA0104913196E4904E5FC1
:102AB0005F4FCC24C3940E9446100F91EF90CF90AB
:102AC00008952F923F924F925F926F927F928F92D2
:102AD0009F92AF92BF92CF92DF92EF92FF920F93AD
:102AE0001F93CF93DF93CDB7DEB72B970FB6F89434
:102AF000DEBF0FBECDBF4C016B015A8349831C82E0
:102B00001B821D821E8268E070E0CE0101960E9449
:102B1000521301961C0168E070E0CE0101960E94FC
:102B200052138C0161E070E0CE0101960E945213B5
:102B3000482FC401820D931D97FDD3C050E8851620
:102B400091040CF0CEC098012F5F3F4FC601820F59
:102B5000931F97FDC6C060E4C616D1040CF0C1C037
:102B60008601D7FE04C0002711270C191D09077024
:102B700011277601D7FE03C077E0E70EF11C63E072
:102B8000F594E7946A95E1F7D7FE09C081E0E81A69
:102B9000F10888E090E0BC01601B710B8B016901BA
:102BA00037FF03C077E0C70ED11C53E0D594C7941C
:102BB0005A95E1F727703327232B19F08FEFC81AA6
:102BC000D80A4F8331E020E0A12CB12C612C712C6C
:102BD00088E090E0AC01401B510B598748876C148A
:102BE0007D040CF07EC044244394512C61E070E0DD
:102BF000CE0101962A873B870E9452132A853B8586
:102C0000892B21F452E0450E511CF0CFB201CE01C8
:102C100001960E945213AC014F5F5F4FE0E0F0E07D
:102C20002A853B85E417F50708F052C06F816111D2
:102C3000232B330F09F04AC0B701660D771DCB0176
:102C40000196099798F5C501880D991D8038910561
:102C500068F52B015694542C442457944794480CFF
:102C6000591C4A0C5B1C6F3F8FEF7807B1F1D20102
:102C7000A853BE4F822F002E01C0880F0A94EAF796
:102C80009C91892B8C930115110581F0673071059A
:102C900069F0D201A85BBD4F30E0088402C03595D1
:102CA00027950A94E2F78C91282B2C939FEFA91A71
:102CB000B90AA214B30444F06FEF661A760A31E041
:102CC00020E0A12CB12C02C031E020E03196AACF47
:102CD0004F8151E045274F8382CF01151105C9F679
:102CE000E5CF2B960FB6F894DEBF0FBECDBFDF91B8
:102CF000CF911F910F91FF90EF90DF90CF90BF90F9
:102D0000AF909F908F907F906F905F904F903F908B
:102D10002F9008951F920F920FB60F9211248F9348
:102D20009F938091E1009091E100937F9093E10067
:102D300083FF0FC01092E90091E09093EB00109296
:102D4000EC0092E39093ED001092C70198E090930D
:102D5000F00082FF20C093E09093E9009091F20090
:102D6000992319F09AE39093E80090912F06992304
:102D700039F090912F06915090932F06992389F165
:102D80009091C601992339F09091C601915090938A
:102D9000C601992341F184FF10C08091E2008E7E2C
:102DA00081608093E2008091E1008F7E8093E1005A
:102DB0008091C5018E7E806111C080FF16C0809118
:102DC000E2008E7E80618093E2008091E1008E7E41
:102DD0008093E1008091C5018E7E81608093C50162
:102DE00004C05D9ACDCF289AD6CF9F918F910F9036
:102DF0000FBE0F901F9018951F920F920FB60F9253
:102E00001124CF92DF92EF92FF920F931F932F9393
:102E10003F934F935F936F937F938F939F93AF9362
:102E2000BF93EF93FF93CF93DF93CDB7DEB76C974C
:102E3000DEBFCDBF1092E9008091E80083FFEDC1B5
:102E400068E0CE0145960E94AC1982EF8093E800BD
:102E50008D8987FF05C09091E80090FFFCCF03C0EB
:102E60009EEF9093E800982F907609F0C6C09E8957
:102E70002F89188D91110CC0803829F48091C401DC
:102E80008093F10002C01092F1001092F10048C14D
:102E9000422F50E0512B913051F4811141C141300A
:102EA000510509F03DC18091C4018D7F0BC0933065
:102EB00061F4811135C14130510509F031C1809172
:102EC000C40182608093C4012BC1953041F480918C
:102ED000E80080FFFCCF20682093E30021C19630FA
:102EE00009F05FC0EB8CFC8C1092E9001092C201DB
:102EF0001092C101123091F51092C0011092BF01E1
:102F00000E941B1599E0BE016F5F7F4FDB01E92F27
:102F10001D92EA95E9F799831A8391E09E8390EADE
:102F200098879AEF99872091C1013091C201275F5C
:102F30003F4F3C832B838D831092E9001092C20196
:102F40001092C101F092C001E092BF0149E050E04F
:102F500080E00E94F4140E941B15E2C0F092C001B0
:102F6000E092BF010E94DA13DC011296ED90FC9012
:102F70001397E114F10409F4C0C0D701ED91FC915D
:102F80000480F581E02DBE016B5E7F4FC70109957E
:102F9000009719F00CF0C4C0C7C0F701E084F184B9
:102FA000E8CF973009F4C0C0983021F481E08093D5
:102FB000F100B6C0993009F0B3C0837009F0B4C015
:102FC000E7E1F1E081E021E036E39081992361F0CF
:102FD0008093E9002093EB0091919093EC00309363
:102FE000ED008F5F873089F78EE78093EA001092BB
:102FF000EA008F898093C70193C08B8D9C8D1092BE
:10300000E9001092C2011092C1019093C001809317
:10301000BF01898D811156C08E899D89913A59F4DD
:10302000813209F081C047E050E064E071E080E067
:103030000E94F41475C0913209F076C0833289F48D
:10304000888D90E0982F88272F89822BA0E0B0E010
:103050008093000190930101A0930201B0930301BA
:103060005FC0803269F48091E80082FFFCCF67E0A6
:1030700084E091E00E94AC198BEF8093E80006C0D9
:10308000823209F04DC08F8980930B018091C3017A
:10309000882319F0EEEFFAE002C0E0E0F8E080915A
:1030A000040190910501A0910601B0910701803BB8
:1030B0009440A105B10509F07BC080910B0180FF10
:1030C00093C076C00E94DA13DC0112960D911C9118
:1030D00013970115110541F1D801ED91FC91019073
:1030E000F081E02DBE016B5E7F4FC8010995811113
:1030F00017C0F80100851185ECCF113009F44EC0DE
:10310000133091F48F89882309F445C0823081F40B
:1031100040E860E18DED96E10E94F719882321F0E7
:103120008EEF8093E80079C081E28093EB0075C058
:10313000813029F440E86BE081ED96E1EDCF8330FA
:1031400099F70E94DA13DC011296ED90FC90139728
:103150008E010F5F1F4F6801E114F10479F0D70170
:10316000ED91FC910680F781E02DB801C70109952A
:10317000080F111DF701E084F184EECFD8011C92F5
:10318000F60101900020E9F73197BF016C197D0924
:1031900040E0C601C1CF6BEB76E102C06FEB76E198
:1031A0006115710509F2FB01449150E080E840CFC0
:1031B0000FB6F894A89580916000886180936000B4
:1031C000109260000FBEA895EE3F2AE0F20739F09A
:1031D0008091FE0A9091FF0A91838083A1CF109283
:1031E000FF0A1092FE0A9CCFEE3F8AE0F80731F00A
:1031F000808191819093FF0A8093FE0A87E797E789
:10320000918380839BE088E10FB6F894A895809322
:1032100060000FBE9093600083CF6C960FB6F89459
:10322000DEBF0FBECDBFDF91CF91FF91EF91BF9178
:10323000AF919F918F917F916F915F914F913F914E
:103240002F911F910F91FF90EF90DF90CF900F90F3
:103250000FBE0F901F901895CF92DF92EF92FF92C2
:103260000F931F93CF93DF936C017A018B01C0E022
:10327000D0E0CE15DF0589F0D8016D918D01D60122
:10328000ED91FC910190F081E02DC6010995892B0B
:1032900011F47E0102C02196ECCFC701DF91CF91DE
:1032A0001F910F91FF90EF90DF90CF9008953FB75F
:1032B000F89480918C0690918D06A0918E06B09125
:1032C0008F0626B5A89B05C02F3F19F00196A11DBA
:1032D000B11D3FBFBA2FA92F982F8827820F911DAC
:1032E000A11DB11DBC01CD0142E0660F771F881FF3
:1032F000991F4A95D1F708950E946B1F4091C10113
:103300005091C2012091BF013091C0014217530773
:10331000B4F49091E8009570E1F39091E80092FD8B
:1033200019C08093F1008091C1019091C201019672
:103330008F739927892B19F48EEF8093E800809181
:10334000C1019091C20101969093C2018093C10185
:1033500081E0089580E00895615030F02091F100FF
:10336000FC0120830196F8CF289884E68093C6015B
:1033700008958F929F92AF92BF92CF92DF92EF9279
:10338000FF926B017C010E9457194B015C01C11433
:10339000D104E104F104F1F00E945719DC01CB01E2
:1033A00088199909AA09BB09883E9340A105B1056E
:1033B00070F321E0C21AD108E108F10888EE880E06
:1033C00083E0981EA11CB11CC114D104E104F104D6
:1033D00019F7DDCFFF90EF90DF90CF90BF90AF90C7
:1033E0009F908F90089588EC95E00C949B13CF925A
:1033F000DF92EF92FF920F931F93CF93DF931F9271
:10340000CDB7DEB7182F062FE42E862F880F8E5FDC
:1034100099830E947E1983E00E947E19F12EC12EAD
:103420009981D92E8C2D8F19801798F4F601E7FE1B
:1034300002C0849101C080810E947E19182F80E013
:103440000E947E198123FFEFCF1ADF0A8111EACF94
:1034500001C081E00F90DF91CF911F910F91FF90FC
:10346000EF90DF90CF90089510923F0610923E06A5
:1034700088EE93E0A0E0B0E0809340069093410690
:10348000A0934206B093430681E291E090933D06FB
:1034900080933C068FEF9FEF9093490680934806F8
:1034A0001092D0051092D10580E18093D205109240
:1034B000CF051092CE051092D40583E391E090934E
:1034C000CC058093CB0589EB91E09093C90580935F
:1034D000C8051092DE051092DD0581E491E090931D
:1034E000DC058093DB0598E09093E40581E0809310
:1034F000E3051092E0051092E1051092DF0580933C
:10350000E2051092E8051092E7052DE431E03093D2
:10351000E6052093E5059093EE058093ED05109266
:10352000EA051092EB051092E9058093EC0589E617
:1035300091E09093DA058093D9051092EF0589E91F
:1035400091E09093F1058093F0051092F20589E7E0
:1035500091E09093F4058093F3058CE98093F50551
:103560001092F6051092F7051092F80589E891E09F
:103570009093FA058093F9051092FB0580E090E0A6
:103580006EEE76E14FEE56E1DC01A853BA4FD896C5
:103590001C92D897D6961C92D697FB012491D4966C
:1035A0002C93D497FA012491D5962C9305968233C7
:1035B000910551F780E180932E060895789484B5A3
:1035C000826084BD84B5816084BD85B5826085BD1F
:1035D00085B5816085BD80916E00816080936E00AD
:1035E000109281008091810082608093810080919F
:1035F0008100816080938100809180008160809350
:103600008000809191008260809391008091910070
:103610008160809391008091900081608093900000
:103620008091C10084608093C1008091C10082605C
:103630008093C1008091C10081608093C10080911E
:10364000C30081608093C3008091C000826080933A
:10365000C0008091C20081608093C20080917A0096
:10366000846080937A0080917A00826080937A00EF
:1036700080917A00816080937A0080917A008068DE
:1036800080937A001092C7011092C4011092C50174
:103690008091D70081608093D70080EA8093D80022
:1036A00089B5806189BD89B5826089BD09B400FE94
:1036B000FDCF61E070E080E090E00E94B919809158
:1036C000D8008F7C80618093D8008091E000807F5B
:1036D0008093E0008091E1008E7E8093E1008DE098
:1036E0008093E200559A209AEEEFFFE7859194913E
:1036F0008B3F9C4D19F481E08093C30181EC809352
:103700007C0085B1806F85B984B1877E84B984B12E
:10371000876E84B95E9A5F988AB1806D8AB9769A0D
:103720006E9881B3806F81BB899880B38D7080BBA8
:1037300080E58CBD81E08DBD85E090E00E94451361
:103740005F9A85E090E00E9445135E985C98E6E8F9
:10375000F7E18DE08E0F94919EBD00000DB407FE41
:10376000FDCF31968E13F7CF5C9A81E88093640089
:10377000809165008160809365000E944A1387FFF5
:1037800024C05C9885EA8EBD00000DB407FEFDCF15
:103790005C9A2E982F982D98809164008062809377
:1037A000640081E083BF889513BEFCCF2D980E94F2
:1037B0004A138478843871F00E944A1384718431EA
:1037C00029F188EC90E00E9445130E944A1382FD83
:1037D000EDCF38C02D9A88EC90E00E9445132F98C9
:1037E00082E090E00E949F1D8F3F29F06FEF82E002
:1037F00090E00E94A71D84EF91E00E9445132F9A4C
:103800000E944A1384788438D9F3D6CF2D9A88EC55
:1038100090E00E9445132E9882E090E00E949F1D48
:10382000882329F060E082E090E00E94A71D84EFE9
:1038300091E00E9445132E9A0E944A1384718431AC
:10384000D9F3BFCF2D9A82E090E00E949F1D88237C
:1038500031F03E9A3F9A81E08093940604C0109222
:1038600094063E983F98809164008E7F8093640018
:1038700080917A00806480937A0080917A0086FD3E
:10388000FCCFC0917800D09179000E9457198E0129
:1038900020E030E0980111270027600F711F821F80
:1038A000931F611571058105910511F00E94961D08
:1038B000809164008160809364008DE08093D205E4
:1038C00083E884BD8FEF87BD81EF809380001092E5
:1038D000880010928A001092D8058824839408ECFE
:1038E00011E0D0E08EEEE82E86E1F82E9FEEC92E94
:1038F00096E1D92E20E0A22E20E0B22E99249394B6
:103900008FB7F8944091900650919106609192067D
:10391000709193068FBF8091D305942F981B892FA8
:10392000C091D405CC2329F09093D5051092D405ED
:10393000A3C09091D205891740F48F5F891708F0D2
:103940009BC083BE889513BE97C09092D4054093C8
:10395000D3058091CE059091CF0501969093CF0528
:103960008093CE058091D0058093D1050E944A13A3
:103970008093D0058C2FF80181118FEF0024819363
:103980008193819381930394D1F78091D8058130FD
:10399000E1F030F0823009F44EC0833059F15FC05D
:1039A0008091D705882321F01092CA051092D7057F
:1039B00068EC75E080EF95E00E94650D68EC75E0BD
:1039C00080EF95E00E94230F4AC09091D705913077
:1039D00021F08093CA058093D70568EC75E089EDE6
:1039E00095E00E943E0D68EC75E089ED95E00E943F
:1039F000250D35C09091D705933081F08093CA058D
:103A0000909200061092FE05F70194919093FC05A8
:103A1000F60194919093FD058093D70568EC75E0CD
:103A200089EF95E00E949E0D68EC75E089EF95E0C6
:103A30000E94880F14C09091D705923021F0809396
:103A4000CA058093D70568EC75E083EF95E00E9486
:103A50001F0E68EC75E083EF95E00E946812F80194
:103A600080E098E000800EBCD111012C019780FD10
:103A7000FDCF0192B9F70DB4A114B10409F440CF00
:103A80000E9400003DCF8F929F92AF92BF92CF9243
:103A9000DF92EF92FF92CF93DF93EC0168817981FF
:103AA0008A819B81611571058105910521F464E28C
:103AB00079ED8BE597E02DE133EF41E050E00E9496
:103AC000B51D49015A019B01AC01A7EAB1E40E946E
:103AD000D41D6B017C01ACEEB4EFA50194010E94F2
:103AE000E21DDC01CB018C0D9D1DAE1DBF1DB7FF7E
:103AF00003C00197A109B04888839983AA83BB8337
:103B0000BC01CD019F77DF91CF91FF90EF90DF90C7
:103B1000CF90BF90AF909F908F9008950E94431DCB
:103B200008958CE091E00E94431D089560930C017C
:103B300070930D0180930E0190930F010895F999F0
:103B4000FECF92BD81BDF89A992780B50895262FA2
:103B5000F999FECF1FBA92BD81BD20BD0FB6F89472
:103B6000FA9AF99A0FBE01960895052E97FB1EF456
:103B700000940E94CC1D57FD07D00E94E71D07FC52
:103B800003D04EF40C94CC1D509540953095219562
:103B90003F4F4F4F5F4F0895909580957095619579
:103BA0007F4F8F4F9F4F08950E94091EA59F900D34
:103BB000B49F900DA49F800D911D11240895B7FF0F
:103BC0000C94D41D0E94D41D821B930B0895A1E276
:103BD0001A2EAA1BBB1BFD010DC0AA1FBB1FEE1F87
:103BE000FF1FA217B307E407F50720F0A21BB30BD2
:103BF000E40BF50B661F771F881F991F1A9469F74E
:103C000060957095809590959B01AC01BD01CF01A9
:103C10000895A29FB001B39FC001A39F700D811DA5
:103C20001124911DB29F700D811D1124911D0895C5
:103C3000991B79E004C0991F961708F0961B881FFE
:103C40007A95C9F780950895AA1BBB1B51E107C05F
:103C5000AA1FBB1FA617B70710F0A61BB70B881F1C
:103C6000991F5A95A9F780959095BC01CD010895AB
:103C7000EE0FFF1F0590F491E02D0994CF93DF9391
:103C80008230910510F482E090E0E0919706F09187
:103C9000980620E030E0C0E0D0E0309711F140819C
:103CA000518148175907C0F04817590761F48281BC
:103CB0009381209719F09B838A832BC09093980659
:103CC0008093970626C02115310519F04217530736
:103CD00018F49A01BE01DF01EF010280F381E02DAB
:103CE000DCCF2115310509F1281B390B24303105B2
:103CF00090F412968D919C9113976115710521F0A6
:103D0000FB019383828304C0909398068093970667
:103D1000FD01329644C0FD01E20FF31F81939193A0
:103D2000225031092D933C933AC020919506309151
:103D30009606232B41F42091120130911301309308
:103D400096062093950620911001309111012115BE
:103D5000310541F42DB73EB7409114015091150142
:103D6000241B350BE0919506F0919606E217F307B8
:103D7000A0F42E1B3F0B2817390778F0AC014E5FDB
:103D80005F4F2417350748F04E0F5F1F509396067C
:103D9000409395068193919302C0E0E0F0E0CF015B
:103DA000DF91CF9108950F931F93CF93DF930097E7
:103DB00009F48CC0FC01329713821282009197069D
:103DC000109198060115110581F420813181820F2F
:103DD000931F20919506309196062817390779F59B
:103DE000F0939606E093950671C0D80140E050E04C
:103DF000AE17BF0750F412962D913C911397AD0169
:103E00002115310509F1D901F3CF9D01DA01338381
:103E1000228360817181860F971F8217930769F44F
:103E2000EC0128813981260F371F2E5F3F4F3183E8
:103E300020838A819B8193838283452B29F4F0938D
:103E40009806E093970642C01396FC93EE93129760
:103E5000ED01499159919E01240F351FE217F30797
:103E600071F480819181840F951F029611969C9325
:103E70008E938281938113969C938E931297E0E0A8
:103E8000F0E0D80112968D919C911397009719F04C
:103E9000F8018C01F6CF8D919C9198012E5F3F4FD8
:103EA000820F931F209195063091960628173907A7
:103EB00069F4309729F4109298061092970602C080
:103EC000138212821093960600939506DF91CF918C
:103ED0001F910F91089581E090E0F8940C94701F69
:103EE0001BE0CBECDBE004C0FE010E94381E2196F3
:0A3EF000CC3CD107C9F7F894FFCFCE
:103EFA00FFFFFFFF00E100000000000001000000DA
:103F0A0000009906800000C18081000000000000C6
:103F1A0000EE136F140F1404145514131431140003
:103F2A00000000240D000000009E13FA0F0000009C
:103F3A0000580E2C191E0F1D0F00000000BB122C7A
:103F4A00191E0F1D0F0000000000000000220F21A3
:103F5A000F7C197C19000000009A13F20F640D21DE
:103F6A000F3E0D250D000000009813F60F570E2185
:103F7A000F1F0E6812000000009713F40F0B0E219A
:103F8A000F9E0D880F000000009913F80F9D0D2158
:103F9A000F650D230F0000000000000000220F2112
:0E3FAA000F7C197C19000000009B139C130073
:00000001FF
